{
  "_format": "hh-sol-artifact-1",
  "contractName": "SocialDiamond",
  "sourceName": "contracts/SocialDiamond.sol",
  "abi": [
    {
      "inputs": [
        {
          "internalType": "address",
          "name": "_initialAsset",
          "type": "address"
        },
        {
          "internalType": "uint256[]",
          "name": "_tiers",
          "type": "uint256[]"
        }
      ],
      "stateMutability": "nonpayable",
      "type": "constructor"
    },
    {
      "anonymous": false,
      "inputs": [
        {
          "indexed": true,
          "internalType": "address",
          "name": "previousOwner",
          "type": "address"
        },
        {
          "indexed": true,
          "internalType": "address",
          "name": "newOwner",
          "type": "address"
        }
      ],
      "name": "OwnershipTransferred",
      "type": "event"
    },
    {
      "inputs": [
        {
          "internalType": "address",
          "name": "_recipient",
          "type": "address"
        }
      ],
      "name": "claim",
      "outputs": [],
      "stateMutability": "nonpayable",
      "type": "function"
    },
    {
      "inputs": [
        {
          "internalType": "address",
          "name": "",
          "type": "address"
        }
      ],
      "name": "countTweetsFunded",
      "outputs": [
        {
          "internalType": "uint256",
          "name": "",
          "type": "uint256"
        }
      ],
      "stateMutability": "view",
      "type": "function"
    },
    {
      "inputs": [
        {
          "internalType": "address",
          "name": "",
          "type": "address"
        }
      ],
      "name": "currentTier",
      "outputs": [
        {
          "internalType": "uint256",
          "name": "",
          "type": "uint256"
        }
      ],
      "stateMutability": "view",
      "type": "function"
    },
    {
      "inputs": [
        {
          "internalType": "address",
          "name": "",
          "type": "address"
        }
      ],
      "name": "donated",
      "outputs": [
        {
          "internalType": "uint256",
          "name": "",
          "type": "uint256"
        }
      ],
      "stateMutability": "view",
      "type": "function"
    },
    {
      "inputs": [
        {
          "internalType": "uint256",
          "name": "_amount",
          "type": "uint256"
        },
        {
          "internalType": "string",
          "name": "_link",
          "type": "string"
        },
        {
          "internalType": "address",
          "name": "_recipient",
          "type": "address"
        }
      ],
      "name": "fundTweet",
      "outputs": [],
      "stateMutability": "nonpayable",
      "type": "function"
    },
    {
      "inputs": [
        {
          "internalType": "string",
          "name": "",
          "type": "string"
        },
        {
          "internalType": "address",
          "name": "",
          "type": "address"
        }
      ],
      "name": "funded",
      "outputs": [
        {
          "internalType": "bool",
          "name": "",
          "type": "bool"
        }
      ],
      "stateMutability": "view",
      "type": "function"
    },
    {
      "inputs": [
        {
          "internalType": "address",
          "name": "_user",
          "type": "address"
        },
        {
          "internalType": "uint256",
          "name": "_index",
          "type": "uint256"
        }
      ],
      "name": "getTweetFundedForUser",
      "outputs": [
        {
          "internalType": "string",
          "name": "",
          "type": "string"
        }
      ],
      "stateMutability": "view",
      "type": "function"
    },
    {
      "inputs": [
        {
          "internalType": "string",
          "name": "_tweet",
          "type": "string"
        }
      ],
      "name": "getTweetFunding",
      "outputs": [
        {
          "internalType": "uint256",
          "name": "",
          "type": "uint256"
        }
      ],
      "stateMutability": "view",
      "type": "function"
    },
    {
      "inputs": [
        {
          "internalType": "address",
          "name": "_user",
          "type": "address"
        }
      ],
      "name": "getUserRewards",
      "outputs": [
        {
          "components": [
            {
              "internalType": "uint256",
              "name": "claimed",
              "type": "uint256"
            },
            {
              "internalType": "uint256",
              "name": "pending",
              "type": "uint256"
            }
          ],
          "internalType": "struct SocialDiamond.Reward",
          "name": "_rewards",
          "type": "tuple"
        }
      ],
      "stateMutability": "view",
      "type": "function"
    },
    {
      "inputs": [],
      "name": "owner",
      "outputs": [
        {
          "internalType": "address",
          "name": "",
          "type": "address"
        }
      ],
      "stateMutability": "view",
      "type": "function"
    },
    {
      "inputs": [],
      "name": "renounceOwnership",
      "outputs": [],
      "stateMutability": "nonpayable",
      "type": "function"
    },
    {
      "inputs": [
        {
          "internalType": "address",
          "name": "_asset",
          "type": "address"
        }
      ],
      "name": "replaceAsset",
      "outputs": [],
      "stateMutability": "nonpayable",
      "type": "function"
    },
    {
      "inputs": [
        {
          "internalType": "address",
          "name": "_newReward",
          "type": "address"
        }
      ],
      "name": "replaceReward",
      "outputs": [],
      "stateMutability": "nonpayable",
      "type": "function"
    },
    {
      "inputs": [
        {
          "internalType": "string",
          "name": "",
          "type": "string"
        }
      ],
      "name": "rewardPerTweet",
      "outputs": [
        {
          "internalType": "uint256",
          "name": "",
          "type": "uint256"
        }
      ],
      "stateMutability": "view",
      "type": "function"
    },
    {
      "inputs": [
        {
          "internalType": "uint256[]",
          "name": "_newTiers",
          "type": "uint256[]"
        }
      ],
      "name": "setTiers",
      "outputs": [],
      "stateMutability": "nonpayable",
      "type": "function"
    },
    {
      "inputs": [],
      "name": "totalTransactionVolume",
      "outputs": [
        {
          "internalType": "uint256",
          "name": "",
          "type": "uint256"
        }
      ],
      "stateMutability": "view",
      "type": "function"
    },
    {
      "inputs": [
        {
          "internalType": "address",
          "name": "newOwner_",
          "type": "address"
        }
      ],
      "name": "transferOwnership",
      "outputs": [],
      "stateMutability": "nonpayable",
      "type": "function"
    },
    {
      "inputs": [
        {
          "internalType": "address",
          "name": "",
          "type": "address"
        },
        {
          "internalType": "uint256",
          "name": "",
          "type": "uint256"
        }
      ],
      "name": "tweetsFundedForUser",
      "outputs": [
        {
          "internalType": "string",
          "name": "",
          "type": "string"
        }
      ],
      "stateMutability": "view",
      "type": "function"
    },
    {
      "inputs": [
        {
          "internalType": "address",
          "name": "",
          "type": "address"
        }
      ],
      "name": "userRewards",
      "outputs": [
        {
          "internalType": "uint256",
          "name": "claimed",
          "type": "uint256"
        },
        {
          "internalType": "uint256",
          "name": "pending",
          "type": "uint256"
        }
      ],
      "stateMutability": "view",
      "type": "function"
    }
  ],
  "bytecode": "0x60806040523480156200001157600080fd5b50604051620021c8380380620021c88339818101604052810190620000379190620003ee565b336000806101000a81548173ffffffffffffffffffffffffffffffffffffffff021916908373ffffffffffffffffffffffffffffffffffffffff16021790555060008054906101000a900473ffffffffffffffffffffffffffffffffffffffff1673ffffffffffffffffffffffffffffffffffffffff16600073ffffffffffffffffffffffffffffffffffffffff167f8be0079c531659141344cd1fd0a4f28419497f9722a3daafe3b4186f6b6457e060405160405180910390a381600260006101000a81548173ffffffffffffffffffffffffffffffffffffffff021916908373ffffffffffffffffffffffffffffffffffffffff16021790555080600990805190602001906200014b92919062000154565b50505062000454565b82805482825590600052602060002090810192821562000193579160200282015b828111156200019257825182559160200191906001019062000175565b5b509050620001a29190620001a6565b5090565b5b80821115620001c1576000816000905550600101620001a7565b5090565b6000604051905090565b600080fd5b600080fd5b600073ffffffffffffffffffffffffffffffffffffffff82169050919050565b60006200020682620001d9565b9050919050565b6200021881620001f9565b81146200022457600080fd5b50565b60008151905062000238816200020d565b92915050565b600080fd5b6000601f19601f8301169050919050565b7f4e487b7100000000000000000000000000000000000000000000000000000000600052604160045260246000fd5b6200028e8262000243565b810181811067ffffffffffffffff82111715620002b057620002af62000254565b5b80604052505050565b6000620002c5620001c5565b9050620002d3828262000283565b919050565b600067ffffffffffffffff821115620002f657620002f562000254565b5b602082029050602081019050919050565b600080fd5b6000819050919050565b62000321816200030c565b81146200032d57600080fd5b50565b600081519050620003418162000316565b92915050565b60006200035e6200035884620002d8565b620002b9565b9050808382526020820190506020840283018581111562000384576200038362000307565b5b835b81811015620003b157806200039c888262000330565b84526020840193505060208101905062000386565b5050509392505050565b600082601f830112620003d357620003d26200023e565b5b8151620003e584826020860162000347565b91505092915050565b60008060408385031215620004085762000407620001cf565b5b6000620004188582860162000227565b925050602083015167ffffffffffffffff8111156200043c576200043b620001d4565b5b6200044a85828601620003bb565b9150509250929050565b611d6480620004646000396000f3fe608060405234801561001057600080fd5b50600436106101215760003560e01c8063cac843aa116100ad578063f0863cce11610071578063f0863cce1461033f578063f2fde38b1461036f578063f839f3191461038b578063f8c842e5146103a9578063fb690dcc146103c557610121565b8063cac843aa14610263578063d0d996c41461027f578063d38ef5f1146102af578063de0c4c7c146102df578063de51d1fd1461030f57610121565b80632a108e21116100f45780632a108e21146101d35780635d6c83b5146101ef578063715018a61461021f57806382b670e4146102295780638da5cb5b1461024557610121565b80630660f1e814610126578063078b0fb7146101575780630b21d7a2146101875780631e83409a146101b7575b600080fd5b610140600480360381019061013b919061144c565b6103f5565b60405161014e929190611492565b60405180910390f35b610171600480360381019061016c919061144c565b610419565b60405161017e91906114f9565b60405180910390f35b6101a1600480360381019061019c919061165a565b610486565b6040516101ae91906116d1565b60405180910390f35b6101d160048036038101906101cc919061144c565b6104cb565b005b6101ed60048036038101906101e89190611718565b6105fd565b005b6102096004803603810190610204919061144c565b61099a565b6040516102169190611787565b60405180910390f35b6102276109b2565b005b610243600480360381019061023e919061186a565b610afe565b005b61024d610ba6565b60405161025a91906118c2565b60405180910390f35b61027d6004803603810190610278919061144c565b610bcf565b005b610299600480360381019061029491906118dd565b610ca1565b6040516102a691906119a5565b60405180910390f35b6102c960048036038101906102c491906119c7565b610d8f565b6040516102d69190611787565b60405180910390f35b6102f960048036038101906102f4919061144c565b610db7565b6040516103069190611787565b60405180910390f35b610329600480360381019061032491906119c7565b610dcf565b6040516103369190611787565b60405180910390f35b610359600480360381019061035491906118dd565b610dfd565b60405161036691906119a5565b60405180910390f35b6103896004803603810190610384919061144c565b610eb6565b005b610393611070565b6040516103a09190611787565b60405180910390f35b6103c360048036038101906103be919061144c565b611076565b005b6103df60048036038101906103da919061144c565b611148565b6040516103ec9190611787565b60405180910390f35b60066020528060005260406000206000915090508060000154908060010154905082565b6104216112d0565b600660008373ffffffffffffffffffffffffffffffffffffffff1673ffffffffffffffffffffffffffffffffffffffff168152602001908152602001600020604051806040016040529081600082015481526020016001820154815250509050919050565b6005828051602081018201805184825260208301602085012081835280955050505050506020528060005260406000206000915091509054906101000a900460ff1681565b6000600660003373ffffffffffffffffffffffffffffffffffffffff1673ffffffffffffffffffffffffffffffffffffffff1681526020019081526020016000206001015411156105fa57600260009054906101000a900473ffffffffffffffffffffffffffffffffffffffff1673ffffffffffffffffffffffffffffffffffffffff1663a9059cbb82600660003373ffffffffffffffffffffffffffffffffffffffff1673ffffffffffffffffffffffffffffffffffffffff168152602001908152602001600020600101546040518363ffffffff1660e01b81526004016105b5929190611a10565b6020604051808303816000875af11580156105d4573d6000803e3d6000fd5b505050506040513d601f19601f820116820180604052508101906105f89190611a65565b505b50565b600260009054906101000a900473ffffffffffffffffffffffffffffffffffffffff1673ffffffffffffffffffffffffffffffffffffffff166323b872dd3330866040518463ffffffff1660e01b815260040161065c93929190611a92565b6020604051808303816000875af115801561067b573d6000803e3d6000fd5b505050506040513d601f19601f8201168201806040525081019061069f9190611a65565b5082600a836040516106b19190611b05565b908152602001604051809103902060008282546106ce9190611b4b565b9250508190555082600b60008282546106e79190611b4b565b9250508190555082600660008373ffffffffffffffffffffffffffffffffffffffff1673ffffffffffffffffffffffffffffffffffffffff16815260200190815260200160002060010160008282546107409190611b4b565b9250508190555061075083611160565b156107e357600160009054906101000a900473ffffffffffffffffffffffffffffffffffffffff1673ffffffffffffffffffffffffffffffffffffffff16636a627842336040518263ffffffff1660e01b81526004016107b091906118c2565b600060405180830381600087803b1580156107ca57600080fd5b505af11580156107de573d6000803e3d6000fd5b505050505b6005826040516107f39190611b05565b908152602001604051809103902060003373ffffffffffffffffffffffffffffffffffffffff1673ffffffffffffffffffffffffffffffffffffffff16815260200190815260200160002060009054906101000a900460ff16610995576001600460003373ffffffffffffffffffffffffffffffffffffffff1673ffffffffffffffffffffffffffffffffffffffff16815260200190815260200160002060008282546108a09190611b4b565b92505081905550600360003373ffffffffffffffffffffffffffffffffffffffff1673ffffffffffffffffffffffffffffffffffffffff1681526020019081526020016000208290806001815401808255809150506001900390600052602060002001600090919091909150908051906020019061091f9291906112ea565b5060016005836040516109329190611b05565b908152602001604051809103902060003373ffffffffffffffffffffffffffffffffffffffff1673ffffffffffffffffffffffffffffffffffffffff16815260200190815260200160002060006101000a81548160ff0219169083151502179055505b505050565b60086020528060005260406000206000915090505481565b3373ffffffffffffffffffffffffffffffffffffffff1660008054906101000a900473ffffffffffffffffffffffffffffffffffffffff1673ffffffffffffffffffffffffffffffffffffffff1614610a40576040517f08c379a0000000000000000000000000000000000000000000000000000000008152600401610a3790611bed565b60405180910390fd5b600073ffffffffffffffffffffffffffffffffffffffff1660008054906101000a900473ffffffffffffffffffffffffffffffffffffffff1673ffffffffffffffffffffffffffffffffffffffff167f8be0079c531659141344cd1fd0a4f28419497f9722a3daafe3b4186f6b6457e060405160405180910390a360008060006101000a81548173ffffffffffffffffffffffffffffffffffffffff021916908373ffffffffffffffffffffffffffffffffffffffff160217905550565b3373ffffffffffffffffffffffffffffffffffffffff1660008054906101000a900473ffffffffffffffffffffffffffffffffffffffff1673ffffffffffffffffffffffffffffffffffffffff1614610b8c576040517f08c379a0000000000000000000000000000000000000000000000000000000008152600401610b8390611bed565b60405180910390fd5b8060099080519060200190610ba2929190611370565b5050565b60008060009054906101000a900473ffffffffffffffffffffffffffffffffffffffff16905090565b3373ffffffffffffffffffffffffffffffffffffffff1660008054906101000a900473ffffffffffffffffffffffffffffffffffffffff1673ffffffffffffffffffffffffffffffffffffffff1614610c5d576040517f08c379a0000000000000000000000000000000000000000000000000000000008152600401610c5490611bed565b60405180910390fd5b80600260006101000a81548173ffffffffffffffffffffffffffffffffffffffff021916908373ffffffffffffffffffffffffffffffffffffffff16021790555050565b6060600360008473ffffffffffffffffffffffffffffffffffffffff1673ffffffffffffffffffffffffffffffffffffffff1681526020019081526020016000208281548110610cf457610cf3611c0d565b5b906000526020600020018054610d0990611c6b565b80601f0160208091040260200160405190810160405280929190818152602001828054610d3590611c6b565b8015610d825780601f10610d5757610100808354040283529160200191610d82565b820191906000526020600020905b815481529060010190602001808311610d6557829003601f168201915b5050505050905092915050565b6000600a82604051610da19190611b05565b9081526020016040518091039020549050919050565b60046020528060005260406000206000915090505481565b600a818051602081018201805184825260208301602085012081835280955050505050506000915090505481565b60036020528160005260406000208181548110610e1957600080fd5b90600052602060002001600091509150508054610e3590611c6b565b80601f0160208091040260200160405190810160405280929190818152602001828054610e6190611c6b565b8015610eae5780601f10610e8357610100808354040283529160200191610eae565b820191906000526020600020905b815481529060010190602001808311610e9157829003601f168201915b505050505081565b3373ffffffffffffffffffffffffffffffffffffffff1660008054906101000a900473ffffffffffffffffffffffffffffffffffffffff1673ffffffffffffffffffffffffffffffffffffffff1614610f44576040517f08c379a0000000000000000000000000000000000000000000000000000000008152600401610f3b90611bed565b60405180910390fd5b600073ffffffffffffffffffffffffffffffffffffffff168173ffffffffffffffffffffffffffffffffffffffff1603610fb3576040517f08c379a0000000000000000000000000000000000000000000000000000000008152600401610faa90611d0e565b60405180910390fd5b8073ffffffffffffffffffffffffffffffffffffffff1660008054906101000a900473ffffffffffffffffffffffffffffffffffffffff1673ffffffffffffffffffffffffffffffffffffffff167f8be0079c531659141344cd1fd0a4f28419497f9722a3daafe3b4186f6b6457e060405160405180910390a3806000806101000a81548173ffffffffffffffffffffffffffffffffffffffff021916908373ffffffffffffffffffffffffffffffffffffffff16021790555050565b600b5481565b3373ffffffffffffffffffffffffffffffffffffffff1660008054906101000a900473ffffffffffffffffffffffffffffffffffffffff1673ffffffffffffffffffffffffffffffffffffffff1614611104576040517f08c379a00000000000000000000000000000000000000000000000000000000081526004016110fb90611bed565b60405180910390fd5b80600160006101000a81548173ffffffffffffffffffffffffffffffffffffffff021916908373ffffffffffffffffffffffffffffffffffffffff16021790555050565b60076020528060005260406000206000915090505481565b600080600760003373ffffffffffffffffffffffffffffffffffffffff1673ffffffffffffffffffffffffffffffffffffffff168152602001908152602001600020549050600083826111b39190611b4b565b905080600760003373ffffffffffffffffffffffffffffffffffffffff1673ffffffffffffffffffffffffffffffffffffffff1681526020019081526020016000208190555081600960008154811061120f5761120e611c0d565b5b9060005260206000200154118015611246575080600960008154811061123857611237611c0d565b5b906000526020600020015411155b15611256576001925050506112cb565b6001600980549050118015611289575081600960018154811061127c5761127b611c0d565b5b9060005260206000200154115b80156112b457508060096001815481106112a6576112a5611c0d565b5b906000526020600020015411155b156112c4576001925050506112cb565b6000925050505b919050565b604051806040016040528060008152602001600081525090565b8280546112f690611c6b565b90600052602060002090601f016020900481019282611318576000855561135f565b82601f1061133157805160ff191683800117855561135f565b8280016001018555821561135f579182015b8281111561135e578251825591602001919060010190611343565b5b50905061136c91906113bd565b5090565b8280548282559060005260206000209081019282156113ac579160200282015b828111156113ab578251825591602001919060010190611390565b5b5090506113b991906113bd565b5090565b5b808211156113d65760008160009055506001016113be565b5090565b6000604051905090565b600080fd5b600080fd5b600073ffffffffffffffffffffffffffffffffffffffff82169050919050565b6000611419826113ee565b9050919050565b6114298161140e565b811461143457600080fd5b50565b60008135905061144681611420565b92915050565b600060208284031215611462576114616113e4565b5b600061147084828501611437565b91505092915050565b6000819050919050565b61148c81611479565b82525050565b60006040820190506114a76000830185611483565b6114b46020830184611483565b9392505050565b6114c481611479565b82525050565b6040820160008201516114e060008501826114bb565b5060208201516114f360208501826114bb565b50505050565b600060408201905061150e60008301846114ca565b92915050565b600080fd5b600080fd5b6000601f19601f8301169050919050565b7f4e487b7100000000000000000000000000000000000000000000000000000000600052604160045260246000fd5b6115678261151e565b810181811067ffffffffffffffff821117156115865761158561152f565b5b80604052505050565b60006115996113da565b90506115a5828261155e565b919050565b600067ffffffffffffffff8211156115c5576115c461152f565b5b6115ce8261151e565b9050602081019050919050565b82818337600083830152505050565b60006115fd6115f8846115aa565b61158f565b90508281526020810184848401111561161957611618611519565b5b6116248482856115db565b509392505050565b600082601f83011261164157611640611514565b5b81356116518482602086016115ea565b91505092915050565b60008060408385031215611671576116706113e4565b5b600083013567ffffffffffffffff81111561168f5761168e6113e9565b5b61169b8582860161162c565b92505060206116ac85828601611437565b9150509250929050565b60008115159050919050565b6116cb816116b6565b82525050565b60006020820190506116e660008301846116c2565b92915050565b6116f581611479565b811461170057600080fd5b50565b600081359050611712816116ec565b92915050565b600080600060608486031215611731576117306113e4565b5b600061173f86828701611703565b935050602084013567ffffffffffffffff8111156117605761175f6113e9565b5b61176c8682870161162c565b925050604061177d86828701611437565b9150509250925092565b600060208201905061179c6000830184611483565b92915050565b600067ffffffffffffffff8211156117bd576117bc61152f565b5b602082029050602081019050919050565b600080fd5b60006117e66117e1846117a2565b61158f565b90508083825260208201905060208402830185811115611809576118086117ce565b5b835b81811015611832578061181e8882611703565b84526020840193505060208101905061180b565b5050509392505050565b600082601f83011261185157611850611514565b5b81356118618482602086016117d3565b91505092915050565b6000602082840312156118805761187f6113e4565b5b600082013567ffffffffffffffff81111561189e5761189d6113e9565b5b6118aa8482850161183c565b91505092915050565b6118bc8161140e565b82525050565b60006020820190506118d760008301846118b3565b92915050565b600080604083850312156118f4576118f36113e4565b5b600061190285828601611437565b925050602061191385828601611703565b9150509250929050565b600081519050919050565b600082825260208201905092915050565b60005b8381101561195757808201518184015260208101905061193c565b83811115611966576000848401525b50505050565b60006119778261191d565b6119818185611928565b9350611991818560208601611939565b61199a8161151e565b840191505092915050565b600060208201905081810360008301526119bf818461196c565b905092915050565b6000602082840312156119dd576119dc6113e4565b5b600082013567ffffffffffffffff8111156119fb576119fa6113e9565b5b611a078482850161162c565b91505092915050565b6000604082019050611a2560008301856118b3565b611a326020830184611483565b9392505050565b611a42816116b6565b8114611a4d57600080fd5b50565b600081519050611a5f81611a39565b92915050565b600060208284031215611a7b57611a7a6113e4565b5b6000611a8984828501611a50565b91505092915050565b6000606082019050611aa760008301866118b3565b611ab460208301856118b3565b611ac16040830184611483565b949350505050565b600081905092915050565b6000611adf8261191d565b611ae98185611ac9565b9350611af9818560208601611939565b80840191505092915050565b6000611b118284611ad4565b915081905092915050565b7f4e487b7100000000000000000000000000000000000000000000000000000000600052601160045260246000fd5b6000611b5682611479565b9150611b6183611479565b9250827fffffffffffffffffffffffffffffffffffffffffffffffffffffffffffffffff03821115611b9657611b95611b1c565b5b828201905092915050565b7f4f776e61626c653a2063616c6c6572206973206e6f7420746865206f776e6572600082015250565b6000611bd7602083611928565b9150611be282611ba1565b602082019050919050565b60006020820190508181036000830152611c0681611bca565b9050919050565b7f4e487b7100000000000000000000000000000000000000000000000000000000600052603260045260246000fd5b7f4e487b7100000000000000000000000000000000000000000000000000000000600052602260045260246000fd5b60006002820490506001821680611c8357607f821691505b602082108103611c9657611c95611c3c565b5b50919050565b7f4f776e61626c653a206e6577206f776e657220697320746865207a65726f206160008201527f6464726573730000000000000000000000000000000000000000000000000000602082015250565b6000611cf8602683611928565b9150611d0382611c9c565b604082019050919050565b60006020820190508181036000830152611d2781611ceb565b905091905056fea2646970667358221220a3dbdb9d57767e0cb23ce8c3fe89848c8d1cfab58ebfe4adeb53c14c08f99c8a64736f6c634300080e0033",
  "linkReferences": {},
  "deployedLinkReferences": {}
}