{
  "_format": "hh-sol-artifact-1",
  "contractName": "SocialNFT",
  "sourceName": "contracts/SocialNFT.sol",
  "abi": [
    {
      "inputs": [
        {
          "internalType": "address",
          "name": "_minter",
          "type": "address"
        }
      ],
      "stateMutability": "nonpayable",
      "type": "constructor"
    },
    {
      "anonymous": false,
      "inputs": [
        {
          "indexed": true,
          "internalType": "address",
          "name": "owner",
          "type": "address"
        },
        {
          "indexed": true,
          "internalType": "address",
          "name": "approved",
          "type": "address"
        },
        {
          "indexed": true,
          "internalType": "uint256",
          "name": "tokenId",
          "type": "uint256"
        }
      ],
      "name": "Approval",
      "type": "event"
    },
    {
      "anonymous": false,
      "inputs": [
        {
          "indexed": true,
          "internalType": "address",
          "name": "owner",
          "type": "address"
        },
        {
          "indexed": true,
          "internalType": "address",
          "name": "operator",
          "type": "address"
        },
        {
          "indexed": false,
          "internalType": "bool",
          "name": "approved",
          "type": "bool"
        }
      ],
      "name": "ApprovalForAll",
      "type": "event"
    },
    {
      "anonymous": false,
      "inputs": [
        {
          "indexed": false,
          "internalType": "address",
          "name": "sender",
          "type": "address"
        },
        {
          "indexed": false,
          "internalType": "uint256",
          "name": "tokenId",
          "type": "uint256"
        }
      ],
      "name": "NewEpicNFTMinted",
      "type": "event"
    },
    {
      "anonymous": false,
      "inputs": [
        {
          "indexed": true,
          "internalType": "address",
          "name": "from",
          "type": "address"
        },
        {
          "indexed": true,
          "internalType": "address",
          "name": "to",
          "type": "address"
        },
        {
          "indexed": true,
          "internalType": "uint256",
          "name": "tokenId",
          "type": "uint256"
        }
      ],
      "name": "Transfer",
      "type": "event"
    },
    {
      "inputs": [
        {
          "internalType": "address",
          "name": "to",
          "type": "address"
        },
        {
          "internalType": "uint256",
          "name": "tokenId",
          "type": "uint256"
        }
      ],
      "name": "approve",
      "outputs": [],
      "stateMutability": "nonpayable",
      "type": "function"
    },
    {
      "inputs": [
        {
          "internalType": "address",
          "name": "owner",
          "type": "address"
        }
      ],
      "name": "balanceOf",
      "outputs": [
        {
          "internalType": "uint256",
          "name": "",
          "type": "uint256"
        }
      ],
      "stateMutability": "view",
      "type": "function"
    },
    {
      "inputs": [
        {
          "internalType": "uint256",
          "name": "tokenId",
          "type": "uint256"
        }
      ],
      "name": "getApproved",
      "outputs": [
        {
          "internalType": "address",
          "name": "",
          "type": "address"
        }
      ],
      "stateMutability": "view",
      "type": "function"
    },
    {
      "inputs": [
        {
          "internalType": "address",
          "name": "_user",
          "type": "address"
        }
      ],
      "name": "getUserOwnedTokens",
      "outputs": [
        {
          "internalType": "uint256[]",
          "name": "_ret",
          "type": "uint256[]"
        }
      ],
      "stateMutability": "view",
      "type": "function"
    },
    {
      "inputs": [
        {
          "internalType": "address",
          "name": "owner",
          "type": "address"
        },
        {
          "internalType": "address",
          "name": "operator",
          "type": "address"
        }
      ],
      "name": "isApprovedForAll",
      "outputs": [
        {
          "internalType": "bool",
          "name": "",
          "type": "bool"
        }
      ],
      "stateMutability": "view",
      "type": "function"
    },
    {
      "inputs": [
        {
          "internalType": "address",
          "name": "_to",
          "type": "address"
        }
      ],
      "name": "mint",
      "outputs": [],
      "stateMutability": "nonpayable",
      "type": "function"
    },
    {
      "inputs": [],
      "name": "name",
      "outputs": [
        {
          "internalType": "string",
          "name": "",
          "type": "string"
        }
      ],
      "stateMutability": "view",
      "type": "function"
    },
    {
      "inputs": [
        {
          "internalType": "uint256",
          "name": "tokenId",
          "type": "uint256"
        }
      ],
      "name": "ownerOf",
      "outputs": [
        {
          "internalType": "address",
          "name": "",
          "type": "address"
        }
      ],
      "stateMutability": "view",
      "type": "function"
    },
    {
      "inputs": [
        {
          "internalType": "uint256",
          "name": "tokenId",
          "type": "uint256"
        }
      ],
      "name": "pickRandomColor",
      "outputs": [
        {
          "internalType": "string",
          "name": "",
          "type": "string"
        }
      ],
      "stateMutability": "view",
      "type": "function"
    },
    {
      "inputs": [
        {
          "internalType": "uint256",
          "name": "tokenId",
          "type": "uint256"
        }
      ],
      "name": "pickRandomFirstWord",
      "outputs": [
        {
          "internalType": "string",
          "name": "",
          "type": "string"
        }
      ],
      "stateMutability": "view",
      "type": "function"
    },
    {
      "inputs": [
        {
          "internalType": "uint256",
          "name": "tokenId",
          "type": "uint256"
        }
      ],
      "name": "pickRandomSecondWord",
      "outputs": [
        {
          "internalType": "string",
          "name": "",
          "type": "string"
        }
      ],
      "stateMutability": "view",
      "type": "function"
    },
    {
      "inputs": [
        {
          "internalType": "uint256",
          "name": "tokenId",
          "type": "uint256"
        }
      ],
      "name": "pickRandomThirdWord",
      "outputs": [
        {
          "internalType": "string",
          "name": "",
          "type": "string"
        }
      ],
      "stateMutability": "view",
      "type": "function"
    },
    {
      "inputs": [
        {
          "internalType": "address",
          "name": "from",
          "type": "address"
        },
        {
          "internalType": "address",
          "name": "to",
          "type": "address"
        },
        {
          "internalType": "uint256",
          "name": "tokenId",
          "type": "uint256"
        }
      ],
      "name": "safeTransferFrom",
      "outputs": [],
      "stateMutability": "nonpayable",
      "type": "function"
    },
    {
      "inputs": [
        {
          "internalType": "address",
          "name": "from",
          "type": "address"
        },
        {
          "internalType": "address",
          "name": "to",
          "type": "address"
        },
        {
          "internalType": "uint256",
          "name": "tokenId",
          "type": "uint256"
        },
        {
          "internalType": "bytes",
          "name": "_data",
          "type": "bytes"
        }
      ],
      "name": "safeTransferFrom",
      "outputs": [],
      "stateMutability": "nonpayable",
      "type": "function"
    },
    {
      "inputs": [
        {
          "internalType": "address",
          "name": "operator",
          "type": "address"
        },
        {
          "internalType": "bool",
          "name": "approved",
          "type": "bool"
        }
      ],
      "name": "setApprovalForAll",
      "outputs": [],
      "stateMutability": "nonpayable",
      "type": "function"
    },
    {
      "inputs": [
        {
          "internalType": "bytes4",
          "name": "interfaceId",
          "type": "bytes4"
        }
      ],
      "name": "supportsInterface",
      "outputs": [
        {
          "internalType": "bool",
          "name": "",
          "type": "bool"
        }
      ],
      "stateMutability": "view",
      "type": "function"
    },
    {
      "inputs": [],
      "name": "symbol",
      "outputs": [
        {
          "internalType": "string",
          "name": "",
          "type": "string"
        }
      ],
      "stateMutability": "view",
      "type": "function"
    },
    {
      "inputs": [
        {
          "internalType": "uint256",
          "name": "",
          "type": "uint256"
        }
      ],
      "name": "tokenIsAtIndex",
      "outputs": [
        {
          "internalType": "uint256",
          "name": "",
          "type": "uint256"
        }
      ],
      "stateMutability": "view",
      "type": "function"
    },
    {
      "inputs": [
        {
          "internalType": "uint256",
          "name": "tokenId",
          "type": "uint256"
        }
      ],
      "name": "tokenURI",
      "outputs": [
        {
          "internalType": "string",
          "name": "",
          "type": "string"
        }
      ],
      "stateMutability": "view",
      "type": "function"
    },
    {
      "inputs": [
        {
          "internalType": "address",
          "name": "from",
          "type": "address"
        },
        {
          "internalType": "address",
          "name": "to",
          "type": "address"
        },
        {
          "internalType": "uint256",
          "name": "tokenId",
          "type": "uint256"
        }
      ],
      "name": "transferFrom",
      "outputs": [],
      "stateMutability": "nonpayable",
      "type": "function"
    },
    {
      "inputs": [
        {
          "internalType": "address",
          "name": "",
          "type": "address"
        },
        {
          "internalType": "uint256",
          "name": "",
          "type": "uint256"
        }
      ],
      "name": "userOwnedTokens",
      "outputs": [
        {
          "internalType": "uint256",
          "name": "",
          "type": "uint256"
        }
      ],
      "stateMutability": "view",
      "type": "function"
    }
  ],
  "bytecode": "0x608060405260405180610100016040528060d381526020016200497560d39139600b9080519060200190620000369291906200077c565b5060405180608001604052806056815260200162004a4860569139600c9080519060200190620000689291906200077c565b506040518060c001604052806040518060400160405280600481526020017f526f73730000000000000000000000000000000000000000000000000000000081525081526020016040518060400160405280600681526020017f52616368656c000000000000000000000000000000000000000000000000000081525081526020016040518060400160405280600681526020017f4d6f6e696361000000000000000000000000000000000000000000000000000081525081526020016040518060400160405280600481526020017f4a6f65790000000000000000000000000000000000000000000000000000000081525081526020016040518060400160405280600881526020017f4368616e646c657200000000000000000000000000000000000000000000000081525081526020016040518060400160405280600681526020017f50686f6562650000000000000000000000000000000000000000000000000000815250815250600d906006620001e69291906200080d565b506040518060c001604052806040518060400160405280600581526020017f486172727900000000000000000000000000000000000000000000000000000081525081526020016040518060400160405280600881526020017f4865726d696f6e6500000000000000000000000000000000000000000000000081525081526020016040518060400160405280600681526020017f506f74746572000000000000000000000000000000000000000000000000000081525081526020016040518060400160405280600381526020017f526f6e000000000000000000000000000000000000000000000000000000000081525081526020016040518060400160405280600681526020017f486167726964000000000000000000000000000000000000000000000000000081525081526020016040518060400160405280600681526020017f4d7567676c650000000000000000000000000000000000000000000000000000815250815250600e906006620003649291906200080d565b506040518060c001604052806040518060400160405280600781526020017f526f6e616c646f0000000000000000000000000000000000000000000000000081525081526020016040518060400160405280600581526020017f4d6573736900000000000000000000000000000000000000000000000000000081525081526020016040518060400160405280600681526020017f5a6c6174616e000000000000000000000000000000000000000000000000000081525081526020016040518060400160405280600581526020017f4272756e6f00000000000000000000000000000000000000000000000000000081525081526020016040518060400160405280600681526020017f4e65796d6172000000000000000000000000000000000000000000000000000081525081526020016040518060400160405280600481526020017f50656c6500000000000000000000000000000000000000000000000000000000815250815250600f906006620004e29291906200080d565b506040518060c001604052806040518060400160405280600381526020017f726564000000000000000000000000000000000000000000000000000000000081525081526020016040518060400160405280600781526020017f233038433241380000000000000000000000000000000000000000000000000081525081526020016040518060400160405280600581526020017f626c61636b00000000000000000000000000000000000000000000000000000081525081526020016040518060400160405280600681526020017f79656c6c6f77000000000000000000000000000000000000000000000000000081525081526020016040518060400160405280600481526020017f626c75650000000000000000000000000000000000000000000000000000000081525081526020016040518060400160405280600581526020017f677265656e0000000000000000000000000000000000000000000000000000008152508152506010906006620006609291906200080d565b503480156200066e57600080fd5b5060405162004a9e38038062004a9e83398181016040528101906200069491906200096b565b6040518060400160405280600981526020017f5371756172654e465400000000000000000000000000000000000000000000008152506040518060400160405280600681526020017f53515541524500000000000000000000000000000000000000000000000000008152508160009080519060200190620007189291906200077c565b508060019080519060200190620007319291906200077c565b50505080600860006101000a81548173ffffffffffffffffffffffffffffffffffffffff021916908373ffffffffffffffffffffffffffffffffffffffff1602179055505062000a01565b8280546200078a90620009cc565b90600052602060002090601f016020900481019282620007ae5760008555620007fa565b82601f10620007c957805160ff1916838001178555620007fa565b82800160010185558215620007fa579182015b82811115620007f9578251825591602001919060010190620007dc565b5b50905062000809919062000874565b5090565b82805482825590600052602060002090810192821562000861579160200282015b82811115620008605782518290805190602001906200084f9291906200077c565b50916020019190600101906200082e565b5b50905062000870919062000893565b5090565b5b808211156200088f57600081600090555060010162000875565b5090565b5b80821115620008b75760008181620008ad9190620008bb565b5060010162000894565b5090565b508054620008c990620009cc565b6000825580601f10620008dd5750620008fe565b601f016020900490600052602060002090810190620008fd919062000874565b5b50565b600080fd5b600073ffffffffffffffffffffffffffffffffffffffff82169050919050565b6000620009338262000906565b9050919050565b620009458162000926565b81146200095157600080fd5b50565b60008151905062000965816200093a565b92915050565b60006020828403121562000984576200098362000901565b5b6000620009948482850162000954565b91505092915050565b7f4e487b7100000000000000000000000000000000000000000000000000000000600052602260045260246000fd5b60006002820490506001821680620009e557607f821691505b602082108103620009fb57620009fa6200099d565b5b50919050565b613f648062000a116000396000f3fe608060405234801561001057600080fd5b50600436106101375760003560e01c80636352211e116100b8578063b187301f1161007c578063b187301f14610384578063b88d4fde146103b4578063c2f83319146103d0578063c575757a14610400578063c87b56dd14610430578063e985e9c51461046057610137565b80636352211e146102ce5780636a627842146102fe57806370a082311461031a57806395d89b411461034a578063a22cb4651461036857610137565b806323b872dd116100ff57806323b872dd146102065780632de38d681461022257806342842e0e14610252578063514dc8c61461026e5780635a5595751461029e57610137565b806301ffc9a71461013c57806306fdde031461016c578063081812fc1461018a578063095ea7b3146101ba57806314b924e2146101d6575b600080fd5b61015660048036038101906101519190612621565b610490565b6040516101639190612669565b60405180910390f35b610174610572565b604051610181919061271d565b60405180910390f35b6101a4600480360381019061019f9190612775565b610604565b6040516101b191906127e3565b60405180910390f35b6101d460048036038101906101cf919061282a565b610689565b005b6101f060048036038101906101eb919061282a565b6107a0565b6040516101fd9190612879565b60405180910390f35b610220600480360381019061021b9190612894565b6107d1565b005b61023c60048036038101906102379190612775565b610831565b604051610249919061271d565b60405180910390f35b61026c60048036038101906102679190612894565b610929565b005b61028860048036038101906102839190612775565b610949565b604051610295919061271d565b60405180910390f35b6102b860048036038101906102b391906128e7565b610a41565b6040516102c591906129d2565b60405180910390f35b6102e860048036038101906102e39190612775565b610ad8565b6040516102f591906127e3565b60405180910390f35b610318600480360381019061031391906128e7565b610b89565b005b610334600480360381019061032f91906128e7565b610eda565b6040516103419190612879565b60405180910390f35b610352610f91565b60405161035f919061271d565b60405180910390f35b610382600480360381019061037d9190612a20565b611023565b005b61039e60048036038101906103999190612775565b611039565b6040516103ab919061271d565b60405180910390f35b6103ce60048036038101906103c99190612b95565b611131565b005b6103ea60048036038101906103e59190612775565b611193565b6040516103f79190612879565b60405180910390f35b61041a60048036038101906104159190612775565b6111ab565b604051610427919061271d565b60405180910390f35b61044a60048036038101906104459190612775565b6112a3565b604051610457919061271d565b60405180910390f35b61047a60048036038101906104759190612c18565b6113f4565b6040516104879190612669565b60405180910390f35b60007f80ac58cd000000000000000000000000000000000000000000000000000000007bffffffffffffffffffffffffffffffffffffffffffffffffffffffff1916827bffffffffffffffffffffffffffffffffffffffffffffffffffffffff1916148061055b57507f5b5e139f000000000000000000000000000000000000000000000000000000007bffffffffffffffffffffffffffffffffffffffffffffffffffffffff1916827bffffffffffffffffffffffffffffffffffffffffffffffffffffffff1916145b8061056b575061056a82611488565b5b9050919050565b60606000805461058190612c87565b80601f01602080910402602001604051908101604052809291908181526020018280546105ad90612c87565b80156105fa5780601f106105cf576101008083540402835291602001916105fa565b820191906000526020600020905b8154815290600101906020018083116105dd57829003601f168201915b5050505050905090565b600061060f826114f2565b61064e576040517f08c379a000000000000000000000000000000000000000000000000000000000815260040161064590612d2a565b60405180910390fd5b6004600083815260200190815260200160002060009054906101000a900473ffffffffffffffffffffffffffffffffffffffff169050919050565b600061069482610ad8565b90508073ffffffffffffffffffffffffffffffffffffffff168373ffffffffffffffffffffffffffffffffffffffff1603610704576040517f08c379a00000000000000000000000000000000000000000000000000000000081526004016106fb90612dbc565b60405180910390fd5b8073ffffffffffffffffffffffffffffffffffffffff1661072361155e565b73ffffffffffffffffffffffffffffffffffffffff16148061075257506107518161074c61155e565b6113f4565b5b610791576040517f08c379a000000000000000000000000000000000000000000000000000000000815260040161078890612e4e565b60405180910390fd5b61079b8383611566565b505050565b600960205281600052604060002081815481106107bc57600080fd5b90600052602060002001600091509150505481565b6107e26107dc61155e565b8261161f565b610821576040517f08c379a000000000000000000000000000000000000000000000000000000000815260040161081890612ee0565b60405180910390fd5b61082c8383836116fd565b505050565b6060600061086561084184611963565b6040516020016108519190612f88565b604051602081830303815290604052611ac3565b9050600d80549050816108789190612fd9565b9050600d818154811061088e5761088d61300a565b5b9060005260206000200180546108a390612c87565b80601f01602080910402602001604051908101604052809291908181526020018280546108cf90612c87565b801561091c5780601f106108f15761010080835404028352916020019161091c565b820191906000526020600020905b8154815290600101906020018083116108ff57829003601f168201915b5050505050915050919050565b61094483838360405180602001604052806000815250611131565b505050565b6060600061097d61095984611963565b6040516020016109699190613085565b604051602081830303815290604052611ac3565b9050601080549050816109909190612fd9565b9050601081815481106109a6576109a561300a565b5b9060005260206000200180546109bb90612c87565b80601f01602080910402602001604051908101604052809291908181526020018280546109e790612c87565b8015610a345780601f10610a0957610100808354040283529160200191610a34565b820191906000526020600020905b815481529060010190602001808311610a1757829003601f168201915b5050505050915050919050565b6060600960008373ffffffffffffffffffffffffffffffffffffffff1673ffffffffffffffffffffffffffffffffffffffff168152602001908152602001600020805480602002602001604051908101604052809291908181526020018280548015610acc57602002820191906000526020600020905b815481526020019060010190808311610ab8575b50505050509050919050565b6000806002600084815260200190815260200160002060009054906101000a900473ffffffffffffffffffffffffffffffffffffffff169050600073ffffffffffffffffffffffffffffffffffffffff168173ffffffffffffffffffffffffffffffffffffffff1603610b80576040517f08c379a0000000000000000000000000000000000000000000000000000000008152600401610b7790613119565b60405180910390fd5b80915050919050565b600860009054906101000a900473ffffffffffffffffffffffffffffffffffffffff1673ffffffffffffffffffffffffffffffffffffffff163373ffffffffffffffffffffffffffffffffffffffff1614610c19576040517f08c379a0000000000000000000000000000000000000000000000000000000008152600401610c1090613185565b60405180910390fd5b6000610c256007611af6565b90506000610c3282610831565b90506000610c3f83611039565b90506000610c4c846111ab565b90506000838383604051602001610c65939291906131a5565b60405160208183030381529060405290506000610c8186610949565b90506000600b82600c85604051602001610c9e94939291906132b6565b60405160208183030381529060405290506000610ce384610cbe84611b04565b604051602001610ccf929190613455565b604051602081830303815290604052611b04565b9050600081604051602001610cf891906134e6565b6040516020818303038152906040529050610d476040518060400160405280601581526020017f0a2d2d2d2d2d2d2d2d2d2d2d2d2d2d2d2d2d2d2d2d0000000000000000000000815250611c9b565b610d5081611c9b565b610d8e6040518060400160405280601581526020017f2d2d2d2d2d2d2d2d2d2d2d2d2d2d2d2d2d2d2d2d0a0000000000000000000000815250611c9b565b610d988a8a611d34565b610da28982611d52565b600960008b73ffffffffffffffffffffffffffffffffffffffff1673ffffffffffffffffffffffffffffffffffffffff1681526020019081526020016000208990806001815401808255809150506001900390600052602060002001600090919091909150556000600960008c73ffffffffffffffffffffffffffffffffffffffff1673ffffffffffffffffffffffffffffffffffffffff16815260200190815260200160002080549050905080600a60008c815260200190815260200160002081905550610e716007611dc6565b610e94604051806060016040528060258152602001613eca602591398b8d611ddc565b7febb98688741ffa4c7589bf325de30cf7becb63de567842e1ccdb6cb949fdc82c8b8b604051610ec5929190613508565b60405180910390a15050505050505050505050565b60008073ffffffffffffffffffffffffffffffffffffffff168273ffffffffffffffffffffffffffffffffffffffff1603610f4a576040517f08c379a0000000000000000000000000000000000000000000000000000000008152600401610f41906135a3565b60405180910390fd5b600360008373ffffffffffffffffffffffffffffffffffffffff1673ffffffffffffffffffffffffffffffffffffffff168152602001908152602001600020549050919050565b606060018054610fa090612c87565b80601f0160208091040260200160405190810160405280929190818152602001828054610fcc90612c87565b80156110195780601f10610fee57610100808354040283529160200191611019565b820191906000526020600020905b815481529060010190602001808311610ffc57829003601f168201915b5050505050905090565b61103561102e61155e565b8383611e7b565b5050565b6060600061106d61104984611963565b604051602001611059919061360f565b604051602081830303815290604052611ac3565b9050600e80549050816110809190612fd9565b9050600e81815481106110965761109561300a565b5b9060005260206000200180546110ab90612c87565b80601f01602080910402602001604051908101604052809291908181526020018280546110d790612c87565b80156111245780601f106110f957610100808354040283529160200191611124565b820191906000526020600020905b81548152906001019060200180831161110757829003601f168201915b5050505050915050919050565b61114261113c61155e565b8361161f565b611181576040517f08c379a000000000000000000000000000000000000000000000000000000000815260040161117890612ee0565b60405180910390fd5b61118d84848484611fe7565b50505050565b600a6020528060005260406000206000915090505481565b606060006111df6111bb84611963565b6040516020016111cb919061367d565b604051602081830303815290604052611ac3565b9050600f80549050816111f29190612fd9565b9050600f81815481106112085761120761300a565b5b90600052602060002001805461121d90612c87565b80601f016020809104026020016040519081016040528092919081815260200182805461124990612c87565b80156112965780601f1061126b57610100808354040283529160200191611296565b820191906000526020600020905b81548152906001019060200180831161127957829003601f168201915b5050505050915050919050565b60606112ae826114f2565b6112ed576040517f08c379a00000000000000000000000000000000000000000000000000000000081526004016112e490613711565b60405180910390fd5b600060066000848152602001908152602001600020805461130d90612c87565b80601f016020809104026020016040519081016040528092919081815260200182805461133990612c87565b80156113865780601f1061135b57610100808354040283529160200191611386565b820191906000526020600020905b81548152906001019060200180831161136957829003601f168201915b505050505090506000611397612043565b905060008151036113ac5781925050506113ef565b6000825111156113e15780826040516020016113c9929190613731565b604051602081830303815290604052925050506113ef565b6113ea8461205a565b925050505b919050565b6000600560008473ffffffffffffffffffffffffffffffffffffffff1673ffffffffffffffffffffffffffffffffffffffff16815260200190815260200160002060008373ffffffffffffffffffffffffffffffffffffffff1673ffffffffffffffffffffffffffffffffffffffff16815260200190815260200160002060009054906101000a900460ff16905092915050565b60007f01ffc9a7000000000000000000000000000000000000000000000000000000007bffffffffffffffffffffffffffffffffffffffffffffffffffffffff1916827bffffffffffffffffffffffffffffffffffffffffffffffffffffffff1916149050919050565b60008073ffffffffffffffffffffffffffffffffffffffff166002600084815260200190815260200160002060009054906101000a900473ffffffffffffffffffffffffffffffffffffffff1673ffffffffffffffffffffffffffffffffffffffff1614159050919050565b600033905090565b816004600083815260200190815260200160002060006101000a81548173ffffffffffffffffffffffffffffffffffffffff021916908373ffffffffffffffffffffffffffffffffffffffff160217905550808273ffffffffffffffffffffffffffffffffffffffff166115d983610ad8565b73ffffffffffffffffffffffffffffffffffffffff167f8c5be1e5ebec7d5bd14f71427d1e84f3dd0314c0f7b2291e5b200ac8c7c3b92560405160405180910390a45050565b600061162a826114f2565b611669576040517f08c379a0000000000000000000000000000000000000000000000000000000008152600401611660906137c7565b60405180910390fd5b600061167483610ad8565b90508073ffffffffffffffffffffffffffffffffffffffff168473ffffffffffffffffffffffffffffffffffffffff1614806116b657506116b581856113f4565b5b806116f457508373ffffffffffffffffffffffffffffffffffffffff166116dc84610604565b73ffffffffffffffffffffffffffffffffffffffff16145b91505092915050565b8273ffffffffffffffffffffffffffffffffffffffff1661171d82610ad8565b73ffffffffffffffffffffffffffffffffffffffff1614611773576040517f08c379a000000000000000000000000000000000000000000000000000000000815260040161176a90613859565b60405180910390fd5b600073ffffffffffffffffffffffffffffffffffffffff168273ffffffffffffffffffffffffffffffffffffffff16036117e2576040517f08c379a00000000000000000000000000000000000000000000000000000000081526004016117d9906138eb565b60405180910390fd5b6117ed838383612101565b6117f8600082611566565b6001600360008573ffffffffffffffffffffffffffffffffffffffff1673ffffffffffffffffffffffffffffffffffffffff1681526020019081526020016000206000828254611848919061393a565b925050819055506001600360008473ffffffffffffffffffffffffffffffffffffffff1673ffffffffffffffffffffffffffffffffffffffff168152602001908152602001600020600082825461189f919061396e565b92505081905550816002600083815260200190815260200160002060006101000a81548173ffffffffffffffffffffffffffffffffffffffff021916908373ffffffffffffffffffffffffffffffffffffffff160217905550808273ffffffffffffffffffffffffffffffffffffffff168473ffffffffffffffffffffffffffffffffffffffff167fddf252ad1be2c89b69c2b068fc378daa952ba7f163c4a11628f55a4df523b3ef60405160405180910390a461195e838383612106565b505050565b6060600082036119aa576040518060400160405280600181526020017f30000000000000000000000000000000000000000000000000000000000000008152509050611abe565b600082905060005b600082146119dc5780806119c5906139c4565b915050600a826119d59190613a0c565b91506119b2565b60008167ffffffffffffffff8111156119f8576119f7612a6a565b5b6040519080825280601f01601f191660200182016040528015611a2a5781602001600182028036833780820191505090505b5090505b60008514611ab757600182611a43919061393a565b9150600a85611a529190612fd9565b6030611a5e919061396e565b60f81b818381518110611a7457611a7361300a565b5b60200101907effffffffffffffffffffffffffffffffffffffffffffffffffffffffffffff1916908160001a905350600a85611ab09190613a0c565b9450611a2e565b8093505050505b919050565b600081604051602001611ad69190613a3d565b6040516020818303038152906040528051906020012060001c9050919050565b600081600001549050919050565b606060008251905060008103611b2c5760405180602001604052806000815250915050611c96565b60006003600283611b3d919061396e565b611b479190613a0c565b6004611b539190613a54565b90506000602082611b64919061396e565b67ffffffffffffffff811115611b7d57611b7c612a6a565b5b6040519080825280601f01601f191660200182016040528015611baf5781602001600182028036833780820191505090505b5090506000604051806060016040528060408152602001613eef604091399050600181016020830160005b86811015611c535760038101905062ffffff818a015116603f8160121c168401518060081b905060ff603f83600c1c1686015116810190508060081b905060ff603f8360061c1686015116810190508060081b905060ff603f831686015116810190508060e01b90508084526004840193505050611bda565b506003860660018114611c6d5760028114611c7d57611c88565b613d3d60f01b6002830352611c88565b603d60f81b60018303525b508484525050819450505050505b919050565b611d3181604051602401611caf919061271d565b6040516020818303038152906040527f41304fac000000000000000000000000000000000000000000000000000000007bffffffffffffffffffffffffffffffffffffffffffffffffffffffff19166020820180517bffffffffffffffffffffffffffffffffffffffffffffffffffffffff838183161783525050505061210b565b50565b611d4e828260405180602001604052806000815250612134565b5050565b611d5b826114f2565b611d9a576040517f08c379a0000000000000000000000000000000000000000000000000000000008152600401611d9190613b20565b60405180910390fd5b80600660008481526020019081526020016000209080519060200190611dc1929190612512565b505050565b6001816000016000828254019250508190555050565b611e76838383604051602401611df493929190613b40565b6040516020818303038152906040527fe3849f79000000000000000000000000000000000000000000000000000000007bffffffffffffffffffffffffffffffffffffffffffffffffffffffff19166020820180517bffffffffffffffffffffffffffffffffffffffffffffffffffffffff838183161783525050505061210b565b505050565b8173ffffffffffffffffffffffffffffffffffffffff168373ffffffffffffffffffffffffffffffffffffffff1603611ee9576040517f08c379a0000000000000000000000000000000000000000000000000000000008152600401611ee090613bca565b60405180910390fd5b80600560008573ffffffffffffffffffffffffffffffffffffffff1673ffffffffffffffffffffffffffffffffffffffff16815260200190815260200160002060008473ffffffffffffffffffffffffffffffffffffffff1673ffffffffffffffffffffffffffffffffffffffff16815260200190815260200160002060006101000a81548160ff0219169083151502179055508173ffffffffffffffffffffffffffffffffffffffff168373ffffffffffffffffffffffffffffffffffffffff167f17307eab39ab6107e8899845ad3d59bd9653f200f220920489ca2b5937696c3183604051611fda9190612669565b60405180910390a3505050565b611ff28484846116fd565b611ffe8484848461218f565b61203d576040517f08c379a000000000000000000000000000000000000000000000000000000000815260040161203490613c5c565b60405180910390fd5b50505050565b606060405180602001604052806000815250905090565b6060612065826114f2565b6120a4576040517f08c379a000000000000000000000000000000000000000000000000000000000815260040161209b90613cee565b60405180910390fd5b60006120ae612043565b905060008151116120ce57604051806020016040528060008152506120f9565b806120d884611963565b6040516020016120e9929190613731565b6040516020818303038152906040525b915050919050565b505050565b505050565b60008151905060006a636f6e736f6c652e6c6f679050602083016000808483855afa5050505050565b61213e8383612316565b61214b600084848461218f565b61218a576040517f08c379a000000000000000000000000000000000000000000000000000000000815260040161218190613c5c565b60405180910390fd5b505050565b60006121b08473ffffffffffffffffffffffffffffffffffffffff166124ef565b15612309578373ffffffffffffffffffffffffffffffffffffffff1663150b7a026121d961155e565b8786866040518563ffffffff1660e01b81526004016121fb9493929190613d63565b6020604051808303816000875af192505050801561223757506040513d601f19601f820116820180604052508101906122349190613dc4565b60015b6122b9573d8060008114612267576040519150601f19603f3d011682016040523d82523d6000602084013e61226c565b606091505b5060008151036122b1576040517f08c379a00000000000000000000000000000000000000000000000000000000081526004016122a890613c5c565b60405180910390fd5b805181602001fd5b63150b7a0260e01b7bffffffffffffffffffffffffffffffffffffffffffffffffffffffff1916817bffffffffffffffffffffffffffffffffffffffffffffffffffffffff19161491505061230e565b600190505b949350505050565b600073ffffffffffffffffffffffffffffffffffffffff168273ffffffffffffffffffffffffffffffffffffffff1603612385576040517f08c379a000000000000000000000000000000000000000000000000000000000815260040161237c90613e3d565b60405180910390fd5b61238e816114f2565b156123ce576040517f08c379a00000000000000000000000000000000000000000000000000000000081526004016123c590613ea9565b60405180910390fd5b6123da60008383612101565b6001600360008473ffffffffffffffffffffffffffffffffffffffff1673ffffffffffffffffffffffffffffffffffffffff168152602001908152602001600020600082825461242a919061396e565b92505081905550816002600083815260200190815260200160002060006101000a81548173ffffffffffffffffffffffffffffffffffffffff021916908373ffffffffffffffffffffffffffffffffffffffff160217905550808273ffffffffffffffffffffffffffffffffffffffff16600073ffffffffffffffffffffffffffffffffffffffff167fddf252ad1be2c89b69c2b068fc378daa952ba7f163c4a11628f55a4df523b3ef60405160405180910390a46124eb60008383612106565b5050565b6000808273ffffffffffffffffffffffffffffffffffffffff163b119050919050565b82805461251e90612c87565b90600052602060002090601f0160209004810192826125405760008555612587565b82601f1061255957805160ff1916838001178555612587565b82800160010185558215612587579182015b8281111561258657825182559160200191906001019061256b565b5b5090506125949190612598565b5090565b5b808211156125b1576000816000905550600101612599565b5090565b6000604051905090565b600080fd5b600080fd5b60007fffffffff0000000000000000000000000000000000000000000000000000000082169050919050565b6125fe816125c9565b811461260957600080fd5b50565b60008135905061261b816125f5565b92915050565b600060208284031215612637576126366125bf565b5b60006126458482850161260c565b91505092915050565b60008115159050919050565b6126638161264e565b82525050565b600060208201905061267e600083018461265a565b92915050565b600081519050919050565b600082825260208201905092915050565b60005b838110156126be5780820151818401526020810190506126a3565b838111156126cd576000848401525b50505050565b6000601f19601f8301169050919050565b60006126ef82612684565b6126f9818561268f565b93506127098185602086016126a0565b612712816126d3565b840191505092915050565b6000602082019050818103600083015261273781846126e4565b905092915050565b6000819050919050565b6127528161273f565b811461275d57600080fd5b50565b60008135905061276f81612749565b92915050565b60006020828403121561278b5761278a6125bf565b5b600061279984828501612760565b91505092915050565b600073ffffffffffffffffffffffffffffffffffffffff82169050919050565b60006127cd826127a2565b9050919050565b6127dd816127c2565b82525050565b60006020820190506127f860008301846127d4565b92915050565b612807816127c2565b811461281257600080fd5b50565b600081359050612824816127fe565b92915050565b60008060408385031215612841576128406125bf565b5b600061284f85828601612815565b925050602061286085828601612760565b9150509250929050565b6128738161273f565b82525050565b600060208201905061288e600083018461286a565b92915050565b6000806000606084860312156128ad576128ac6125bf565b5b60006128bb86828701612815565b93505060206128cc86828701612815565b92505060406128dd86828701612760565b9150509250925092565b6000602082840312156128fd576128fc6125bf565b5b600061290b84828501612815565b91505092915050565b600081519050919050565b600082825260208201905092915050565b6000819050602082019050919050565b6129498161273f565b82525050565b600061295b8383612940565b60208301905092915050565b6000602082019050919050565b600061297f82612914565b612989818561291f565b935061299483612930565b8060005b838110156129c55781516129ac888261294f565b97506129b783612967565b925050600181019050612998565b5085935050505092915050565b600060208201905081810360008301526129ec8184612974565b905092915050565b6129fd8161264e565b8114612a0857600080fd5b50565b600081359050612a1a816129f4565b92915050565b60008060408385031215612a3757612a366125bf565b5b6000612a4585828601612815565b9250506020612a5685828601612a0b565b9150509250929050565b600080fd5b600080fd5b7f4e487b7100000000000000000000000000000000000000000000000000000000600052604160045260246000fd5b612aa2826126d3565b810181811067ffffffffffffffff82111715612ac157612ac0612a6a565b5b80604052505050565b6000612ad46125b5565b9050612ae08282612a99565b919050565b600067ffffffffffffffff821115612b0057612aff612a6a565b5b612b09826126d3565b9050602081019050919050565b82818337600083830152505050565b6000612b38612b3384612ae5565b612aca565b905082815260208101848484011115612b5457612b53612a65565b5b612b5f848285612b16565b509392505050565b600082601f830112612b7c57612b7b612a60565b5b8135612b8c848260208601612b25565b91505092915050565b60008060008060808587031215612baf57612bae6125bf565b5b6000612bbd87828801612815565b9450506020612bce87828801612815565b9350506040612bdf87828801612760565b925050606085013567ffffffffffffffff811115612c0057612bff6125c4565b5b612c0c87828801612b67565b91505092959194509250565b60008060408385031215612c2f57612c2e6125bf565b5b6000612c3d85828601612815565b9250506020612c4e85828601612815565b9150509250929050565b7f4e487b7100000000000000000000000000000000000000000000000000000000600052602260045260246000fd5b60006002820490506001821680612c9f57607f821691505b602082108103612cb257612cb1612c58565b5b50919050565b7f4552433732313a20617070726f76656420717565727920666f72206e6f6e657860008201527f697374656e7420746f6b656e0000000000000000000000000000000000000000602082015250565b6000612d14602c8361268f565b9150612d1f82612cb8565b604082019050919050565b60006020820190508181036000830152612d4381612d07565b9050919050565b7f4552433732313a20617070726f76616c20746f2063757272656e74206f776e6560008201527f7200000000000000000000000000000000000000000000000000000000000000602082015250565b6000612da660218361268f565b9150612db182612d4a565b604082019050919050565b60006020820190508181036000830152612dd581612d99565b9050919050565b7f4552433732313a20617070726f76652063616c6c6572206973206e6f74206f7760008201527f6e6572206e6f7220617070726f76656420666f7220616c6c0000000000000000602082015250565b6000612e3860388361268f565b9150612e4382612ddc565b604082019050919050565b60006020820190508181036000830152612e6781612e2b565b9050919050565b7f4552433732313a207472616e736665722063616c6c6572206973206e6f74206f60008201527f776e6572206e6f7220617070726f766564000000000000000000000000000000602082015250565b6000612eca60318361268f565b9150612ed582612e6e565b604082019050919050565b60006020820190508181036000830152612ef981612ebd565b9050919050565b600081905092915050565b7f46495253545f574f524400000000000000000000000000000000000000000000600082015250565b6000612f41600a83612f00565b9150612f4c82612f0b565b600a82019050919050565b6000612f6282612684565b612f6c8185612f00565b9350612f7c8185602086016126a0565b80840191505092915050565b6000612f9382612f34565b9150612f9f8284612f57565b915081905092915050565b7f4e487b7100000000000000000000000000000000000000000000000000000000600052601260045260246000fd5b6000612fe48261273f565b9150612fef8361273f565b925082612fff57612ffe612faa565b5b828206905092915050565b7f4e487b7100000000000000000000000000000000000000000000000000000000600052603260045260246000fd5b7f434f4c4f52000000000000000000000000000000000000000000000000000000600082015250565b600061306f600583612f00565b915061307a82613039565b600582019050919050565b600061309082613062565b915061309c8284612f57565b915081905092915050565b7f4552433732313a206f776e657220717565727920666f72206e6f6e657869737460008201527f656e7420746f6b656e0000000000000000000000000000000000000000000000602082015250565b600061310360298361268f565b915061310e826130a7565b604082019050919050565b60006020820190508181036000830152613132816130f6565b9050919050565b7f4f6e6c79204d696e7465722043616e20496e7465726163740000000000000000600082015250565b600061316f60188361268f565b915061317a82613139565b602082019050919050565b6000602082019050818103600083015261319e81613162565b9050919050565b60006131b18286612f57565b91506131bd8285612f57565b91506131c98284612f57565b9150819050949350505050565b60008190508160005260206000209050919050565b600081546131f881612c87565b6132028186612f00565b9450600182166000811461321d576001811461322e57613261565b60ff19831686528186019350613261565b613237856131d6565b60005b838110156132595781548189015260018201915060208101905061323a565b838801955050505b50505092915050565b7f3c2f746578743e3c2f7376673e00000000000000000000000000000000000000600082015250565b60006132a0600d83612f00565b91506132ab8261326a565b600d82019050919050565b60006132c282876131eb565b91506132ce8286612f57565b91506132da82856131eb565b91506132e68284612f57565b91506132f182613293565b915081905095945050505050565b7f7b226e616d65223a202200000000000000000000000000000000000000000000600082015250565b6000613335600a83612f00565b9150613340826132ff565b600a82019050919050565b7f222c20226465736372697074696f6e223a20224120686967686c79206163636c60008201527f61696d656420636f6c6c656374696f6e206f6620737175617265732e222c202260208201527f696d616765223a2022646174613a696d6167652f7376672b786d6c3b6261736560408201527f36342c0000000000000000000000000000000000000000000000000000000000606082015250565b60006133f3606383612f00565b91506133fe8261334b565b606382019050919050565b7f227d000000000000000000000000000000000000000000000000000000000000600082015250565b600061343f600283612f00565b915061344a82613409565b600282019050919050565b600061346082613328565b915061346c8285612f57565b9150613477826133e6565b91506134838284612f57565b915061348e82613432565b91508190509392505050565b7f646174613a6170706c69636174696f6e2f6a736f6e3b6261736536342c000000600082015250565b60006134d0601d83612f00565b91506134db8261349a565b601d82019050919050565b60006134f1826134c3565b91506134fd8284612f57565b915081905092915050565b600060408201905061351d60008301856127d4565b61352a602083018461286a565b9392505050565b7f4552433732313a2062616c616e636520717565727920666f7220746865207a6560008201527f726f206164647265737300000000000000000000000000000000000000000000602082015250565b600061358d602a8361268f565b915061359882613531565b604082019050919050565b600060208201905081810360008301526135bc81613580565b9050919050565b7f5345434f4e445f574f5244000000000000000000000000000000000000000000600082015250565b60006135f9600b83612f00565b9150613604826135c3565b600b82019050919050565b600061361a826135ec565b91506136268284612f57565b915081905092915050565b7f54484952445f574f524400000000000000000000000000000000000000000000600082015250565b6000613667600a83612f00565b915061367282613631565b600a82019050919050565b60006136888261365a565b91506136948284612f57565b915081905092915050565b7f45524337323155524953746f726167653a2055524920717565727920666f722060008201527f6e6f6e6578697374656e7420746f6b656e000000000000000000000000000000602082015250565b60006136fb60318361268f565b91506137068261369f565b604082019050919050565b6000602082019050818103600083015261372a816136ee565b9050919050565b600061373d8285612f57565b91506137498284612f57565b91508190509392505050565b7f4552433732313a206f70657261746f7220717565727920666f72206e6f6e657860008201527f697374656e7420746f6b656e0000000000000000000000000000000000000000602082015250565b60006137b1602c8361268f565b91506137bc82613755565b604082019050919050565b600060208201905081810360008301526137e0816137a4565b9050919050565b7f4552433732313a207472616e736665722066726f6d20696e636f72726563742060008201527f6f776e6572000000000000000000000000000000000000000000000000000000602082015250565b600061384360258361268f565b915061384e826137e7565b604082019050919050565b6000602082019050818103600083015261387281613836565b9050919050565b7f4552433732313a207472616e7366657220746f20746865207a65726f2061646460008201527f7265737300000000000000000000000000000000000000000000000000000000602082015250565b60006138d560248361268f565b91506138e082613879565b604082019050919050565b60006020820190508181036000830152613904816138c8565b9050919050565b7f4e487b7100000000000000000000000000000000000000000000000000000000600052601160045260246000fd5b60006139458261273f565b91506139508361273f565b9250828210156139635761396261390b565b5b828203905092915050565b60006139798261273f565b91506139848361273f565b9250827fffffffffffffffffffffffffffffffffffffffffffffffffffffffffffffffff038211156139b9576139b861390b565b5b828201905092915050565b60006139cf8261273f565b91507fffffffffffffffffffffffffffffffffffffffffffffffffffffffffffffffff8203613a0157613a0061390b565b5b600182019050919050565b6000613a178261273f565b9150613a228361273f565b925082613a3257613a31612faa565b5b828204905092915050565b6000613a498284612f57565b915081905092915050565b6000613a5f8261273f565b9150613a6a8361273f565b9250817fffffffffffffffffffffffffffffffffffffffffffffffffffffffffffffffff0483118215151615613aa357613aa261390b565b5b828202905092915050565b7f45524337323155524953746f726167653a2055524920736574206f66206e6f6e60008201527f6578697374656e7420746f6b656e000000000000000000000000000000000000602082015250565b6000613b0a602e8361268f565b9150613b1582613aae565b604082019050919050565b60006020820190508181036000830152613b3981613afd565b9050919050565b60006060820190508181036000830152613b5a81866126e4565b9050613b69602083018561286a565b613b7660408301846127d4565b949350505050565b7f4552433732313a20617070726f766520746f2063616c6c657200000000000000600082015250565b6000613bb460198361268f565b9150613bbf82613b7e565b602082019050919050565b60006020820190508181036000830152613be381613ba7565b9050919050565b7f4552433732313a207472616e7366657220746f206e6f6e20455243373231526560008201527f63656976657220696d706c656d656e7465720000000000000000000000000000602082015250565b6000613c4660328361268f565b9150613c5182613bea565b604082019050919050565b60006020820190508181036000830152613c7581613c39565b9050919050565b7f4552433732314d657461646174613a2055524920717565727920666f72206e6f60008201527f6e6578697374656e7420746f6b656e0000000000000000000000000000000000602082015250565b6000613cd8602f8361268f565b9150613ce382613c7c565b604082019050919050565b60006020820190508181036000830152613d0781613ccb565b9050919050565b600081519050919050565b600082825260208201905092915050565b6000613d3582613d0e565b613d3f8185613d19565b9350613d4f8185602086016126a0565b613d58816126d3565b840191505092915050565b6000608082019050613d7860008301876127d4565b613d8560208301866127d4565b613d92604083018561286a565b8181036060830152613da48184613d2a565b905095945050505050565b600081519050613dbe816125f5565b92915050565b600060208284031215613dda57613dd96125bf565b5b6000613de884828501613daf565b91505092915050565b7f4552433732313a206d696e7420746f20746865207a65726f2061646472657373600082015250565b6000613e2760208361268f565b9150613e3282613df1565b602082019050919050565b60006020820190508181036000830152613e5681613e1a565b9050919050565b7f4552433732313a20746f6b656e20616c7265616479206d696e74656400000000600082015250565b6000613e93601c8361268f565b9150613e9e82613e5d565b602082019050919050565b60006020820190508181036000830152613ec281613e86565b905091905056fe416e204e465420772f20494420257320686173206265656e206d696e74656420746f2025734142434445464748494a4b4c4d4e4f505152535455565758595a6162636465666768696a6b6c6d6e6f707172737475767778797a303132333435363738392b2fa26469706673582212204b85a61a6715ecfeb63fb2a9d19a554f58d1b4dd4831711181912b1e75eec1b764736f6c634300080e00333c73766720786d6c6e733d27687474703a2f2f7777772e77332e6f72672f323030302f73766727207072657365727665417370656374526174696f3d27784d696e594d696e206d656574272076696577426f783d273020302033353020333530273e3c7374796c653e2e62617365207b2066696c6c3a2077686974653b20666f6e742d66616d696c793a2073657269663b20666f6e742d73697a653a20323470783b207d3c2f7374796c653e3c726563742077696474683d273130302527206865696768743d2731303025272066696c6c3d27272f3e3c7465787420783d273530252720793d273530252720636c6173733d27626173652720646f6d696e616e742d626173656c696e653d276d6964646c652720746578742d616e63686f723d276d6964646c65273e",
  "linkReferences": {},
  "deployedLinkReferences": {}
}