{
	"contracts/Generosity.sol": {
		"Generosity": {
			"abi": [
				{
					"inputs": [
						{
							"internalType": "string",
							"name": "_name",
							"type": "string"
						},
						{
							"internalType": "string",
							"name": "_symbol",
							"type": "string"
						}
					],
					"stateMutability": "nonpayable",
					"type": "constructor"
				},
				{
					"anonymous": false,
					"inputs": [
						{
							"indexed": true,
							"internalType": "address",
							"name": "owner",
							"type": "address"
						},
						{
							"indexed": true,
							"internalType": "address",
							"name": "spender",
							"type": "address"
						},
						{
							"indexed": false,
							"internalType": "uint256",
							"name": "value",
							"type": "uint256"
						}
					],
					"name": "Approval",
					"type": "event"
				},
				{
					"anonymous": false,
					"inputs": [
						{
							"indexed": true,
							"internalType": "address",
							"name": "previousOwner",
							"type": "address"
						},
						{
							"indexed": true,
							"internalType": "address",
							"name": "newOwner",
							"type": "address"
						}
					],
					"name": "OwnershipTransferred",
					"type": "event"
				},
				{
					"anonymous": false,
					"inputs": [
						{
							"indexed": true,
							"internalType": "address",
							"name": "from",
							"type": "address"
						},
						{
							"indexed": true,
							"internalType": "address",
							"name": "to",
							"type": "address"
						},
						{
							"indexed": false,
							"internalType": "uint256",
							"name": "value",
							"type": "uint256"
						}
					],
					"name": "Transfer",
					"type": "event"
				},
				{
					"inputs": [
						{
							"internalType": "address",
							"name": "owner",
							"type": "address"
						},
						{
							"internalType": "address",
							"name": "spender",
							"type": "address"
						}
					],
					"name": "allowance",
					"outputs": [
						{
							"internalType": "uint256",
							"name": "",
							"type": "uint256"
						}
					],
					"stateMutability": "view",
					"type": "function"
				},
				{
					"inputs": [
						{
							"internalType": "address",
							"name": "spender",
							"type": "address"
						},
						{
							"internalType": "uint256",
							"name": "amount",
							"type": "uint256"
						}
					],
					"name": "approve",
					"outputs": [
						{
							"internalType": "bool",
							"name": "",
							"type": "bool"
						}
					],
					"stateMutability": "nonpayable",
					"type": "function"
				},
				{
					"inputs": [
						{
							"internalType": "address",
							"name": "account",
							"type": "address"
						}
					],
					"name": "balanceOf",
					"outputs": [
						{
							"internalType": "uint256",
							"name": "",
							"type": "uint256"
						}
					],
					"stateMutability": "view",
					"type": "function"
				},
				{
					"inputs": [
						{
							"internalType": "address",
							"name": "from",
							"type": "address"
						},
						{
							"internalType": "uint256",
							"name": "value",
							"type": "uint256"
						}
					],
					"name": "burn",
					"outputs": [],
					"stateMutability": "nonpayable",
					"type": "function"
				},
				{
					"inputs": [],
					"name": "decimals",
					"outputs": [
						{
							"internalType": "uint8",
							"name": "",
							"type": "uint8"
						}
					],
					"stateMutability": "view",
					"type": "function"
				},
				{
					"inputs": [
						{
							"internalType": "address",
							"name": "spender",
							"type": "address"
						},
						{
							"internalType": "uint256",
							"name": "subtractedValue",
							"type": "uint256"
						}
					],
					"name": "decreaseAllowance",
					"outputs": [
						{
							"internalType": "bool",
							"name": "",
							"type": "bool"
						}
					],
					"stateMutability": "nonpayable",
					"type": "function"
				},
				{
					"inputs": [],
					"name": "distributor",
					"outputs": [
						{
							"internalType": "address",
							"name": "",
							"type": "address"
						}
					],
					"stateMutability": "view",
					"type": "function"
				},
				{
					"inputs": [
						{
							"internalType": "address",
							"name": "spender",
							"type": "address"
						},
						{
							"internalType": "uint256",
							"name": "addedValue",
							"type": "uint256"
						}
					],
					"name": "increaseAllowance",
					"outputs": [
						{
							"internalType": "bool",
							"name": "",
							"type": "bool"
						}
					],
					"stateMutability": "nonpayable",
					"type": "function"
				},
				{
					"inputs": [
						{
							"internalType": "address",
							"name": "to",
							"type": "address"
						},
						{
							"internalType": "uint256",
							"name": "value",
							"type": "uint256"
						}
					],
					"name": "mint",
					"outputs": [],
					"stateMutability": "nonpayable",
					"type": "function"
				},
				{
					"inputs": [],
					"name": "name",
					"outputs": [
						{
							"internalType": "string",
							"name": "",
							"type": "string"
						}
					],
					"stateMutability": "view",
					"type": "function"
				},
				{
					"inputs": [],
					"name": "owner",
					"outputs": [
						{
							"internalType": "address",
							"name": "",
							"type": "address"
						}
					],
					"stateMutability": "view",
					"type": "function"
				},
				{
					"inputs": [],
					"name": "renounceOwnership",
					"outputs": [],
					"stateMutability": "nonpayable",
					"type": "function"
				},
				{
					"inputs": [
						{
							"internalType": "address",
							"name": "_distributor",
							"type": "address"
						}
					],
					"name": "setDisributor",
					"outputs": [],
					"stateMutability": "nonpayable",
					"type": "function"
				},
				{
					"inputs": [],
					"name": "symbol",
					"outputs": [
						{
							"internalType": "string",
							"name": "",
							"type": "string"
						}
					],
					"stateMutability": "view",
					"type": "function"
				},
				{
					"inputs": [],
					"name": "totalSupply",
					"outputs": [
						{
							"internalType": "uint256",
							"name": "",
							"type": "uint256"
						}
					],
					"stateMutability": "view",
					"type": "function"
				},
				{
					"inputs": [
						{
							"internalType": "address",
							"name": "recipient",
							"type": "address"
						},
						{
							"internalType": "uint256",
							"name": "amount",
							"type": "uint256"
						}
					],
					"name": "transfer",
					"outputs": [
						{
							"internalType": "bool",
							"name": "",
							"type": "bool"
						}
					],
					"stateMutability": "nonpayable",
					"type": "function"
				},
				{
					"inputs": [
						{
							"internalType": "address",
							"name": "sender",
							"type": "address"
						},
						{
							"internalType": "address",
							"name": "recipient",
							"type": "address"
						},
						{
							"internalType": "uint256",
							"name": "amount",
							"type": "uint256"
						}
					],
					"name": "transferFrom",
					"outputs": [
						{
							"internalType": "bool",
							"name": "",
							"type": "bool"
						}
					],
					"stateMutability": "nonpayable",
					"type": "function"
				},
				{
					"inputs": [
						{
							"internalType": "address",
							"name": "newOwner_",
							"type": "address"
						}
					],
					"name": "transferOwnership",
					"outputs": [],
					"stateMutability": "nonpayable",
					"type": "function"
				}
			],
			"devdoc": {
				"kind": "dev",
				"methods": {
					"allowance(address,address)": {
						"details": "See {IERC20-allowance}."
					},
					"approve(address,uint256)": {
						"details": "See {IERC20-approve}. Requirements: - `spender` cannot be the zero address."
					},
					"balanceOf(address)": {
						"details": "See {IERC20-balanceOf}."
					},
					"decimals()": {
						"details": "Returns the number of decimals used to get its user representation. For example, if `decimals` equals `2`, a balance of `505` tokens should be displayed to a user as `5.05` (`505 / 10 ** 2`). Tokens usually opt for a value of 18, imitating the relationship between Ether and Wei. This is the value {ERC20} uses, unless this function is overridden; NOTE: This information is only used for _display_ purposes: it in no way affects any of the arithmetic of the contract, including {IERC20-balanceOf} and {IERC20-transfer}."
					},
					"decreaseAllowance(address,uint256)": {
						"details": "Atomically decreases the allowance granted to `spender` by the caller. This is an alternative to {approve} that can be used as a mitigation for problems described in {IERC20-approve}. Emits an {Approval} event indicating the updated allowance. Requirements: - `spender` cannot be the zero address. - `spender` must have allowance for the caller of at least `subtractedValue`."
					},
					"increaseAllowance(address,uint256)": {
						"details": "Atomically increases the allowance granted to `spender` by the caller. This is an alternative to {approve} that can be used as a mitigation for problems described in {IERC20-approve}. Emits an {Approval} event indicating the updated allowance. Requirements: - `spender` cannot be the zero address."
					},
					"name()": {
						"details": "Returns the name of the token."
					},
					"symbol()": {
						"details": "Returns the symbol of the token, usually a shorter version of the name."
					},
					"totalSupply()": {
						"details": "See {IERC20-totalSupply}."
					},
					"transfer(address,uint256)": {
						"details": "See {IERC20-transfer}. Requirements: - `recipient` cannot be the zero address. - the caller must have a balance of at least `amount`."
					},
					"transferFrom(address,address,uint256)": {
						"details": "See {IERC20-transferFrom}. Emits an {Approval} event indicating the updated allowance. This is not required by the EIP. See the note at the beginning of {ERC20}. Requirements: - `sender` and `recipient` cannot be the zero address. - `sender` must have a balance of at least `amount`. - the caller must have allowance for ``sender``'s tokens of at least `amount`."
					}
				},
				"version": 1
			},
			"evm": {
				"assembly": "    /* \"contracts/Generosity.sol\":135:703  contract Generosity is ERC20, Ownable {... */\n  mstore(0x40, 0x80)\n    /* \"contracts/Generosity.sol\":240:330  constructor(string memory _name, string memory _symbol)... */\n  callvalue\n  dup1\n  iszero\n  tag_1\n  jumpi\n  0x00\n  dup1\n  revert\ntag_1:\n  pop\n  mload(0x40)\n  sub(codesize, bytecodeSize)\n  dup1\n  bytecodeSize\n  dup4\n  codecopy\n  dup2\n  dup2\n  add\n  0x40\n  mstore\n  dup2\n  add\n  swap1\n  tag_2\n  swap2\n  swap1\n  tag_3\n  jump\t// in\ntag_2:\n    /* \"contracts/Generosity.sol\":306:311  _name */\n  dup2\n    /* \"contracts/Generosity.sol\":313:320  _symbol */\n  dup2\n    /* \"contracts/Generosity.sol\":322:324  18 */\n  0x12\n    /* \"contracts/libraries/ERC20.sol\":2045:2050  name_ */\n  dup3\n    /* \"contracts/libraries/ERC20.sol\":2037:2042  _name */\n  0x03\n    /* \"contracts/libraries/ERC20.sol\":2037:2050  _name = name_ */\n  swap1\n  dup1\n  mload\n  swap1\n  0x20\n  add\n  swap1\n  tag_8\n  swap3\n  swap2\n  swap1\n  tag_9\n  jump\t// in\ntag_8:\n  pop\n    /* \"contracts/libraries/ERC20.sol\":2070:2077  symbol_ */\n  dup2\n    /* \"contracts/libraries/ERC20.sol\":2060:2067  _symbol */\n  0x04\n    /* \"contracts/libraries/ERC20.sol\":2060:2077  _symbol = symbol_ */\n  swap1\n  dup1\n  mload\n  swap1\n  0x20\n  add\n  swap1\n  tag_10\n  swap3\n  swap2\n  swap1\n  tag_9\n  jump\t// in\ntag_10:\n  pop\n    /* \"contracts/libraries/ERC20.sol\":2099:2108  decimals_ */\n  dup1\n    /* \"contracts/libraries/ERC20.sol\":2087:2096  _decimals */\n  0x05\n  0x00\n    /* \"contracts/libraries/ERC20.sol\":2087:2108  _decimals = decimals_ */\n  0x0100\n  exp\n  dup2\n  sload\n  dup2\n  0xff\n  mul\n  not\n  and\n  swap1\n  dup4\n  0xff\n  and\n  mul\n  or\n  swap1\n  sstore\n  pop\n    /* \"contracts/libraries/ERC20.sol\":1954:2115  constructor(string memory name_, string memory symbol_, uint8 decimals_) {... */\n  pop\n  pop\n  pop\n    /* \"contracts/libraries/Ownable.sol\":235:245  msg.sender */\n  caller\n    /* \"contracts/libraries/Ownable.sol\":226:232  _owner */\n  0x05\n  0x01\n    /* \"contracts/libraries/Ownable.sol\":226:245  _owner = msg.sender */\n  0x0100\n  exp\n  dup2\n  sload\n  dup2\n  0xffffffffffffffffffffffffffffffffffffffff\n  mul\n  not\n  and\n  swap1\n  dup4\n  0xffffffffffffffffffffffffffffffffffffffff\n  and\n  mul\n  or\n  swap1\n  sstore\n  pop\n    /* \"contracts/libraries/Ownable.sol\":289:295  _owner */\n  0x05\n  0x01\n  swap1\n  sload\n  swap1\n  0x0100\n  exp\n  swap1\n  div\n  0xffffffffffffffffffffffffffffffffffffffff\n  and\n    /* \"contracts/libraries/Ownable.sol\":256:296  OwnershipTransferred(address(0), _owner) */\n  0xffffffffffffffffffffffffffffffffffffffff\n  and\n    /* \"contracts/libraries/Ownable.sol\":285:286  0 */\n  0x00\n    /* \"contracts/libraries/Ownable.sol\":256:296  OwnershipTransferred(address(0), _owner) */\n  0xffffffffffffffffffffffffffffffffffffffff\n  and\n  0x8be0079c531659141344cd1fd0a4f28419497f9722a3daafe3b4186f6b6457e0\n  mload(0x40)\n  mload(0x40)\n  dup1\n  swap2\n  sub\n  swap1\n  log3\n    /* \"contracts/Generosity.sol\":240:330  constructor(string memory _name, string memory _symbol)... */\n  pop\n  pop\n    /* \"contracts/Generosity.sol\":135:703  contract Generosity is ERC20, Ownable {... */\n  jump(tag_13)\ntag_9:\n  dup3\n  dup1\n  sload\n  tag_14\n  swap1\n  tag_15\n  jump\t// in\ntag_14:\n  swap1\n  0x00\n  mstore\n  keccak256(0x00, 0x20)\n  swap1\n  0x1f\n  add\n  0x20\n  swap1\n  div\n  dup2\n  add\n  swap3\n  dup3\n  tag_17\n  jumpi\n  0x00\n  dup6\n  sstore\n  jump(tag_16)\ntag_17:\n  dup3\n  0x1f\n  lt\n  tag_18\n  jumpi\n  dup1\n  mload\n  not(0xff)\n  and\n  dup4\n  dup1\n  add\n  or\n  dup6\n  sstore\n  jump(tag_16)\ntag_18:\n  dup3\n  dup1\n  add\n  0x01\n  add\n  dup6\n  sstore\n  dup3\n  iszero\n  tag_16\n  jumpi\n  swap2\n  dup3\n  add\ntag_19:\n  dup3\n  dup2\n  gt\n  iszero\n  tag_20\n  jumpi\n  dup3\n  mload\n  dup3\n  sstore\n  swap2\n  0x20\n  add\n  swap2\n  swap1\n  0x01\n  add\n  swap1\n  jump(tag_19)\ntag_20:\ntag_16:\n  pop\n  swap1\n  pop\n  tag_21\n  swap2\n  swap1\n  tag_22\n  jump\t// in\ntag_21:\n  pop\n  swap1\n  jump\t// out\ntag_22:\ntag_23:\n  dup1\n  dup3\n  gt\n  iszero\n  tag_24\n  jumpi\n  0x00\n  dup2\n  0x00\n  swap1\n  sstore\n  pop\n  0x01\n  add\n  jump(tag_23)\ntag_24:\n  pop\n  swap1\n  jump\t// out\n    /* \"#utility.yul\":7:82   */\ntag_25:\n    /* \"#utility.yul\":40:46   */\n  0x00\n    /* \"#utility.yul\":73:75   */\n  0x40\n    /* \"#utility.yul\":67:76   */\n  mload\n    /* \"#utility.yul\":57:76   */\n  swap1\n  pop\n    /* \"#utility.yul\":7:82   */\n  swap1\n  jump\t// out\n    /* \"#utility.yul\":88:205   */\ntag_26:\n    /* \"#utility.yul\":197:198   */\n  0x00\n    /* \"#utility.yul\":194:195   */\n  dup1\n    /* \"#utility.yul\":187:199   */\n  revert\n    /* \"#utility.yul\":211:328   */\ntag_27:\n    /* \"#utility.yul\":320:321   */\n  0x00\n    /* \"#utility.yul\":317:318   */\n  dup1\n    /* \"#utility.yul\":310:322   */\n  revert\n    /* \"#utility.yul\":334:451   */\ntag_28:\n    /* \"#utility.yul\":443:444   */\n  0x00\n    /* \"#utility.yul\":440:441   */\n  dup1\n    /* \"#utility.yul\":433:445   */\n  revert\n    /* \"#utility.yul\":457:574   */\ntag_29:\n    /* \"#utility.yul\":566:567   */\n  0x00\n    /* \"#utility.yul\":563:564   */\n  dup1\n    /* \"#utility.yul\":556:568   */\n  revert\n    /* \"#utility.yul\":580:682   */\ntag_30:\n    /* \"#utility.yul\":621:627   */\n  0x00\n    /* \"#utility.yul\":672:674   */\n  0x1f\n    /* \"#utility.yul\":668:675   */\n  not\n    /* \"#utility.yul\":663:665   */\n  0x1f\n    /* \"#utility.yul\":656:661   */\n  dup4\n    /* \"#utility.yul\":652:666   */\n  add\n    /* \"#utility.yul\":648:676   */\n  and\n    /* \"#utility.yul\":638:676   */\n  swap1\n  pop\n    /* \"#utility.yul\":580:682   */\n  swap2\n  swap1\n  pop\n  jump\t// out\n    /* \"#utility.yul\":688:868   */\ntag_31:\n    /* \"#utility.yul\":736:813   */\n  0x4e487b7100000000000000000000000000000000000000000000000000000000\n    /* \"#utility.yul\":733:734   */\n  0x00\n    /* \"#utility.yul\":726:814   */\n  mstore\n    /* \"#utility.yul\":833:837   */\n  0x41\n    /* \"#utility.yul\":830:831   */\n  0x04\n    /* \"#utility.yul\":823:838   */\n  mstore\n    /* \"#utility.yul\":857:861   */\n  0x24\n    /* \"#utility.yul\":854:855   */\n  0x00\n    /* \"#utility.yul\":847:862   */\n  revert\n    /* \"#utility.yul\":874:1155   */\ntag_32:\n    /* \"#utility.yul\":957:984   */\n  tag_48\n    /* \"#utility.yul\":979:983   */\n  dup3\n    /* \"#utility.yul\":957:984   */\n  tag_30\n  jump\t// in\ntag_48:\n    /* \"#utility.yul\":949:955   */\n  dup2\n    /* \"#utility.yul\":945:985   */\n  add\n    /* \"#utility.yul\":1087:1093   */\n  dup2\n    /* \"#utility.yul\":1075:1085   */\n  dup2\n    /* \"#utility.yul\":1072:1094   */\n  lt\n    /* \"#utility.yul\":1051:1069   */\n  0xffffffffffffffff\n    /* \"#utility.yul\":1039:1049   */\n  dup3\n    /* \"#utility.yul\":1036:1070   */\n  gt\n    /* \"#utility.yul\":1033:1095   */\n  or\n    /* \"#utility.yul\":1030:1118   */\n  iszero\n  tag_49\n  jumpi\n    /* \"#utility.yul\":1098:1116   */\n  tag_50\n  tag_31\n  jump\t// in\ntag_50:\n    /* \"#utility.yul\":1030:1118   */\ntag_49:\n    /* \"#utility.yul\":1138:1148   */\n  dup1\n    /* \"#utility.yul\":1134:1136   */\n  0x40\n    /* \"#utility.yul\":1127:1149   */\n  mstore\n    /* \"#utility.yul\":917:1155   */\n  pop\n    /* \"#utility.yul\":874:1155   */\n  pop\n  pop\n  jump\t// out\n    /* \"#utility.yul\":1161:1290   */\ntag_33:\n    /* \"#utility.yul\":1195:1201   */\n  0x00\n    /* \"#utility.yul\":1222:1242   */\n  tag_52\n  tag_25\n  jump\t// in\ntag_52:\n    /* \"#utility.yul\":1212:1242   */\n  swap1\n  pop\n    /* \"#utility.yul\":1251:1284   */\n  tag_53\n    /* \"#utility.yul\":1279:1283   */\n  dup3\n    /* \"#utility.yul\":1271:1277   */\n  dup3\n    /* \"#utility.yul\":1251:1284   */\n  tag_32\n  jump\t// in\ntag_53:\n    /* \"#utility.yul\":1161:1290   */\n  swap2\n  swap1\n  pop\n  jump\t// out\n    /* \"#utility.yul\":1296:1604   */\ntag_34:\n    /* \"#utility.yul\":1358:1362   */\n  0x00\n    /* \"#utility.yul\":1448:1466   */\n  0xffffffffffffffff\n    /* \"#utility.yul\":1440:1446   */\n  dup3\n    /* \"#utility.yul\":1437:1467   */\n  gt\n    /* \"#utility.yul\":1434:1490   */\n  iszero\n  tag_55\n  jumpi\n    /* \"#utility.yul\":1470:1488   */\n  tag_56\n  tag_31\n  jump\t// in\ntag_56:\n    /* \"#utility.yul\":1434:1490   */\ntag_55:\n    /* \"#utility.yul\":1508:1537   */\n  tag_57\n    /* \"#utility.yul\":1530:1536   */\n  dup3\n    /* \"#utility.yul\":1508:1537   */\n  tag_30\n  jump\t// in\ntag_57:\n    /* \"#utility.yul\":1500:1537   */\n  swap1\n  pop\n    /* \"#utility.yul\":1592:1596   */\n  0x20\n    /* \"#utility.yul\":1586:1590   */\n  dup2\n    /* \"#utility.yul\":1582:1597   */\n  add\n    /* \"#utility.yul\":1574:1597   */\n  swap1\n  pop\n    /* \"#utility.yul\":1296:1604   */\n  swap2\n  swap1\n  pop\n  jump\t// out\n    /* \"#utility.yul\":1610:1917   */\ntag_35:\n    /* \"#utility.yul\":1678:1679   */\n  0x00\n    /* \"#utility.yul\":1688:1801   */\ntag_59:\n    /* \"#utility.yul\":1702:1708   */\n  dup4\n    /* \"#utility.yul\":1699:1700   */\n  dup2\n    /* \"#utility.yul\":1696:1709   */\n  lt\n    /* \"#utility.yul\":1688:1801   */\n  iszero\n  tag_61\n  jumpi\n    /* \"#utility.yul\":1787:1788   */\n  dup1\n    /* \"#utility.yul\":1782:1785   */\n  dup3\n    /* \"#utility.yul\":1778:1789   */\n  add\n    /* \"#utility.yul\":1772:1790   */\n  mload\n    /* \"#utility.yul\":1768:1769   */\n  dup2\n    /* \"#utility.yul\":1763:1766   */\n  dup5\n    /* \"#utility.yul\":1759:1770   */\n  add\n    /* \"#utility.yul\":1752:1791   */\n  mstore\n    /* \"#utility.yul\":1724:1726   */\n  0x20\n    /* \"#utility.yul\":1721:1722   */\n  dup2\n    /* \"#utility.yul\":1717:1727   */\n  add\n    /* \"#utility.yul\":1712:1727   */\n  swap1\n  pop\n    /* \"#utility.yul\":1688:1801   */\n  jump(tag_59)\ntag_61:\n    /* \"#utility.yul\":1819:1825   */\n  dup4\n    /* \"#utility.yul\":1816:1817   */\n  dup2\n    /* \"#utility.yul\":1813:1826   */\n  gt\n    /* \"#utility.yul\":1810:1911   */\n  iszero\n  tag_62\n  jumpi\n    /* \"#utility.yul\":1899:1900   */\n  0x00\n    /* \"#utility.yul\":1890:1896   */\n  dup5\n    /* \"#utility.yul\":1885:1888   */\n  dup5\n    /* \"#utility.yul\":1881:1897   */\n  add\n    /* \"#utility.yul\":1874:1901   */\n  mstore\n    /* \"#utility.yul\":1810:1911   */\ntag_62:\n    /* \"#utility.yul\":1659:1917   */\n  pop\n    /* \"#utility.yul\":1610:1917   */\n  pop\n  pop\n  pop\n  jump\t// out\n    /* \"#utility.yul\":1923:2344   */\ntag_36:\n    /* \"#utility.yul\":2012:2017   */\n  0x00\n    /* \"#utility.yul\":2037:2103   */\n  tag_64\n    /* \"#utility.yul\":2053:2102   */\n  tag_65\n    /* \"#utility.yul\":2095:2101   */\n  dup5\n    /* \"#utility.yul\":2053:2102   */\n  tag_34\n  jump\t// in\ntag_65:\n    /* \"#utility.yul\":2037:2103   */\n  tag_33\n  jump\t// in\ntag_64:\n    /* \"#utility.yul\":2028:2103   */\n  swap1\n  pop\n    /* \"#utility.yul\":2126:2132   */\n  dup3\n    /* \"#utility.yul\":2119:2124   */\n  dup2\n    /* \"#utility.yul\":2112:2133   */\n  mstore\n    /* \"#utility.yul\":2164:2168   */\n  0x20\n    /* \"#utility.yul\":2157:2162   */\n  dup2\n    /* \"#utility.yul\":2153:2169   */\n  add\n    /* \"#utility.yul\":2202:2205   */\n  dup5\n    /* \"#utility.yul\":2193:2199   */\n  dup5\n    /* \"#utility.yul\":2188:2191   */\n  dup5\n    /* \"#utility.yul\":2184:2200   */\n  add\n    /* \"#utility.yul\":2181:2206   */\n  gt\n    /* \"#utility.yul\":2178:2290   */\n  iszero\n  tag_66\n  jumpi\n    /* \"#utility.yul\":2209:2288   */\n  tag_67\n  tag_29\n  jump\t// in\ntag_67:\n    /* \"#utility.yul\":2178:2290   */\ntag_66:\n    /* \"#utility.yul\":2299:2338   */\n  tag_68\n    /* \"#utility.yul\":2331:2337   */\n  dup5\n    /* \"#utility.yul\":2326:2329   */\n  dup3\n    /* \"#utility.yul\":2321:2324   */\n  dup6\n    /* \"#utility.yul\":2299:2338   */\n  tag_35\n  jump\t// in\ntag_68:\n    /* \"#utility.yul\":2018:2344   */\n  pop\n    /* \"#utility.yul\":1923:2344   */\n  swap4\n  swap3\n  pop\n  pop\n  pop\n  jump\t// out\n    /* \"#utility.yul\":2364:2719   */\ntag_37:\n    /* \"#utility.yul\":2431:2436   */\n  0x00\n    /* \"#utility.yul\":2480:2483   */\n  dup3\n    /* \"#utility.yul\":2473:2477   */\n  0x1f\n    /* \"#utility.yul\":2465:2471   */\n  dup4\n    /* \"#utility.yul\":2461:2478   */\n  add\n    /* \"#utility.yul\":2457:2484   */\n  slt\n    /* \"#utility.yul\":2447:2569   */\n  tag_70\n  jumpi\n    /* \"#utility.yul\":2488:2567   */\n  tag_71\n  tag_28\n  jump\t// in\ntag_71:\n    /* \"#utility.yul\":2447:2569   */\ntag_70:\n    /* \"#utility.yul\":2598:2604   */\n  dup2\n    /* \"#utility.yul\":2592:2605   */\n  mload\n    /* \"#utility.yul\":2623:2713   */\n  tag_72\n    /* \"#utility.yul\":2709:2712   */\n  dup5\n    /* \"#utility.yul\":2701:2707   */\n  dup3\n    /* \"#utility.yul\":2694:2698   */\n  0x20\n    /* \"#utility.yul\":2686:2692   */\n  dup7\n    /* \"#utility.yul\":2682:2699   */\n  add\n    /* \"#utility.yul\":2623:2713   */\n  tag_36\n  jump\t// in\ntag_72:\n    /* \"#utility.yul\":2614:2713   */\n  swap2\n  pop\n    /* \"#utility.yul\":2437:2719   */\n  pop\n    /* \"#utility.yul\":2364:2719   */\n  swap3\n  swap2\n  pop\n  pop\n  jump\t// out\n    /* \"#utility.yul\":2725:3578   */\ntag_3:\n    /* \"#utility.yul\":2824:2830   */\n  0x00\n    /* \"#utility.yul\":2832:2838   */\n  dup1\n    /* \"#utility.yul\":2881:2883   */\n  0x40\n    /* \"#utility.yul\":2869:2878   */\n  dup4\n    /* \"#utility.yul\":2860:2867   */\n  dup6\n    /* \"#utility.yul\":2856:2879   */\n  sub\n    /* \"#utility.yul\":2852:2884   */\n  slt\n    /* \"#utility.yul\":2849:2968   */\n  iszero\n  tag_74\n  jumpi\n    /* \"#utility.yul\":2887:2966   */\n  tag_75\n  tag_26\n  jump\t// in\ntag_75:\n    /* \"#utility.yul\":2849:2968   */\ntag_74:\n    /* \"#utility.yul\":3028:3029   */\n  0x00\n    /* \"#utility.yul\":3017:3026   */\n  dup4\n    /* \"#utility.yul\":3013:3030   */\n  add\n    /* \"#utility.yul\":3007:3031   */\n  mload\n    /* \"#utility.yul\":3058:3076   */\n  0xffffffffffffffff\n    /* \"#utility.yul\":3050:3056   */\n  dup2\n    /* \"#utility.yul\":3047:3077   */\n  gt\n    /* \"#utility.yul\":3044:3161   */\n  iszero\n  tag_76\n  jumpi\n    /* \"#utility.yul\":3080:3159   */\n  tag_77\n  tag_27\n  jump\t// in\ntag_77:\n    /* \"#utility.yul\":3044:3161   */\ntag_76:\n    /* \"#utility.yul\":3185:3259   */\n  tag_78\n    /* \"#utility.yul\":3251:3258   */\n  dup6\n    /* \"#utility.yul\":3242:3248   */\n  dup3\n    /* \"#utility.yul\":3231:3240   */\n  dup7\n    /* \"#utility.yul\":3227:3249   */\n  add\n    /* \"#utility.yul\":3185:3259   */\n  tag_37\n  jump\t// in\ntag_78:\n    /* \"#utility.yul\":3175:3259   */\n  swap3\n  pop\n    /* \"#utility.yul\":2978:3269   */\n  pop\n    /* \"#utility.yul\":3329:3331   */\n  0x20\n    /* \"#utility.yul\":3318:3327   */\n  dup4\n    /* \"#utility.yul\":3314:3332   */\n  add\n    /* \"#utility.yul\":3308:3333   */\n  mload\n    /* \"#utility.yul\":3360:3378   */\n  0xffffffffffffffff\n    /* \"#utility.yul\":3352:3358   */\n  dup2\n    /* \"#utility.yul\":3349:3379   */\n  gt\n    /* \"#utility.yul\":3346:3463   */\n  iszero\n  tag_79\n  jumpi\n    /* \"#utility.yul\":3382:3461   */\n  tag_80\n  tag_27\n  jump\t// in\ntag_80:\n    /* \"#utility.yul\":3346:3463   */\ntag_79:\n    /* \"#utility.yul\":3487:3561   */\n  tag_81\n    /* \"#utility.yul\":3553:3560   */\n  dup6\n    /* \"#utility.yul\":3544:3550   */\n  dup3\n    /* \"#utility.yul\":3533:3542   */\n  dup7\n    /* \"#utility.yul\":3529:3551   */\n  add\n    /* \"#utility.yul\":3487:3561   */\n  tag_37\n  jump\t// in\ntag_81:\n    /* \"#utility.yul\":3477:3561   */\n  swap2\n  pop\n    /* \"#utility.yul\":3279:3571   */\n  pop\n    /* \"#utility.yul\":2725:3578   */\n  swap3\n  pop\n  swap3\n  swap1\n  pop\n  jump\t// out\n    /* \"#utility.yul\":3584:3764   */\ntag_38:\n    /* \"#utility.yul\":3632:3709   */\n  0x4e487b7100000000000000000000000000000000000000000000000000000000\n    /* \"#utility.yul\":3629:3630   */\n  0x00\n    /* \"#utility.yul\":3622:3710   */\n  mstore\n    /* \"#utility.yul\":3729:3733   */\n  0x22\n    /* \"#utility.yul\":3726:3727   */\n  0x04\n    /* \"#utility.yul\":3719:3734   */\n  mstore\n    /* \"#utility.yul\":3753:3757   */\n  0x24\n    /* \"#utility.yul\":3750:3751   */\n  0x00\n    /* \"#utility.yul\":3743:3758   */\n  revert\n    /* \"#utility.yul\":3770:4090   */\ntag_15:\n    /* \"#utility.yul\":3814:3820   */\n  0x00\n    /* \"#utility.yul\":3851:3852   */\n  0x02\n    /* \"#utility.yul\":3845:3849   */\n  dup3\n    /* \"#utility.yul\":3841:3853   */\n  div\n    /* \"#utility.yul\":3831:3853   */\n  swap1\n  pop\n    /* \"#utility.yul\":3898:3899   */\n  0x01\n    /* \"#utility.yul\":3892:3896   */\n  dup3\n    /* \"#utility.yul\":3888:3900   */\n  and\n    /* \"#utility.yul\":3919:3937   */\n  dup1\n    /* \"#utility.yul\":3909:3990   */\n  tag_84\n  jumpi\n    /* \"#utility.yul\":3975:3979   */\n  0x7f\n    /* \"#utility.yul\":3967:3973   */\n  dup3\n    /* \"#utility.yul\":3963:3980   */\n  and\n    /* \"#utility.yul\":3953:3980   */\n  swap2\n  pop\n    /* \"#utility.yul\":3909:3990   */\ntag_84:\n    /* \"#utility.yul\":4037:4039   */\n  0x20\n    /* \"#utility.yul\":4029:4035   */\n  dup3\n    /* \"#utility.yul\":4026:4040   */\n  lt\n    /* \"#utility.yul\":4006:4024   */\n  dup2\n    /* \"#utility.yul\":4003:4041   */\n  sub\n    /* \"#utility.yul\":4000:4084   */\n  tag_85\n  jumpi\n    /* \"#utility.yul\":4056:4074   */\n  tag_86\n  tag_38\n  jump\t// in\ntag_86:\n    /* \"#utility.yul\":4000:4084   */\ntag_85:\n    /* \"#utility.yul\":3821:4090   */\n  pop\n    /* \"#utility.yul\":3770:4090   */\n  swap2\n  swap1\n  pop\n  jump\t// out\n    /* \"contracts/Generosity.sol\":135:703  contract Generosity is ERC20, Ownable {... */\ntag_13:\n  dataSize(sub_0)\n  dup1\n  dataOffset(sub_0)\n  0x00\n  codecopy\n  0x00\n  return\nstop\n\nsub_0: assembly {\n        /* \"contracts/Generosity.sol\":135:703  contract Generosity is ERC20, Ownable {... */\n      mstore(0x40, 0x80)\n      callvalue\n      dup1\n      iszero\n      tag_1\n      jumpi\n      0x00\n      dup1\n      revert\n    tag_1:\n      pop\n      jumpi(tag_2, lt(calldatasize, 0x04))\n      shr(0xe0, calldataload(0x00))\n      dup1\n      0x8da5cb5b\n      gt\n      tag_21\n      jumpi\n      dup1\n      0xa457c2d7\n      gt\n      tag_22\n      jumpi\n      dup1\n      0xa457c2d7\n      eq\n      tag_16\n      jumpi\n      dup1\n      0xa9059cbb\n      eq\n      tag_17\n      jumpi\n      dup1\n      0xbfe10928\n      eq\n      tag_18\n      jumpi\n      dup1\n      0xdd62ed3e\n      eq\n      tag_19\n      jumpi\n      dup1\n      0xf2fde38b\n      eq\n      tag_20\n      jumpi\n      jump(tag_2)\n    tag_22:\n      dup1\n      0x8da5cb5b\n      eq\n      tag_12\n      jumpi\n      dup1\n      0x95d89b41\n      eq\n      tag_13\n      jumpi\n      dup1\n      0x9dc29fac\n      eq\n      tag_14\n      jumpi\n      dup1\n      0xa15dc177\n      eq\n      tag_15\n      jumpi\n      jump(tag_2)\n    tag_21:\n      dup1\n      0x313ce567\n      gt\n      tag_23\n      jumpi\n      dup1\n      0x313ce567\n      eq\n      tag_7\n      jumpi\n      dup1\n      0x39509351\n      eq\n      tag_8\n      jumpi\n      dup1\n      0x40c10f19\n      eq\n      tag_9\n      jumpi\n      dup1\n      0x70a08231\n      eq\n      tag_10\n      jumpi\n      dup1\n      0x715018a6\n      eq\n      tag_11\n      jumpi\n      jump(tag_2)\n    tag_23:\n      dup1\n      0x06fdde03\n      eq\n      tag_3\n      jumpi\n      dup1\n      0x095ea7b3\n      eq\n      tag_4\n      jumpi\n      dup1\n      0x18160ddd\n      eq\n      tag_5\n      jumpi\n      dup1\n      0x23b872dd\n      eq\n      tag_6\n      jumpi\n    tag_2:\n      0x00\n      dup1\n      revert\n        /* \"contracts/libraries/ERC20.sol\":2180:2278  function name() public view virtual override returns (string memory) {... */\n    tag_3:\n      tag_24\n      tag_25\n      jump\t// in\n    tag_24:\n      mload(0x40)\n      tag_26\n      swap2\n      swap1\n      tag_27\n      jump\t// in\n    tag_26:\n      mload(0x40)\n      dup1\n      swap2\n      sub\n      swap1\n      return\n        /* \"contracts/libraries/ERC20.sol\":4308:4474  function approve(address spender, uint256 amount) public virtual override returns (bool) {... */\n    tag_4:\n      tag_28\n      0x04\n      dup1\n      calldatasize\n      sub\n      dup2\n      add\n      swap1\n      tag_29\n      swap2\n      swap1\n      tag_30\n      jump\t// in\n    tag_29:\n      tag_31\n      jump\t// in\n    tag_28:\n      mload(0x40)\n      tag_32\n      swap2\n      swap1\n      tag_33\n      jump\t// in\n    tag_32:\n      mload(0x40)\n      dup1\n      swap2\n      sub\n      swap1\n      return\n        /* \"contracts/libraries/ERC20.sol\":3299:3405  function totalSupply() public view virtual override returns (uint256) {... */\n    tag_5:\n      tag_34\n      tag_35\n      jump\t// in\n    tag_34:\n      mload(0x40)\n      tag_36\n      swap2\n      swap1\n      tag_37\n      jump\t// in\n    tag_36:\n      mload(0x40)\n      dup1\n      swap2\n      sub\n      swap1\n      return\n        /* \"contracts/libraries/ERC20.sol\":4941:5419  function transferFrom(... */\n    tag_6:\n      tag_38\n      0x04\n      dup1\n      calldatasize\n      sub\n      dup2\n      add\n      swap1\n      tag_39\n      swap2\n      swap1\n      tag_40\n      jump\t// in\n    tag_39:\n      tag_41\n      jump\t// in\n    tag_38:\n      mload(0x40)\n      tag_42\n      swap2\n      swap1\n      tag_33\n      jump\t// in\n    tag_42:\n      mload(0x40)\n      dup1\n      swap2\n      sub\n      swap1\n      return\n        /* \"contracts/libraries/ERC20.sol\":3117:3239  function decimals() public view virtual override(IERC20, IERC20Metadata) returns (uint8) {... */\n    tag_7:\n      tag_43\n      tag_44\n      jump\t// in\n    tag_43:\n      mload(0x40)\n      tag_45\n      swap2\n      swap1\n      tag_46\n      jump\t// in\n    tag_45:\n      mload(0x40)\n      dup1\n      swap2\n      sub\n      swap1\n      return\n        /* \"contracts/libraries/ERC20.sol\":5814:6026  function increaseAllowance(address spender, uint256 addedValue) public virtual returns (bool) {... */\n    tag_8:\n      tag_47\n      0x04\n      dup1\n      calldatasize\n      sub\n      dup2\n      add\n      swap1\n      tag_48\n      swap2\n      swap1\n      tag_30\n      jump\t// in\n    tag_48:\n      tag_49\n      jump\t// in\n    tag_47:\n      mload(0x40)\n      tag_50\n      swap2\n      swap1\n      tag_33\n      jump\t// in\n    tag_50:\n      mload(0x40)\n      dup1\n      swap2\n      sub\n      swap1\n      return\n        /* \"contracts/Generosity.sol\":487:610  function mint(address to, uint256 value) public virtual {... */\n    tag_9:\n      tag_51\n      0x04\n      dup1\n      calldatasize\n      sub\n      dup2\n      add\n      swap1\n      tag_52\n      swap2\n      swap1\n      tag_30\n      jump\t// in\n    tag_52:\n      tag_53\n      jump\t// in\n    tag_51:\n      stop\n        /* \"contracts/libraries/ERC20.sol\":3463:3588  function balanceOf(address account) public view virtual override returns (uint256) {... */\n    tag_10:\n      tag_54\n      0x04\n      dup1\n      calldatasize\n      sub\n      dup2\n      add\n      swap1\n      tag_55\n      swap2\n      swap1\n      tag_56\n      jump\t// in\n    tag_55:\n      tag_57\n      jump\t// in\n    tag_54:\n      mload(0x40)\n      tag_58\n      swap2\n      swap1\n      tag_37\n      jump\t// in\n    tag_58:\n      mload(0x40)\n      dup1\n      swap2\n      sub\n      swap1\n      return\n        /* \"contracts/libraries/Ownable.sol\":488:623  function renounceOwnership() public virtual onlyOwner {... */\n    tag_11:\n      tag_59\n      tag_60\n      jump\t// in\n    tag_59:\n      stop\n        /* \"contracts/libraries/Ownable.sol\":305:376  function owner() public view returns (address) {... */\n    tag_12:\n      tag_61\n      tag_62\n      jump\t// in\n    tag_61:\n      mload(0x40)\n      tag_63\n      swap2\n      swap1\n      tag_64\n      jump\t// in\n    tag_63:\n      mload(0x40)\n      dup1\n      swap2\n      sub\n      swap1\n      return\n        /* \"contracts/libraries/ERC20.sol\":2391:2493  function symbol() public view virtual override returns (string memory) {... */\n    tag_13:\n      tag_65\n      tag_66\n      jump\t// in\n    tag_65:\n      mload(0x40)\n      tag_67\n      swap2\n      swap1\n      tag_27\n      jump\t// in\n    tag_67:\n      mload(0x40)\n      dup1\n      swap2\n      sub\n      swap1\n      return\n        /* \"contracts/Generosity.sol\":614:701  function burn(address from, uint256 value) public virtual {... */\n    tag_14:\n      tag_68\n      0x04\n      dup1\n      calldatasize\n      sub\n      dup2\n      add\n      swap1\n      tag_69\n      swap2\n      swap1\n      tag_30\n      jump\t// in\n    tag_69:\n      tag_70\n      jump\t// in\n    tag_68:\n      stop\n        /* \"contracts/Generosity.sol\":334:483  function setDisributor(address _distributor) public onlyOwner {... */\n    tag_15:\n      tag_71\n      0x04\n      dup1\n      calldatasize\n      sub\n      dup2\n      add\n      swap1\n      tag_72\n      swap2\n      swap1\n      tag_56\n      jump\t// in\n    tag_72:\n      tag_73\n      jump\t// in\n    tag_71:\n      stop\n        /* \"contracts/libraries/ERC20.sol\":6513:6918  function decreaseAllowance(address spender, uint256 subtractedValue) public virtual returns (bool) {... */\n    tag_16:\n      tag_74\n      0x04\n      dup1\n      calldatasize\n      sub\n      dup2\n      add\n      swap1\n      tag_75\n      swap2\n      swap1\n      tag_30\n      jump\t// in\n    tag_75:\n      tag_76\n      jump\t// in\n    tag_74:\n      mload(0x40)\n      tag_77\n      swap2\n      swap1\n      tag_33\n      jump\t// in\n    tag_77:\n      mload(0x40)\n      dup1\n      swap2\n      sub\n      swap1\n      return\n        /* \"contracts/libraries/ERC20.sol\":3791:3963  function transfer(address recipient, uint256 amount) public virtual override returns (bool) {... */\n    tag_17:\n      tag_78\n      0x04\n      dup1\n      calldatasize\n      sub\n      dup2\n      add\n      swap1\n      tag_79\n      swap2\n      swap1\n      tag_30\n      jump\t// in\n    tag_79:\n      tag_80\n      jump\t// in\n    tag_78:\n      mload(0x40)\n      tag_81\n      swap2\n      swap1\n      tag_33\n      jump\t// in\n    tag_81:\n      mload(0x40)\n      dup1\n      swap2\n      sub\n      swap1\n      return\n        /* \"contracts/Generosity.sol\":209:235  address public distributor */\n    tag_18:\n      tag_82\n      tag_83\n      jump\t// in\n    tag_82:\n      mload(0x40)\n      tag_84\n      swap2\n      swap1\n      tag_64\n      jump\t// in\n    tag_84:\n      mload(0x40)\n      dup1\n      swap2\n      sub\n      swap1\n      return\n        /* \"contracts/libraries/ERC20.sol\":4021:4170  function allowance(address owner, address spender) public view virtual override returns (uint256) {... */\n    tag_19:\n      tag_85\n      0x04\n      dup1\n      calldatasize\n      sub\n      dup2\n      add\n      swap1\n      tag_86\n      swap2\n      swap1\n      tag_87\n      jump\t// in\n    tag_86:\n      tag_88\n      jump\t// in\n    tag_85:\n      mload(0x40)\n      tag_89\n      swap2\n      swap1\n      tag_37\n      jump\t// in\n    tag_89:\n      mload(0x40)\n      dup1\n      swap2\n      sub\n      swap1\n      return\n        /* \"contracts/libraries/Ownable.sol\":627:857  function transferOwnership(address newOwner_) public virtual onlyOwner {... */\n    tag_20:\n      tag_90\n      0x04\n      dup1\n      calldatasize\n      sub\n      dup2\n      add\n      swap1\n      tag_91\n      swap2\n      swap1\n      tag_56\n      jump\t// in\n    tag_91:\n      tag_92\n      jump\t// in\n    tag_90:\n      stop\n        /* \"contracts/libraries/ERC20.sol\":2180:2278  function name() public view virtual override returns (string memory) {... */\n    tag_25:\n        /* \"contracts/libraries/ERC20.sol\":2234:2247  string memory */\n      0x60\n        /* \"contracts/libraries/ERC20.sol\":2266:2271  _name */\n      0x03\n        /* \"contracts/libraries/ERC20.sol\":2259:2271  return _name */\n      dup1\n      sload\n      tag_94\n      swap1\n      tag_95\n      jump\t// in\n    tag_94:\n      dup1\n      0x1f\n      add\n      0x20\n      dup1\n      swap2\n      div\n      mul\n      0x20\n      add\n      mload(0x40)\n      swap1\n      dup2\n      add\n      0x40\n      mstore\n      dup1\n      swap3\n      swap2\n      swap1\n      dup2\n      dup2\n      mstore\n      0x20\n      add\n      dup3\n      dup1\n      sload\n      tag_96\n      swap1\n      tag_95\n      jump\t// in\n    tag_96:\n      dup1\n      iszero\n      tag_97\n      jumpi\n      dup1\n      0x1f\n      lt\n      tag_98\n      jumpi\n      0x0100\n      dup1\n      dup4\n      sload\n      div\n      mul\n      dup4\n      mstore\n      swap2\n      0x20\n      add\n      swap2\n      jump(tag_97)\n    tag_98:\n      dup3\n      add\n      swap2\n      swap1\n      0x00\n      mstore\n      keccak256(0x00, 0x20)\n      swap1\n    tag_99:\n      dup2\n      sload\n      dup2\n      mstore\n      swap1\n      0x01\n      add\n      swap1\n      0x20\n      add\n      dup1\n      dup4\n      gt\n      tag_99\n      jumpi\n      dup3\n      swap1\n      sub\n      0x1f\n      and\n      dup3\n      add\n      swap2\n    tag_97:\n      pop\n      pop\n      pop\n      pop\n      pop\n      swap1\n      pop\n        /* \"contracts/libraries/ERC20.sol\":2180:2278  function name() public view virtual override returns (string memory) {... */\n      swap1\n      jump\t// out\n        /* \"contracts/libraries/ERC20.sol\":4308:4474  function approve(address spender, uint256 amount) public virtual override returns (bool) {... */\n    tag_31:\n        /* \"contracts/libraries/ERC20.sol\":4391:4395  bool */\n      0x00\n        /* \"contracts/libraries/ERC20.sol\":4407:4446  _approve(_msgSender(), spender, amount) */\n      tag_101\n        /* \"contracts/libraries/ERC20.sol\":4416:4428  _msgSender() */\n      tag_102\n        /* \"contracts/libraries/ERC20.sol\":4416:4426  _msgSender */\n      tag_103\n        /* \"contracts/libraries/ERC20.sol\":4416:4428  _msgSender() */\n      jump\t// in\n    tag_102:\n        /* \"contracts/libraries/ERC20.sol\":4430:4437  spender */\n      dup5\n        /* \"contracts/libraries/ERC20.sol\":4439:4445  amount */\n      dup5\n        /* \"contracts/libraries/ERC20.sol\":4407:4415  _approve */\n      tag_104\n        /* \"contracts/libraries/ERC20.sol\":4407:4446  _approve(_msgSender(), spender, amount) */\n      jump\t// in\n    tag_101:\n        /* \"contracts/libraries/ERC20.sol\":4463:4467  true */\n      0x01\n        /* \"contracts/libraries/ERC20.sol\":4456:4467  return true */\n      swap1\n      pop\n        /* \"contracts/libraries/ERC20.sol\":4308:4474  function approve(address spender, uint256 amount) public virtual override returns (bool) {... */\n      swap3\n      swap2\n      pop\n      pop\n      jump\t// out\n        /* \"contracts/libraries/ERC20.sol\":3299:3405  function totalSupply() public view virtual override returns (uint256) {... */\n    tag_35:\n        /* \"contracts/libraries/ERC20.sol\":3360:3367  uint256 */\n      0x00\n        /* \"contracts/libraries/ERC20.sol\":3386:3398  _totalSupply */\n      sload(0x02)\n        /* \"contracts/libraries/ERC20.sol\":3379:3398  return _totalSupply */\n      swap1\n      pop\n        /* \"contracts/libraries/ERC20.sol\":3299:3405  function totalSupply() public view virtual override returns (uint256) {... */\n      swap1\n      jump\t// out\n        /* \"contracts/libraries/ERC20.sol\":4941:5419  function transferFrom(... */\n    tag_41:\n        /* \"contracts/libraries/ERC20.sol\":5077:5081  bool */\n      0x00\n        /* \"contracts/libraries/ERC20.sol\":5093:5129  _transfer(sender, recipient, amount) */\n      tag_107\n        /* \"contracts/libraries/ERC20.sol\":5103:5109  sender */\n      dup5\n        /* \"contracts/libraries/ERC20.sol\":5111:5120  recipient */\n      dup5\n        /* \"contracts/libraries/ERC20.sol\":5122:5128  amount */\n      dup5\n        /* \"contracts/libraries/ERC20.sol\":5093:5102  _transfer */\n      tag_108\n        /* \"contracts/libraries/ERC20.sol\":5093:5129  _transfer(sender, recipient, amount) */\n      jump\t// in\n    tag_107:\n        /* \"contracts/libraries/ERC20.sol\":5140:5164  uint256 currentAllowance */\n      0x00\n        /* \"contracts/libraries/ERC20.sol\":5167:5178  _allowances */\n      0x01\n        /* \"contracts/libraries/ERC20.sol\":5167:5186  _allowances[sender] */\n      0x00\n        /* \"contracts/libraries/ERC20.sol\":5179:5185  sender */\n      dup7\n        /* \"contracts/libraries/ERC20.sol\":5167:5186  _allowances[sender] */\n      0xffffffffffffffffffffffffffffffffffffffff\n      and\n      0xffffffffffffffffffffffffffffffffffffffff\n      and\n      dup2\n      mstore\n      0x20\n      add\n      swap1\n      dup2\n      mstore\n      0x20\n      add\n      0x00\n      keccak256\n        /* \"contracts/libraries/ERC20.sol\":5167:5200  _allowances[sender][_msgSender()] */\n      0x00\n        /* \"contracts/libraries/ERC20.sol\":5187:5199  _msgSender() */\n      tag_109\n        /* \"contracts/libraries/ERC20.sol\":5187:5197  _msgSender */\n      tag_103\n        /* \"contracts/libraries/ERC20.sol\":5187:5199  _msgSender() */\n      jump\t// in\n    tag_109:\n        /* \"contracts/libraries/ERC20.sol\":5167:5200  _allowances[sender][_msgSender()] */\n      0xffffffffffffffffffffffffffffffffffffffff\n      and\n      0xffffffffffffffffffffffffffffffffffffffff\n      and\n      dup2\n      mstore\n      0x20\n      add\n      swap1\n      dup2\n      mstore\n      0x20\n      add\n      0x00\n      keccak256\n      sload\n        /* \"contracts/libraries/ERC20.sol\":5140:5200  uint256 currentAllowance = _allowances[sender][_msgSender()] */\n      swap1\n      pop\n        /* \"contracts/libraries/ERC20.sol\":5238:5244  amount */\n      dup3\n        /* \"contracts/libraries/ERC20.sol\":5218:5234  currentAllowance */\n      dup2\n        /* \"contracts/libraries/ERC20.sol\":5218:5244  currentAllowance >= amount */\n      lt\n      iszero\n        /* \"contracts/libraries/ERC20.sol\":5210:5289  require(currentAllowance >= amount, \"ERC20: transfer amount exceeds allowance\") */\n      tag_110\n      jumpi\n      mload(0x40)\n      0x08c379a000000000000000000000000000000000000000000000000000000000\n      dup2\n      mstore\n      0x04\n      add\n      tag_111\n      swap1\n      tag_112\n      jump\t// in\n    tag_111:\n      mload(0x40)\n      dup1\n      swap2\n      sub\n      swap1\n      revert\n    tag_110:\n        /* \"contracts/libraries/ERC20.sol\":5323:5380  _approve(sender, _msgSender(), currentAllowance - amount) */\n      tag_113\n        /* \"contracts/libraries/ERC20.sol\":5332:5338  sender */\n      dup6\n        /* \"contracts/libraries/ERC20.sol\":5340:5352  _msgSender() */\n      tag_114\n        /* \"contracts/libraries/ERC20.sol\":5340:5350  _msgSender */\n      tag_103\n        /* \"contracts/libraries/ERC20.sol\":5340:5352  _msgSender() */\n      jump\t// in\n    tag_114:\n        /* \"contracts/libraries/ERC20.sol\":5373:5379  amount */\n      dup6\n        /* \"contracts/libraries/ERC20.sol\":5354:5370  currentAllowance */\n      dup5\n        /* \"contracts/libraries/ERC20.sol\":5354:5379  currentAllowance - amount */\n      sub\n        /* \"contracts/libraries/ERC20.sol\":5323:5331  _approve */\n      tag_104\n        /* \"contracts/libraries/ERC20.sol\":5323:5380  _approve(sender, _msgSender(), currentAllowance - amount) */\n      jump\t// in\n    tag_113:\n        /* \"contracts/libraries/ERC20.sol\":5408:5412  true */\n      0x01\n        /* \"contracts/libraries/ERC20.sol\":5401:5412  return true */\n      swap2\n      pop\n      pop\n        /* \"contracts/libraries/ERC20.sol\":4941:5419  function transferFrom(... */\n      swap4\n      swap3\n      pop\n      pop\n      pop\n      jump\t// out\n        /* \"contracts/libraries/ERC20.sol\":3117:3239  function decimals() public view virtual override(IERC20, IERC20Metadata) returns (uint8) {... */\n    tag_44:\n        /* \"contracts/libraries/ERC20.sol\":3199:3204  uint8 */\n      0x00\n        /* \"contracts/libraries/ERC20.sol\":3223:3232  _decimals */\n      0x05\n      0x00\n      swap1\n      sload\n      swap1\n      0x0100\n      exp\n      swap1\n      div\n      0xff\n      and\n        /* \"contracts/libraries/ERC20.sol\":3216:3232  return _decimals */\n      swap1\n      pop\n        /* \"contracts/libraries/ERC20.sol\":3117:3239  function decimals() public view virtual override(IERC20, IERC20Metadata) returns (uint8) {... */\n      swap1\n      jump\t// out\n        /* \"contracts/libraries/ERC20.sol\":5814:6026  function increaseAllowance(address spender, uint256 addedValue) public virtual returns (bool) {... */\n    tag_49:\n        /* \"contracts/libraries/ERC20.sol\":5902:5906  bool */\n      0x00\n        /* \"contracts/libraries/ERC20.sol\":5918:5998  _approve(_msgSender(), spender, _allowances[_msgSender()][spender] + addedValue) */\n      tag_117\n        /* \"contracts/libraries/ERC20.sol\":5927:5939  _msgSender() */\n      tag_118\n        /* \"contracts/libraries/ERC20.sol\":5927:5937  _msgSender */\n      tag_103\n        /* \"contracts/libraries/ERC20.sol\":5927:5939  _msgSender() */\n      jump\t// in\n    tag_118:\n        /* \"contracts/libraries/ERC20.sol\":5941:5948  spender */\n      dup5\n        /* \"contracts/libraries/ERC20.sol\":5987:5997  addedValue */\n      dup5\n        /* \"contracts/libraries/ERC20.sol\":5950:5961  _allowances */\n      0x01\n        /* \"contracts/libraries/ERC20.sol\":5950:5975  _allowances[_msgSender()] */\n      0x00\n        /* \"contracts/libraries/ERC20.sol\":5962:5974  _msgSender() */\n      tag_119\n        /* \"contracts/libraries/ERC20.sol\":5962:5972  _msgSender */\n      tag_103\n        /* \"contracts/libraries/ERC20.sol\":5962:5974  _msgSender() */\n      jump\t// in\n    tag_119:\n        /* \"contracts/libraries/ERC20.sol\":5950:5975  _allowances[_msgSender()] */\n      0xffffffffffffffffffffffffffffffffffffffff\n      and\n      0xffffffffffffffffffffffffffffffffffffffff\n      and\n      dup2\n      mstore\n      0x20\n      add\n      swap1\n      dup2\n      mstore\n      0x20\n      add\n      0x00\n      keccak256\n        /* \"contracts/libraries/ERC20.sol\":5950:5984  _allowances[_msgSender()][spender] */\n      0x00\n        /* \"contracts/libraries/ERC20.sol\":5976:5983  spender */\n      dup9\n        /* \"contracts/libraries/ERC20.sol\":5950:5984  _allowances[_msgSender()][spender] */\n      0xffffffffffffffffffffffffffffffffffffffff\n      and\n      0xffffffffffffffffffffffffffffffffffffffff\n      and\n      dup2\n      mstore\n      0x20\n      add\n      swap1\n      dup2\n      mstore\n      0x20\n      add\n      0x00\n      keccak256\n      sload\n        /* \"contracts/libraries/ERC20.sol\":5950:5997  _allowances[_msgSender()][spender] + addedValue */\n      tag_120\n      swap2\n      swap1\n      tag_121\n      jump\t// in\n    tag_120:\n        /* \"contracts/libraries/ERC20.sol\":5918:5926  _approve */\n      tag_104\n        /* \"contracts/libraries/ERC20.sol\":5918:5998  _approve(_msgSender(), spender, _allowances[_msgSender()][spender] + addedValue) */\n      jump\t// in\n    tag_117:\n        /* \"contracts/libraries/ERC20.sol\":6015:6019  true */\n      0x01\n        /* \"contracts/libraries/ERC20.sol\":6008:6019  return true */\n      swap1\n      pop\n        /* \"contracts/libraries/ERC20.sol\":5814:6026  function increaseAllowance(address spender, uint256 addedValue) public virtual returns (bool) {... */\n      swap3\n      swap2\n      pop\n      pop\n      jump\t// out\n        /* \"contracts/Generosity.sol\":487:610  function mint(address to, uint256 value) public virtual {... */\n    tag_53:\n        /* \"contracts/Generosity.sol\":571:582  distributor */\n      0x06\n      0x00\n      swap1\n      sload\n      swap1\n      0x0100\n      exp\n      swap1\n      div\n      0xffffffffffffffffffffffffffffffffffffffff\n      and\n        /* \"contracts/Generosity.sol\":557:582  msg.sender == distributor */\n      0xffffffffffffffffffffffffffffffffffffffff\n      and\n        /* \"contracts/Generosity.sol\":557:567  msg.sender */\n      caller\n        /* \"contracts/Generosity.sol\":557:582  msg.sender == distributor */\n      0xffffffffffffffffffffffffffffffffffffffff\n      and\n      eq\n        /* \"contracts/Generosity.sol\":549:583  require(msg.sender == distributor) */\n      tag_123\n      jumpi\n      0x00\n      dup1\n      revert\n    tag_123:\n        /* \"contracts/Generosity.sol\":589:605  _mint(to, value) */\n      tag_124\n        /* \"contracts/Generosity.sol\":595:597  to */\n      dup3\n        /* \"contracts/Generosity.sol\":599:604  value */\n      dup3\n        /* \"contracts/Generosity.sol\":589:594  _mint */\n      tag_125\n        /* \"contracts/Generosity.sol\":589:605  _mint(to, value) */\n      jump\t// in\n    tag_124:\n        /* \"contracts/Generosity.sol\":487:610  function mint(address to, uint256 value) public virtual {... */\n      pop\n      pop\n      jump\t// out\n        /* \"contracts/libraries/ERC20.sol\":3463:3588  function balanceOf(address account) public view virtual override returns (uint256) {... */\n    tag_57:\n        /* \"contracts/libraries/ERC20.sol\":3537:3544  uint256 */\n      0x00\n        /* \"contracts/libraries/ERC20.sol\":3563:3572  _balances */\n      dup1\n        /* \"contracts/libraries/ERC20.sol\":3563:3581  _balances[account] */\n      0x00\n        /* \"contracts/libraries/ERC20.sol\":3573:3580  account */\n      dup4\n        /* \"contracts/libraries/ERC20.sol\":3563:3581  _balances[account] */\n      0xffffffffffffffffffffffffffffffffffffffff\n      and\n      0xffffffffffffffffffffffffffffffffffffffff\n      and\n      dup2\n      mstore\n      0x20\n      add\n      swap1\n      dup2\n      mstore\n      0x20\n      add\n      0x00\n      keccak256\n      sload\n        /* \"contracts/libraries/ERC20.sol\":3556:3581  return _balances[account] */\n      swap1\n      pop\n        /* \"contracts/libraries/ERC20.sol\":3463:3588  function balanceOf(address account) public view virtual override returns (uint256) {... */\n      swap2\n      swap1\n      pop\n      jump\t// out\n        /* \"contracts/libraries/Ownable.sol\":488:623  function renounceOwnership() public virtual onlyOwner {... */\n    tag_60:\n        /* \"contracts/libraries/Ownable.sol\":425:435  msg.sender */\n      caller\n        /* \"contracts/libraries/Ownable.sol\":415:435  _owner == msg.sender */\n      0xffffffffffffffffffffffffffffffffffffffff\n      and\n        /* \"contracts/libraries/Ownable.sol\":415:421  _owner */\n      0x05\n      0x01\n      swap1\n      sload\n      swap1\n      0x0100\n      exp\n      swap1\n      div\n      0xffffffffffffffffffffffffffffffffffffffff\n      and\n        /* \"contracts/libraries/Ownable.sol\":415:435  _owner == msg.sender */\n      0xffffffffffffffffffffffffffffffffffffffff\n      and\n      eq\n        /* \"contracts/libraries/Ownable.sol\":407:472  require(_owner == msg.sender, \"Ownable: caller is not the owner\") */\n      tag_128\n      jumpi\n      mload(0x40)\n      0x08c379a000000000000000000000000000000000000000000000000000000000\n      dup2\n      mstore\n      0x04\n      add\n      tag_129\n      swap1\n      tag_130\n      jump\t// in\n    tag_129:\n      mload(0x40)\n      dup1\n      swap2\n      sub\n      swap1\n      revert\n    tag_128:\n        /* \"contracts/libraries/Ownable.sol\":590:591  0 */\n      0x00\n        /* \"contracts/libraries/Ownable.sol\":553:593  OwnershipTransferred(_owner, address(0)) */\n      0xffffffffffffffffffffffffffffffffffffffff\n      and\n        /* \"contracts/libraries/Ownable.sol\":574:580  _owner */\n      0x05\n      0x01\n      swap1\n      sload\n      swap1\n      0x0100\n      exp\n      swap1\n      div\n      0xffffffffffffffffffffffffffffffffffffffff\n      and\n        /* \"contracts/libraries/Ownable.sol\":553:593  OwnershipTransferred(_owner, address(0)) */\n      0xffffffffffffffffffffffffffffffffffffffff\n      and\n      0x8be0079c531659141344cd1fd0a4f28419497f9722a3daafe3b4186f6b6457e0\n      mload(0x40)\n      mload(0x40)\n      dup1\n      swap2\n      sub\n      swap1\n      log3\n        /* \"contracts/libraries/Ownable.sol\":616:617  0 */\n      0x00\n        /* \"contracts/libraries/Ownable.sol\":599:605  _owner */\n      0x05\n      0x01\n        /* \"contracts/libraries/Ownable.sol\":599:618  _owner = address(0) */\n      0x0100\n      exp\n      dup2\n      sload\n      dup2\n      0xffffffffffffffffffffffffffffffffffffffff\n      mul\n      not\n      and\n      swap1\n      dup4\n      0xffffffffffffffffffffffffffffffffffffffff\n      and\n      mul\n      or\n      swap1\n      sstore\n      pop\n        /* \"contracts/libraries/Ownable.sol\":488:623  function renounceOwnership() public virtual onlyOwner {... */\n      jump\t// out\n        /* \"contracts/libraries/Ownable.sol\":305:376  function owner() public view returns (address) {... */\n    tag_62:\n        /* \"contracts/libraries/Ownable.sol\":343:350  address */\n      0x00\n        /* \"contracts/libraries/Ownable.sol\":365:371  _owner */\n      0x05\n      0x01\n      swap1\n      sload\n      swap1\n      0x0100\n      exp\n      swap1\n      div\n      0xffffffffffffffffffffffffffffffffffffffff\n      and\n        /* \"contracts/libraries/Ownable.sol\":358:371  return _owner */\n      swap1\n      pop\n        /* \"contracts/libraries/Ownable.sol\":305:376  function owner() public view returns (address) {... */\n      swap1\n      jump\t// out\n        /* \"contracts/libraries/ERC20.sol\":2391:2493  function symbol() public view virtual override returns (string memory) {... */\n    tag_66:\n        /* \"contracts/libraries/ERC20.sol\":2447:2460  string memory */\n      0x60\n        /* \"contracts/libraries/ERC20.sol\":2479:2486  _symbol */\n      0x04\n        /* \"contracts/libraries/ERC20.sol\":2472:2486  return _symbol */\n      dup1\n      sload\n      tag_134\n      swap1\n      tag_95\n      jump\t// in\n    tag_134:\n      dup1\n      0x1f\n      add\n      0x20\n      dup1\n      swap2\n      div\n      mul\n      0x20\n      add\n      mload(0x40)\n      swap1\n      dup2\n      add\n      0x40\n      mstore\n      dup1\n      swap3\n      swap2\n      swap1\n      dup2\n      dup2\n      mstore\n      0x20\n      add\n      dup3\n      dup1\n      sload\n      tag_135\n      swap1\n      tag_95\n      jump\t// in\n    tag_135:\n      dup1\n      iszero\n      tag_136\n      jumpi\n      dup1\n      0x1f\n      lt\n      tag_137\n      jumpi\n      0x0100\n      dup1\n      dup4\n      sload\n      div\n      mul\n      dup4\n      mstore\n      swap2\n      0x20\n      add\n      swap2\n      jump(tag_136)\n    tag_137:\n      dup3\n      add\n      swap2\n      swap1\n      0x00\n      mstore\n      keccak256(0x00, 0x20)\n      swap1\n    tag_138:\n      dup2\n      sload\n      dup2\n      mstore\n      swap1\n      0x01\n      add\n      swap1\n      0x20\n      add\n      dup1\n      dup4\n      gt\n      tag_138\n      jumpi\n      dup3\n      swap1\n      sub\n      0x1f\n      and\n      dup3\n      add\n      swap2\n    tag_136:\n      pop\n      pop\n      pop\n      pop\n      pop\n      swap1\n      pop\n        /* \"contracts/libraries/ERC20.sol\":2391:2493  function symbol() public view virtual override returns (string memory) {... */\n      swap1\n      jump\t// out\n        /* \"contracts/Generosity.sol\":614:701  function burn(address from, uint256 value) public virtual {... */\n    tag_70:\n        /* \"contracts/Generosity.sol\":678:696  _burn(from, value) */\n      tag_140\n        /* \"contracts/Generosity.sol\":684:688  from */\n      dup3\n        /* \"contracts/Generosity.sol\":690:695  value */\n      dup3\n        /* \"contracts/Generosity.sol\":678:683  _burn */\n      tag_141\n        /* \"contracts/Generosity.sol\":678:696  _burn(from, value) */\n      jump\t// in\n    tag_140:\n        /* \"contracts/Generosity.sol\":614:701  function burn(address from, uint256 value) public virtual {... */\n      pop\n      pop\n      jump\t// out\n        /* \"contracts/Generosity.sol\":334:483  function setDisributor(address _distributor) public onlyOwner {... */\n    tag_73:\n        /* \"contracts/libraries/Ownable.sol\":425:435  msg.sender */\n      caller\n        /* \"contracts/libraries/Ownable.sol\":415:435  _owner == msg.sender */\n      0xffffffffffffffffffffffffffffffffffffffff\n      and\n        /* \"contracts/libraries/Ownable.sol\":415:421  _owner */\n      0x05\n      0x01\n      swap1\n      sload\n      swap1\n      0x0100\n      exp\n      swap1\n      div\n      0xffffffffffffffffffffffffffffffffffffffff\n      and\n        /* \"contracts/libraries/Ownable.sol\":415:435  _owner == msg.sender */\n      0xffffffffffffffffffffffffffffffffffffffff\n      and\n      eq\n        /* \"contracts/libraries/Ownable.sol\":407:472  require(_owner == msg.sender, \"Ownable: caller is not the owner\") */\n      tag_143\n      jumpi\n      mload(0x40)\n      0x08c379a000000000000000000000000000000000000000000000000000000000\n      dup2\n      mstore\n      0x04\n      add\n      tag_144\n      swap1\n      tag_130\n      jump\t// in\n    tag_144:\n      mload(0x40)\n      dup1\n      swap2\n      sub\n      swap1\n      revert\n    tag_143:\n        /* \"contracts/Generosity.sol\":411:425  distributorSet */\n      0x05\n      0x15\n      swap1\n      sload\n      swap1\n      0x0100\n      exp\n      swap1\n      div\n      0xff\n      and\n        /* \"contracts/Generosity.sol\":410:425  !distributorSet */\n      iszero\n        /* \"contracts/Generosity.sol\":402:446  require(!distributorSet, \"dist already set\") */\n      tag_146\n      jumpi\n      mload(0x40)\n      0x08c379a000000000000000000000000000000000000000000000000000000000\n      dup2\n      mstore\n      0x04\n      add\n      tag_147\n      swap1\n      tag_148\n      jump\t// in\n    tag_147:\n      mload(0x40)\n      dup1\n      swap2\n      sub\n      swap1\n      revert\n    tag_146:\n        /* \"contracts/Generosity.sol\":466:478  _distributor */\n      dup1\n        /* \"contracts/Generosity.sol\":452:463  distributor */\n      0x06\n      0x00\n        /* \"contracts/Generosity.sol\":452:478  distributor = _distributor */\n      0x0100\n      exp\n      dup2\n      sload\n      dup2\n      0xffffffffffffffffffffffffffffffffffffffff\n      mul\n      not\n      and\n      swap1\n      dup4\n      0xffffffffffffffffffffffffffffffffffffffff\n      and\n      mul\n      or\n      swap1\n      sstore\n      pop\n        /* \"contracts/Generosity.sol\":334:483  function setDisributor(address _distributor) public onlyOwner {... */\n      pop\n      jump\t// out\n        /* \"contracts/libraries/ERC20.sol\":6513:6918  function decreaseAllowance(address spender, uint256 subtractedValue) public virtual returns (bool) {... */\n    tag_76:\n        /* \"contracts/libraries/ERC20.sol\":6606:6610  bool */\n      0x00\n        /* \"contracts/libraries/ERC20.sol\":6622:6646  uint256 currentAllowance */\n      dup1\n        /* \"contracts/libraries/ERC20.sol\":6649:6660  _allowances */\n      0x01\n        /* \"contracts/libraries/ERC20.sol\":6649:6674  _allowances[_msgSender()] */\n      0x00\n        /* \"contracts/libraries/ERC20.sol\":6661:6673  _msgSender() */\n      tag_150\n        /* \"contracts/libraries/ERC20.sol\":6661:6671  _msgSender */\n      tag_103\n        /* \"contracts/libraries/ERC20.sol\":6661:6673  _msgSender() */\n      jump\t// in\n    tag_150:\n        /* \"contracts/libraries/ERC20.sol\":6649:6674  _allowances[_msgSender()] */\n      0xffffffffffffffffffffffffffffffffffffffff\n      and\n      0xffffffffffffffffffffffffffffffffffffffff\n      and\n      dup2\n      mstore\n      0x20\n      add\n      swap1\n      dup2\n      mstore\n      0x20\n      add\n      0x00\n      keccak256\n        /* \"contracts/libraries/ERC20.sol\":6649:6683  _allowances[_msgSender()][spender] */\n      0x00\n        /* \"contracts/libraries/ERC20.sol\":6675:6682  spender */\n      dup6\n        /* \"contracts/libraries/ERC20.sol\":6649:6683  _allowances[_msgSender()][spender] */\n      0xffffffffffffffffffffffffffffffffffffffff\n      and\n      0xffffffffffffffffffffffffffffffffffffffff\n      and\n      dup2\n      mstore\n      0x20\n      add\n      swap1\n      dup2\n      mstore\n      0x20\n      add\n      0x00\n      keccak256\n      sload\n        /* \"contracts/libraries/ERC20.sol\":6622:6683  uint256 currentAllowance = _allowances[_msgSender()][spender] */\n      swap1\n      pop\n        /* \"contracts/libraries/ERC20.sol\":6721:6736  subtractedValue */\n      dup3\n        /* \"contracts/libraries/ERC20.sol\":6701:6717  currentAllowance */\n      dup2\n        /* \"contracts/libraries/ERC20.sol\":6701:6736  currentAllowance >= subtractedValue */\n      lt\n      iszero\n        /* \"contracts/libraries/ERC20.sol\":6693:6778  require(currentAllowance >= subtractedValue, \"ERC20: decreased allowance below zero\") */\n      tag_151\n      jumpi\n      mload(0x40)\n      0x08c379a000000000000000000000000000000000000000000000000000000000\n      dup2\n      mstore\n      0x04\n      add\n      tag_152\n      swap1\n      tag_153\n      jump\t// in\n    tag_152:\n      mload(0x40)\n      dup1\n      swap2\n      sub\n      swap1\n      revert\n    tag_151:\n        /* \"contracts/libraries/ERC20.sol\":6812:6879  _approve(_msgSender(), spender, currentAllowance - subtractedValue) */\n      tag_154\n        /* \"contracts/libraries/ERC20.sol\":6821:6833  _msgSender() */\n      tag_155\n        /* \"contracts/libraries/ERC20.sol\":6821:6831  _msgSender */\n      tag_103\n        /* \"contracts/libraries/ERC20.sol\":6821:6833  _msgSender() */\n      jump\t// in\n    tag_155:\n        /* \"contracts/libraries/ERC20.sol\":6835:6842  spender */\n      dup6\n        /* \"contracts/libraries/ERC20.sol\":6863:6878  subtractedValue */\n      dup6\n        /* \"contracts/libraries/ERC20.sol\":6844:6860  currentAllowance */\n      dup5\n        /* \"contracts/libraries/ERC20.sol\":6844:6878  currentAllowance - subtractedValue */\n      sub\n        /* \"contracts/libraries/ERC20.sol\":6812:6820  _approve */\n      tag_104\n        /* \"contracts/libraries/ERC20.sol\":6812:6879  _approve(_msgSender(), spender, currentAllowance - subtractedValue) */\n      jump\t// in\n    tag_154:\n        /* \"contracts/libraries/ERC20.sol\":6907:6911  true */\n      0x01\n        /* \"contracts/libraries/ERC20.sol\":6900:6911  return true */\n      swap2\n      pop\n      pop\n        /* \"contracts/libraries/ERC20.sol\":6513:6918  function decreaseAllowance(address spender, uint256 subtractedValue) public virtual returns (bool) {... */\n      swap3\n      swap2\n      pop\n      pop\n      jump\t// out\n        /* \"contracts/libraries/ERC20.sol\":3791:3963  function transfer(address recipient, uint256 amount) public virtual override returns (bool) {... */\n    tag_80:\n        /* \"contracts/libraries/ERC20.sol\":3877:3881  bool */\n      0x00\n        /* \"contracts/libraries/ERC20.sol\":3893:3935  _transfer(_msgSender(), recipient, amount) */\n      tag_157\n        /* \"contracts/libraries/ERC20.sol\":3903:3915  _msgSender() */\n      tag_158\n        /* \"contracts/libraries/ERC20.sol\":3903:3913  _msgSender */\n      tag_103\n        /* \"contracts/libraries/ERC20.sol\":3903:3915  _msgSender() */\n      jump\t// in\n    tag_158:\n        /* \"contracts/libraries/ERC20.sol\":3917:3926  recipient */\n      dup5\n        /* \"contracts/libraries/ERC20.sol\":3928:3934  amount */\n      dup5\n        /* \"contracts/libraries/ERC20.sol\":3893:3902  _transfer */\n      tag_108\n        /* \"contracts/libraries/ERC20.sol\":3893:3935  _transfer(_msgSender(), recipient, amount) */\n      jump\t// in\n    tag_157:\n        /* \"contracts/libraries/ERC20.sol\":3952:3956  true */\n      0x01\n        /* \"contracts/libraries/ERC20.sol\":3945:3956  return true */\n      swap1\n      pop\n        /* \"contracts/libraries/ERC20.sol\":3791:3963  function transfer(address recipient, uint256 amount) public virtual override returns (bool) {... */\n      swap3\n      swap2\n      pop\n      pop\n      jump\t// out\n        /* \"contracts/Generosity.sol\":209:235  address public distributor */\n    tag_83:\n      0x06\n      0x00\n      swap1\n      sload\n      swap1\n      0x0100\n      exp\n      swap1\n      div\n      0xffffffffffffffffffffffffffffffffffffffff\n      and\n      dup2\n      jump\t// out\n        /* \"contracts/libraries/ERC20.sol\":4021:4170  function allowance(address owner, address spender) public view virtual override returns (uint256) {... */\n    tag_88:\n        /* \"contracts/libraries/ERC20.sol\":4110:4117  uint256 */\n      0x00\n        /* \"contracts/libraries/ERC20.sol\":4136:4147  _allowances */\n      0x01\n        /* \"contracts/libraries/ERC20.sol\":4136:4154  _allowances[owner] */\n      0x00\n        /* \"contracts/libraries/ERC20.sol\":4148:4153  owner */\n      dup5\n        /* \"contracts/libraries/ERC20.sol\":4136:4154  _allowances[owner] */\n      0xffffffffffffffffffffffffffffffffffffffff\n      and\n      0xffffffffffffffffffffffffffffffffffffffff\n      and\n      dup2\n      mstore\n      0x20\n      add\n      swap1\n      dup2\n      mstore\n      0x20\n      add\n      0x00\n      keccak256\n        /* \"contracts/libraries/ERC20.sol\":4136:4163  _allowances[owner][spender] */\n      0x00\n        /* \"contracts/libraries/ERC20.sol\":4155:4162  spender */\n      dup4\n        /* \"contracts/libraries/ERC20.sol\":4136:4163  _allowances[owner][spender] */\n      0xffffffffffffffffffffffffffffffffffffffff\n      and\n      0xffffffffffffffffffffffffffffffffffffffff\n      and\n      dup2\n      mstore\n      0x20\n      add\n      swap1\n      dup2\n      mstore\n      0x20\n      add\n      0x00\n      keccak256\n      sload\n        /* \"contracts/libraries/ERC20.sol\":4129:4163  return _allowances[owner][spender] */\n      swap1\n      pop\n        /* \"contracts/libraries/ERC20.sol\":4021:4170  function allowance(address owner, address spender) public view virtual override returns (uint256) {... */\n      swap3\n      swap2\n      pop\n      pop\n      jump\t// out\n        /* \"contracts/libraries/Ownable.sol\":627:857  function transferOwnership(address newOwner_) public virtual onlyOwner {... */\n    tag_92:\n        /* \"contracts/libraries/Ownable.sol\":425:435  msg.sender */\n      caller\n        /* \"contracts/libraries/Ownable.sol\":415:435  _owner == msg.sender */\n      0xffffffffffffffffffffffffffffffffffffffff\n      and\n        /* \"contracts/libraries/Ownable.sol\":415:421  _owner */\n      0x05\n      0x01\n      swap1\n      sload\n      swap1\n      0x0100\n      exp\n      swap1\n      div\n      0xffffffffffffffffffffffffffffffffffffffff\n      and\n        /* \"contracts/libraries/Ownable.sol\":415:435  _owner == msg.sender */\n      0xffffffffffffffffffffffffffffffffffffffff\n      and\n      eq\n        /* \"contracts/libraries/Ownable.sol\":407:472  require(_owner == msg.sender, \"Ownable: caller is not the owner\") */\n      tag_161\n      jumpi\n      mload(0x40)\n      0x08c379a000000000000000000000000000000000000000000000000000000000\n      dup2\n      mstore\n      0x04\n      add\n      tag_162\n      swap1\n      tag_130\n      jump\t// in\n    tag_162:\n      mload(0x40)\n      dup1\n      swap2\n      sub\n      swap1\n      revert\n    tag_161:\n        /* \"contracts/libraries/Ownable.sol\":733:734  0 */\n      0x00\n        /* \"contracts/libraries/Ownable.sol\":712:735  newOwner_ != address(0) */\n      0xffffffffffffffffffffffffffffffffffffffff\n      and\n        /* \"contracts/libraries/Ownable.sol\":712:721  newOwner_ */\n      dup2\n        /* \"contracts/libraries/Ownable.sol\":712:735  newOwner_ != address(0) */\n      0xffffffffffffffffffffffffffffffffffffffff\n      and\n      sub\n        /* \"contracts/libraries/Ownable.sol\":704:778  require(newOwner_ != address(0), \"Ownable: new owner is the zero address\") */\n      tag_164\n      jumpi\n      mload(0x40)\n      0x08c379a000000000000000000000000000000000000000000000000000000000\n      dup2\n      mstore\n      0x04\n      add\n      tag_165\n      swap1\n      tag_166\n      jump\t// in\n    tag_165:\n      mload(0x40)\n      dup1\n      swap2\n      sub\n      swap1\n      revert\n    tag_164:\n        /* \"contracts/libraries/Ownable.sol\":818:827  newOwner_ */\n      dup1\n        /* \"contracts/libraries/Ownable.sol\":789:828  OwnershipTransferred(_owner, newOwner_) */\n      0xffffffffffffffffffffffffffffffffffffffff\n      and\n        /* \"contracts/libraries/Ownable.sol\":810:816  _owner */\n      0x05\n      0x01\n      swap1\n      sload\n      swap1\n      0x0100\n      exp\n      swap1\n      div\n      0xffffffffffffffffffffffffffffffffffffffff\n      and\n        /* \"contracts/libraries/Ownable.sol\":789:828  OwnershipTransferred(_owner, newOwner_) */\n      0xffffffffffffffffffffffffffffffffffffffff\n      and\n      0x8be0079c531659141344cd1fd0a4f28419497f9722a3daafe3b4186f6b6457e0\n      mload(0x40)\n      mload(0x40)\n      dup1\n      swap2\n      sub\n      swap1\n      log3\n        /* \"contracts/libraries/Ownable.sol\":843:852  newOwner_ */\n      dup1\n        /* \"contracts/libraries/Ownable.sol\":834:840  _owner */\n      0x05\n      0x01\n        /* \"contracts/libraries/Ownable.sol\":834:852  _owner = newOwner_ */\n      0x0100\n      exp\n      dup2\n      sload\n      dup2\n      0xffffffffffffffffffffffffffffffffffffffff\n      mul\n      not\n      and\n      swap1\n      dup4\n      0xffffffffffffffffffffffffffffffffffffffff\n      and\n      mul\n      or\n      swap1\n      sstore\n      pop\n        /* \"contracts/libraries/Ownable.sol\":627:857  function transferOwnership(address newOwner_) public virtual onlyOwner {... */\n      pop\n      jump\t// out\n        /* \"contracts/libraries/Context.sol\":588:684  function _msgSender() internal view virtual returns (address) {... */\n    tag_103:\n        /* \"contracts/libraries/Context.sol\":641:648  address */\n      0x00\n        /* \"contracts/libraries/Context.sol\":667:677  msg.sender */\n      caller\n        /* \"contracts/libraries/Context.sol\":660:677  return msg.sender */\n      swap1\n      pop\n        /* \"contracts/libraries/Context.sol\":588:684  function _msgSender() internal view virtual returns (address) {... */\n      swap1\n      jump\t// out\n        /* \"contracts/libraries/ERC20.sol\":10089:10459  function _approve(... */\n    tag_104:\n        /* \"contracts/libraries/ERC20.sol\":10237:10238  0 */\n      0x00\n        /* \"contracts/libraries/ERC20.sol\":10220:10239  owner != address(0) */\n      0xffffffffffffffffffffffffffffffffffffffff\n      and\n        /* \"contracts/libraries/ERC20.sol\":10220:10225  owner */\n      dup4\n        /* \"contracts/libraries/ERC20.sol\":10220:10239  owner != address(0) */\n      0xffffffffffffffffffffffffffffffffffffffff\n      and\n      sub\n        /* \"contracts/libraries/ERC20.sol\":10212:10280  require(owner != address(0), \"ERC20: approve from the zero address\") */\n      tag_169\n      jumpi\n      mload(0x40)\n      0x08c379a000000000000000000000000000000000000000000000000000000000\n      dup2\n      mstore\n      0x04\n      add\n      tag_170\n      swap1\n      tag_171\n      jump\t// in\n    tag_170:\n      mload(0x40)\n      dup1\n      swap2\n      sub\n      swap1\n      revert\n    tag_169:\n        /* \"contracts/libraries/ERC20.sol\":10317:10318  0 */\n      0x00\n        /* \"contracts/libraries/ERC20.sol\":10298:10319  spender != address(0) */\n      0xffffffffffffffffffffffffffffffffffffffff\n      and\n        /* \"contracts/libraries/ERC20.sol\":10298:10305  spender */\n      dup3\n        /* \"contracts/libraries/ERC20.sol\":10298:10319  spender != address(0) */\n      0xffffffffffffffffffffffffffffffffffffffff\n      and\n      sub\n        /* \"contracts/libraries/ERC20.sol\":10290:10358  require(spender != address(0), \"ERC20: approve to the zero address\") */\n      tag_172\n      jumpi\n      mload(0x40)\n      0x08c379a000000000000000000000000000000000000000000000000000000000\n      dup2\n      mstore\n      0x04\n      add\n      tag_173\n      swap1\n      tag_174\n      jump\t// in\n    tag_173:\n      mload(0x40)\n      dup1\n      swap2\n      sub\n      swap1\n      revert\n    tag_172:\n        /* \"contracts/libraries/ERC20.sol\":10399:10405  amount */\n      dup1\n        /* \"contracts/libraries/ERC20.sol\":10369:10380  _allowances */\n      0x01\n        /* \"contracts/libraries/ERC20.sol\":10369:10387  _allowances[owner] */\n      0x00\n        /* \"contracts/libraries/ERC20.sol\":10381:10386  owner */\n      dup6\n        /* \"contracts/libraries/ERC20.sol\":10369:10387  _allowances[owner] */\n      0xffffffffffffffffffffffffffffffffffffffff\n      and\n      0xffffffffffffffffffffffffffffffffffffffff\n      and\n      dup2\n      mstore\n      0x20\n      add\n      swap1\n      dup2\n      mstore\n      0x20\n      add\n      0x00\n      keccak256\n        /* \"contracts/libraries/ERC20.sol\":10369:10396  _allowances[owner][spender] */\n      0x00\n        /* \"contracts/libraries/ERC20.sol\":10388:10395  spender */\n      dup5\n        /* \"contracts/libraries/ERC20.sol\":10369:10396  _allowances[owner][spender] */\n      0xffffffffffffffffffffffffffffffffffffffff\n      and\n      0xffffffffffffffffffffffffffffffffffffffff\n      and\n      dup2\n      mstore\n      0x20\n      add\n      swap1\n      dup2\n      mstore\n      0x20\n      add\n      0x00\n      keccak256\n        /* \"contracts/libraries/ERC20.sol\":10369:10405  _allowances[owner][spender] = amount */\n      dup2\n      swap1\n      sstore\n      pop\n        /* \"contracts/libraries/ERC20.sol\":10436:10443  spender */\n      dup2\n        /* \"contracts/libraries/ERC20.sol\":10420:10452  Approval(owner, spender, amount) */\n      0xffffffffffffffffffffffffffffffffffffffff\n      and\n        /* \"contracts/libraries/ERC20.sol\":10429:10434  owner */\n      dup4\n        /* \"contracts/libraries/ERC20.sol\":10420:10452  Approval(owner, spender, amount) */\n      0xffffffffffffffffffffffffffffffffffffffff\n      and\n      0x8c5be1e5ebec7d5bd14f71427d1e84f3dd0314c0f7b2291e5b200ac8c7c3b925\n        /* \"contracts/libraries/ERC20.sol\":10445:10451  amount */\n      dup4\n        /* \"contracts/libraries/ERC20.sol\":10420:10452  Approval(owner, spender, amount) */\n      mload(0x40)\n      tag_175\n      swap2\n      swap1\n      tag_37\n      jump\t// in\n    tag_175:\n      mload(0x40)\n      dup1\n      swap2\n      sub\n      swap1\n      log3\n        /* \"contracts/libraries/ERC20.sol\":10089:10459  function _approve(... */\n      pop\n      pop\n      pop\n      jump\t// out\n        /* \"contracts/libraries/ERC20.sol\":7392:8105  function _transfer(... */\n    tag_108:\n        /* \"contracts/libraries/ERC20.sol\":7545:7546  0 */\n      0x00\n        /* \"contracts/libraries/ERC20.sol\":7527:7547  sender != address(0) */\n      0xffffffffffffffffffffffffffffffffffffffff\n      and\n        /* \"contracts/libraries/ERC20.sol\":7527:7533  sender */\n      dup4\n        /* \"contracts/libraries/ERC20.sol\":7527:7547  sender != address(0) */\n      0xffffffffffffffffffffffffffffffffffffffff\n      and\n      sub\n        /* \"contracts/libraries/ERC20.sol\":7519:7589  require(sender != address(0), \"ERC20: transfer from the zero address\") */\n      tag_177\n      jumpi\n      mload(0x40)\n      0x08c379a000000000000000000000000000000000000000000000000000000000\n      dup2\n      mstore\n      0x04\n      add\n      tag_178\n      swap1\n      tag_179\n      jump\t// in\n    tag_178:\n      mload(0x40)\n      dup1\n      swap2\n      sub\n      swap1\n      revert\n    tag_177:\n        /* \"contracts/libraries/ERC20.sol\":7628:7629  0 */\n      0x00\n        /* \"contracts/libraries/ERC20.sol\":7607:7630  recipient != address(0) */\n      0xffffffffffffffffffffffffffffffffffffffff\n      and\n        /* \"contracts/libraries/ERC20.sol\":7607:7616  recipient */\n      dup3\n        /* \"contracts/libraries/ERC20.sol\":7607:7630  recipient != address(0) */\n      0xffffffffffffffffffffffffffffffffffffffff\n      and\n      sub\n        /* \"contracts/libraries/ERC20.sol\":7599:7670  require(recipient != address(0), \"ERC20: transfer to the zero address\") */\n      tag_180\n      jumpi\n      mload(0x40)\n      0x08c379a000000000000000000000000000000000000000000000000000000000\n      dup2\n      mstore\n      0x04\n      add\n      tag_181\n      swap1\n      tag_182\n      jump\t// in\n    tag_181:\n      mload(0x40)\n      dup1\n      swap2\n      sub\n      swap1\n      revert\n    tag_180:\n        /* \"contracts/libraries/ERC20.sol\":7681:7728  _beforeTokenTransfer(sender, recipient, amount) */\n      tag_183\n        /* \"contracts/libraries/ERC20.sol\":7702:7708  sender */\n      dup4\n        /* \"contracts/libraries/ERC20.sol\":7710:7719  recipient */\n      dup4\n        /* \"contracts/libraries/ERC20.sol\":7721:7727  amount */\n      dup4\n        /* \"contracts/libraries/ERC20.sol\":7681:7701  _beforeTokenTransfer */\n      tag_184\n        /* \"contracts/libraries/ERC20.sol\":7681:7728  _beforeTokenTransfer(sender, recipient, amount) */\n      jump\t// in\n    tag_183:\n        /* \"contracts/libraries/ERC20.sol\":7739:7760  uint256 senderBalance */\n      0x00\n        /* \"contracts/libraries/ERC20.sol\":7763:7772  _balances */\n      dup1\n        /* \"contracts/libraries/ERC20.sol\":7763:7780  _balances[sender] */\n      0x00\n        /* \"contracts/libraries/ERC20.sol\":7773:7779  sender */\n      dup6\n        /* \"contracts/libraries/ERC20.sol\":7763:7780  _balances[sender] */\n      0xffffffffffffffffffffffffffffffffffffffff\n      and\n      0xffffffffffffffffffffffffffffffffffffffff\n      and\n      dup2\n      mstore\n      0x20\n      add\n      swap1\n      dup2\n      mstore\n      0x20\n      add\n      0x00\n      keccak256\n      sload\n        /* \"contracts/libraries/ERC20.sol\":7739:7780  uint256 senderBalance = _balances[sender] */\n      swap1\n      pop\n        /* \"contracts/libraries/ERC20.sol\":7815:7821  amount */\n      dup2\n        /* \"contracts/libraries/ERC20.sol\":7798:7811  senderBalance */\n      dup2\n        /* \"contracts/libraries/ERC20.sol\":7798:7821  senderBalance >= amount */\n      lt\n      iszero\n        /* \"contracts/libraries/ERC20.sol\":7790:7864  require(senderBalance >= amount, \"ERC20: transfer amount exceeds balance\") */\n      tag_185\n      jumpi\n      mload(0x40)\n      0x08c379a000000000000000000000000000000000000000000000000000000000\n      dup2\n      mstore\n      0x04\n      add\n      tag_186\n      swap1\n      tag_187\n      jump\t// in\n    tag_186:\n      mload(0x40)\n      dup1\n      swap2\n      sub\n      swap1\n      revert\n    tag_185:\n        /* \"contracts/libraries/ERC20.sol\":7934:7940  amount */\n      dup2\n        /* \"contracts/libraries/ERC20.sol\":7918:7931  senderBalance */\n      dup2\n        /* \"contracts/libraries/ERC20.sol\":7918:7940  senderBalance - amount */\n      sub\n        /* \"contracts/libraries/ERC20.sol\":7898:7907  _balances */\n      0x00\n        /* \"contracts/libraries/ERC20.sol\":7898:7915  _balances[sender] */\n      dup1\n        /* \"contracts/libraries/ERC20.sol\":7908:7914  sender */\n      dup7\n        /* \"contracts/libraries/ERC20.sol\":7898:7915  _balances[sender] */\n      0xffffffffffffffffffffffffffffffffffffffff\n      and\n      0xffffffffffffffffffffffffffffffffffffffff\n      and\n      dup2\n      mstore\n      0x20\n      add\n      swap1\n      dup2\n      mstore\n      0x20\n      add\n      0x00\n      keccak256\n        /* \"contracts/libraries/ERC20.sol\":7898:7940  _balances[sender] = senderBalance - amount */\n      dup2\n      swap1\n      sstore\n      pop\n        /* \"contracts/libraries/ERC20.sol\":7984:7990  amount */\n      dup2\n        /* \"contracts/libraries/ERC20.sol\":7960:7969  _balances */\n      0x00\n        /* \"contracts/libraries/ERC20.sol\":7960:7980  _balances[recipient] */\n      dup1\n        /* \"contracts/libraries/ERC20.sol\":7970:7979  recipient */\n      dup6\n        /* \"contracts/libraries/ERC20.sol\":7960:7980  _balances[recipient] */\n      0xffffffffffffffffffffffffffffffffffffffff\n      and\n      0xffffffffffffffffffffffffffffffffffffffff\n      and\n      dup2\n      mstore\n      0x20\n      add\n      swap1\n      dup2\n      mstore\n      0x20\n      add\n      0x00\n      keccak256\n      0x00\n        /* \"contracts/libraries/ERC20.sol\":7960:7990  _balances[recipient] += amount */\n      dup3\n      dup3\n      sload\n      tag_188\n      swap2\n      swap1\n      tag_121\n      jump\t// in\n    tag_188:\n      swap3\n      pop\n      pop\n      dup2\n      swap1\n      sstore\n      pop\n        /* \"contracts/libraries/ERC20.sol\":8023:8032  recipient */\n      dup3\n        /* \"contracts/libraries/ERC20.sol\":8006:8041  Transfer(sender, recipient, amount) */\n      0xffffffffffffffffffffffffffffffffffffffff\n      and\n        /* \"contracts/libraries/ERC20.sol\":8015:8021  sender */\n      dup5\n        /* \"contracts/libraries/ERC20.sol\":8006:8041  Transfer(sender, recipient, amount) */\n      0xffffffffffffffffffffffffffffffffffffffff\n      and\n      0xddf252ad1be2c89b69c2b068fc378daa952ba7f163c4a11628f55a4df523b3ef\n        /* \"contracts/libraries/ERC20.sol\":8034:8040  amount */\n      dup5\n        /* \"contracts/libraries/ERC20.sol\":8006:8041  Transfer(sender, recipient, amount) */\n      mload(0x40)\n      tag_189\n      swap2\n      swap1\n      tag_37\n      jump\t// in\n    tag_189:\n      mload(0x40)\n      dup1\n      swap2\n      sub\n      swap1\n      log3\n        /* \"contracts/libraries/ERC20.sol\":8052:8098  _afterTokenTransfer(sender, recipient, amount) */\n      tag_190\n        /* \"contracts/libraries/ERC20.sol\":8072:8078  sender */\n      dup5\n        /* \"contracts/libraries/ERC20.sol\":8080:8089  recipient */\n      dup5\n        /* \"contracts/libraries/ERC20.sol\":8091:8097  amount */\n      dup5\n        /* \"contracts/libraries/ERC20.sol\":8052:8071  _afterTokenTransfer */\n      tag_191\n        /* \"contracts/libraries/ERC20.sol\":8052:8098  _afterTokenTransfer(sender, recipient, amount) */\n      jump\t// in\n    tag_190:\n        /* \"contracts/libraries/ERC20.sol\":7509:8105  {... */\n      pop\n        /* \"contracts/libraries/ERC20.sol\":7392:8105  function _transfer(... */\n      pop\n      pop\n      pop\n      jump\t// out\n        /* \"contracts/libraries/ERC20.sol\":8381:8770  function _mint(address account, uint256 amount) internal virtual {... */\n    tag_125:\n        /* \"contracts/libraries/ERC20.sol\":8483:8484  0 */\n      0x00\n        /* \"contracts/libraries/ERC20.sol\":8464:8485  account != address(0) */\n      0xffffffffffffffffffffffffffffffffffffffff\n      and\n        /* \"contracts/libraries/ERC20.sol\":8464:8471  account */\n      dup3\n        /* \"contracts/libraries/ERC20.sol\":8464:8485  account != address(0) */\n      0xffffffffffffffffffffffffffffffffffffffff\n      and\n      sub\n        /* \"contracts/libraries/ERC20.sol\":8456:8521  require(account != address(0), \"ERC20: mint to the zero address\") */\n      tag_193\n      jumpi\n      mload(0x40)\n      0x08c379a000000000000000000000000000000000000000000000000000000000\n      dup2\n      mstore\n      0x04\n      add\n      tag_194\n      swap1\n      tag_195\n      jump\t// in\n    tag_194:\n      mload(0x40)\n      dup1\n      swap2\n      sub\n      swap1\n      revert\n    tag_193:\n        /* \"contracts/libraries/ERC20.sol\":8532:8581  _beforeTokenTransfer(address(0), account, amount) */\n      tag_196\n        /* \"contracts/libraries/ERC20.sol\":8561:8562  0 */\n      0x00\n        /* \"contracts/libraries/ERC20.sol\":8565:8572  account */\n      dup4\n        /* \"contracts/libraries/ERC20.sol\":8574:8580  amount */\n      dup4\n        /* \"contracts/libraries/ERC20.sol\":8532:8552  _beforeTokenTransfer */\n      tag_184\n        /* \"contracts/libraries/ERC20.sol\":8532:8581  _beforeTokenTransfer(address(0), account, amount) */\n      jump\t// in\n    tag_196:\n        /* \"contracts/libraries/ERC20.sol\":8608:8614  amount */\n      dup1\n        /* \"contracts/libraries/ERC20.sol\":8592:8604  _totalSupply */\n      0x02\n      0x00\n        /* \"contracts/libraries/ERC20.sol\":8592:8614  _totalSupply += amount */\n      dup3\n      dup3\n      sload\n      tag_197\n      swap2\n      swap1\n      tag_121\n      jump\t// in\n    tag_197:\n      swap3\n      pop\n      pop\n      dup2\n      swap1\n      sstore\n      pop\n        /* \"contracts/libraries/ERC20.sol\":8646:8652  amount */\n      dup1\n        /* \"contracts/libraries/ERC20.sol\":8624:8633  _balances */\n      0x00\n        /* \"contracts/libraries/ERC20.sol\":8624:8642  _balances[account] */\n      dup1\n        /* \"contracts/libraries/ERC20.sol\":8634:8641  account */\n      dup5\n        /* \"contracts/libraries/ERC20.sol\":8624:8642  _balances[account] */\n      0xffffffffffffffffffffffffffffffffffffffff\n      and\n      0xffffffffffffffffffffffffffffffffffffffff\n      and\n      dup2\n      mstore\n      0x20\n      add\n      swap1\n      dup2\n      mstore\n      0x20\n      add\n      0x00\n      keccak256\n      0x00\n        /* \"contracts/libraries/ERC20.sol\":8624:8652  _balances[account] += amount */\n      dup3\n      dup3\n      sload\n      tag_198\n      swap2\n      swap1\n      tag_121\n      jump\t// in\n    tag_198:\n      swap3\n      pop\n      pop\n      dup2\n      swap1\n      sstore\n      pop\n        /* \"contracts/libraries/ERC20.sol\":8688:8695  account */\n      dup2\n        /* \"contracts/libraries/ERC20.sol\":8667:8704  Transfer(address(0), account, amount) */\n      0xffffffffffffffffffffffffffffffffffffffff\n      and\n        /* \"contracts/libraries/ERC20.sol\":8684:8685  0 */\n      0x00\n        /* \"contracts/libraries/ERC20.sol\":8667:8704  Transfer(address(0), account, amount) */\n      0xffffffffffffffffffffffffffffffffffffffff\n      and\n      0xddf252ad1be2c89b69c2b068fc378daa952ba7f163c4a11628f55a4df523b3ef\n        /* \"contracts/libraries/ERC20.sol\":8697:8703  amount */\n      dup4\n        /* \"contracts/libraries/ERC20.sol\":8667:8704  Transfer(address(0), account, amount) */\n      mload(0x40)\n      tag_199\n      swap2\n      swap1\n      tag_37\n      jump\t// in\n    tag_199:\n      mload(0x40)\n      dup1\n      swap2\n      sub\n      swap1\n      log3\n        /* \"contracts/libraries/ERC20.sol\":8715:8763  _afterTokenTransfer(address(0), account, amount) */\n      tag_200\n        /* \"contracts/libraries/ERC20.sol\":8743:8744  0 */\n      0x00\n        /* \"contracts/libraries/ERC20.sol\":8747:8754  account */\n      dup4\n        /* \"contracts/libraries/ERC20.sol\":8756:8762  amount */\n      dup4\n        /* \"contracts/libraries/ERC20.sol\":8715:8734  _afterTokenTransfer */\n      tag_191\n        /* \"contracts/libraries/ERC20.sol\":8715:8763  _afterTokenTransfer(address(0), account, amount) */\n      jump\t// in\n    tag_200:\n        /* \"contracts/libraries/ERC20.sol\":8381:8770  function _mint(address account, uint256 amount) internal virtual {... */\n      pop\n      pop\n      jump\t// out\n        /* \"contracts/libraries/ERC20.sol\":9090:9666  function _burn(address account, uint256 amount) internal virtual {... */\n    tag_141:\n        /* \"contracts/libraries/ERC20.sol\":9192:9193  0 */\n      0x00\n        /* \"contracts/libraries/ERC20.sol\":9173:9194  account != address(0) */\n      0xffffffffffffffffffffffffffffffffffffffff\n      and\n        /* \"contracts/libraries/ERC20.sol\":9173:9180  account */\n      dup3\n        /* \"contracts/libraries/ERC20.sol\":9173:9194  account != address(0) */\n      0xffffffffffffffffffffffffffffffffffffffff\n      and\n      sub\n        /* \"contracts/libraries/ERC20.sol\":9165:9232  require(account != address(0), \"ERC20: burn from the zero address\") */\n      tag_202\n      jumpi\n      mload(0x40)\n      0x08c379a000000000000000000000000000000000000000000000000000000000\n      dup2\n      mstore\n      0x04\n      add\n      tag_203\n      swap1\n      tag_204\n      jump\t// in\n    tag_203:\n      mload(0x40)\n      dup1\n      swap2\n      sub\n      swap1\n      revert\n    tag_202:\n        /* \"contracts/libraries/ERC20.sol\":9243:9292  _beforeTokenTransfer(account, address(0), amount) */\n      tag_205\n        /* \"contracts/libraries/ERC20.sol\":9264:9271  account */\n      dup3\n        /* \"contracts/libraries/ERC20.sol\":9281:9282  0 */\n      0x00\n        /* \"contracts/libraries/ERC20.sol\":9285:9291  amount */\n      dup4\n        /* \"contracts/libraries/ERC20.sol\":9243:9263  _beforeTokenTransfer */\n      tag_184\n        /* \"contracts/libraries/ERC20.sol\":9243:9292  _beforeTokenTransfer(account, address(0), amount) */\n      jump\t// in\n    tag_205:\n        /* \"contracts/libraries/ERC20.sol\":9303:9325  uint256 accountBalance */\n      0x00\n        /* \"contracts/libraries/ERC20.sol\":9328:9337  _balances */\n      dup1\n        /* \"contracts/libraries/ERC20.sol\":9328:9346  _balances[account] */\n      0x00\n        /* \"contracts/libraries/ERC20.sol\":9338:9345  account */\n      dup5\n        /* \"contracts/libraries/ERC20.sol\":9328:9346  _balances[account] */\n      0xffffffffffffffffffffffffffffffffffffffff\n      and\n      0xffffffffffffffffffffffffffffffffffffffff\n      and\n      dup2\n      mstore\n      0x20\n      add\n      swap1\n      dup2\n      mstore\n      0x20\n      add\n      0x00\n      keccak256\n      sload\n        /* \"contracts/libraries/ERC20.sol\":9303:9346  uint256 accountBalance = _balances[account] */\n      swap1\n      pop\n        /* \"contracts/libraries/ERC20.sol\":9382:9388  amount */\n      dup2\n        /* \"contracts/libraries/ERC20.sol\":9364:9378  accountBalance */\n      dup2\n        /* \"contracts/libraries/ERC20.sol\":9364:9388  accountBalance >= amount */\n      lt\n      iszero\n        /* \"contracts/libraries/ERC20.sol\":9356:9427  require(accountBalance >= amount, \"ERC20: burn amount exceeds balance\") */\n      tag_206\n      jumpi\n      mload(0x40)\n      0x08c379a000000000000000000000000000000000000000000000000000000000\n      dup2\n      mstore\n      0x04\n      add\n      tag_207\n      swap1\n      tag_208\n      jump\t// in\n    tag_207:\n      mload(0x40)\n      dup1\n      swap2\n      sub\n      swap1\n      revert\n    tag_206:\n        /* \"contracts/libraries/ERC20.sol\":9499:9505  amount */\n      dup2\n        /* \"contracts/libraries/ERC20.sol\":9482:9496  accountBalance */\n      dup2\n        /* \"contracts/libraries/ERC20.sol\":9482:9505  accountBalance - amount */\n      sub\n        /* \"contracts/libraries/ERC20.sol\":9461:9470  _balances */\n      0x00\n        /* \"contracts/libraries/ERC20.sol\":9461:9479  _balances[account] */\n      dup1\n        /* \"contracts/libraries/ERC20.sol\":9471:9478  account */\n      dup6\n        /* \"contracts/libraries/ERC20.sol\":9461:9479  _balances[account] */\n      0xffffffffffffffffffffffffffffffffffffffff\n      and\n      0xffffffffffffffffffffffffffffffffffffffff\n      and\n      dup2\n      mstore\n      0x20\n      add\n      swap1\n      dup2\n      mstore\n      0x20\n      add\n      0x00\n      keccak256\n        /* \"contracts/libraries/ERC20.sol\":9461:9505  _balances[account] = accountBalance - amount */\n      dup2\n      swap1\n      sstore\n      pop\n        /* \"contracts/libraries/ERC20.sol\":9541:9547  amount */\n      dup2\n        /* \"contracts/libraries/ERC20.sol\":9525:9537  _totalSupply */\n      0x02\n      0x00\n        /* \"contracts/libraries/ERC20.sol\":9525:9547  _totalSupply -= amount */\n      dup3\n      dup3\n      sload\n      tag_209\n      swap2\n      swap1\n      tag_210\n      jump\t// in\n    tag_209:\n      swap3\n      pop\n      pop\n      dup2\n      swap1\n      sstore\n      pop\n        /* \"contracts/libraries/ERC20.sol\":9589:9590  0 */\n      0x00\n        /* \"contracts/libraries/ERC20.sol\":9563:9600  Transfer(account, address(0), amount) */\n      0xffffffffffffffffffffffffffffffffffffffff\n      and\n        /* \"contracts/libraries/ERC20.sol\":9572:9579  account */\n      dup4\n        /* \"contracts/libraries/ERC20.sol\":9563:9600  Transfer(account, address(0), amount) */\n      0xffffffffffffffffffffffffffffffffffffffff\n      and\n      0xddf252ad1be2c89b69c2b068fc378daa952ba7f163c4a11628f55a4df523b3ef\n        /* \"contracts/libraries/ERC20.sol\":9593:9599  amount */\n      dup5\n        /* \"contracts/libraries/ERC20.sol\":9563:9600  Transfer(account, address(0), amount) */\n      mload(0x40)\n      tag_211\n      swap2\n      swap1\n      tag_37\n      jump\t// in\n    tag_211:\n      mload(0x40)\n      dup1\n      swap2\n      sub\n      swap1\n      log3\n        /* \"contracts/libraries/ERC20.sol\":9611:9659  _afterTokenTransfer(account, address(0), amount) */\n      tag_212\n        /* \"contracts/libraries/ERC20.sol\":9631:9638  account */\n      dup4\n        /* \"contracts/libraries/ERC20.sol\":9648:9649  0 */\n      0x00\n        /* \"contracts/libraries/ERC20.sol\":9652:9658  amount */\n      dup5\n        /* \"contracts/libraries/ERC20.sol\":9611:9630  _afterTokenTransfer */\n      tag_191\n        /* \"contracts/libraries/ERC20.sol\":9611:9659  _afterTokenTransfer(account, address(0), amount) */\n      jump\t// in\n    tag_212:\n        /* \"contracts/libraries/ERC20.sol\":9155:9666  {... */\n      pop\n        /* \"contracts/libraries/ERC20.sol\":9090:9666  function _burn(address account, uint256 amount) internal virtual {... */\n      pop\n      pop\n      jump\t// out\n        /* \"contracts/libraries/ERC20.sol\":11043:11164  function _beforeTokenTransfer(... */\n    tag_184:\n      pop\n      pop\n      pop\n      jump\t// out\n        /* \"contracts/libraries/ERC20.sol\":11752:11872  function _afterTokenTransfer(... */\n    tag_191:\n      pop\n      pop\n      pop\n      jump\t// out\n        /* \"#utility.yul\":7:106   */\n    tag_215:\n        /* \"#utility.yul\":59:65   */\n      0x00\n        /* \"#utility.yul\":93:98   */\n      dup2\n        /* \"#utility.yul\":87:99   */\n      mload\n        /* \"#utility.yul\":77:99   */\n      swap1\n      pop\n        /* \"#utility.yul\":7:106   */\n      swap2\n      swap1\n      pop\n      jump\t// out\n        /* \"#utility.yul\":112:281   */\n    tag_216:\n        /* \"#utility.yul\":196:207   */\n      0x00\n        /* \"#utility.yul\":230:236   */\n      dup3\n        /* \"#utility.yul\":225:228   */\n      dup3\n        /* \"#utility.yul\":218:237   */\n      mstore\n        /* \"#utility.yul\":270:274   */\n      0x20\n        /* \"#utility.yul\":265:268   */\n      dup3\n        /* \"#utility.yul\":261:275   */\n      add\n        /* \"#utility.yul\":246:275   */\n      swap1\n      pop\n        /* \"#utility.yul\":112:281   */\n      swap3\n      swap2\n      pop\n      pop\n      jump\t// out\n        /* \"#utility.yul\":287:594   */\n    tag_217:\n        /* \"#utility.yul\":355:356   */\n      0x00\n        /* \"#utility.yul\":365:478   */\n    tag_268:\n        /* \"#utility.yul\":379:385   */\n      dup4\n        /* \"#utility.yul\":376:377   */\n      dup2\n        /* \"#utility.yul\":373:386   */\n      lt\n        /* \"#utility.yul\":365:478   */\n      iszero\n      tag_270\n      jumpi\n        /* \"#utility.yul\":464:465   */\n      dup1\n        /* \"#utility.yul\":459:462   */\n      dup3\n        /* \"#utility.yul\":455:466   */\n      add\n        /* \"#utility.yul\":449:467   */\n      mload\n        /* \"#utility.yul\":445:446   */\n      dup2\n        /* \"#utility.yul\":440:443   */\n      dup5\n        /* \"#utility.yul\":436:447   */\n      add\n        /* \"#utility.yul\":429:468   */\n      mstore\n        /* \"#utility.yul\":401:403   */\n      0x20\n        /* \"#utility.yul\":398:399   */\n      dup2\n        /* \"#utility.yul\":394:404   */\n      add\n        /* \"#utility.yul\":389:404   */\n      swap1\n      pop\n        /* \"#utility.yul\":365:478   */\n      jump(tag_268)\n    tag_270:\n        /* \"#utility.yul\":496:502   */\n      dup4\n        /* \"#utility.yul\":493:494   */\n      dup2\n        /* \"#utility.yul\":490:503   */\n      gt\n        /* \"#utility.yul\":487:588   */\n      iszero\n      tag_271\n      jumpi\n        /* \"#utility.yul\":576:577   */\n      0x00\n        /* \"#utility.yul\":567:573   */\n      dup5\n        /* \"#utility.yul\":562:565   */\n      dup5\n        /* \"#utility.yul\":558:574   */\n      add\n        /* \"#utility.yul\":551:578   */\n      mstore\n        /* \"#utility.yul\":487:588   */\n    tag_271:\n        /* \"#utility.yul\":336:594   */\n      pop\n        /* \"#utility.yul\":287:594   */\n      pop\n      pop\n      pop\n      jump\t// out\n        /* \"#utility.yul\":600:702   */\n    tag_218:\n        /* \"#utility.yul\":641:647   */\n      0x00\n        /* \"#utility.yul\":692:694   */\n      0x1f\n        /* \"#utility.yul\":688:695   */\n      not\n        /* \"#utility.yul\":683:685   */\n      0x1f\n        /* \"#utility.yul\":676:681   */\n      dup4\n        /* \"#utility.yul\":672:686   */\n      add\n        /* \"#utility.yul\":668:696   */\n      and\n        /* \"#utility.yul\":658:696   */\n      swap1\n      pop\n        /* \"#utility.yul\":600:702   */\n      swap2\n      swap1\n      pop\n      jump\t// out\n        /* \"#utility.yul\":708:1072   */\n    tag_219:\n        /* \"#utility.yul\":796:799   */\n      0x00\n        /* \"#utility.yul\":824:863   */\n      tag_274\n        /* \"#utility.yul\":857:862   */\n      dup3\n        /* \"#utility.yul\":824:863   */\n      tag_215\n      jump\t// in\n    tag_274:\n        /* \"#utility.yul\":879:950   */\n      tag_275\n        /* \"#utility.yul\":943:949   */\n      dup2\n        /* \"#utility.yul\":938:941   */\n      dup6\n        /* \"#utility.yul\":879:950   */\n      tag_216\n      jump\t// in\n    tag_275:\n        /* \"#utility.yul\":872:950   */\n      swap4\n      pop\n        /* \"#utility.yul\":959:1011   */\n      tag_276\n        /* \"#utility.yul\":1004:1010   */\n      dup2\n        /* \"#utility.yul\":999:1002   */\n      dup6\n        /* \"#utility.yul\":992:996   */\n      0x20\n        /* \"#utility.yul\":985:990   */\n      dup7\n        /* \"#utility.yul\":981:997   */\n      add\n        /* \"#utility.yul\":959:1011   */\n      tag_217\n      jump\t// in\n    tag_276:\n        /* \"#utility.yul\":1036:1065   */\n      tag_277\n        /* \"#utility.yul\":1058:1064   */\n      dup2\n        /* \"#utility.yul\":1036:1065   */\n      tag_218\n      jump\t// in\n    tag_277:\n        /* \"#utility.yul\":1031:1034   */\n      dup5\n        /* \"#utility.yul\":1027:1066   */\n      add\n        /* \"#utility.yul\":1020:1066   */\n      swap2\n      pop\n        /* \"#utility.yul\":800:1072   */\n      pop\n        /* \"#utility.yul\":708:1072   */\n      swap3\n      swap2\n      pop\n      pop\n      jump\t// out\n        /* \"#utility.yul\":1078:1391   */\n    tag_27:\n        /* \"#utility.yul\":1191:1195   */\n      0x00\n        /* \"#utility.yul\":1229:1231   */\n      0x20\n        /* \"#utility.yul\":1218:1227   */\n      dup3\n        /* \"#utility.yul\":1214:1232   */\n      add\n        /* \"#utility.yul\":1206:1232   */\n      swap1\n      pop\n        /* \"#utility.yul\":1278:1287   */\n      dup2\n        /* \"#utility.yul\":1272:1276   */\n      dup2\n        /* \"#utility.yul\":1268:1288   */\n      sub\n        /* \"#utility.yul\":1264:1265   */\n      0x00\n        /* \"#utility.yul\":1253:1262   */\n      dup4\n        /* \"#utility.yul\":1249:1266   */\n      add\n        /* \"#utility.yul\":1242:1289   */\n      mstore\n        /* \"#utility.yul\":1306:1384   */\n      tag_279\n        /* \"#utility.yul\":1379:1383   */\n      dup2\n        /* \"#utility.yul\":1370:1376   */\n      dup5\n        /* \"#utility.yul\":1306:1384   */\n      tag_219\n      jump\t// in\n    tag_279:\n        /* \"#utility.yul\":1298:1384   */\n      swap1\n      pop\n        /* \"#utility.yul\":1078:1391   */\n      swap3\n      swap2\n      pop\n      pop\n      jump\t// out\n        /* \"#utility.yul\":1478:1595   */\n    tag_221:\n        /* \"#utility.yul\":1587:1588   */\n      0x00\n        /* \"#utility.yul\":1584:1585   */\n      dup1\n        /* \"#utility.yul\":1577:1589   */\n      revert\n        /* \"#utility.yul\":1724:1850   */\n    tag_223:\n        /* \"#utility.yul\":1761:1768   */\n      0x00\n        /* \"#utility.yul\":1801:1843   */\n      0xffffffffffffffffffffffffffffffffffffffff\n        /* \"#utility.yul\":1794:1799   */\n      dup3\n        /* \"#utility.yul\":1790:1844   */\n      and\n        /* \"#utility.yul\":1779:1844   */\n      swap1\n      pop\n        /* \"#utility.yul\":1724:1850   */\n      swap2\n      swap1\n      pop\n      jump\t// out\n        /* \"#utility.yul\":1856:1952   */\n    tag_224:\n        /* \"#utility.yul\":1893:1900   */\n      0x00\n        /* \"#utility.yul\":1922:1946   */\n      tag_285\n        /* \"#utility.yul\":1940:1945   */\n      dup3\n        /* \"#utility.yul\":1922:1946   */\n      tag_223\n      jump\t// in\n    tag_285:\n        /* \"#utility.yul\":1911:1946   */\n      swap1\n      pop\n        /* \"#utility.yul\":1856:1952   */\n      swap2\n      swap1\n      pop\n      jump\t// out\n        /* \"#utility.yul\":1958:2080   */\n    tag_225:\n        /* \"#utility.yul\":2031:2055   */\n      tag_287\n        /* \"#utility.yul\":2049:2054   */\n      dup2\n        /* \"#utility.yul\":2031:2055   */\n      tag_224\n      jump\t// in\n    tag_287:\n        /* \"#utility.yul\":2024:2029   */\n      dup2\n        /* \"#utility.yul\":2021:2056   */\n      eq\n        /* \"#utility.yul\":2011:2074   */\n      tag_288\n      jumpi\n        /* \"#utility.yul\":2070:2071   */\n      0x00\n        /* \"#utility.yul\":2067:2068   */\n      dup1\n        /* \"#utility.yul\":2060:2072   */\n      revert\n        /* \"#utility.yul\":2011:2074   */\n    tag_288:\n        /* \"#utility.yul\":1958:2080   */\n      pop\n      jump\t// out\n        /* \"#utility.yul\":2086:2225   */\n    tag_226:\n        /* \"#utility.yul\":2132:2137   */\n      0x00\n        /* \"#utility.yul\":2170:2176   */\n      dup2\n        /* \"#utility.yul\":2157:2177   */\n      calldataload\n        /* \"#utility.yul\":2148:2177   */\n      swap1\n      pop\n        /* \"#utility.yul\":2186:2219   */\n      tag_290\n        /* \"#utility.yul\":2213:2218   */\n      dup2\n        /* \"#utility.yul\":2186:2219   */\n      tag_225\n      jump\t// in\n    tag_290:\n        /* \"#utility.yul\":2086:2225   */\n      swap3\n      swap2\n      pop\n      pop\n      jump\t// out\n        /* \"#utility.yul\":2231:2308   */\n    tag_227:\n        /* \"#utility.yul\":2268:2275   */\n      0x00\n        /* \"#utility.yul\":2297:2302   */\n      dup2\n        /* \"#utility.yul\":2286:2302   */\n      swap1\n      pop\n        /* \"#utility.yul\":2231:2308   */\n      swap2\n      swap1\n      pop\n      jump\t// out\n        /* \"#utility.yul\":2314:2436   */\n    tag_228:\n        /* \"#utility.yul\":2387:2411   */\n      tag_293\n        /* \"#utility.yul\":2405:2410   */\n      dup2\n        /* \"#utility.yul\":2387:2411   */\n      tag_227\n      jump\t// in\n    tag_293:\n        /* \"#utility.yul\":2380:2385   */\n      dup2\n        /* \"#utility.yul\":2377:2412   */\n      eq\n        /* \"#utility.yul\":2367:2430   */\n      tag_294\n      jumpi\n        /* \"#utility.yul\":2426:2427   */\n      0x00\n        /* \"#utility.yul\":2423:2424   */\n      dup1\n        /* \"#utility.yul\":2416:2428   */\n      revert\n        /* \"#utility.yul\":2367:2430   */\n    tag_294:\n        /* \"#utility.yul\":2314:2436   */\n      pop\n      jump\t// out\n        /* \"#utility.yul\":2442:2581   */\n    tag_229:\n        /* \"#utility.yul\":2488:2493   */\n      0x00\n        /* \"#utility.yul\":2526:2532   */\n      dup2\n        /* \"#utility.yul\":2513:2533   */\n      calldataload\n        /* \"#utility.yul\":2504:2533   */\n      swap1\n      pop\n        /* \"#utility.yul\":2542:2575   */\n      tag_296\n        /* \"#utility.yul\":2569:2574   */\n      dup2\n        /* \"#utility.yul\":2542:2575   */\n      tag_228\n      jump\t// in\n    tag_296:\n        /* \"#utility.yul\":2442:2581   */\n      swap3\n      swap2\n      pop\n      pop\n      jump\t// out\n        /* \"#utility.yul\":2587:3061   */\n    tag_30:\n        /* \"#utility.yul\":2655:2661   */\n      0x00\n        /* \"#utility.yul\":2663:2669   */\n      dup1\n        /* \"#utility.yul\":2712:2714   */\n      0x40\n        /* \"#utility.yul\":2700:2709   */\n      dup4\n        /* \"#utility.yul\":2691:2698   */\n      dup6\n        /* \"#utility.yul\":2687:2710   */\n      sub\n        /* \"#utility.yul\":2683:2715   */\n      slt\n        /* \"#utility.yul\":2680:2799   */\n      iszero\n      tag_298\n      jumpi\n        /* \"#utility.yul\":2718:2797   */\n      tag_299\n      tag_221\n      jump\t// in\n    tag_299:\n        /* \"#utility.yul\":2680:2799   */\n    tag_298:\n        /* \"#utility.yul\":2838:2839   */\n      0x00\n        /* \"#utility.yul\":2863:2916   */\n      tag_300\n        /* \"#utility.yul\":2908:2915   */\n      dup6\n        /* \"#utility.yul\":2899:2905   */\n      dup3\n        /* \"#utility.yul\":2888:2897   */\n      dup7\n        /* \"#utility.yul\":2884:2906   */\n      add\n        /* \"#utility.yul\":2863:2916   */\n      tag_226\n      jump\t// in\n    tag_300:\n        /* \"#utility.yul\":2853:2916   */\n      swap3\n      pop\n        /* \"#utility.yul\":2809:2926   */\n      pop\n        /* \"#utility.yul\":2965:2967   */\n      0x20\n        /* \"#utility.yul\":2991:3044   */\n      tag_301\n        /* \"#utility.yul\":3036:3043   */\n      dup6\n        /* \"#utility.yul\":3027:3033   */\n      dup3\n        /* \"#utility.yul\":3016:3025   */\n      dup7\n        /* \"#utility.yul\":3012:3034   */\n      add\n        /* \"#utility.yul\":2991:3044   */\n      tag_229\n      jump\t// in\n    tag_301:\n        /* \"#utility.yul\":2981:3044   */\n      swap2\n      pop\n        /* \"#utility.yul\":2936:3054   */\n      pop\n        /* \"#utility.yul\":2587:3061   */\n      swap3\n      pop\n      swap3\n      swap1\n      pop\n      jump\t// out\n        /* \"#utility.yul\":3067:3157   */\n    tag_230:\n        /* \"#utility.yul\":3101:3108   */\n      0x00\n        /* \"#utility.yul\":3144:3149   */\n      dup2\n        /* \"#utility.yul\":3137:3150   */\n      iszero\n        /* \"#utility.yul\":3130:3151   */\n      iszero\n        /* \"#utility.yul\":3119:3151   */\n      swap1\n      pop\n        /* \"#utility.yul\":3067:3157   */\n      swap2\n      swap1\n      pop\n      jump\t// out\n        /* \"#utility.yul\":3163:3272   */\n    tag_231:\n        /* \"#utility.yul\":3244:3265   */\n      tag_304\n        /* \"#utility.yul\":3259:3264   */\n      dup2\n        /* \"#utility.yul\":3244:3265   */\n      tag_230\n      jump\t// in\n    tag_304:\n        /* \"#utility.yul\":3239:3242   */\n      dup3\n        /* \"#utility.yul\":3232:3266   */\n      mstore\n        /* \"#utility.yul\":3163:3272   */\n      pop\n      pop\n      jump\t// out\n        /* \"#utility.yul\":3278:3488   */\n    tag_33:\n        /* \"#utility.yul\":3365:3369   */\n      0x00\n        /* \"#utility.yul\":3403:3405   */\n      0x20\n        /* \"#utility.yul\":3392:3401   */\n      dup3\n        /* \"#utility.yul\":3388:3406   */\n      add\n        /* \"#utility.yul\":3380:3406   */\n      swap1\n      pop\n        /* \"#utility.yul\":3416:3481   */\n      tag_306\n        /* \"#utility.yul\":3478:3479   */\n      0x00\n        /* \"#utility.yul\":3467:3476   */\n      dup4\n        /* \"#utility.yul\":3463:3480   */\n      add\n        /* \"#utility.yul\":3454:3460   */\n      dup5\n        /* \"#utility.yul\":3416:3481   */\n      tag_231\n      jump\t// in\n    tag_306:\n        /* \"#utility.yul\":3278:3488   */\n      swap3\n      swap2\n      pop\n      pop\n      jump\t// out\n        /* \"#utility.yul\":3494:3612   */\n    tag_232:\n        /* \"#utility.yul\":3581:3605   */\n      tag_308\n        /* \"#utility.yul\":3599:3604   */\n      dup2\n        /* \"#utility.yul\":3581:3605   */\n      tag_227\n      jump\t// in\n    tag_308:\n        /* \"#utility.yul\":3576:3579   */\n      dup3\n        /* \"#utility.yul\":3569:3606   */\n      mstore\n        /* \"#utility.yul\":3494:3612   */\n      pop\n      pop\n      jump\t// out\n        /* \"#utility.yul\":3618:3840   */\n    tag_37:\n        /* \"#utility.yul\":3711:3715   */\n      0x00\n        /* \"#utility.yul\":3749:3751   */\n      0x20\n        /* \"#utility.yul\":3738:3747   */\n      dup3\n        /* \"#utility.yul\":3734:3752   */\n      add\n        /* \"#utility.yul\":3726:3752   */\n      swap1\n      pop\n        /* \"#utility.yul\":3762:3833   */\n      tag_310\n        /* \"#utility.yul\":3830:3831   */\n      0x00\n        /* \"#utility.yul\":3819:3828   */\n      dup4\n        /* \"#utility.yul\":3815:3832   */\n      add\n        /* \"#utility.yul\":3806:3812   */\n      dup5\n        /* \"#utility.yul\":3762:3833   */\n      tag_232\n      jump\t// in\n    tag_310:\n        /* \"#utility.yul\":3618:3840   */\n      swap3\n      swap2\n      pop\n      pop\n      jump\t// out\n        /* \"#utility.yul\":3846:4465   */\n    tag_40:\n        /* \"#utility.yul\":3923:3929   */\n      0x00\n        /* \"#utility.yul\":3931:3937   */\n      dup1\n        /* \"#utility.yul\":3939:3945   */\n      0x00\n        /* \"#utility.yul\":3988:3990   */\n      0x60\n        /* \"#utility.yul\":3976:3985   */\n      dup5\n        /* \"#utility.yul\":3967:3974   */\n      dup7\n        /* \"#utility.yul\":3963:3986   */\n      sub\n        /* \"#utility.yul\":3959:3991   */\n      slt\n        /* \"#utility.yul\":3956:4075   */\n      iszero\n      tag_312\n      jumpi\n        /* \"#utility.yul\":3994:4073   */\n      tag_313\n      tag_221\n      jump\t// in\n    tag_313:\n        /* \"#utility.yul\":3956:4075   */\n    tag_312:\n        /* \"#utility.yul\":4114:4115   */\n      0x00\n        /* \"#utility.yul\":4139:4192   */\n      tag_314\n        /* \"#utility.yul\":4184:4191   */\n      dup7\n        /* \"#utility.yul\":4175:4181   */\n      dup3\n        /* \"#utility.yul\":4164:4173   */\n      dup8\n        /* \"#utility.yul\":4160:4182   */\n      add\n        /* \"#utility.yul\":4139:4192   */\n      tag_226\n      jump\t// in\n    tag_314:\n        /* \"#utility.yul\":4129:4192   */\n      swap4\n      pop\n        /* \"#utility.yul\":4085:4202   */\n      pop\n        /* \"#utility.yul\":4241:4243   */\n      0x20\n        /* \"#utility.yul\":4267:4320   */\n      tag_315\n        /* \"#utility.yul\":4312:4319   */\n      dup7\n        /* \"#utility.yul\":4303:4309   */\n      dup3\n        /* \"#utility.yul\":4292:4301   */\n      dup8\n        /* \"#utility.yul\":4288:4310   */\n      add\n        /* \"#utility.yul\":4267:4320   */\n      tag_226\n      jump\t// in\n    tag_315:\n        /* \"#utility.yul\":4257:4320   */\n      swap3\n      pop\n        /* \"#utility.yul\":4212:4330   */\n      pop\n        /* \"#utility.yul\":4369:4371   */\n      0x40\n        /* \"#utility.yul\":4395:4448   */\n      tag_316\n        /* \"#utility.yul\":4440:4447   */\n      dup7\n        /* \"#utility.yul\":4431:4437   */\n      dup3\n        /* \"#utility.yul\":4420:4429   */\n      dup8\n        /* \"#utility.yul\":4416:4438   */\n      add\n        /* \"#utility.yul\":4395:4448   */\n      tag_229\n      jump\t// in\n    tag_316:\n        /* \"#utility.yul\":4385:4448   */\n      swap2\n      pop\n        /* \"#utility.yul\":4340:4458   */\n      pop\n        /* \"#utility.yul\":3846:4465   */\n      swap3\n      pop\n      swap3\n      pop\n      swap3\n      jump\t// out\n        /* \"#utility.yul\":4471:4557   */\n    tag_233:\n        /* \"#utility.yul\":4506:4513   */\n      0x00\n        /* \"#utility.yul\":4546:4550   */\n      0xff\n        /* \"#utility.yul\":4539:4544   */\n      dup3\n        /* \"#utility.yul\":4535:4551   */\n      and\n        /* \"#utility.yul\":4524:4551   */\n      swap1\n      pop\n        /* \"#utility.yul\":4471:4557   */\n      swap2\n      swap1\n      pop\n      jump\t// out\n        /* \"#utility.yul\":4563:4675   */\n    tag_234:\n        /* \"#utility.yul\":4646:4668   */\n      tag_319\n        /* \"#utility.yul\":4662:4667   */\n      dup2\n        /* \"#utility.yul\":4646:4668   */\n      tag_233\n      jump\t// in\n    tag_319:\n        /* \"#utility.yul\":4641:4644   */\n      dup3\n        /* \"#utility.yul\":4634:4669   */\n      mstore\n        /* \"#utility.yul\":4563:4675   */\n      pop\n      pop\n      jump\t// out\n        /* \"#utility.yul\":4681:4895   */\n    tag_46:\n        /* \"#utility.yul\":4770:4774   */\n      0x00\n        /* \"#utility.yul\":4808:4810   */\n      0x20\n        /* \"#utility.yul\":4797:4806   */\n      dup3\n        /* \"#utility.yul\":4793:4811   */\n      add\n        /* \"#utility.yul\":4785:4811   */\n      swap1\n      pop\n        /* \"#utility.yul\":4821:4888   */\n      tag_321\n        /* \"#utility.yul\":4885:4886   */\n      0x00\n        /* \"#utility.yul\":4874:4883   */\n      dup4\n        /* \"#utility.yul\":4870:4887   */\n      add\n        /* \"#utility.yul\":4861:4867   */\n      dup5\n        /* \"#utility.yul\":4821:4888   */\n      tag_234\n      jump\t// in\n    tag_321:\n        /* \"#utility.yul\":4681:4895   */\n      swap3\n      swap2\n      pop\n      pop\n      jump\t// out\n        /* \"#utility.yul\":4901:5230   */\n    tag_56:\n        /* \"#utility.yul\":4960:4966   */\n      0x00\n        /* \"#utility.yul\":5009:5011   */\n      0x20\n        /* \"#utility.yul\":4997:5006   */\n      dup3\n        /* \"#utility.yul\":4988:4995   */\n      dup5\n        /* \"#utility.yul\":4984:5007   */\n      sub\n        /* \"#utility.yul\":4980:5012   */\n      slt\n        /* \"#utility.yul\":4977:5096   */\n      iszero\n      tag_323\n      jumpi\n        /* \"#utility.yul\":5015:5094   */\n      tag_324\n      tag_221\n      jump\t// in\n    tag_324:\n        /* \"#utility.yul\":4977:5096   */\n    tag_323:\n        /* \"#utility.yul\":5135:5136   */\n      0x00\n        /* \"#utility.yul\":5160:5213   */\n      tag_325\n        /* \"#utility.yul\":5205:5212   */\n      dup5\n        /* \"#utility.yul\":5196:5202   */\n      dup3\n        /* \"#utility.yul\":5185:5194   */\n      dup6\n        /* \"#utility.yul\":5181:5203   */\n      add\n        /* \"#utility.yul\":5160:5213   */\n      tag_226\n      jump\t// in\n    tag_325:\n        /* \"#utility.yul\":5150:5213   */\n      swap2\n      pop\n        /* \"#utility.yul\":5106:5223   */\n      pop\n        /* \"#utility.yul\":4901:5230   */\n      swap3\n      swap2\n      pop\n      pop\n      jump\t// out\n        /* \"#utility.yul\":5236:5354   */\n    tag_235:\n        /* \"#utility.yul\":5323:5347   */\n      tag_327\n        /* \"#utility.yul\":5341:5346   */\n      dup2\n        /* \"#utility.yul\":5323:5347   */\n      tag_224\n      jump\t// in\n    tag_327:\n        /* \"#utility.yul\":5318:5321   */\n      dup3\n        /* \"#utility.yul\":5311:5348   */\n      mstore\n        /* \"#utility.yul\":5236:5354   */\n      pop\n      pop\n      jump\t// out\n        /* \"#utility.yul\":5360:5582   */\n    tag_64:\n        /* \"#utility.yul\":5453:5457   */\n      0x00\n        /* \"#utility.yul\":5491:5493   */\n      0x20\n        /* \"#utility.yul\":5480:5489   */\n      dup3\n        /* \"#utility.yul\":5476:5494   */\n      add\n        /* \"#utility.yul\":5468:5494   */\n      swap1\n      pop\n        /* \"#utility.yul\":5504:5575   */\n      tag_329\n        /* \"#utility.yul\":5572:5573   */\n      0x00\n        /* \"#utility.yul\":5561:5570   */\n      dup4\n        /* \"#utility.yul\":5557:5574   */\n      add\n        /* \"#utility.yul\":5548:5554   */\n      dup5\n        /* \"#utility.yul\":5504:5575   */\n      tag_235\n      jump\t// in\n    tag_329:\n        /* \"#utility.yul\":5360:5582   */\n      swap3\n      swap2\n      pop\n      pop\n      jump\t// out\n        /* \"#utility.yul\":5588:6062   */\n    tag_87:\n        /* \"#utility.yul\":5656:5662   */\n      0x00\n        /* \"#utility.yul\":5664:5670   */\n      dup1\n        /* \"#utility.yul\":5713:5715   */\n      0x40\n        /* \"#utility.yul\":5701:5710   */\n      dup4\n        /* \"#utility.yul\":5692:5699   */\n      dup6\n        /* \"#utility.yul\":5688:5711   */\n      sub\n        /* \"#utility.yul\":5684:5716   */\n      slt\n        /* \"#utility.yul\":5681:5800   */\n      iszero\n      tag_331\n      jumpi\n        /* \"#utility.yul\":5719:5798   */\n      tag_332\n      tag_221\n      jump\t// in\n    tag_332:\n        /* \"#utility.yul\":5681:5800   */\n    tag_331:\n        /* \"#utility.yul\":5839:5840   */\n      0x00\n        /* \"#utility.yul\":5864:5917   */\n      tag_333\n        /* \"#utility.yul\":5909:5916   */\n      dup6\n        /* \"#utility.yul\":5900:5906   */\n      dup3\n        /* \"#utility.yul\":5889:5898   */\n      dup7\n        /* \"#utility.yul\":5885:5907   */\n      add\n        /* \"#utility.yul\":5864:5917   */\n      tag_226\n      jump\t// in\n    tag_333:\n        /* \"#utility.yul\":5854:5917   */\n      swap3\n      pop\n        /* \"#utility.yul\":5810:5927   */\n      pop\n        /* \"#utility.yul\":5966:5968   */\n      0x20\n        /* \"#utility.yul\":5992:6045   */\n      tag_334\n        /* \"#utility.yul\":6037:6044   */\n      dup6\n        /* \"#utility.yul\":6028:6034   */\n      dup3\n        /* \"#utility.yul\":6017:6026   */\n      dup7\n        /* \"#utility.yul\":6013:6035   */\n      add\n        /* \"#utility.yul\":5992:6045   */\n      tag_226\n      jump\t// in\n    tag_334:\n        /* \"#utility.yul\":5982:6045   */\n      swap2\n      pop\n        /* \"#utility.yul\":5937:6055   */\n      pop\n        /* \"#utility.yul\":5588:6062   */\n      swap3\n      pop\n      swap3\n      swap1\n      pop\n      jump\t// out\n        /* \"#utility.yul\":6068:6248   */\n    tag_236:\n        /* \"#utility.yul\":6116:6193   */\n      0x4e487b7100000000000000000000000000000000000000000000000000000000\n        /* \"#utility.yul\":6113:6114   */\n      0x00\n        /* \"#utility.yul\":6106:6194   */\n      mstore\n        /* \"#utility.yul\":6213:6217   */\n      0x22\n        /* \"#utility.yul\":6210:6211   */\n      0x04\n        /* \"#utility.yul\":6203:6218   */\n      mstore\n        /* \"#utility.yul\":6237:6241   */\n      0x24\n        /* \"#utility.yul\":6234:6235   */\n      0x00\n        /* \"#utility.yul\":6227:6242   */\n      revert\n        /* \"#utility.yul\":6254:6574   */\n    tag_95:\n        /* \"#utility.yul\":6298:6304   */\n      0x00\n        /* \"#utility.yul\":6335:6336   */\n      0x02\n        /* \"#utility.yul\":6329:6333   */\n      dup3\n        /* \"#utility.yul\":6325:6337   */\n      div\n        /* \"#utility.yul\":6315:6337   */\n      swap1\n      pop\n        /* \"#utility.yul\":6382:6383   */\n      0x01\n        /* \"#utility.yul\":6376:6380   */\n      dup3\n        /* \"#utility.yul\":6372:6384   */\n      and\n        /* \"#utility.yul\":6403:6421   */\n      dup1\n        /* \"#utility.yul\":6393:6474   */\n      tag_337\n      jumpi\n        /* \"#utility.yul\":6459:6463   */\n      0x7f\n        /* \"#utility.yul\":6451:6457   */\n      dup3\n        /* \"#utility.yul\":6447:6464   */\n      and\n        /* \"#utility.yul\":6437:6464   */\n      swap2\n      pop\n        /* \"#utility.yul\":6393:6474   */\n    tag_337:\n        /* \"#utility.yul\":6521:6523   */\n      0x20\n        /* \"#utility.yul\":6513:6519   */\n      dup3\n        /* \"#utility.yul\":6510:6524   */\n      lt\n        /* \"#utility.yul\":6490:6508   */\n      dup2\n        /* \"#utility.yul\":6487:6525   */\n      sub\n        /* \"#utility.yul\":6484:6568   */\n      tag_338\n      jumpi\n        /* \"#utility.yul\":6540:6558   */\n      tag_339\n      tag_236\n      jump\t// in\n    tag_339:\n        /* \"#utility.yul\":6484:6568   */\n    tag_338:\n        /* \"#utility.yul\":6305:6574   */\n      pop\n        /* \"#utility.yul\":6254:6574   */\n      swap2\n      swap1\n      pop\n      jump\t// out\n        /* \"#utility.yul\":6580:6807   */\n    tag_237:\n        /* \"#utility.yul\":6720:6754   */\n      0x45524332303a207472616e7366657220616d6f756e7420657863656564732061\n        /* \"#utility.yul\":6716:6717   */\n      0x00\n        /* \"#utility.yul\":6708:6714   */\n      dup3\n        /* \"#utility.yul\":6704:6718   */\n      add\n        /* \"#utility.yul\":6697:6755   */\n      mstore\n        /* \"#utility.yul\":6789:6799   */\n      0x6c6c6f77616e6365000000000000000000000000000000000000000000000000\n        /* \"#utility.yul\":6784:6786   */\n      0x20\n        /* \"#utility.yul\":6776:6782   */\n      dup3\n        /* \"#utility.yul\":6772:6787   */\n      add\n        /* \"#utility.yul\":6765:6800   */\n      mstore\n        /* \"#utility.yul\":6580:6807   */\n      pop\n      jump\t// out\n        /* \"#utility.yul\":6813:7179   */\n    tag_238:\n        /* \"#utility.yul\":6955:6958   */\n      0x00\n        /* \"#utility.yul\":6976:7043   */\n      tag_342\n        /* \"#utility.yul\":7040:7042   */\n      0x28\n        /* \"#utility.yul\":7035:7038   */\n      dup4\n        /* \"#utility.yul\":6976:7043   */\n      tag_216\n      jump\t// in\n    tag_342:\n        /* \"#utility.yul\":6969:7043   */\n      swap2\n      pop\n        /* \"#utility.yul\":7052:7145   */\n      tag_343\n        /* \"#utility.yul\":7141:7144   */\n      dup3\n        /* \"#utility.yul\":7052:7145   */\n      tag_237\n      jump\t// in\n    tag_343:\n        /* \"#utility.yul\":7170:7172   */\n      0x40\n        /* \"#utility.yul\":7165:7168   */\n      dup3\n        /* \"#utility.yul\":7161:7173   */\n      add\n        /* \"#utility.yul\":7154:7173   */\n      swap1\n      pop\n        /* \"#utility.yul\":6813:7179   */\n      swap2\n      swap1\n      pop\n      jump\t// out\n        /* \"#utility.yul\":7185:7604   */\n    tag_112:\n        /* \"#utility.yul\":7351:7355   */\n      0x00\n        /* \"#utility.yul\":7389:7391   */\n      0x20\n        /* \"#utility.yul\":7378:7387   */\n      dup3\n        /* \"#utility.yul\":7374:7392   */\n      add\n        /* \"#utility.yul\":7366:7392   */\n      swap1\n      pop\n        /* \"#utility.yul\":7438:7447   */\n      dup2\n        /* \"#utility.yul\":7432:7436   */\n      dup2\n        /* \"#utility.yul\":7428:7448   */\n      sub\n        /* \"#utility.yul\":7424:7425   */\n      0x00\n        /* \"#utility.yul\":7413:7422   */\n      dup4\n        /* \"#utility.yul\":7409:7426   */\n      add\n        /* \"#utility.yul\":7402:7449   */\n      mstore\n        /* \"#utility.yul\":7466:7597   */\n      tag_345\n        /* \"#utility.yul\":7592:7596   */\n      dup2\n        /* \"#utility.yul\":7466:7597   */\n      tag_238\n      jump\t// in\n    tag_345:\n        /* \"#utility.yul\":7458:7597   */\n      swap1\n      pop\n        /* \"#utility.yul\":7185:7604   */\n      swap2\n      swap1\n      pop\n      jump\t// out\n        /* \"#utility.yul\":7610:7790   */\n    tag_239:\n        /* \"#utility.yul\":7658:7735   */\n      0x4e487b7100000000000000000000000000000000000000000000000000000000\n        /* \"#utility.yul\":7655:7656   */\n      0x00\n        /* \"#utility.yul\":7648:7736   */\n      mstore\n        /* \"#utility.yul\":7755:7759   */\n      0x11\n        /* \"#utility.yul\":7752:7753   */\n      0x04\n        /* \"#utility.yul\":7745:7760   */\n      mstore\n        /* \"#utility.yul\":7779:7783   */\n      0x24\n        /* \"#utility.yul\":7776:7777   */\n      0x00\n        /* \"#utility.yul\":7769:7784   */\n      revert\n        /* \"#utility.yul\":7796:8101   */\n    tag_121:\n        /* \"#utility.yul\":7836:7839   */\n      0x00\n        /* \"#utility.yul\":7855:7875   */\n      tag_348\n        /* \"#utility.yul\":7873:7874   */\n      dup3\n        /* \"#utility.yul\":7855:7875   */\n      tag_227\n      jump\t// in\n    tag_348:\n        /* \"#utility.yul\":7850:7875   */\n      swap2\n      pop\n        /* \"#utility.yul\":7889:7909   */\n      tag_349\n        /* \"#utility.yul\":7907:7908   */\n      dup4\n        /* \"#utility.yul\":7889:7909   */\n      tag_227\n      jump\t// in\n    tag_349:\n        /* \"#utility.yul\":7884:7909   */\n      swap3\n      pop\n        /* \"#utility.yul\":8043:8044   */\n      dup3\n        /* \"#utility.yul\":7975:8041   */\n      0xffffffffffffffffffffffffffffffffffffffffffffffffffffffffffffffff\n        /* \"#utility.yul\":7971:8045   */\n      sub\n        /* \"#utility.yul\":7968:7969   */\n      dup3\n        /* \"#utility.yul\":7965:8046   */\n      gt\n        /* \"#utility.yul\":7962:8069   */\n      iszero\n      tag_350\n      jumpi\n        /* \"#utility.yul\":8049:8067   */\n      tag_351\n      tag_239\n      jump\t// in\n    tag_351:\n        /* \"#utility.yul\":7962:8069   */\n    tag_350:\n        /* \"#utility.yul\":8093:8094   */\n      dup3\n        /* \"#utility.yul\":8090:8091   */\n      dup3\n        /* \"#utility.yul\":8086:8095   */\n      add\n        /* \"#utility.yul\":8079:8095   */\n      swap1\n      pop\n        /* \"#utility.yul\":7796:8101   */\n      swap3\n      swap2\n      pop\n      pop\n      jump\t// out\n        /* \"#utility.yul\":8107:8289   */\n    tag_240:\n        /* \"#utility.yul\":8247:8281   */\n      0x4f776e61626c653a2063616c6c6572206973206e6f7420746865206f776e6572\n        /* \"#utility.yul\":8243:8244   */\n      0x00\n        /* \"#utility.yul\":8235:8241   */\n      dup3\n        /* \"#utility.yul\":8231:8245   */\n      add\n        /* \"#utility.yul\":8224:8282   */\n      mstore\n        /* \"#utility.yul\":8107:8289   */\n      pop\n      jump\t// out\n        /* \"#utility.yul\":8295:8661   */\n    tag_241:\n        /* \"#utility.yul\":8437:8440   */\n      0x00\n        /* \"#utility.yul\":8458:8525   */\n      tag_354\n        /* \"#utility.yul\":8522:8524   */\n      0x20\n        /* \"#utility.yul\":8517:8520   */\n      dup4\n        /* \"#utility.yul\":8458:8525   */\n      tag_216\n      jump\t// in\n    tag_354:\n        /* \"#utility.yul\":8451:8525   */\n      swap2\n      pop\n        /* \"#utility.yul\":8534:8627   */\n      tag_355\n        /* \"#utility.yul\":8623:8626   */\n      dup3\n        /* \"#utility.yul\":8534:8627   */\n      tag_240\n      jump\t// in\n    tag_355:\n        /* \"#utility.yul\":8652:8654   */\n      0x20\n        /* \"#utility.yul\":8647:8650   */\n      dup3\n        /* \"#utility.yul\":8643:8655   */\n      add\n        /* \"#utility.yul\":8636:8655   */\n      swap1\n      pop\n        /* \"#utility.yul\":8295:8661   */\n      swap2\n      swap1\n      pop\n      jump\t// out\n        /* \"#utility.yul\":8667:9086   */\n    tag_130:\n        /* \"#utility.yul\":8833:8837   */\n      0x00\n        /* \"#utility.yul\":8871:8873   */\n      0x20\n        /* \"#utility.yul\":8860:8869   */\n      dup3\n        /* \"#utility.yul\":8856:8874   */\n      add\n        /* \"#utility.yul\":8848:8874   */\n      swap1\n      pop\n        /* \"#utility.yul\":8920:8929   */\n      dup2\n        /* \"#utility.yul\":8914:8918   */\n      dup2\n        /* \"#utility.yul\":8910:8930   */\n      sub\n        /* \"#utility.yul\":8906:8907   */\n      0x00\n        /* \"#utility.yul\":8895:8904   */\n      dup4\n        /* \"#utility.yul\":8891:8908   */\n      add\n        /* \"#utility.yul\":8884:8931   */\n      mstore\n        /* \"#utility.yul\":8948:9079   */\n      tag_357\n        /* \"#utility.yul\":9074:9078   */\n      dup2\n        /* \"#utility.yul\":8948:9079   */\n      tag_241\n      jump\t// in\n    tag_357:\n        /* \"#utility.yul\":8940:9079   */\n      swap1\n      pop\n        /* \"#utility.yul\":8667:9086   */\n      swap2\n      swap1\n      pop\n      jump\t// out\n        /* \"#utility.yul\":9092:9258   */\n    tag_242:\n        /* \"#utility.yul\":9232:9250   */\n      0x6469737420616c72656164792073657400000000000000000000000000000000\n        /* \"#utility.yul\":9228:9229   */\n      0x00\n        /* \"#utility.yul\":9220:9226   */\n      dup3\n        /* \"#utility.yul\":9216:9230   */\n      add\n        /* \"#utility.yul\":9209:9251   */\n      mstore\n        /* \"#utility.yul\":9092:9258   */\n      pop\n      jump\t// out\n        /* \"#utility.yul\":9264:9630   */\n    tag_243:\n        /* \"#utility.yul\":9406:9409   */\n      0x00\n        /* \"#utility.yul\":9427:9494   */\n      tag_360\n        /* \"#utility.yul\":9491:9493   */\n      0x10\n        /* \"#utility.yul\":9486:9489   */\n      dup4\n        /* \"#utility.yul\":9427:9494   */\n      tag_216\n      jump\t// in\n    tag_360:\n        /* \"#utility.yul\":9420:9494   */\n      swap2\n      pop\n        /* \"#utility.yul\":9503:9596   */\n      tag_361\n        /* \"#utility.yul\":9592:9595   */\n      dup3\n        /* \"#utility.yul\":9503:9596   */\n      tag_242\n      jump\t// in\n    tag_361:\n        /* \"#utility.yul\":9621:9623   */\n      0x20\n        /* \"#utility.yul\":9616:9619   */\n      dup3\n        /* \"#utility.yul\":9612:9624   */\n      add\n        /* \"#utility.yul\":9605:9624   */\n      swap1\n      pop\n        /* \"#utility.yul\":9264:9630   */\n      swap2\n      swap1\n      pop\n      jump\t// out\n        /* \"#utility.yul\":9636:10055   */\n    tag_148:\n        /* \"#utility.yul\":9802:9806   */\n      0x00\n        /* \"#utility.yul\":9840:9842   */\n      0x20\n        /* \"#utility.yul\":9829:9838   */\n      dup3\n        /* \"#utility.yul\":9825:9843   */\n      add\n        /* \"#utility.yul\":9817:9843   */\n      swap1\n      pop\n        /* \"#utility.yul\":9889:9898   */\n      dup2\n        /* \"#utility.yul\":9883:9887   */\n      dup2\n        /* \"#utility.yul\":9879:9899   */\n      sub\n        /* \"#utility.yul\":9875:9876   */\n      0x00\n        /* \"#utility.yul\":9864:9873   */\n      dup4\n        /* \"#utility.yul\":9860:9877   */\n      add\n        /* \"#utility.yul\":9853:9900   */\n      mstore\n        /* \"#utility.yul\":9917:10048   */\n      tag_363\n        /* \"#utility.yul\":10043:10047   */\n      dup2\n        /* \"#utility.yul\":9917:10048   */\n      tag_243\n      jump\t// in\n    tag_363:\n        /* \"#utility.yul\":9909:10048   */\n      swap1\n      pop\n        /* \"#utility.yul\":9636:10055   */\n      swap2\n      swap1\n      pop\n      jump\t// out\n        /* \"#utility.yul\":10061:10285   */\n    tag_244:\n        /* \"#utility.yul\":10201:10235   */\n      0x45524332303a2064656372656173656420616c6c6f77616e63652062656c6f77\n        /* \"#utility.yul\":10197:10198   */\n      0x00\n        /* \"#utility.yul\":10189:10195   */\n      dup3\n        /* \"#utility.yul\":10185:10199   */\n      add\n        /* \"#utility.yul\":10178:10236   */\n      mstore\n        /* \"#utility.yul\":10270:10277   */\n      0x207a65726f000000000000000000000000000000000000000000000000000000\n        /* \"#utility.yul\":10265:10267   */\n      0x20\n        /* \"#utility.yul\":10257:10263   */\n      dup3\n        /* \"#utility.yul\":10253:10268   */\n      add\n        /* \"#utility.yul\":10246:10278   */\n      mstore\n        /* \"#utility.yul\":10061:10285   */\n      pop\n      jump\t// out\n        /* \"#utility.yul\":10291:10657   */\n    tag_245:\n        /* \"#utility.yul\":10433:10436   */\n      0x00\n        /* \"#utility.yul\":10454:10521   */\n      tag_366\n        /* \"#utility.yul\":10518:10520   */\n      0x25\n        /* \"#utility.yul\":10513:10516   */\n      dup4\n        /* \"#utility.yul\":10454:10521   */\n      tag_216\n      jump\t// in\n    tag_366:\n        /* \"#utility.yul\":10447:10521   */\n      swap2\n      pop\n        /* \"#utility.yul\":10530:10623   */\n      tag_367\n        /* \"#utility.yul\":10619:10622   */\n      dup3\n        /* \"#utility.yul\":10530:10623   */\n      tag_244\n      jump\t// in\n    tag_367:\n        /* \"#utility.yul\":10648:10650   */\n      0x40\n        /* \"#utility.yul\":10643:10646   */\n      dup3\n        /* \"#utility.yul\":10639:10651   */\n      add\n        /* \"#utility.yul\":10632:10651   */\n      swap1\n      pop\n        /* \"#utility.yul\":10291:10657   */\n      swap2\n      swap1\n      pop\n      jump\t// out\n        /* \"#utility.yul\":10663:11082   */\n    tag_153:\n        /* \"#utility.yul\":10829:10833   */\n      0x00\n        /* \"#utility.yul\":10867:10869   */\n      0x20\n        /* \"#utility.yul\":10856:10865   */\n      dup3\n        /* \"#utility.yul\":10852:10870   */\n      add\n        /* \"#utility.yul\":10844:10870   */\n      swap1\n      pop\n        /* \"#utility.yul\":10916:10925   */\n      dup2\n        /* \"#utility.yul\":10910:10914   */\n      dup2\n        /* \"#utility.yul\":10906:10926   */\n      sub\n        /* \"#utility.yul\":10902:10903   */\n      0x00\n        /* \"#utility.yul\":10891:10900   */\n      dup4\n        /* \"#utility.yul\":10887:10904   */\n      add\n        /* \"#utility.yul\":10880:10927   */\n      mstore\n        /* \"#utility.yul\":10944:11075   */\n      tag_369\n        /* \"#utility.yul\":11070:11074   */\n      dup2\n        /* \"#utility.yul\":10944:11075   */\n      tag_245\n      jump\t// in\n    tag_369:\n        /* \"#utility.yul\":10936:11075   */\n      swap1\n      pop\n        /* \"#utility.yul\":10663:11082   */\n      swap2\n      swap1\n      pop\n      jump\t// out\n        /* \"#utility.yul\":11088:11313   */\n    tag_246:\n        /* \"#utility.yul\":11228:11262   */\n      0x4f776e61626c653a206e6577206f776e657220697320746865207a65726f2061\n        /* \"#utility.yul\":11224:11225   */\n      0x00\n        /* \"#utility.yul\":11216:11222   */\n      dup3\n        /* \"#utility.yul\":11212:11226   */\n      add\n        /* \"#utility.yul\":11205:11263   */\n      mstore\n        /* \"#utility.yul\":11297:11305   */\n      0x6464726573730000000000000000000000000000000000000000000000000000\n        /* \"#utility.yul\":11292:11294   */\n      0x20\n        /* \"#utility.yul\":11284:11290   */\n      dup3\n        /* \"#utility.yul\":11280:11295   */\n      add\n        /* \"#utility.yul\":11273:11306   */\n      mstore\n        /* \"#utility.yul\":11088:11313   */\n      pop\n      jump\t// out\n        /* \"#utility.yul\":11319:11685   */\n    tag_247:\n        /* \"#utility.yul\":11461:11464   */\n      0x00\n        /* \"#utility.yul\":11482:11549   */\n      tag_372\n        /* \"#utility.yul\":11546:11548   */\n      0x26\n        /* \"#utility.yul\":11541:11544   */\n      dup4\n        /* \"#utility.yul\":11482:11549   */\n      tag_216\n      jump\t// in\n    tag_372:\n        /* \"#utility.yul\":11475:11549   */\n      swap2\n      pop\n        /* \"#utility.yul\":11558:11651   */\n      tag_373\n        /* \"#utility.yul\":11647:11650   */\n      dup3\n        /* \"#utility.yul\":11558:11651   */\n      tag_246\n      jump\t// in\n    tag_373:\n        /* \"#utility.yul\":11676:11678   */\n      0x40\n        /* \"#utility.yul\":11671:11674   */\n      dup3\n        /* \"#utility.yul\":11667:11679   */\n      add\n        /* \"#utility.yul\":11660:11679   */\n      swap1\n      pop\n        /* \"#utility.yul\":11319:11685   */\n      swap2\n      swap1\n      pop\n      jump\t// out\n        /* \"#utility.yul\":11691:12110   */\n    tag_166:\n        /* \"#utility.yul\":11857:11861   */\n      0x00\n        /* \"#utility.yul\":11895:11897   */\n      0x20\n        /* \"#utility.yul\":11884:11893   */\n      dup3\n        /* \"#utility.yul\":11880:11898   */\n      add\n        /* \"#utility.yul\":11872:11898   */\n      swap1\n      pop\n        /* \"#utility.yul\":11944:11953   */\n      dup2\n        /* \"#utility.yul\":11938:11942   */\n      dup2\n        /* \"#utility.yul\":11934:11954   */\n      sub\n        /* \"#utility.yul\":11930:11931   */\n      0x00\n        /* \"#utility.yul\":11919:11928   */\n      dup4\n        /* \"#utility.yul\":11915:11932   */\n      add\n        /* \"#utility.yul\":11908:11955   */\n      mstore\n        /* \"#utility.yul\":11972:12103   */\n      tag_375\n        /* \"#utility.yul\":12098:12102   */\n      dup2\n        /* \"#utility.yul\":11972:12103   */\n      tag_247\n      jump\t// in\n    tag_375:\n        /* \"#utility.yul\":11964:12103   */\n      swap1\n      pop\n        /* \"#utility.yul\":11691:12110   */\n      swap2\n      swap1\n      pop\n      jump\t// out\n        /* \"#utility.yul\":12116:12339   */\n    tag_248:\n        /* \"#utility.yul\":12256:12290   */\n      0x45524332303a20617070726f76652066726f6d20746865207a65726f20616464\n        /* \"#utility.yul\":12252:12253   */\n      0x00\n        /* \"#utility.yul\":12244:12250   */\n      dup3\n        /* \"#utility.yul\":12240:12254   */\n      add\n        /* \"#utility.yul\":12233:12291   */\n      mstore\n        /* \"#utility.yul\":12325:12331   */\n      0x7265737300000000000000000000000000000000000000000000000000000000\n        /* \"#utility.yul\":12320:12322   */\n      0x20\n        /* \"#utility.yul\":12312:12318   */\n      dup3\n        /* \"#utility.yul\":12308:12323   */\n      add\n        /* \"#utility.yul\":12301:12332   */\n      mstore\n        /* \"#utility.yul\":12116:12339   */\n      pop\n      jump\t// out\n        /* \"#utility.yul\":12345:12711   */\n    tag_249:\n        /* \"#utility.yul\":12487:12490   */\n      0x00\n        /* \"#utility.yul\":12508:12575   */\n      tag_378\n        /* \"#utility.yul\":12572:12574   */\n      0x24\n        /* \"#utility.yul\":12567:12570   */\n      dup4\n        /* \"#utility.yul\":12508:12575   */\n      tag_216\n      jump\t// in\n    tag_378:\n        /* \"#utility.yul\":12501:12575   */\n      swap2\n      pop\n        /* \"#utility.yul\":12584:12677   */\n      tag_379\n        /* \"#utility.yul\":12673:12676   */\n      dup3\n        /* \"#utility.yul\":12584:12677   */\n      tag_248\n      jump\t// in\n    tag_379:\n        /* \"#utility.yul\":12702:12704   */\n      0x40\n        /* \"#utility.yul\":12697:12700   */\n      dup3\n        /* \"#utility.yul\":12693:12705   */\n      add\n        /* \"#utility.yul\":12686:12705   */\n      swap1\n      pop\n        /* \"#utility.yul\":12345:12711   */\n      swap2\n      swap1\n      pop\n      jump\t// out\n        /* \"#utility.yul\":12717:13136   */\n    tag_171:\n        /* \"#utility.yul\":12883:12887   */\n      0x00\n        /* \"#utility.yul\":12921:12923   */\n      0x20\n        /* \"#utility.yul\":12910:12919   */\n      dup3\n        /* \"#utility.yul\":12906:12924   */\n      add\n        /* \"#utility.yul\":12898:12924   */\n      swap1\n      pop\n        /* \"#utility.yul\":12970:12979   */\n      dup2\n        /* \"#utility.yul\":12964:12968   */\n      dup2\n        /* \"#utility.yul\":12960:12980   */\n      sub\n        /* \"#utility.yul\":12956:12957   */\n      0x00\n        /* \"#utility.yul\":12945:12954   */\n      dup4\n        /* \"#utility.yul\":12941:12958   */\n      add\n        /* \"#utility.yul\":12934:12981   */\n      mstore\n        /* \"#utility.yul\":12998:13129   */\n      tag_381\n        /* \"#utility.yul\":13124:13128   */\n      dup2\n        /* \"#utility.yul\":12998:13129   */\n      tag_249\n      jump\t// in\n    tag_381:\n        /* \"#utility.yul\":12990:13129   */\n      swap1\n      pop\n        /* \"#utility.yul\":12717:13136   */\n      swap2\n      swap1\n      pop\n      jump\t// out\n        /* \"#utility.yul\":13142:13363   */\n    tag_250:\n        /* \"#utility.yul\":13282:13316   */\n      0x45524332303a20617070726f766520746f20746865207a65726f206164647265\n        /* \"#utility.yul\":13278:13279   */\n      0x00\n        /* \"#utility.yul\":13270:13276   */\n      dup3\n        /* \"#utility.yul\":13266:13280   */\n      add\n        /* \"#utility.yul\":13259:13317   */\n      mstore\n        /* \"#utility.yul\":13351:13355   */\n      0x7373000000000000000000000000000000000000000000000000000000000000\n        /* \"#utility.yul\":13346:13348   */\n      0x20\n        /* \"#utility.yul\":13338:13344   */\n      dup3\n        /* \"#utility.yul\":13334:13349   */\n      add\n        /* \"#utility.yul\":13327:13356   */\n      mstore\n        /* \"#utility.yul\":13142:13363   */\n      pop\n      jump\t// out\n        /* \"#utility.yul\":13369:13735   */\n    tag_251:\n        /* \"#utility.yul\":13511:13514   */\n      0x00\n        /* \"#utility.yul\":13532:13599   */\n      tag_384\n        /* \"#utility.yul\":13596:13598   */\n      0x22\n        /* \"#utility.yul\":13591:13594   */\n      dup4\n        /* \"#utility.yul\":13532:13599   */\n      tag_216\n      jump\t// in\n    tag_384:\n        /* \"#utility.yul\":13525:13599   */\n      swap2\n      pop\n        /* \"#utility.yul\":13608:13701   */\n      tag_385\n        /* \"#utility.yul\":13697:13700   */\n      dup3\n        /* \"#utility.yul\":13608:13701   */\n      tag_250\n      jump\t// in\n    tag_385:\n        /* \"#utility.yul\":13726:13728   */\n      0x40\n        /* \"#utility.yul\":13721:13724   */\n      dup3\n        /* \"#utility.yul\":13717:13729   */\n      add\n        /* \"#utility.yul\":13710:13729   */\n      swap1\n      pop\n        /* \"#utility.yul\":13369:13735   */\n      swap2\n      swap1\n      pop\n      jump\t// out\n        /* \"#utility.yul\":13741:14160   */\n    tag_174:\n        /* \"#utility.yul\":13907:13911   */\n      0x00\n        /* \"#utility.yul\":13945:13947   */\n      0x20\n        /* \"#utility.yul\":13934:13943   */\n      dup3\n        /* \"#utility.yul\":13930:13948   */\n      add\n        /* \"#utility.yul\":13922:13948   */\n      swap1\n      pop\n        /* \"#utility.yul\":13994:14003   */\n      dup2\n        /* \"#utility.yul\":13988:13992   */\n      dup2\n        /* \"#utility.yul\":13984:14004   */\n      sub\n        /* \"#utility.yul\":13980:13981   */\n      0x00\n        /* \"#utility.yul\":13969:13978   */\n      dup4\n        /* \"#utility.yul\":13965:13982   */\n      add\n        /* \"#utility.yul\":13958:14005   */\n      mstore\n        /* \"#utility.yul\":14022:14153   */\n      tag_387\n        /* \"#utility.yul\":14148:14152   */\n      dup2\n        /* \"#utility.yul\":14022:14153   */\n      tag_251\n      jump\t// in\n    tag_387:\n        /* \"#utility.yul\":14014:14153   */\n      swap1\n      pop\n        /* \"#utility.yul\":13741:14160   */\n      swap2\n      swap1\n      pop\n      jump\t// out\n        /* \"#utility.yul\":14166:14390   */\n    tag_252:\n        /* \"#utility.yul\":14306:14340   */\n      0x45524332303a207472616e736665722066726f6d20746865207a65726f206164\n        /* \"#utility.yul\":14302:14303   */\n      0x00\n        /* \"#utility.yul\":14294:14300   */\n      dup3\n        /* \"#utility.yul\":14290:14304   */\n      add\n        /* \"#utility.yul\":14283:14341   */\n      mstore\n        /* \"#utility.yul\":14375:14382   */\n      0x6472657373000000000000000000000000000000000000000000000000000000\n        /* \"#utility.yul\":14370:14372   */\n      0x20\n        /* \"#utility.yul\":14362:14368   */\n      dup3\n        /* \"#utility.yul\":14358:14373   */\n      add\n        /* \"#utility.yul\":14351:14383   */\n      mstore\n        /* \"#utility.yul\":14166:14390   */\n      pop\n      jump\t// out\n        /* \"#utility.yul\":14396:14762   */\n    tag_253:\n        /* \"#utility.yul\":14538:14541   */\n      0x00\n        /* \"#utility.yul\":14559:14626   */\n      tag_390\n        /* \"#utility.yul\":14623:14625   */\n      0x25\n        /* \"#utility.yul\":14618:14621   */\n      dup4\n        /* \"#utility.yul\":14559:14626   */\n      tag_216\n      jump\t// in\n    tag_390:\n        /* \"#utility.yul\":14552:14626   */\n      swap2\n      pop\n        /* \"#utility.yul\":14635:14728   */\n      tag_391\n        /* \"#utility.yul\":14724:14727   */\n      dup3\n        /* \"#utility.yul\":14635:14728   */\n      tag_252\n      jump\t// in\n    tag_391:\n        /* \"#utility.yul\":14753:14755   */\n      0x40\n        /* \"#utility.yul\":14748:14751   */\n      dup3\n        /* \"#utility.yul\":14744:14756   */\n      add\n        /* \"#utility.yul\":14737:14756   */\n      swap1\n      pop\n        /* \"#utility.yul\":14396:14762   */\n      swap2\n      swap1\n      pop\n      jump\t// out\n        /* \"#utility.yul\":14768:15187   */\n    tag_179:\n        /* \"#utility.yul\":14934:14938   */\n      0x00\n        /* \"#utility.yul\":14972:14974   */\n      0x20\n        /* \"#utility.yul\":14961:14970   */\n      dup3\n        /* \"#utility.yul\":14957:14975   */\n      add\n        /* \"#utility.yul\":14949:14975   */\n      swap1\n      pop\n        /* \"#utility.yul\":15021:15030   */\n      dup2\n        /* \"#utility.yul\":15015:15019   */\n      dup2\n        /* \"#utility.yul\":15011:15031   */\n      sub\n        /* \"#utility.yul\":15007:15008   */\n      0x00\n        /* \"#utility.yul\":14996:15005   */\n      dup4\n        /* \"#utility.yul\":14992:15009   */\n      add\n        /* \"#utility.yul\":14985:15032   */\n      mstore\n        /* \"#utility.yul\":15049:15180   */\n      tag_393\n        /* \"#utility.yul\":15175:15179   */\n      dup2\n        /* \"#utility.yul\":15049:15180   */\n      tag_253\n      jump\t// in\n    tag_393:\n        /* \"#utility.yul\":15041:15180   */\n      swap1\n      pop\n        /* \"#utility.yul\":14768:15187   */\n      swap2\n      swap1\n      pop\n      jump\t// out\n        /* \"#utility.yul\":15193:15415   */\n    tag_254:\n        /* \"#utility.yul\":15333:15367   */\n      0x45524332303a207472616e7366657220746f20746865207a65726f2061646472\n        /* \"#utility.yul\":15329:15330   */\n      0x00\n        /* \"#utility.yul\":15321:15327   */\n      dup3\n        /* \"#utility.yul\":15317:15331   */\n      add\n        /* \"#utility.yul\":15310:15368   */\n      mstore\n        /* \"#utility.yul\":15402:15407   */\n      0x6573730000000000000000000000000000000000000000000000000000000000\n        /* \"#utility.yul\":15397:15399   */\n      0x20\n        /* \"#utility.yul\":15389:15395   */\n      dup3\n        /* \"#utility.yul\":15385:15400   */\n      add\n        /* \"#utility.yul\":15378:15408   */\n      mstore\n        /* \"#utility.yul\":15193:15415   */\n      pop\n      jump\t// out\n        /* \"#utility.yul\":15421:15787   */\n    tag_255:\n        /* \"#utility.yul\":15563:15566   */\n      0x00\n        /* \"#utility.yul\":15584:15651   */\n      tag_396\n        /* \"#utility.yul\":15648:15650   */\n      0x23\n        /* \"#utility.yul\":15643:15646   */\n      dup4\n        /* \"#utility.yul\":15584:15651   */\n      tag_216\n      jump\t// in\n    tag_396:\n        /* \"#utility.yul\":15577:15651   */\n      swap2\n      pop\n        /* \"#utility.yul\":15660:15753   */\n      tag_397\n        /* \"#utility.yul\":15749:15752   */\n      dup3\n        /* \"#utility.yul\":15660:15753   */\n      tag_254\n      jump\t// in\n    tag_397:\n        /* \"#utility.yul\":15778:15780   */\n      0x40\n        /* \"#utility.yul\":15773:15776   */\n      dup3\n        /* \"#utility.yul\":15769:15781   */\n      add\n        /* \"#utility.yul\":15762:15781   */\n      swap1\n      pop\n        /* \"#utility.yul\":15421:15787   */\n      swap2\n      swap1\n      pop\n      jump\t// out\n        /* \"#utility.yul\":15793:16212   */\n    tag_182:\n        /* \"#utility.yul\":15959:15963   */\n      0x00\n        /* \"#utility.yul\":15997:15999   */\n      0x20\n        /* \"#utility.yul\":15986:15995   */\n      dup3\n        /* \"#utility.yul\":15982:16000   */\n      add\n        /* \"#utility.yul\":15974:16000   */\n      swap1\n      pop\n        /* \"#utility.yul\":16046:16055   */\n      dup2\n        /* \"#utility.yul\":16040:16044   */\n      dup2\n        /* \"#utility.yul\":16036:16056   */\n      sub\n        /* \"#utility.yul\":16032:16033   */\n      0x00\n        /* \"#utility.yul\":16021:16030   */\n      dup4\n        /* \"#utility.yul\":16017:16034   */\n      add\n        /* \"#utility.yul\":16010:16057   */\n      mstore\n        /* \"#utility.yul\":16074:16205   */\n      tag_399\n        /* \"#utility.yul\":16200:16204   */\n      dup2\n        /* \"#utility.yul\":16074:16205   */\n      tag_255\n      jump\t// in\n    tag_399:\n        /* \"#utility.yul\":16066:16205   */\n      swap1\n      pop\n        /* \"#utility.yul\":15793:16212   */\n      swap2\n      swap1\n      pop\n      jump\t// out\n        /* \"#utility.yul\":16218:16443   */\n    tag_256:\n        /* \"#utility.yul\":16358:16392   */\n      0x45524332303a207472616e7366657220616d6f756e7420657863656564732062\n        /* \"#utility.yul\":16354:16355   */\n      0x00\n        /* \"#utility.yul\":16346:16352   */\n      dup3\n        /* \"#utility.yul\":16342:16356   */\n      add\n        /* \"#utility.yul\":16335:16393   */\n      mstore\n        /* \"#utility.yul\":16427:16435   */\n      0x616c616e63650000000000000000000000000000000000000000000000000000\n        /* \"#utility.yul\":16422:16424   */\n      0x20\n        /* \"#utility.yul\":16414:16420   */\n      dup3\n        /* \"#utility.yul\":16410:16425   */\n      add\n        /* \"#utility.yul\":16403:16436   */\n      mstore\n        /* \"#utility.yul\":16218:16443   */\n      pop\n      jump\t// out\n        /* \"#utility.yul\":16449:16815   */\n    tag_257:\n        /* \"#utility.yul\":16591:16594   */\n      0x00\n        /* \"#utility.yul\":16612:16679   */\n      tag_402\n        /* \"#utility.yul\":16676:16678   */\n      0x26\n        /* \"#utility.yul\":16671:16674   */\n      dup4\n        /* \"#utility.yul\":16612:16679   */\n      tag_216\n      jump\t// in\n    tag_402:\n        /* \"#utility.yul\":16605:16679   */\n      swap2\n      pop\n        /* \"#utility.yul\":16688:16781   */\n      tag_403\n        /* \"#utility.yul\":16777:16780   */\n      dup3\n        /* \"#utility.yul\":16688:16781   */\n      tag_256\n      jump\t// in\n    tag_403:\n        /* \"#utility.yul\":16806:16808   */\n      0x40\n        /* \"#utility.yul\":16801:16804   */\n      dup3\n        /* \"#utility.yul\":16797:16809   */\n      add\n        /* \"#utility.yul\":16790:16809   */\n      swap1\n      pop\n        /* \"#utility.yul\":16449:16815   */\n      swap2\n      swap1\n      pop\n      jump\t// out\n        /* \"#utility.yul\":16821:17240   */\n    tag_187:\n        /* \"#utility.yul\":16987:16991   */\n      0x00\n        /* \"#utility.yul\":17025:17027   */\n      0x20\n        /* \"#utility.yul\":17014:17023   */\n      dup3\n        /* \"#utility.yul\":17010:17028   */\n      add\n        /* \"#utility.yul\":17002:17028   */\n      swap1\n      pop\n        /* \"#utility.yul\":17074:17083   */\n      dup2\n        /* \"#utility.yul\":17068:17072   */\n      dup2\n        /* \"#utility.yul\":17064:17084   */\n      sub\n        /* \"#utility.yul\":17060:17061   */\n      0x00\n        /* \"#utility.yul\":17049:17058   */\n      dup4\n        /* \"#utility.yul\":17045:17062   */\n      add\n        /* \"#utility.yul\":17038:17085   */\n      mstore\n        /* \"#utility.yul\":17102:17233   */\n      tag_405\n        /* \"#utility.yul\":17228:17232   */\n      dup2\n        /* \"#utility.yul\":17102:17233   */\n      tag_257\n      jump\t// in\n    tag_405:\n        /* \"#utility.yul\":17094:17233   */\n      swap1\n      pop\n        /* \"#utility.yul\":16821:17240   */\n      swap2\n      swap1\n      pop\n      jump\t// out\n        /* \"#utility.yul\":17246:17427   */\n    tag_258:\n        /* \"#utility.yul\":17386:17419   */\n      0x45524332303a206d696e7420746f20746865207a65726f206164647265737300\n        /* \"#utility.yul\":17382:17383   */\n      0x00\n        /* \"#utility.yul\":17374:17380   */\n      dup3\n        /* \"#utility.yul\":17370:17384   */\n      add\n        /* \"#utility.yul\":17363:17420   */\n      mstore\n        /* \"#utility.yul\":17246:17427   */\n      pop\n      jump\t// out\n        /* \"#utility.yul\":17433:17799   */\n    tag_259:\n        /* \"#utility.yul\":17575:17578   */\n      0x00\n        /* \"#utility.yul\":17596:17663   */\n      tag_408\n        /* \"#utility.yul\":17660:17662   */\n      0x1f\n        /* \"#utility.yul\":17655:17658   */\n      dup4\n        /* \"#utility.yul\":17596:17663   */\n      tag_216\n      jump\t// in\n    tag_408:\n        /* \"#utility.yul\":17589:17663   */\n      swap2\n      pop\n        /* \"#utility.yul\":17672:17765   */\n      tag_409\n        /* \"#utility.yul\":17761:17764   */\n      dup3\n        /* \"#utility.yul\":17672:17765   */\n      tag_258\n      jump\t// in\n    tag_409:\n        /* \"#utility.yul\":17790:17792   */\n      0x20\n        /* \"#utility.yul\":17785:17788   */\n      dup3\n        /* \"#utility.yul\":17781:17793   */\n      add\n        /* \"#utility.yul\":17774:17793   */\n      swap1\n      pop\n        /* \"#utility.yul\":17433:17799   */\n      swap2\n      swap1\n      pop\n      jump\t// out\n        /* \"#utility.yul\":17805:18224   */\n    tag_195:\n        /* \"#utility.yul\":17971:17975   */\n      0x00\n        /* \"#utility.yul\":18009:18011   */\n      0x20\n        /* \"#utility.yul\":17998:18007   */\n      dup3\n        /* \"#utility.yul\":17994:18012   */\n      add\n        /* \"#utility.yul\":17986:18012   */\n      swap1\n      pop\n        /* \"#utility.yul\":18058:18067   */\n      dup2\n        /* \"#utility.yul\":18052:18056   */\n      dup2\n        /* \"#utility.yul\":18048:18068   */\n      sub\n        /* \"#utility.yul\":18044:18045   */\n      0x00\n        /* \"#utility.yul\":18033:18042   */\n      dup4\n        /* \"#utility.yul\":18029:18046   */\n      add\n        /* \"#utility.yul\":18022:18069   */\n      mstore\n        /* \"#utility.yul\":18086:18217   */\n      tag_411\n        /* \"#utility.yul\":18212:18216   */\n      dup2\n        /* \"#utility.yul\":18086:18217   */\n      tag_259\n      jump\t// in\n    tag_411:\n        /* \"#utility.yul\":18078:18217   */\n      swap1\n      pop\n        /* \"#utility.yul\":17805:18224   */\n      swap2\n      swap1\n      pop\n      jump\t// out\n        /* \"#utility.yul\":18230:18450   */\n    tag_260:\n        /* \"#utility.yul\":18370:18404   */\n      0x45524332303a206275726e2066726f6d20746865207a65726f20616464726573\n        /* \"#utility.yul\":18366:18367   */\n      0x00\n        /* \"#utility.yul\":18358:18364   */\n      dup3\n        /* \"#utility.yul\":18354:18368   */\n      add\n        /* \"#utility.yul\":18347:18405   */\n      mstore\n        /* \"#utility.yul\":18439:18442   */\n      0x7300000000000000000000000000000000000000000000000000000000000000\n        /* \"#utility.yul\":18434:18436   */\n      0x20\n        /* \"#utility.yul\":18426:18432   */\n      dup3\n        /* \"#utility.yul\":18422:18437   */\n      add\n        /* \"#utility.yul\":18415:18443   */\n      mstore\n        /* \"#utility.yul\":18230:18450   */\n      pop\n      jump\t// out\n        /* \"#utility.yul\":18456:18822   */\n    tag_261:\n        /* \"#utility.yul\":18598:18601   */\n      0x00\n        /* \"#utility.yul\":18619:18686   */\n      tag_414\n        /* \"#utility.yul\":18683:18685   */\n      0x21\n        /* \"#utility.yul\":18678:18681   */\n      dup4\n        /* \"#utility.yul\":18619:18686   */\n      tag_216\n      jump\t// in\n    tag_414:\n        /* \"#utility.yul\":18612:18686   */\n      swap2\n      pop\n        /* \"#utility.yul\":18695:18788   */\n      tag_415\n        /* \"#utility.yul\":18784:18787   */\n      dup3\n        /* \"#utility.yul\":18695:18788   */\n      tag_260\n      jump\t// in\n    tag_415:\n        /* \"#utility.yul\":18813:18815   */\n      0x40\n        /* \"#utility.yul\":18808:18811   */\n      dup3\n        /* \"#utility.yul\":18804:18816   */\n      add\n        /* \"#utility.yul\":18797:18816   */\n      swap1\n      pop\n        /* \"#utility.yul\":18456:18822   */\n      swap2\n      swap1\n      pop\n      jump\t// out\n        /* \"#utility.yul\":18828:19247   */\n    tag_204:\n        /* \"#utility.yul\":18994:18998   */\n      0x00\n        /* \"#utility.yul\":19032:19034   */\n      0x20\n        /* \"#utility.yul\":19021:19030   */\n      dup3\n        /* \"#utility.yul\":19017:19035   */\n      add\n        /* \"#utility.yul\":19009:19035   */\n      swap1\n      pop\n        /* \"#utility.yul\":19081:19090   */\n      dup2\n        /* \"#utility.yul\":19075:19079   */\n      dup2\n        /* \"#utility.yul\":19071:19091   */\n      sub\n        /* \"#utility.yul\":19067:19068   */\n      0x00\n        /* \"#utility.yul\":19056:19065   */\n      dup4\n        /* \"#utility.yul\":19052:19069   */\n      add\n        /* \"#utility.yul\":19045:19092   */\n      mstore\n        /* \"#utility.yul\":19109:19240   */\n      tag_417\n        /* \"#utility.yul\":19235:19239   */\n      dup2\n        /* \"#utility.yul\":19109:19240   */\n      tag_261\n      jump\t// in\n    tag_417:\n        /* \"#utility.yul\":19101:19240   */\n      swap1\n      pop\n        /* \"#utility.yul\":18828:19247   */\n      swap2\n      swap1\n      pop\n      jump\t// out\n        /* \"#utility.yul\":19253:19474   */\n    tag_262:\n        /* \"#utility.yul\":19393:19427   */\n      0x45524332303a206275726e20616d6f756e7420657863656564732062616c616e\n        /* \"#utility.yul\":19389:19390   */\n      0x00\n        /* \"#utility.yul\":19381:19387   */\n      dup3\n        /* \"#utility.yul\":19377:19391   */\n      add\n        /* \"#utility.yul\":19370:19428   */\n      mstore\n        /* \"#utility.yul\":19462:19466   */\n      0x6365000000000000000000000000000000000000000000000000000000000000\n        /* \"#utility.yul\":19457:19459   */\n      0x20\n        /* \"#utility.yul\":19449:19455   */\n      dup3\n        /* \"#utility.yul\":19445:19460   */\n      add\n        /* \"#utility.yul\":19438:19467   */\n      mstore\n        /* \"#utility.yul\":19253:19474   */\n      pop\n      jump\t// out\n        /* \"#utility.yul\":19480:19846   */\n    tag_263:\n        /* \"#utility.yul\":19622:19625   */\n      0x00\n        /* \"#utility.yul\":19643:19710   */\n      tag_420\n        /* \"#utility.yul\":19707:19709   */\n      0x22\n        /* \"#utility.yul\":19702:19705   */\n      dup4\n        /* \"#utility.yul\":19643:19710   */\n      tag_216\n      jump\t// in\n    tag_420:\n        /* \"#utility.yul\":19636:19710   */\n      swap2\n      pop\n        /* \"#utility.yul\":19719:19812   */\n      tag_421\n        /* \"#utility.yul\":19808:19811   */\n      dup3\n        /* \"#utility.yul\":19719:19812   */\n      tag_262\n      jump\t// in\n    tag_421:\n        /* \"#utility.yul\":19837:19839   */\n      0x40\n        /* \"#utility.yul\":19832:19835   */\n      dup3\n        /* \"#utility.yul\":19828:19840   */\n      add\n        /* \"#utility.yul\":19821:19840   */\n      swap1\n      pop\n        /* \"#utility.yul\":19480:19846   */\n      swap2\n      swap1\n      pop\n      jump\t// out\n        /* \"#utility.yul\":19852:20271   */\n    tag_208:\n        /* \"#utility.yul\":20018:20022   */\n      0x00\n        /* \"#utility.yul\":20056:20058   */\n      0x20\n        /* \"#utility.yul\":20045:20054   */\n      dup3\n        /* \"#utility.yul\":20041:20059   */\n      add\n        /* \"#utility.yul\":20033:20059   */\n      swap1\n      pop\n        /* \"#utility.yul\":20105:20114   */\n      dup2\n        /* \"#utility.yul\":20099:20103   */\n      dup2\n        /* \"#utility.yul\":20095:20115   */\n      sub\n        /* \"#utility.yul\":20091:20092   */\n      0x00\n        /* \"#utility.yul\":20080:20089   */\n      dup4\n        /* \"#utility.yul\":20076:20093   */\n      add\n        /* \"#utility.yul\":20069:20116   */\n      mstore\n        /* \"#utility.yul\":20133:20264   */\n      tag_423\n        /* \"#utility.yul\":20259:20263   */\n      dup2\n        /* \"#utility.yul\":20133:20264   */\n      tag_263\n      jump\t// in\n    tag_423:\n        /* \"#utility.yul\":20125:20264   */\n      swap1\n      pop\n        /* \"#utility.yul\":19852:20271   */\n      swap2\n      swap1\n      pop\n      jump\t// out\n        /* \"#utility.yul\":20277:20468   */\n    tag_210:\n        /* \"#utility.yul\":20317:20321   */\n      0x00\n        /* \"#utility.yul\":20337:20357   */\n      tag_425\n        /* \"#utility.yul\":20355:20356   */\n      dup3\n        /* \"#utility.yul\":20337:20357   */\n      tag_227\n      jump\t// in\n    tag_425:\n        /* \"#utility.yul\":20332:20357   */\n      swap2\n      pop\n        /* \"#utility.yul\":20371:20391   */\n      tag_426\n        /* \"#utility.yul\":20389:20390   */\n      dup4\n        /* \"#utility.yul\":20371:20391   */\n      tag_227\n      jump\t// in\n    tag_426:\n        /* \"#utility.yul\":20366:20391   */\n      swap3\n      pop\n        /* \"#utility.yul\":20410:20411   */\n      dup3\n        /* \"#utility.yul\":20407:20408   */\n      dup3\n        /* \"#utility.yul\":20404:20412   */\n      lt\n        /* \"#utility.yul\":20401:20435   */\n      iszero\n      tag_427\n      jumpi\n        /* \"#utility.yul\":20415:20433   */\n      tag_428\n      tag_239\n      jump\t// in\n    tag_428:\n        /* \"#utility.yul\":20401:20435   */\n    tag_427:\n        /* \"#utility.yul\":20460:20461   */\n      dup3\n        /* \"#utility.yul\":20457:20458   */\n      dup3\n        /* \"#utility.yul\":20453:20462   */\n      sub\n        /* \"#utility.yul\":20445:20462   */\n      swap1\n      pop\n        /* \"#utility.yul\":20277:20468   */\n      swap3\n      swap2\n      pop\n      pop\n      jump\t// out\n\n    auxdata: 0xa264697066735822122085d22d08fe21a6ad77bec9eea4006b337b9403d24200ed28a2d979358d51392e64736f6c634300080e0033\n}\n",
				"bytecode": {
					"linkReferences": {},
					"object": "60806040523480156200001157600080fd5b50604051620024f4380380620024f483398181016040528101906200003791906200039e565b8181601282600390805190602001906200005392919062000151565b5081600490805190602001906200006c92919062000151565b5080600560006101000a81548160ff021916908360ff16021790555050505033600560016101000a81548173ffffffffffffffffffffffffffffffffffffffff021916908373ffffffffffffffffffffffffffffffffffffffff160217905550600560019054906101000a900473ffffffffffffffffffffffffffffffffffffffff1673ffffffffffffffffffffffffffffffffffffffff16600073ffffffffffffffffffffffffffffffffffffffff167f8be0079c531659141344cd1fd0a4f28419497f9722a3daafe3b4186f6b6457e060405160405180910390a3505062000487565b8280546200015f9062000452565b90600052602060002090601f016020900481019282620001835760008555620001cf565b82601f106200019e57805160ff1916838001178555620001cf565b82800160010185558215620001cf579182015b82811115620001ce578251825591602001919060010190620001b1565b5b509050620001de9190620001e2565b5090565b5b80821115620001fd576000816000905550600101620001e3565b5090565b6000604051905090565b600080fd5b600080fd5b600080fd5b600080fd5b6000601f19601f8301169050919050565b7f4e487b7100000000000000000000000000000000000000000000000000000000600052604160045260246000fd5b6200026a826200021f565b810181811067ffffffffffffffff821117156200028c576200028b62000230565b5b80604052505050565b6000620002a162000201565b9050620002af82826200025f565b919050565b600067ffffffffffffffff821115620002d257620002d162000230565b5b620002dd826200021f565b9050602081019050919050565b60005b838110156200030a578082015181840152602081019050620002ed565b838111156200031a576000848401525b50505050565b6000620003376200033184620002b4565b62000295565b9050828152602081018484840111156200035657620003556200021a565b5b62000363848285620002ea565b509392505050565b600082601f83011262000383576200038262000215565b5b81516200039584826020860162000320565b91505092915050565b60008060408385031215620003b857620003b76200020b565b5b600083015167ffffffffffffffff811115620003d957620003d862000210565b5b620003e7858286016200036b565b925050602083015167ffffffffffffffff8111156200040b576200040a62000210565b5b62000419858286016200036b565b9150509250929050565b7f4e487b7100000000000000000000000000000000000000000000000000000000600052602260045260246000fd5b600060028204905060018216806200046b57607f821691505b60208210810362000481576200048062000423565b5b50919050565b61205d80620004976000396000f3fe608060405234801561001057600080fd5b50600436106101165760003560e01c80638da5cb5b116100a2578063a457c2d711610071578063a457c2d7146102cf578063a9059cbb146102ff578063bfe109281461032f578063dd62ed3e1461034d578063f2fde38b1461037d57610116565b80638da5cb5b1461025b57806395d89b41146102795780639dc29fac14610297578063a15dc177146102b357610116565b8063313ce567116100e9578063313ce567146101b757806339509351146101d557806340c10f191461020557806370a0823114610221578063715018a61461025157610116565b806306fdde031461011b578063095ea7b31461013957806318160ddd1461016957806323b872dd14610187575b600080fd5b610123610399565b604051610130919061159a565b60405180910390f35b610153600480360381019061014e9190611655565b61042b565b60405161016091906116b0565b60405180910390f35b610171610449565b60405161017e91906116da565b60405180910390f35b6101a1600480360381019061019c91906116f5565b610453565b6040516101ae91906116b0565b60405180910390f35b6101bf61054b565b6040516101cc9190611764565b60405180910390f35b6101ef60048036038101906101ea9190611655565b610562565b6040516101fc91906116b0565b60405180910390f35b61021f600480360381019061021a9190611655565b61060e565b005b61023b6004803603810190610236919061177f565b610676565b60405161024891906116da565b60405180910390f35b6102596106be565b005b61026361080f565b60405161027091906117bb565b60405180910390f35b610281610839565b60405161028e919061159a565b60405180910390f35b6102b160048036038101906102ac9190611655565b6108cb565b005b6102cd60048036038101906102c8919061177f565b6108d9565b005b6102e960048036038101906102e49190611655565b6109fd565b6040516102f691906116b0565b60405180910390f35b61031960048036038101906103149190611655565b610ae8565b60405161032691906116b0565b60405180910390f35b610337610b06565b60405161034491906117bb565b60405180910390f35b610367600480360381019061036291906117d6565b610b2c565b60405161037491906116da565b60405180910390f35b6103976004803603810190610392919061177f565b610bb3565b005b6060600380546103a890611845565b80601f01602080910402602001604051908101604052809291908181526020018280546103d490611845565b80156104215780601f106103f657610100808354040283529160200191610421565b820191906000526020600020905b81548152906001019060200180831161040457829003601f168201915b5050505050905090565b600061043f610438610d72565b8484610d7a565b6001905092915050565b6000600254905090565b6000610460848484610f43565b6000600160008673ffffffffffffffffffffffffffffffffffffffff1673ffffffffffffffffffffffffffffffffffffffff16815260200190815260200160002060006104ab610d72565b73ffffffffffffffffffffffffffffffffffffffff1673ffffffffffffffffffffffffffffffffffffffff1681526020019081526020016000205490508281101561052b576040517f08c379a0000000000000000000000000000000000000000000000000000000008152600401610522906118e8565b60405180910390fd5b61053f85610537610d72565b858403610d7a565b60019150509392505050565b6000600560009054906101000a900460ff16905090565b600061060461056f610d72565b84846001600061057d610d72565b73ffffffffffffffffffffffffffffffffffffffff1673ffffffffffffffffffffffffffffffffffffffff16815260200190815260200160002060008873ffffffffffffffffffffffffffffffffffffffff1673ffffffffffffffffffffffffffffffffffffffff168152602001908152602001600020546105ff9190611937565b610d7a565b6001905092915050565b600660009054906101000a900473ffffffffffffffffffffffffffffffffffffffff1673ffffffffffffffffffffffffffffffffffffffff163373ffffffffffffffffffffffffffffffffffffffff161461066857600080fd5b61067282826111c2565b5050565b60008060008373ffffffffffffffffffffffffffffffffffffffff1673ffffffffffffffffffffffffffffffffffffffff168152602001908152602001600020549050919050565b3373ffffffffffffffffffffffffffffffffffffffff16600560019054906101000a900473ffffffffffffffffffffffffffffffffffffffff1673ffffffffffffffffffffffffffffffffffffffff161461074e576040517f08c379a0000000000000000000000000000000000000000000000000000000008152600401610745906119d9565b60405180910390fd5b600073ffffffffffffffffffffffffffffffffffffffff16600560019054906101000a900473ffffffffffffffffffffffffffffffffffffffff1673ffffffffffffffffffffffffffffffffffffffff167f8be0079c531659141344cd1fd0a4f28419497f9722a3daafe3b4186f6b6457e060405160405180910390a36000600560016101000a81548173ffffffffffffffffffffffffffffffffffffffff021916908373ffffffffffffffffffffffffffffffffffffffff160217905550565b6000600560019054906101000a900473ffffffffffffffffffffffffffffffffffffffff16905090565b60606004805461084890611845565b80601f016020809104026020016040519081016040528092919081815260200182805461087490611845565b80156108c15780601f10610896576101008083540402835291602001916108c1565b820191906000526020600020905b8154815290600101906020018083116108a457829003601f168201915b5050505050905090565b6108d58282611321565b5050565b3373ffffffffffffffffffffffffffffffffffffffff16600560019054906101000a900473ffffffffffffffffffffffffffffffffffffffff1673ffffffffffffffffffffffffffffffffffffffff1614610969576040517f08c379a0000000000000000000000000000000000000000000000000000000008152600401610960906119d9565b60405180910390fd5b600560159054906101000a900460ff16156109b9576040517f08c379a00000000000000000000000000000000000000000000000000000000081526004016109b090611a45565b60405180910390fd5b80600660006101000a81548173ffffffffffffffffffffffffffffffffffffffff021916908373ffffffffffffffffffffffffffffffffffffffff16021790555050565b60008060016000610a0c610d72565b73ffffffffffffffffffffffffffffffffffffffff1673ffffffffffffffffffffffffffffffffffffffff16815260200190815260200160002060008573ffffffffffffffffffffffffffffffffffffffff1673ffffffffffffffffffffffffffffffffffffffff16815260200190815260200160002054905082811015610ac9576040517f08c379a0000000000000000000000000000000000000000000000000000000008152600401610ac090611ad7565b60405180910390fd5b610add610ad4610d72565b85858403610d7a565b600191505092915050565b6000610afc610af5610d72565b8484610f43565b6001905092915050565b600660009054906101000a900473ffffffffffffffffffffffffffffffffffffffff1681565b6000600160008473ffffffffffffffffffffffffffffffffffffffff1673ffffffffffffffffffffffffffffffffffffffff16815260200190815260200160002060008373ffffffffffffffffffffffffffffffffffffffff1673ffffffffffffffffffffffffffffffffffffffff16815260200190815260200160002054905092915050565b3373ffffffffffffffffffffffffffffffffffffffff16600560019054906101000a900473ffffffffffffffffffffffffffffffffffffffff1673ffffffffffffffffffffffffffffffffffffffff1614610c43576040517f08c379a0000000000000000000000000000000000000000000000000000000008152600401610c3a906119d9565b60405180910390fd5b600073ffffffffffffffffffffffffffffffffffffffff168173ffffffffffffffffffffffffffffffffffffffff1603610cb2576040517f08c379a0000000000000000000000000000000000000000000000000000000008152600401610ca990611b69565b60405180910390fd5b8073ffffffffffffffffffffffffffffffffffffffff16600560019054906101000a900473ffffffffffffffffffffffffffffffffffffffff1673ffffffffffffffffffffffffffffffffffffffff167f8be0079c531659141344cd1fd0a4f28419497f9722a3daafe3b4186f6b6457e060405160405180910390a380600560016101000a81548173ffffffffffffffffffffffffffffffffffffffff021916908373ffffffffffffffffffffffffffffffffffffffff16021790555050565b600033905090565b600073ffffffffffffffffffffffffffffffffffffffff168373ffffffffffffffffffffffffffffffffffffffff1603610de9576040517f08c379a0000000000000000000000000000000000000000000000000000000008152600401610de090611bfb565b60405180910390fd5b600073ffffffffffffffffffffffffffffffffffffffff168273ffffffffffffffffffffffffffffffffffffffff1603610e58576040517f08c379a0000000000000000000000000000000000000000000000000000000008152600401610e4f90611c8d565b60405180910390fd5b80600160008573ffffffffffffffffffffffffffffffffffffffff1673ffffffffffffffffffffffffffffffffffffffff16815260200190815260200160002060008473ffffffffffffffffffffffffffffffffffffffff1673ffffffffffffffffffffffffffffffffffffffff168152602001908152602001600020819055508173ffffffffffffffffffffffffffffffffffffffff168373ffffffffffffffffffffffffffffffffffffffff167f8c5be1e5ebec7d5bd14f71427d1e84f3dd0314c0f7b2291e5b200ac8c7c3b92583604051610f3691906116da565b60405180910390a3505050565b600073ffffffffffffffffffffffffffffffffffffffff168373ffffffffffffffffffffffffffffffffffffffff1603610fb2576040517f08c379a0000000000000000000000000000000000000000000000000000000008152600401610fa990611d1f565b60405180910390fd5b600073ffffffffffffffffffffffffffffffffffffffff168273ffffffffffffffffffffffffffffffffffffffff1603611021576040517f08c379a000000000000000000000000000000000000000000000000000000000815260040161101890611db1565b60405180910390fd5b61102c8383836114f7565b60008060008573ffffffffffffffffffffffffffffffffffffffff1673ffffffffffffffffffffffffffffffffffffffff168152602001908152602001600020549050818110156110b2576040517f08c379a00000000000000000000000000000000000000000000000000000000081526004016110a990611e43565b60405180910390fd5b8181036000808673ffffffffffffffffffffffffffffffffffffffff1673ffffffffffffffffffffffffffffffffffffffff16815260200190815260200160002081905550816000808573ffffffffffffffffffffffffffffffffffffffff1673ffffffffffffffffffffffffffffffffffffffff16815260200190815260200160002060008282546111459190611937565b925050819055508273ffffffffffffffffffffffffffffffffffffffff168473ffffffffffffffffffffffffffffffffffffffff167fddf252ad1be2c89b69c2b068fc378daa952ba7f163c4a11628f55a4df523b3ef846040516111a991906116da565b60405180910390a36111bc8484846114fc565b50505050565b600073ffffffffffffffffffffffffffffffffffffffff168273ffffffffffffffffffffffffffffffffffffffff1603611231576040517f08c379a000000000000000000000000000000000000000000000000000000000815260040161122890611eaf565b60405180910390fd5b61123d600083836114f7565b806002600082825461124f9190611937565b92505081905550806000808473ffffffffffffffffffffffffffffffffffffffff1673ffffffffffffffffffffffffffffffffffffffff16815260200190815260200160002060008282546112a49190611937565b925050819055508173ffffffffffffffffffffffffffffffffffffffff16600073ffffffffffffffffffffffffffffffffffffffff167fddf252ad1be2c89b69c2b068fc378daa952ba7f163c4a11628f55a4df523b3ef8360405161130991906116da565b60405180910390a361131d600083836114fc565b5050565b600073ffffffffffffffffffffffffffffffffffffffff168273ffffffffffffffffffffffffffffffffffffffff1603611390576040517f08c379a000000000000000000000000000000000000000000000000000000000815260040161138790611f41565b60405180910390fd5b61139c826000836114f7565b60008060008473ffffffffffffffffffffffffffffffffffffffff1673ffffffffffffffffffffffffffffffffffffffff16815260200190815260200160002054905081811015611422576040517f08c379a000000000000000000000000000000000000000000000000000000000815260040161141990611fd3565b60405180910390fd5b8181036000808573ffffffffffffffffffffffffffffffffffffffff1673ffffffffffffffffffffffffffffffffffffffff1681526020019081526020016000208190555081600260008282546114799190611ff3565b92505081905550600073ffffffffffffffffffffffffffffffffffffffff168373ffffffffffffffffffffffffffffffffffffffff167fddf252ad1be2c89b69c2b068fc378daa952ba7f163c4a11628f55a4df523b3ef846040516114de91906116da565b60405180910390a36114f2836000846114fc565b505050565b505050565b505050565b600081519050919050565b600082825260208201905092915050565b60005b8381101561153b578082015181840152602081019050611520565b8381111561154a576000848401525b50505050565b6000601f19601f8301169050919050565b600061156c82611501565b611576818561150c565b935061158681856020860161151d565b61158f81611550565b840191505092915050565b600060208201905081810360008301526115b48184611561565b905092915050565b600080fd5b600073ffffffffffffffffffffffffffffffffffffffff82169050919050565b60006115ec826115c1565b9050919050565b6115fc816115e1565b811461160757600080fd5b50565b600081359050611619816115f3565b92915050565b6000819050919050565b6116328161161f565b811461163d57600080fd5b50565b60008135905061164f81611629565b92915050565b6000806040838503121561166c5761166b6115bc565b5b600061167a8582860161160a565b925050602061168b85828601611640565b9150509250929050565b60008115159050919050565b6116aa81611695565b82525050565b60006020820190506116c560008301846116a1565b92915050565b6116d48161161f565b82525050565b60006020820190506116ef60008301846116cb565b92915050565b60008060006060848603121561170e5761170d6115bc565b5b600061171c8682870161160a565b935050602061172d8682870161160a565b925050604061173e86828701611640565b9150509250925092565b600060ff82169050919050565b61175e81611748565b82525050565b60006020820190506117796000830184611755565b92915050565b600060208284031215611795576117946115bc565b5b60006117a38482850161160a565b91505092915050565b6117b5816115e1565b82525050565b60006020820190506117d060008301846117ac565b92915050565b600080604083850312156117ed576117ec6115bc565b5b60006117fb8582860161160a565b925050602061180c8582860161160a565b9150509250929050565b7f4e487b7100000000000000000000000000000000000000000000000000000000600052602260045260246000fd5b6000600282049050600182168061185d57607f821691505b6020821081036118705761186f611816565b5b50919050565b7f45524332303a207472616e7366657220616d6f756e742065786365656473206160008201527f6c6c6f77616e6365000000000000000000000000000000000000000000000000602082015250565b60006118d260288361150c565b91506118dd82611876565b604082019050919050565b60006020820190508181036000830152611901816118c5565b9050919050565b7f4e487b7100000000000000000000000000000000000000000000000000000000600052601160045260246000fd5b60006119428261161f565b915061194d8361161f565b9250827fffffffffffffffffffffffffffffffffffffffffffffffffffffffffffffffff0382111561198257611981611908565b5b828201905092915050565b7f4f776e61626c653a2063616c6c6572206973206e6f7420746865206f776e6572600082015250565b60006119c360208361150c565b91506119ce8261198d565b602082019050919050565b600060208201905081810360008301526119f2816119b6565b9050919050565b7f6469737420616c72656164792073657400000000000000000000000000000000600082015250565b6000611a2f60108361150c565b9150611a3a826119f9565b602082019050919050565b60006020820190508181036000830152611a5e81611a22565b9050919050565b7f45524332303a2064656372656173656420616c6c6f77616e63652062656c6f7760008201527f207a65726f000000000000000000000000000000000000000000000000000000602082015250565b6000611ac160258361150c565b9150611acc82611a65565b604082019050919050565b60006020820190508181036000830152611af081611ab4565b9050919050565b7f4f776e61626c653a206e6577206f776e657220697320746865207a65726f206160008201527f6464726573730000000000000000000000000000000000000000000000000000602082015250565b6000611b5360268361150c565b9150611b5e82611af7565b604082019050919050565b60006020820190508181036000830152611b8281611b46565b9050919050565b7f45524332303a20617070726f76652066726f6d20746865207a65726f2061646460008201527f7265737300000000000000000000000000000000000000000000000000000000602082015250565b6000611be560248361150c565b9150611bf082611b89565b604082019050919050565b60006020820190508181036000830152611c1481611bd8565b9050919050565b7f45524332303a20617070726f766520746f20746865207a65726f20616464726560008201527f7373000000000000000000000000000000000000000000000000000000000000602082015250565b6000611c7760228361150c565b9150611c8282611c1b565b604082019050919050565b60006020820190508181036000830152611ca681611c6a565b9050919050565b7f45524332303a207472616e736665722066726f6d20746865207a65726f20616460008201527f6472657373000000000000000000000000000000000000000000000000000000602082015250565b6000611d0960258361150c565b9150611d1482611cad565b604082019050919050565b60006020820190508181036000830152611d3881611cfc565b9050919050565b7f45524332303a207472616e7366657220746f20746865207a65726f206164647260008201527f6573730000000000000000000000000000000000000000000000000000000000602082015250565b6000611d9b60238361150c565b9150611da682611d3f565b604082019050919050565b60006020820190508181036000830152611dca81611d8e565b9050919050565b7f45524332303a207472616e7366657220616d6f756e742065786365656473206260008201527f616c616e63650000000000000000000000000000000000000000000000000000602082015250565b6000611e2d60268361150c565b9150611e3882611dd1565b604082019050919050565b60006020820190508181036000830152611e5c81611e20565b9050919050565b7f45524332303a206d696e7420746f20746865207a65726f206164647265737300600082015250565b6000611e99601f8361150c565b9150611ea482611e63565b602082019050919050565b60006020820190508181036000830152611ec881611e8c565b9050919050565b7f45524332303a206275726e2066726f6d20746865207a65726f2061646472657360008201527f7300000000000000000000000000000000000000000000000000000000000000602082015250565b6000611f2b60218361150c565b9150611f3682611ecf565b604082019050919050565b60006020820190508181036000830152611f5a81611f1e565b9050919050565b7f45524332303a206275726e20616d6f756e7420657863656564732062616c616e60008201527f6365000000000000000000000000000000000000000000000000000000000000602082015250565b6000611fbd60228361150c565b9150611fc882611f61565b604082019050919050565b60006020820190508181036000830152611fec81611fb0565b9050919050565b6000611ffe8261161f565b91506120098361161f565b92508282101561201c5761201b611908565b5b82820390509291505056fea264697066735822122085d22d08fe21a6ad77bec9eea4006b337b9403d24200ed28a2d979358d51392e64736f6c634300080e0033",
					"opcodes": "PUSH1 0x80 PUSH1 0x40 MSTORE CALLVALUE DUP1 ISZERO PUSH3 0x11 JUMPI PUSH1 0x0 DUP1 REVERT JUMPDEST POP PUSH1 0x40 MLOAD PUSH3 0x24F4 CODESIZE SUB DUP1 PUSH3 0x24F4 DUP4 CODECOPY DUP2 DUP2 ADD PUSH1 0x40 MSTORE DUP2 ADD SWAP1 PUSH3 0x37 SWAP2 SWAP1 PUSH3 0x39E JUMP JUMPDEST DUP2 DUP2 PUSH1 0x12 DUP3 PUSH1 0x3 SWAP1 DUP1 MLOAD SWAP1 PUSH1 0x20 ADD SWAP1 PUSH3 0x53 SWAP3 SWAP2 SWAP1 PUSH3 0x151 JUMP JUMPDEST POP DUP2 PUSH1 0x4 SWAP1 DUP1 MLOAD SWAP1 PUSH1 0x20 ADD SWAP1 PUSH3 0x6C SWAP3 SWAP2 SWAP1 PUSH3 0x151 JUMP JUMPDEST POP DUP1 PUSH1 0x5 PUSH1 0x0 PUSH2 0x100 EXP DUP2 SLOAD DUP2 PUSH1 0xFF MUL NOT AND SWAP1 DUP4 PUSH1 0xFF AND MUL OR SWAP1 SSTORE POP POP POP POP CALLER PUSH1 0x5 PUSH1 0x1 PUSH2 0x100 EXP DUP2 SLOAD DUP2 PUSH20 0xFFFFFFFFFFFFFFFFFFFFFFFFFFFFFFFFFFFFFFFF MUL NOT AND SWAP1 DUP4 PUSH20 0xFFFFFFFFFFFFFFFFFFFFFFFFFFFFFFFFFFFFFFFF AND MUL OR SWAP1 SSTORE POP PUSH1 0x5 PUSH1 0x1 SWAP1 SLOAD SWAP1 PUSH2 0x100 EXP SWAP1 DIV PUSH20 0xFFFFFFFFFFFFFFFFFFFFFFFFFFFFFFFFFFFFFFFF AND PUSH20 0xFFFFFFFFFFFFFFFFFFFFFFFFFFFFFFFFFFFFFFFF AND PUSH1 0x0 PUSH20 0xFFFFFFFFFFFFFFFFFFFFFFFFFFFFFFFFFFFFFFFF AND PUSH32 0x8BE0079C531659141344CD1FD0A4F28419497F9722A3DAAFE3B4186F6B6457E0 PUSH1 0x40 MLOAD PUSH1 0x40 MLOAD DUP1 SWAP2 SUB SWAP1 LOG3 POP POP PUSH3 0x487 JUMP JUMPDEST DUP3 DUP1 SLOAD PUSH3 0x15F SWAP1 PUSH3 0x452 JUMP JUMPDEST SWAP1 PUSH1 0x0 MSTORE PUSH1 0x20 PUSH1 0x0 KECCAK256 SWAP1 PUSH1 0x1F ADD PUSH1 0x20 SWAP1 DIV DUP2 ADD SWAP3 DUP3 PUSH3 0x183 JUMPI PUSH1 0x0 DUP6 SSTORE PUSH3 0x1CF JUMP JUMPDEST DUP3 PUSH1 0x1F LT PUSH3 0x19E JUMPI DUP1 MLOAD PUSH1 0xFF NOT AND DUP4 DUP1 ADD OR DUP6 SSTORE PUSH3 0x1CF JUMP JUMPDEST DUP3 DUP1 ADD PUSH1 0x1 ADD DUP6 SSTORE DUP3 ISZERO PUSH3 0x1CF JUMPI SWAP2 DUP3 ADD JUMPDEST DUP3 DUP2 GT ISZERO PUSH3 0x1CE JUMPI DUP3 MLOAD DUP3 SSTORE SWAP2 PUSH1 0x20 ADD SWAP2 SWAP1 PUSH1 0x1 ADD SWAP1 PUSH3 0x1B1 JUMP JUMPDEST JUMPDEST POP SWAP1 POP PUSH3 0x1DE SWAP2 SWAP1 PUSH3 0x1E2 JUMP JUMPDEST POP SWAP1 JUMP JUMPDEST JUMPDEST DUP1 DUP3 GT ISZERO PUSH3 0x1FD JUMPI PUSH1 0x0 DUP2 PUSH1 0x0 SWAP1 SSTORE POP PUSH1 0x1 ADD PUSH3 0x1E3 JUMP JUMPDEST POP SWAP1 JUMP JUMPDEST PUSH1 0x0 PUSH1 0x40 MLOAD SWAP1 POP SWAP1 JUMP JUMPDEST PUSH1 0x0 DUP1 REVERT JUMPDEST PUSH1 0x0 DUP1 REVERT JUMPDEST PUSH1 0x0 DUP1 REVERT JUMPDEST PUSH1 0x0 DUP1 REVERT JUMPDEST PUSH1 0x0 PUSH1 0x1F NOT PUSH1 0x1F DUP4 ADD AND SWAP1 POP SWAP2 SWAP1 POP JUMP JUMPDEST PUSH32 0x4E487B7100000000000000000000000000000000000000000000000000000000 PUSH1 0x0 MSTORE PUSH1 0x41 PUSH1 0x4 MSTORE PUSH1 0x24 PUSH1 0x0 REVERT JUMPDEST PUSH3 0x26A DUP3 PUSH3 0x21F JUMP JUMPDEST DUP2 ADD DUP2 DUP2 LT PUSH8 0xFFFFFFFFFFFFFFFF DUP3 GT OR ISZERO PUSH3 0x28C JUMPI PUSH3 0x28B PUSH3 0x230 JUMP JUMPDEST JUMPDEST DUP1 PUSH1 0x40 MSTORE POP POP POP JUMP JUMPDEST PUSH1 0x0 PUSH3 0x2A1 PUSH3 0x201 JUMP JUMPDEST SWAP1 POP PUSH3 0x2AF DUP3 DUP3 PUSH3 0x25F JUMP JUMPDEST SWAP2 SWAP1 POP JUMP JUMPDEST PUSH1 0x0 PUSH8 0xFFFFFFFFFFFFFFFF DUP3 GT ISZERO PUSH3 0x2D2 JUMPI PUSH3 0x2D1 PUSH3 0x230 JUMP JUMPDEST JUMPDEST PUSH3 0x2DD DUP3 PUSH3 0x21F JUMP JUMPDEST SWAP1 POP PUSH1 0x20 DUP2 ADD SWAP1 POP SWAP2 SWAP1 POP JUMP JUMPDEST PUSH1 0x0 JUMPDEST DUP4 DUP2 LT ISZERO PUSH3 0x30A JUMPI DUP1 DUP3 ADD MLOAD DUP2 DUP5 ADD MSTORE PUSH1 0x20 DUP2 ADD SWAP1 POP PUSH3 0x2ED JUMP JUMPDEST DUP4 DUP2 GT ISZERO PUSH3 0x31A JUMPI PUSH1 0x0 DUP5 DUP5 ADD MSTORE JUMPDEST POP POP POP POP JUMP JUMPDEST PUSH1 0x0 PUSH3 0x337 PUSH3 0x331 DUP5 PUSH3 0x2B4 JUMP JUMPDEST PUSH3 0x295 JUMP JUMPDEST SWAP1 POP DUP3 DUP2 MSTORE PUSH1 0x20 DUP2 ADD DUP5 DUP5 DUP5 ADD GT ISZERO PUSH3 0x356 JUMPI PUSH3 0x355 PUSH3 0x21A JUMP JUMPDEST JUMPDEST PUSH3 0x363 DUP5 DUP3 DUP6 PUSH3 0x2EA JUMP JUMPDEST POP SWAP4 SWAP3 POP POP POP JUMP JUMPDEST PUSH1 0x0 DUP3 PUSH1 0x1F DUP4 ADD SLT PUSH3 0x383 JUMPI PUSH3 0x382 PUSH3 0x215 JUMP JUMPDEST JUMPDEST DUP2 MLOAD PUSH3 0x395 DUP5 DUP3 PUSH1 0x20 DUP7 ADD PUSH3 0x320 JUMP JUMPDEST SWAP2 POP POP SWAP3 SWAP2 POP POP JUMP JUMPDEST PUSH1 0x0 DUP1 PUSH1 0x40 DUP4 DUP6 SUB SLT ISZERO PUSH3 0x3B8 JUMPI PUSH3 0x3B7 PUSH3 0x20B JUMP JUMPDEST JUMPDEST PUSH1 0x0 DUP4 ADD MLOAD PUSH8 0xFFFFFFFFFFFFFFFF DUP2 GT ISZERO PUSH3 0x3D9 JUMPI PUSH3 0x3D8 PUSH3 0x210 JUMP JUMPDEST JUMPDEST PUSH3 0x3E7 DUP6 DUP3 DUP7 ADD PUSH3 0x36B JUMP JUMPDEST SWAP3 POP POP PUSH1 0x20 DUP4 ADD MLOAD PUSH8 0xFFFFFFFFFFFFFFFF DUP2 GT ISZERO PUSH3 0x40B JUMPI PUSH3 0x40A PUSH3 0x210 JUMP JUMPDEST JUMPDEST PUSH3 0x419 DUP6 DUP3 DUP7 ADD PUSH3 0x36B JUMP JUMPDEST SWAP2 POP POP SWAP3 POP SWAP3 SWAP1 POP JUMP JUMPDEST PUSH32 0x4E487B7100000000000000000000000000000000000000000000000000000000 PUSH1 0x0 MSTORE PUSH1 0x22 PUSH1 0x4 MSTORE PUSH1 0x24 PUSH1 0x0 REVERT JUMPDEST PUSH1 0x0 PUSH1 0x2 DUP3 DIV SWAP1 POP PUSH1 0x1 DUP3 AND DUP1 PUSH3 0x46B JUMPI PUSH1 0x7F DUP3 AND SWAP2 POP JUMPDEST PUSH1 0x20 DUP3 LT DUP2 SUB PUSH3 0x481 JUMPI PUSH3 0x480 PUSH3 0x423 JUMP JUMPDEST JUMPDEST POP SWAP2 SWAP1 POP JUMP JUMPDEST PUSH2 0x205D DUP1 PUSH3 0x497 PUSH1 0x0 CODECOPY PUSH1 0x0 RETURN INVALID PUSH1 0x80 PUSH1 0x40 MSTORE CALLVALUE DUP1 ISZERO PUSH2 0x10 JUMPI PUSH1 0x0 DUP1 REVERT JUMPDEST POP PUSH1 0x4 CALLDATASIZE LT PUSH2 0x116 JUMPI PUSH1 0x0 CALLDATALOAD PUSH1 0xE0 SHR DUP1 PUSH4 0x8DA5CB5B GT PUSH2 0xA2 JUMPI DUP1 PUSH4 0xA457C2D7 GT PUSH2 0x71 JUMPI DUP1 PUSH4 0xA457C2D7 EQ PUSH2 0x2CF JUMPI DUP1 PUSH4 0xA9059CBB EQ PUSH2 0x2FF JUMPI DUP1 PUSH4 0xBFE10928 EQ PUSH2 0x32F JUMPI DUP1 PUSH4 0xDD62ED3E EQ PUSH2 0x34D JUMPI DUP1 PUSH4 0xF2FDE38B EQ PUSH2 0x37D JUMPI PUSH2 0x116 JUMP JUMPDEST DUP1 PUSH4 0x8DA5CB5B EQ PUSH2 0x25B JUMPI DUP1 PUSH4 0x95D89B41 EQ PUSH2 0x279 JUMPI DUP1 PUSH4 0x9DC29FAC EQ PUSH2 0x297 JUMPI DUP1 PUSH4 0xA15DC177 EQ PUSH2 0x2B3 JUMPI PUSH2 0x116 JUMP JUMPDEST DUP1 PUSH4 0x313CE567 GT PUSH2 0xE9 JUMPI DUP1 PUSH4 0x313CE567 EQ PUSH2 0x1B7 JUMPI DUP1 PUSH4 0x39509351 EQ PUSH2 0x1D5 JUMPI DUP1 PUSH4 0x40C10F19 EQ PUSH2 0x205 JUMPI DUP1 PUSH4 0x70A08231 EQ PUSH2 0x221 JUMPI DUP1 PUSH4 0x715018A6 EQ PUSH2 0x251 JUMPI PUSH2 0x116 JUMP JUMPDEST DUP1 PUSH4 0x6FDDE03 EQ PUSH2 0x11B JUMPI DUP1 PUSH4 0x95EA7B3 EQ PUSH2 0x139 JUMPI DUP1 PUSH4 0x18160DDD EQ PUSH2 0x169 JUMPI DUP1 PUSH4 0x23B872DD EQ PUSH2 0x187 JUMPI JUMPDEST PUSH1 0x0 DUP1 REVERT JUMPDEST PUSH2 0x123 PUSH2 0x399 JUMP JUMPDEST PUSH1 0x40 MLOAD PUSH2 0x130 SWAP2 SWAP1 PUSH2 0x159A JUMP JUMPDEST PUSH1 0x40 MLOAD DUP1 SWAP2 SUB SWAP1 RETURN JUMPDEST PUSH2 0x153 PUSH1 0x4 DUP1 CALLDATASIZE SUB DUP2 ADD SWAP1 PUSH2 0x14E SWAP2 SWAP1 PUSH2 0x1655 JUMP JUMPDEST PUSH2 0x42B JUMP JUMPDEST PUSH1 0x40 MLOAD PUSH2 0x160 SWAP2 SWAP1 PUSH2 0x16B0 JUMP JUMPDEST PUSH1 0x40 MLOAD DUP1 SWAP2 SUB SWAP1 RETURN JUMPDEST PUSH2 0x171 PUSH2 0x449 JUMP JUMPDEST PUSH1 0x40 MLOAD PUSH2 0x17E SWAP2 SWAP1 PUSH2 0x16DA JUMP JUMPDEST PUSH1 0x40 MLOAD DUP1 SWAP2 SUB SWAP1 RETURN JUMPDEST PUSH2 0x1A1 PUSH1 0x4 DUP1 CALLDATASIZE SUB DUP2 ADD SWAP1 PUSH2 0x19C SWAP2 SWAP1 PUSH2 0x16F5 JUMP JUMPDEST PUSH2 0x453 JUMP JUMPDEST PUSH1 0x40 MLOAD PUSH2 0x1AE SWAP2 SWAP1 PUSH2 0x16B0 JUMP JUMPDEST PUSH1 0x40 MLOAD DUP1 SWAP2 SUB SWAP1 RETURN JUMPDEST PUSH2 0x1BF PUSH2 0x54B JUMP JUMPDEST PUSH1 0x40 MLOAD PUSH2 0x1CC SWAP2 SWAP1 PUSH2 0x1764 JUMP JUMPDEST PUSH1 0x40 MLOAD DUP1 SWAP2 SUB SWAP1 RETURN JUMPDEST PUSH2 0x1EF PUSH1 0x4 DUP1 CALLDATASIZE SUB DUP2 ADD SWAP1 PUSH2 0x1EA SWAP2 SWAP1 PUSH2 0x1655 JUMP JUMPDEST PUSH2 0x562 JUMP JUMPDEST PUSH1 0x40 MLOAD PUSH2 0x1FC SWAP2 SWAP1 PUSH2 0x16B0 JUMP JUMPDEST PUSH1 0x40 MLOAD DUP1 SWAP2 SUB SWAP1 RETURN JUMPDEST PUSH2 0x21F PUSH1 0x4 DUP1 CALLDATASIZE SUB DUP2 ADD SWAP1 PUSH2 0x21A SWAP2 SWAP1 PUSH2 0x1655 JUMP JUMPDEST PUSH2 0x60E JUMP JUMPDEST STOP JUMPDEST PUSH2 0x23B PUSH1 0x4 DUP1 CALLDATASIZE SUB DUP2 ADD SWAP1 PUSH2 0x236 SWAP2 SWAP1 PUSH2 0x177F JUMP JUMPDEST PUSH2 0x676 JUMP JUMPDEST PUSH1 0x40 MLOAD PUSH2 0x248 SWAP2 SWAP1 PUSH2 0x16DA JUMP JUMPDEST PUSH1 0x40 MLOAD DUP1 SWAP2 SUB SWAP1 RETURN JUMPDEST PUSH2 0x259 PUSH2 0x6BE JUMP JUMPDEST STOP JUMPDEST PUSH2 0x263 PUSH2 0x80F JUMP JUMPDEST PUSH1 0x40 MLOAD PUSH2 0x270 SWAP2 SWAP1 PUSH2 0x17BB JUMP JUMPDEST PUSH1 0x40 MLOAD DUP1 SWAP2 SUB SWAP1 RETURN JUMPDEST PUSH2 0x281 PUSH2 0x839 JUMP JUMPDEST PUSH1 0x40 MLOAD PUSH2 0x28E SWAP2 SWAP1 PUSH2 0x159A JUMP JUMPDEST PUSH1 0x40 MLOAD DUP1 SWAP2 SUB SWAP1 RETURN JUMPDEST PUSH2 0x2B1 PUSH1 0x4 DUP1 CALLDATASIZE SUB DUP2 ADD SWAP1 PUSH2 0x2AC SWAP2 SWAP1 PUSH2 0x1655 JUMP JUMPDEST PUSH2 0x8CB JUMP JUMPDEST STOP JUMPDEST PUSH2 0x2CD PUSH1 0x4 DUP1 CALLDATASIZE SUB DUP2 ADD SWAP1 PUSH2 0x2C8 SWAP2 SWAP1 PUSH2 0x177F JUMP JUMPDEST PUSH2 0x8D9 JUMP JUMPDEST STOP JUMPDEST PUSH2 0x2E9 PUSH1 0x4 DUP1 CALLDATASIZE SUB DUP2 ADD SWAP1 PUSH2 0x2E4 SWAP2 SWAP1 PUSH2 0x1655 JUMP JUMPDEST PUSH2 0x9FD JUMP JUMPDEST PUSH1 0x40 MLOAD PUSH2 0x2F6 SWAP2 SWAP1 PUSH2 0x16B0 JUMP JUMPDEST PUSH1 0x40 MLOAD DUP1 SWAP2 SUB SWAP1 RETURN JUMPDEST PUSH2 0x319 PUSH1 0x4 DUP1 CALLDATASIZE SUB DUP2 ADD SWAP1 PUSH2 0x314 SWAP2 SWAP1 PUSH2 0x1655 JUMP JUMPDEST PUSH2 0xAE8 JUMP JUMPDEST PUSH1 0x40 MLOAD PUSH2 0x326 SWAP2 SWAP1 PUSH2 0x16B0 JUMP JUMPDEST PUSH1 0x40 MLOAD DUP1 SWAP2 SUB SWAP1 RETURN JUMPDEST PUSH2 0x337 PUSH2 0xB06 JUMP JUMPDEST PUSH1 0x40 MLOAD PUSH2 0x344 SWAP2 SWAP1 PUSH2 0x17BB JUMP JUMPDEST PUSH1 0x40 MLOAD DUP1 SWAP2 SUB SWAP1 RETURN JUMPDEST PUSH2 0x367 PUSH1 0x4 DUP1 CALLDATASIZE SUB DUP2 ADD SWAP1 PUSH2 0x362 SWAP2 SWAP1 PUSH2 0x17D6 JUMP JUMPDEST PUSH2 0xB2C JUMP JUMPDEST PUSH1 0x40 MLOAD PUSH2 0x374 SWAP2 SWAP1 PUSH2 0x16DA JUMP JUMPDEST PUSH1 0x40 MLOAD DUP1 SWAP2 SUB SWAP1 RETURN JUMPDEST PUSH2 0x397 PUSH1 0x4 DUP1 CALLDATASIZE SUB DUP2 ADD SWAP1 PUSH2 0x392 SWAP2 SWAP1 PUSH2 0x177F JUMP JUMPDEST PUSH2 0xBB3 JUMP JUMPDEST STOP JUMPDEST PUSH1 0x60 PUSH1 0x3 DUP1 SLOAD PUSH2 0x3A8 SWAP1 PUSH2 0x1845 JUMP JUMPDEST DUP1 PUSH1 0x1F ADD PUSH1 0x20 DUP1 SWAP2 DIV MUL PUSH1 0x20 ADD PUSH1 0x40 MLOAD SWAP1 DUP2 ADD PUSH1 0x40 MSTORE DUP1 SWAP3 SWAP2 SWAP1 DUP2 DUP2 MSTORE PUSH1 0x20 ADD DUP3 DUP1 SLOAD PUSH2 0x3D4 SWAP1 PUSH2 0x1845 JUMP JUMPDEST DUP1 ISZERO PUSH2 0x421 JUMPI DUP1 PUSH1 0x1F LT PUSH2 0x3F6 JUMPI PUSH2 0x100 DUP1 DUP4 SLOAD DIV MUL DUP4 MSTORE SWAP2 PUSH1 0x20 ADD SWAP2 PUSH2 0x421 JUMP JUMPDEST DUP3 ADD SWAP2 SWAP1 PUSH1 0x0 MSTORE PUSH1 0x20 PUSH1 0x0 KECCAK256 SWAP1 JUMPDEST DUP2 SLOAD DUP2 MSTORE SWAP1 PUSH1 0x1 ADD SWAP1 PUSH1 0x20 ADD DUP1 DUP4 GT PUSH2 0x404 JUMPI DUP3 SWAP1 SUB PUSH1 0x1F AND DUP3 ADD SWAP2 JUMPDEST POP POP POP POP POP SWAP1 POP SWAP1 JUMP JUMPDEST PUSH1 0x0 PUSH2 0x43F PUSH2 0x438 PUSH2 0xD72 JUMP JUMPDEST DUP5 DUP5 PUSH2 0xD7A JUMP JUMPDEST PUSH1 0x1 SWAP1 POP SWAP3 SWAP2 POP POP JUMP JUMPDEST PUSH1 0x0 PUSH1 0x2 SLOAD SWAP1 POP SWAP1 JUMP JUMPDEST PUSH1 0x0 PUSH2 0x460 DUP5 DUP5 DUP5 PUSH2 0xF43 JUMP JUMPDEST PUSH1 0x0 PUSH1 0x1 PUSH1 0x0 DUP7 PUSH20 0xFFFFFFFFFFFFFFFFFFFFFFFFFFFFFFFFFFFFFFFF AND PUSH20 0xFFFFFFFFFFFFFFFFFFFFFFFFFFFFFFFFFFFFFFFF AND DUP2 MSTORE PUSH1 0x20 ADD SWAP1 DUP2 MSTORE PUSH1 0x20 ADD PUSH1 0x0 KECCAK256 PUSH1 0x0 PUSH2 0x4AB PUSH2 0xD72 JUMP JUMPDEST PUSH20 0xFFFFFFFFFFFFFFFFFFFFFFFFFFFFFFFFFFFFFFFF AND PUSH20 0xFFFFFFFFFFFFFFFFFFFFFFFFFFFFFFFFFFFFFFFF AND DUP2 MSTORE PUSH1 0x20 ADD SWAP1 DUP2 MSTORE PUSH1 0x20 ADD PUSH1 0x0 KECCAK256 SLOAD SWAP1 POP DUP3 DUP2 LT ISZERO PUSH2 0x52B JUMPI PUSH1 0x40 MLOAD PUSH32 0x8C379A000000000000000000000000000000000000000000000000000000000 DUP2 MSTORE PUSH1 0x4 ADD PUSH2 0x522 SWAP1 PUSH2 0x18E8 JUMP JUMPDEST PUSH1 0x40 MLOAD DUP1 SWAP2 SUB SWAP1 REVERT JUMPDEST PUSH2 0x53F DUP6 PUSH2 0x537 PUSH2 0xD72 JUMP JUMPDEST DUP6 DUP5 SUB PUSH2 0xD7A JUMP JUMPDEST PUSH1 0x1 SWAP2 POP POP SWAP4 SWAP3 POP POP POP JUMP JUMPDEST PUSH1 0x0 PUSH1 0x5 PUSH1 0x0 SWAP1 SLOAD SWAP1 PUSH2 0x100 EXP SWAP1 DIV PUSH1 0xFF AND SWAP1 POP SWAP1 JUMP JUMPDEST PUSH1 0x0 PUSH2 0x604 PUSH2 0x56F PUSH2 0xD72 JUMP JUMPDEST DUP5 DUP5 PUSH1 0x1 PUSH1 0x0 PUSH2 0x57D PUSH2 0xD72 JUMP JUMPDEST PUSH20 0xFFFFFFFFFFFFFFFFFFFFFFFFFFFFFFFFFFFFFFFF AND PUSH20 0xFFFFFFFFFFFFFFFFFFFFFFFFFFFFFFFFFFFFFFFF AND DUP2 MSTORE PUSH1 0x20 ADD SWAP1 DUP2 MSTORE PUSH1 0x20 ADD PUSH1 0x0 KECCAK256 PUSH1 0x0 DUP9 PUSH20 0xFFFFFFFFFFFFFFFFFFFFFFFFFFFFFFFFFFFFFFFF AND PUSH20 0xFFFFFFFFFFFFFFFFFFFFFFFFFFFFFFFFFFFFFFFF AND DUP2 MSTORE PUSH1 0x20 ADD SWAP1 DUP2 MSTORE PUSH1 0x20 ADD PUSH1 0x0 KECCAK256 SLOAD PUSH2 0x5FF SWAP2 SWAP1 PUSH2 0x1937 JUMP JUMPDEST PUSH2 0xD7A JUMP JUMPDEST PUSH1 0x1 SWAP1 POP SWAP3 SWAP2 POP POP JUMP JUMPDEST PUSH1 0x6 PUSH1 0x0 SWAP1 SLOAD SWAP1 PUSH2 0x100 EXP SWAP1 DIV PUSH20 0xFFFFFFFFFFFFFFFFFFFFFFFFFFFFFFFFFFFFFFFF AND PUSH20 0xFFFFFFFFFFFFFFFFFFFFFFFFFFFFFFFFFFFFFFFF AND CALLER PUSH20 0xFFFFFFFFFFFFFFFFFFFFFFFFFFFFFFFFFFFFFFFF AND EQ PUSH2 0x668 JUMPI PUSH1 0x0 DUP1 REVERT JUMPDEST PUSH2 0x672 DUP3 DUP3 PUSH2 0x11C2 JUMP JUMPDEST POP POP JUMP JUMPDEST PUSH1 0x0 DUP1 PUSH1 0x0 DUP4 PUSH20 0xFFFFFFFFFFFFFFFFFFFFFFFFFFFFFFFFFFFFFFFF AND PUSH20 0xFFFFFFFFFFFFFFFFFFFFFFFFFFFFFFFFFFFFFFFF AND DUP2 MSTORE PUSH1 0x20 ADD SWAP1 DUP2 MSTORE PUSH1 0x20 ADD PUSH1 0x0 KECCAK256 SLOAD SWAP1 POP SWAP2 SWAP1 POP JUMP JUMPDEST CALLER PUSH20 0xFFFFFFFFFFFFFFFFFFFFFFFFFFFFFFFFFFFFFFFF AND PUSH1 0x5 PUSH1 0x1 SWAP1 SLOAD SWAP1 PUSH2 0x100 EXP SWAP1 DIV PUSH20 0xFFFFFFFFFFFFFFFFFFFFFFFFFFFFFFFFFFFFFFFF AND PUSH20 0xFFFFFFFFFFFFFFFFFFFFFFFFFFFFFFFFFFFFFFFF AND EQ PUSH2 0x74E JUMPI PUSH1 0x40 MLOAD PUSH32 0x8C379A000000000000000000000000000000000000000000000000000000000 DUP2 MSTORE PUSH1 0x4 ADD PUSH2 0x745 SWAP1 PUSH2 0x19D9 JUMP JUMPDEST PUSH1 0x40 MLOAD DUP1 SWAP2 SUB SWAP1 REVERT JUMPDEST PUSH1 0x0 PUSH20 0xFFFFFFFFFFFFFFFFFFFFFFFFFFFFFFFFFFFFFFFF AND PUSH1 0x5 PUSH1 0x1 SWAP1 SLOAD SWAP1 PUSH2 0x100 EXP SWAP1 DIV PUSH20 0xFFFFFFFFFFFFFFFFFFFFFFFFFFFFFFFFFFFFFFFF AND PUSH20 0xFFFFFFFFFFFFFFFFFFFFFFFFFFFFFFFFFFFFFFFF AND PUSH32 0x8BE0079C531659141344CD1FD0A4F28419497F9722A3DAAFE3B4186F6B6457E0 PUSH1 0x40 MLOAD PUSH1 0x40 MLOAD DUP1 SWAP2 SUB SWAP1 LOG3 PUSH1 0x0 PUSH1 0x5 PUSH1 0x1 PUSH2 0x100 EXP DUP2 SLOAD DUP2 PUSH20 0xFFFFFFFFFFFFFFFFFFFFFFFFFFFFFFFFFFFFFFFF MUL NOT AND SWAP1 DUP4 PUSH20 0xFFFFFFFFFFFFFFFFFFFFFFFFFFFFFFFFFFFFFFFF AND MUL OR SWAP1 SSTORE POP JUMP JUMPDEST PUSH1 0x0 PUSH1 0x5 PUSH1 0x1 SWAP1 SLOAD SWAP1 PUSH2 0x100 EXP SWAP1 DIV PUSH20 0xFFFFFFFFFFFFFFFFFFFFFFFFFFFFFFFFFFFFFFFF AND SWAP1 POP SWAP1 JUMP JUMPDEST PUSH1 0x60 PUSH1 0x4 DUP1 SLOAD PUSH2 0x848 SWAP1 PUSH2 0x1845 JUMP JUMPDEST DUP1 PUSH1 0x1F ADD PUSH1 0x20 DUP1 SWAP2 DIV MUL PUSH1 0x20 ADD PUSH1 0x40 MLOAD SWAP1 DUP2 ADD PUSH1 0x40 MSTORE DUP1 SWAP3 SWAP2 SWAP1 DUP2 DUP2 MSTORE PUSH1 0x20 ADD DUP3 DUP1 SLOAD PUSH2 0x874 SWAP1 PUSH2 0x1845 JUMP JUMPDEST DUP1 ISZERO PUSH2 0x8C1 JUMPI DUP1 PUSH1 0x1F LT PUSH2 0x896 JUMPI PUSH2 0x100 DUP1 DUP4 SLOAD DIV MUL DUP4 MSTORE SWAP2 PUSH1 0x20 ADD SWAP2 PUSH2 0x8C1 JUMP JUMPDEST DUP3 ADD SWAP2 SWAP1 PUSH1 0x0 MSTORE PUSH1 0x20 PUSH1 0x0 KECCAK256 SWAP1 JUMPDEST DUP2 SLOAD DUP2 MSTORE SWAP1 PUSH1 0x1 ADD SWAP1 PUSH1 0x20 ADD DUP1 DUP4 GT PUSH2 0x8A4 JUMPI DUP3 SWAP1 SUB PUSH1 0x1F AND DUP3 ADD SWAP2 JUMPDEST POP POP POP POP POP SWAP1 POP SWAP1 JUMP JUMPDEST PUSH2 0x8D5 DUP3 DUP3 PUSH2 0x1321 JUMP JUMPDEST POP POP JUMP JUMPDEST CALLER PUSH20 0xFFFFFFFFFFFFFFFFFFFFFFFFFFFFFFFFFFFFFFFF AND PUSH1 0x5 PUSH1 0x1 SWAP1 SLOAD SWAP1 PUSH2 0x100 EXP SWAP1 DIV PUSH20 0xFFFFFFFFFFFFFFFFFFFFFFFFFFFFFFFFFFFFFFFF AND PUSH20 0xFFFFFFFFFFFFFFFFFFFFFFFFFFFFFFFFFFFFFFFF AND EQ PUSH2 0x969 JUMPI PUSH1 0x40 MLOAD PUSH32 0x8C379A000000000000000000000000000000000000000000000000000000000 DUP2 MSTORE PUSH1 0x4 ADD PUSH2 0x960 SWAP1 PUSH2 0x19D9 JUMP JUMPDEST PUSH1 0x40 MLOAD DUP1 SWAP2 SUB SWAP1 REVERT JUMPDEST PUSH1 0x5 PUSH1 0x15 SWAP1 SLOAD SWAP1 PUSH2 0x100 EXP SWAP1 DIV PUSH1 0xFF AND ISZERO PUSH2 0x9B9 JUMPI PUSH1 0x40 MLOAD PUSH32 0x8C379A000000000000000000000000000000000000000000000000000000000 DUP2 MSTORE PUSH1 0x4 ADD PUSH2 0x9B0 SWAP1 PUSH2 0x1A45 JUMP JUMPDEST PUSH1 0x40 MLOAD DUP1 SWAP2 SUB SWAP1 REVERT JUMPDEST DUP1 PUSH1 0x6 PUSH1 0x0 PUSH2 0x100 EXP DUP2 SLOAD DUP2 PUSH20 0xFFFFFFFFFFFFFFFFFFFFFFFFFFFFFFFFFFFFFFFF MUL NOT AND SWAP1 DUP4 PUSH20 0xFFFFFFFFFFFFFFFFFFFFFFFFFFFFFFFFFFFFFFFF AND MUL OR SWAP1 SSTORE POP POP JUMP JUMPDEST PUSH1 0x0 DUP1 PUSH1 0x1 PUSH1 0x0 PUSH2 0xA0C PUSH2 0xD72 JUMP JUMPDEST PUSH20 0xFFFFFFFFFFFFFFFFFFFFFFFFFFFFFFFFFFFFFFFF AND PUSH20 0xFFFFFFFFFFFFFFFFFFFFFFFFFFFFFFFFFFFFFFFF AND DUP2 MSTORE PUSH1 0x20 ADD SWAP1 DUP2 MSTORE PUSH1 0x20 ADD PUSH1 0x0 KECCAK256 PUSH1 0x0 DUP6 PUSH20 0xFFFFFFFFFFFFFFFFFFFFFFFFFFFFFFFFFFFFFFFF AND PUSH20 0xFFFFFFFFFFFFFFFFFFFFFFFFFFFFFFFFFFFFFFFF AND DUP2 MSTORE PUSH1 0x20 ADD SWAP1 DUP2 MSTORE PUSH1 0x20 ADD PUSH1 0x0 KECCAK256 SLOAD SWAP1 POP DUP3 DUP2 LT ISZERO PUSH2 0xAC9 JUMPI PUSH1 0x40 MLOAD PUSH32 0x8C379A000000000000000000000000000000000000000000000000000000000 DUP2 MSTORE PUSH1 0x4 ADD PUSH2 0xAC0 SWAP1 PUSH2 0x1AD7 JUMP JUMPDEST PUSH1 0x40 MLOAD DUP1 SWAP2 SUB SWAP1 REVERT JUMPDEST PUSH2 0xADD PUSH2 0xAD4 PUSH2 0xD72 JUMP JUMPDEST DUP6 DUP6 DUP5 SUB PUSH2 0xD7A JUMP JUMPDEST PUSH1 0x1 SWAP2 POP POP SWAP3 SWAP2 POP POP JUMP JUMPDEST PUSH1 0x0 PUSH2 0xAFC PUSH2 0xAF5 PUSH2 0xD72 JUMP JUMPDEST DUP5 DUP5 PUSH2 0xF43 JUMP JUMPDEST PUSH1 0x1 SWAP1 POP SWAP3 SWAP2 POP POP JUMP JUMPDEST PUSH1 0x6 PUSH1 0x0 SWAP1 SLOAD SWAP1 PUSH2 0x100 EXP SWAP1 DIV PUSH20 0xFFFFFFFFFFFFFFFFFFFFFFFFFFFFFFFFFFFFFFFF AND DUP2 JUMP JUMPDEST PUSH1 0x0 PUSH1 0x1 PUSH1 0x0 DUP5 PUSH20 0xFFFFFFFFFFFFFFFFFFFFFFFFFFFFFFFFFFFFFFFF AND PUSH20 0xFFFFFFFFFFFFFFFFFFFFFFFFFFFFFFFFFFFFFFFF AND DUP2 MSTORE PUSH1 0x20 ADD SWAP1 DUP2 MSTORE PUSH1 0x20 ADD PUSH1 0x0 KECCAK256 PUSH1 0x0 DUP4 PUSH20 0xFFFFFFFFFFFFFFFFFFFFFFFFFFFFFFFFFFFFFFFF AND PUSH20 0xFFFFFFFFFFFFFFFFFFFFFFFFFFFFFFFFFFFFFFFF AND DUP2 MSTORE PUSH1 0x20 ADD SWAP1 DUP2 MSTORE PUSH1 0x20 ADD PUSH1 0x0 KECCAK256 SLOAD SWAP1 POP SWAP3 SWAP2 POP POP JUMP JUMPDEST CALLER PUSH20 0xFFFFFFFFFFFFFFFFFFFFFFFFFFFFFFFFFFFFFFFF AND PUSH1 0x5 PUSH1 0x1 SWAP1 SLOAD SWAP1 PUSH2 0x100 EXP SWAP1 DIV PUSH20 0xFFFFFFFFFFFFFFFFFFFFFFFFFFFFFFFFFFFFFFFF AND PUSH20 0xFFFFFFFFFFFFFFFFFFFFFFFFFFFFFFFFFFFFFFFF AND EQ PUSH2 0xC43 JUMPI PUSH1 0x40 MLOAD PUSH32 0x8C379A000000000000000000000000000000000000000000000000000000000 DUP2 MSTORE PUSH1 0x4 ADD PUSH2 0xC3A SWAP1 PUSH2 0x19D9 JUMP JUMPDEST PUSH1 0x40 MLOAD DUP1 SWAP2 SUB SWAP1 REVERT JUMPDEST PUSH1 0x0 PUSH20 0xFFFFFFFFFFFFFFFFFFFFFFFFFFFFFFFFFFFFFFFF AND DUP2 PUSH20 0xFFFFFFFFFFFFFFFFFFFFFFFFFFFFFFFFFFFFFFFF AND SUB PUSH2 0xCB2 JUMPI PUSH1 0x40 MLOAD PUSH32 0x8C379A000000000000000000000000000000000000000000000000000000000 DUP2 MSTORE PUSH1 0x4 ADD PUSH2 0xCA9 SWAP1 PUSH2 0x1B69 JUMP JUMPDEST PUSH1 0x40 MLOAD DUP1 SWAP2 SUB SWAP1 REVERT JUMPDEST DUP1 PUSH20 0xFFFFFFFFFFFFFFFFFFFFFFFFFFFFFFFFFFFFFFFF AND PUSH1 0x5 PUSH1 0x1 SWAP1 SLOAD SWAP1 PUSH2 0x100 EXP SWAP1 DIV PUSH20 0xFFFFFFFFFFFFFFFFFFFFFFFFFFFFFFFFFFFFFFFF AND PUSH20 0xFFFFFFFFFFFFFFFFFFFFFFFFFFFFFFFFFFFFFFFF AND PUSH32 0x8BE0079C531659141344CD1FD0A4F28419497F9722A3DAAFE3B4186F6B6457E0 PUSH1 0x40 MLOAD PUSH1 0x40 MLOAD DUP1 SWAP2 SUB SWAP1 LOG3 DUP1 PUSH1 0x5 PUSH1 0x1 PUSH2 0x100 EXP DUP2 SLOAD DUP2 PUSH20 0xFFFFFFFFFFFFFFFFFFFFFFFFFFFFFFFFFFFFFFFF MUL NOT AND SWAP1 DUP4 PUSH20 0xFFFFFFFFFFFFFFFFFFFFFFFFFFFFFFFFFFFFFFFF AND MUL OR SWAP1 SSTORE POP POP JUMP JUMPDEST PUSH1 0x0 CALLER SWAP1 POP SWAP1 JUMP JUMPDEST PUSH1 0x0 PUSH20 0xFFFFFFFFFFFFFFFFFFFFFFFFFFFFFFFFFFFFFFFF AND DUP4 PUSH20 0xFFFFFFFFFFFFFFFFFFFFFFFFFFFFFFFFFFFFFFFF AND SUB PUSH2 0xDE9 JUMPI PUSH1 0x40 MLOAD PUSH32 0x8C379A000000000000000000000000000000000000000000000000000000000 DUP2 MSTORE PUSH1 0x4 ADD PUSH2 0xDE0 SWAP1 PUSH2 0x1BFB JUMP JUMPDEST PUSH1 0x40 MLOAD DUP1 SWAP2 SUB SWAP1 REVERT JUMPDEST PUSH1 0x0 PUSH20 0xFFFFFFFFFFFFFFFFFFFFFFFFFFFFFFFFFFFFFFFF AND DUP3 PUSH20 0xFFFFFFFFFFFFFFFFFFFFFFFFFFFFFFFFFFFFFFFF AND SUB PUSH2 0xE58 JUMPI PUSH1 0x40 MLOAD PUSH32 0x8C379A000000000000000000000000000000000000000000000000000000000 DUP2 MSTORE PUSH1 0x4 ADD PUSH2 0xE4F SWAP1 PUSH2 0x1C8D JUMP JUMPDEST PUSH1 0x40 MLOAD DUP1 SWAP2 SUB SWAP1 REVERT JUMPDEST DUP1 PUSH1 0x1 PUSH1 0x0 DUP6 PUSH20 0xFFFFFFFFFFFFFFFFFFFFFFFFFFFFFFFFFFFFFFFF AND PUSH20 0xFFFFFFFFFFFFFFFFFFFFFFFFFFFFFFFFFFFFFFFF AND DUP2 MSTORE PUSH1 0x20 ADD SWAP1 DUP2 MSTORE PUSH1 0x20 ADD PUSH1 0x0 KECCAK256 PUSH1 0x0 DUP5 PUSH20 0xFFFFFFFFFFFFFFFFFFFFFFFFFFFFFFFFFFFFFFFF AND PUSH20 0xFFFFFFFFFFFFFFFFFFFFFFFFFFFFFFFFFFFFFFFF AND DUP2 MSTORE PUSH1 0x20 ADD SWAP1 DUP2 MSTORE PUSH1 0x20 ADD PUSH1 0x0 KECCAK256 DUP2 SWAP1 SSTORE POP DUP2 PUSH20 0xFFFFFFFFFFFFFFFFFFFFFFFFFFFFFFFFFFFFFFFF AND DUP4 PUSH20 0xFFFFFFFFFFFFFFFFFFFFFFFFFFFFFFFFFFFFFFFF AND PUSH32 0x8C5BE1E5EBEC7D5BD14F71427D1E84F3DD0314C0F7B2291E5B200AC8C7C3B925 DUP4 PUSH1 0x40 MLOAD PUSH2 0xF36 SWAP2 SWAP1 PUSH2 0x16DA JUMP JUMPDEST PUSH1 0x40 MLOAD DUP1 SWAP2 SUB SWAP1 LOG3 POP POP POP JUMP JUMPDEST PUSH1 0x0 PUSH20 0xFFFFFFFFFFFFFFFFFFFFFFFFFFFFFFFFFFFFFFFF AND DUP4 PUSH20 0xFFFFFFFFFFFFFFFFFFFFFFFFFFFFFFFFFFFFFFFF AND SUB PUSH2 0xFB2 JUMPI PUSH1 0x40 MLOAD PUSH32 0x8C379A000000000000000000000000000000000000000000000000000000000 DUP2 MSTORE PUSH1 0x4 ADD PUSH2 0xFA9 SWAP1 PUSH2 0x1D1F JUMP JUMPDEST PUSH1 0x40 MLOAD DUP1 SWAP2 SUB SWAP1 REVERT JUMPDEST PUSH1 0x0 PUSH20 0xFFFFFFFFFFFFFFFFFFFFFFFFFFFFFFFFFFFFFFFF AND DUP3 PUSH20 0xFFFFFFFFFFFFFFFFFFFFFFFFFFFFFFFFFFFFFFFF AND SUB PUSH2 0x1021 JUMPI PUSH1 0x40 MLOAD PUSH32 0x8C379A000000000000000000000000000000000000000000000000000000000 DUP2 MSTORE PUSH1 0x4 ADD PUSH2 0x1018 SWAP1 PUSH2 0x1DB1 JUMP JUMPDEST PUSH1 0x40 MLOAD DUP1 SWAP2 SUB SWAP1 REVERT JUMPDEST PUSH2 0x102C DUP4 DUP4 DUP4 PUSH2 0x14F7 JUMP JUMPDEST PUSH1 0x0 DUP1 PUSH1 0x0 DUP6 PUSH20 0xFFFFFFFFFFFFFFFFFFFFFFFFFFFFFFFFFFFFFFFF AND PUSH20 0xFFFFFFFFFFFFFFFFFFFFFFFFFFFFFFFFFFFFFFFF AND DUP2 MSTORE PUSH1 0x20 ADD SWAP1 DUP2 MSTORE PUSH1 0x20 ADD PUSH1 0x0 KECCAK256 SLOAD SWAP1 POP DUP2 DUP2 LT ISZERO PUSH2 0x10B2 JUMPI PUSH1 0x40 MLOAD PUSH32 0x8C379A000000000000000000000000000000000000000000000000000000000 DUP2 MSTORE PUSH1 0x4 ADD PUSH2 0x10A9 SWAP1 PUSH2 0x1E43 JUMP JUMPDEST PUSH1 0x40 MLOAD DUP1 SWAP2 SUB SWAP1 REVERT JUMPDEST DUP2 DUP2 SUB PUSH1 0x0 DUP1 DUP7 PUSH20 0xFFFFFFFFFFFFFFFFFFFFFFFFFFFFFFFFFFFFFFFF AND PUSH20 0xFFFFFFFFFFFFFFFFFFFFFFFFFFFFFFFFFFFFFFFF AND DUP2 MSTORE PUSH1 0x20 ADD SWAP1 DUP2 MSTORE PUSH1 0x20 ADD PUSH1 0x0 KECCAK256 DUP2 SWAP1 SSTORE POP DUP2 PUSH1 0x0 DUP1 DUP6 PUSH20 0xFFFFFFFFFFFFFFFFFFFFFFFFFFFFFFFFFFFFFFFF AND PUSH20 0xFFFFFFFFFFFFFFFFFFFFFFFFFFFFFFFFFFFFFFFF AND DUP2 MSTORE PUSH1 0x20 ADD SWAP1 DUP2 MSTORE PUSH1 0x20 ADD PUSH1 0x0 KECCAK256 PUSH1 0x0 DUP3 DUP3 SLOAD PUSH2 0x1145 SWAP2 SWAP1 PUSH2 0x1937 JUMP JUMPDEST SWAP3 POP POP DUP2 SWAP1 SSTORE POP DUP3 PUSH20 0xFFFFFFFFFFFFFFFFFFFFFFFFFFFFFFFFFFFFFFFF AND DUP5 PUSH20 0xFFFFFFFFFFFFFFFFFFFFFFFFFFFFFFFFFFFFFFFF AND PUSH32 0xDDF252AD1BE2C89B69C2B068FC378DAA952BA7F163C4A11628F55A4DF523B3EF DUP5 PUSH1 0x40 MLOAD PUSH2 0x11A9 SWAP2 SWAP1 PUSH2 0x16DA JUMP JUMPDEST PUSH1 0x40 MLOAD DUP1 SWAP2 SUB SWAP1 LOG3 PUSH2 0x11BC DUP5 DUP5 DUP5 PUSH2 0x14FC JUMP JUMPDEST POP POP POP POP JUMP JUMPDEST PUSH1 0x0 PUSH20 0xFFFFFFFFFFFFFFFFFFFFFFFFFFFFFFFFFFFFFFFF AND DUP3 PUSH20 0xFFFFFFFFFFFFFFFFFFFFFFFFFFFFFFFFFFFFFFFF AND SUB PUSH2 0x1231 JUMPI PUSH1 0x40 MLOAD PUSH32 0x8C379A000000000000000000000000000000000000000000000000000000000 DUP2 MSTORE PUSH1 0x4 ADD PUSH2 0x1228 SWAP1 PUSH2 0x1EAF JUMP JUMPDEST PUSH1 0x40 MLOAD DUP1 SWAP2 SUB SWAP1 REVERT JUMPDEST PUSH2 0x123D PUSH1 0x0 DUP4 DUP4 PUSH2 0x14F7 JUMP JUMPDEST DUP1 PUSH1 0x2 PUSH1 0x0 DUP3 DUP3 SLOAD PUSH2 0x124F SWAP2 SWAP1 PUSH2 0x1937 JUMP JUMPDEST SWAP3 POP POP DUP2 SWAP1 SSTORE POP DUP1 PUSH1 0x0 DUP1 DUP5 PUSH20 0xFFFFFFFFFFFFFFFFFFFFFFFFFFFFFFFFFFFFFFFF AND PUSH20 0xFFFFFFFFFFFFFFFFFFFFFFFFFFFFFFFFFFFFFFFF AND DUP2 MSTORE PUSH1 0x20 ADD SWAP1 DUP2 MSTORE PUSH1 0x20 ADD PUSH1 0x0 KECCAK256 PUSH1 0x0 DUP3 DUP3 SLOAD PUSH2 0x12A4 SWAP2 SWAP1 PUSH2 0x1937 JUMP JUMPDEST SWAP3 POP POP DUP2 SWAP1 SSTORE POP DUP2 PUSH20 0xFFFFFFFFFFFFFFFFFFFFFFFFFFFFFFFFFFFFFFFF AND PUSH1 0x0 PUSH20 0xFFFFFFFFFFFFFFFFFFFFFFFFFFFFFFFFFFFFFFFF AND PUSH32 0xDDF252AD1BE2C89B69C2B068FC378DAA952BA7F163C4A11628F55A4DF523B3EF DUP4 PUSH1 0x40 MLOAD PUSH2 0x1309 SWAP2 SWAP1 PUSH2 0x16DA JUMP JUMPDEST PUSH1 0x40 MLOAD DUP1 SWAP2 SUB SWAP1 LOG3 PUSH2 0x131D PUSH1 0x0 DUP4 DUP4 PUSH2 0x14FC JUMP JUMPDEST POP POP JUMP JUMPDEST PUSH1 0x0 PUSH20 0xFFFFFFFFFFFFFFFFFFFFFFFFFFFFFFFFFFFFFFFF AND DUP3 PUSH20 0xFFFFFFFFFFFFFFFFFFFFFFFFFFFFFFFFFFFFFFFF AND SUB PUSH2 0x1390 JUMPI PUSH1 0x40 MLOAD PUSH32 0x8C379A000000000000000000000000000000000000000000000000000000000 DUP2 MSTORE PUSH1 0x4 ADD PUSH2 0x1387 SWAP1 PUSH2 0x1F41 JUMP JUMPDEST PUSH1 0x40 MLOAD DUP1 SWAP2 SUB SWAP1 REVERT JUMPDEST PUSH2 0x139C DUP3 PUSH1 0x0 DUP4 PUSH2 0x14F7 JUMP JUMPDEST PUSH1 0x0 DUP1 PUSH1 0x0 DUP5 PUSH20 0xFFFFFFFFFFFFFFFFFFFFFFFFFFFFFFFFFFFFFFFF AND PUSH20 0xFFFFFFFFFFFFFFFFFFFFFFFFFFFFFFFFFFFFFFFF AND DUP2 MSTORE PUSH1 0x20 ADD SWAP1 DUP2 MSTORE PUSH1 0x20 ADD PUSH1 0x0 KECCAK256 SLOAD SWAP1 POP DUP2 DUP2 LT ISZERO PUSH2 0x1422 JUMPI PUSH1 0x40 MLOAD PUSH32 0x8C379A000000000000000000000000000000000000000000000000000000000 DUP2 MSTORE PUSH1 0x4 ADD PUSH2 0x1419 SWAP1 PUSH2 0x1FD3 JUMP JUMPDEST PUSH1 0x40 MLOAD DUP1 SWAP2 SUB SWAP1 REVERT JUMPDEST DUP2 DUP2 SUB PUSH1 0x0 DUP1 DUP6 PUSH20 0xFFFFFFFFFFFFFFFFFFFFFFFFFFFFFFFFFFFFFFFF AND PUSH20 0xFFFFFFFFFFFFFFFFFFFFFFFFFFFFFFFFFFFFFFFF AND DUP2 MSTORE PUSH1 0x20 ADD SWAP1 DUP2 MSTORE PUSH1 0x20 ADD PUSH1 0x0 KECCAK256 DUP2 SWAP1 SSTORE POP DUP2 PUSH1 0x2 PUSH1 0x0 DUP3 DUP3 SLOAD PUSH2 0x1479 SWAP2 SWAP1 PUSH2 0x1FF3 JUMP JUMPDEST SWAP3 POP POP DUP2 SWAP1 SSTORE POP PUSH1 0x0 PUSH20 0xFFFFFFFFFFFFFFFFFFFFFFFFFFFFFFFFFFFFFFFF AND DUP4 PUSH20 0xFFFFFFFFFFFFFFFFFFFFFFFFFFFFFFFFFFFFFFFF AND PUSH32 0xDDF252AD1BE2C89B69C2B068FC378DAA952BA7F163C4A11628F55A4DF523B3EF DUP5 PUSH1 0x40 MLOAD PUSH2 0x14DE SWAP2 SWAP1 PUSH2 0x16DA JUMP JUMPDEST PUSH1 0x40 MLOAD DUP1 SWAP2 SUB SWAP1 LOG3 PUSH2 0x14F2 DUP4 PUSH1 0x0 DUP5 PUSH2 0x14FC JUMP JUMPDEST POP POP POP JUMP JUMPDEST POP POP POP JUMP JUMPDEST POP POP POP JUMP JUMPDEST PUSH1 0x0 DUP2 MLOAD SWAP1 POP SWAP2 SWAP1 POP JUMP JUMPDEST PUSH1 0x0 DUP3 DUP3 MSTORE PUSH1 0x20 DUP3 ADD SWAP1 POP SWAP3 SWAP2 POP POP JUMP JUMPDEST PUSH1 0x0 JUMPDEST DUP4 DUP2 LT ISZERO PUSH2 0x153B JUMPI DUP1 DUP3 ADD MLOAD DUP2 DUP5 ADD MSTORE PUSH1 0x20 DUP2 ADD SWAP1 POP PUSH2 0x1520 JUMP JUMPDEST DUP4 DUP2 GT ISZERO PUSH2 0x154A JUMPI PUSH1 0x0 DUP5 DUP5 ADD MSTORE JUMPDEST POP POP POP POP JUMP JUMPDEST PUSH1 0x0 PUSH1 0x1F NOT PUSH1 0x1F DUP4 ADD AND SWAP1 POP SWAP2 SWAP1 POP JUMP JUMPDEST PUSH1 0x0 PUSH2 0x156C DUP3 PUSH2 0x1501 JUMP JUMPDEST PUSH2 0x1576 DUP2 DUP6 PUSH2 0x150C JUMP JUMPDEST SWAP4 POP PUSH2 0x1586 DUP2 DUP6 PUSH1 0x20 DUP7 ADD PUSH2 0x151D JUMP JUMPDEST PUSH2 0x158F DUP2 PUSH2 0x1550 JUMP JUMPDEST DUP5 ADD SWAP2 POP POP SWAP3 SWAP2 POP POP JUMP JUMPDEST PUSH1 0x0 PUSH1 0x20 DUP3 ADD SWAP1 POP DUP2 DUP2 SUB PUSH1 0x0 DUP4 ADD MSTORE PUSH2 0x15B4 DUP2 DUP5 PUSH2 0x1561 JUMP JUMPDEST SWAP1 POP SWAP3 SWAP2 POP POP JUMP JUMPDEST PUSH1 0x0 DUP1 REVERT JUMPDEST PUSH1 0x0 PUSH20 0xFFFFFFFFFFFFFFFFFFFFFFFFFFFFFFFFFFFFFFFF DUP3 AND SWAP1 POP SWAP2 SWAP1 POP JUMP JUMPDEST PUSH1 0x0 PUSH2 0x15EC DUP3 PUSH2 0x15C1 JUMP JUMPDEST SWAP1 POP SWAP2 SWAP1 POP JUMP JUMPDEST PUSH2 0x15FC DUP2 PUSH2 0x15E1 JUMP JUMPDEST DUP2 EQ PUSH2 0x1607 JUMPI PUSH1 0x0 DUP1 REVERT JUMPDEST POP JUMP JUMPDEST PUSH1 0x0 DUP2 CALLDATALOAD SWAP1 POP PUSH2 0x1619 DUP2 PUSH2 0x15F3 JUMP JUMPDEST SWAP3 SWAP2 POP POP JUMP JUMPDEST PUSH1 0x0 DUP2 SWAP1 POP SWAP2 SWAP1 POP JUMP JUMPDEST PUSH2 0x1632 DUP2 PUSH2 0x161F JUMP JUMPDEST DUP2 EQ PUSH2 0x163D JUMPI PUSH1 0x0 DUP1 REVERT JUMPDEST POP JUMP JUMPDEST PUSH1 0x0 DUP2 CALLDATALOAD SWAP1 POP PUSH2 0x164F DUP2 PUSH2 0x1629 JUMP JUMPDEST SWAP3 SWAP2 POP POP JUMP JUMPDEST PUSH1 0x0 DUP1 PUSH1 0x40 DUP4 DUP6 SUB SLT ISZERO PUSH2 0x166C JUMPI PUSH2 0x166B PUSH2 0x15BC JUMP JUMPDEST JUMPDEST PUSH1 0x0 PUSH2 0x167A DUP6 DUP3 DUP7 ADD PUSH2 0x160A JUMP JUMPDEST SWAP3 POP POP PUSH1 0x20 PUSH2 0x168B DUP6 DUP3 DUP7 ADD PUSH2 0x1640 JUMP JUMPDEST SWAP2 POP POP SWAP3 POP SWAP3 SWAP1 POP JUMP JUMPDEST PUSH1 0x0 DUP2 ISZERO ISZERO SWAP1 POP SWAP2 SWAP1 POP JUMP JUMPDEST PUSH2 0x16AA DUP2 PUSH2 0x1695 JUMP JUMPDEST DUP3 MSTORE POP POP JUMP JUMPDEST PUSH1 0x0 PUSH1 0x20 DUP3 ADD SWAP1 POP PUSH2 0x16C5 PUSH1 0x0 DUP4 ADD DUP5 PUSH2 0x16A1 JUMP JUMPDEST SWAP3 SWAP2 POP POP JUMP JUMPDEST PUSH2 0x16D4 DUP2 PUSH2 0x161F JUMP JUMPDEST DUP3 MSTORE POP POP JUMP JUMPDEST PUSH1 0x0 PUSH1 0x20 DUP3 ADD SWAP1 POP PUSH2 0x16EF PUSH1 0x0 DUP4 ADD DUP5 PUSH2 0x16CB JUMP JUMPDEST SWAP3 SWAP2 POP POP JUMP JUMPDEST PUSH1 0x0 DUP1 PUSH1 0x0 PUSH1 0x60 DUP5 DUP7 SUB SLT ISZERO PUSH2 0x170E JUMPI PUSH2 0x170D PUSH2 0x15BC JUMP JUMPDEST JUMPDEST PUSH1 0x0 PUSH2 0x171C DUP7 DUP3 DUP8 ADD PUSH2 0x160A JUMP JUMPDEST SWAP4 POP POP PUSH1 0x20 PUSH2 0x172D DUP7 DUP3 DUP8 ADD PUSH2 0x160A JUMP JUMPDEST SWAP3 POP POP PUSH1 0x40 PUSH2 0x173E DUP7 DUP3 DUP8 ADD PUSH2 0x1640 JUMP JUMPDEST SWAP2 POP POP SWAP3 POP SWAP3 POP SWAP3 JUMP JUMPDEST PUSH1 0x0 PUSH1 0xFF DUP3 AND SWAP1 POP SWAP2 SWAP1 POP JUMP JUMPDEST PUSH2 0x175E DUP2 PUSH2 0x1748 JUMP JUMPDEST DUP3 MSTORE POP POP JUMP JUMPDEST PUSH1 0x0 PUSH1 0x20 DUP3 ADD SWAP1 POP PUSH2 0x1779 PUSH1 0x0 DUP4 ADD DUP5 PUSH2 0x1755 JUMP JUMPDEST SWAP3 SWAP2 POP POP JUMP JUMPDEST PUSH1 0x0 PUSH1 0x20 DUP3 DUP5 SUB SLT ISZERO PUSH2 0x1795 JUMPI PUSH2 0x1794 PUSH2 0x15BC JUMP JUMPDEST JUMPDEST PUSH1 0x0 PUSH2 0x17A3 DUP5 DUP3 DUP6 ADD PUSH2 0x160A JUMP JUMPDEST SWAP2 POP POP SWAP3 SWAP2 POP POP JUMP JUMPDEST PUSH2 0x17B5 DUP2 PUSH2 0x15E1 JUMP JUMPDEST DUP3 MSTORE POP POP JUMP JUMPDEST PUSH1 0x0 PUSH1 0x20 DUP3 ADD SWAP1 POP PUSH2 0x17D0 PUSH1 0x0 DUP4 ADD DUP5 PUSH2 0x17AC JUMP JUMPDEST SWAP3 SWAP2 POP POP JUMP JUMPDEST PUSH1 0x0 DUP1 PUSH1 0x40 DUP4 DUP6 SUB SLT ISZERO PUSH2 0x17ED JUMPI PUSH2 0x17EC PUSH2 0x15BC JUMP JUMPDEST JUMPDEST PUSH1 0x0 PUSH2 0x17FB DUP6 DUP3 DUP7 ADD PUSH2 0x160A JUMP JUMPDEST SWAP3 POP POP PUSH1 0x20 PUSH2 0x180C DUP6 DUP3 DUP7 ADD PUSH2 0x160A JUMP JUMPDEST SWAP2 POP POP SWAP3 POP SWAP3 SWAP1 POP JUMP JUMPDEST PUSH32 0x4E487B7100000000000000000000000000000000000000000000000000000000 PUSH1 0x0 MSTORE PUSH1 0x22 PUSH1 0x4 MSTORE PUSH1 0x24 PUSH1 0x0 REVERT JUMPDEST PUSH1 0x0 PUSH1 0x2 DUP3 DIV SWAP1 POP PUSH1 0x1 DUP3 AND DUP1 PUSH2 0x185D JUMPI PUSH1 0x7F DUP3 AND SWAP2 POP JUMPDEST PUSH1 0x20 DUP3 LT DUP2 SUB PUSH2 0x1870 JUMPI PUSH2 0x186F PUSH2 0x1816 JUMP JUMPDEST JUMPDEST POP SWAP2 SWAP1 POP JUMP JUMPDEST PUSH32 0x45524332303A207472616E7366657220616D6F756E7420657863656564732061 PUSH1 0x0 DUP3 ADD MSTORE PUSH32 0x6C6C6F77616E6365000000000000000000000000000000000000000000000000 PUSH1 0x20 DUP3 ADD MSTORE POP JUMP JUMPDEST PUSH1 0x0 PUSH2 0x18D2 PUSH1 0x28 DUP4 PUSH2 0x150C JUMP JUMPDEST SWAP2 POP PUSH2 0x18DD DUP3 PUSH2 0x1876 JUMP JUMPDEST PUSH1 0x40 DUP3 ADD SWAP1 POP SWAP2 SWAP1 POP JUMP JUMPDEST PUSH1 0x0 PUSH1 0x20 DUP3 ADD SWAP1 POP DUP2 DUP2 SUB PUSH1 0x0 DUP4 ADD MSTORE PUSH2 0x1901 DUP2 PUSH2 0x18C5 JUMP JUMPDEST SWAP1 POP SWAP2 SWAP1 POP JUMP JUMPDEST PUSH32 0x4E487B7100000000000000000000000000000000000000000000000000000000 PUSH1 0x0 MSTORE PUSH1 0x11 PUSH1 0x4 MSTORE PUSH1 0x24 PUSH1 0x0 REVERT JUMPDEST PUSH1 0x0 PUSH2 0x1942 DUP3 PUSH2 0x161F JUMP JUMPDEST SWAP2 POP PUSH2 0x194D DUP4 PUSH2 0x161F JUMP JUMPDEST SWAP3 POP DUP3 PUSH32 0xFFFFFFFFFFFFFFFFFFFFFFFFFFFFFFFFFFFFFFFFFFFFFFFFFFFFFFFFFFFFFFFF SUB DUP3 GT ISZERO PUSH2 0x1982 JUMPI PUSH2 0x1981 PUSH2 0x1908 JUMP JUMPDEST JUMPDEST DUP3 DUP3 ADD SWAP1 POP SWAP3 SWAP2 POP POP JUMP JUMPDEST PUSH32 0x4F776E61626C653A2063616C6C6572206973206E6F7420746865206F776E6572 PUSH1 0x0 DUP3 ADD MSTORE POP JUMP JUMPDEST PUSH1 0x0 PUSH2 0x19C3 PUSH1 0x20 DUP4 PUSH2 0x150C JUMP JUMPDEST SWAP2 POP PUSH2 0x19CE DUP3 PUSH2 0x198D JUMP JUMPDEST PUSH1 0x20 DUP3 ADD SWAP1 POP SWAP2 SWAP1 POP JUMP JUMPDEST PUSH1 0x0 PUSH1 0x20 DUP3 ADD SWAP1 POP DUP2 DUP2 SUB PUSH1 0x0 DUP4 ADD MSTORE PUSH2 0x19F2 DUP2 PUSH2 0x19B6 JUMP JUMPDEST SWAP1 POP SWAP2 SWAP1 POP JUMP JUMPDEST PUSH32 0x6469737420616C72656164792073657400000000000000000000000000000000 PUSH1 0x0 DUP3 ADD MSTORE POP JUMP JUMPDEST PUSH1 0x0 PUSH2 0x1A2F PUSH1 0x10 DUP4 PUSH2 0x150C JUMP JUMPDEST SWAP2 POP PUSH2 0x1A3A DUP3 PUSH2 0x19F9 JUMP JUMPDEST PUSH1 0x20 DUP3 ADD SWAP1 POP SWAP2 SWAP1 POP JUMP JUMPDEST PUSH1 0x0 PUSH1 0x20 DUP3 ADD SWAP1 POP DUP2 DUP2 SUB PUSH1 0x0 DUP4 ADD MSTORE PUSH2 0x1A5E DUP2 PUSH2 0x1A22 JUMP JUMPDEST SWAP1 POP SWAP2 SWAP1 POP JUMP JUMPDEST PUSH32 0x45524332303A2064656372656173656420616C6C6F77616E63652062656C6F77 PUSH1 0x0 DUP3 ADD MSTORE PUSH32 0x207A65726F000000000000000000000000000000000000000000000000000000 PUSH1 0x20 DUP3 ADD MSTORE POP JUMP JUMPDEST PUSH1 0x0 PUSH2 0x1AC1 PUSH1 0x25 DUP4 PUSH2 0x150C JUMP JUMPDEST SWAP2 POP PUSH2 0x1ACC DUP3 PUSH2 0x1A65 JUMP JUMPDEST PUSH1 0x40 DUP3 ADD SWAP1 POP SWAP2 SWAP1 POP JUMP JUMPDEST PUSH1 0x0 PUSH1 0x20 DUP3 ADD SWAP1 POP DUP2 DUP2 SUB PUSH1 0x0 DUP4 ADD MSTORE PUSH2 0x1AF0 DUP2 PUSH2 0x1AB4 JUMP JUMPDEST SWAP1 POP SWAP2 SWAP1 POP JUMP JUMPDEST PUSH32 0x4F776E61626C653A206E6577206F776E657220697320746865207A65726F2061 PUSH1 0x0 DUP3 ADD MSTORE PUSH32 0x6464726573730000000000000000000000000000000000000000000000000000 PUSH1 0x20 DUP3 ADD MSTORE POP JUMP JUMPDEST PUSH1 0x0 PUSH2 0x1B53 PUSH1 0x26 DUP4 PUSH2 0x150C JUMP JUMPDEST SWAP2 POP PUSH2 0x1B5E DUP3 PUSH2 0x1AF7 JUMP JUMPDEST PUSH1 0x40 DUP3 ADD SWAP1 POP SWAP2 SWAP1 POP JUMP JUMPDEST PUSH1 0x0 PUSH1 0x20 DUP3 ADD SWAP1 POP DUP2 DUP2 SUB PUSH1 0x0 DUP4 ADD MSTORE PUSH2 0x1B82 DUP2 PUSH2 0x1B46 JUMP JUMPDEST SWAP1 POP SWAP2 SWAP1 POP JUMP JUMPDEST PUSH32 0x45524332303A20617070726F76652066726F6D20746865207A65726F20616464 PUSH1 0x0 DUP3 ADD MSTORE PUSH32 0x7265737300000000000000000000000000000000000000000000000000000000 PUSH1 0x20 DUP3 ADD MSTORE POP JUMP JUMPDEST PUSH1 0x0 PUSH2 0x1BE5 PUSH1 0x24 DUP4 PUSH2 0x150C JUMP JUMPDEST SWAP2 POP PUSH2 0x1BF0 DUP3 PUSH2 0x1B89 JUMP JUMPDEST PUSH1 0x40 DUP3 ADD SWAP1 POP SWAP2 SWAP1 POP JUMP JUMPDEST PUSH1 0x0 PUSH1 0x20 DUP3 ADD SWAP1 POP DUP2 DUP2 SUB PUSH1 0x0 DUP4 ADD MSTORE PUSH2 0x1C14 DUP2 PUSH2 0x1BD8 JUMP JUMPDEST SWAP1 POP SWAP2 SWAP1 POP JUMP JUMPDEST PUSH32 0x45524332303A20617070726F766520746F20746865207A65726F206164647265 PUSH1 0x0 DUP3 ADD MSTORE PUSH32 0x7373000000000000000000000000000000000000000000000000000000000000 PUSH1 0x20 DUP3 ADD MSTORE POP JUMP JUMPDEST PUSH1 0x0 PUSH2 0x1C77 PUSH1 0x22 DUP4 PUSH2 0x150C JUMP JUMPDEST SWAP2 POP PUSH2 0x1C82 DUP3 PUSH2 0x1C1B JUMP JUMPDEST PUSH1 0x40 DUP3 ADD SWAP1 POP SWAP2 SWAP1 POP JUMP JUMPDEST PUSH1 0x0 PUSH1 0x20 DUP3 ADD SWAP1 POP DUP2 DUP2 SUB PUSH1 0x0 DUP4 ADD MSTORE PUSH2 0x1CA6 DUP2 PUSH2 0x1C6A JUMP JUMPDEST SWAP1 POP SWAP2 SWAP1 POP JUMP JUMPDEST PUSH32 0x45524332303A207472616E736665722066726F6D20746865207A65726F206164 PUSH1 0x0 DUP3 ADD MSTORE PUSH32 0x6472657373000000000000000000000000000000000000000000000000000000 PUSH1 0x20 DUP3 ADD MSTORE POP JUMP JUMPDEST PUSH1 0x0 PUSH2 0x1D09 PUSH1 0x25 DUP4 PUSH2 0x150C JUMP JUMPDEST SWAP2 POP PUSH2 0x1D14 DUP3 PUSH2 0x1CAD JUMP JUMPDEST PUSH1 0x40 DUP3 ADD SWAP1 POP SWAP2 SWAP1 POP JUMP JUMPDEST PUSH1 0x0 PUSH1 0x20 DUP3 ADD SWAP1 POP DUP2 DUP2 SUB PUSH1 0x0 DUP4 ADD MSTORE PUSH2 0x1D38 DUP2 PUSH2 0x1CFC JUMP JUMPDEST SWAP1 POP SWAP2 SWAP1 POP JUMP JUMPDEST PUSH32 0x45524332303A207472616E7366657220746F20746865207A65726F2061646472 PUSH1 0x0 DUP3 ADD MSTORE PUSH32 0x6573730000000000000000000000000000000000000000000000000000000000 PUSH1 0x20 DUP3 ADD MSTORE POP JUMP JUMPDEST PUSH1 0x0 PUSH2 0x1D9B PUSH1 0x23 DUP4 PUSH2 0x150C JUMP JUMPDEST SWAP2 POP PUSH2 0x1DA6 DUP3 PUSH2 0x1D3F JUMP JUMPDEST PUSH1 0x40 DUP3 ADD SWAP1 POP SWAP2 SWAP1 POP JUMP JUMPDEST PUSH1 0x0 PUSH1 0x20 DUP3 ADD SWAP1 POP DUP2 DUP2 SUB PUSH1 0x0 DUP4 ADD MSTORE PUSH2 0x1DCA DUP2 PUSH2 0x1D8E JUMP JUMPDEST SWAP1 POP SWAP2 SWAP1 POP JUMP JUMPDEST PUSH32 0x45524332303A207472616E7366657220616D6F756E7420657863656564732062 PUSH1 0x0 DUP3 ADD MSTORE PUSH32 0x616C616E63650000000000000000000000000000000000000000000000000000 PUSH1 0x20 DUP3 ADD MSTORE POP JUMP JUMPDEST PUSH1 0x0 PUSH2 0x1E2D PUSH1 0x26 DUP4 PUSH2 0x150C JUMP JUMPDEST SWAP2 POP PUSH2 0x1E38 DUP3 PUSH2 0x1DD1 JUMP JUMPDEST PUSH1 0x40 DUP3 ADD SWAP1 POP SWAP2 SWAP1 POP JUMP JUMPDEST PUSH1 0x0 PUSH1 0x20 DUP3 ADD SWAP1 POP DUP2 DUP2 SUB PUSH1 0x0 DUP4 ADD MSTORE PUSH2 0x1E5C DUP2 PUSH2 0x1E20 JUMP JUMPDEST SWAP1 POP SWAP2 SWAP1 POP JUMP JUMPDEST PUSH32 0x45524332303A206D696E7420746F20746865207A65726F206164647265737300 PUSH1 0x0 DUP3 ADD MSTORE POP JUMP JUMPDEST PUSH1 0x0 PUSH2 0x1E99 PUSH1 0x1F DUP4 PUSH2 0x150C JUMP JUMPDEST SWAP2 POP PUSH2 0x1EA4 DUP3 PUSH2 0x1E63 JUMP JUMPDEST PUSH1 0x20 DUP3 ADD SWAP1 POP SWAP2 SWAP1 POP JUMP JUMPDEST PUSH1 0x0 PUSH1 0x20 DUP3 ADD SWAP1 POP DUP2 DUP2 SUB PUSH1 0x0 DUP4 ADD MSTORE PUSH2 0x1EC8 DUP2 PUSH2 0x1E8C JUMP JUMPDEST SWAP1 POP SWAP2 SWAP1 POP JUMP JUMPDEST PUSH32 0x45524332303A206275726E2066726F6D20746865207A65726F20616464726573 PUSH1 0x0 DUP3 ADD MSTORE PUSH32 0x7300000000000000000000000000000000000000000000000000000000000000 PUSH1 0x20 DUP3 ADD MSTORE POP JUMP JUMPDEST PUSH1 0x0 PUSH2 0x1F2B PUSH1 0x21 DUP4 PUSH2 0x150C JUMP JUMPDEST SWAP2 POP PUSH2 0x1F36 DUP3 PUSH2 0x1ECF JUMP JUMPDEST PUSH1 0x40 DUP3 ADD SWAP1 POP SWAP2 SWAP1 POP JUMP JUMPDEST PUSH1 0x0 PUSH1 0x20 DUP3 ADD SWAP1 POP DUP2 DUP2 SUB PUSH1 0x0 DUP4 ADD MSTORE PUSH2 0x1F5A DUP2 PUSH2 0x1F1E JUMP JUMPDEST SWAP1 POP SWAP2 SWAP1 POP JUMP JUMPDEST PUSH32 0x45524332303A206275726E20616D6F756E7420657863656564732062616C616E PUSH1 0x0 DUP3 ADD MSTORE PUSH32 0x6365000000000000000000000000000000000000000000000000000000000000 PUSH1 0x20 DUP3 ADD MSTORE POP JUMP JUMPDEST PUSH1 0x0 PUSH2 0x1FBD PUSH1 0x22 DUP4 PUSH2 0x150C JUMP JUMPDEST SWAP2 POP PUSH2 0x1FC8 DUP3 PUSH2 0x1F61 JUMP JUMPDEST PUSH1 0x40 DUP3 ADD SWAP1 POP SWAP2 SWAP1 POP JUMP JUMPDEST PUSH1 0x0 PUSH1 0x20 DUP3 ADD SWAP1 POP DUP2 DUP2 SUB PUSH1 0x0 DUP4 ADD MSTORE PUSH2 0x1FEC DUP2 PUSH2 0x1FB0 JUMP JUMPDEST SWAP1 POP SWAP2 SWAP1 POP JUMP JUMPDEST PUSH1 0x0 PUSH2 0x1FFE DUP3 PUSH2 0x161F JUMP JUMPDEST SWAP2 POP PUSH2 0x2009 DUP4 PUSH2 0x161F JUMP JUMPDEST SWAP3 POP DUP3 DUP3 LT ISZERO PUSH2 0x201C JUMPI PUSH2 0x201B PUSH2 0x1908 JUMP JUMPDEST JUMPDEST DUP3 DUP3 SUB SWAP1 POP SWAP3 SWAP2 POP POP JUMP INVALID LOG2 PUSH5 0x6970667358 0x22 SLT KECCAK256 DUP6 0xD2 0x2D ADDMOD INVALID 0x21 0xA6 0xAD PUSH24 0xBEC9EEA4006B337B9403D24200ED28A2D979358D51392E64 PUSH20 0x6F6C634300080E00330000000000000000000000 "
				},
				"gasEstimates": {
					"creation": {
						"codeDepositCost": "1657000",
						"executionCost": "infinite",
						"totalCost": "infinite"
					},
					"external": {
						"allowance(address,address)": "infinite",
						"approve(address,uint256)": "infinite",
						"balanceOf(address)": "2930",
						"burn(address,uint256)": "infinite",
						"decimals()": "2502",
						"decreaseAllowance(address,uint256)": "infinite",
						"distributor()": "2580",
						"increaseAllowance(address,uint256)": "infinite",
						"mint(address,uint256)": "infinite",
						"name()": "infinite",
						"owner()": "2595",
						"renounceOwnership()": "30523",
						"setDisributor(address)": "29237",
						"symbol()": "infinite",
						"totalSupply()": "2505",
						"transfer(address,uint256)": "infinite",
						"transferFrom(address,address,uint256)": "infinite",
						"transferOwnership(address)": "30868"
					}
				},
				"methodIdentifiers": {
					"allowance(address,address)": "dd62ed3e",
					"approve(address,uint256)": "095ea7b3",
					"balanceOf(address)": "70a08231",
					"burn(address,uint256)": "9dc29fac",
					"decimals()": "313ce567",
					"decreaseAllowance(address,uint256)": "a457c2d7",
					"distributor()": "bfe10928",
					"increaseAllowance(address,uint256)": "39509351",
					"mint(address,uint256)": "40c10f19",
					"name()": "06fdde03",
					"owner()": "8da5cb5b",
					"renounceOwnership()": "715018a6",
					"setDisributor(address)": "a15dc177",
					"symbol()": "95d89b41",
					"totalSupply()": "18160ddd",
					"transfer(address,uint256)": "a9059cbb",
					"transferFrom(address,address,uint256)": "23b872dd",
					"transferOwnership(address)": "f2fde38b"
				}
			},
			"storageLayout": {
				"storage": [
					{
						"astId": 213,
						"contract": "contracts/Generosity.sol:Generosity",
						"label": "_balances",
						"offset": 0,
						"slot": "0",
						"type": "t_mapping(t_address,t_uint256)"
					},
					{
						"astId": 219,
						"contract": "contracts/Generosity.sol:Generosity",
						"label": "_allowances",
						"offset": 0,
						"slot": "1",
						"type": "t_mapping(t_address,t_mapping(t_address,t_uint256))"
					},
					{
						"astId": 221,
						"contract": "contracts/Generosity.sol:Generosity",
						"label": "_totalSupply",
						"offset": 0,
						"slot": "2",
						"type": "t_uint256"
					},
					{
						"astId": 223,
						"contract": "contracts/Generosity.sol:Generosity",
						"label": "_name",
						"offset": 0,
						"slot": "3",
						"type": "t_string_storage"
					},
					{
						"astId": 225,
						"contract": "contracts/Generosity.sol:Generosity",
						"label": "_symbol",
						"offset": 0,
						"slot": "4",
						"type": "t_string_storage"
					},
					{
						"astId": 227,
						"contract": "contracts/Generosity.sol:Generosity",
						"label": "_decimals",
						"offset": 0,
						"slot": "5",
						"type": "t_uint8"
					},
					{
						"astId": 757,
						"contract": "contracts/Generosity.sol:Generosity",
						"label": "_owner",
						"offset": 1,
						"slot": "5",
						"type": "t_address"
					},
					{
						"astId": 9,
						"contract": "contracts/Generosity.sol:Generosity",
						"label": "distributorSet",
						"offset": 21,
						"slot": "5",
						"type": "t_bool"
					},
					{
						"astId": 11,
						"contract": "contracts/Generosity.sol:Generosity",
						"label": "distributor",
						"offset": 0,
						"slot": "6",
						"type": "t_address"
					}
				],
				"types": {
					"t_address": {
						"encoding": "inplace",
						"label": "address",
						"numberOfBytes": "20"
					},
					"t_bool": {
						"encoding": "inplace",
						"label": "bool",
						"numberOfBytes": "1"
					},
					"t_mapping(t_address,t_mapping(t_address,t_uint256))": {
						"encoding": "mapping",
						"key": "t_address",
						"label": "mapping(address => mapping(address => uint256))",
						"numberOfBytes": "32",
						"value": "t_mapping(t_address,t_uint256)"
					},
					"t_mapping(t_address,t_uint256)": {
						"encoding": "mapping",
						"key": "t_address",
						"label": "mapping(address => uint256)",
						"numberOfBytes": "32",
						"value": "t_uint256"
					},
					"t_string_storage": {
						"encoding": "bytes",
						"label": "string",
						"numberOfBytes": "32"
					},
					"t_uint256": {
						"encoding": "inplace",
						"label": "uint256",
						"numberOfBytes": "32"
					},
					"t_uint8": {
						"encoding": "inplace",
						"label": "uint8",
						"numberOfBytes": "1"
					}
				}
			},
			"userdoc": {
				"kind": "user",
				"methods": {},
				"version": 1
			}
		}
	}
}