{
	"contracts/SocialDiamond.sol": {
		"SocialDiamond": {
			"abi": [
				{
					"inputs": [
						{
							"internalType": "address",
							"name": "_initialAsset",
							"type": "address"
						},
						{
							"internalType": "uint256[]",
							"name": "_tiers",
							"type": "uint256[]"
						}
					],
					"stateMutability": "nonpayable",
					"type": "constructor"
				},
				{
					"anonymous": false,
					"inputs": [
						{
							"indexed": true,
							"internalType": "address",
							"name": "previousOwner",
							"type": "address"
						},
						{
							"indexed": true,
							"internalType": "address",
							"name": "newOwner",
							"type": "address"
						}
					],
					"name": "OwnershipTransferred",
					"type": "event"
				},
				{
					"inputs": [
						{
							"internalType": "address",
							"name": "_recipient",
							"type": "address"
						}
					],
					"name": "claim",
					"outputs": [],
					"stateMutability": "nonpayable",
					"type": "function"
				},
				{
					"inputs": [
						{
							"internalType": "address",
							"name": "",
							"type": "address"
						}
					],
					"name": "countTweetsFunded",
					"outputs": [
						{
							"internalType": "uint256",
							"name": "",
							"type": "uint256"
						}
					],
					"stateMutability": "view",
					"type": "function"
				},
				{
					"inputs": [
						{
							"internalType": "address",
							"name": "",
							"type": "address"
						}
					],
					"name": "currentTier",
					"outputs": [
						{
							"internalType": "uint256",
							"name": "",
							"type": "uint256"
						}
					],
					"stateMutability": "view",
					"type": "function"
				},
				{
					"inputs": [
						{
							"internalType": "address",
							"name": "",
							"type": "address"
						}
					],
					"name": "donated",
					"outputs": [
						{
							"internalType": "uint256",
							"name": "",
							"type": "uint256"
						}
					],
					"stateMutability": "view",
					"type": "function"
				},
				{
					"inputs": [
						{
							"internalType": "uint256",
							"name": "_amount",
							"type": "uint256"
						},
						{
							"internalType": "string",
							"name": "_link",
							"type": "string"
						},
						{
							"internalType": "address",
							"name": "_recipient",
							"type": "address"
						}
					],
					"name": "fundTweet",
					"outputs": [],
					"stateMutability": "nonpayable",
					"type": "function"
				},
				{
					"inputs": [
						{
							"internalType": "string",
							"name": "",
							"type": "string"
						},
						{
							"internalType": "address",
							"name": "",
							"type": "address"
						}
					],
					"name": "funded",
					"outputs": [
						{
							"internalType": "bool",
							"name": "",
							"type": "bool"
						}
					],
					"stateMutability": "view",
					"type": "function"
				},
				{
					"inputs": [
						{
							"internalType": "address",
							"name": "_user",
							"type": "address"
						},
						{
							"internalType": "uint256",
							"name": "_index",
							"type": "uint256"
						}
					],
					"name": "getTweetFundedForUser",
					"outputs": [
						{
							"internalType": "string",
							"name": "",
							"type": "string"
						}
					],
					"stateMutability": "view",
					"type": "function"
				},
				{
					"inputs": [
						{
							"internalType": "string",
							"name": "_tweet",
							"type": "string"
						}
					],
					"name": "getTweetFunding",
					"outputs": [
						{
							"internalType": "uint256",
							"name": "",
							"type": "uint256"
						}
					],
					"stateMutability": "view",
					"type": "function"
				},
				{
					"inputs": [
						{
							"internalType": "address",
							"name": "_user",
							"type": "address"
						}
					],
					"name": "getUserRewards",
					"outputs": [
						{
							"components": [
								{
									"internalType": "uint256",
									"name": "claimed",
									"type": "uint256"
								},
								{
									"internalType": "uint256",
									"name": "pending",
									"type": "uint256"
								}
							],
							"internalType": "struct SocialDiamond.Reward",
							"name": "_rewards",
							"type": "tuple"
						}
					],
					"stateMutability": "view",
					"type": "function"
				},
				{
					"inputs": [],
					"name": "owner",
					"outputs": [
						{
							"internalType": "address",
							"name": "",
							"type": "address"
						}
					],
					"stateMutability": "view",
					"type": "function"
				},
				{
					"inputs": [],
					"name": "renounceOwnership",
					"outputs": [],
					"stateMutability": "nonpayable",
					"type": "function"
				},
				{
					"inputs": [
						{
							"internalType": "address",
							"name": "_asset",
							"type": "address"
						}
					],
					"name": "replaceAsset",
					"outputs": [],
					"stateMutability": "nonpayable",
					"type": "function"
				},
				{
					"inputs": [
						{
							"internalType": "address",
							"name": "_newReward",
							"type": "address"
						}
					],
					"name": "replaceReward",
					"outputs": [],
					"stateMutability": "nonpayable",
					"type": "function"
				},
				{
					"inputs": [
						{
							"internalType": "string",
							"name": "",
							"type": "string"
						}
					],
					"name": "rewardPerTweet",
					"outputs": [
						{
							"internalType": "uint256",
							"name": "",
							"type": "uint256"
						}
					],
					"stateMutability": "view",
					"type": "function"
				},
				{
					"inputs": [],
					"name": "totalTransactionVolume",
					"outputs": [
						{
							"internalType": "uint256",
							"name": "",
							"type": "uint256"
						}
					],
					"stateMutability": "view",
					"type": "function"
				},
				{
					"inputs": [
						{
							"internalType": "address",
							"name": "newOwner_",
							"type": "address"
						}
					],
					"name": "transferOwnership",
					"outputs": [],
					"stateMutability": "nonpayable",
					"type": "function"
				},
				{
					"inputs": [
						{
							"internalType": "address",
							"name": "",
							"type": "address"
						},
						{
							"internalType": "uint256",
							"name": "",
							"type": "uint256"
						}
					],
					"name": "tweetsFundedForUser",
					"outputs": [
						{
							"internalType": "string",
							"name": "",
							"type": "string"
						}
					],
					"stateMutability": "view",
					"type": "function"
				},
				{
					"inputs": [
						{
							"internalType": "address",
							"name": "",
							"type": "address"
						}
					],
					"name": "userRewards",
					"outputs": [
						{
							"internalType": "uint256",
							"name": "claimed",
							"type": "uint256"
						},
						{
							"internalType": "uint256",
							"name": "pending",
							"type": "uint256"
						}
					],
					"stateMutability": "view",
					"type": "function"
				}
			],
			"devdoc": {
				"kind": "dev",
				"methods": {},
				"version": 1
			},
			"evm": {
				"assembly": "    /* \"contracts/SocialDiamond.sol\":211:2781  contract SocialDiamond is Ownable {... */\n  mstore(0x40, 0x80)\n    /* \"contracts/SocialDiamond.sol\":906:1028  constructor(address _initialAsset, uint256[] memory _tiers) Ownable() {... */\n  callvalue\n  dup1\n  iszero\n  tag_1\n  jumpi\n  0x00\n  dup1\n  revert\ntag_1:\n  pop\n  mload(0x40)\n  sub(codesize, bytecodeSize)\n  dup1\n  bytecodeSize\n  dup4\n  codecopy\n  dup2\n  dup2\n  add\n  0x40\n  mstore\n  dup2\n  add\n  swap1\n  tag_2\n  swap2\n  swap1\n  tag_3\n  jump\t// in\ntag_2:\n    /* \"contracts/libraries/Ownable.sol\":235:245  msg.sender */\n  caller\n    /* \"contracts/libraries/Ownable.sol\":226:232  _owner */\n  0x00\n  dup1\n    /* \"contracts/libraries/Ownable.sol\":226:245  _owner = msg.sender */\n  0x0100\n  exp\n  dup2\n  sload\n  dup2\n  0xffffffffffffffffffffffffffffffffffffffff\n  mul\n  not\n  and\n  swap1\n  dup4\n  0xffffffffffffffffffffffffffffffffffffffff\n  and\n  mul\n  or\n  swap1\n  sstore\n  pop\n    /* \"contracts/libraries/Ownable.sol\":289:295  _owner */\n  0x00\n  dup1\n  sload\n  swap1\n  0x0100\n  exp\n  swap1\n  div\n  0xffffffffffffffffffffffffffffffffffffffff\n  and\n    /* \"contracts/libraries/Ownable.sol\":256:296  OwnershipTransferred(address(0), _owner) */\n  0xffffffffffffffffffffffffffffffffffffffff\n  and\n    /* \"contracts/libraries/Ownable.sol\":285:286  0 */\n  0x00\n    /* \"contracts/libraries/Ownable.sol\":256:296  OwnershipTransferred(address(0), _owner) */\n  0xffffffffffffffffffffffffffffffffffffffff\n  and\n  0x8be0079c531659141344cd1fd0a4f28419497f9722a3daafe3b4186f6b6457e0\n  mload(0x40)\n  mload(0x40)\n  dup1\n  swap2\n  sub\n  swap1\n  log3\n    /* \"contracts/SocialDiamond.sol\":990:1003  _initialAsset */\n  dup2\n    /* \"contracts/SocialDiamond.sol\":982:987  asset */\n  0x02\n  0x00\n    /* \"contracts/SocialDiamond.sol\":982:1003  asset = _initialAsset */\n  0x0100\n  exp\n  dup2\n  sload\n  dup2\n  0xffffffffffffffffffffffffffffffffffffffff\n  mul\n  not\n  and\n  swap1\n  dup4\n  0xffffffffffffffffffffffffffffffffffffffff\n  and\n  mul\n  or\n  swap1\n  sstore\n  pop\n    /* \"contracts/SocialDiamond.sol\":1017:1023  _tiers */\n  dup1\n    /* \"contracts/SocialDiamond.sol\":1009:1014  tiers */\n  0x09\n    /* \"contracts/SocialDiamond.sol\":1009:1023  tiers = _tiers */\n  swap1\n  dup1\n  mload\n  swap1\n  0x20\n  add\n  swap1\n  tag_8\n  swap3\n  swap2\n  swap1\n  tag_9\n  jump\t// in\ntag_8:\n  pop\n    /* \"contracts/SocialDiamond.sol\":906:1028  constructor(address _initialAsset, uint256[] memory _tiers) Ownable() {... */\n  pop\n  pop\n    /* \"contracts/SocialDiamond.sol\":211:2781  contract SocialDiamond is Ownable {... */\n  jump(tag_10)\ntag_9:\n  dup3\n  dup1\n  sload\n  dup3\n  dup3\n  sstore\n  swap1\n  0x00\n  mstore\n  keccak256(0x00, 0x20)\n  swap1\n  dup2\n  add\n  swap3\n  dup3\n  iszero\n  tag_11\n  jumpi\n  swap2\n  0x20\n  mul\n  dup3\n  add\ntag_12:\n  dup3\n  dup2\n  gt\n  iszero\n  tag_13\n  jumpi\n  dup3\n  mload\n  dup3\n  sstore\n  swap2\n  0x20\n  add\n  swap2\n  swap1\n  0x01\n  add\n  swap1\n  jump(tag_12)\ntag_13:\ntag_11:\n  pop\n  swap1\n  pop\n  tag_14\n  swap2\n  swap1\n  tag_15\n  jump\t// in\ntag_14:\n  pop\n  swap1\n  jump\t// out\ntag_15:\ntag_16:\n  dup1\n  dup3\n  gt\n  iszero\n  tag_17\n  jumpi\n  0x00\n  dup2\n  0x00\n  swap1\n  sstore\n  pop\n  0x01\n  add\n  jump(tag_16)\ntag_17:\n  pop\n  swap1\n  jump\t// out\n    /* \"#utility.yul\":7:82   */\ntag_18:\n    /* \"#utility.yul\":40:46   */\n  0x00\n    /* \"#utility.yul\":73:75   */\n  0x40\n    /* \"#utility.yul\":67:76   */\n  mload\n    /* \"#utility.yul\":57:76   */\n  swap1\n  pop\n    /* \"#utility.yul\":7:82   */\n  swap1\n  jump\t// out\n    /* \"#utility.yul\":88:205   */\ntag_19:\n    /* \"#utility.yul\":197:198   */\n  0x00\n    /* \"#utility.yul\":194:195   */\n  dup1\n    /* \"#utility.yul\":187:199   */\n  revert\n    /* \"#utility.yul\":211:328   */\ntag_20:\n    /* \"#utility.yul\":320:321   */\n  0x00\n    /* \"#utility.yul\":317:318   */\n  dup1\n    /* \"#utility.yul\":310:322   */\n  revert\n    /* \"#utility.yul\":334:460   */\ntag_21:\n    /* \"#utility.yul\":371:378   */\n  0x00\n    /* \"#utility.yul\":411:453   */\n  0xffffffffffffffffffffffffffffffffffffffff\n    /* \"#utility.yul\":404:409   */\n  dup3\n    /* \"#utility.yul\":400:454   */\n  and\n    /* \"#utility.yul\":389:454   */\n  swap1\n  pop\n    /* \"#utility.yul\":334:460   */\n  swap2\n  swap1\n  pop\n  jump\t// out\n    /* \"#utility.yul\":466:562   */\ntag_22:\n    /* \"#utility.yul\":503:510   */\n  0x00\n    /* \"#utility.yul\":532:556   */\n  tag_43\n    /* \"#utility.yul\":550:555   */\n  dup3\n    /* \"#utility.yul\":532:556   */\n  tag_21\n  jump\t// in\ntag_43:\n    /* \"#utility.yul\":521:556   */\n  swap1\n  pop\n    /* \"#utility.yul\":466:562   */\n  swap2\n  swap1\n  pop\n  jump\t// out\n    /* \"#utility.yul\":568:690   */\ntag_23:\n    /* \"#utility.yul\":641:665   */\n  tag_45\n    /* \"#utility.yul\":659:664   */\n  dup2\n    /* \"#utility.yul\":641:665   */\n  tag_22\n  jump\t// in\ntag_45:\n    /* \"#utility.yul\":634:639   */\n  dup2\n    /* \"#utility.yul\":631:666   */\n  eq\n    /* \"#utility.yul\":621:684   */\n  tag_46\n  jumpi\n    /* \"#utility.yul\":680:681   */\n  0x00\n    /* \"#utility.yul\":677:678   */\n  dup1\n    /* \"#utility.yul\":670:682   */\n  revert\n    /* \"#utility.yul\":621:684   */\ntag_46:\n    /* \"#utility.yul\":568:690   */\n  pop\n  jump\t// out\n    /* \"#utility.yul\":696:839   */\ntag_24:\n    /* \"#utility.yul\":753:758   */\n  0x00\n    /* \"#utility.yul\":784:790   */\n  dup2\n    /* \"#utility.yul\":778:791   */\n  mload\n    /* \"#utility.yul\":769:791   */\n  swap1\n  pop\n    /* \"#utility.yul\":800:833   */\n  tag_48\n    /* \"#utility.yul\":827:832   */\n  dup2\n    /* \"#utility.yul\":800:833   */\n  tag_23\n  jump\t// in\ntag_48:\n    /* \"#utility.yul\":696:839   */\n  swap3\n  swap2\n  pop\n  pop\n  jump\t// out\n    /* \"#utility.yul\":845:962   */\ntag_25:\n    /* \"#utility.yul\":954:955   */\n  0x00\n    /* \"#utility.yul\":951:952   */\n  dup1\n    /* \"#utility.yul\":944:956   */\n  revert\n    /* \"#utility.yul\":968:1070   */\ntag_26:\n    /* \"#utility.yul\":1009:1015   */\n  0x00\n    /* \"#utility.yul\":1060:1062   */\n  0x1f\n    /* \"#utility.yul\":1056:1063   */\n  not\n    /* \"#utility.yul\":1051:1053   */\n  0x1f\n    /* \"#utility.yul\":1044:1049   */\n  dup4\n    /* \"#utility.yul\":1040:1054   */\n  add\n    /* \"#utility.yul\":1036:1064   */\n  and\n    /* \"#utility.yul\":1026:1064   */\n  swap1\n  pop\n    /* \"#utility.yul\":968:1070   */\n  swap2\n  swap1\n  pop\n  jump\t// out\n    /* \"#utility.yul\":1076:1256   */\ntag_27:\n    /* \"#utility.yul\":1124:1201   */\n  0x4e487b7100000000000000000000000000000000000000000000000000000000\n    /* \"#utility.yul\":1121:1122   */\n  0x00\n    /* \"#utility.yul\":1114:1202   */\n  mstore\n    /* \"#utility.yul\":1221:1225   */\n  0x41\n    /* \"#utility.yul\":1218:1219   */\n  0x04\n    /* \"#utility.yul\":1211:1226   */\n  mstore\n    /* \"#utility.yul\":1245:1249   */\n  0x24\n    /* \"#utility.yul\":1242:1243   */\n  0x00\n    /* \"#utility.yul\":1235:1250   */\n  revert\n    /* \"#utility.yul\":1262:1543   */\ntag_28:\n    /* \"#utility.yul\":1345:1372   */\n  tag_53\n    /* \"#utility.yul\":1367:1371   */\n  dup3\n    /* \"#utility.yul\":1345:1372   */\n  tag_26\n  jump\t// in\ntag_53:\n    /* \"#utility.yul\":1337:1343   */\n  dup2\n    /* \"#utility.yul\":1333:1373   */\n  add\n    /* \"#utility.yul\":1475:1481   */\n  dup2\n    /* \"#utility.yul\":1463:1473   */\n  dup2\n    /* \"#utility.yul\":1460:1482   */\n  lt\n    /* \"#utility.yul\":1439:1457   */\n  0xffffffffffffffff\n    /* \"#utility.yul\":1427:1437   */\n  dup3\n    /* \"#utility.yul\":1424:1458   */\n  gt\n    /* \"#utility.yul\":1421:1483   */\n  or\n    /* \"#utility.yul\":1418:1506   */\n  iszero\n  tag_54\n  jumpi\n    /* \"#utility.yul\":1486:1504   */\n  tag_55\n  tag_27\n  jump\t// in\ntag_55:\n    /* \"#utility.yul\":1418:1506   */\ntag_54:\n    /* \"#utility.yul\":1526:1536   */\n  dup1\n    /* \"#utility.yul\":1522:1524   */\n  0x40\n    /* \"#utility.yul\":1515:1537   */\n  mstore\n    /* \"#utility.yul\":1305:1543   */\n  pop\n    /* \"#utility.yul\":1262:1543   */\n  pop\n  pop\n  jump\t// out\n    /* \"#utility.yul\":1549:1678   */\ntag_29:\n    /* \"#utility.yul\":1583:1589   */\n  0x00\n    /* \"#utility.yul\":1610:1630   */\n  tag_57\n  tag_18\n  jump\t// in\ntag_57:\n    /* \"#utility.yul\":1600:1630   */\n  swap1\n  pop\n    /* \"#utility.yul\":1639:1672   */\n  tag_58\n    /* \"#utility.yul\":1667:1671   */\n  dup3\n    /* \"#utility.yul\":1659:1665   */\n  dup3\n    /* \"#utility.yul\":1639:1672   */\n  tag_28\n  jump\t// in\ntag_58:\n    /* \"#utility.yul\":1549:1678   */\n  swap2\n  swap1\n  pop\n  jump\t// out\n    /* \"#utility.yul\":1684:1995   */\ntag_30:\n    /* \"#utility.yul\":1761:1765   */\n  0x00\n    /* \"#utility.yul\":1851:1869   */\n  0xffffffffffffffff\n    /* \"#utility.yul\":1843:1849   */\n  dup3\n    /* \"#utility.yul\":1840:1870   */\n  gt\n    /* \"#utility.yul\":1837:1893   */\n  iszero\n  tag_60\n  jumpi\n    /* \"#utility.yul\":1873:1891   */\n  tag_61\n  tag_27\n  jump\t// in\ntag_61:\n    /* \"#utility.yul\":1837:1893   */\ntag_60:\n    /* \"#utility.yul\":1923:1927   */\n  0x20\n    /* \"#utility.yul\":1915:1921   */\n  dup3\n    /* \"#utility.yul\":1911:1928   */\n  mul\n    /* \"#utility.yul\":1903:1928   */\n  swap1\n  pop\n    /* \"#utility.yul\":1983:1987   */\n  0x20\n    /* \"#utility.yul\":1977:1981   */\n  dup2\n    /* \"#utility.yul\":1973:1988   */\n  add\n    /* \"#utility.yul\":1965:1988   */\n  swap1\n  pop\n    /* \"#utility.yul\":1684:1995   */\n  swap2\n  swap1\n  pop\n  jump\t// out\n    /* \"#utility.yul\":2001:2118   */\ntag_31:\n    /* \"#utility.yul\":2110:2111   */\n  0x00\n    /* \"#utility.yul\":2107:2108   */\n  dup1\n    /* \"#utility.yul\":2100:2112   */\n  revert\n    /* \"#utility.yul\":2124:2201   */\ntag_32:\n    /* \"#utility.yul\":2161:2168   */\n  0x00\n    /* \"#utility.yul\":2190:2195   */\n  dup2\n    /* \"#utility.yul\":2179:2195   */\n  swap1\n  pop\n    /* \"#utility.yul\":2124:2201   */\n  swap2\n  swap1\n  pop\n  jump\t// out\n    /* \"#utility.yul\":2207:2329   */\ntag_33:\n    /* \"#utility.yul\":2280:2304   */\n  tag_65\n    /* \"#utility.yul\":2298:2303   */\n  dup2\n    /* \"#utility.yul\":2280:2304   */\n  tag_32\n  jump\t// in\ntag_65:\n    /* \"#utility.yul\":2273:2278   */\n  dup2\n    /* \"#utility.yul\":2270:2305   */\n  eq\n    /* \"#utility.yul\":2260:2323   */\n  tag_66\n  jumpi\n    /* \"#utility.yul\":2319:2320   */\n  0x00\n    /* \"#utility.yul\":2316:2317   */\n  dup1\n    /* \"#utility.yul\":2309:2321   */\n  revert\n    /* \"#utility.yul\":2260:2323   */\ntag_66:\n    /* \"#utility.yul\":2207:2329   */\n  pop\n  jump\t// out\n    /* \"#utility.yul\":2335:2478   */\ntag_34:\n    /* \"#utility.yul\":2392:2397   */\n  0x00\n    /* \"#utility.yul\":2423:2429   */\n  dup2\n    /* \"#utility.yul\":2417:2430   */\n  mload\n    /* \"#utility.yul\":2408:2430   */\n  swap1\n  pop\n    /* \"#utility.yul\":2439:2472   */\n  tag_68\n    /* \"#utility.yul\":2466:2471   */\n  dup2\n    /* \"#utility.yul\":2439:2472   */\n  tag_33\n  jump\t// in\ntag_68:\n    /* \"#utility.yul\":2335:2478   */\n  swap3\n  swap2\n  pop\n  pop\n  jump\t// out\n    /* \"#utility.yul\":2501:3233   */\ntag_35:\n    /* \"#utility.yul\":2608:2613   */\n  0x00\n    /* \"#utility.yul\":2633:2714   */\n  tag_70\n    /* \"#utility.yul\":2649:2713   */\n  tag_71\n    /* \"#utility.yul\":2706:2712   */\n  dup5\n    /* \"#utility.yul\":2649:2713   */\n  tag_30\n  jump\t// in\ntag_71:\n    /* \"#utility.yul\":2633:2714   */\n  tag_29\n  jump\t// in\ntag_70:\n    /* \"#utility.yul\":2624:2714   */\n  swap1\n  pop\n    /* \"#utility.yul\":2734:2739   */\n  dup1\n    /* \"#utility.yul\":2763:2769   */\n  dup4\n    /* \"#utility.yul\":2756:2761   */\n  dup3\n    /* \"#utility.yul\":2749:2770   */\n  mstore\n    /* \"#utility.yul\":2797:2801   */\n  0x20\n    /* \"#utility.yul\":2790:2795   */\n  dup3\n    /* \"#utility.yul\":2786:2802   */\n  add\n    /* \"#utility.yul\":2779:2802   */\n  swap1\n  pop\n    /* \"#utility.yul\":2850:2854   */\n  0x20\n    /* \"#utility.yul\":2842:2848   */\n  dup5\n    /* \"#utility.yul\":2838:2855   */\n  mul\n    /* \"#utility.yul\":2830:2836   */\n  dup4\n    /* \"#utility.yul\":2826:2856   */\n  add\n    /* \"#utility.yul\":2879:2882   */\n  dup6\n    /* \"#utility.yul\":2871:2877   */\n  dup2\n    /* \"#utility.yul\":2868:2883   */\n  gt\n    /* \"#utility.yul\":2865:2987   */\n  iszero\n  tag_72\n  jumpi\n    /* \"#utility.yul\":2898:2977   */\n  tag_73\n  tag_31\n  jump\t// in\ntag_73:\n    /* \"#utility.yul\":2865:2987   */\ntag_72:\n    /* \"#utility.yul\":3013:3019   */\n  dup4\n    /* \"#utility.yul\":2996:3227   */\ntag_74:\n    /* \"#utility.yul\":3030:3036   */\n  dup2\n    /* \"#utility.yul\":3025:3028   */\n  dup2\n    /* \"#utility.yul\":3022:3037   */\n  lt\n    /* \"#utility.yul\":2996:3227   */\n  iszero\n  tag_76\n  jumpi\n    /* \"#utility.yul\":3105:3108   */\n  dup1\n    /* \"#utility.yul\":3134:3182   */\n  tag_77\n    /* \"#utility.yul\":3178:3181   */\n  dup9\n    /* \"#utility.yul\":3166:3176   */\n  dup3\n    /* \"#utility.yul\":3134:3182   */\n  tag_34\n  jump\t// in\ntag_77:\n    /* \"#utility.yul\":3129:3132   */\n  dup5\n    /* \"#utility.yul\":3122:3183   */\n  mstore\n    /* \"#utility.yul\":3212:3216   */\n  0x20\n    /* \"#utility.yul\":3207:3210   */\n  dup5\n    /* \"#utility.yul\":3203:3217   */\n  add\n    /* \"#utility.yul\":3196:3217   */\n  swap4\n  pop\n    /* \"#utility.yul\":3072:3227   */\n  pop\n    /* \"#utility.yul\":3056:3060   */\n  0x20\n    /* \"#utility.yul\":3051:3054   */\n  dup2\n    /* \"#utility.yul\":3047:3061   */\n  add\n    /* \"#utility.yul\":3040:3061   */\n  swap1\n  pop\n    /* \"#utility.yul\":2996:3227   */\n  jump(tag_74)\ntag_76:\n    /* \"#utility.yul\":3000:3021   */\n  pop\n    /* \"#utility.yul\":2614:3233   */\n  pop\n  pop\n    /* \"#utility.yul\":2501:3233   */\n  swap4\n  swap3\n  pop\n  pop\n  pop\n  jump\t// out\n    /* \"#utility.yul\":3256:3641   */\ntag_36:\n    /* \"#utility.yul\":3338:3343   */\n  0x00\n    /* \"#utility.yul\":3387:3390   */\n  dup3\n    /* \"#utility.yul\":3380:3384   */\n  0x1f\n    /* \"#utility.yul\":3372:3378   */\n  dup4\n    /* \"#utility.yul\":3368:3385   */\n  add\n    /* \"#utility.yul\":3364:3391   */\n  slt\n    /* \"#utility.yul\":3354:3476   */\n  tag_79\n  jumpi\n    /* \"#utility.yul\":3395:3474   */\n  tag_80\n  tag_25\n  jump\t// in\ntag_80:\n    /* \"#utility.yul\":3354:3476   */\ntag_79:\n    /* \"#utility.yul\":3505:3511   */\n  dup2\n    /* \"#utility.yul\":3499:3512   */\n  mload\n    /* \"#utility.yul\":3530:3635   */\n  tag_81\n    /* \"#utility.yul\":3631:3634   */\n  dup5\n    /* \"#utility.yul\":3623:3629   */\n  dup3\n    /* \"#utility.yul\":3616:3620   */\n  0x20\n    /* \"#utility.yul\":3608:3614   */\n  dup7\n    /* \"#utility.yul\":3604:3621   */\n  add\n    /* \"#utility.yul\":3530:3635   */\n  tag_35\n  jump\t// in\ntag_81:\n    /* \"#utility.yul\":3521:3635   */\n  swap2\n  pop\n    /* \"#utility.yul\":3344:3641   */\n  pop\n    /* \"#utility.yul\":3256:3641   */\n  swap3\n  swap2\n  pop\n  pop\n  jump\t// out\n    /* \"#utility.yul\":3647:4357   */\ntag_3:\n    /* \"#utility.yul\":3751:3757   */\n  0x00\n    /* \"#utility.yul\":3759:3765   */\n  dup1\n    /* \"#utility.yul\":3808:3810   */\n  0x40\n    /* \"#utility.yul\":3796:3805   */\n  dup4\n    /* \"#utility.yul\":3787:3794   */\n  dup6\n    /* \"#utility.yul\":3783:3806   */\n  sub\n    /* \"#utility.yul\":3779:3811   */\n  slt\n    /* \"#utility.yul\":3776:3895   */\n  iszero\n  tag_83\n  jumpi\n    /* \"#utility.yul\":3814:3893   */\n  tag_84\n  tag_19\n  jump\t// in\ntag_84:\n    /* \"#utility.yul\":3776:3895   */\ntag_83:\n    /* \"#utility.yul\":3934:3935   */\n  0x00\n    /* \"#utility.yul\":3959:4023   */\n  tag_85\n    /* \"#utility.yul\":4015:4022   */\n  dup6\n    /* \"#utility.yul\":4006:4012   */\n  dup3\n    /* \"#utility.yul\":3995:4004   */\n  dup7\n    /* \"#utility.yul\":3991:4013   */\n  add\n    /* \"#utility.yul\":3959:4023   */\n  tag_24\n  jump\t// in\ntag_85:\n    /* \"#utility.yul\":3949:4023   */\n  swap3\n  pop\n    /* \"#utility.yul\":3905:4033   */\n  pop\n    /* \"#utility.yul\":4093:4095   */\n  0x20\n    /* \"#utility.yul\":4082:4091   */\n  dup4\n    /* \"#utility.yul\":4078:4096   */\n  add\n    /* \"#utility.yul\":4072:4097   */\n  mload\n    /* \"#utility.yul\":4124:4142   */\n  0xffffffffffffffff\n    /* \"#utility.yul\":4116:4122   */\n  dup2\n    /* \"#utility.yul\":4113:4143   */\n  gt\n    /* \"#utility.yul\":4110:4227   */\n  iszero\n  tag_86\n  jumpi\n    /* \"#utility.yul\":4146:4225   */\n  tag_87\n  tag_20\n  jump\t// in\ntag_87:\n    /* \"#utility.yul\":4110:4227   */\ntag_86:\n    /* \"#utility.yul\":4251:4340   */\n  tag_88\n    /* \"#utility.yul\":4332:4339   */\n  dup6\n    /* \"#utility.yul\":4323:4329   */\n  dup3\n    /* \"#utility.yul\":4312:4321   */\n  dup7\n    /* \"#utility.yul\":4308:4330   */\n  add\n    /* \"#utility.yul\":4251:4340   */\n  tag_36\n  jump\t// in\ntag_88:\n    /* \"#utility.yul\":4241:4340   */\n  swap2\n  pop\n    /* \"#utility.yul\":4043:4350   */\n  pop\n    /* \"#utility.yul\":3647:4357   */\n  swap3\n  pop\n  swap3\n  swap1\n  pop\n  jump\t// out\n    /* \"contracts/SocialDiamond.sol\":211:2781  contract SocialDiamond is Ownable {... */\ntag_10:\n  dataSize(sub_0)\n  dup1\n  dataOffset(sub_0)\n  0x00\n  codecopy\n  0x00\n  return\nstop\n\nsub_0: assembly {\n        /* \"contracts/SocialDiamond.sol\":211:2781  contract SocialDiamond is Ownable {... */\n      mstore(0x40, 0x80)\n      callvalue\n      dup1\n      iszero\n      tag_1\n      jumpi\n      0x00\n      dup1\n      revert\n    tag_1:\n      pop\n      jumpi(tag_2, lt(calldatasize, 0x04))\n      shr(0xe0, calldataload(0x00))\n      dup1\n      0xd0d996c4\n      gt\n      tag_21\n      jumpi\n      dup1\n      0xf0863cce\n      gt\n      tag_22\n      jumpi\n      dup1\n      0xf0863cce\n      eq\n      tag_16\n      jumpi\n      dup1\n      0xf2fde38b\n      eq\n      tag_17\n      jumpi\n      dup1\n      0xf839f319\n      eq\n      tag_18\n      jumpi\n      dup1\n      0xf8c842e5\n      eq\n      tag_19\n      jumpi\n      dup1\n      0xfb690dcc\n      eq\n      tag_20\n      jumpi\n      jump(tag_2)\n    tag_22:\n      dup1\n      0xd0d996c4\n      eq\n      tag_12\n      jumpi\n      dup1\n      0xd38ef5f1\n      eq\n      tag_13\n      jumpi\n      dup1\n      0xde0c4c7c\n      eq\n      tag_14\n      jumpi\n      dup1\n      0xde51d1fd\n      eq\n      tag_15\n      jumpi\n      jump(tag_2)\n    tag_21:\n      dup1\n      0x2a108e21\n      gt\n      tag_23\n      jumpi\n      dup1\n      0x2a108e21\n      eq\n      tag_7\n      jumpi\n      dup1\n      0x5d6c83b5\n      eq\n      tag_8\n      jumpi\n      dup1\n      0x715018a6\n      eq\n      tag_9\n      jumpi\n      dup1\n      0x8da5cb5b\n      eq\n      tag_10\n      jumpi\n      dup1\n      0xcac843aa\n      eq\n      tag_11\n      jumpi\n      jump(tag_2)\n    tag_23:\n      dup1\n      0x0660f1e8\n      eq\n      tag_3\n      jumpi\n      dup1\n      0x078b0fb7\n      eq\n      tag_4\n      jumpi\n      dup1\n      0x0b21d7a2\n      eq\n      tag_5\n      jumpi\n      dup1\n      0x1e83409a\n      eq\n      tag_6\n      jumpi\n    tag_2:\n      0x00\n      dup1\n      revert\n        /* \"contracts/SocialDiamond.sol\":617:662  mapping(address => Reward) public userRewards */\n    tag_3:\n      tag_24\n      0x04\n      dup1\n      calldatasize\n      sub\n      dup2\n      add\n      swap1\n      tag_25\n      swap2\n      swap1\n      tag_26\n      jump\t// in\n    tag_25:\n      tag_27\n      jump\t// in\n    tag_24:\n      mload(0x40)\n      tag_28\n      swap3\n      swap2\n      swap1\n      tag_29\n      jump\t// in\n    tag_28:\n      mload(0x40)\n      dup1\n      swap2\n      sub\n      swap1\n      return\n        /* \"contracts/SocialDiamond.sol\":1973:2111  function getUserRewards(address _user)... */\n    tag_4:\n      tag_30\n      0x04\n      dup1\n      calldatasize\n      sub\n      dup2\n      add\n      swap1\n      tag_31\n      swap2\n      swap1\n      tag_26\n      jump\t// in\n    tag_31:\n      tag_32\n      jump\t// in\n    tag_30:\n      mload(0x40)\n      tag_33\n      swap2\n      swap1\n      tag_34\n      jump\t// in\n    tag_33:\n      mload(0x40)\n      dup1\n      swap2\n      sub\n      swap1\n      return\n        /* \"contracts/SocialDiamond.sol\":518:575  mapping(string => mapping(address => bool)) public funded */\n    tag_5:\n      tag_35\n      0x04\n      dup1\n      calldatasize\n      sub\n      dup2\n      add\n      swap1\n      tag_36\n      swap2\n      swap1\n      tag_37\n      jump\t// in\n    tag_36:\n      tag_38\n      jump\t// in\n    tag_35:\n      mload(0x40)\n      tag_39\n      swap2\n      swap1\n      tag_40\n      jump\t// in\n    tag_39:\n      mload(0x40)\n      dup1\n      swap2\n      sub\n      swap1\n      return\n        /* \"contracts/SocialDiamond.sol\":1616:1791  function claim(address _recipient) public {... */\n    tag_6:\n      tag_41\n      0x04\n      dup1\n      calldatasize\n      sub\n      dup2\n      add\n      swap1\n      tag_42\n      swap2\n      swap1\n      tag_26\n      jump\t// in\n    tag_42:\n      tag_43\n      jump\t// in\n    tag_41:\n      stop\n        /* \"contracts/SocialDiamond.sol\":1032:1612  function fundTweet(... */\n    tag_7:\n      tag_44\n      0x04\n      dup1\n      calldatasize\n      sub\n      dup2\n      add\n      swap1\n      tag_45\n      swap2\n      swap1\n      tag_46\n      jump\t// in\n    tag_45:\n      tag_47\n      jump\t// in\n    tag_44:\n      stop\n        /* \"contracts/SocialDiamond.sol\":713:759  mapping(address => uint256) public currentTier */\n    tag_8:\n      tag_48\n      0x04\n      dup1\n      calldatasize\n      sub\n      dup2\n      add\n      swap1\n      tag_49\n      swap2\n      swap1\n      tag_26\n      jump\t// in\n    tag_49:\n      tag_50\n      jump\t// in\n    tag_48:\n      mload(0x40)\n      tag_51\n      swap2\n      swap1\n      tag_52\n      jump\t// in\n    tag_51:\n      mload(0x40)\n      dup1\n      swap2\n      sub\n      swap1\n      return\n        /* \"contracts/libraries/Ownable.sol\":488:623  function renounceOwnership() public virtual onlyOwner {... */\n    tag_9:\n      tag_53\n      tag_54\n      jump\t// in\n    tag_53:\n      stop\n        /* \"contracts/libraries/Ownable.sol\":305:376  function owner() public view returns (address) {... */\n    tag_10:\n      tag_55\n      tag_56\n      jump\t// in\n    tag_55:\n      mload(0x40)\n      tag_57\n      swap2\n      swap1\n      tag_58\n      jump\t// in\n    tag_57:\n      mload(0x40)\n      dup1\n      swap2\n      sub\n      swap1\n      return\n        /* \"contracts/SocialDiamond.sol\":1795:1875  function replaceAsset(address _asset) public onlyOwner {... */\n    tag_11:\n      tag_59\n      0x04\n      dup1\n      calldatasize\n      sub\n      dup2\n      add\n      swap1\n      tag_60\n      swap2\n      swap1\n      tag_26\n      jump\t// in\n    tag_60:\n      tag_61\n      jump\t// in\n    tag_59:\n      stop\n        /* \"contracts/SocialDiamond.sol\":2236:2400  function getTweetFundedForUser(address _user, uint256 _index)... */\n    tag_12:\n      tag_62\n      0x04\n      dup1\n      calldatasize\n      sub\n      dup2\n      add\n      swap1\n      tag_63\n      swap2\n      swap1\n      tag_64\n      jump\t// in\n    tag_63:\n      tag_65\n      jump\t// in\n    tag_62:\n      mload(0x40)\n      tag_66\n      swap2\n      swap1\n      tag_67\n      jump\t// in\n    tag_66:\n      mload(0x40)\n      dup1\n      swap2\n      sub\n      swap1\n      return\n        /* \"contracts/SocialDiamond.sol\":2115:2232  function getTweetFunding(string memory _tweet) public view returns (uint256) {... */\n    tag_13:\n      tag_68\n      0x04\n      dup1\n      calldatasize\n      sub\n      dup2\n      add\n      swap1\n      tag_69\n      swap2\n      swap1\n      tag_70\n      jump\t// in\n    tag_69:\n      tag_71\n      jump\t// in\n    tag_68:\n      mload(0x40)\n      tag_72\n      swap2\n      swap1\n      tag_52\n      jump\t// in\n    tag_72:\n      mload(0x40)\n      dup1\n      swap2\n      sub\n      swap1\n      return\n        /* \"contracts/SocialDiamond.sol\":462:514  mapping(address => uint256) public countTweetsFunded */\n    tag_14:\n      tag_73\n      0x04\n      dup1\n      calldatasize\n      sub\n      dup2\n      add\n      swap1\n      tag_74\n      swap2\n      swap1\n      tag_26\n      jump\t// in\n    tag_74:\n      tag_75\n      jump\t// in\n    tag_73:\n      mload(0x40)\n      tag_76\n      swap2\n      swap1\n      tag_52\n      jump\t// in\n    tag_76:\n      mload(0x40)\n      dup1\n      swap2\n      sub\n      swap1\n      return\n        /* \"contracts/SocialDiamond.sol\":811:859  mapping(string => uint256) public rewardPerTweet */\n    tag_15:\n      tag_77\n      0x04\n      dup1\n      calldatasize\n      sub\n      dup2\n      add\n      swap1\n      tag_78\n      swap2\n      swap1\n      tag_70\n      jump\t// in\n    tag_78:\n      tag_79\n      jump\t// in\n    tag_77:\n      mload(0x40)\n      tag_80\n      swap2\n      swap1\n      tag_52\n      jump\t// in\n    tag_80:\n      mload(0x40)\n      dup1\n      swap2\n      sub\n      swap1\n      return\n        /* \"contracts/SocialDiamond.sol\":403:458  mapping(address => string[]) public tweetsFundedForUser */\n    tag_16:\n      tag_81\n      0x04\n      dup1\n      calldatasize\n      sub\n      dup2\n      add\n      swap1\n      tag_82\n      swap2\n      swap1\n      tag_64\n      jump\t// in\n    tag_82:\n      tag_83\n      jump\t// in\n    tag_81:\n      mload(0x40)\n      tag_84\n      swap2\n      swap1\n      tag_67\n      jump\t// in\n    tag_84:\n      mload(0x40)\n      dup1\n      swap2\n      sub\n      swap1\n      return\n        /* \"contracts/libraries/Ownable.sol\":627:857  function transferOwnership(address newOwner_) public virtual onlyOwner {... */\n    tag_17:\n      tag_85\n      0x04\n      dup1\n      calldatasize\n      sub\n      dup2\n      add\n      swap1\n      tag_86\n      swap2\n      swap1\n      tag_26\n      jump\t// in\n    tag_86:\n      tag_87\n      jump\t// in\n    tag_85:\n      stop\n        /* \"contracts/SocialDiamond.sol\":864:901  uint256 public totalTransactionVolume */\n    tag_18:\n      tag_88\n      tag_89\n      jump\t// in\n    tag_88:\n      mload(0x40)\n      tag_90\n      swap2\n      swap1\n      tag_52\n      jump\t// in\n    tag_90:\n      mload(0x40)\n      dup1\n      swap2\n      sub\n      swap1\n      return\n        /* \"contracts/SocialDiamond.sol\":1879:1969  function replaceReward(address _newReward) public onlyOwner {... */\n    tag_19:\n      tag_91\n      0x04\n      dup1\n      calldatasize\n      sub\n      dup2\n      add\n      swap1\n      tag_92\n      swap2\n      swap1\n      tag_26\n      jump\t// in\n    tag_92:\n      tag_93\n      jump\t// in\n    tag_91:\n      stop\n        /* \"contracts/SocialDiamond.sol\":667:709  mapping(address => uint256) public donated */\n    tag_20:\n      tag_94\n      0x04\n      dup1\n      calldatasize\n      sub\n      dup2\n      add\n      swap1\n      tag_95\n      swap2\n      swap1\n      tag_26\n      jump\t// in\n    tag_95:\n      tag_96\n      jump\t// in\n    tag_94:\n      mload(0x40)\n      tag_97\n      swap2\n      swap1\n      tag_52\n      jump\t// in\n    tag_97:\n      mload(0x40)\n      dup1\n      swap2\n      sub\n      swap1\n      return\n        /* \"contracts/SocialDiamond.sol\":617:662  mapping(address => Reward) public userRewards */\n    tag_27:\n      mstore(0x20, 0x06)\n      dup1\n      0x00\n      mstore\n      keccak256(0x00, 0x40)\n      0x00\n      swap2\n      pop\n      swap1\n      pop\n      dup1\n      0x00\n      add\n      sload\n      swap1\n      dup1\n      0x01\n      add\n      sload\n      swap1\n      pop\n      dup3\n      jump\t// out\n        /* \"contracts/SocialDiamond.sol\":1973:2111  function getUserRewards(address _user)... */\n    tag_32:\n        /* \"contracts/SocialDiamond.sol\":2045:2067  Reward memory _rewards */\n      tag_98\n      tag_99\n      jump\t// in\n    tag_98:\n        /* \"contracts/SocialDiamond.sol\":2088:2099  userRewards */\n      0x06\n        /* \"contracts/SocialDiamond.sol\":2088:2106  userRewards[_user] */\n      0x00\n        /* \"contracts/SocialDiamond.sol\":2100:2105  _user */\n      dup4\n        /* \"contracts/SocialDiamond.sol\":2088:2106  userRewards[_user] */\n      0xffffffffffffffffffffffffffffffffffffffff\n      and\n      0xffffffffffffffffffffffffffffffffffffffff\n      and\n      dup2\n      mstore\n      0x20\n      add\n      swap1\n      dup2\n      mstore\n      0x20\n      add\n      0x00\n      keccak256\n        /* \"contracts/SocialDiamond.sol\":2077:2106  _rewards = userRewards[_user] */\n      mload(0x40)\n      dup1\n      0x40\n      add\n      0x40\n      mstore\n      swap1\n      dup2\n      0x00\n      dup3\n      add\n      sload\n      dup2\n      mstore\n      0x20\n      add\n      0x01\n      dup3\n      add\n      sload\n      dup2\n      mstore\n      pop\n      pop\n      swap1\n      pop\n        /* \"contracts/SocialDiamond.sol\":1973:2111  function getUserRewards(address _user)... */\n      swap2\n      swap1\n      pop\n      jump\t// out\n        /* \"contracts/SocialDiamond.sol\":518:575  mapping(string => mapping(address => bool)) public funded */\n    tag_38:\n      0x05\n      dup3\n      dup1\n      mload\n      0x20\n      dup2\n      add\n      dup3\n      add\n      dup1\n      mload\n      dup5\n      dup3\n      mstore\n      0x20\n      dup4\n      add\n      0x20\n      dup6\n      add\n      keccak256\n      dup2\n      dup4\n      mstore\n      dup1\n      swap6\n      pop\n      pop\n      pop\n      pop\n      pop\n      pop\n      0x20\n      mstore\n      dup1\n      0x00\n      mstore\n      keccak256(0x00, 0x40)\n      0x00\n      swap2\n      pop\n      swap2\n      pop\n      swap1\n      sload\n      swap1\n      0x0100\n      exp\n      swap1\n      div\n      0xff\n      and\n      dup2\n      jump\t// out\n        /* \"contracts/SocialDiamond.sol\":1616:1791  function claim(address _recipient) public {... */\n    tag_43:\n        /* \"contracts/SocialDiamond.sol\":1702:1703  0 */\n      0x00\n        /* \"contracts/SocialDiamond.sol\":1668:1679  userRewards */\n      0x06\n        /* \"contracts/SocialDiamond.sol\":1668:1691  userRewards[msg.sender] */\n      0x00\n        /* \"contracts/SocialDiamond.sol\":1680:1690  msg.sender */\n      caller\n        /* \"contracts/SocialDiamond.sol\":1668:1691  userRewards[msg.sender] */\n      0xffffffffffffffffffffffffffffffffffffffff\n      and\n      0xffffffffffffffffffffffffffffffffffffffff\n      and\n      dup2\n      mstore\n      0x20\n      add\n      swap1\n      dup2\n      mstore\n      0x20\n      add\n      0x00\n      keccak256\n        /* \"contracts/SocialDiamond.sol\":1668:1699  userRewards[msg.sender].pending */\n      0x01\n      add\n      sload\n        /* \"contracts/SocialDiamond.sol\":1668:1703  userRewards[msg.sender].pending > 0 */\n      gt\n        /* \"contracts/SocialDiamond.sol\":1664:1787  if (userRewards[msg.sender].pending > 0) {... */\n      iszero\n      tag_102\n      jumpi\n        /* \"contracts/SocialDiamond.sol\":1720:1725  asset */\n      0x02\n      0x00\n      swap1\n      sload\n      swap1\n      0x0100\n      exp\n      swap1\n      div\n      0xffffffffffffffffffffffffffffffffffffffff\n      and\n        /* \"contracts/SocialDiamond.sol\":1713:1735  IERC20(asset).transfer */\n      0xffffffffffffffffffffffffffffffffffffffff\n      and\n      0xa9059cbb\n        /* \"contracts/SocialDiamond.sol\":1736:1746  _recipient */\n      dup3\n        /* \"contracts/SocialDiamond.sol\":1748:1759  userRewards */\n      0x06\n        /* \"contracts/SocialDiamond.sol\":1748:1771  userRewards[msg.sender] */\n      0x00\n        /* \"contracts/SocialDiamond.sol\":1760:1770  msg.sender */\n      caller\n        /* \"contracts/SocialDiamond.sol\":1748:1771  userRewards[msg.sender] */\n      0xffffffffffffffffffffffffffffffffffffffff\n      and\n      0xffffffffffffffffffffffffffffffffffffffff\n      and\n      dup2\n      mstore\n      0x20\n      add\n      swap1\n      dup2\n      mstore\n      0x20\n      add\n      0x00\n      keccak256\n        /* \"contracts/SocialDiamond.sol\":1748:1779  userRewards[msg.sender].pending */\n      0x01\n      add\n      sload\n        /* \"contracts/SocialDiamond.sol\":1713:1780  IERC20(asset).transfer(_recipient, userRewards[msg.sender].pending) */\n      mload(0x40)\n      dup4\n      0xffffffff\n      and\n      0xe0\n      shl\n      dup2\n      mstore\n      0x04\n      add\n      tag_103\n      swap3\n      swap2\n      swap1\n      tag_104\n      jump\t// in\n    tag_103:\n      0x20\n      mload(0x40)\n      dup1\n      dup4\n      sub\n      dup2\n      0x00\n      dup8\n      gas\n      call\n      iszero\n      dup1\n      iszero\n      tag_106\n      jumpi\n      returndatasize\n      0x00\n      dup1\n      returndatacopy\n      revert(0x00, returndatasize)\n    tag_106:\n      pop\n      pop\n      pop\n      pop\n      mload(0x40)\n      returndatasize\n      not(0x1f)\n      0x1f\n      dup3\n      add\n      and\n      dup3\n      add\n      dup1\n      0x40\n      mstore\n      pop\n      dup2\n      add\n      swap1\n      tag_107\n      swap2\n      swap1\n      tag_108\n      jump\t// in\n    tag_107:\n      pop\n        /* \"contracts/SocialDiamond.sol\":1664:1787  if (userRewards[msg.sender].pending > 0) {... */\n    tag_102:\n        /* \"contracts/SocialDiamond.sol\":1616:1791  function claim(address _recipient) public {... */\n      pop\n      jump\t// out\n        /* \"contracts/SocialDiamond.sol\":1032:1612  function fundTweet(... */\n    tag_47:\n        /* \"contracts/SocialDiamond.sol\":1145:1150  asset */\n      0x02\n      0x00\n      swap1\n      sload\n      swap1\n      0x0100\n      exp\n      swap1\n      div\n      0xffffffffffffffffffffffffffffffffffffffff\n      and\n        /* \"contracts/SocialDiamond.sol\":1138:1164  IERC20(asset).transferFrom */\n      0xffffffffffffffffffffffffffffffffffffffff\n      and\n      0x23b872dd\n        /* \"contracts/SocialDiamond.sol\":1165:1175  msg.sender */\n      caller\n        /* \"contracts/SocialDiamond.sol\":1185:1189  this */\n      address\n        /* \"contracts/SocialDiamond.sol\":1192:1199  _amount */\n      dup7\n        /* \"contracts/SocialDiamond.sol\":1138:1200  IERC20(asset).transferFrom(msg.sender, address(this), _amount) */\n      mload(0x40)\n      dup5\n      0xffffffff\n      and\n      0xe0\n      shl\n      dup2\n      mstore\n      0x04\n      add\n      tag_110\n      swap4\n      swap3\n      swap2\n      swap1\n      tag_111\n      jump\t// in\n    tag_110:\n      0x20\n      mload(0x40)\n      dup1\n      dup4\n      sub\n      dup2\n      0x00\n      dup8\n      gas\n      call\n      iszero\n      dup1\n      iszero\n      tag_113\n      jumpi\n      returndatasize\n      0x00\n      dup1\n      returndatacopy\n      revert(0x00, returndatasize)\n    tag_113:\n      pop\n      pop\n      pop\n      pop\n      mload(0x40)\n      returndatasize\n      not(0x1f)\n      0x1f\n      dup3\n      add\n      and\n      dup3\n      add\n      dup1\n      0x40\n      mstore\n      pop\n      dup2\n      add\n      swap1\n      tag_114\n      swap2\n      swap1\n      tag_108\n      jump\t// in\n    tag_114:\n      pop\n        /* \"contracts/SocialDiamond.sol\":1231:1238  _amount */\n      dup3\n        /* \"contracts/SocialDiamond.sol\":1206:1220  rewardPerTweet */\n      0x0a\n        /* \"contracts/SocialDiamond.sol\":1221:1226  _link */\n      dup4\n        /* \"contracts/SocialDiamond.sol\":1206:1227  rewardPerTweet[_link] */\n      mload(0x40)\n      tag_115\n      swap2\n      swap1\n      tag_116\n      jump\t// in\n    tag_115:\n      swap1\n      dup2\n      mstore\n      0x20\n      add\n      mload(0x40)\n      dup1\n      swap2\n      sub\n      swap1\n      keccak256\n      0x00\n        /* \"contracts/SocialDiamond.sol\":1206:1238  rewardPerTweet[_link] += _amount */\n      dup3\n      dup3\n      sload\n      tag_117\n      swap2\n      swap1\n      tag_118\n      jump\t// in\n    tag_117:\n      swap3\n      pop\n      pop\n      dup2\n      swap1\n      sstore\n      pop\n        /* \"contracts/SocialDiamond.sol\":1270:1277  _amount */\n      dup3\n        /* \"contracts/SocialDiamond.sol\":1244:1266  totalTransactionVolume */\n      0x0b\n      0x00\n        /* \"contracts/SocialDiamond.sol\":1244:1277  totalTransactionVolume += _amount */\n      dup3\n      dup3\n      sload\n      tag_119\n      swap2\n      swap1\n      tag_118\n      jump\t// in\n    tag_119:\n      swap3\n      pop\n      pop\n      dup2\n      swap1\n      sstore\n      pop\n        /* \"contracts/SocialDiamond.sol\":1318:1325  _amount */\n      dup3\n        /* \"contracts/SocialDiamond.sol\":1283:1294  userRewards */\n      0x06\n        /* \"contracts/SocialDiamond.sol\":1283:1306  userRewards[_recipient] */\n      0x00\n        /* \"contracts/SocialDiamond.sol\":1295:1305  _recipient */\n      dup4\n        /* \"contracts/SocialDiamond.sol\":1283:1306  userRewards[_recipient] */\n      0xffffffffffffffffffffffffffffffffffffffff\n      and\n      0xffffffffffffffffffffffffffffffffffffffff\n      and\n      dup2\n      mstore\n      0x20\n      add\n      swap1\n      dup2\n      mstore\n      0x20\n      add\n      0x00\n      keccak256\n        /* \"contracts/SocialDiamond.sol\":1283:1314  userRewards[_recipient].pending */\n      0x01\n      add\n      0x00\n        /* \"contracts/SocialDiamond.sol\":1283:1325  userRewards[_recipient].pending += _amount */\n      dup3\n      dup3\n      sload\n      tag_120\n      swap2\n      swap1\n      tag_118\n      jump\t// in\n    tag_120:\n      swap3\n      pop\n      pop\n      dup2\n      swap1\n      sstore\n      pop\n        /* \"contracts/SocialDiamond.sol\":1335:1358  getEligibility(_amount) */\n      tag_121\n        /* \"contracts/SocialDiamond.sol\":1350:1357  _amount */\n      dup4\n        /* \"contracts/SocialDiamond.sol\":1335:1349  getEligibility */\n      tag_122\n        /* \"contracts/SocialDiamond.sol\":1335:1358  getEligibility(_amount) */\n      jump\t// in\n    tag_121:\n        /* \"contracts/SocialDiamond.sol\":1331:1410  if (getEligibility(_amount)) {... */\n      iszero\n      tag_123\n      jumpi\n        /* \"contracts/SocialDiamond.sol\":1379:1385  reward */\n      0x01\n      0x00\n      swap1\n      sload\n      swap1\n      0x0100\n      exp\n      swap1\n      div\n      0xffffffffffffffffffffffffffffffffffffffff\n      and\n        /* \"contracts/SocialDiamond.sol\":1368:1391  ISocialNFT(reward).mint */\n      0xffffffffffffffffffffffffffffffffffffffff\n      and\n      0x6a627842\n        /* \"contracts/SocialDiamond.sol\":1392:1402  msg.sender */\n      caller\n        /* \"contracts/SocialDiamond.sol\":1368:1403  ISocialNFT(reward).mint(msg.sender) */\n      mload(0x40)\n      dup3\n      0xffffffff\n      and\n      0xe0\n      shl\n      dup2\n      mstore\n      0x04\n      add\n      tag_124\n      swap2\n      swap1\n      tag_58\n      jump\t// in\n    tag_124:\n      0x00\n      mload(0x40)\n      dup1\n      dup4\n      sub\n      dup2\n      0x00\n      dup8\n      dup1\n      extcodesize\n      iszero\n      dup1\n      iszero\n      tag_125\n      jumpi\n      0x00\n      dup1\n      revert\n    tag_125:\n      pop\n      gas\n      call\n      iszero\n      dup1\n      iszero\n      tag_127\n      jumpi\n      returndatasize\n      0x00\n      dup1\n      returndatacopy\n      revert(0x00, returndatasize)\n    tag_127:\n      pop\n      pop\n      pop\n      pop\n        /* \"contracts/SocialDiamond.sol\":1331:1410  if (getEligibility(_amount)) {... */\n    tag_123:\n        /* \"contracts/SocialDiamond.sol\":1420:1426  funded */\n      0x05\n        /* \"contracts/SocialDiamond.sol\":1427:1432  _link */\n      dup3\n        /* \"contracts/SocialDiamond.sol\":1420:1433  funded[_link] */\n      mload(0x40)\n      tag_128\n      swap2\n      swap1\n      tag_116\n      jump\t// in\n    tag_128:\n      swap1\n      dup2\n      mstore\n      0x20\n      add\n      mload(0x40)\n      dup1\n      swap2\n      sub\n      swap1\n      keccak256\n        /* \"contracts/SocialDiamond.sol\":1420:1445  funded[_link][msg.sender] */\n      0x00\n        /* \"contracts/SocialDiamond.sol\":1434:1444  msg.sender */\n      caller\n        /* \"contracts/SocialDiamond.sol\":1420:1445  funded[_link][msg.sender] */\n      0xffffffffffffffffffffffffffffffffffffffff\n      and\n      0xffffffffffffffffffffffffffffffffffffffff\n      and\n      dup2\n      mstore\n      0x20\n      add\n      swap1\n      dup2\n      mstore\n      0x20\n      add\n      0x00\n      keccak256\n      0x00\n      swap1\n      sload\n      swap1\n      0x0100\n      exp\n      swap1\n      div\n      0xff\n      and\n        /* \"contracts/SocialDiamond.sol\":1415:1608  if (!funded[_link][msg.sender]) {... */\n      tag_129\n      jumpi\n        /* \"contracts/SocialDiamond.sol\":1498:1499  1 */\n      0x01\n        /* \"contracts/SocialDiamond.sol\":1465:1482  countTweetsFunded */\n      0x04\n        /* \"contracts/SocialDiamond.sol\":1465:1494  countTweetsFunded[msg.sender] */\n      0x00\n        /* \"contracts/SocialDiamond.sol\":1483:1493  msg.sender */\n      caller\n        /* \"contracts/SocialDiamond.sol\":1465:1494  countTweetsFunded[msg.sender] */\n      0xffffffffffffffffffffffffffffffffffffffff\n      and\n      0xffffffffffffffffffffffffffffffffffffffff\n      and\n      dup2\n      mstore\n      0x20\n      add\n      swap1\n      dup2\n      mstore\n      0x20\n      add\n      0x00\n      keccak256\n      0x00\n        /* \"contracts/SocialDiamond.sol\":1465:1499  countTweetsFunded[msg.sender] += 1 */\n      dup3\n      dup3\n      sload\n      tag_130\n      swap2\n      swap1\n      tag_118\n      jump\t// in\n    tag_130:\n      swap3\n      pop\n      pop\n      dup2\n      swap1\n      sstore\n      pop\n        /* \"contracts/SocialDiamond.sol\":1509:1528  tweetsFundedForUser */\n      0x03\n        /* \"contracts/SocialDiamond.sol\":1509:1540  tweetsFundedForUser[msg.sender] */\n      0x00\n        /* \"contracts/SocialDiamond.sol\":1529:1539  msg.sender */\n      caller\n        /* \"contracts/SocialDiamond.sol\":1509:1540  tweetsFundedForUser[msg.sender] */\n      0xffffffffffffffffffffffffffffffffffffffff\n      and\n      0xffffffffffffffffffffffffffffffffffffffff\n      and\n      dup2\n      mstore\n      0x20\n      add\n      swap1\n      dup2\n      mstore\n      0x20\n      add\n      0x00\n      keccak256\n        /* \"contracts/SocialDiamond.sol\":1546:1551  _link */\n      dup3\n        /* \"contracts/SocialDiamond.sol\":1509:1552  tweetsFundedForUser[msg.sender].push(_link) */\n      swap1\n      dup1\n      0x01\n      dup2\n      sload\n      add\n      dup1\n      dup3\n      sstore\n      dup1\n      swap2\n      pop\n      pop\n      0x01\n      swap1\n      sub\n      swap1\n      0x00\n      mstore\n      keccak256(0x00, 0x20)\n      add\n      0x00\n      swap1\n      swap2\n      swap1\n      swap2\n      swap1\n      swap2\n      pop\n      swap1\n      dup1\n      mload\n      swap1\n      0x20\n      add\n      swap1\n      tag_132\n      swap3\n      swap2\n      swap1\n      tag_133\n      jump\t// in\n    tag_132:\n      pop\n        /* \"contracts/SocialDiamond.sol\":1597:1601  true */\n      0x01\n        /* \"contracts/SocialDiamond.sol\":1569:1575  funded */\n      0x05\n        /* \"contracts/SocialDiamond.sol\":1576:1581  _link */\n      dup4\n        /* \"contracts/SocialDiamond.sol\":1569:1582  funded[_link] */\n      mload(0x40)\n      tag_134\n      swap2\n      swap1\n      tag_116\n      jump\t// in\n    tag_134:\n      swap1\n      dup2\n      mstore\n      0x20\n      add\n      mload(0x40)\n      dup1\n      swap2\n      sub\n      swap1\n      keccak256\n        /* \"contracts/SocialDiamond.sol\":1569:1594  funded[_link][msg.sender] */\n      0x00\n        /* \"contracts/SocialDiamond.sol\":1583:1593  msg.sender */\n      caller\n        /* \"contracts/SocialDiamond.sol\":1569:1594  funded[_link][msg.sender] */\n      0xffffffffffffffffffffffffffffffffffffffff\n      and\n      0xffffffffffffffffffffffffffffffffffffffff\n      and\n      dup2\n      mstore\n      0x20\n      add\n      swap1\n      dup2\n      mstore\n      0x20\n      add\n      0x00\n      keccak256\n      0x00\n        /* \"contracts/SocialDiamond.sol\":1569:1601  funded[_link][msg.sender] = true */\n      0x0100\n      exp\n      dup2\n      sload\n      dup2\n      0xff\n      mul\n      not\n      and\n      swap1\n      dup4\n      iszero\n      iszero\n      mul\n      or\n      swap1\n      sstore\n      pop\n        /* \"contracts/SocialDiamond.sol\":1415:1608  if (!funded[_link][msg.sender]) {... */\n    tag_129:\n        /* \"contracts/SocialDiamond.sol\":1032:1612  function fundTweet(... */\n      pop\n      pop\n      pop\n      jump\t// out\n        /* \"contracts/SocialDiamond.sol\":713:759  mapping(address => uint256) public currentTier */\n    tag_50:\n      mstore(0x20, 0x08)\n      dup1\n      0x00\n      mstore\n      keccak256(0x00, 0x40)\n      0x00\n      swap2\n      pop\n      swap1\n      pop\n      sload\n      dup2\n      jump\t// out\n        /* \"contracts/libraries/Ownable.sol\":488:623  function renounceOwnership() public virtual onlyOwner {... */\n    tag_54:\n        /* \"contracts/libraries/Ownable.sol\":425:435  msg.sender */\n      caller\n        /* \"contracts/libraries/Ownable.sol\":415:435  _owner == msg.sender */\n      0xffffffffffffffffffffffffffffffffffffffff\n      and\n        /* \"contracts/libraries/Ownable.sol\":415:421  _owner */\n      0x00\n      dup1\n      sload\n      swap1\n      0x0100\n      exp\n      swap1\n      div\n      0xffffffffffffffffffffffffffffffffffffffff\n      and\n        /* \"contracts/libraries/Ownable.sol\":415:435  _owner == msg.sender */\n      0xffffffffffffffffffffffffffffffffffffffff\n      and\n      eq\n        /* \"contracts/libraries/Ownable.sol\":407:472  require(_owner == msg.sender, \"Ownable: caller is not the owner\") */\n      tag_136\n      jumpi\n      mload(0x40)\n      0x08c379a000000000000000000000000000000000000000000000000000000000\n      dup2\n      mstore\n      0x04\n      add\n      tag_137\n      swap1\n      tag_138\n      jump\t// in\n    tag_137:\n      mload(0x40)\n      dup1\n      swap2\n      sub\n      swap1\n      revert\n    tag_136:\n        /* \"contracts/libraries/Ownable.sol\":590:591  0 */\n      0x00\n        /* \"contracts/libraries/Ownable.sol\":553:593  OwnershipTransferred(_owner, address(0)) */\n      0xffffffffffffffffffffffffffffffffffffffff\n      and\n        /* \"contracts/libraries/Ownable.sol\":574:580  _owner */\n      0x00\n      dup1\n      sload\n      swap1\n      0x0100\n      exp\n      swap1\n      div\n      0xffffffffffffffffffffffffffffffffffffffff\n      and\n        /* \"contracts/libraries/Ownable.sol\":553:593  OwnershipTransferred(_owner, address(0)) */\n      0xffffffffffffffffffffffffffffffffffffffff\n      and\n      0x8be0079c531659141344cd1fd0a4f28419497f9722a3daafe3b4186f6b6457e0\n      mload(0x40)\n      mload(0x40)\n      dup1\n      swap2\n      sub\n      swap1\n      log3\n        /* \"contracts/libraries/Ownable.sol\":616:617  0 */\n      0x00\n        /* \"contracts/libraries/Ownable.sol\":599:605  _owner */\n      dup1\n      0x00\n        /* \"contracts/libraries/Ownable.sol\":599:618  _owner = address(0) */\n      0x0100\n      exp\n      dup2\n      sload\n      dup2\n      0xffffffffffffffffffffffffffffffffffffffff\n      mul\n      not\n      and\n      swap1\n      dup4\n      0xffffffffffffffffffffffffffffffffffffffff\n      and\n      mul\n      or\n      swap1\n      sstore\n      pop\n        /* \"contracts/libraries/Ownable.sol\":488:623  function renounceOwnership() public virtual onlyOwner {... */\n      jump\t// out\n        /* \"contracts/libraries/Ownable.sol\":305:376  function owner() public view returns (address) {... */\n    tag_56:\n        /* \"contracts/libraries/Ownable.sol\":343:350  address */\n      0x00\n        /* \"contracts/libraries/Ownable.sol\":365:371  _owner */\n      dup1\n      0x00\n      swap1\n      sload\n      swap1\n      0x0100\n      exp\n      swap1\n      div\n      0xffffffffffffffffffffffffffffffffffffffff\n      and\n        /* \"contracts/libraries/Ownable.sol\":358:371  return _owner */\n      swap1\n      pop\n        /* \"contracts/libraries/Ownable.sol\":305:376  function owner() public view returns (address) {... */\n      swap1\n      jump\t// out\n        /* \"contracts/SocialDiamond.sol\":1795:1875  function replaceAsset(address _asset) public onlyOwner {... */\n    tag_61:\n        /* \"contracts/libraries/Ownable.sol\":425:435  msg.sender */\n      caller\n        /* \"contracts/libraries/Ownable.sol\":415:435  _owner == msg.sender */\n      0xffffffffffffffffffffffffffffffffffffffff\n      and\n        /* \"contracts/libraries/Ownable.sol\":415:421  _owner */\n      0x00\n      dup1\n      sload\n      swap1\n      0x0100\n      exp\n      swap1\n      div\n      0xffffffffffffffffffffffffffffffffffffffff\n      and\n        /* \"contracts/libraries/Ownable.sol\":415:435  _owner == msg.sender */\n      0xffffffffffffffffffffffffffffffffffffffff\n      and\n      eq\n        /* \"contracts/libraries/Ownable.sol\":407:472  require(_owner == msg.sender, \"Ownable: caller is not the owner\") */\n      tag_142\n      jumpi\n      mload(0x40)\n      0x08c379a000000000000000000000000000000000000000000000000000000000\n      dup2\n      mstore\n      0x04\n      add\n      tag_143\n      swap1\n      tag_138\n      jump\t// in\n    tag_143:\n      mload(0x40)\n      dup1\n      swap2\n      sub\n      swap1\n      revert\n    tag_142:\n        /* \"contracts/SocialDiamond.sol\":1864:1870  _asset */\n      dup1\n        /* \"contracts/SocialDiamond.sol\":1856:1861  asset */\n      0x02\n      0x00\n        /* \"contracts/SocialDiamond.sol\":1856:1870  asset = _asset */\n      0x0100\n      exp\n      dup2\n      sload\n      dup2\n      0xffffffffffffffffffffffffffffffffffffffff\n      mul\n      not\n      and\n      swap1\n      dup4\n      0xffffffffffffffffffffffffffffffffffffffff\n      and\n      mul\n      or\n      swap1\n      sstore\n      pop\n        /* \"contracts/SocialDiamond.sol\":1795:1875  function replaceAsset(address _asset) public onlyOwner {... */\n      pop\n      jump\t// out\n        /* \"contracts/SocialDiamond.sol\":2236:2400  function getTweetFundedForUser(address _user, uint256 _index)... */\n    tag_65:\n        /* \"contracts/SocialDiamond.sol\":2331:2344  string memory */\n      0x60\n        /* \"contracts/SocialDiamond.sol\":2361:2380  tweetsFundedForUser */\n      0x03\n        /* \"contracts/SocialDiamond.sol\":2361:2387  tweetsFundedForUser[_user] */\n      0x00\n        /* \"contracts/SocialDiamond.sol\":2381:2386  _user */\n      dup5\n        /* \"contracts/SocialDiamond.sol\":2361:2387  tweetsFundedForUser[_user] */\n      0xffffffffffffffffffffffffffffffffffffffff\n      and\n      0xffffffffffffffffffffffffffffffffffffffff\n      and\n      dup2\n      mstore\n      0x20\n      add\n      swap1\n      dup2\n      mstore\n      0x20\n      add\n      0x00\n      keccak256\n        /* \"contracts/SocialDiamond.sol\":2388:2394  _index */\n      dup3\n        /* \"contracts/SocialDiamond.sol\":2361:2395  tweetsFundedForUser[_user][_index] */\n      dup2\n      sload\n      dup2\n      lt\n      tag_146\n      jumpi\n      tag_147\n      tag_148\n      jump\t// in\n    tag_147:\n    tag_146:\n      swap1\n      0x00\n      mstore\n      keccak256(0x00, 0x20)\n      add\n        /* \"contracts/SocialDiamond.sol\":2354:2395  return tweetsFundedForUser[_user][_index] */\n      dup1\n      sload\n      tag_150\n      swap1\n      tag_151\n      jump\t// in\n    tag_150:\n      dup1\n      0x1f\n      add\n      0x20\n      dup1\n      swap2\n      div\n      mul\n      0x20\n      add\n      mload(0x40)\n      swap1\n      dup2\n      add\n      0x40\n      mstore\n      dup1\n      swap3\n      swap2\n      swap1\n      dup2\n      dup2\n      mstore\n      0x20\n      add\n      dup3\n      dup1\n      sload\n      tag_152\n      swap1\n      tag_151\n      jump\t// in\n    tag_152:\n      dup1\n      iszero\n      tag_153\n      jumpi\n      dup1\n      0x1f\n      lt\n      tag_154\n      jumpi\n      0x0100\n      dup1\n      dup4\n      sload\n      div\n      mul\n      dup4\n      mstore\n      swap2\n      0x20\n      add\n      swap2\n      jump(tag_153)\n    tag_154:\n      dup3\n      add\n      swap2\n      swap1\n      0x00\n      mstore\n      keccak256(0x00, 0x20)\n      swap1\n    tag_155:\n      dup2\n      sload\n      dup2\n      mstore\n      swap1\n      0x01\n      add\n      swap1\n      0x20\n      add\n      dup1\n      dup4\n      gt\n      tag_155\n      jumpi\n      dup3\n      swap1\n      sub\n      0x1f\n      and\n      dup3\n      add\n      swap2\n    tag_153:\n      pop\n      pop\n      pop\n      pop\n      pop\n      swap1\n      pop\n        /* \"contracts/SocialDiamond.sol\":2236:2400  function getTweetFundedForUser(address _user, uint256 _index)... */\n      swap3\n      swap2\n      pop\n      pop\n      jump\t// out\n        /* \"contracts/SocialDiamond.sol\":2115:2232  function getTweetFunding(string memory _tweet) public view returns (uint256) {... */\n    tag_71:\n        /* \"contracts/SocialDiamond.sol\":2183:2190  uint256 */\n      0x00\n        /* \"contracts/SocialDiamond.sol\":2205:2219  rewardPerTweet */\n      0x0a\n        /* \"contracts/SocialDiamond.sol\":2220:2226  _tweet */\n      dup3\n        /* \"contracts/SocialDiamond.sol\":2205:2227  rewardPerTweet[_tweet] */\n      mload(0x40)\n      tag_157\n      swap2\n      swap1\n      tag_116\n      jump\t// in\n    tag_157:\n      swap1\n      dup2\n      mstore\n      0x20\n      add\n      mload(0x40)\n      dup1\n      swap2\n      sub\n      swap1\n      keccak256\n      sload\n        /* \"contracts/SocialDiamond.sol\":2198:2227  return rewardPerTweet[_tweet] */\n      swap1\n      pop\n        /* \"contracts/SocialDiamond.sol\":2115:2232  function getTweetFunding(string memory _tweet) public view returns (uint256) {... */\n      swap2\n      swap1\n      pop\n      jump\t// out\n        /* \"contracts/SocialDiamond.sol\":462:514  mapping(address => uint256) public countTweetsFunded */\n    tag_75:\n      mstore(0x20, 0x04)\n      dup1\n      0x00\n      mstore\n      keccak256(0x00, 0x40)\n      0x00\n      swap2\n      pop\n      swap1\n      pop\n      sload\n      dup2\n      jump\t// out\n        /* \"contracts/SocialDiamond.sol\":811:859  mapping(string => uint256) public rewardPerTweet */\n    tag_79:\n      0x0a\n      dup2\n      dup1\n      mload\n      0x20\n      dup2\n      add\n      dup3\n      add\n      dup1\n      mload\n      dup5\n      dup3\n      mstore\n      0x20\n      dup4\n      add\n      0x20\n      dup6\n      add\n      keccak256\n      dup2\n      dup4\n      mstore\n      dup1\n      swap6\n      pop\n      pop\n      pop\n      pop\n      pop\n      pop\n      0x00\n      swap2\n      pop\n      swap1\n      pop\n      sload\n      dup2\n      jump\t// out\n        /* \"contracts/SocialDiamond.sol\":403:458  mapping(address => string[]) public tweetsFundedForUser */\n    tag_83:\n      mstore(0x20, 0x03)\n      dup2\n      0x00\n      mstore\n      keccak256(0x00, 0x40)\n      dup2\n      dup2\n      sload\n      dup2\n      lt\n      tag_158\n      jumpi\n      0x00\n      dup1\n      revert\n    tag_158:\n      swap1\n      0x00\n      mstore\n      keccak256(0x00, 0x20)\n      add\n      0x00\n      swap2\n      pop\n      swap2\n      pop\n      pop\n      dup1\n      sload\n      tag_160\n      swap1\n      tag_151\n      jump\t// in\n    tag_160:\n      dup1\n      0x1f\n      add\n      0x20\n      dup1\n      swap2\n      div\n      mul\n      0x20\n      add\n      mload(0x40)\n      swap1\n      dup2\n      add\n      0x40\n      mstore\n      dup1\n      swap3\n      swap2\n      swap1\n      dup2\n      dup2\n      mstore\n      0x20\n      add\n      dup3\n      dup1\n      sload\n      tag_161\n      swap1\n      tag_151\n      jump\t// in\n    tag_161:\n      dup1\n      iszero\n      tag_162\n      jumpi\n      dup1\n      0x1f\n      lt\n      tag_163\n      jumpi\n      0x0100\n      dup1\n      dup4\n      sload\n      div\n      mul\n      dup4\n      mstore\n      swap2\n      0x20\n      add\n      swap2\n      jump(tag_162)\n    tag_163:\n      dup3\n      add\n      swap2\n      swap1\n      0x00\n      mstore\n      keccak256(0x00, 0x20)\n      swap1\n    tag_164:\n      dup2\n      sload\n      dup2\n      mstore\n      swap1\n      0x01\n      add\n      swap1\n      0x20\n      add\n      dup1\n      dup4\n      gt\n      tag_164\n      jumpi\n      dup3\n      swap1\n      sub\n      0x1f\n      and\n      dup3\n      add\n      swap2\n    tag_162:\n      pop\n      pop\n      pop\n      pop\n      pop\n      dup2\n      jump\t// out\n        /* \"contracts/libraries/Ownable.sol\":627:857  function transferOwnership(address newOwner_) public virtual onlyOwner {... */\n    tag_87:\n        /* \"contracts/libraries/Ownable.sol\":425:435  msg.sender */\n      caller\n        /* \"contracts/libraries/Ownable.sol\":415:435  _owner == msg.sender */\n      0xffffffffffffffffffffffffffffffffffffffff\n      and\n        /* \"contracts/libraries/Ownable.sol\":415:421  _owner */\n      0x00\n      dup1\n      sload\n      swap1\n      0x0100\n      exp\n      swap1\n      div\n      0xffffffffffffffffffffffffffffffffffffffff\n      and\n        /* \"contracts/libraries/Ownable.sol\":415:435  _owner == msg.sender */\n      0xffffffffffffffffffffffffffffffffffffffff\n      and\n      eq\n        /* \"contracts/libraries/Ownable.sol\":407:472  require(_owner == msg.sender, \"Ownable: caller is not the owner\") */\n      tag_166\n      jumpi\n      mload(0x40)\n      0x08c379a000000000000000000000000000000000000000000000000000000000\n      dup2\n      mstore\n      0x04\n      add\n      tag_167\n      swap1\n      tag_138\n      jump\t// in\n    tag_167:\n      mload(0x40)\n      dup1\n      swap2\n      sub\n      swap1\n      revert\n    tag_166:\n        /* \"contracts/libraries/Ownable.sol\":733:734  0 */\n      0x00\n        /* \"contracts/libraries/Ownable.sol\":712:735  newOwner_ != address(0) */\n      0xffffffffffffffffffffffffffffffffffffffff\n      and\n        /* \"contracts/libraries/Ownable.sol\":712:721  newOwner_ */\n      dup2\n        /* \"contracts/libraries/Ownable.sol\":712:735  newOwner_ != address(0) */\n      0xffffffffffffffffffffffffffffffffffffffff\n      and\n      sub\n        /* \"contracts/libraries/Ownable.sol\":704:778  require(newOwner_ != address(0), \"Ownable: new owner is the zero address\") */\n      tag_169\n      jumpi\n      mload(0x40)\n      0x08c379a000000000000000000000000000000000000000000000000000000000\n      dup2\n      mstore\n      0x04\n      add\n      tag_170\n      swap1\n      tag_171\n      jump\t// in\n    tag_170:\n      mload(0x40)\n      dup1\n      swap2\n      sub\n      swap1\n      revert\n    tag_169:\n        /* \"contracts/libraries/Ownable.sol\":818:827  newOwner_ */\n      dup1\n        /* \"contracts/libraries/Ownable.sol\":789:828  OwnershipTransferred(_owner, newOwner_) */\n      0xffffffffffffffffffffffffffffffffffffffff\n      and\n        /* \"contracts/libraries/Ownable.sol\":810:816  _owner */\n      0x00\n      dup1\n      sload\n      swap1\n      0x0100\n      exp\n      swap1\n      div\n      0xffffffffffffffffffffffffffffffffffffffff\n      and\n        /* \"contracts/libraries/Ownable.sol\":789:828  OwnershipTransferred(_owner, newOwner_) */\n      0xffffffffffffffffffffffffffffffffffffffff\n      and\n      0x8be0079c531659141344cd1fd0a4f28419497f9722a3daafe3b4186f6b6457e0\n      mload(0x40)\n      mload(0x40)\n      dup1\n      swap2\n      sub\n      swap1\n      log3\n        /* \"contracts/libraries/Ownable.sol\":843:852  newOwner_ */\n      dup1\n        /* \"contracts/libraries/Ownable.sol\":834:840  _owner */\n      0x00\n      dup1\n        /* \"contracts/libraries/Ownable.sol\":834:852  _owner = newOwner_ */\n      0x0100\n      exp\n      dup2\n      sload\n      dup2\n      0xffffffffffffffffffffffffffffffffffffffff\n      mul\n      not\n      and\n      swap1\n      dup4\n      0xffffffffffffffffffffffffffffffffffffffff\n      and\n      mul\n      or\n      swap1\n      sstore\n      pop\n        /* \"contracts/libraries/Ownable.sol\":627:857  function transferOwnership(address newOwner_) public virtual onlyOwner {... */\n      pop\n      jump\t// out\n        /* \"contracts/SocialDiamond.sol\":864:901  uint256 public totalTransactionVolume */\n    tag_89:\n      sload(0x0b)\n      dup2\n      jump\t// out\n        /* \"contracts/SocialDiamond.sol\":1879:1969  function replaceReward(address _newReward) public onlyOwner {... */\n    tag_93:\n        /* \"contracts/libraries/Ownable.sol\":425:435  msg.sender */\n      caller\n        /* \"contracts/libraries/Ownable.sol\":415:435  _owner == msg.sender */\n      0xffffffffffffffffffffffffffffffffffffffff\n      and\n        /* \"contracts/libraries/Ownable.sol\":415:421  _owner */\n      0x00\n      dup1\n      sload\n      swap1\n      0x0100\n      exp\n      swap1\n      div\n      0xffffffffffffffffffffffffffffffffffffffff\n      and\n        /* \"contracts/libraries/Ownable.sol\":415:435  _owner == msg.sender */\n      0xffffffffffffffffffffffffffffffffffffffff\n      and\n      eq\n        /* \"contracts/libraries/Ownable.sol\":407:472  require(_owner == msg.sender, \"Ownable: caller is not the owner\") */\n      tag_173\n      jumpi\n      mload(0x40)\n      0x08c379a000000000000000000000000000000000000000000000000000000000\n      dup2\n      mstore\n      0x04\n      add\n      tag_174\n      swap1\n      tag_138\n      jump\t// in\n    tag_174:\n      mload(0x40)\n      dup1\n      swap2\n      sub\n      swap1\n      revert\n    tag_173:\n        /* \"contracts/SocialDiamond.sol\":1954:1964  _newReward */\n      dup1\n        /* \"contracts/SocialDiamond.sol\":1945:1951  reward */\n      0x01\n      0x00\n        /* \"contracts/SocialDiamond.sol\":1945:1964  reward = _newReward */\n      0x0100\n      exp\n      dup2\n      sload\n      dup2\n      0xffffffffffffffffffffffffffffffffffffffff\n      mul\n      not\n      and\n      swap1\n      dup4\n      0xffffffffffffffffffffffffffffffffffffffff\n      and\n      mul\n      or\n      swap1\n      sstore\n      pop\n        /* \"contracts/SocialDiamond.sol\":1879:1969  function replaceReward(address _newReward) public onlyOwner {... */\n      pop\n      jump\t// out\n        /* \"contracts/SocialDiamond.sol\":667:709  mapping(address => uint256) public donated */\n    tag_96:\n      mstore(0x20, 0x07)\n      dup1\n      0x00\n      mstore\n      keccak256(0x00, 0x40)\n      0x00\n      swap2\n      pop\n      swap1\n      pop\n      sload\n      dup2\n      jump\t// out\n        /* \"contracts/SocialDiamond.sol\":2404:2779  function getEligibility(uint256 _amount) internal returns (bool) {... */\n    tag_122:\n        /* \"contracts/SocialDiamond.sol\":2463:2467  bool */\n      0x00\n        /* \"contracts/SocialDiamond.sol\":2475:2491  uint256 _current */\n      dup1\n        /* \"contracts/SocialDiamond.sol\":2494:2501  donated */\n      0x07\n        /* \"contracts/SocialDiamond.sol\":2494:2513  donated[msg.sender] */\n      0x00\n        /* \"contracts/SocialDiamond.sol\":2502:2512  msg.sender */\n      caller\n        /* \"contracts/SocialDiamond.sol\":2494:2513  donated[msg.sender] */\n      0xffffffffffffffffffffffffffffffffffffffff\n      and\n      0xffffffffffffffffffffffffffffffffffffffff\n      and\n      dup2\n      mstore\n      0x20\n      add\n      swap1\n      dup2\n      mstore\n      0x20\n      add\n      0x00\n      keccak256\n      sload\n        /* \"contracts/SocialDiamond.sol\":2475:2513  uint256 _current = donated[msg.sender] */\n      swap1\n      pop\n        /* \"contracts/SocialDiamond.sol\":2519:2531  uint256 _new */\n      0x00\n        /* \"contracts/SocialDiamond.sol\":2545:2552  _amount */\n      dup4\n        /* \"contracts/SocialDiamond.sol\":2534:2542  _current */\n      dup3\n        /* \"contracts/SocialDiamond.sol\":2534:2552  _current + _amount */\n      tag_177\n      swap2\n      swap1\n      tag_118\n      jump\t// in\n    tag_177:\n        /* \"contracts/SocialDiamond.sol\":2519:2552  uint256 _new = _current + _amount */\n      swap1\n      pop\n        /* \"contracts/SocialDiamond.sol\":2580:2584  _new */\n      dup1\n        /* \"contracts/SocialDiamond.sol\":2558:2565  donated */\n      0x07\n        /* \"contracts/SocialDiamond.sol\":2558:2577  donated[msg.sender] */\n      0x00\n        /* \"contracts/SocialDiamond.sol\":2566:2576  msg.sender */\n      caller\n        /* \"contracts/SocialDiamond.sol\":2558:2577  donated[msg.sender] */\n      0xffffffffffffffffffffffffffffffffffffffff\n      and\n      0xffffffffffffffffffffffffffffffffffffffff\n      and\n      dup2\n      mstore\n      0x20\n      add\n      swap1\n      dup2\n      mstore\n      0x20\n      add\n      0x00\n      keccak256\n        /* \"contracts/SocialDiamond.sol\":2558:2584  donated[msg.sender] = _new */\n      dup2\n      swap1\n      sstore\n      pop\n        /* \"contracts/SocialDiamond.sol\":2605:2613  _current */\n      dup2\n        /* \"contracts/SocialDiamond.sol\":2594:2599  tiers */\n      0x09\n        /* \"contracts/SocialDiamond.sol\":2600:2601  0 */\n      0x00\n        /* \"contracts/SocialDiamond.sol\":2594:2602  tiers[0] */\n      dup2\n      sload\n      dup2\n      lt\n      tag_178\n      jumpi\n      tag_179\n      tag_148\n      jump\t// in\n    tag_179:\n    tag_178:\n      swap1\n      0x00\n      mstore\n      keccak256(0x00, 0x20)\n      add\n      sload\n        /* \"contracts/SocialDiamond.sol\":2594:2613  tiers[0] > _current */\n      gt\n        /* \"contracts/SocialDiamond.sol\":2594:2633  tiers[0] > _current && tiers[0] <= _new */\n      dup1\n      iszero\n      tag_181\n      jumpi\n      pop\n        /* \"contracts/SocialDiamond.sol\":2629:2633  _new */\n      dup1\n        /* \"contracts/SocialDiamond.sol\":2617:2622  tiers */\n      0x09\n        /* \"contracts/SocialDiamond.sol\":2623:2624  0 */\n      0x00\n        /* \"contracts/SocialDiamond.sol\":2617:2625  tiers[0] */\n      dup2\n      sload\n      dup2\n      lt\n      tag_182\n      jumpi\n      tag_183\n      tag_148\n      jump\t// in\n    tag_183:\n    tag_182:\n      swap1\n      0x00\n      mstore\n      keccak256(0x00, 0x20)\n      add\n      sload\n        /* \"contracts/SocialDiamond.sol\":2617:2633  tiers[0] <= _new */\n      gt\n      iszero\n        /* \"contracts/SocialDiamond.sol\":2594:2633  tiers[0] > _current && tiers[0] <= _new */\n    tag_181:\n        /* \"contracts/SocialDiamond.sol\":2590:2774  if (tiers[0] > _current && tiers[0] <= _new) {... */\n      iszero\n      tag_185\n      jumpi\n        /* \"contracts/SocialDiamond.sol\":2650:2654  true */\n      0x01\n        /* \"contracts/SocialDiamond.sol\":2643:2654  return true */\n      swap3\n      pop\n      pop\n      pop\n      jump(tag_176)\n        /* \"contracts/SocialDiamond.sol\":2590:2774  if (tiers[0] > _current && tiers[0] <= _new) {... */\n    tag_185:\n        /* \"contracts/SocialDiamond.sol\":2685:2686  1 */\n      0x01\n        /* \"contracts/SocialDiamond.sol\":2671:2676  tiers */\n      0x09\n        /* \"contracts/SocialDiamond.sol\":2671:2683  tiers.length */\n      dup1\n      sload\n      swap1\n      pop\n        /* \"contracts/SocialDiamond.sol\":2671:2686  tiers.length> 1 */\n      gt\n        /* \"contracts/SocialDiamond.sol\":2671:2709  tiers.length> 1 && tiers[1] > _current */\n      dup1\n      iszero\n      tag_187\n      jumpi\n      pop\n        /* \"contracts/SocialDiamond.sol\":2701:2709  _current */\n      dup2\n        /* \"contracts/SocialDiamond.sol\":2690:2695  tiers */\n      0x09\n        /* \"contracts/SocialDiamond.sol\":2696:2697  1 */\n      0x01\n        /* \"contracts/SocialDiamond.sol\":2690:2698  tiers[1] */\n      dup2\n      sload\n      dup2\n      lt\n      tag_188\n      jumpi\n      tag_189\n      tag_148\n      jump\t// in\n    tag_189:\n    tag_188:\n      swap1\n      0x00\n      mstore\n      keccak256(0x00, 0x20)\n      add\n      sload\n        /* \"contracts/SocialDiamond.sol\":2690:2709  tiers[1] > _current */\n      gt\n        /* \"contracts/SocialDiamond.sol\":2671:2709  tiers.length> 1 && tiers[1] > _current */\n    tag_187:\n        /* \"contracts/SocialDiamond.sol\":2671:2729  tiers.length> 1 && tiers[1] > _current && tiers[1] <= _new */\n      dup1\n      iszero\n      tag_191\n      jumpi\n      pop\n        /* \"contracts/SocialDiamond.sol\":2725:2729  _new */\n      dup1\n        /* \"contracts/SocialDiamond.sol\":2713:2718  tiers */\n      0x09\n        /* \"contracts/SocialDiamond.sol\":2719:2720  1 */\n      0x01\n        /* \"contracts/SocialDiamond.sol\":2713:2721  tiers[1] */\n      dup2\n      sload\n      dup2\n      lt\n      tag_192\n      jumpi\n      tag_193\n      tag_148\n      jump\t// in\n    tag_193:\n    tag_192:\n      swap1\n      0x00\n      mstore\n      keccak256(0x00, 0x20)\n      add\n      sload\n        /* \"contracts/SocialDiamond.sol\":2713:2729  tiers[1] <= _new */\n      gt\n      iszero\n        /* \"contracts/SocialDiamond.sol\":2671:2729  tiers.length> 1 && tiers[1] > _current && tiers[1] <= _new */\n    tag_191:\n        /* \"contracts/SocialDiamond.sol\":2667:2774  if (tiers.length> 1 && tiers[1] > _current && tiers[1] <= _new) {... */\n      iszero\n      tag_195\n      jumpi\n        /* \"contracts/SocialDiamond.sol\":2746:2750  true */\n      0x01\n        /* \"contracts/SocialDiamond.sol\":2739:2750  return true */\n      swap3\n      pop\n      pop\n      pop\n      jump(tag_176)\n        /* \"contracts/SocialDiamond.sol\":2667:2774  if (tiers.length> 1 && tiers[1] > _current && tiers[1] <= _new) {... */\n    tag_195:\n        /* \"contracts/SocialDiamond.sol\":2769:2774  false */\n      0x00\n        /* \"contracts/SocialDiamond.sol\":2762:2774  return false */\n      swap3\n      pop\n      pop\n      pop\n        /* \"contracts/SocialDiamond.sol\":2404:2779  function getEligibility(uint256 _amount) internal returns (bool) {... */\n    tag_176:\n      swap2\n      swap1\n      pop\n      jump\t// out\n    tag_99:\n      mload(0x40)\n      dup1\n      0x40\n      add\n      0x40\n      mstore\n      dup1\n      0x00\n      dup2\n      mstore\n      0x20\n      add\n      0x00\n      dup2\n      mstore\n      pop\n      swap1\n      jump\t// out\n    tag_133:\n      dup3\n      dup1\n      sload\n      tag_197\n      swap1\n      tag_151\n      jump\t// in\n    tag_197:\n      swap1\n      0x00\n      mstore\n      keccak256(0x00, 0x20)\n      swap1\n      0x1f\n      add\n      0x20\n      swap1\n      div\n      dup2\n      add\n      swap3\n      dup3\n      tag_199\n      jumpi\n      0x00\n      dup6\n      sstore\n      jump(tag_198)\n    tag_199:\n      dup3\n      0x1f\n      lt\n      tag_200\n      jumpi\n      dup1\n      mload\n      not(0xff)\n      and\n      dup4\n      dup1\n      add\n      or\n      dup6\n      sstore\n      jump(tag_198)\n    tag_200:\n      dup3\n      dup1\n      add\n      0x01\n      add\n      dup6\n      sstore\n      dup3\n      iszero\n      tag_198\n      jumpi\n      swap2\n      dup3\n      add\n    tag_201:\n      dup3\n      dup2\n      gt\n      iszero\n      tag_202\n      jumpi\n      dup3\n      mload\n      dup3\n      sstore\n      swap2\n      0x20\n      add\n      swap2\n      swap1\n      0x01\n      add\n      swap1\n      jump(tag_201)\n    tag_202:\n    tag_198:\n      pop\n      swap1\n      pop\n      tag_203\n      swap2\n      swap1\n      tag_204\n      jump\t// in\n    tag_203:\n      pop\n      swap1\n      jump\t// out\n    tag_204:\n    tag_205:\n      dup1\n      dup3\n      gt\n      iszero\n      tag_206\n      jumpi\n      0x00\n      dup2\n      0x00\n      swap1\n      sstore\n      pop\n      0x01\n      add\n      jump(tag_205)\n    tag_206:\n      pop\n      swap1\n      jump\t// out\n        /* \"#utility.yul\":7:82   */\n    tag_207:\n        /* \"#utility.yul\":40:46   */\n      0x00\n        /* \"#utility.yul\":73:75   */\n      0x40\n        /* \"#utility.yul\":67:76   */\n      mload\n        /* \"#utility.yul\":57:76   */\n      swap1\n      pop\n        /* \"#utility.yul\":7:82   */\n      swap1\n      jump\t// out\n        /* \"#utility.yul\":88:205   */\n    tag_208:\n        /* \"#utility.yul\":197:198   */\n      0x00\n        /* \"#utility.yul\":194:195   */\n      dup1\n        /* \"#utility.yul\":187:199   */\n      revert\n        /* \"#utility.yul\":211:328   */\n    tag_209:\n        /* \"#utility.yul\":320:321   */\n      0x00\n        /* \"#utility.yul\":317:318   */\n      dup1\n        /* \"#utility.yul\":310:322   */\n      revert\n        /* \"#utility.yul\":334:460   */\n    tag_210:\n        /* \"#utility.yul\":371:378   */\n      0x00\n        /* \"#utility.yul\":411:453   */\n      0xffffffffffffffffffffffffffffffffffffffff\n        /* \"#utility.yul\":404:409   */\n      dup3\n        /* \"#utility.yul\":400:454   */\n      and\n        /* \"#utility.yul\":389:454   */\n      swap1\n      pop\n        /* \"#utility.yul\":334:460   */\n      swap2\n      swap1\n      pop\n      jump\t// out\n        /* \"#utility.yul\":466:562   */\n    tag_211:\n        /* \"#utility.yul\":503:510   */\n      0x00\n        /* \"#utility.yul\":532:556   */\n      tag_253\n        /* \"#utility.yul\":550:555   */\n      dup3\n        /* \"#utility.yul\":532:556   */\n      tag_210\n      jump\t// in\n    tag_253:\n        /* \"#utility.yul\":521:556   */\n      swap1\n      pop\n        /* \"#utility.yul\":466:562   */\n      swap2\n      swap1\n      pop\n      jump\t// out\n        /* \"#utility.yul\":568:690   */\n    tag_212:\n        /* \"#utility.yul\":641:665   */\n      tag_255\n        /* \"#utility.yul\":659:664   */\n      dup2\n        /* \"#utility.yul\":641:665   */\n      tag_211\n      jump\t// in\n    tag_255:\n        /* \"#utility.yul\":634:639   */\n      dup2\n        /* \"#utility.yul\":631:666   */\n      eq\n        /* \"#utility.yul\":621:684   */\n      tag_256\n      jumpi\n        /* \"#utility.yul\":680:681   */\n      0x00\n        /* \"#utility.yul\":677:678   */\n      dup1\n        /* \"#utility.yul\":670:682   */\n      revert\n        /* \"#utility.yul\":621:684   */\n    tag_256:\n        /* \"#utility.yul\":568:690   */\n      pop\n      jump\t// out\n        /* \"#utility.yul\":696:835   */\n    tag_213:\n        /* \"#utility.yul\":742:747   */\n      0x00\n        /* \"#utility.yul\":780:786   */\n      dup2\n        /* \"#utility.yul\":767:787   */\n      calldataload\n        /* \"#utility.yul\":758:787   */\n      swap1\n      pop\n        /* \"#utility.yul\":796:829   */\n      tag_258\n        /* \"#utility.yul\":823:828   */\n      dup2\n        /* \"#utility.yul\":796:829   */\n      tag_212\n      jump\t// in\n    tag_258:\n        /* \"#utility.yul\":696:835   */\n      swap3\n      swap2\n      pop\n      pop\n      jump\t// out\n        /* \"#utility.yul\":841:1170   */\n    tag_26:\n        /* \"#utility.yul\":900:906   */\n      0x00\n        /* \"#utility.yul\":949:951   */\n      0x20\n        /* \"#utility.yul\":937:946   */\n      dup3\n        /* \"#utility.yul\":928:935   */\n      dup5\n        /* \"#utility.yul\":924:947   */\n      sub\n        /* \"#utility.yul\":920:952   */\n      slt\n        /* \"#utility.yul\":917:1036   */\n      iszero\n      tag_260\n      jumpi\n        /* \"#utility.yul\":955:1034   */\n      tag_261\n      tag_208\n      jump\t// in\n    tag_261:\n        /* \"#utility.yul\":917:1036   */\n    tag_260:\n        /* \"#utility.yul\":1075:1076   */\n      0x00\n        /* \"#utility.yul\":1100:1153   */\n      tag_262\n        /* \"#utility.yul\":1145:1152   */\n      dup5\n        /* \"#utility.yul\":1136:1142   */\n      dup3\n        /* \"#utility.yul\":1125:1134   */\n      dup6\n        /* \"#utility.yul\":1121:1143   */\n      add\n        /* \"#utility.yul\":1100:1153   */\n      tag_213\n      jump\t// in\n    tag_262:\n        /* \"#utility.yul\":1090:1153   */\n      swap2\n      pop\n        /* \"#utility.yul\":1046:1163   */\n      pop\n        /* \"#utility.yul\":841:1170   */\n      swap3\n      swap2\n      pop\n      pop\n      jump\t// out\n        /* \"#utility.yul\":1176:1253   */\n    tag_214:\n        /* \"#utility.yul\":1213:1220   */\n      0x00\n        /* \"#utility.yul\":1242:1247   */\n      dup2\n        /* \"#utility.yul\":1231:1247   */\n      swap1\n      pop\n        /* \"#utility.yul\":1176:1253   */\n      swap2\n      swap1\n      pop\n      jump\t// out\n        /* \"#utility.yul\":1259:1377   */\n    tag_215:\n        /* \"#utility.yul\":1346:1370   */\n      tag_265\n        /* \"#utility.yul\":1364:1369   */\n      dup2\n        /* \"#utility.yul\":1346:1370   */\n      tag_214\n      jump\t// in\n    tag_265:\n        /* \"#utility.yul\":1341:1344   */\n      dup3\n        /* \"#utility.yul\":1334:1371   */\n      mstore\n        /* \"#utility.yul\":1259:1377   */\n      pop\n      pop\n      jump\t// out\n        /* \"#utility.yul\":1383:1715   */\n    tag_29:\n        /* \"#utility.yul\":1504:1508   */\n      0x00\n        /* \"#utility.yul\":1542:1544   */\n      0x40\n        /* \"#utility.yul\":1531:1540   */\n      dup3\n        /* \"#utility.yul\":1527:1545   */\n      add\n        /* \"#utility.yul\":1519:1545   */\n      swap1\n      pop\n        /* \"#utility.yul\":1555:1626   */\n      tag_267\n        /* \"#utility.yul\":1623:1624   */\n      0x00\n        /* \"#utility.yul\":1612:1621   */\n      dup4\n        /* \"#utility.yul\":1608:1625   */\n      add\n        /* \"#utility.yul\":1599:1605   */\n      dup6\n        /* \"#utility.yul\":1555:1626   */\n      tag_215\n      jump\t// in\n    tag_267:\n        /* \"#utility.yul\":1636:1708   */\n      tag_268\n        /* \"#utility.yul\":1704:1706   */\n      0x20\n        /* \"#utility.yul\":1693:1702   */\n      dup4\n        /* \"#utility.yul\":1689:1707   */\n      add\n        /* \"#utility.yul\":1680:1686   */\n      dup5\n        /* \"#utility.yul\":1636:1708   */\n      tag_215\n      jump\t// in\n    tag_268:\n        /* \"#utility.yul\":1383:1715   */\n      swap4\n      swap3\n      pop\n      pop\n      pop\n      jump\t// out\n        /* \"#utility.yul\":1721:1829   */\n    tag_216:\n        /* \"#utility.yul\":1798:1822   */\n      tag_270\n        /* \"#utility.yul\":1816:1821   */\n      dup2\n        /* \"#utility.yul\":1798:1822   */\n      tag_214\n      jump\t// in\n    tag_270:\n        /* \"#utility.yul\":1793:1796   */\n      dup3\n        /* \"#utility.yul\":1786:1823   */\n      mstore\n        /* \"#utility.yul\":1721:1829   */\n      pop\n      pop\n      jump\t// out\n        /* \"#utility.yul\":1901:2408   */\n    tag_217:\n        /* \"#utility.yul\":2042:2046   */\n      0x40\n        /* \"#utility.yul\":2037:2040   */\n      dup3\n        /* \"#utility.yul\":2033:2047   */\n      add\n        /* \"#utility.yul\":2132:2136   */\n      0x00\n        /* \"#utility.yul\":2125:2130   */\n      dup3\n        /* \"#utility.yul\":2121:2137   */\n      add\n        /* \"#utility.yul\":2115:2138   */\n      mload\n        /* \"#utility.yul\":2151:2214   */\n      tag_272\n        /* \"#utility.yul\":2208:2212   */\n      0x00\n        /* \"#utility.yul\":2203:2206   */\n      dup6\n        /* \"#utility.yul\":2199:2213   */\n      add\n        /* \"#utility.yul\":2185:2197   */\n      dup3\n        /* \"#utility.yul\":2151:2214   */\n      tag_216\n      jump\t// in\n    tag_272:\n        /* \"#utility.yul\":2057:2224   */\n      pop\n        /* \"#utility.yul\":2309:2313   */\n      0x20\n        /* \"#utility.yul\":2302:2307   */\n      dup3\n        /* \"#utility.yul\":2298:2314   */\n      add\n        /* \"#utility.yul\":2292:2315   */\n      mload\n        /* \"#utility.yul\":2328:2391   */\n      tag_273\n        /* \"#utility.yul\":2385:2389   */\n      0x20\n        /* \"#utility.yul\":2380:2383   */\n      dup6\n        /* \"#utility.yul\":2376:2390   */\n      add\n        /* \"#utility.yul\":2362:2374   */\n      dup3\n        /* \"#utility.yul\":2328:2391   */\n      tag_216\n      jump\t// in\n    tag_273:\n        /* \"#utility.yul\":2234:2401   */\n      pop\n        /* \"#utility.yul\":2011:2408   */\n      pop\n        /* \"#utility.yul\":1901:2408   */\n      pop\n      pop\n      jump\t// out\n        /* \"#utility.yul\":2414:2724   */\n    tag_34:\n        /* \"#utility.yul\":2551:2555   */\n      0x00\n        /* \"#utility.yul\":2589:2591   */\n      0x40\n        /* \"#utility.yul\":2578:2587   */\n      dup3\n        /* \"#utility.yul\":2574:2592   */\n      add\n        /* \"#utility.yul\":2566:2592   */\n      swap1\n      pop\n        /* \"#utility.yul\":2602:2717   */\n      tag_275\n        /* \"#utility.yul\":2714:2715   */\n      0x00\n        /* \"#utility.yul\":2703:2712   */\n      dup4\n        /* \"#utility.yul\":2699:2716   */\n      add\n        /* \"#utility.yul\":2690:2696   */\n      dup5\n        /* \"#utility.yul\":2602:2717   */\n      tag_217\n      jump\t// in\n    tag_275:\n        /* \"#utility.yul\":2414:2724   */\n      swap3\n      swap2\n      pop\n      pop\n      jump\t// out\n        /* \"#utility.yul\":2730:2847   */\n    tag_218:\n        /* \"#utility.yul\":2839:2840   */\n      0x00\n        /* \"#utility.yul\":2836:2837   */\n      dup1\n        /* \"#utility.yul\":2829:2841   */\n      revert\n        /* \"#utility.yul\":2853:2970   */\n    tag_219:\n        /* \"#utility.yul\":2962:2963   */\n      0x00\n        /* \"#utility.yul\":2959:2960   */\n      dup1\n        /* \"#utility.yul\":2952:2964   */\n      revert\n        /* \"#utility.yul\":2976:3078   */\n    tag_220:\n        /* \"#utility.yul\":3017:3023   */\n      0x00\n        /* \"#utility.yul\":3068:3070   */\n      0x1f\n        /* \"#utility.yul\":3064:3071   */\n      not\n        /* \"#utility.yul\":3059:3061   */\n      0x1f\n        /* \"#utility.yul\":3052:3057   */\n      dup4\n        /* \"#utility.yul\":3048:3062   */\n      add\n        /* \"#utility.yul\":3044:3072   */\n      and\n        /* \"#utility.yul\":3034:3072   */\n      swap1\n      pop\n        /* \"#utility.yul\":2976:3078   */\n      swap2\n      swap1\n      pop\n      jump\t// out\n        /* \"#utility.yul\":3084:3264   */\n    tag_221:\n        /* \"#utility.yul\":3132:3209   */\n      0x4e487b7100000000000000000000000000000000000000000000000000000000\n        /* \"#utility.yul\":3129:3130   */\n      0x00\n        /* \"#utility.yul\":3122:3210   */\n      mstore\n        /* \"#utility.yul\":3229:3233   */\n      0x41\n        /* \"#utility.yul\":3226:3227   */\n      0x04\n        /* \"#utility.yul\":3219:3234   */\n      mstore\n        /* \"#utility.yul\":3253:3257   */\n      0x24\n        /* \"#utility.yul\":3250:3251   */\n      0x00\n        /* \"#utility.yul\":3243:3258   */\n      revert\n        /* \"#utility.yul\":3270:3551   */\n    tag_222:\n        /* \"#utility.yul\":3353:3380   */\n      tag_281\n        /* \"#utility.yul\":3375:3379   */\n      dup3\n        /* \"#utility.yul\":3353:3380   */\n      tag_220\n      jump\t// in\n    tag_281:\n        /* \"#utility.yul\":3345:3351   */\n      dup2\n        /* \"#utility.yul\":3341:3381   */\n      add\n        /* \"#utility.yul\":3483:3489   */\n      dup2\n        /* \"#utility.yul\":3471:3481   */\n      dup2\n        /* \"#utility.yul\":3468:3490   */\n      lt\n        /* \"#utility.yul\":3447:3465   */\n      0xffffffffffffffff\n        /* \"#utility.yul\":3435:3445   */\n      dup3\n        /* \"#utility.yul\":3432:3466   */\n      gt\n        /* \"#utility.yul\":3429:3491   */\n      or\n        /* \"#utility.yul\":3426:3514   */\n      iszero\n      tag_282\n      jumpi\n        /* \"#utility.yul\":3494:3512   */\n      tag_283\n      tag_221\n      jump\t// in\n    tag_283:\n        /* \"#utility.yul\":3426:3514   */\n    tag_282:\n        /* \"#utility.yul\":3534:3544   */\n      dup1\n        /* \"#utility.yul\":3530:3532   */\n      0x40\n        /* \"#utility.yul\":3523:3545   */\n      mstore\n        /* \"#utility.yul\":3313:3551   */\n      pop\n        /* \"#utility.yul\":3270:3551   */\n      pop\n      pop\n      jump\t// out\n        /* \"#utility.yul\":3557:3686   */\n    tag_223:\n        /* \"#utility.yul\":3591:3597   */\n      0x00\n        /* \"#utility.yul\":3618:3638   */\n      tag_285\n      tag_207\n      jump\t// in\n    tag_285:\n        /* \"#utility.yul\":3608:3638   */\n      swap1\n      pop\n        /* \"#utility.yul\":3647:3680   */\n      tag_286\n        /* \"#utility.yul\":3675:3679   */\n      dup3\n        /* \"#utility.yul\":3667:3673   */\n      dup3\n        /* \"#utility.yul\":3647:3680   */\n      tag_222\n      jump\t// in\n    tag_286:\n        /* \"#utility.yul\":3557:3686   */\n      swap2\n      swap1\n      pop\n      jump\t// out\n        /* \"#utility.yul\":3692:4000   */\n    tag_224:\n        /* \"#utility.yul\":3754:3758   */\n      0x00\n        /* \"#utility.yul\":3844:3862   */\n      0xffffffffffffffff\n        /* \"#utility.yul\":3836:3842   */\n      dup3\n        /* \"#utility.yul\":3833:3863   */\n      gt\n        /* \"#utility.yul\":3830:3886   */\n      iszero\n      tag_288\n      jumpi\n        /* \"#utility.yul\":3866:3884   */\n      tag_289\n      tag_221\n      jump\t// in\n    tag_289:\n        /* \"#utility.yul\":3830:3886   */\n    tag_288:\n        /* \"#utility.yul\":3904:3933   */\n      tag_290\n        /* \"#utility.yul\":3926:3932   */\n      dup3\n        /* \"#utility.yul\":3904:3933   */\n      tag_220\n      jump\t// in\n    tag_290:\n        /* \"#utility.yul\":3896:3933   */\n      swap1\n      pop\n        /* \"#utility.yul\":3988:3992   */\n      0x20\n        /* \"#utility.yul\":3982:3986   */\n      dup2\n        /* \"#utility.yul\":3978:3993   */\n      add\n        /* \"#utility.yul\":3970:3993   */\n      swap1\n      pop\n        /* \"#utility.yul\":3692:4000   */\n      swap2\n      swap1\n      pop\n      jump\t// out\n        /* \"#utility.yul\":4006:4160   */\n    tag_225:\n        /* \"#utility.yul\":4090:4096   */\n      dup3\n        /* \"#utility.yul\":4085:4088   */\n      dup2\n        /* \"#utility.yul\":4080:4083   */\n      dup4\n        /* \"#utility.yul\":4067:4097   */\n      calldatacopy\n        /* \"#utility.yul\":4152:4153   */\n      0x00\n        /* \"#utility.yul\":4143:4149   */\n      dup4\n        /* \"#utility.yul\":4138:4141   */\n      dup4\n        /* \"#utility.yul\":4134:4150   */\n      add\n        /* \"#utility.yul\":4127:4154   */\n      mstore\n        /* \"#utility.yul\":4006:4160   */\n      pop\n      pop\n      pop\n      jump\t// out\n        /* \"#utility.yul\":4166:4578   */\n    tag_226:\n        /* \"#utility.yul\":4244:4249   */\n      0x00\n        /* \"#utility.yul\":4269:4335   */\n      tag_293\n        /* \"#utility.yul\":4285:4334   */\n      tag_294\n        /* \"#utility.yul\":4327:4333   */\n      dup5\n        /* \"#utility.yul\":4285:4334   */\n      tag_224\n      jump\t// in\n    tag_294:\n        /* \"#utility.yul\":4269:4335   */\n      tag_223\n      jump\t// in\n    tag_293:\n        /* \"#utility.yul\":4260:4335   */\n      swap1\n      pop\n        /* \"#utility.yul\":4358:4364   */\n      dup3\n        /* \"#utility.yul\":4351:4356   */\n      dup2\n        /* \"#utility.yul\":4344:4365   */\n      mstore\n        /* \"#utility.yul\":4396:4400   */\n      0x20\n        /* \"#utility.yul\":4389:4394   */\n      dup2\n        /* \"#utility.yul\":4385:4401   */\n      add\n        /* \"#utility.yul\":4434:4437   */\n      dup5\n        /* \"#utility.yul\":4425:4431   */\n      dup5\n        /* \"#utility.yul\":4420:4423   */\n      dup5\n        /* \"#utility.yul\":4416:4432   */\n      add\n        /* \"#utility.yul\":4413:4438   */\n      gt\n        /* \"#utility.yul\":4410:4522   */\n      iszero\n      tag_295\n      jumpi\n        /* \"#utility.yul\":4441:4520   */\n      tag_296\n      tag_219\n      jump\t// in\n    tag_296:\n        /* \"#utility.yul\":4410:4522   */\n    tag_295:\n        /* \"#utility.yul\":4531:4572   */\n      tag_297\n        /* \"#utility.yul\":4565:4571   */\n      dup5\n        /* \"#utility.yul\":4560:4563   */\n      dup3\n        /* \"#utility.yul\":4555:4558   */\n      dup6\n        /* \"#utility.yul\":4531:4572   */\n      tag_225\n      jump\t// in\n    tag_297:\n        /* \"#utility.yul\":4250:4578   */\n      pop\n        /* \"#utility.yul\":4166:4578   */\n      swap4\n      swap3\n      pop\n      pop\n      pop\n      jump\t// out\n        /* \"#utility.yul\":4598:4938   */\n    tag_227:\n        /* \"#utility.yul\":4654:4659   */\n      0x00\n        /* \"#utility.yul\":4703:4706   */\n      dup3\n        /* \"#utility.yul\":4696:4700   */\n      0x1f\n        /* \"#utility.yul\":4688:4694   */\n      dup4\n        /* \"#utility.yul\":4684:4701   */\n      add\n        /* \"#utility.yul\":4680:4707   */\n      slt\n        /* \"#utility.yul\":4670:4792   */\n      tag_299\n      jumpi\n        /* \"#utility.yul\":4711:4790   */\n      tag_300\n      tag_218\n      jump\t// in\n    tag_300:\n        /* \"#utility.yul\":4670:4792   */\n    tag_299:\n        /* \"#utility.yul\":4828:4834   */\n      dup2\n        /* \"#utility.yul\":4815:4835   */\n      calldataload\n        /* \"#utility.yul\":4853:4932   */\n      tag_301\n        /* \"#utility.yul\":4928:4931   */\n      dup5\n        /* \"#utility.yul\":4920:4926   */\n      dup3\n        /* \"#utility.yul\":4913:4917   */\n      0x20\n        /* \"#utility.yul\":4905:4911   */\n      dup7\n        /* \"#utility.yul\":4901:4918   */\n      add\n        /* \"#utility.yul\":4853:4932   */\n      tag_226\n      jump\t// in\n    tag_301:\n        /* \"#utility.yul\":4844:4932   */\n      swap2\n      pop\n        /* \"#utility.yul\":4660:4938   */\n      pop\n        /* \"#utility.yul\":4598:4938   */\n      swap3\n      swap2\n      pop\n      pop\n      jump\t// out\n        /* \"#utility.yul\":4944:5598   */\n    tag_37:\n        /* \"#utility.yul\":5022:5028   */\n      0x00\n        /* \"#utility.yul\":5030:5036   */\n      dup1\n        /* \"#utility.yul\":5079:5081   */\n      0x40\n        /* \"#utility.yul\":5067:5076   */\n      dup4\n        /* \"#utility.yul\":5058:5065   */\n      dup6\n        /* \"#utility.yul\":5054:5077   */\n      sub\n        /* \"#utility.yul\":5050:5082   */\n      slt\n        /* \"#utility.yul\":5047:5166   */\n      iszero\n      tag_303\n      jumpi\n        /* \"#utility.yul\":5085:5164   */\n      tag_304\n      tag_208\n      jump\t// in\n    tag_304:\n        /* \"#utility.yul\":5047:5166   */\n    tag_303:\n        /* \"#utility.yul\":5233:5234   */\n      0x00\n        /* \"#utility.yul\":5222:5231   */\n      dup4\n        /* \"#utility.yul\":5218:5235   */\n      add\n        /* \"#utility.yul\":5205:5236   */\n      calldataload\n        /* \"#utility.yul\":5263:5281   */\n      0xffffffffffffffff\n        /* \"#utility.yul\":5255:5261   */\n      dup2\n        /* \"#utility.yul\":5252:5282   */\n      gt\n        /* \"#utility.yul\":5249:5366   */\n      iszero\n      tag_305\n      jumpi\n        /* \"#utility.yul\":5285:5364   */\n      tag_306\n      tag_209\n      jump\t// in\n    tag_306:\n        /* \"#utility.yul\":5249:5366   */\n    tag_305:\n        /* \"#utility.yul\":5390:5453   */\n      tag_307\n        /* \"#utility.yul\":5445:5452   */\n      dup6\n        /* \"#utility.yul\":5436:5442   */\n      dup3\n        /* \"#utility.yul\":5425:5434   */\n      dup7\n        /* \"#utility.yul\":5421:5443   */\n      add\n        /* \"#utility.yul\":5390:5453   */\n      tag_227\n      jump\t// in\n    tag_307:\n        /* \"#utility.yul\":5380:5453   */\n      swap3\n      pop\n        /* \"#utility.yul\":5176:5463   */\n      pop\n        /* \"#utility.yul\":5502:5504   */\n      0x20\n        /* \"#utility.yul\":5528:5581   */\n      tag_308\n        /* \"#utility.yul\":5573:5580   */\n      dup6\n        /* \"#utility.yul\":5564:5570   */\n      dup3\n        /* \"#utility.yul\":5553:5562   */\n      dup7\n        /* \"#utility.yul\":5549:5571   */\n      add\n        /* \"#utility.yul\":5528:5581   */\n      tag_213\n      jump\t// in\n    tag_308:\n        /* \"#utility.yul\":5518:5581   */\n      swap2\n      pop\n        /* \"#utility.yul\":5473:5591   */\n      pop\n        /* \"#utility.yul\":4944:5598   */\n      swap3\n      pop\n      swap3\n      swap1\n      pop\n      jump\t// out\n        /* \"#utility.yul\":5604:5694   */\n    tag_228:\n        /* \"#utility.yul\":5638:5645   */\n      0x00\n        /* \"#utility.yul\":5681:5686   */\n      dup2\n        /* \"#utility.yul\":5674:5687   */\n      iszero\n        /* \"#utility.yul\":5667:5688   */\n      iszero\n        /* \"#utility.yul\":5656:5688   */\n      swap1\n      pop\n        /* \"#utility.yul\":5604:5694   */\n      swap2\n      swap1\n      pop\n      jump\t// out\n        /* \"#utility.yul\":5700:5809   */\n    tag_229:\n        /* \"#utility.yul\":5781:5802   */\n      tag_311\n        /* \"#utility.yul\":5796:5801   */\n      dup2\n        /* \"#utility.yul\":5781:5802   */\n      tag_228\n      jump\t// in\n    tag_311:\n        /* \"#utility.yul\":5776:5779   */\n      dup3\n        /* \"#utility.yul\":5769:5803   */\n      mstore\n        /* \"#utility.yul\":5700:5809   */\n      pop\n      pop\n      jump\t// out\n        /* \"#utility.yul\":5815:6025   */\n    tag_40:\n        /* \"#utility.yul\":5902:5906   */\n      0x00\n        /* \"#utility.yul\":5940:5942   */\n      0x20\n        /* \"#utility.yul\":5929:5938   */\n      dup3\n        /* \"#utility.yul\":5925:5943   */\n      add\n        /* \"#utility.yul\":5917:5943   */\n      swap1\n      pop\n        /* \"#utility.yul\":5953:6018   */\n      tag_313\n        /* \"#utility.yul\":6015:6016   */\n      0x00\n        /* \"#utility.yul\":6004:6013   */\n      dup4\n        /* \"#utility.yul\":6000:6017   */\n      add\n        /* \"#utility.yul\":5991:5997   */\n      dup5\n        /* \"#utility.yul\":5953:6018   */\n      tag_229\n      jump\t// in\n    tag_313:\n        /* \"#utility.yul\":5815:6025   */\n      swap3\n      swap2\n      pop\n      pop\n      jump\t// out\n        /* \"#utility.yul\":6031:6153   */\n    tag_230:\n        /* \"#utility.yul\":6104:6128   */\n      tag_315\n        /* \"#utility.yul\":6122:6127   */\n      dup2\n        /* \"#utility.yul\":6104:6128   */\n      tag_214\n      jump\t// in\n    tag_315:\n        /* \"#utility.yul\":6097:6102   */\n      dup2\n        /* \"#utility.yul\":6094:6129   */\n      eq\n        /* \"#utility.yul\":6084:6147   */\n      tag_316\n      jumpi\n        /* \"#utility.yul\":6143:6144   */\n      0x00\n        /* \"#utility.yul\":6140:6141   */\n      dup1\n        /* \"#utility.yul\":6133:6145   */\n      revert\n        /* \"#utility.yul\":6084:6147   */\n    tag_316:\n        /* \"#utility.yul\":6031:6153   */\n      pop\n      jump\t// out\n        /* \"#utility.yul\":6159:6298   */\n    tag_231:\n        /* \"#utility.yul\":6205:6210   */\n      0x00\n        /* \"#utility.yul\":6243:6249   */\n      dup2\n        /* \"#utility.yul\":6230:6250   */\n      calldataload\n        /* \"#utility.yul\":6221:6250   */\n      swap1\n      pop\n        /* \"#utility.yul\":6259:6292   */\n      tag_318\n        /* \"#utility.yul\":6286:6291   */\n      dup2\n        /* \"#utility.yul\":6259:6292   */\n      tag_230\n      jump\t// in\n    tag_318:\n        /* \"#utility.yul\":6159:6298   */\n      swap3\n      swap2\n      pop\n      pop\n      jump\t// out\n        /* \"#utility.yul\":6304:7103   */\n    tag_46:\n        /* \"#utility.yul\":6391:6397   */\n      0x00\n        /* \"#utility.yul\":6399:6405   */\n      dup1\n        /* \"#utility.yul\":6407:6413   */\n      0x00\n        /* \"#utility.yul\":6456:6458   */\n      0x60\n        /* \"#utility.yul\":6444:6453   */\n      dup5\n        /* \"#utility.yul\":6435:6442   */\n      dup7\n        /* \"#utility.yul\":6431:6454   */\n      sub\n        /* \"#utility.yul\":6427:6459   */\n      slt\n        /* \"#utility.yul\":6424:6543   */\n      iszero\n      tag_320\n      jumpi\n        /* \"#utility.yul\":6462:6541   */\n      tag_321\n      tag_208\n      jump\t// in\n    tag_321:\n        /* \"#utility.yul\":6424:6543   */\n    tag_320:\n        /* \"#utility.yul\":6582:6583   */\n      0x00\n        /* \"#utility.yul\":6607:6660   */\n      tag_322\n        /* \"#utility.yul\":6652:6659   */\n      dup7\n        /* \"#utility.yul\":6643:6649   */\n      dup3\n        /* \"#utility.yul\":6632:6641   */\n      dup8\n        /* \"#utility.yul\":6628:6650   */\n      add\n        /* \"#utility.yul\":6607:6660   */\n      tag_231\n      jump\t// in\n    tag_322:\n        /* \"#utility.yul\":6597:6660   */\n      swap4\n      pop\n        /* \"#utility.yul\":6553:6670   */\n      pop\n        /* \"#utility.yul\":6737:6739   */\n      0x20\n        /* \"#utility.yul\":6726:6735   */\n      dup5\n        /* \"#utility.yul\":6722:6740   */\n      add\n        /* \"#utility.yul\":6709:6741   */\n      calldataload\n        /* \"#utility.yul\":6768:6786   */\n      0xffffffffffffffff\n        /* \"#utility.yul\":6760:6766   */\n      dup2\n        /* \"#utility.yul\":6757:6787   */\n      gt\n        /* \"#utility.yul\":6754:6871   */\n      iszero\n      tag_323\n      jumpi\n        /* \"#utility.yul\":6790:6869   */\n      tag_324\n      tag_209\n      jump\t// in\n    tag_324:\n        /* \"#utility.yul\":6754:6871   */\n    tag_323:\n        /* \"#utility.yul\":6895:6958   */\n      tag_325\n        /* \"#utility.yul\":6950:6957   */\n      dup7\n        /* \"#utility.yul\":6941:6947   */\n      dup3\n        /* \"#utility.yul\":6930:6939   */\n      dup8\n        /* \"#utility.yul\":6926:6948   */\n      add\n        /* \"#utility.yul\":6895:6958   */\n      tag_227\n      jump\t// in\n    tag_325:\n        /* \"#utility.yul\":6885:6958   */\n      swap3\n      pop\n        /* \"#utility.yul\":6680:6968   */\n      pop\n        /* \"#utility.yul\":7007:7009   */\n      0x40\n        /* \"#utility.yul\":7033:7086   */\n      tag_326\n        /* \"#utility.yul\":7078:7085   */\n      dup7\n        /* \"#utility.yul\":7069:7075   */\n      dup3\n        /* \"#utility.yul\":7058:7067   */\n      dup8\n        /* \"#utility.yul\":7054:7076   */\n      add\n        /* \"#utility.yul\":7033:7086   */\n      tag_213\n      jump\t// in\n    tag_326:\n        /* \"#utility.yul\":7023:7086   */\n      swap2\n      pop\n        /* \"#utility.yul\":6978:7096   */\n      pop\n        /* \"#utility.yul\":6304:7103   */\n      swap3\n      pop\n      swap3\n      pop\n      swap3\n      jump\t// out\n        /* \"#utility.yul\":7109:7331   */\n    tag_52:\n        /* \"#utility.yul\":7202:7206   */\n      0x00\n        /* \"#utility.yul\":7240:7242   */\n      0x20\n        /* \"#utility.yul\":7229:7238   */\n      dup3\n        /* \"#utility.yul\":7225:7243   */\n      add\n        /* \"#utility.yul\":7217:7243   */\n      swap1\n      pop\n        /* \"#utility.yul\":7253:7324   */\n      tag_328\n        /* \"#utility.yul\":7321:7322   */\n      0x00\n        /* \"#utility.yul\":7310:7319   */\n      dup4\n        /* \"#utility.yul\":7306:7323   */\n      add\n        /* \"#utility.yul\":7297:7303   */\n      dup5\n        /* \"#utility.yul\":7253:7324   */\n      tag_215\n      jump\t// in\n    tag_328:\n        /* \"#utility.yul\":7109:7331   */\n      swap3\n      swap2\n      pop\n      pop\n      jump\t// out\n        /* \"#utility.yul\":7337:7455   */\n    tag_232:\n        /* \"#utility.yul\":7424:7448   */\n      tag_330\n        /* \"#utility.yul\":7442:7447   */\n      dup2\n        /* \"#utility.yul\":7424:7448   */\n      tag_211\n      jump\t// in\n    tag_330:\n        /* \"#utility.yul\":7419:7422   */\n      dup3\n        /* \"#utility.yul\":7412:7449   */\n      mstore\n        /* \"#utility.yul\":7337:7455   */\n      pop\n      pop\n      jump\t// out\n        /* \"#utility.yul\":7461:7683   */\n    tag_58:\n        /* \"#utility.yul\":7554:7558   */\n      0x00\n        /* \"#utility.yul\":7592:7594   */\n      0x20\n        /* \"#utility.yul\":7581:7590   */\n      dup3\n        /* \"#utility.yul\":7577:7595   */\n      add\n        /* \"#utility.yul\":7569:7595   */\n      swap1\n      pop\n        /* \"#utility.yul\":7605:7676   */\n      tag_332\n        /* \"#utility.yul\":7673:7674   */\n      0x00\n        /* \"#utility.yul\":7662:7671   */\n      dup4\n        /* \"#utility.yul\":7658:7675   */\n      add\n        /* \"#utility.yul\":7649:7655   */\n      dup5\n        /* \"#utility.yul\":7605:7676   */\n      tag_232\n      jump\t// in\n    tag_332:\n        /* \"#utility.yul\":7461:7683   */\n      swap3\n      swap2\n      pop\n      pop\n      jump\t// out\n        /* \"#utility.yul\":7689:8163   */\n    tag_64:\n        /* \"#utility.yul\":7757:7763   */\n      0x00\n        /* \"#utility.yul\":7765:7771   */\n      dup1\n        /* \"#utility.yul\":7814:7816   */\n      0x40\n        /* \"#utility.yul\":7802:7811   */\n      dup4\n        /* \"#utility.yul\":7793:7800   */\n      dup6\n        /* \"#utility.yul\":7789:7812   */\n      sub\n        /* \"#utility.yul\":7785:7817   */\n      slt\n        /* \"#utility.yul\":7782:7901   */\n      iszero\n      tag_334\n      jumpi\n        /* \"#utility.yul\":7820:7899   */\n      tag_335\n      tag_208\n      jump\t// in\n    tag_335:\n        /* \"#utility.yul\":7782:7901   */\n    tag_334:\n        /* \"#utility.yul\":7940:7941   */\n      0x00\n        /* \"#utility.yul\":7965:8018   */\n      tag_336\n        /* \"#utility.yul\":8010:8017   */\n      dup6\n        /* \"#utility.yul\":8001:8007   */\n      dup3\n        /* \"#utility.yul\":7990:7999   */\n      dup7\n        /* \"#utility.yul\":7986:8008   */\n      add\n        /* \"#utility.yul\":7965:8018   */\n      tag_213\n      jump\t// in\n    tag_336:\n        /* \"#utility.yul\":7955:8018   */\n      swap3\n      pop\n        /* \"#utility.yul\":7911:8028   */\n      pop\n        /* \"#utility.yul\":8067:8069   */\n      0x20\n        /* \"#utility.yul\":8093:8146   */\n      tag_337\n        /* \"#utility.yul\":8138:8145   */\n      dup6\n        /* \"#utility.yul\":8129:8135   */\n      dup3\n        /* \"#utility.yul\":8118:8127   */\n      dup7\n        /* \"#utility.yul\":8114:8136   */\n      add\n        /* \"#utility.yul\":8093:8146   */\n      tag_231\n      jump\t// in\n    tag_337:\n        /* \"#utility.yul\":8083:8146   */\n      swap2\n      pop\n        /* \"#utility.yul\":8038:8156   */\n      pop\n        /* \"#utility.yul\":7689:8163   */\n      swap3\n      pop\n      swap3\n      swap1\n      pop\n      jump\t// out\n        /* \"#utility.yul\":8169:8268   */\n    tag_233:\n        /* \"#utility.yul\":8221:8227   */\n      0x00\n        /* \"#utility.yul\":8255:8260   */\n      dup2\n        /* \"#utility.yul\":8249:8261   */\n      mload\n        /* \"#utility.yul\":8239:8261   */\n      swap1\n      pop\n        /* \"#utility.yul\":8169:8268   */\n      swap2\n      swap1\n      pop\n      jump\t// out\n        /* \"#utility.yul\":8274:8443   */\n    tag_234:\n        /* \"#utility.yul\":8358:8369   */\n      0x00\n        /* \"#utility.yul\":8392:8398   */\n      dup3\n        /* \"#utility.yul\":8387:8390   */\n      dup3\n        /* \"#utility.yul\":8380:8399   */\n      mstore\n        /* \"#utility.yul\":8432:8436   */\n      0x20\n        /* \"#utility.yul\":8427:8430   */\n      dup3\n        /* \"#utility.yul\":8423:8437   */\n      add\n        /* \"#utility.yul\":8408:8437   */\n      swap1\n      pop\n        /* \"#utility.yul\":8274:8443   */\n      swap3\n      swap2\n      pop\n      pop\n      jump\t// out\n        /* \"#utility.yul\":8449:8756   */\n    tag_235:\n        /* \"#utility.yul\":8517:8518   */\n      0x00\n        /* \"#utility.yul\":8527:8640   */\n    tag_341:\n        /* \"#utility.yul\":8541:8547   */\n      dup4\n        /* \"#utility.yul\":8538:8539   */\n      dup2\n        /* \"#utility.yul\":8535:8548   */\n      lt\n        /* \"#utility.yul\":8527:8640   */\n      iszero\n      tag_343\n      jumpi\n        /* \"#utility.yul\":8626:8627   */\n      dup1\n        /* \"#utility.yul\":8621:8624   */\n      dup3\n        /* \"#utility.yul\":8617:8628   */\n      add\n        /* \"#utility.yul\":8611:8629   */\n      mload\n        /* \"#utility.yul\":8607:8608   */\n      dup2\n        /* \"#utility.yul\":8602:8605   */\n      dup5\n        /* \"#utility.yul\":8598:8609   */\n      add\n        /* \"#utility.yul\":8591:8630   */\n      mstore\n        /* \"#utility.yul\":8563:8565   */\n      0x20\n        /* \"#utility.yul\":8560:8561   */\n      dup2\n        /* \"#utility.yul\":8556:8566   */\n      add\n        /* \"#utility.yul\":8551:8566   */\n      swap1\n      pop\n        /* \"#utility.yul\":8527:8640   */\n      jump(tag_341)\n    tag_343:\n        /* \"#utility.yul\":8658:8664   */\n      dup4\n        /* \"#utility.yul\":8655:8656   */\n      dup2\n        /* \"#utility.yul\":8652:8665   */\n      gt\n        /* \"#utility.yul\":8649:8750   */\n      iszero\n      tag_344\n      jumpi\n        /* \"#utility.yul\":8738:8739   */\n      0x00\n        /* \"#utility.yul\":8729:8735   */\n      dup5\n        /* \"#utility.yul\":8724:8727   */\n      dup5\n        /* \"#utility.yul\":8720:8736   */\n      add\n        /* \"#utility.yul\":8713:8740   */\n      mstore\n        /* \"#utility.yul\":8649:8750   */\n    tag_344:\n        /* \"#utility.yul\":8498:8756   */\n      pop\n        /* \"#utility.yul\":8449:8756   */\n      pop\n      pop\n      pop\n      jump\t// out\n        /* \"#utility.yul\":8762:9126   */\n    tag_236:\n        /* \"#utility.yul\":8850:8853   */\n      0x00\n        /* \"#utility.yul\":8878:8917   */\n      tag_346\n        /* \"#utility.yul\":8911:8916   */\n      dup3\n        /* \"#utility.yul\":8878:8917   */\n      tag_233\n      jump\t// in\n    tag_346:\n        /* \"#utility.yul\":8933:9004   */\n      tag_347\n        /* \"#utility.yul\":8997:9003   */\n      dup2\n        /* \"#utility.yul\":8992:8995   */\n      dup6\n        /* \"#utility.yul\":8933:9004   */\n      tag_234\n      jump\t// in\n    tag_347:\n        /* \"#utility.yul\":8926:9004   */\n      swap4\n      pop\n        /* \"#utility.yul\":9013:9065   */\n      tag_348\n        /* \"#utility.yul\":9058:9064   */\n      dup2\n        /* \"#utility.yul\":9053:9056   */\n      dup6\n        /* \"#utility.yul\":9046:9050   */\n      0x20\n        /* \"#utility.yul\":9039:9044   */\n      dup7\n        /* \"#utility.yul\":9035:9051   */\n      add\n        /* \"#utility.yul\":9013:9065   */\n      tag_235\n      jump\t// in\n    tag_348:\n        /* \"#utility.yul\":9090:9119   */\n      tag_349\n        /* \"#utility.yul\":9112:9118   */\n      dup2\n        /* \"#utility.yul\":9090:9119   */\n      tag_220\n      jump\t// in\n    tag_349:\n        /* \"#utility.yul\":9085:9088   */\n      dup5\n        /* \"#utility.yul\":9081:9120   */\n      add\n        /* \"#utility.yul\":9074:9120   */\n      swap2\n      pop\n        /* \"#utility.yul\":8854:9126   */\n      pop\n        /* \"#utility.yul\":8762:9126   */\n      swap3\n      swap2\n      pop\n      pop\n      jump\t// out\n        /* \"#utility.yul\":9132:9445   */\n    tag_67:\n        /* \"#utility.yul\":9245:9249   */\n      0x00\n        /* \"#utility.yul\":9283:9285   */\n      0x20\n        /* \"#utility.yul\":9272:9281   */\n      dup3\n        /* \"#utility.yul\":9268:9286   */\n      add\n        /* \"#utility.yul\":9260:9286   */\n      swap1\n      pop\n        /* \"#utility.yul\":9332:9341   */\n      dup2\n        /* \"#utility.yul\":9326:9330   */\n      dup2\n        /* \"#utility.yul\":9322:9342   */\n      sub\n        /* \"#utility.yul\":9318:9319   */\n      0x00\n        /* \"#utility.yul\":9307:9316   */\n      dup4\n        /* \"#utility.yul\":9303:9320   */\n      add\n        /* \"#utility.yul\":9296:9343   */\n      mstore\n        /* \"#utility.yul\":9360:9438   */\n      tag_351\n        /* \"#utility.yul\":9433:9437   */\n      dup2\n        /* \"#utility.yul\":9424:9430   */\n      dup5\n        /* \"#utility.yul\":9360:9438   */\n      tag_236\n      jump\t// in\n    tag_351:\n        /* \"#utility.yul\":9352:9438   */\n      swap1\n      pop\n        /* \"#utility.yul\":9132:9445   */\n      swap3\n      swap2\n      pop\n      pop\n      jump\t// out\n        /* \"#utility.yul\":9451:9960   */\n    tag_70:\n        /* \"#utility.yul\":9520:9526   */\n      0x00\n        /* \"#utility.yul\":9569:9571   */\n      0x20\n        /* \"#utility.yul\":9557:9566   */\n      dup3\n        /* \"#utility.yul\":9548:9555   */\n      dup5\n        /* \"#utility.yul\":9544:9567   */\n      sub\n        /* \"#utility.yul\":9540:9572   */\n      slt\n        /* \"#utility.yul\":9537:9656   */\n      iszero\n      tag_353\n      jumpi\n        /* \"#utility.yul\":9575:9654   */\n      tag_354\n      tag_208\n      jump\t// in\n    tag_354:\n        /* \"#utility.yul\":9537:9656   */\n    tag_353:\n        /* \"#utility.yul\":9723:9724   */\n      0x00\n        /* \"#utility.yul\":9712:9721   */\n      dup3\n        /* \"#utility.yul\":9708:9725   */\n      add\n        /* \"#utility.yul\":9695:9726   */\n      calldataload\n        /* \"#utility.yul\":9753:9771   */\n      0xffffffffffffffff\n        /* \"#utility.yul\":9745:9751   */\n      dup2\n        /* \"#utility.yul\":9742:9772   */\n      gt\n        /* \"#utility.yul\":9739:9856   */\n      iszero\n      tag_355\n      jumpi\n        /* \"#utility.yul\":9775:9854   */\n      tag_356\n      tag_209\n      jump\t// in\n    tag_356:\n        /* \"#utility.yul\":9739:9856   */\n    tag_355:\n        /* \"#utility.yul\":9880:9943   */\n      tag_357\n        /* \"#utility.yul\":9935:9942   */\n      dup5\n        /* \"#utility.yul\":9926:9932   */\n      dup3\n        /* \"#utility.yul\":9915:9924   */\n      dup6\n        /* \"#utility.yul\":9911:9933   */\n      add\n        /* \"#utility.yul\":9880:9943   */\n      tag_227\n      jump\t// in\n    tag_357:\n        /* \"#utility.yul\":9870:9943   */\n      swap2\n      pop\n        /* \"#utility.yul\":9666:9953   */\n      pop\n        /* \"#utility.yul\":9451:9960   */\n      swap3\n      swap2\n      pop\n      pop\n      jump\t// out\n        /* \"#utility.yul\":9966:10298   */\n    tag_104:\n        /* \"#utility.yul\":10087:10091   */\n      0x00\n        /* \"#utility.yul\":10125:10127   */\n      0x40\n        /* \"#utility.yul\":10114:10123   */\n      dup3\n        /* \"#utility.yul\":10110:10128   */\n      add\n        /* \"#utility.yul\":10102:10128   */\n      swap1\n      pop\n        /* \"#utility.yul\":10138:10209   */\n      tag_359\n        /* \"#utility.yul\":10206:10207   */\n      0x00\n        /* \"#utility.yul\":10195:10204   */\n      dup4\n        /* \"#utility.yul\":10191:10208   */\n      add\n        /* \"#utility.yul\":10182:10188   */\n      dup6\n        /* \"#utility.yul\":10138:10209   */\n      tag_232\n      jump\t// in\n    tag_359:\n        /* \"#utility.yul\":10219:10291   */\n      tag_360\n        /* \"#utility.yul\":10287:10289   */\n      0x20\n        /* \"#utility.yul\":10276:10285   */\n      dup4\n        /* \"#utility.yul\":10272:10290   */\n      add\n        /* \"#utility.yul\":10263:10269   */\n      dup5\n        /* \"#utility.yul\":10219:10291   */\n      tag_215\n      jump\t// in\n    tag_360:\n        /* \"#utility.yul\":9966:10298   */\n      swap4\n      swap3\n      pop\n      pop\n      pop\n      jump\t// out\n        /* \"#utility.yul\":10304:10420   */\n    tag_237:\n        /* \"#utility.yul\":10374:10395   */\n      tag_362\n        /* \"#utility.yul\":10389:10394   */\n      dup2\n        /* \"#utility.yul\":10374:10395   */\n      tag_228\n      jump\t// in\n    tag_362:\n        /* \"#utility.yul\":10367:10372   */\n      dup2\n        /* \"#utility.yul\":10364:10396   */\n      eq\n        /* \"#utility.yul\":10354:10414   */\n      tag_363\n      jumpi\n        /* \"#utility.yul\":10410:10411   */\n      0x00\n        /* \"#utility.yul\":10407:10408   */\n      dup1\n        /* \"#utility.yul\":10400:10412   */\n      revert\n        /* \"#utility.yul\":10354:10414   */\n    tag_363:\n        /* \"#utility.yul\":10304:10420   */\n      pop\n      jump\t// out\n        /* \"#utility.yul\":10426:10563   */\n    tag_238:\n        /* \"#utility.yul\":10480:10485   */\n      0x00\n        /* \"#utility.yul\":10511:10517   */\n      dup2\n        /* \"#utility.yul\":10505:10518   */\n      mload\n        /* \"#utility.yul\":10496:10518   */\n      swap1\n      pop\n        /* \"#utility.yul\":10527:10557   */\n      tag_365\n        /* \"#utility.yul\":10551:10556   */\n      dup2\n        /* \"#utility.yul\":10527:10557   */\n      tag_237\n      jump\t// in\n    tag_365:\n        /* \"#utility.yul\":10426:10563   */\n      swap3\n      swap2\n      pop\n      pop\n      jump\t// out\n        /* \"#utility.yul\":10569:10914   */\n    tag_108:\n        /* \"#utility.yul\":10636:10642   */\n      0x00\n        /* \"#utility.yul\":10685:10687   */\n      0x20\n        /* \"#utility.yul\":10673:10682   */\n      dup3\n        /* \"#utility.yul\":10664:10671   */\n      dup5\n        /* \"#utility.yul\":10660:10683   */\n      sub\n        /* \"#utility.yul\":10656:10688   */\n      slt\n        /* \"#utility.yul\":10653:10772   */\n      iszero\n      tag_367\n      jumpi\n        /* \"#utility.yul\":10691:10770   */\n      tag_368\n      tag_208\n      jump\t// in\n    tag_368:\n        /* \"#utility.yul\":10653:10772   */\n    tag_367:\n        /* \"#utility.yul\":10811:10812   */\n      0x00\n        /* \"#utility.yul\":10836:10897   */\n      tag_369\n        /* \"#utility.yul\":10889:10896   */\n      dup5\n        /* \"#utility.yul\":10880:10886   */\n      dup3\n        /* \"#utility.yul\":10869:10878   */\n      dup6\n        /* \"#utility.yul\":10865:10887   */\n      add\n        /* \"#utility.yul\":10836:10897   */\n      tag_238\n      jump\t// in\n    tag_369:\n        /* \"#utility.yul\":10826:10897   */\n      swap2\n      pop\n        /* \"#utility.yul\":10782:10907   */\n      pop\n        /* \"#utility.yul\":10569:10914   */\n      swap3\n      swap2\n      pop\n      pop\n      jump\t// out\n        /* \"#utility.yul\":10920:11362   */\n    tag_111:\n        /* \"#utility.yul\":11069:11073   */\n      0x00\n        /* \"#utility.yul\":11107:11109   */\n      0x60\n        /* \"#utility.yul\":11096:11105   */\n      dup3\n        /* \"#utility.yul\":11092:11110   */\n      add\n        /* \"#utility.yul\":11084:11110   */\n      swap1\n      pop\n        /* \"#utility.yul\":11120:11191   */\n      tag_371\n        /* \"#utility.yul\":11188:11189   */\n      0x00\n        /* \"#utility.yul\":11177:11186   */\n      dup4\n        /* \"#utility.yul\":11173:11190   */\n      add\n        /* \"#utility.yul\":11164:11170   */\n      dup7\n        /* \"#utility.yul\":11120:11191   */\n      tag_232\n      jump\t// in\n    tag_371:\n        /* \"#utility.yul\":11201:11273   */\n      tag_372\n        /* \"#utility.yul\":11269:11271   */\n      0x20\n        /* \"#utility.yul\":11258:11267   */\n      dup4\n        /* \"#utility.yul\":11254:11272   */\n      add\n        /* \"#utility.yul\":11245:11251   */\n      dup6\n        /* \"#utility.yul\":11201:11273   */\n      tag_232\n      jump\t// in\n    tag_372:\n        /* \"#utility.yul\":11283:11355   */\n      tag_373\n        /* \"#utility.yul\":11351:11353   */\n      0x40\n        /* \"#utility.yul\":11340:11349   */\n      dup4\n        /* \"#utility.yul\":11336:11354   */\n      add\n        /* \"#utility.yul\":11327:11333   */\n      dup5\n        /* \"#utility.yul\":11283:11355   */\n      tag_215\n      jump\t// in\n    tag_373:\n        /* \"#utility.yul\":10920:11362   */\n      swap5\n      swap4\n      pop\n      pop\n      pop\n      pop\n      jump\t// out\n        /* \"#utility.yul\":11368:11516   */\n    tag_239:\n        /* \"#utility.yul\":11470:11481   */\n      0x00\n        /* \"#utility.yul\":11507:11510   */\n      dup2\n        /* \"#utility.yul\":11492:11510   */\n      swap1\n      pop\n        /* \"#utility.yul\":11368:11516   */\n      swap3\n      swap2\n      pop\n      pop\n      jump\t// out\n        /* \"#utility.yul\":11522:11899   */\n    tag_240:\n        /* \"#utility.yul\":11628:11631   */\n      0x00\n        /* \"#utility.yul\":11656:11695   */\n      tag_376\n        /* \"#utility.yul\":11689:11694   */\n      dup3\n        /* \"#utility.yul\":11656:11695   */\n      tag_233\n      jump\t// in\n    tag_376:\n        /* \"#utility.yul\":11711:11800   */\n      tag_377\n        /* \"#utility.yul\":11793:11799   */\n      dup2\n        /* \"#utility.yul\":11788:11791   */\n      dup6\n        /* \"#utility.yul\":11711:11800   */\n      tag_239\n      jump\t// in\n    tag_377:\n        /* \"#utility.yul\":11704:11800   */\n      swap4\n      pop\n        /* \"#utility.yul\":11809:11861   */\n      tag_378\n        /* \"#utility.yul\":11854:11860   */\n      dup2\n        /* \"#utility.yul\":11849:11852   */\n      dup6\n        /* \"#utility.yul\":11842:11846   */\n      0x20\n        /* \"#utility.yul\":11835:11840   */\n      dup7\n        /* \"#utility.yul\":11831:11847   */\n      add\n        /* \"#utility.yul\":11809:11861   */\n      tag_235\n      jump\t// in\n    tag_378:\n        /* \"#utility.yul\":11886:11892   */\n      dup1\n        /* \"#utility.yul\":11881:11884   */\n      dup5\n        /* \"#utility.yul\":11877:11893   */\n      add\n        /* \"#utility.yul\":11870:11893   */\n      swap2\n      pop\n        /* \"#utility.yul\":11632:11899   */\n      pop\n        /* \"#utility.yul\":11522:11899   */\n      swap3\n      swap2\n      pop\n      pop\n      jump\t// out\n        /* \"#utility.yul\":11905:12180   */\n    tag_116:\n        /* \"#utility.yul\":12037:12040   */\n      0x00\n        /* \"#utility.yul\":12059:12154   */\n      tag_380\n        /* \"#utility.yul\":12150:12153   */\n      dup3\n        /* \"#utility.yul\":12141:12147   */\n      dup5\n        /* \"#utility.yul\":12059:12154   */\n      tag_240\n      jump\t// in\n    tag_380:\n        /* \"#utility.yul\":12052:12154   */\n      swap2\n      pop\n        /* \"#utility.yul\":12171:12174   */\n      dup2\n        /* \"#utility.yul\":12164:12174   */\n      swap1\n      pop\n        /* \"#utility.yul\":11905:12180   */\n      swap3\n      swap2\n      pop\n      pop\n      jump\t// out\n        /* \"#utility.yul\":12186:12366   */\n    tag_241:\n        /* \"#utility.yul\":12234:12311   */\n      0x4e487b7100000000000000000000000000000000000000000000000000000000\n        /* \"#utility.yul\":12231:12232   */\n      0x00\n        /* \"#utility.yul\":12224:12312   */\n      mstore\n        /* \"#utility.yul\":12331:12335   */\n      0x11\n        /* \"#utility.yul\":12328:12329   */\n      0x04\n        /* \"#utility.yul\":12321:12336   */\n      mstore\n        /* \"#utility.yul\":12355:12359   */\n      0x24\n        /* \"#utility.yul\":12352:12353   */\n      0x00\n        /* \"#utility.yul\":12345:12360   */\n      revert\n        /* \"#utility.yul\":12372:12677   */\n    tag_118:\n        /* \"#utility.yul\":12412:12415   */\n      0x00\n        /* \"#utility.yul\":12431:12451   */\n      tag_383\n        /* \"#utility.yul\":12449:12450   */\n      dup3\n        /* \"#utility.yul\":12431:12451   */\n      tag_214\n      jump\t// in\n    tag_383:\n        /* \"#utility.yul\":12426:12451   */\n      swap2\n      pop\n        /* \"#utility.yul\":12465:12485   */\n      tag_384\n        /* \"#utility.yul\":12483:12484   */\n      dup4\n        /* \"#utility.yul\":12465:12485   */\n      tag_214\n      jump\t// in\n    tag_384:\n        /* \"#utility.yul\":12460:12485   */\n      swap3\n      pop\n        /* \"#utility.yul\":12619:12620   */\n      dup3\n        /* \"#utility.yul\":12551:12617   */\n      0xffffffffffffffffffffffffffffffffffffffffffffffffffffffffffffffff\n        /* \"#utility.yul\":12547:12621   */\n      sub\n        /* \"#utility.yul\":12544:12545   */\n      dup3\n        /* \"#utility.yul\":12541:12622   */\n      gt\n        /* \"#utility.yul\":12538:12645   */\n      iszero\n      tag_385\n      jumpi\n        /* \"#utility.yul\":12625:12643   */\n      tag_386\n      tag_241\n      jump\t// in\n    tag_386:\n        /* \"#utility.yul\":12538:12645   */\n    tag_385:\n        /* \"#utility.yul\":12669:12670   */\n      dup3\n        /* \"#utility.yul\":12666:12667   */\n      dup3\n        /* \"#utility.yul\":12662:12671   */\n      add\n        /* \"#utility.yul\":12655:12671   */\n      swap1\n      pop\n        /* \"#utility.yul\":12372:12677   */\n      swap3\n      swap2\n      pop\n      pop\n      jump\t// out\n        /* \"#utility.yul\":12683:12865   */\n    tag_242:\n        /* \"#utility.yul\":12823:12857   */\n      0x4f776e61626c653a2063616c6c6572206973206e6f7420746865206f776e6572\n        /* \"#utility.yul\":12819:12820   */\n      0x00\n        /* \"#utility.yul\":12811:12817   */\n      dup3\n        /* \"#utility.yul\":12807:12821   */\n      add\n        /* \"#utility.yul\":12800:12858   */\n      mstore\n        /* \"#utility.yul\":12683:12865   */\n      pop\n      jump\t// out\n        /* \"#utility.yul\":12871:13237   */\n    tag_243:\n        /* \"#utility.yul\":13013:13016   */\n      0x00\n        /* \"#utility.yul\":13034:13101   */\n      tag_389\n        /* \"#utility.yul\":13098:13100   */\n      0x20\n        /* \"#utility.yul\":13093:13096   */\n      dup4\n        /* \"#utility.yul\":13034:13101   */\n      tag_234\n      jump\t// in\n    tag_389:\n        /* \"#utility.yul\":13027:13101   */\n      swap2\n      pop\n        /* \"#utility.yul\":13110:13203   */\n      tag_390\n        /* \"#utility.yul\":13199:13202   */\n      dup3\n        /* \"#utility.yul\":13110:13203   */\n      tag_242\n      jump\t// in\n    tag_390:\n        /* \"#utility.yul\":13228:13230   */\n      0x20\n        /* \"#utility.yul\":13223:13226   */\n      dup3\n        /* \"#utility.yul\":13219:13231   */\n      add\n        /* \"#utility.yul\":13212:13231   */\n      swap1\n      pop\n        /* \"#utility.yul\":12871:13237   */\n      swap2\n      swap1\n      pop\n      jump\t// out\n        /* \"#utility.yul\":13243:13662   */\n    tag_138:\n        /* \"#utility.yul\":13409:13413   */\n      0x00\n        /* \"#utility.yul\":13447:13449   */\n      0x20\n        /* \"#utility.yul\":13436:13445   */\n      dup3\n        /* \"#utility.yul\":13432:13450   */\n      add\n        /* \"#utility.yul\":13424:13450   */\n      swap1\n      pop\n        /* \"#utility.yul\":13496:13505   */\n      dup2\n        /* \"#utility.yul\":13490:13494   */\n      dup2\n        /* \"#utility.yul\":13486:13506   */\n      sub\n        /* \"#utility.yul\":13482:13483   */\n      0x00\n        /* \"#utility.yul\":13471:13480   */\n      dup4\n        /* \"#utility.yul\":13467:13484   */\n      add\n        /* \"#utility.yul\":13460:13507   */\n      mstore\n        /* \"#utility.yul\":13524:13655   */\n      tag_392\n        /* \"#utility.yul\":13650:13654   */\n      dup2\n        /* \"#utility.yul\":13524:13655   */\n      tag_243\n      jump\t// in\n    tag_392:\n        /* \"#utility.yul\":13516:13655   */\n      swap1\n      pop\n        /* \"#utility.yul\":13243:13662   */\n      swap2\n      swap1\n      pop\n      jump\t// out\n        /* \"#utility.yul\":13668:13848   */\n    tag_148:\n        /* \"#utility.yul\":13716:13793   */\n      0x4e487b7100000000000000000000000000000000000000000000000000000000\n        /* \"#utility.yul\":13713:13714   */\n      0x00\n        /* \"#utility.yul\":13706:13794   */\n      mstore\n        /* \"#utility.yul\":13813:13817   */\n      0x32\n        /* \"#utility.yul\":13810:13811   */\n      0x04\n        /* \"#utility.yul\":13803:13818   */\n      mstore\n        /* \"#utility.yul\":13837:13841   */\n      0x24\n        /* \"#utility.yul\":13834:13835   */\n      0x00\n        /* \"#utility.yul\":13827:13842   */\n      revert\n        /* \"#utility.yul\":13854:14034   */\n    tag_244:\n        /* \"#utility.yul\":13902:13979   */\n      0x4e487b7100000000000000000000000000000000000000000000000000000000\n        /* \"#utility.yul\":13899:13900   */\n      0x00\n        /* \"#utility.yul\":13892:13980   */\n      mstore\n        /* \"#utility.yul\":13999:14003   */\n      0x22\n        /* \"#utility.yul\":13996:13997   */\n      0x04\n        /* \"#utility.yul\":13989:14004   */\n      mstore\n        /* \"#utility.yul\":14023:14027   */\n      0x24\n        /* \"#utility.yul\":14020:14021   */\n      0x00\n        /* \"#utility.yul\":14013:14028   */\n      revert\n        /* \"#utility.yul\":14040:14360   */\n    tag_151:\n        /* \"#utility.yul\":14084:14090   */\n      0x00\n        /* \"#utility.yul\":14121:14122   */\n      0x02\n        /* \"#utility.yul\":14115:14119   */\n      dup3\n        /* \"#utility.yul\":14111:14123   */\n      div\n        /* \"#utility.yul\":14101:14123   */\n      swap1\n      pop\n        /* \"#utility.yul\":14168:14169   */\n      0x01\n        /* \"#utility.yul\":14162:14166   */\n      dup3\n        /* \"#utility.yul\":14158:14170   */\n      and\n        /* \"#utility.yul\":14189:14207   */\n      dup1\n        /* \"#utility.yul\":14179:14260   */\n      tag_396\n      jumpi\n        /* \"#utility.yul\":14245:14249   */\n      0x7f\n        /* \"#utility.yul\":14237:14243   */\n      dup3\n        /* \"#utility.yul\":14233:14250   */\n      and\n        /* \"#utility.yul\":14223:14250   */\n      swap2\n      pop\n        /* \"#utility.yul\":14179:14260   */\n    tag_396:\n        /* \"#utility.yul\":14307:14309   */\n      0x20\n        /* \"#utility.yul\":14299:14305   */\n      dup3\n        /* \"#utility.yul\":14296:14310   */\n      lt\n        /* \"#utility.yul\":14276:14294   */\n      dup2\n        /* \"#utility.yul\":14273:14311   */\n      sub\n        /* \"#utility.yul\":14270:14354   */\n      tag_397\n      jumpi\n        /* \"#utility.yul\":14326:14344   */\n      tag_398\n      tag_244\n      jump\t// in\n    tag_398:\n        /* \"#utility.yul\":14270:14354   */\n    tag_397:\n        /* \"#utility.yul\":14091:14360   */\n      pop\n        /* \"#utility.yul\":14040:14360   */\n      swap2\n      swap1\n      pop\n      jump\t// out\n        /* \"#utility.yul\":14366:14591   */\n    tag_245:\n        /* \"#utility.yul\":14506:14540   */\n      0x4f776e61626c653a206e6577206f776e657220697320746865207a65726f2061\n        /* \"#utility.yul\":14502:14503   */\n      0x00\n        /* \"#utility.yul\":14494:14500   */\n      dup3\n        /* \"#utility.yul\":14490:14504   */\n      add\n        /* \"#utility.yul\":14483:14541   */\n      mstore\n        /* \"#utility.yul\":14575:14583   */\n      0x6464726573730000000000000000000000000000000000000000000000000000\n        /* \"#utility.yul\":14570:14572   */\n      0x20\n        /* \"#utility.yul\":14562:14568   */\n      dup3\n        /* \"#utility.yul\":14558:14573   */\n      add\n        /* \"#utility.yul\":14551:14584   */\n      mstore\n        /* \"#utility.yul\":14366:14591   */\n      pop\n      jump\t// out\n        /* \"#utility.yul\":14597:14963   */\n    tag_246:\n        /* \"#utility.yul\":14739:14742   */\n      0x00\n        /* \"#utility.yul\":14760:14827   */\n      tag_401\n        /* \"#utility.yul\":14824:14826   */\n      0x26\n        /* \"#utility.yul\":14819:14822   */\n      dup4\n        /* \"#utility.yul\":14760:14827   */\n      tag_234\n      jump\t// in\n    tag_401:\n        /* \"#utility.yul\":14753:14827   */\n      swap2\n      pop\n        /* \"#utility.yul\":14836:14929   */\n      tag_402\n        /* \"#utility.yul\":14925:14928   */\n      dup3\n        /* \"#utility.yul\":14836:14929   */\n      tag_245\n      jump\t// in\n    tag_402:\n        /* \"#utility.yul\":14954:14956   */\n      0x40\n        /* \"#utility.yul\":14949:14952   */\n      dup3\n        /* \"#utility.yul\":14945:14957   */\n      add\n        /* \"#utility.yul\":14938:14957   */\n      swap1\n      pop\n        /* \"#utility.yul\":14597:14963   */\n      swap2\n      swap1\n      pop\n      jump\t// out\n        /* \"#utility.yul\":14969:15388   */\n    tag_171:\n        /* \"#utility.yul\":15135:15139   */\n      0x00\n        /* \"#utility.yul\":15173:15175   */\n      0x20\n        /* \"#utility.yul\":15162:15171   */\n      dup3\n        /* \"#utility.yul\":15158:15176   */\n      add\n        /* \"#utility.yul\":15150:15176   */\n      swap1\n      pop\n        /* \"#utility.yul\":15222:15231   */\n      dup2\n        /* \"#utility.yul\":15216:15220   */\n      dup2\n        /* \"#utility.yul\":15212:15232   */\n      sub\n        /* \"#utility.yul\":15208:15209   */\n      0x00\n        /* \"#utility.yul\":15197:15206   */\n      dup4\n        /* \"#utility.yul\":15193:15210   */\n      add\n        /* \"#utility.yul\":15186:15233   */\n      mstore\n        /* \"#utility.yul\":15250:15381   */\n      tag_404\n        /* \"#utility.yul\":15376:15380   */\n      dup2\n        /* \"#utility.yul\":15250:15381   */\n      tag_246\n      jump\t// in\n    tag_404:\n        /* \"#utility.yul\":15242:15381   */\n      swap1\n      pop\n        /* \"#utility.yul\":14969:15388   */\n      swap2\n      swap1\n      pop\n      jump\t// out\n\n    auxdata: 0xa26469706673582212201a6437d3e5f6473c4e86a7b0895dde7c441d0ff0d7a1004c7e154fb1c0b2573064736f6c634300080e0033\n}\n",
				"bytecode": {
					"linkReferences": {},
					"object": "60806040523480156200001157600080fd5b5060405162001f9b38038062001f9b8339818101604052810190620000379190620003ee565b336000806101000a81548173ffffffffffffffffffffffffffffffffffffffff021916908373ffffffffffffffffffffffffffffffffffffffff16021790555060008054906101000a900473ffffffffffffffffffffffffffffffffffffffff1673ffffffffffffffffffffffffffffffffffffffff16600073ffffffffffffffffffffffffffffffffffffffff167f8be0079c531659141344cd1fd0a4f28419497f9722a3daafe3b4186f6b6457e060405160405180910390a381600260006101000a81548173ffffffffffffffffffffffffffffffffffffffff021916908373ffffffffffffffffffffffffffffffffffffffff16021790555080600990805190602001906200014b92919062000154565b50505062000454565b82805482825590600052602060002090810192821562000193579160200282015b828111156200019257825182559160200191906001019062000175565b5b509050620001a29190620001a6565b5090565b5b80821115620001c1576000816000905550600101620001a7565b5090565b6000604051905090565b600080fd5b600080fd5b600073ffffffffffffffffffffffffffffffffffffffff82169050919050565b60006200020682620001d9565b9050919050565b6200021881620001f9565b81146200022457600080fd5b50565b60008151905062000238816200020d565b92915050565b600080fd5b6000601f19601f8301169050919050565b7f4e487b7100000000000000000000000000000000000000000000000000000000600052604160045260246000fd5b6200028e8262000243565b810181811067ffffffffffffffff82111715620002b057620002af62000254565b5b80604052505050565b6000620002c5620001c5565b9050620002d3828262000283565b919050565b600067ffffffffffffffff821115620002f657620002f562000254565b5b602082029050602081019050919050565b600080fd5b6000819050919050565b62000321816200030c565b81146200032d57600080fd5b50565b600081519050620003418162000316565b92915050565b60006200035e6200035884620002d8565b620002b9565b9050808382526020820190506020840283018581111562000384576200038362000307565b5b835b81811015620003b157806200039c888262000330565b84526020840193505060208101905062000386565b5050509392505050565b600082601f830112620003d357620003d26200023e565b5b8151620003e584826020860162000347565b91505092915050565b60008060408385031215620004085762000407620001cf565b5b6000620004188582860162000227565b925050602083015167ffffffffffffffff8111156200043c576200043b620001d4565b5b6200044a85828601620003bb565b9150509250929050565b611b3780620004646000396000f3fe608060405234801561001057600080fd5b50600436106101165760003560e01c8063d0d996c4116100a2578063f0863cce11610071578063f0863cce14610318578063f2fde38b14610348578063f839f31914610364578063f8c842e514610382578063fb690dcc1461039e57610116565b8063d0d996c414610258578063d38ef5f114610288578063de0c4c7c146102b8578063de51d1fd146102e857610116565b80632a108e21116100e95780632a108e21146101c85780635d6c83b5146101e4578063715018a6146102145780638da5cb5b1461021e578063cac843aa1461023c57610116565b80630660f1e81461011b578063078b0fb71461014c5780630b21d7a21461017c5780631e83409a146101ac575b600080fd5b61013560048036038101906101309190611330565b6103ce565b604051610143929190611376565b60405180910390f35b61016660048036038101906101619190611330565b6103f2565b60405161017391906113dd565b60405180910390f35b6101966004803603810190610191919061153e565b61045f565b6040516101a391906115b5565b60405180910390f35b6101c660048036038101906101c19190611330565b6104a4565b005b6101e260048036038101906101dd91906115fc565b6105d6565b005b6101fe60048036038101906101f99190611330565b610973565b60405161020b919061166b565b60405180910390f35b61021c61098b565b005b610226610ad7565b6040516102339190611695565b60405180910390f35b61025660048036038101906102519190611330565b610b00565b005b610272600480360381019061026d91906116b0565b610bd2565b60405161027f9190611778565b60405180910390f35b6102a2600480360381019061029d919061179a565b610cc0565b6040516102af919061166b565b60405180910390f35b6102d260048036038101906102cd9190611330565b610ce8565b6040516102df919061166b565b60405180910390f35b61030260048036038101906102fd919061179a565b610d00565b60405161030f919061166b565b60405180910390f35b610332600480360381019061032d91906116b0565b610d2e565b60405161033f9190611778565b60405180910390f35b610362600480360381019061035d9190611330565b610de7565b005b61036c610fa1565b604051610379919061166b565b60405180910390f35b61039c60048036038101906103979190611330565b610fa7565b005b6103b860048036038101906103b39190611330565b611079565b6040516103c5919061166b565b60405180910390f35b60066020528060005260406000206000915090508060000154908060010154905082565b6103fa611201565b600660008373ffffffffffffffffffffffffffffffffffffffff1673ffffffffffffffffffffffffffffffffffffffff168152602001908152602001600020604051806040016040529081600082015481526020016001820154815250509050919050565b6005828051602081018201805184825260208301602085012081835280955050505050506020528060005260406000206000915091509054906101000a900460ff1681565b6000600660003373ffffffffffffffffffffffffffffffffffffffff1673ffffffffffffffffffffffffffffffffffffffff1681526020019081526020016000206001015411156105d357600260009054906101000a900473ffffffffffffffffffffffffffffffffffffffff1673ffffffffffffffffffffffffffffffffffffffff1663a9059cbb82600660003373ffffffffffffffffffffffffffffffffffffffff1673ffffffffffffffffffffffffffffffffffffffff168152602001908152602001600020600101546040518363ffffffff1660e01b815260040161058e9291906117e3565b6020604051808303816000875af11580156105ad573d6000803e3d6000fd5b505050506040513d601f19601f820116820180604052508101906105d19190611838565b505b50565b600260009054906101000a900473ffffffffffffffffffffffffffffffffffffffff1673ffffffffffffffffffffffffffffffffffffffff166323b872dd3330866040518463ffffffff1660e01b815260040161063593929190611865565b6020604051808303816000875af1158015610654573d6000803e3d6000fd5b505050506040513d601f19601f820116820180604052508101906106789190611838565b5082600a8360405161068a91906118d8565b908152602001604051809103902060008282546106a7919061191e565b9250508190555082600b60008282546106c0919061191e565b9250508190555082600660008373ffffffffffffffffffffffffffffffffffffffff1673ffffffffffffffffffffffffffffffffffffffff1681526020019081526020016000206001016000828254610719919061191e565b9250508190555061072983611091565b156107bc57600160009054906101000a900473ffffffffffffffffffffffffffffffffffffffff1673ffffffffffffffffffffffffffffffffffffffff16636a627842336040518263ffffffff1660e01b81526004016107899190611695565b600060405180830381600087803b1580156107a357600080fd5b505af11580156107b7573d6000803e3d6000fd5b505050505b6005826040516107cc91906118d8565b908152602001604051809103902060003373ffffffffffffffffffffffffffffffffffffffff1673ffffffffffffffffffffffffffffffffffffffff16815260200190815260200160002060009054906101000a900460ff1661096e576001600460003373ffffffffffffffffffffffffffffffffffffffff1673ffffffffffffffffffffffffffffffffffffffff1681526020019081526020016000206000828254610879919061191e565b92505081905550600360003373ffffffffffffffffffffffffffffffffffffffff1673ffffffffffffffffffffffffffffffffffffffff168152602001908152602001600020829080600181540180825580915050600190039060005260206000200160009091909190915090805190602001906108f892919061121b565b50600160058360405161090b91906118d8565b908152602001604051809103902060003373ffffffffffffffffffffffffffffffffffffffff1673ffffffffffffffffffffffffffffffffffffffff16815260200190815260200160002060006101000a81548160ff0219169083151502179055505b505050565b60086020528060005260406000206000915090505481565b3373ffffffffffffffffffffffffffffffffffffffff1660008054906101000a900473ffffffffffffffffffffffffffffffffffffffff1673ffffffffffffffffffffffffffffffffffffffff1614610a19576040517f08c379a0000000000000000000000000000000000000000000000000000000008152600401610a10906119c0565b60405180910390fd5b600073ffffffffffffffffffffffffffffffffffffffff1660008054906101000a900473ffffffffffffffffffffffffffffffffffffffff1673ffffffffffffffffffffffffffffffffffffffff167f8be0079c531659141344cd1fd0a4f28419497f9722a3daafe3b4186f6b6457e060405160405180910390a360008060006101000a81548173ffffffffffffffffffffffffffffffffffffffff021916908373ffffffffffffffffffffffffffffffffffffffff160217905550565b60008060009054906101000a900473ffffffffffffffffffffffffffffffffffffffff16905090565b3373ffffffffffffffffffffffffffffffffffffffff1660008054906101000a900473ffffffffffffffffffffffffffffffffffffffff1673ffffffffffffffffffffffffffffffffffffffff1614610b8e576040517f08c379a0000000000000000000000000000000000000000000000000000000008152600401610b85906119c0565b60405180910390fd5b80600260006101000a81548173ffffffffffffffffffffffffffffffffffffffff021916908373ffffffffffffffffffffffffffffffffffffffff16021790555050565b6060600360008473ffffffffffffffffffffffffffffffffffffffff1673ffffffffffffffffffffffffffffffffffffffff1681526020019081526020016000208281548110610c2557610c246119e0565b5b906000526020600020018054610c3a90611a3e565b80601f0160208091040260200160405190810160405280929190818152602001828054610c6690611a3e565b8015610cb35780601f10610c8857610100808354040283529160200191610cb3565b820191906000526020600020905b815481529060010190602001808311610c9657829003601f168201915b5050505050905092915050565b6000600a82604051610cd291906118d8565b9081526020016040518091039020549050919050565b60046020528060005260406000206000915090505481565b600a818051602081018201805184825260208301602085012081835280955050505050506000915090505481565b60036020528160005260406000208181548110610d4a57600080fd5b90600052602060002001600091509150508054610d6690611a3e565b80601f0160208091040260200160405190810160405280929190818152602001828054610d9290611a3e565b8015610ddf5780601f10610db457610100808354040283529160200191610ddf565b820191906000526020600020905b815481529060010190602001808311610dc257829003601f168201915b505050505081565b3373ffffffffffffffffffffffffffffffffffffffff1660008054906101000a900473ffffffffffffffffffffffffffffffffffffffff1673ffffffffffffffffffffffffffffffffffffffff1614610e75576040517f08c379a0000000000000000000000000000000000000000000000000000000008152600401610e6c906119c0565b60405180910390fd5b600073ffffffffffffffffffffffffffffffffffffffff168173ffffffffffffffffffffffffffffffffffffffff1603610ee4576040517f08c379a0000000000000000000000000000000000000000000000000000000008152600401610edb90611ae1565b60405180910390fd5b8073ffffffffffffffffffffffffffffffffffffffff1660008054906101000a900473ffffffffffffffffffffffffffffffffffffffff1673ffffffffffffffffffffffffffffffffffffffff167f8be0079c531659141344cd1fd0a4f28419497f9722a3daafe3b4186f6b6457e060405160405180910390a3806000806101000a81548173ffffffffffffffffffffffffffffffffffffffff021916908373ffffffffffffffffffffffffffffffffffffffff16021790555050565b600b5481565b3373ffffffffffffffffffffffffffffffffffffffff1660008054906101000a900473ffffffffffffffffffffffffffffffffffffffff1673ffffffffffffffffffffffffffffffffffffffff1614611035576040517f08c379a000000000000000000000000000000000000000000000000000000000815260040161102c906119c0565b60405180910390fd5b80600160006101000a81548173ffffffffffffffffffffffffffffffffffffffff021916908373ffffffffffffffffffffffffffffffffffffffff16021790555050565b60076020528060005260406000206000915090505481565b600080600760003373ffffffffffffffffffffffffffffffffffffffff1673ffffffffffffffffffffffffffffffffffffffff168152602001908152602001600020549050600083826110e4919061191e565b905080600760003373ffffffffffffffffffffffffffffffffffffffff1673ffffffffffffffffffffffffffffffffffffffff168152602001908152602001600020819055508160096000815481106111405761113f6119e0565b5b90600052602060002001541180156111775750806009600081548110611169576111686119e0565b5b906000526020600020015411155b15611187576001925050506111fc565b60016009805490501180156111ba57508160096001815481106111ad576111ac6119e0565b5b9060005260206000200154115b80156111e557508060096001815481106111d7576111d66119e0565b5b906000526020600020015411155b156111f5576001925050506111fc565b6000925050505b919050565b604051806040016040528060008152602001600081525090565b82805461122790611a3e565b90600052602060002090601f0160209004810192826112495760008555611290565b82601f1061126257805160ff1916838001178555611290565b82800160010185558215611290579182015b8281111561128f578251825591602001919060010190611274565b5b50905061129d91906112a1565b5090565b5b808211156112ba5760008160009055506001016112a2565b5090565b6000604051905090565b600080fd5b600080fd5b600073ffffffffffffffffffffffffffffffffffffffff82169050919050565b60006112fd826112d2565b9050919050565b61130d816112f2565b811461131857600080fd5b50565b60008135905061132a81611304565b92915050565b600060208284031215611346576113456112c8565b5b60006113548482850161131b565b91505092915050565b6000819050919050565b6113708161135d565b82525050565b600060408201905061138b6000830185611367565b6113986020830184611367565b9392505050565b6113a88161135d565b82525050565b6040820160008201516113c4600085018261139f565b5060208201516113d7602085018261139f565b50505050565b60006040820190506113f260008301846113ae565b92915050565b600080fd5b600080fd5b6000601f19601f8301169050919050565b7f4e487b7100000000000000000000000000000000000000000000000000000000600052604160045260246000fd5b61144b82611402565b810181811067ffffffffffffffff8211171561146a57611469611413565b5b80604052505050565b600061147d6112be565b90506114898282611442565b919050565b600067ffffffffffffffff8211156114a9576114a8611413565b5b6114b282611402565b9050602081019050919050565b82818337600083830152505050565b60006114e16114dc8461148e565b611473565b9050828152602081018484840111156114fd576114fc6113fd565b5b6115088482856114bf565b509392505050565b600082601f830112611525576115246113f8565b5b81356115358482602086016114ce565b91505092915050565b60008060408385031215611555576115546112c8565b5b600083013567ffffffffffffffff811115611573576115726112cd565b5b61157f85828601611510565b92505060206115908582860161131b565b9150509250929050565b60008115159050919050565b6115af8161159a565b82525050565b60006020820190506115ca60008301846115a6565b92915050565b6115d98161135d565b81146115e457600080fd5b50565b6000813590506115f6816115d0565b92915050565b600080600060608486031215611615576116146112c8565b5b6000611623868287016115e7565b935050602084013567ffffffffffffffff811115611644576116436112cd565b5b61165086828701611510565b92505060406116618682870161131b565b9150509250925092565b60006020820190506116806000830184611367565b92915050565b61168f816112f2565b82525050565b60006020820190506116aa6000830184611686565b92915050565b600080604083850312156116c7576116c66112c8565b5b60006116d58582860161131b565b92505060206116e6858286016115e7565b9150509250929050565b600081519050919050565b600082825260208201905092915050565b60005b8381101561172a57808201518184015260208101905061170f565b83811115611739576000848401525b50505050565b600061174a826116f0565b61175481856116fb565b935061176481856020860161170c565b61176d81611402565b840191505092915050565b60006020820190508181036000830152611792818461173f565b905092915050565b6000602082840312156117b0576117af6112c8565b5b600082013567ffffffffffffffff8111156117ce576117cd6112cd565b5b6117da84828501611510565b91505092915050565b60006040820190506117f86000830185611686565b6118056020830184611367565b9392505050565b6118158161159a565b811461182057600080fd5b50565b6000815190506118328161180c565b92915050565b60006020828403121561184e5761184d6112c8565b5b600061185c84828501611823565b91505092915050565b600060608201905061187a6000830186611686565b6118876020830185611686565b6118946040830184611367565b949350505050565b600081905092915050565b60006118b2826116f0565b6118bc818561189c565b93506118cc81856020860161170c565b80840191505092915050565b60006118e482846118a7565b915081905092915050565b7f4e487b7100000000000000000000000000000000000000000000000000000000600052601160045260246000fd5b60006119298261135d565b91506119348361135d565b9250827fffffffffffffffffffffffffffffffffffffffffffffffffffffffffffffffff03821115611969576119686118ef565b5b828201905092915050565b7f4f776e61626c653a2063616c6c6572206973206e6f7420746865206f776e6572600082015250565b60006119aa6020836116fb565b91506119b582611974565b602082019050919050565b600060208201905081810360008301526119d98161199d565b9050919050565b7f4e487b7100000000000000000000000000000000000000000000000000000000600052603260045260246000fd5b7f4e487b7100000000000000000000000000000000000000000000000000000000600052602260045260246000fd5b60006002820490506001821680611a5657607f821691505b602082108103611a6957611a68611a0f565b5b50919050565b7f4f776e61626c653a206e6577206f776e657220697320746865207a65726f206160008201527f6464726573730000000000000000000000000000000000000000000000000000602082015250565b6000611acb6026836116fb565b9150611ad682611a6f565b604082019050919050565b60006020820190508181036000830152611afa81611abe565b905091905056fea26469706673582212201a6437d3e5f6473c4e86a7b0895dde7c441d0ff0d7a1004c7e154fb1c0b2573064736f6c634300080e0033",
					"opcodes": "PUSH1 0x80 PUSH1 0x40 MSTORE CALLVALUE DUP1 ISZERO PUSH3 0x11 JUMPI PUSH1 0x0 DUP1 REVERT JUMPDEST POP PUSH1 0x40 MLOAD PUSH3 0x1F9B CODESIZE SUB DUP1 PUSH3 0x1F9B DUP4 CODECOPY DUP2 DUP2 ADD PUSH1 0x40 MSTORE DUP2 ADD SWAP1 PUSH3 0x37 SWAP2 SWAP1 PUSH3 0x3EE JUMP JUMPDEST CALLER PUSH1 0x0 DUP1 PUSH2 0x100 EXP DUP2 SLOAD DUP2 PUSH20 0xFFFFFFFFFFFFFFFFFFFFFFFFFFFFFFFFFFFFFFFF MUL NOT AND SWAP1 DUP4 PUSH20 0xFFFFFFFFFFFFFFFFFFFFFFFFFFFFFFFFFFFFFFFF AND MUL OR SWAP1 SSTORE POP PUSH1 0x0 DUP1 SLOAD SWAP1 PUSH2 0x100 EXP SWAP1 DIV PUSH20 0xFFFFFFFFFFFFFFFFFFFFFFFFFFFFFFFFFFFFFFFF AND PUSH20 0xFFFFFFFFFFFFFFFFFFFFFFFFFFFFFFFFFFFFFFFF AND PUSH1 0x0 PUSH20 0xFFFFFFFFFFFFFFFFFFFFFFFFFFFFFFFFFFFFFFFF AND PUSH32 0x8BE0079C531659141344CD1FD0A4F28419497F9722A3DAAFE3B4186F6B6457E0 PUSH1 0x40 MLOAD PUSH1 0x40 MLOAD DUP1 SWAP2 SUB SWAP1 LOG3 DUP2 PUSH1 0x2 PUSH1 0x0 PUSH2 0x100 EXP DUP2 SLOAD DUP2 PUSH20 0xFFFFFFFFFFFFFFFFFFFFFFFFFFFFFFFFFFFFFFFF MUL NOT AND SWAP1 DUP4 PUSH20 0xFFFFFFFFFFFFFFFFFFFFFFFFFFFFFFFFFFFFFFFF AND MUL OR SWAP1 SSTORE POP DUP1 PUSH1 0x9 SWAP1 DUP1 MLOAD SWAP1 PUSH1 0x20 ADD SWAP1 PUSH3 0x14B SWAP3 SWAP2 SWAP1 PUSH3 0x154 JUMP JUMPDEST POP POP POP PUSH3 0x454 JUMP JUMPDEST DUP3 DUP1 SLOAD DUP3 DUP3 SSTORE SWAP1 PUSH1 0x0 MSTORE PUSH1 0x20 PUSH1 0x0 KECCAK256 SWAP1 DUP2 ADD SWAP3 DUP3 ISZERO PUSH3 0x193 JUMPI SWAP2 PUSH1 0x20 MUL DUP3 ADD JUMPDEST DUP3 DUP2 GT ISZERO PUSH3 0x192 JUMPI DUP3 MLOAD DUP3 SSTORE SWAP2 PUSH1 0x20 ADD SWAP2 SWAP1 PUSH1 0x1 ADD SWAP1 PUSH3 0x175 JUMP JUMPDEST JUMPDEST POP SWAP1 POP PUSH3 0x1A2 SWAP2 SWAP1 PUSH3 0x1A6 JUMP JUMPDEST POP SWAP1 JUMP JUMPDEST JUMPDEST DUP1 DUP3 GT ISZERO PUSH3 0x1C1 JUMPI PUSH1 0x0 DUP2 PUSH1 0x0 SWAP1 SSTORE POP PUSH1 0x1 ADD PUSH3 0x1A7 JUMP JUMPDEST POP SWAP1 JUMP JUMPDEST PUSH1 0x0 PUSH1 0x40 MLOAD SWAP1 POP SWAP1 JUMP JUMPDEST PUSH1 0x0 DUP1 REVERT JUMPDEST PUSH1 0x0 DUP1 REVERT JUMPDEST PUSH1 0x0 PUSH20 0xFFFFFFFFFFFFFFFFFFFFFFFFFFFFFFFFFFFFFFFF DUP3 AND SWAP1 POP SWAP2 SWAP1 POP JUMP JUMPDEST PUSH1 0x0 PUSH3 0x206 DUP3 PUSH3 0x1D9 JUMP JUMPDEST SWAP1 POP SWAP2 SWAP1 POP JUMP JUMPDEST PUSH3 0x218 DUP2 PUSH3 0x1F9 JUMP JUMPDEST DUP2 EQ PUSH3 0x224 JUMPI PUSH1 0x0 DUP1 REVERT JUMPDEST POP JUMP JUMPDEST PUSH1 0x0 DUP2 MLOAD SWAP1 POP PUSH3 0x238 DUP2 PUSH3 0x20D JUMP JUMPDEST SWAP3 SWAP2 POP POP JUMP JUMPDEST PUSH1 0x0 DUP1 REVERT JUMPDEST PUSH1 0x0 PUSH1 0x1F NOT PUSH1 0x1F DUP4 ADD AND SWAP1 POP SWAP2 SWAP1 POP JUMP JUMPDEST PUSH32 0x4E487B7100000000000000000000000000000000000000000000000000000000 PUSH1 0x0 MSTORE PUSH1 0x41 PUSH1 0x4 MSTORE PUSH1 0x24 PUSH1 0x0 REVERT JUMPDEST PUSH3 0x28E DUP3 PUSH3 0x243 JUMP JUMPDEST DUP2 ADD DUP2 DUP2 LT PUSH8 0xFFFFFFFFFFFFFFFF DUP3 GT OR ISZERO PUSH3 0x2B0 JUMPI PUSH3 0x2AF PUSH3 0x254 JUMP JUMPDEST JUMPDEST DUP1 PUSH1 0x40 MSTORE POP POP POP JUMP JUMPDEST PUSH1 0x0 PUSH3 0x2C5 PUSH3 0x1C5 JUMP JUMPDEST SWAP1 POP PUSH3 0x2D3 DUP3 DUP3 PUSH3 0x283 JUMP JUMPDEST SWAP2 SWAP1 POP JUMP JUMPDEST PUSH1 0x0 PUSH8 0xFFFFFFFFFFFFFFFF DUP3 GT ISZERO PUSH3 0x2F6 JUMPI PUSH3 0x2F5 PUSH3 0x254 JUMP JUMPDEST JUMPDEST PUSH1 0x20 DUP3 MUL SWAP1 POP PUSH1 0x20 DUP2 ADD SWAP1 POP SWAP2 SWAP1 POP JUMP JUMPDEST PUSH1 0x0 DUP1 REVERT JUMPDEST PUSH1 0x0 DUP2 SWAP1 POP SWAP2 SWAP1 POP JUMP JUMPDEST PUSH3 0x321 DUP2 PUSH3 0x30C JUMP JUMPDEST DUP2 EQ PUSH3 0x32D JUMPI PUSH1 0x0 DUP1 REVERT JUMPDEST POP JUMP JUMPDEST PUSH1 0x0 DUP2 MLOAD SWAP1 POP PUSH3 0x341 DUP2 PUSH3 0x316 JUMP JUMPDEST SWAP3 SWAP2 POP POP JUMP JUMPDEST PUSH1 0x0 PUSH3 0x35E PUSH3 0x358 DUP5 PUSH3 0x2D8 JUMP JUMPDEST PUSH3 0x2B9 JUMP JUMPDEST SWAP1 POP DUP1 DUP4 DUP3 MSTORE PUSH1 0x20 DUP3 ADD SWAP1 POP PUSH1 0x20 DUP5 MUL DUP4 ADD DUP6 DUP2 GT ISZERO PUSH3 0x384 JUMPI PUSH3 0x383 PUSH3 0x307 JUMP JUMPDEST JUMPDEST DUP4 JUMPDEST DUP2 DUP2 LT ISZERO PUSH3 0x3B1 JUMPI DUP1 PUSH3 0x39C DUP9 DUP3 PUSH3 0x330 JUMP JUMPDEST DUP5 MSTORE PUSH1 0x20 DUP5 ADD SWAP4 POP POP PUSH1 0x20 DUP2 ADD SWAP1 POP PUSH3 0x386 JUMP JUMPDEST POP POP POP SWAP4 SWAP3 POP POP POP JUMP JUMPDEST PUSH1 0x0 DUP3 PUSH1 0x1F DUP4 ADD SLT PUSH3 0x3D3 JUMPI PUSH3 0x3D2 PUSH3 0x23E JUMP JUMPDEST JUMPDEST DUP2 MLOAD PUSH3 0x3E5 DUP5 DUP3 PUSH1 0x20 DUP7 ADD PUSH3 0x347 JUMP JUMPDEST SWAP2 POP POP SWAP3 SWAP2 POP POP JUMP JUMPDEST PUSH1 0x0 DUP1 PUSH1 0x40 DUP4 DUP6 SUB SLT ISZERO PUSH3 0x408 JUMPI PUSH3 0x407 PUSH3 0x1CF JUMP JUMPDEST JUMPDEST PUSH1 0x0 PUSH3 0x418 DUP6 DUP3 DUP7 ADD PUSH3 0x227 JUMP JUMPDEST SWAP3 POP POP PUSH1 0x20 DUP4 ADD MLOAD PUSH8 0xFFFFFFFFFFFFFFFF DUP2 GT ISZERO PUSH3 0x43C JUMPI PUSH3 0x43B PUSH3 0x1D4 JUMP JUMPDEST JUMPDEST PUSH3 0x44A DUP6 DUP3 DUP7 ADD PUSH3 0x3BB JUMP JUMPDEST SWAP2 POP POP SWAP3 POP SWAP3 SWAP1 POP JUMP JUMPDEST PUSH2 0x1B37 DUP1 PUSH3 0x464 PUSH1 0x0 CODECOPY PUSH1 0x0 RETURN INVALID PUSH1 0x80 PUSH1 0x40 MSTORE CALLVALUE DUP1 ISZERO PUSH2 0x10 JUMPI PUSH1 0x0 DUP1 REVERT JUMPDEST POP PUSH1 0x4 CALLDATASIZE LT PUSH2 0x116 JUMPI PUSH1 0x0 CALLDATALOAD PUSH1 0xE0 SHR DUP1 PUSH4 0xD0D996C4 GT PUSH2 0xA2 JUMPI DUP1 PUSH4 0xF0863CCE GT PUSH2 0x71 JUMPI DUP1 PUSH4 0xF0863CCE EQ PUSH2 0x318 JUMPI DUP1 PUSH4 0xF2FDE38B EQ PUSH2 0x348 JUMPI DUP1 PUSH4 0xF839F319 EQ PUSH2 0x364 JUMPI DUP1 PUSH4 0xF8C842E5 EQ PUSH2 0x382 JUMPI DUP1 PUSH4 0xFB690DCC EQ PUSH2 0x39E JUMPI PUSH2 0x116 JUMP JUMPDEST DUP1 PUSH4 0xD0D996C4 EQ PUSH2 0x258 JUMPI DUP1 PUSH4 0xD38EF5F1 EQ PUSH2 0x288 JUMPI DUP1 PUSH4 0xDE0C4C7C EQ PUSH2 0x2B8 JUMPI DUP1 PUSH4 0xDE51D1FD EQ PUSH2 0x2E8 JUMPI PUSH2 0x116 JUMP JUMPDEST DUP1 PUSH4 0x2A108E21 GT PUSH2 0xE9 JUMPI DUP1 PUSH4 0x2A108E21 EQ PUSH2 0x1C8 JUMPI DUP1 PUSH4 0x5D6C83B5 EQ PUSH2 0x1E4 JUMPI DUP1 PUSH4 0x715018A6 EQ PUSH2 0x214 JUMPI DUP1 PUSH4 0x8DA5CB5B EQ PUSH2 0x21E JUMPI DUP1 PUSH4 0xCAC843AA EQ PUSH2 0x23C JUMPI PUSH2 0x116 JUMP JUMPDEST DUP1 PUSH4 0x660F1E8 EQ PUSH2 0x11B JUMPI DUP1 PUSH4 0x78B0FB7 EQ PUSH2 0x14C JUMPI DUP1 PUSH4 0xB21D7A2 EQ PUSH2 0x17C JUMPI DUP1 PUSH4 0x1E83409A EQ PUSH2 0x1AC JUMPI JUMPDEST PUSH1 0x0 DUP1 REVERT JUMPDEST PUSH2 0x135 PUSH1 0x4 DUP1 CALLDATASIZE SUB DUP2 ADD SWAP1 PUSH2 0x130 SWAP2 SWAP1 PUSH2 0x1330 JUMP JUMPDEST PUSH2 0x3CE JUMP JUMPDEST PUSH1 0x40 MLOAD PUSH2 0x143 SWAP3 SWAP2 SWAP1 PUSH2 0x1376 JUMP JUMPDEST PUSH1 0x40 MLOAD DUP1 SWAP2 SUB SWAP1 RETURN JUMPDEST PUSH2 0x166 PUSH1 0x4 DUP1 CALLDATASIZE SUB DUP2 ADD SWAP1 PUSH2 0x161 SWAP2 SWAP1 PUSH2 0x1330 JUMP JUMPDEST PUSH2 0x3F2 JUMP JUMPDEST PUSH1 0x40 MLOAD PUSH2 0x173 SWAP2 SWAP1 PUSH2 0x13DD JUMP JUMPDEST PUSH1 0x40 MLOAD DUP1 SWAP2 SUB SWAP1 RETURN JUMPDEST PUSH2 0x196 PUSH1 0x4 DUP1 CALLDATASIZE SUB DUP2 ADD SWAP1 PUSH2 0x191 SWAP2 SWAP1 PUSH2 0x153E JUMP JUMPDEST PUSH2 0x45F JUMP JUMPDEST PUSH1 0x40 MLOAD PUSH2 0x1A3 SWAP2 SWAP1 PUSH2 0x15B5 JUMP JUMPDEST PUSH1 0x40 MLOAD DUP1 SWAP2 SUB SWAP1 RETURN JUMPDEST PUSH2 0x1C6 PUSH1 0x4 DUP1 CALLDATASIZE SUB DUP2 ADD SWAP1 PUSH2 0x1C1 SWAP2 SWAP1 PUSH2 0x1330 JUMP JUMPDEST PUSH2 0x4A4 JUMP JUMPDEST STOP JUMPDEST PUSH2 0x1E2 PUSH1 0x4 DUP1 CALLDATASIZE SUB DUP2 ADD SWAP1 PUSH2 0x1DD SWAP2 SWAP1 PUSH2 0x15FC JUMP JUMPDEST PUSH2 0x5D6 JUMP JUMPDEST STOP JUMPDEST PUSH2 0x1FE PUSH1 0x4 DUP1 CALLDATASIZE SUB DUP2 ADD SWAP1 PUSH2 0x1F9 SWAP2 SWAP1 PUSH2 0x1330 JUMP JUMPDEST PUSH2 0x973 JUMP JUMPDEST PUSH1 0x40 MLOAD PUSH2 0x20B SWAP2 SWAP1 PUSH2 0x166B JUMP JUMPDEST PUSH1 0x40 MLOAD DUP1 SWAP2 SUB SWAP1 RETURN JUMPDEST PUSH2 0x21C PUSH2 0x98B JUMP JUMPDEST STOP JUMPDEST PUSH2 0x226 PUSH2 0xAD7 JUMP JUMPDEST PUSH1 0x40 MLOAD PUSH2 0x233 SWAP2 SWAP1 PUSH2 0x1695 JUMP JUMPDEST PUSH1 0x40 MLOAD DUP1 SWAP2 SUB SWAP1 RETURN JUMPDEST PUSH2 0x256 PUSH1 0x4 DUP1 CALLDATASIZE SUB DUP2 ADD SWAP1 PUSH2 0x251 SWAP2 SWAP1 PUSH2 0x1330 JUMP JUMPDEST PUSH2 0xB00 JUMP JUMPDEST STOP JUMPDEST PUSH2 0x272 PUSH1 0x4 DUP1 CALLDATASIZE SUB DUP2 ADD SWAP1 PUSH2 0x26D SWAP2 SWAP1 PUSH2 0x16B0 JUMP JUMPDEST PUSH2 0xBD2 JUMP JUMPDEST PUSH1 0x40 MLOAD PUSH2 0x27F SWAP2 SWAP1 PUSH2 0x1778 JUMP JUMPDEST PUSH1 0x40 MLOAD DUP1 SWAP2 SUB SWAP1 RETURN JUMPDEST PUSH2 0x2A2 PUSH1 0x4 DUP1 CALLDATASIZE SUB DUP2 ADD SWAP1 PUSH2 0x29D SWAP2 SWAP1 PUSH2 0x179A JUMP JUMPDEST PUSH2 0xCC0 JUMP JUMPDEST PUSH1 0x40 MLOAD PUSH2 0x2AF SWAP2 SWAP1 PUSH2 0x166B JUMP JUMPDEST PUSH1 0x40 MLOAD DUP1 SWAP2 SUB SWAP1 RETURN JUMPDEST PUSH2 0x2D2 PUSH1 0x4 DUP1 CALLDATASIZE SUB DUP2 ADD SWAP1 PUSH2 0x2CD SWAP2 SWAP1 PUSH2 0x1330 JUMP JUMPDEST PUSH2 0xCE8 JUMP JUMPDEST PUSH1 0x40 MLOAD PUSH2 0x2DF SWAP2 SWAP1 PUSH2 0x166B JUMP JUMPDEST PUSH1 0x40 MLOAD DUP1 SWAP2 SUB SWAP1 RETURN JUMPDEST PUSH2 0x302 PUSH1 0x4 DUP1 CALLDATASIZE SUB DUP2 ADD SWAP1 PUSH2 0x2FD SWAP2 SWAP1 PUSH2 0x179A JUMP JUMPDEST PUSH2 0xD00 JUMP JUMPDEST PUSH1 0x40 MLOAD PUSH2 0x30F SWAP2 SWAP1 PUSH2 0x166B JUMP JUMPDEST PUSH1 0x40 MLOAD DUP1 SWAP2 SUB SWAP1 RETURN JUMPDEST PUSH2 0x332 PUSH1 0x4 DUP1 CALLDATASIZE SUB DUP2 ADD SWAP1 PUSH2 0x32D SWAP2 SWAP1 PUSH2 0x16B0 JUMP JUMPDEST PUSH2 0xD2E JUMP JUMPDEST PUSH1 0x40 MLOAD PUSH2 0x33F SWAP2 SWAP1 PUSH2 0x1778 JUMP JUMPDEST PUSH1 0x40 MLOAD DUP1 SWAP2 SUB SWAP1 RETURN JUMPDEST PUSH2 0x362 PUSH1 0x4 DUP1 CALLDATASIZE SUB DUP2 ADD SWAP1 PUSH2 0x35D SWAP2 SWAP1 PUSH2 0x1330 JUMP JUMPDEST PUSH2 0xDE7 JUMP JUMPDEST STOP JUMPDEST PUSH2 0x36C PUSH2 0xFA1 JUMP JUMPDEST PUSH1 0x40 MLOAD PUSH2 0x379 SWAP2 SWAP1 PUSH2 0x166B JUMP JUMPDEST PUSH1 0x40 MLOAD DUP1 SWAP2 SUB SWAP1 RETURN JUMPDEST PUSH2 0x39C PUSH1 0x4 DUP1 CALLDATASIZE SUB DUP2 ADD SWAP1 PUSH2 0x397 SWAP2 SWAP1 PUSH2 0x1330 JUMP JUMPDEST PUSH2 0xFA7 JUMP JUMPDEST STOP JUMPDEST PUSH2 0x3B8 PUSH1 0x4 DUP1 CALLDATASIZE SUB DUP2 ADD SWAP1 PUSH2 0x3B3 SWAP2 SWAP1 PUSH2 0x1330 JUMP JUMPDEST PUSH2 0x1079 JUMP JUMPDEST PUSH1 0x40 MLOAD PUSH2 0x3C5 SWAP2 SWAP1 PUSH2 0x166B JUMP JUMPDEST PUSH1 0x40 MLOAD DUP1 SWAP2 SUB SWAP1 RETURN JUMPDEST PUSH1 0x6 PUSH1 0x20 MSTORE DUP1 PUSH1 0x0 MSTORE PUSH1 0x40 PUSH1 0x0 KECCAK256 PUSH1 0x0 SWAP2 POP SWAP1 POP DUP1 PUSH1 0x0 ADD SLOAD SWAP1 DUP1 PUSH1 0x1 ADD SLOAD SWAP1 POP DUP3 JUMP JUMPDEST PUSH2 0x3FA PUSH2 0x1201 JUMP JUMPDEST PUSH1 0x6 PUSH1 0x0 DUP4 PUSH20 0xFFFFFFFFFFFFFFFFFFFFFFFFFFFFFFFFFFFFFFFF AND PUSH20 0xFFFFFFFFFFFFFFFFFFFFFFFFFFFFFFFFFFFFFFFF AND DUP2 MSTORE PUSH1 0x20 ADD SWAP1 DUP2 MSTORE PUSH1 0x20 ADD PUSH1 0x0 KECCAK256 PUSH1 0x40 MLOAD DUP1 PUSH1 0x40 ADD PUSH1 0x40 MSTORE SWAP1 DUP2 PUSH1 0x0 DUP3 ADD SLOAD DUP2 MSTORE PUSH1 0x20 ADD PUSH1 0x1 DUP3 ADD SLOAD DUP2 MSTORE POP POP SWAP1 POP SWAP2 SWAP1 POP JUMP JUMPDEST PUSH1 0x5 DUP3 DUP1 MLOAD PUSH1 0x20 DUP2 ADD DUP3 ADD DUP1 MLOAD DUP5 DUP3 MSTORE PUSH1 0x20 DUP4 ADD PUSH1 0x20 DUP6 ADD KECCAK256 DUP2 DUP4 MSTORE DUP1 SWAP6 POP POP POP POP POP POP PUSH1 0x20 MSTORE DUP1 PUSH1 0x0 MSTORE PUSH1 0x40 PUSH1 0x0 KECCAK256 PUSH1 0x0 SWAP2 POP SWAP2 POP SWAP1 SLOAD SWAP1 PUSH2 0x100 EXP SWAP1 DIV PUSH1 0xFF AND DUP2 JUMP JUMPDEST PUSH1 0x0 PUSH1 0x6 PUSH1 0x0 CALLER PUSH20 0xFFFFFFFFFFFFFFFFFFFFFFFFFFFFFFFFFFFFFFFF AND PUSH20 0xFFFFFFFFFFFFFFFFFFFFFFFFFFFFFFFFFFFFFFFF AND DUP2 MSTORE PUSH1 0x20 ADD SWAP1 DUP2 MSTORE PUSH1 0x20 ADD PUSH1 0x0 KECCAK256 PUSH1 0x1 ADD SLOAD GT ISZERO PUSH2 0x5D3 JUMPI PUSH1 0x2 PUSH1 0x0 SWAP1 SLOAD SWAP1 PUSH2 0x100 EXP SWAP1 DIV PUSH20 0xFFFFFFFFFFFFFFFFFFFFFFFFFFFFFFFFFFFFFFFF AND PUSH20 0xFFFFFFFFFFFFFFFFFFFFFFFFFFFFFFFFFFFFFFFF AND PUSH4 0xA9059CBB DUP3 PUSH1 0x6 PUSH1 0x0 CALLER PUSH20 0xFFFFFFFFFFFFFFFFFFFFFFFFFFFFFFFFFFFFFFFF AND PUSH20 0xFFFFFFFFFFFFFFFFFFFFFFFFFFFFFFFFFFFFFFFF AND DUP2 MSTORE PUSH1 0x20 ADD SWAP1 DUP2 MSTORE PUSH1 0x20 ADD PUSH1 0x0 KECCAK256 PUSH1 0x1 ADD SLOAD PUSH1 0x40 MLOAD DUP4 PUSH4 0xFFFFFFFF AND PUSH1 0xE0 SHL DUP2 MSTORE PUSH1 0x4 ADD PUSH2 0x58E SWAP3 SWAP2 SWAP1 PUSH2 0x17E3 JUMP JUMPDEST PUSH1 0x20 PUSH1 0x40 MLOAD DUP1 DUP4 SUB DUP2 PUSH1 0x0 DUP8 GAS CALL ISZERO DUP1 ISZERO PUSH2 0x5AD JUMPI RETURNDATASIZE PUSH1 0x0 DUP1 RETURNDATACOPY RETURNDATASIZE PUSH1 0x0 REVERT JUMPDEST POP POP POP POP PUSH1 0x40 MLOAD RETURNDATASIZE PUSH1 0x1F NOT PUSH1 0x1F DUP3 ADD AND DUP3 ADD DUP1 PUSH1 0x40 MSTORE POP DUP2 ADD SWAP1 PUSH2 0x5D1 SWAP2 SWAP1 PUSH2 0x1838 JUMP JUMPDEST POP JUMPDEST POP JUMP JUMPDEST PUSH1 0x2 PUSH1 0x0 SWAP1 SLOAD SWAP1 PUSH2 0x100 EXP SWAP1 DIV PUSH20 0xFFFFFFFFFFFFFFFFFFFFFFFFFFFFFFFFFFFFFFFF AND PUSH20 0xFFFFFFFFFFFFFFFFFFFFFFFFFFFFFFFFFFFFFFFF AND PUSH4 0x23B872DD CALLER ADDRESS DUP7 PUSH1 0x40 MLOAD DUP5 PUSH4 0xFFFFFFFF AND PUSH1 0xE0 SHL DUP2 MSTORE PUSH1 0x4 ADD PUSH2 0x635 SWAP4 SWAP3 SWAP2 SWAP1 PUSH2 0x1865 JUMP JUMPDEST PUSH1 0x20 PUSH1 0x40 MLOAD DUP1 DUP4 SUB DUP2 PUSH1 0x0 DUP8 GAS CALL ISZERO DUP1 ISZERO PUSH2 0x654 JUMPI RETURNDATASIZE PUSH1 0x0 DUP1 RETURNDATACOPY RETURNDATASIZE PUSH1 0x0 REVERT JUMPDEST POP POP POP POP PUSH1 0x40 MLOAD RETURNDATASIZE PUSH1 0x1F NOT PUSH1 0x1F DUP3 ADD AND DUP3 ADD DUP1 PUSH1 0x40 MSTORE POP DUP2 ADD SWAP1 PUSH2 0x678 SWAP2 SWAP1 PUSH2 0x1838 JUMP JUMPDEST POP DUP3 PUSH1 0xA DUP4 PUSH1 0x40 MLOAD PUSH2 0x68A SWAP2 SWAP1 PUSH2 0x18D8 JUMP JUMPDEST SWAP1 DUP2 MSTORE PUSH1 0x20 ADD PUSH1 0x40 MLOAD DUP1 SWAP2 SUB SWAP1 KECCAK256 PUSH1 0x0 DUP3 DUP3 SLOAD PUSH2 0x6A7 SWAP2 SWAP1 PUSH2 0x191E JUMP JUMPDEST SWAP3 POP POP DUP2 SWAP1 SSTORE POP DUP3 PUSH1 0xB PUSH1 0x0 DUP3 DUP3 SLOAD PUSH2 0x6C0 SWAP2 SWAP1 PUSH2 0x191E JUMP JUMPDEST SWAP3 POP POP DUP2 SWAP1 SSTORE POP DUP3 PUSH1 0x6 PUSH1 0x0 DUP4 PUSH20 0xFFFFFFFFFFFFFFFFFFFFFFFFFFFFFFFFFFFFFFFF AND PUSH20 0xFFFFFFFFFFFFFFFFFFFFFFFFFFFFFFFFFFFFFFFF AND DUP2 MSTORE PUSH1 0x20 ADD SWAP1 DUP2 MSTORE PUSH1 0x20 ADD PUSH1 0x0 KECCAK256 PUSH1 0x1 ADD PUSH1 0x0 DUP3 DUP3 SLOAD PUSH2 0x719 SWAP2 SWAP1 PUSH2 0x191E JUMP JUMPDEST SWAP3 POP POP DUP2 SWAP1 SSTORE POP PUSH2 0x729 DUP4 PUSH2 0x1091 JUMP JUMPDEST ISZERO PUSH2 0x7BC JUMPI PUSH1 0x1 PUSH1 0x0 SWAP1 SLOAD SWAP1 PUSH2 0x100 EXP SWAP1 DIV PUSH20 0xFFFFFFFFFFFFFFFFFFFFFFFFFFFFFFFFFFFFFFFF AND PUSH20 0xFFFFFFFFFFFFFFFFFFFFFFFFFFFFFFFFFFFFFFFF AND PUSH4 0x6A627842 CALLER PUSH1 0x40 MLOAD DUP3 PUSH4 0xFFFFFFFF AND PUSH1 0xE0 SHL DUP2 MSTORE PUSH1 0x4 ADD PUSH2 0x789 SWAP2 SWAP1 PUSH2 0x1695 JUMP JUMPDEST PUSH1 0x0 PUSH1 0x40 MLOAD DUP1 DUP4 SUB DUP2 PUSH1 0x0 DUP8 DUP1 EXTCODESIZE ISZERO DUP1 ISZERO PUSH2 0x7A3 JUMPI PUSH1 0x0 DUP1 REVERT JUMPDEST POP GAS CALL ISZERO DUP1 ISZERO PUSH2 0x7B7 JUMPI RETURNDATASIZE PUSH1 0x0 DUP1 RETURNDATACOPY RETURNDATASIZE PUSH1 0x0 REVERT JUMPDEST POP POP POP POP JUMPDEST PUSH1 0x5 DUP3 PUSH1 0x40 MLOAD PUSH2 0x7CC SWAP2 SWAP1 PUSH2 0x18D8 JUMP JUMPDEST SWAP1 DUP2 MSTORE PUSH1 0x20 ADD PUSH1 0x40 MLOAD DUP1 SWAP2 SUB SWAP1 KECCAK256 PUSH1 0x0 CALLER PUSH20 0xFFFFFFFFFFFFFFFFFFFFFFFFFFFFFFFFFFFFFFFF AND PUSH20 0xFFFFFFFFFFFFFFFFFFFFFFFFFFFFFFFFFFFFFFFF AND DUP2 MSTORE PUSH1 0x20 ADD SWAP1 DUP2 MSTORE PUSH1 0x20 ADD PUSH1 0x0 KECCAK256 PUSH1 0x0 SWAP1 SLOAD SWAP1 PUSH2 0x100 EXP SWAP1 DIV PUSH1 0xFF AND PUSH2 0x96E JUMPI PUSH1 0x1 PUSH1 0x4 PUSH1 0x0 CALLER PUSH20 0xFFFFFFFFFFFFFFFFFFFFFFFFFFFFFFFFFFFFFFFF AND PUSH20 0xFFFFFFFFFFFFFFFFFFFFFFFFFFFFFFFFFFFFFFFF AND DUP2 MSTORE PUSH1 0x20 ADD SWAP1 DUP2 MSTORE PUSH1 0x20 ADD PUSH1 0x0 KECCAK256 PUSH1 0x0 DUP3 DUP3 SLOAD PUSH2 0x879 SWAP2 SWAP1 PUSH2 0x191E JUMP JUMPDEST SWAP3 POP POP DUP2 SWAP1 SSTORE POP PUSH1 0x3 PUSH1 0x0 CALLER PUSH20 0xFFFFFFFFFFFFFFFFFFFFFFFFFFFFFFFFFFFFFFFF AND PUSH20 0xFFFFFFFFFFFFFFFFFFFFFFFFFFFFFFFFFFFFFFFF AND DUP2 MSTORE PUSH1 0x20 ADD SWAP1 DUP2 MSTORE PUSH1 0x20 ADD PUSH1 0x0 KECCAK256 DUP3 SWAP1 DUP1 PUSH1 0x1 DUP2 SLOAD ADD DUP1 DUP3 SSTORE DUP1 SWAP2 POP POP PUSH1 0x1 SWAP1 SUB SWAP1 PUSH1 0x0 MSTORE PUSH1 0x20 PUSH1 0x0 KECCAK256 ADD PUSH1 0x0 SWAP1 SWAP2 SWAP1 SWAP2 SWAP1 SWAP2 POP SWAP1 DUP1 MLOAD SWAP1 PUSH1 0x20 ADD SWAP1 PUSH2 0x8F8 SWAP3 SWAP2 SWAP1 PUSH2 0x121B JUMP JUMPDEST POP PUSH1 0x1 PUSH1 0x5 DUP4 PUSH1 0x40 MLOAD PUSH2 0x90B SWAP2 SWAP1 PUSH2 0x18D8 JUMP JUMPDEST SWAP1 DUP2 MSTORE PUSH1 0x20 ADD PUSH1 0x40 MLOAD DUP1 SWAP2 SUB SWAP1 KECCAK256 PUSH1 0x0 CALLER PUSH20 0xFFFFFFFFFFFFFFFFFFFFFFFFFFFFFFFFFFFFFFFF AND PUSH20 0xFFFFFFFFFFFFFFFFFFFFFFFFFFFFFFFFFFFFFFFF AND DUP2 MSTORE PUSH1 0x20 ADD SWAP1 DUP2 MSTORE PUSH1 0x20 ADD PUSH1 0x0 KECCAK256 PUSH1 0x0 PUSH2 0x100 EXP DUP2 SLOAD DUP2 PUSH1 0xFF MUL NOT AND SWAP1 DUP4 ISZERO ISZERO MUL OR SWAP1 SSTORE POP JUMPDEST POP POP POP JUMP JUMPDEST PUSH1 0x8 PUSH1 0x20 MSTORE DUP1 PUSH1 0x0 MSTORE PUSH1 0x40 PUSH1 0x0 KECCAK256 PUSH1 0x0 SWAP2 POP SWAP1 POP SLOAD DUP2 JUMP JUMPDEST CALLER PUSH20 0xFFFFFFFFFFFFFFFFFFFFFFFFFFFFFFFFFFFFFFFF AND PUSH1 0x0 DUP1 SLOAD SWAP1 PUSH2 0x100 EXP SWAP1 DIV PUSH20 0xFFFFFFFFFFFFFFFFFFFFFFFFFFFFFFFFFFFFFFFF AND PUSH20 0xFFFFFFFFFFFFFFFFFFFFFFFFFFFFFFFFFFFFFFFF AND EQ PUSH2 0xA19 JUMPI PUSH1 0x40 MLOAD PUSH32 0x8C379A000000000000000000000000000000000000000000000000000000000 DUP2 MSTORE PUSH1 0x4 ADD PUSH2 0xA10 SWAP1 PUSH2 0x19C0 JUMP JUMPDEST PUSH1 0x40 MLOAD DUP1 SWAP2 SUB SWAP1 REVERT JUMPDEST PUSH1 0x0 PUSH20 0xFFFFFFFFFFFFFFFFFFFFFFFFFFFFFFFFFFFFFFFF AND PUSH1 0x0 DUP1 SLOAD SWAP1 PUSH2 0x100 EXP SWAP1 DIV PUSH20 0xFFFFFFFFFFFFFFFFFFFFFFFFFFFFFFFFFFFFFFFF AND PUSH20 0xFFFFFFFFFFFFFFFFFFFFFFFFFFFFFFFFFFFFFFFF AND PUSH32 0x8BE0079C531659141344CD1FD0A4F28419497F9722A3DAAFE3B4186F6B6457E0 PUSH1 0x40 MLOAD PUSH1 0x40 MLOAD DUP1 SWAP2 SUB SWAP1 LOG3 PUSH1 0x0 DUP1 PUSH1 0x0 PUSH2 0x100 EXP DUP2 SLOAD DUP2 PUSH20 0xFFFFFFFFFFFFFFFFFFFFFFFFFFFFFFFFFFFFFFFF MUL NOT AND SWAP1 DUP4 PUSH20 0xFFFFFFFFFFFFFFFFFFFFFFFFFFFFFFFFFFFFFFFF AND MUL OR SWAP1 SSTORE POP JUMP JUMPDEST PUSH1 0x0 DUP1 PUSH1 0x0 SWAP1 SLOAD SWAP1 PUSH2 0x100 EXP SWAP1 DIV PUSH20 0xFFFFFFFFFFFFFFFFFFFFFFFFFFFFFFFFFFFFFFFF AND SWAP1 POP SWAP1 JUMP JUMPDEST CALLER PUSH20 0xFFFFFFFFFFFFFFFFFFFFFFFFFFFFFFFFFFFFFFFF AND PUSH1 0x0 DUP1 SLOAD SWAP1 PUSH2 0x100 EXP SWAP1 DIV PUSH20 0xFFFFFFFFFFFFFFFFFFFFFFFFFFFFFFFFFFFFFFFF AND PUSH20 0xFFFFFFFFFFFFFFFFFFFFFFFFFFFFFFFFFFFFFFFF AND EQ PUSH2 0xB8E JUMPI PUSH1 0x40 MLOAD PUSH32 0x8C379A000000000000000000000000000000000000000000000000000000000 DUP2 MSTORE PUSH1 0x4 ADD PUSH2 0xB85 SWAP1 PUSH2 0x19C0 JUMP JUMPDEST PUSH1 0x40 MLOAD DUP1 SWAP2 SUB SWAP1 REVERT JUMPDEST DUP1 PUSH1 0x2 PUSH1 0x0 PUSH2 0x100 EXP DUP2 SLOAD DUP2 PUSH20 0xFFFFFFFFFFFFFFFFFFFFFFFFFFFFFFFFFFFFFFFF MUL NOT AND SWAP1 DUP4 PUSH20 0xFFFFFFFFFFFFFFFFFFFFFFFFFFFFFFFFFFFFFFFF AND MUL OR SWAP1 SSTORE POP POP JUMP JUMPDEST PUSH1 0x60 PUSH1 0x3 PUSH1 0x0 DUP5 PUSH20 0xFFFFFFFFFFFFFFFFFFFFFFFFFFFFFFFFFFFFFFFF AND PUSH20 0xFFFFFFFFFFFFFFFFFFFFFFFFFFFFFFFFFFFFFFFF AND DUP2 MSTORE PUSH1 0x20 ADD SWAP1 DUP2 MSTORE PUSH1 0x20 ADD PUSH1 0x0 KECCAK256 DUP3 DUP2 SLOAD DUP2 LT PUSH2 0xC25 JUMPI PUSH2 0xC24 PUSH2 0x19E0 JUMP JUMPDEST JUMPDEST SWAP1 PUSH1 0x0 MSTORE PUSH1 0x20 PUSH1 0x0 KECCAK256 ADD DUP1 SLOAD PUSH2 0xC3A SWAP1 PUSH2 0x1A3E JUMP JUMPDEST DUP1 PUSH1 0x1F ADD PUSH1 0x20 DUP1 SWAP2 DIV MUL PUSH1 0x20 ADD PUSH1 0x40 MLOAD SWAP1 DUP2 ADD PUSH1 0x40 MSTORE DUP1 SWAP3 SWAP2 SWAP1 DUP2 DUP2 MSTORE PUSH1 0x20 ADD DUP3 DUP1 SLOAD PUSH2 0xC66 SWAP1 PUSH2 0x1A3E JUMP JUMPDEST DUP1 ISZERO PUSH2 0xCB3 JUMPI DUP1 PUSH1 0x1F LT PUSH2 0xC88 JUMPI PUSH2 0x100 DUP1 DUP4 SLOAD DIV MUL DUP4 MSTORE SWAP2 PUSH1 0x20 ADD SWAP2 PUSH2 0xCB3 JUMP JUMPDEST DUP3 ADD SWAP2 SWAP1 PUSH1 0x0 MSTORE PUSH1 0x20 PUSH1 0x0 KECCAK256 SWAP1 JUMPDEST DUP2 SLOAD DUP2 MSTORE SWAP1 PUSH1 0x1 ADD SWAP1 PUSH1 0x20 ADD DUP1 DUP4 GT PUSH2 0xC96 JUMPI DUP3 SWAP1 SUB PUSH1 0x1F AND DUP3 ADD SWAP2 JUMPDEST POP POP POP POP POP SWAP1 POP SWAP3 SWAP2 POP POP JUMP JUMPDEST PUSH1 0x0 PUSH1 0xA DUP3 PUSH1 0x40 MLOAD PUSH2 0xCD2 SWAP2 SWAP1 PUSH2 0x18D8 JUMP JUMPDEST SWAP1 DUP2 MSTORE PUSH1 0x20 ADD PUSH1 0x40 MLOAD DUP1 SWAP2 SUB SWAP1 KECCAK256 SLOAD SWAP1 POP SWAP2 SWAP1 POP JUMP JUMPDEST PUSH1 0x4 PUSH1 0x20 MSTORE DUP1 PUSH1 0x0 MSTORE PUSH1 0x40 PUSH1 0x0 KECCAK256 PUSH1 0x0 SWAP2 POP SWAP1 POP SLOAD DUP2 JUMP JUMPDEST PUSH1 0xA DUP2 DUP1 MLOAD PUSH1 0x20 DUP2 ADD DUP3 ADD DUP1 MLOAD DUP5 DUP3 MSTORE PUSH1 0x20 DUP4 ADD PUSH1 0x20 DUP6 ADD KECCAK256 DUP2 DUP4 MSTORE DUP1 SWAP6 POP POP POP POP POP POP PUSH1 0x0 SWAP2 POP SWAP1 POP SLOAD DUP2 JUMP JUMPDEST PUSH1 0x3 PUSH1 0x20 MSTORE DUP2 PUSH1 0x0 MSTORE PUSH1 0x40 PUSH1 0x0 KECCAK256 DUP2 DUP2 SLOAD DUP2 LT PUSH2 0xD4A JUMPI PUSH1 0x0 DUP1 REVERT JUMPDEST SWAP1 PUSH1 0x0 MSTORE PUSH1 0x20 PUSH1 0x0 KECCAK256 ADD PUSH1 0x0 SWAP2 POP SWAP2 POP POP DUP1 SLOAD PUSH2 0xD66 SWAP1 PUSH2 0x1A3E JUMP JUMPDEST DUP1 PUSH1 0x1F ADD PUSH1 0x20 DUP1 SWAP2 DIV MUL PUSH1 0x20 ADD PUSH1 0x40 MLOAD SWAP1 DUP2 ADD PUSH1 0x40 MSTORE DUP1 SWAP3 SWAP2 SWAP1 DUP2 DUP2 MSTORE PUSH1 0x20 ADD DUP3 DUP1 SLOAD PUSH2 0xD92 SWAP1 PUSH2 0x1A3E JUMP JUMPDEST DUP1 ISZERO PUSH2 0xDDF JUMPI DUP1 PUSH1 0x1F LT PUSH2 0xDB4 JUMPI PUSH2 0x100 DUP1 DUP4 SLOAD DIV MUL DUP4 MSTORE SWAP2 PUSH1 0x20 ADD SWAP2 PUSH2 0xDDF JUMP JUMPDEST DUP3 ADD SWAP2 SWAP1 PUSH1 0x0 MSTORE PUSH1 0x20 PUSH1 0x0 KECCAK256 SWAP1 JUMPDEST DUP2 SLOAD DUP2 MSTORE SWAP1 PUSH1 0x1 ADD SWAP1 PUSH1 0x20 ADD DUP1 DUP4 GT PUSH2 0xDC2 JUMPI DUP3 SWAP1 SUB PUSH1 0x1F AND DUP3 ADD SWAP2 JUMPDEST POP POP POP POP POP DUP2 JUMP JUMPDEST CALLER PUSH20 0xFFFFFFFFFFFFFFFFFFFFFFFFFFFFFFFFFFFFFFFF AND PUSH1 0x0 DUP1 SLOAD SWAP1 PUSH2 0x100 EXP SWAP1 DIV PUSH20 0xFFFFFFFFFFFFFFFFFFFFFFFFFFFFFFFFFFFFFFFF AND PUSH20 0xFFFFFFFFFFFFFFFFFFFFFFFFFFFFFFFFFFFFFFFF AND EQ PUSH2 0xE75 JUMPI PUSH1 0x40 MLOAD PUSH32 0x8C379A000000000000000000000000000000000000000000000000000000000 DUP2 MSTORE PUSH1 0x4 ADD PUSH2 0xE6C SWAP1 PUSH2 0x19C0 JUMP JUMPDEST PUSH1 0x40 MLOAD DUP1 SWAP2 SUB SWAP1 REVERT JUMPDEST PUSH1 0x0 PUSH20 0xFFFFFFFFFFFFFFFFFFFFFFFFFFFFFFFFFFFFFFFF AND DUP2 PUSH20 0xFFFFFFFFFFFFFFFFFFFFFFFFFFFFFFFFFFFFFFFF AND SUB PUSH2 0xEE4 JUMPI PUSH1 0x40 MLOAD PUSH32 0x8C379A000000000000000000000000000000000000000000000000000000000 DUP2 MSTORE PUSH1 0x4 ADD PUSH2 0xEDB SWAP1 PUSH2 0x1AE1 JUMP JUMPDEST PUSH1 0x40 MLOAD DUP1 SWAP2 SUB SWAP1 REVERT JUMPDEST DUP1 PUSH20 0xFFFFFFFFFFFFFFFFFFFFFFFFFFFFFFFFFFFFFFFF AND PUSH1 0x0 DUP1 SLOAD SWAP1 PUSH2 0x100 EXP SWAP1 DIV PUSH20 0xFFFFFFFFFFFFFFFFFFFFFFFFFFFFFFFFFFFFFFFF AND PUSH20 0xFFFFFFFFFFFFFFFFFFFFFFFFFFFFFFFFFFFFFFFF AND PUSH32 0x8BE0079C531659141344CD1FD0A4F28419497F9722A3DAAFE3B4186F6B6457E0 PUSH1 0x40 MLOAD PUSH1 0x40 MLOAD DUP1 SWAP2 SUB SWAP1 LOG3 DUP1 PUSH1 0x0 DUP1 PUSH2 0x100 EXP DUP2 SLOAD DUP2 PUSH20 0xFFFFFFFFFFFFFFFFFFFFFFFFFFFFFFFFFFFFFFFF MUL NOT AND SWAP1 DUP4 PUSH20 0xFFFFFFFFFFFFFFFFFFFFFFFFFFFFFFFFFFFFFFFF AND MUL OR SWAP1 SSTORE POP POP JUMP JUMPDEST PUSH1 0xB SLOAD DUP2 JUMP JUMPDEST CALLER PUSH20 0xFFFFFFFFFFFFFFFFFFFFFFFFFFFFFFFFFFFFFFFF AND PUSH1 0x0 DUP1 SLOAD SWAP1 PUSH2 0x100 EXP SWAP1 DIV PUSH20 0xFFFFFFFFFFFFFFFFFFFFFFFFFFFFFFFFFFFFFFFF AND PUSH20 0xFFFFFFFFFFFFFFFFFFFFFFFFFFFFFFFFFFFFFFFF AND EQ PUSH2 0x1035 JUMPI PUSH1 0x40 MLOAD PUSH32 0x8C379A000000000000000000000000000000000000000000000000000000000 DUP2 MSTORE PUSH1 0x4 ADD PUSH2 0x102C SWAP1 PUSH2 0x19C0 JUMP JUMPDEST PUSH1 0x40 MLOAD DUP1 SWAP2 SUB SWAP1 REVERT JUMPDEST DUP1 PUSH1 0x1 PUSH1 0x0 PUSH2 0x100 EXP DUP2 SLOAD DUP2 PUSH20 0xFFFFFFFFFFFFFFFFFFFFFFFFFFFFFFFFFFFFFFFF MUL NOT AND SWAP1 DUP4 PUSH20 0xFFFFFFFFFFFFFFFFFFFFFFFFFFFFFFFFFFFFFFFF AND MUL OR SWAP1 SSTORE POP POP JUMP JUMPDEST PUSH1 0x7 PUSH1 0x20 MSTORE DUP1 PUSH1 0x0 MSTORE PUSH1 0x40 PUSH1 0x0 KECCAK256 PUSH1 0x0 SWAP2 POP SWAP1 POP SLOAD DUP2 JUMP JUMPDEST PUSH1 0x0 DUP1 PUSH1 0x7 PUSH1 0x0 CALLER PUSH20 0xFFFFFFFFFFFFFFFFFFFFFFFFFFFFFFFFFFFFFFFF AND PUSH20 0xFFFFFFFFFFFFFFFFFFFFFFFFFFFFFFFFFFFFFFFF AND DUP2 MSTORE PUSH1 0x20 ADD SWAP1 DUP2 MSTORE PUSH1 0x20 ADD PUSH1 0x0 KECCAK256 SLOAD SWAP1 POP PUSH1 0x0 DUP4 DUP3 PUSH2 0x10E4 SWAP2 SWAP1 PUSH2 0x191E JUMP JUMPDEST SWAP1 POP DUP1 PUSH1 0x7 PUSH1 0x0 CALLER PUSH20 0xFFFFFFFFFFFFFFFFFFFFFFFFFFFFFFFFFFFFFFFF AND PUSH20 0xFFFFFFFFFFFFFFFFFFFFFFFFFFFFFFFFFFFFFFFF AND DUP2 MSTORE PUSH1 0x20 ADD SWAP1 DUP2 MSTORE PUSH1 0x20 ADD PUSH1 0x0 KECCAK256 DUP2 SWAP1 SSTORE POP DUP2 PUSH1 0x9 PUSH1 0x0 DUP2 SLOAD DUP2 LT PUSH2 0x1140 JUMPI PUSH2 0x113F PUSH2 0x19E0 JUMP JUMPDEST JUMPDEST SWAP1 PUSH1 0x0 MSTORE PUSH1 0x20 PUSH1 0x0 KECCAK256 ADD SLOAD GT DUP1 ISZERO PUSH2 0x1177 JUMPI POP DUP1 PUSH1 0x9 PUSH1 0x0 DUP2 SLOAD DUP2 LT PUSH2 0x1169 JUMPI PUSH2 0x1168 PUSH2 0x19E0 JUMP JUMPDEST JUMPDEST SWAP1 PUSH1 0x0 MSTORE PUSH1 0x20 PUSH1 0x0 KECCAK256 ADD SLOAD GT ISZERO JUMPDEST ISZERO PUSH2 0x1187 JUMPI PUSH1 0x1 SWAP3 POP POP POP PUSH2 0x11FC JUMP JUMPDEST PUSH1 0x1 PUSH1 0x9 DUP1 SLOAD SWAP1 POP GT DUP1 ISZERO PUSH2 0x11BA JUMPI POP DUP2 PUSH1 0x9 PUSH1 0x1 DUP2 SLOAD DUP2 LT PUSH2 0x11AD JUMPI PUSH2 0x11AC PUSH2 0x19E0 JUMP JUMPDEST JUMPDEST SWAP1 PUSH1 0x0 MSTORE PUSH1 0x20 PUSH1 0x0 KECCAK256 ADD SLOAD GT JUMPDEST DUP1 ISZERO PUSH2 0x11E5 JUMPI POP DUP1 PUSH1 0x9 PUSH1 0x1 DUP2 SLOAD DUP2 LT PUSH2 0x11D7 JUMPI PUSH2 0x11D6 PUSH2 0x19E0 JUMP JUMPDEST JUMPDEST SWAP1 PUSH1 0x0 MSTORE PUSH1 0x20 PUSH1 0x0 KECCAK256 ADD SLOAD GT ISZERO JUMPDEST ISZERO PUSH2 0x11F5 JUMPI PUSH1 0x1 SWAP3 POP POP POP PUSH2 0x11FC JUMP JUMPDEST PUSH1 0x0 SWAP3 POP POP POP JUMPDEST SWAP2 SWAP1 POP JUMP JUMPDEST PUSH1 0x40 MLOAD DUP1 PUSH1 0x40 ADD PUSH1 0x40 MSTORE DUP1 PUSH1 0x0 DUP2 MSTORE PUSH1 0x20 ADD PUSH1 0x0 DUP2 MSTORE POP SWAP1 JUMP JUMPDEST DUP3 DUP1 SLOAD PUSH2 0x1227 SWAP1 PUSH2 0x1A3E JUMP JUMPDEST SWAP1 PUSH1 0x0 MSTORE PUSH1 0x20 PUSH1 0x0 KECCAK256 SWAP1 PUSH1 0x1F ADD PUSH1 0x20 SWAP1 DIV DUP2 ADD SWAP3 DUP3 PUSH2 0x1249 JUMPI PUSH1 0x0 DUP6 SSTORE PUSH2 0x1290 JUMP JUMPDEST DUP3 PUSH1 0x1F LT PUSH2 0x1262 JUMPI DUP1 MLOAD PUSH1 0xFF NOT AND DUP4 DUP1 ADD OR DUP6 SSTORE PUSH2 0x1290 JUMP JUMPDEST DUP3 DUP1 ADD PUSH1 0x1 ADD DUP6 SSTORE DUP3 ISZERO PUSH2 0x1290 JUMPI SWAP2 DUP3 ADD JUMPDEST DUP3 DUP2 GT ISZERO PUSH2 0x128F JUMPI DUP3 MLOAD DUP3 SSTORE SWAP2 PUSH1 0x20 ADD SWAP2 SWAP1 PUSH1 0x1 ADD SWAP1 PUSH2 0x1274 JUMP JUMPDEST JUMPDEST POP SWAP1 POP PUSH2 0x129D SWAP2 SWAP1 PUSH2 0x12A1 JUMP JUMPDEST POP SWAP1 JUMP JUMPDEST JUMPDEST DUP1 DUP3 GT ISZERO PUSH2 0x12BA JUMPI PUSH1 0x0 DUP2 PUSH1 0x0 SWAP1 SSTORE POP PUSH1 0x1 ADD PUSH2 0x12A2 JUMP JUMPDEST POP SWAP1 JUMP JUMPDEST PUSH1 0x0 PUSH1 0x40 MLOAD SWAP1 POP SWAP1 JUMP JUMPDEST PUSH1 0x0 DUP1 REVERT JUMPDEST PUSH1 0x0 DUP1 REVERT JUMPDEST PUSH1 0x0 PUSH20 0xFFFFFFFFFFFFFFFFFFFFFFFFFFFFFFFFFFFFFFFF DUP3 AND SWAP1 POP SWAP2 SWAP1 POP JUMP JUMPDEST PUSH1 0x0 PUSH2 0x12FD DUP3 PUSH2 0x12D2 JUMP JUMPDEST SWAP1 POP SWAP2 SWAP1 POP JUMP JUMPDEST PUSH2 0x130D DUP2 PUSH2 0x12F2 JUMP JUMPDEST DUP2 EQ PUSH2 0x1318 JUMPI PUSH1 0x0 DUP1 REVERT JUMPDEST POP JUMP JUMPDEST PUSH1 0x0 DUP2 CALLDATALOAD SWAP1 POP PUSH2 0x132A DUP2 PUSH2 0x1304 JUMP JUMPDEST SWAP3 SWAP2 POP POP JUMP JUMPDEST PUSH1 0x0 PUSH1 0x20 DUP3 DUP5 SUB SLT ISZERO PUSH2 0x1346 JUMPI PUSH2 0x1345 PUSH2 0x12C8 JUMP JUMPDEST JUMPDEST PUSH1 0x0 PUSH2 0x1354 DUP5 DUP3 DUP6 ADD PUSH2 0x131B JUMP JUMPDEST SWAP2 POP POP SWAP3 SWAP2 POP POP JUMP JUMPDEST PUSH1 0x0 DUP2 SWAP1 POP SWAP2 SWAP1 POP JUMP JUMPDEST PUSH2 0x1370 DUP2 PUSH2 0x135D JUMP JUMPDEST DUP3 MSTORE POP POP JUMP JUMPDEST PUSH1 0x0 PUSH1 0x40 DUP3 ADD SWAP1 POP PUSH2 0x138B PUSH1 0x0 DUP4 ADD DUP6 PUSH2 0x1367 JUMP JUMPDEST PUSH2 0x1398 PUSH1 0x20 DUP4 ADD DUP5 PUSH2 0x1367 JUMP JUMPDEST SWAP4 SWAP3 POP POP POP JUMP JUMPDEST PUSH2 0x13A8 DUP2 PUSH2 0x135D JUMP JUMPDEST DUP3 MSTORE POP POP JUMP JUMPDEST PUSH1 0x40 DUP3 ADD PUSH1 0x0 DUP3 ADD MLOAD PUSH2 0x13C4 PUSH1 0x0 DUP6 ADD DUP3 PUSH2 0x139F JUMP JUMPDEST POP PUSH1 0x20 DUP3 ADD MLOAD PUSH2 0x13D7 PUSH1 0x20 DUP6 ADD DUP3 PUSH2 0x139F JUMP JUMPDEST POP POP POP POP JUMP JUMPDEST PUSH1 0x0 PUSH1 0x40 DUP3 ADD SWAP1 POP PUSH2 0x13F2 PUSH1 0x0 DUP4 ADD DUP5 PUSH2 0x13AE JUMP JUMPDEST SWAP3 SWAP2 POP POP JUMP JUMPDEST PUSH1 0x0 DUP1 REVERT JUMPDEST PUSH1 0x0 DUP1 REVERT JUMPDEST PUSH1 0x0 PUSH1 0x1F NOT PUSH1 0x1F DUP4 ADD AND SWAP1 POP SWAP2 SWAP1 POP JUMP JUMPDEST PUSH32 0x4E487B7100000000000000000000000000000000000000000000000000000000 PUSH1 0x0 MSTORE PUSH1 0x41 PUSH1 0x4 MSTORE PUSH1 0x24 PUSH1 0x0 REVERT JUMPDEST PUSH2 0x144B DUP3 PUSH2 0x1402 JUMP JUMPDEST DUP2 ADD DUP2 DUP2 LT PUSH8 0xFFFFFFFFFFFFFFFF DUP3 GT OR ISZERO PUSH2 0x146A JUMPI PUSH2 0x1469 PUSH2 0x1413 JUMP JUMPDEST JUMPDEST DUP1 PUSH1 0x40 MSTORE POP POP POP JUMP JUMPDEST PUSH1 0x0 PUSH2 0x147D PUSH2 0x12BE JUMP JUMPDEST SWAP1 POP PUSH2 0x1489 DUP3 DUP3 PUSH2 0x1442 JUMP JUMPDEST SWAP2 SWAP1 POP JUMP JUMPDEST PUSH1 0x0 PUSH8 0xFFFFFFFFFFFFFFFF DUP3 GT ISZERO PUSH2 0x14A9 JUMPI PUSH2 0x14A8 PUSH2 0x1413 JUMP JUMPDEST JUMPDEST PUSH2 0x14B2 DUP3 PUSH2 0x1402 JUMP JUMPDEST SWAP1 POP PUSH1 0x20 DUP2 ADD SWAP1 POP SWAP2 SWAP1 POP JUMP JUMPDEST DUP3 DUP2 DUP4 CALLDATACOPY PUSH1 0x0 DUP4 DUP4 ADD MSTORE POP POP POP JUMP JUMPDEST PUSH1 0x0 PUSH2 0x14E1 PUSH2 0x14DC DUP5 PUSH2 0x148E JUMP JUMPDEST PUSH2 0x1473 JUMP JUMPDEST SWAP1 POP DUP3 DUP2 MSTORE PUSH1 0x20 DUP2 ADD DUP5 DUP5 DUP5 ADD GT ISZERO PUSH2 0x14FD JUMPI PUSH2 0x14FC PUSH2 0x13FD JUMP JUMPDEST JUMPDEST PUSH2 0x1508 DUP5 DUP3 DUP6 PUSH2 0x14BF JUMP JUMPDEST POP SWAP4 SWAP3 POP POP POP JUMP JUMPDEST PUSH1 0x0 DUP3 PUSH1 0x1F DUP4 ADD SLT PUSH2 0x1525 JUMPI PUSH2 0x1524 PUSH2 0x13F8 JUMP JUMPDEST JUMPDEST DUP2 CALLDATALOAD PUSH2 0x1535 DUP5 DUP3 PUSH1 0x20 DUP7 ADD PUSH2 0x14CE JUMP JUMPDEST SWAP2 POP POP SWAP3 SWAP2 POP POP JUMP JUMPDEST PUSH1 0x0 DUP1 PUSH1 0x40 DUP4 DUP6 SUB SLT ISZERO PUSH2 0x1555 JUMPI PUSH2 0x1554 PUSH2 0x12C8 JUMP JUMPDEST JUMPDEST PUSH1 0x0 DUP4 ADD CALLDATALOAD PUSH8 0xFFFFFFFFFFFFFFFF DUP2 GT ISZERO PUSH2 0x1573 JUMPI PUSH2 0x1572 PUSH2 0x12CD JUMP JUMPDEST JUMPDEST PUSH2 0x157F DUP6 DUP3 DUP7 ADD PUSH2 0x1510 JUMP JUMPDEST SWAP3 POP POP PUSH1 0x20 PUSH2 0x1590 DUP6 DUP3 DUP7 ADD PUSH2 0x131B JUMP JUMPDEST SWAP2 POP POP SWAP3 POP SWAP3 SWAP1 POP JUMP JUMPDEST PUSH1 0x0 DUP2 ISZERO ISZERO SWAP1 POP SWAP2 SWAP1 POP JUMP JUMPDEST PUSH2 0x15AF DUP2 PUSH2 0x159A JUMP JUMPDEST DUP3 MSTORE POP POP JUMP JUMPDEST PUSH1 0x0 PUSH1 0x20 DUP3 ADD SWAP1 POP PUSH2 0x15CA PUSH1 0x0 DUP4 ADD DUP5 PUSH2 0x15A6 JUMP JUMPDEST SWAP3 SWAP2 POP POP JUMP JUMPDEST PUSH2 0x15D9 DUP2 PUSH2 0x135D JUMP JUMPDEST DUP2 EQ PUSH2 0x15E4 JUMPI PUSH1 0x0 DUP1 REVERT JUMPDEST POP JUMP JUMPDEST PUSH1 0x0 DUP2 CALLDATALOAD SWAP1 POP PUSH2 0x15F6 DUP2 PUSH2 0x15D0 JUMP JUMPDEST SWAP3 SWAP2 POP POP JUMP JUMPDEST PUSH1 0x0 DUP1 PUSH1 0x0 PUSH1 0x60 DUP5 DUP7 SUB SLT ISZERO PUSH2 0x1615 JUMPI PUSH2 0x1614 PUSH2 0x12C8 JUMP JUMPDEST JUMPDEST PUSH1 0x0 PUSH2 0x1623 DUP7 DUP3 DUP8 ADD PUSH2 0x15E7 JUMP JUMPDEST SWAP4 POP POP PUSH1 0x20 DUP5 ADD CALLDATALOAD PUSH8 0xFFFFFFFFFFFFFFFF DUP2 GT ISZERO PUSH2 0x1644 JUMPI PUSH2 0x1643 PUSH2 0x12CD JUMP JUMPDEST JUMPDEST PUSH2 0x1650 DUP7 DUP3 DUP8 ADD PUSH2 0x1510 JUMP JUMPDEST SWAP3 POP POP PUSH1 0x40 PUSH2 0x1661 DUP7 DUP3 DUP8 ADD PUSH2 0x131B JUMP JUMPDEST SWAP2 POP POP SWAP3 POP SWAP3 POP SWAP3 JUMP JUMPDEST PUSH1 0x0 PUSH1 0x20 DUP3 ADD SWAP1 POP PUSH2 0x1680 PUSH1 0x0 DUP4 ADD DUP5 PUSH2 0x1367 JUMP JUMPDEST SWAP3 SWAP2 POP POP JUMP JUMPDEST PUSH2 0x168F DUP2 PUSH2 0x12F2 JUMP JUMPDEST DUP3 MSTORE POP POP JUMP JUMPDEST PUSH1 0x0 PUSH1 0x20 DUP3 ADD SWAP1 POP PUSH2 0x16AA PUSH1 0x0 DUP4 ADD DUP5 PUSH2 0x1686 JUMP JUMPDEST SWAP3 SWAP2 POP POP JUMP JUMPDEST PUSH1 0x0 DUP1 PUSH1 0x40 DUP4 DUP6 SUB SLT ISZERO PUSH2 0x16C7 JUMPI PUSH2 0x16C6 PUSH2 0x12C8 JUMP JUMPDEST JUMPDEST PUSH1 0x0 PUSH2 0x16D5 DUP6 DUP3 DUP7 ADD PUSH2 0x131B JUMP JUMPDEST SWAP3 POP POP PUSH1 0x20 PUSH2 0x16E6 DUP6 DUP3 DUP7 ADD PUSH2 0x15E7 JUMP JUMPDEST SWAP2 POP POP SWAP3 POP SWAP3 SWAP1 POP JUMP JUMPDEST PUSH1 0x0 DUP2 MLOAD SWAP1 POP SWAP2 SWAP1 POP JUMP JUMPDEST PUSH1 0x0 DUP3 DUP3 MSTORE PUSH1 0x20 DUP3 ADD SWAP1 POP SWAP3 SWAP2 POP POP JUMP JUMPDEST PUSH1 0x0 JUMPDEST DUP4 DUP2 LT ISZERO PUSH2 0x172A JUMPI DUP1 DUP3 ADD MLOAD DUP2 DUP5 ADD MSTORE PUSH1 0x20 DUP2 ADD SWAP1 POP PUSH2 0x170F JUMP JUMPDEST DUP4 DUP2 GT ISZERO PUSH2 0x1739 JUMPI PUSH1 0x0 DUP5 DUP5 ADD MSTORE JUMPDEST POP POP POP POP JUMP JUMPDEST PUSH1 0x0 PUSH2 0x174A DUP3 PUSH2 0x16F0 JUMP JUMPDEST PUSH2 0x1754 DUP2 DUP6 PUSH2 0x16FB JUMP JUMPDEST SWAP4 POP PUSH2 0x1764 DUP2 DUP6 PUSH1 0x20 DUP7 ADD PUSH2 0x170C JUMP JUMPDEST PUSH2 0x176D DUP2 PUSH2 0x1402 JUMP JUMPDEST DUP5 ADD SWAP2 POP POP SWAP3 SWAP2 POP POP JUMP JUMPDEST PUSH1 0x0 PUSH1 0x20 DUP3 ADD SWAP1 POP DUP2 DUP2 SUB PUSH1 0x0 DUP4 ADD MSTORE PUSH2 0x1792 DUP2 DUP5 PUSH2 0x173F JUMP JUMPDEST SWAP1 POP SWAP3 SWAP2 POP POP JUMP JUMPDEST PUSH1 0x0 PUSH1 0x20 DUP3 DUP5 SUB SLT ISZERO PUSH2 0x17B0 JUMPI PUSH2 0x17AF PUSH2 0x12C8 JUMP JUMPDEST JUMPDEST PUSH1 0x0 DUP3 ADD CALLDATALOAD PUSH8 0xFFFFFFFFFFFFFFFF DUP2 GT ISZERO PUSH2 0x17CE JUMPI PUSH2 0x17CD PUSH2 0x12CD JUMP JUMPDEST JUMPDEST PUSH2 0x17DA DUP5 DUP3 DUP6 ADD PUSH2 0x1510 JUMP JUMPDEST SWAP2 POP POP SWAP3 SWAP2 POP POP JUMP JUMPDEST PUSH1 0x0 PUSH1 0x40 DUP3 ADD SWAP1 POP PUSH2 0x17F8 PUSH1 0x0 DUP4 ADD DUP6 PUSH2 0x1686 JUMP JUMPDEST PUSH2 0x1805 PUSH1 0x20 DUP4 ADD DUP5 PUSH2 0x1367 JUMP JUMPDEST SWAP4 SWAP3 POP POP POP JUMP JUMPDEST PUSH2 0x1815 DUP2 PUSH2 0x159A JUMP JUMPDEST DUP2 EQ PUSH2 0x1820 JUMPI PUSH1 0x0 DUP1 REVERT JUMPDEST POP JUMP JUMPDEST PUSH1 0x0 DUP2 MLOAD SWAP1 POP PUSH2 0x1832 DUP2 PUSH2 0x180C JUMP JUMPDEST SWAP3 SWAP2 POP POP JUMP JUMPDEST PUSH1 0x0 PUSH1 0x20 DUP3 DUP5 SUB SLT ISZERO PUSH2 0x184E JUMPI PUSH2 0x184D PUSH2 0x12C8 JUMP JUMPDEST JUMPDEST PUSH1 0x0 PUSH2 0x185C DUP5 DUP3 DUP6 ADD PUSH2 0x1823 JUMP JUMPDEST SWAP2 POP POP SWAP3 SWAP2 POP POP JUMP JUMPDEST PUSH1 0x0 PUSH1 0x60 DUP3 ADD SWAP1 POP PUSH2 0x187A PUSH1 0x0 DUP4 ADD DUP7 PUSH2 0x1686 JUMP JUMPDEST PUSH2 0x1887 PUSH1 0x20 DUP4 ADD DUP6 PUSH2 0x1686 JUMP JUMPDEST PUSH2 0x1894 PUSH1 0x40 DUP4 ADD DUP5 PUSH2 0x1367 JUMP JUMPDEST SWAP5 SWAP4 POP POP POP POP JUMP JUMPDEST PUSH1 0x0 DUP2 SWAP1 POP SWAP3 SWAP2 POP POP JUMP JUMPDEST PUSH1 0x0 PUSH2 0x18B2 DUP3 PUSH2 0x16F0 JUMP JUMPDEST PUSH2 0x18BC DUP2 DUP6 PUSH2 0x189C JUMP JUMPDEST SWAP4 POP PUSH2 0x18CC DUP2 DUP6 PUSH1 0x20 DUP7 ADD PUSH2 0x170C JUMP JUMPDEST DUP1 DUP5 ADD SWAP2 POP POP SWAP3 SWAP2 POP POP JUMP JUMPDEST PUSH1 0x0 PUSH2 0x18E4 DUP3 DUP5 PUSH2 0x18A7 JUMP JUMPDEST SWAP2 POP DUP2 SWAP1 POP SWAP3 SWAP2 POP POP JUMP JUMPDEST PUSH32 0x4E487B7100000000000000000000000000000000000000000000000000000000 PUSH1 0x0 MSTORE PUSH1 0x11 PUSH1 0x4 MSTORE PUSH1 0x24 PUSH1 0x0 REVERT JUMPDEST PUSH1 0x0 PUSH2 0x1929 DUP3 PUSH2 0x135D JUMP JUMPDEST SWAP2 POP PUSH2 0x1934 DUP4 PUSH2 0x135D JUMP JUMPDEST SWAP3 POP DUP3 PUSH32 0xFFFFFFFFFFFFFFFFFFFFFFFFFFFFFFFFFFFFFFFFFFFFFFFFFFFFFFFFFFFFFFFF SUB DUP3 GT ISZERO PUSH2 0x1969 JUMPI PUSH2 0x1968 PUSH2 0x18EF JUMP JUMPDEST JUMPDEST DUP3 DUP3 ADD SWAP1 POP SWAP3 SWAP2 POP POP JUMP JUMPDEST PUSH32 0x4F776E61626C653A2063616C6C6572206973206E6F7420746865206F776E6572 PUSH1 0x0 DUP3 ADD MSTORE POP JUMP JUMPDEST PUSH1 0x0 PUSH2 0x19AA PUSH1 0x20 DUP4 PUSH2 0x16FB JUMP JUMPDEST SWAP2 POP PUSH2 0x19B5 DUP3 PUSH2 0x1974 JUMP JUMPDEST PUSH1 0x20 DUP3 ADD SWAP1 POP SWAP2 SWAP1 POP JUMP JUMPDEST PUSH1 0x0 PUSH1 0x20 DUP3 ADD SWAP1 POP DUP2 DUP2 SUB PUSH1 0x0 DUP4 ADD MSTORE PUSH2 0x19D9 DUP2 PUSH2 0x199D JUMP JUMPDEST SWAP1 POP SWAP2 SWAP1 POP JUMP JUMPDEST PUSH32 0x4E487B7100000000000000000000000000000000000000000000000000000000 PUSH1 0x0 MSTORE PUSH1 0x32 PUSH1 0x4 MSTORE PUSH1 0x24 PUSH1 0x0 REVERT JUMPDEST PUSH32 0x4E487B7100000000000000000000000000000000000000000000000000000000 PUSH1 0x0 MSTORE PUSH1 0x22 PUSH1 0x4 MSTORE PUSH1 0x24 PUSH1 0x0 REVERT JUMPDEST PUSH1 0x0 PUSH1 0x2 DUP3 DIV SWAP1 POP PUSH1 0x1 DUP3 AND DUP1 PUSH2 0x1A56 JUMPI PUSH1 0x7F DUP3 AND SWAP2 POP JUMPDEST PUSH1 0x20 DUP3 LT DUP2 SUB PUSH2 0x1A69 JUMPI PUSH2 0x1A68 PUSH2 0x1A0F JUMP JUMPDEST JUMPDEST POP SWAP2 SWAP1 POP JUMP JUMPDEST PUSH32 0x4F776E61626C653A206E6577206F776E657220697320746865207A65726F2061 PUSH1 0x0 DUP3 ADD MSTORE PUSH32 0x6464726573730000000000000000000000000000000000000000000000000000 PUSH1 0x20 DUP3 ADD MSTORE POP JUMP JUMPDEST PUSH1 0x0 PUSH2 0x1ACB PUSH1 0x26 DUP4 PUSH2 0x16FB JUMP JUMPDEST SWAP2 POP PUSH2 0x1AD6 DUP3 PUSH2 0x1A6F JUMP JUMPDEST PUSH1 0x40 DUP3 ADD SWAP1 POP SWAP2 SWAP1 POP JUMP JUMPDEST PUSH1 0x0 PUSH1 0x20 DUP3 ADD SWAP1 POP DUP2 DUP2 SUB PUSH1 0x0 DUP4 ADD MSTORE PUSH2 0x1AFA DUP2 PUSH2 0x1ABE JUMP JUMPDEST SWAP1 POP SWAP2 SWAP1 POP JUMP INVALID LOG2 PUSH5 0x6970667358 0x22 SLT KECCAK256 BYTE PUSH5 0x37D3E5F647 EXTCODECOPY 0x4E DUP7 0xA7 0xB0 DUP10 0x5D 0xDE PUSH29 0x441D0FF0D7A1004C7E154FB1C0B2573064736F6C634300080E00330000 "
				},
				"gasEstimates": {
					"creation": {
						"codeDepositCost": "1393400",
						"executionCost": "infinite",
						"totalCost": "infinite"
					},
					"external": {
						"claim(address)": "infinite",
						"countTweetsFunded(address)": "2881",
						"currentTier(address)": "2859",
						"donated(address)": "2924",
						"fundTweet(uint256,string,address)": "infinite",
						"funded(string,address)": "infinite",
						"getTweetFundedForUser(address,uint256)": "infinite",
						"getTweetFunding(string)": "infinite",
						"getUserRewards(address)": "infinite",
						"owner()": "2611",
						"renounceOwnership()": "30323",
						"replaceAsset(address)": "27000",
						"replaceReward(address)": "26977",
						"rewardPerTweet(string)": "infinite",
						"totalTransactionVolume()": "2495",
						"transferOwnership(address)": "30646",
						"tweetsFundedForUser(address,uint256)": "infinite",
						"userRewards(address)": "infinite"
					},
					"internal": {
						"getEligibility(uint256)": "infinite"
					}
				},
				"methodIdentifiers": {
					"claim(address)": "1e83409a",
					"countTweetsFunded(address)": "de0c4c7c",
					"currentTier(address)": "5d6c83b5",
					"donated(address)": "fb690dcc",
					"fundTweet(uint256,string,address)": "2a108e21",
					"funded(string,address)": "0b21d7a2",
					"getTweetFundedForUser(address,uint256)": "d0d996c4",
					"getTweetFunding(string)": "d38ef5f1",
					"getUserRewards(address)": "078b0fb7",
					"owner()": "8da5cb5b",
					"renounceOwnership()": "715018a6",
					"replaceAsset(address)": "cac843aa",
					"replaceReward(address)": "f8c842e5",
					"rewardPerTweet(string)": "de51d1fd",
					"totalTransactionVolume()": "f839f319",
					"transferOwnership(address)": "f2fde38b",
					"tweetsFundedForUser(address,uint256)": "f0863cce",
					"userRewards(address)": "0660f1e8"
				}
			},
			"storageLayout": {
				"storage": [
					{
						"astId": 1009,
						"contract": "contracts/SocialDiamond.sol:SocialDiamond",
						"label": "_owner",
						"offset": 0,
						"slot": "0",
						"type": "t_address"
					},
					{
						"astId": 18,
						"contract": "contracts/SocialDiamond.sol:SocialDiamond",
						"label": "reward",
						"offset": 0,
						"slot": "1",
						"type": "t_address"
					},
					{
						"astId": 20,
						"contract": "contracts/SocialDiamond.sol:SocialDiamond",
						"label": "asset",
						"offset": 0,
						"slot": "2",
						"type": "t_address"
					},
					{
						"astId": 25,
						"contract": "contracts/SocialDiamond.sol:SocialDiamond",
						"label": "tweetsFundedForUser",
						"offset": 0,
						"slot": "3",
						"type": "t_mapping(t_address,t_array(t_string_storage)dyn_storage)"
					},
					{
						"astId": 29,
						"contract": "contracts/SocialDiamond.sol:SocialDiamond",
						"label": "countTweetsFunded",
						"offset": 0,
						"slot": "4",
						"type": "t_mapping(t_address,t_uint256)"
					},
					{
						"astId": 35,
						"contract": "contracts/SocialDiamond.sol:SocialDiamond",
						"label": "funded",
						"offset": 0,
						"slot": "5",
						"type": "t_mapping(t_string_memory_ptr,t_mapping(t_address,t_bool))"
					},
					{
						"astId": 40,
						"contract": "contracts/SocialDiamond.sol:SocialDiamond",
						"label": "userRewards",
						"offset": 0,
						"slot": "6",
						"type": "t_mapping(t_address,t_struct(Reward)16_storage)"
					},
					{
						"astId": 44,
						"contract": "contracts/SocialDiamond.sol:SocialDiamond",
						"label": "donated",
						"offset": 0,
						"slot": "7",
						"type": "t_mapping(t_address,t_uint256)"
					},
					{
						"astId": 48,
						"contract": "contracts/SocialDiamond.sol:SocialDiamond",
						"label": "currentTier",
						"offset": 0,
						"slot": "8",
						"type": "t_mapping(t_address,t_uint256)"
					},
					{
						"astId": 51,
						"contract": "contracts/SocialDiamond.sol:SocialDiamond",
						"label": "tiers",
						"offset": 0,
						"slot": "9",
						"type": "t_array(t_uint256)dyn_storage"
					},
					{
						"astId": 55,
						"contract": "contracts/SocialDiamond.sol:SocialDiamond",
						"label": "rewardPerTweet",
						"offset": 0,
						"slot": "10",
						"type": "t_mapping(t_string_memory_ptr,t_uint256)"
					},
					{
						"astId": 57,
						"contract": "contracts/SocialDiamond.sol:SocialDiamond",
						"label": "totalTransactionVolume",
						"offset": 0,
						"slot": "11",
						"type": "t_uint256"
					}
				],
				"types": {
					"t_address": {
						"encoding": "inplace",
						"label": "address",
						"numberOfBytes": "20"
					},
					"t_array(t_string_storage)dyn_storage": {
						"base": "t_string_storage",
						"encoding": "dynamic_array",
						"label": "string[]",
						"numberOfBytes": "32"
					},
					"t_array(t_uint256)dyn_storage": {
						"base": "t_uint256",
						"encoding": "dynamic_array",
						"label": "uint256[]",
						"numberOfBytes": "32"
					},
					"t_bool": {
						"encoding": "inplace",
						"label": "bool",
						"numberOfBytes": "1"
					},
					"t_mapping(t_address,t_array(t_string_storage)dyn_storage)": {
						"encoding": "mapping",
						"key": "t_address",
						"label": "mapping(address => string[])",
						"numberOfBytes": "32",
						"value": "t_array(t_string_storage)dyn_storage"
					},
					"t_mapping(t_address,t_bool)": {
						"encoding": "mapping",
						"key": "t_address",
						"label": "mapping(address => bool)",
						"numberOfBytes": "32",
						"value": "t_bool"
					},
					"t_mapping(t_address,t_struct(Reward)16_storage)": {
						"encoding": "mapping",
						"key": "t_address",
						"label": "mapping(address => struct SocialDiamond.Reward)",
						"numberOfBytes": "32",
						"value": "t_struct(Reward)16_storage"
					},
					"t_mapping(t_address,t_uint256)": {
						"encoding": "mapping",
						"key": "t_address",
						"label": "mapping(address => uint256)",
						"numberOfBytes": "32",
						"value": "t_uint256"
					},
					"t_mapping(t_string_memory_ptr,t_mapping(t_address,t_bool))": {
						"encoding": "mapping",
						"key": "t_string_memory_ptr",
						"label": "mapping(string => mapping(address => bool))",
						"numberOfBytes": "32",
						"value": "t_mapping(t_address,t_bool)"
					},
					"t_mapping(t_string_memory_ptr,t_uint256)": {
						"encoding": "mapping",
						"key": "t_string_memory_ptr",
						"label": "mapping(string => uint256)",
						"numberOfBytes": "32",
						"value": "t_uint256"
					},
					"t_string_memory_ptr": {
						"encoding": "bytes",
						"label": "string",
						"numberOfBytes": "32"
					},
					"t_string_storage": {
						"encoding": "bytes",
						"label": "string",
						"numberOfBytes": "32"
					},
					"t_struct(Reward)16_storage": {
						"encoding": "inplace",
						"label": "struct SocialDiamond.Reward",
						"members": [
							{
								"astId": 13,
								"contract": "contracts/SocialDiamond.sol:SocialDiamond",
								"label": "claimed",
								"offset": 0,
								"slot": "0",
								"type": "t_uint256"
							},
							{
								"astId": 15,
								"contract": "contracts/SocialDiamond.sol:SocialDiamond",
								"label": "pending",
								"offset": 0,
								"slot": "1",
								"type": "t_uint256"
							}
						],
						"numberOfBytes": "64"
					},
					"t_uint256": {
						"encoding": "inplace",
						"label": "uint256",
						"numberOfBytes": "32"
					}
				}
			},
			"userdoc": {
				"kind": "user",
				"methods": {},
				"version": 1
			}
		}
	}
}