{
	"contracts/SocialDiamond.sol": {
		"SocialDiamond": {
			"abi": [
				{
					"inputs": [
						{
							"internalType": "address",
							"name": "_initialAsset",
							"type": "address"
						},
						{
							"internalType": "uint256[]",
							"name": "_tiers",
							"type": "uint256[]"
						}
					],
					"stateMutability": "nonpayable",
					"type": "constructor"
				},
				{
					"anonymous": false,
					"inputs": [
						{
							"indexed": true,
							"internalType": "address",
							"name": "previousOwner",
							"type": "address"
						},
						{
							"indexed": true,
							"internalType": "address",
							"name": "newOwner",
							"type": "address"
						}
					],
					"name": "OwnershipTransferred",
					"type": "event"
				},
				{
					"inputs": [
						{
							"internalType": "address",
							"name": "_recipient",
							"type": "address"
						}
					],
					"name": "claim",
					"outputs": [],
					"stateMutability": "nonpayable",
					"type": "function"
				},
				{
					"inputs": [
						{
							"internalType": "address",
							"name": "",
							"type": "address"
						}
					],
					"name": "countTweetsFunded",
					"outputs": [
						{
							"internalType": "uint256",
							"name": "",
							"type": "uint256"
						}
					],
					"stateMutability": "view",
					"type": "function"
				},
				{
					"inputs": [
						{
							"internalType": "address",
							"name": "",
							"type": "address"
						}
					],
					"name": "currentTier",
					"outputs": [
						{
							"internalType": "uint256",
							"name": "",
							"type": "uint256"
						}
					],
					"stateMutability": "view",
					"type": "function"
				},
				{
					"inputs": [
						{
							"internalType": "address",
							"name": "",
							"type": "address"
						}
					],
					"name": "donated",
					"outputs": [
						{
							"internalType": "uint256",
							"name": "",
							"type": "uint256"
						}
					],
					"stateMutability": "view",
					"type": "function"
				},
				{
					"inputs": [
						{
							"internalType": "uint256",
							"name": "_amount",
							"type": "uint256"
						},
						{
							"internalType": "string",
							"name": "_link",
							"type": "string"
						},
						{
							"internalType": "address",
							"name": "_recipient",
							"type": "address"
						}
					],
					"name": "fundTweet",
					"outputs": [],
					"stateMutability": "nonpayable",
					"type": "function"
				},
				{
					"inputs": [
						{
							"internalType": "string",
							"name": "",
							"type": "string"
						},
						{
							"internalType": "address",
							"name": "",
							"type": "address"
						}
					],
					"name": "funded",
					"outputs": [
						{
							"internalType": "bool",
							"name": "",
							"type": "bool"
						}
					],
					"stateMutability": "view",
					"type": "function"
				},
				{
					"inputs": [
						{
							"internalType": "address",
							"name": "_user",
							"type": "address"
						},
						{
							"internalType": "uint256",
							"name": "_index",
							"type": "uint256"
						}
					],
					"name": "getTweetFundedForUser",
					"outputs": [
						{
							"internalType": "string",
							"name": "",
							"type": "string"
						}
					],
					"stateMutability": "view",
					"type": "function"
				},
				{
					"inputs": [
						{
							"internalType": "string",
							"name": "_tweet",
							"type": "string"
						}
					],
					"name": "getTweetFunding",
					"outputs": [
						{
							"internalType": "uint256",
							"name": "",
							"type": "uint256"
						}
					],
					"stateMutability": "view",
					"type": "function"
				},
				{
					"inputs": [
						{
							"internalType": "address",
							"name": "_user",
							"type": "address"
						}
					],
					"name": "getUserRewards",
					"outputs": [
						{
							"components": [
								{
									"internalType": "uint256",
									"name": "claimed",
									"type": "uint256"
								},
								{
									"internalType": "uint256",
									"name": "pending",
									"type": "uint256"
								}
							],
							"internalType": "struct SocialDiamond.Reward",
							"name": "_rewards",
							"type": "tuple"
						}
					],
					"stateMutability": "view",
					"type": "function"
				},
				{
					"inputs": [],
					"name": "owner",
					"outputs": [
						{
							"internalType": "address",
							"name": "",
							"type": "address"
						}
					],
					"stateMutability": "view",
					"type": "function"
				},
				{
					"inputs": [],
					"name": "renounceOwnership",
					"outputs": [],
					"stateMutability": "nonpayable",
					"type": "function"
				},
				{
					"inputs": [
						{
							"internalType": "address",
							"name": "_asset",
							"type": "address"
						}
					],
					"name": "replaceAsset",
					"outputs": [],
					"stateMutability": "nonpayable",
					"type": "function"
				},
				{
					"inputs": [
						{
							"internalType": "address",
							"name": "_newReward",
							"type": "address"
						}
					],
					"name": "replaceReward",
					"outputs": [],
					"stateMutability": "nonpayable",
					"type": "function"
				},
				{
					"inputs": [
						{
							"internalType": "string",
							"name": "",
							"type": "string"
						}
					],
					"name": "rewardPerTweet",
					"outputs": [
						{
							"internalType": "uint256",
							"name": "",
							"type": "uint256"
						}
					],
					"stateMutability": "view",
					"type": "function"
				},
				{
					"inputs": [
						{
							"internalType": "uint256[]",
							"name": "_newTiers",
							"type": "uint256[]"
						}
					],
					"name": "setTiers",
					"outputs": [],
					"stateMutability": "nonpayable",
					"type": "function"
				},
				{
					"inputs": [],
					"name": "totalTransactionVolume",
					"outputs": [
						{
							"internalType": "uint256",
							"name": "",
							"type": "uint256"
						}
					],
					"stateMutability": "view",
					"type": "function"
				},
				{
					"inputs": [
						{
							"internalType": "address",
							"name": "newOwner_",
							"type": "address"
						}
					],
					"name": "transferOwnership",
					"outputs": [],
					"stateMutability": "nonpayable",
					"type": "function"
				},
				{
					"inputs": [
						{
							"internalType": "address",
							"name": "",
							"type": "address"
						},
						{
							"internalType": "uint256",
							"name": "",
							"type": "uint256"
						}
					],
					"name": "tweetsFundedForUser",
					"outputs": [
						{
							"internalType": "string",
							"name": "",
							"type": "string"
						}
					],
					"stateMutability": "view",
					"type": "function"
				},
				{
					"inputs": [
						{
							"internalType": "address",
							"name": "",
							"type": "address"
						}
					],
					"name": "userRewards",
					"outputs": [
						{
							"internalType": "uint256",
							"name": "claimed",
							"type": "uint256"
						},
						{
							"internalType": "uint256",
							"name": "pending",
							"type": "uint256"
						}
					],
					"stateMutability": "view",
					"type": "function"
				}
			],
			"devdoc": {
				"kind": "dev",
				"methods": {},
				"version": 1
			},
			"evm": {
				"assembly": "    /* \"contracts/SocialDiamond.sol\":211:2876  contract SocialDiamond is Ownable {... */\n  mstore(0x40, 0x80)\n    /* \"contracts/SocialDiamond.sol\":906:1028  constructor(address _initialAsset, uint256[] memory _tiers) Ownable() {... */\n  callvalue\n  dup1\n  iszero\n  tag_1\n  jumpi\n  0x00\n  dup1\n  revert\ntag_1:\n  pop\n  mload(0x40)\n  sub(codesize, bytecodeSize)\n  dup1\n  bytecodeSize\n  dup4\n  codecopy\n  dup2\n  dup2\n  add\n  0x40\n  mstore\n  dup2\n  add\n  swap1\n  tag_2\n  swap2\n  swap1\n  tag_3\n  jump\t// in\ntag_2:\n    /* \"contracts/libraries/Ownable.sol\":235:245  msg.sender */\n  caller\n    /* \"contracts/libraries/Ownable.sol\":226:232  _owner */\n  0x00\n  dup1\n    /* \"contracts/libraries/Ownable.sol\":226:245  _owner = msg.sender */\n  0x0100\n  exp\n  dup2\n  sload\n  dup2\n  0xffffffffffffffffffffffffffffffffffffffff\n  mul\n  not\n  and\n  swap1\n  dup4\n  0xffffffffffffffffffffffffffffffffffffffff\n  and\n  mul\n  or\n  swap1\n  sstore\n  pop\n    /* \"contracts/libraries/Ownable.sol\":289:295  _owner */\n  0x00\n  dup1\n  sload\n  swap1\n  0x0100\n  exp\n  swap1\n  div\n  0xffffffffffffffffffffffffffffffffffffffff\n  and\n    /* \"contracts/libraries/Ownable.sol\":256:296  OwnershipTransferred(address(0), _owner) */\n  0xffffffffffffffffffffffffffffffffffffffff\n  and\n    /* \"contracts/libraries/Ownable.sol\":285:286  0 */\n  0x00\n    /* \"contracts/libraries/Ownable.sol\":256:296  OwnershipTransferred(address(0), _owner) */\n  0xffffffffffffffffffffffffffffffffffffffff\n  and\n  0x8be0079c531659141344cd1fd0a4f28419497f9722a3daafe3b4186f6b6457e0\n  mload(0x40)\n  mload(0x40)\n  dup1\n  swap2\n  sub\n  swap1\n  log3\n    /* \"contracts/SocialDiamond.sol\":990:1003  _initialAsset */\n  dup2\n    /* \"contracts/SocialDiamond.sol\":982:987  asset */\n  0x02\n  0x00\n    /* \"contracts/SocialDiamond.sol\":982:1003  asset = _initialAsset */\n  0x0100\n  exp\n  dup2\n  sload\n  dup2\n  0xffffffffffffffffffffffffffffffffffffffff\n  mul\n  not\n  and\n  swap1\n  dup4\n  0xffffffffffffffffffffffffffffffffffffffff\n  and\n  mul\n  or\n  swap1\n  sstore\n  pop\n    /* \"contracts/SocialDiamond.sol\":1017:1023  _tiers */\n  dup1\n    /* \"contracts/SocialDiamond.sol\":1009:1014  tiers */\n  0x09\n    /* \"contracts/SocialDiamond.sol\":1009:1023  tiers = _tiers */\n  swap1\n  dup1\n  mload\n  swap1\n  0x20\n  add\n  swap1\n  tag_8\n  swap3\n  swap2\n  swap1\n  tag_9\n  jump\t// in\ntag_8:\n  pop\n    /* \"contracts/SocialDiamond.sol\":906:1028  constructor(address _initialAsset, uint256[] memory _tiers) Ownable() {... */\n  pop\n  pop\n    /* \"contracts/SocialDiamond.sol\":211:2876  contract SocialDiamond is Ownable {... */\n  jump(tag_10)\ntag_9:\n  dup3\n  dup1\n  sload\n  dup3\n  dup3\n  sstore\n  swap1\n  0x00\n  mstore\n  keccak256(0x00, 0x20)\n  swap1\n  dup2\n  add\n  swap3\n  dup3\n  iszero\n  tag_11\n  jumpi\n  swap2\n  0x20\n  mul\n  dup3\n  add\ntag_12:\n  dup3\n  dup2\n  gt\n  iszero\n  tag_13\n  jumpi\n  dup3\n  mload\n  dup3\n  sstore\n  swap2\n  0x20\n  add\n  swap2\n  swap1\n  0x01\n  add\n  swap1\n  jump(tag_12)\ntag_13:\ntag_11:\n  pop\n  swap1\n  pop\n  tag_14\n  swap2\n  swap1\n  tag_15\n  jump\t// in\ntag_14:\n  pop\n  swap1\n  jump\t// out\ntag_15:\ntag_16:\n  dup1\n  dup3\n  gt\n  iszero\n  tag_17\n  jumpi\n  0x00\n  dup2\n  0x00\n  swap1\n  sstore\n  pop\n  0x01\n  add\n  jump(tag_16)\ntag_17:\n  pop\n  swap1\n  jump\t// out\n    /* \"#utility.yul\":7:82   */\ntag_18:\n    /* \"#utility.yul\":40:46   */\n  0x00\n    /* \"#utility.yul\":73:75   */\n  0x40\n    /* \"#utility.yul\":67:76   */\n  mload\n    /* \"#utility.yul\":57:76   */\n  swap1\n  pop\n    /* \"#utility.yul\":7:82   */\n  swap1\n  jump\t// out\n    /* \"#utility.yul\":88:205   */\ntag_19:\n    /* \"#utility.yul\":197:198   */\n  0x00\n    /* \"#utility.yul\":194:195   */\n  dup1\n    /* \"#utility.yul\":187:199   */\n  revert\n    /* \"#utility.yul\":211:328   */\ntag_20:\n    /* \"#utility.yul\":320:321   */\n  0x00\n    /* \"#utility.yul\":317:318   */\n  dup1\n    /* \"#utility.yul\":310:322   */\n  revert\n    /* \"#utility.yul\":334:460   */\ntag_21:\n    /* \"#utility.yul\":371:378   */\n  0x00\n    /* \"#utility.yul\":411:453   */\n  0xffffffffffffffffffffffffffffffffffffffff\n    /* \"#utility.yul\":404:409   */\n  dup3\n    /* \"#utility.yul\":400:454   */\n  and\n    /* \"#utility.yul\":389:454   */\n  swap1\n  pop\n    /* \"#utility.yul\":334:460   */\n  swap2\n  swap1\n  pop\n  jump\t// out\n    /* \"#utility.yul\":466:562   */\ntag_22:\n    /* \"#utility.yul\":503:510   */\n  0x00\n    /* \"#utility.yul\":532:556   */\n  tag_43\n    /* \"#utility.yul\":550:555   */\n  dup3\n    /* \"#utility.yul\":532:556   */\n  tag_21\n  jump\t// in\ntag_43:\n    /* \"#utility.yul\":521:556   */\n  swap1\n  pop\n    /* \"#utility.yul\":466:562   */\n  swap2\n  swap1\n  pop\n  jump\t// out\n    /* \"#utility.yul\":568:690   */\ntag_23:\n    /* \"#utility.yul\":641:665   */\n  tag_45\n    /* \"#utility.yul\":659:664   */\n  dup2\n    /* \"#utility.yul\":641:665   */\n  tag_22\n  jump\t// in\ntag_45:\n    /* \"#utility.yul\":634:639   */\n  dup2\n    /* \"#utility.yul\":631:666   */\n  eq\n    /* \"#utility.yul\":621:684   */\n  tag_46\n  jumpi\n    /* \"#utility.yul\":680:681   */\n  0x00\n    /* \"#utility.yul\":677:678   */\n  dup1\n    /* \"#utility.yul\":670:682   */\n  revert\n    /* \"#utility.yul\":621:684   */\ntag_46:\n    /* \"#utility.yul\":568:690   */\n  pop\n  jump\t// out\n    /* \"#utility.yul\":696:839   */\ntag_24:\n    /* \"#utility.yul\":753:758   */\n  0x00\n    /* \"#utility.yul\":784:790   */\n  dup2\n    /* \"#utility.yul\":778:791   */\n  mload\n    /* \"#utility.yul\":769:791   */\n  swap1\n  pop\n    /* \"#utility.yul\":800:833   */\n  tag_48\n    /* \"#utility.yul\":827:832   */\n  dup2\n    /* \"#utility.yul\":800:833   */\n  tag_23\n  jump\t// in\ntag_48:\n    /* \"#utility.yul\":696:839   */\n  swap3\n  swap2\n  pop\n  pop\n  jump\t// out\n    /* \"#utility.yul\":845:962   */\ntag_25:\n    /* \"#utility.yul\":954:955   */\n  0x00\n    /* \"#utility.yul\":951:952   */\n  dup1\n    /* \"#utility.yul\":944:956   */\n  revert\n    /* \"#utility.yul\":968:1070   */\ntag_26:\n    /* \"#utility.yul\":1009:1015   */\n  0x00\n    /* \"#utility.yul\":1060:1062   */\n  0x1f\n    /* \"#utility.yul\":1056:1063   */\n  not\n    /* \"#utility.yul\":1051:1053   */\n  0x1f\n    /* \"#utility.yul\":1044:1049   */\n  dup4\n    /* \"#utility.yul\":1040:1054   */\n  add\n    /* \"#utility.yul\":1036:1064   */\n  and\n    /* \"#utility.yul\":1026:1064   */\n  swap1\n  pop\n    /* \"#utility.yul\":968:1070   */\n  swap2\n  swap1\n  pop\n  jump\t// out\n    /* \"#utility.yul\":1076:1256   */\ntag_27:\n    /* \"#utility.yul\":1124:1201   */\n  0x4e487b7100000000000000000000000000000000000000000000000000000000\n    /* \"#utility.yul\":1121:1122   */\n  0x00\n    /* \"#utility.yul\":1114:1202   */\n  mstore\n    /* \"#utility.yul\":1221:1225   */\n  0x41\n    /* \"#utility.yul\":1218:1219   */\n  0x04\n    /* \"#utility.yul\":1211:1226   */\n  mstore\n    /* \"#utility.yul\":1245:1249   */\n  0x24\n    /* \"#utility.yul\":1242:1243   */\n  0x00\n    /* \"#utility.yul\":1235:1250   */\n  revert\n    /* \"#utility.yul\":1262:1543   */\ntag_28:\n    /* \"#utility.yul\":1345:1372   */\n  tag_53\n    /* \"#utility.yul\":1367:1371   */\n  dup3\n    /* \"#utility.yul\":1345:1372   */\n  tag_26\n  jump\t// in\ntag_53:\n    /* \"#utility.yul\":1337:1343   */\n  dup2\n    /* \"#utility.yul\":1333:1373   */\n  add\n    /* \"#utility.yul\":1475:1481   */\n  dup2\n    /* \"#utility.yul\":1463:1473   */\n  dup2\n    /* \"#utility.yul\":1460:1482   */\n  lt\n    /* \"#utility.yul\":1439:1457   */\n  0xffffffffffffffff\n    /* \"#utility.yul\":1427:1437   */\n  dup3\n    /* \"#utility.yul\":1424:1458   */\n  gt\n    /* \"#utility.yul\":1421:1483   */\n  or\n    /* \"#utility.yul\":1418:1506   */\n  iszero\n  tag_54\n  jumpi\n    /* \"#utility.yul\":1486:1504   */\n  tag_55\n  tag_27\n  jump\t// in\ntag_55:\n    /* \"#utility.yul\":1418:1506   */\ntag_54:\n    /* \"#utility.yul\":1526:1536   */\n  dup1\n    /* \"#utility.yul\":1522:1524   */\n  0x40\n    /* \"#utility.yul\":1515:1537   */\n  mstore\n    /* \"#utility.yul\":1305:1543   */\n  pop\n    /* \"#utility.yul\":1262:1543   */\n  pop\n  pop\n  jump\t// out\n    /* \"#utility.yul\":1549:1678   */\ntag_29:\n    /* \"#utility.yul\":1583:1589   */\n  0x00\n    /* \"#utility.yul\":1610:1630   */\n  tag_57\n  tag_18\n  jump\t// in\ntag_57:\n    /* \"#utility.yul\":1600:1630   */\n  swap1\n  pop\n    /* \"#utility.yul\":1639:1672   */\n  tag_58\n    /* \"#utility.yul\":1667:1671   */\n  dup3\n    /* \"#utility.yul\":1659:1665   */\n  dup3\n    /* \"#utility.yul\":1639:1672   */\n  tag_28\n  jump\t// in\ntag_58:\n    /* \"#utility.yul\":1549:1678   */\n  swap2\n  swap1\n  pop\n  jump\t// out\n    /* \"#utility.yul\":1684:1995   */\ntag_30:\n    /* \"#utility.yul\":1761:1765   */\n  0x00\n    /* \"#utility.yul\":1851:1869   */\n  0xffffffffffffffff\n    /* \"#utility.yul\":1843:1849   */\n  dup3\n    /* \"#utility.yul\":1840:1870   */\n  gt\n    /* \"#utility.yul\":1837:1893   */\n  iszero\n  tag_60\n  jumpi\n    /* \"#utility.yul\":1873:1891   */\n  tag_61\n  tag_27\n  jump\t// in\ntag_61:\n    /* \"#utility.yul\":1837:1893   */\ntag_60:\n    /* \"#utility.yul\":1923:1927   */\n  0x20\n    /* \"#utility.yul\":1915:1921   */\n  dup3\n    /* \"#utility.yul\":1911:1928   */\n  mul\n    /* \"#utility.yul\":1903:1928   */\n  swap1\n  pop\n    /* \"#utility.yul\":1983:1987   */\n  0x20\n    /* \"#utility.yul\":1977:1981   */\n  dup2\n    /* \"#utility.yul\":1973:1988   */\n  add\n    /* \"#utility.yul\":1965:1988   */\n  swap1\n  pop\n    /* \"#utility.yul\":1684:1995   */\n  swap2\n  swap1\n  pop\n  jump\t// out\n    /* \"#utility.yul\":2001:2118   */\ntag_31:\n    /* \"#utility.yul\":2110:2111   */\n  0x00\n    /* \"#utility.yul\":2107:2108   */\n  dup1\n    /* \"#utility.yul\":2100:2112   */\n  revert\n    /* \"#utility.yul\":2124:2201   */\ntag_32:\n    /* \"#utility.yul\":2161:2168   */\n  0x00\n    /* \"#utility.yul\":2190:2195   */\n  dup2\n    /* \"#utility.yul\":2179:2195   */\n  swap1\n  pop\n    /* \"#utility.yul\":2124:2201   */\n  swap2\n  swap1\n  pop\n  jump\t// out\n    /* \"#utility.yul\":2207:2329   */\ntag_33:\n    /* \"#utility.yul\":2280:2304   */\n  tag_65\n    /* \"#utility.yul\":2298:2303   */\n  dup2\n    /* \"#utility.yul\":2280:2304   */\n  tag_32\n  jump\t// in\ntag_65:\n    /* \"#utility.yul\":2273:2278   */\n  dup2\n    /* \"#utility.yul\":2270:2305   */\n  eq\n    /* \"#utility.yul\":2260:2323   */\n  tag_66\n  jumpi\n    /* \"#utility.yul\":2319:2320   */\n  0x00\n    /* \"#utility.yul\":2316:2317   */\n  dup1\n    /* \"#utility.yul\":2309:2321   */\n  revert\n    /* \"#utility.yul\":2260:2323   */\ntag_66:\n    /* \"#utility.yul\":2207:2329   */\n  pop\n  jump\t// out\n    /* \"#utility.yul\":2335:2478   */\ntag_34:\n    /* \"#utility.yul\":2392:2397   */\n  0x00\n    /* \"#utility.yul\":2423:2429   */\n  dup2\n    /* \"#utility.yul\":2417:2430   */\n  mload\n    /* \"#utility.yul\":2408:2430   */\n  swap1\n  pop\n    /* \"#utility.yul\":2439:2472   */\n  tag_68\n    /* \"#utility.yul\":2466:2471   */\n  dup2\n    /* \"#utility.yul\":2439:2472   */\n  tag_33\n  jump\t// in\ntag_68:\n    /* \"#utility.yul\":2335:2478   */\n  swap3\n  swap2\n  pop\n  pop\n  jump\t// out\n    /* \"#utility.yul\":2501:3233   */\ntag_35:\n    /* \"#utility.yul\":2608:2613   */\n  0x00\n    /* \"#utility.yul\":2633:2714   */\n  tag_70\n    /* \"#utility.yul\":2649:2713   */\n  tag_71\n    /* \"#utility.yul\":2706:2712   */\n  dup5\n    /* \"#utility.yul\":2649:2713   */\n  tag_30\n  jump\t// in\ntag_71:\n    /* \"#utility.yul\":2633:2714   */\n  tag_29\n  jump\t// in\ntag_70:\n    /* \"#utility.yul\":2624:2714   */\n  swap1\n  pop\n    /* \"#utility.yul\":2734:2739   */\n  dup1\n    /* \"#utility.yul\":2763:2769   */\n  dup4\n    /* \"#utility.yul\":2756:2761   */\n  dup3\n    /* \"#utility.yul\":2749:2770   */\n  mstore\n    /* \"#utility.yul\":2797:2801   */\n  0x20\n    /* \"#utility.yul\":2790:2795   */\n  dup3\n    /* \"#utility.yul\":2786:2802   */\n  add\n    /* \"#utility.yul\":2779:2802   */\n  swap1\n  pop\n    /* \"#utility.yul\":2850:2854   */\n  0x20\n    /* \"#utility.yul\":2842:2848   */\n  dup5\n    /* \"#utility.yul\":2838:2855   */\n  mul\n    /* \"#utility.yul\":2830:2836   */\n  dup4\n    /* \"#utility.yul\":2826:2856   */\n  add\n    /* \"#utility.yul\":2879:2882   */\n  dup6\n    /* \"#utility.yul\":2871:2877   */\n  dup2\n    /* \"#utility.yul\":2868:2883   */\n  gt\n    /* \"#utility.yul\":2865:2987   */\n  iszero\n  tag_72\n  jumpi\n    /* \"#utility.yul\":2898:2977   */\n  tag_73\n  tag_31\n  jump\t// in\ntag_73:\n    /* \"#utility.yul\":2865:2987   */\ntag_72:\n    /* \"#utility.yul\":3013:3019   */\n  dup4\n    /* \"#utility.yul\":2996:3227   */\ntag_74:\n    /* \"#utility.yul\":3030:3036   */\n  dup2\n    /* \"#utility.yul\":3025:3028   */\n  dup2\n    /* \"#utility.yul\":3022:3037   */\n  lt\n    /* \"#utility.yul\":2996:3227   */\n  iszero\n  tag_76\n  jumpi\n    /* \"#utility.yul\":3105:3108   */\n  dup1\n    /* \"#utility.yul\":3134:3182   */\n  tag_77\n    /* \"#utility.yul\":3178:3181   */\n  dup9\n    /* \"#utility.yul\":3166:3176   */\n  dup3\n    /* \"#utility.yul\":3134:3182   */\n  tag_34\n  jump\t// in\ntag_77:\n    /* \"#utility.yul\":3129:3132   */\n  dup5\n    /* \"#utility.yul\":3122:3183   */\n  mstore\n    /* \"#utility.yul\":3212:3216   */\n  0x20\n    /* \"#utility.yul\":3207:3210   */\n  dup5\n    /* \"#utility.yul\":3203:3217   */\n  add\n    /* \"#utility.yul\":3196:3217   */\n  swap4\n  pop\n    /* \"#utility.yul\":3072:3227   */\n  pop\n    /* \"#utility.yul\":3056:3060   */\n  0x20\n    /* \"#utility.yul\":3051:3054   */\n  dup2\n    /* \"#utility.yul\":3047:3061   */\n  add\n    /* \"#utility.yul\":3040:3061   */\n  swap1\n  pop\n    /* \"#utility.yul\":2996:3227   */\n  jump(tag_74)\ntag_76:\n    /* \"#utility.yul\":3000:3021   */\n  pop\n    /* \"#utility.yul\":2614:3233   */\n  pop\n  pop\n    /* \"#utility.yul\":2501:3233   */\n  swap4\n  swap3\n  pop\n  pop\n  pop\n  jump\t// out\n    /* \"#utility.yul\":3256:3641   */\ntag_36:\n    /* \"#utility.yul\":3338:3343   */\n  0x00\n    /* \"#utility.yul\":3387:3390   */\n  dup3\n    /* \"#utility.yul\":3380:3384   */\n  0x1f\n    /* \"#utility.yul\":3372:3378   */\n  dup4\n    /* \"#utility.yul\":3368:3385   */\n  add\n    /* \"#utility.yul\":3364:3391   */\n  slt\n    /* \"#utility.yul\":3354:3476   */\n  tag_79\n  jumpi\n    /* \"#utility.yul\":3395:3474   */\n  tag_80\n  tag_25\n  jump\t// in\ntag_80:\n    /* \"#utility.yul\":3354:3476   */\ntag_79:\n    /* \"#utility.yul\":3505:3511   */\n  dup2\n    /* \"#utility.yul\":3499:3512   */\n  mload\n    /* \"#utility.yul\":3530:3635   */\n  tag_81\n    /* \"#utility.yul\":3631:3634   */\n  dup5\n    /* \"#utility.yul\":3623:3629   */\n  dup3\n    /* \"#utility.yul\":3616:3620   */\n  0x20\n    /* \"#utility.yul\":3608:3614   */\n  dup7\n    /* \"#utility.yul\":3604:3621   */\n  add\n    /* \"#utility.yul\":3530:3635   */\n  tag_35\n  jump\t// in\ntag_81:\n    /* \"#utility.yul\":3521:3635   */\n  swap2\n  pop\n    /* \"#utility.yul\":3344:3641   */\n  pop\n    /* \"#utility.yul\":3256:3641   */\n  swap3\n  swap2\n  pop\n  pop\n  jump\t// out\n    /* \"#utility.yul\":3647:4357   */\ntag_3:\n    /* \"#utility.yul\":3751:3757   */\n  0x00\n    /* \"#utility.yul\":3759:3765   */\n  dup1\n    /* \"#utility.yul\":3808:3810   */\n  0x40\n    /* \"#utility.yul\":3796:3805   */\n  dup4\n    /* \"#utility.yul\":3787:3794   */\n  dup6\n    /* \"#utility.yul\":3783:3806   */\n  sub\n    /* \"#utility.yul\":3779:3811   */\n  slt\n    /* \"#utility.yul\":3776:3895   */\n  iszero\n  tag_83\n  jumpi\n    /* \"#utility.yul\":3814:3893   */\n  tag_84\n  tag_19\n  jump\t// in\ntag_84:\n    /* \"#utility.yul\":3776:3895   */\ntag_83:\n    /* \"#utility.yul\":3934:3935   */\n  0x00\n    /* \"#utility.yul\":3959:4023   */\n  tag_85\n    /* \"#utility.yul\":4015:4022   */\n  dup6\n    /* \"#utility.yul\":4006:4012   */\n  dup3\n    /* \"#utility.yul\":3995:4004   */\n  dup7\n    /* \"#utility.yul\":3991:4013   */\n  add\n    /* \"#utility.yul\":3959:4023   */\n  tag_24\n  jump\t// in\ntag_85:\n    /* \"#utility.yul\":3949:4023   */\n  swap3\n  pop\n    /* \"#utility.yul\":3905:4033   */\n  pop\n    /* \"#utility.yul\":4093:4095   */\n  0x20\n    /* \"#utility.yul\":4082:4091   */\n  dup4\n    /* \"#utility.yul\":4078:4096   */\n  add\n    /* \"#utility.yul\":4072:4097   */\n  mload\n    /* \"#utility.yul\":4124:4142   */\n  0xffffffffffffffff\n    /* \"#utility.yul\":4116:4122   */\n  dup2\n    /* \"#utility.yul\":4113:4143   */\n  gt\n    /* \"#utility.yul\":4110:4227   */\n  iszero\n  tag_86\n  jumpi\n    /* \"#utility.yul\":4146:4225   */\n  tag_87\n  tag_20\n  jump\t// in\ntag_87:\n    /* \"#utility.yul\":4110:4227   */\ntag_86:\n    /* \"#utility.yul\":4251:4340   */\n  tag_88\n    /* \"#utility.yul\":4332:4339   */\n  dup6\n    /* \"#utility.yul\":4323:4329   */\n  dup3\n    /* \"#utility.yul\":4312:4321   */\n  dup7\n    /* \"#utility.yul\":4308:4330   */\n  add\n    /* \"#utility.yul\":4251:4340   */\n  tag_36\n  jump\t// in\ntag_88:\n    /* \"#utility.yul\":4241:4340   */\n  swap2\n  pop\n    /* \"#utility.yul\":4043:4350   */\n  pop\n    /* \"#utility.yul\":3647:4357   */\n  swap3\n  pop\n  swap3\n  swap1\n  pop\n  jump\t// out\n    /* \"contracts/SocialDiamond.sol\":211:2876  contract SocialDiamond is Ownable {... */\ntag_10:\n  dataSize(sub_0)\n  dup1\n  dataOffset(sub_0)\n  0x00\n  codecopy\n  0x00\n  return\nstop\n\nsub_0: assembly {\n        /* \"contracts/SocialDiamond.sol\":211:2876  contract SocialDiamond is Ownable {... */\n      mstore(0x40, 0x80)\n      callvalue\n      dup1\n      iszero\n      tag_1\n      jumpi\n      0x00\n      dup1\n      revert\n    tag_1:\n      pop\n      jumpi(tag_2, lt(calldatasize, 0x04))\n      shr(0xe0, calldataload(0x00))\n      dup1\n      0xcac843aa\n      gt\n      tag_22\n      jumpi\n      dup1\n      0xf0863cce\n      gt\n      tag_23\n      jumpi\n      dup1\n      0xf0863cce\n      eq\n      tag_17\n      jumpi\n      dup1\n      0xf2fde38b\n      eq\n      tag_18\n      jumpi\n      dup1\n      0xf839f319\n      eq\n      tag_19\n      jumpi\n      dup1\n      0xf8c842e5\n      eq\n      tag_20\n      jumpi\n      dup1\n      0xfb690dcc\n      eq\n      tag_21\n      jumpi\n      jump(tag_2)\n    tag_23:\n      dup1\n      0xcac843aa\n      eq\n      tag_12\n      jumpi\n      dup1\n      0xd0d996c4\n      eq\n      tag_13\n      jumpi\n      dup1\n      0xd38ef5f1\n      eq\n      tag_14\n      jumpi\n      dup1\n      0xde0c4c7c\n      eq\n      tag_15\n      jumpi\n      dup1\n      0xde51d1fd\n      eq\n      tag_16\n      jumpi\n      jump(tag_2)\n    tag_22:\n      dup1\n      0x2a108e21\n      gt\n      tag_24\n      jumpi\n      dup1\n      0x2a108e21\n      eq\n      tag_7\n      jumpi\n      dup1\n      0x5d6c83b5\n      eq\n      tag_8\n      jumpi\n      dup1\n      0x715018a6\n      eq\n      tag_9\n      jumpi\n      dup1\n      0x82b670e4\n      eq\n      tag_10\n      jumpi\n      dup1\n      0x8da5cb5b\n      eq\n      tag_11\n      jumpi\n      jump(tag_2)\n    tag_24:\n      dup1\n      0x0660f1e8\n      eq\n      tag_3\n      jumpi\n      dup1\n      0x078b0fb7\n      eq\n      tag_4\n      jumpi\n      dup1\n      0x0b21d7a2\n      eq\n      tag_5\n      jumpi\n      dup1\n      0x1e83409a\n      eq\n      tag_6\n      jumpi\n    tag_2:\n      0x00\n      dup1\n      revert\n        /* \"contracts/SocialDiamond.sol\":617:662  mapping(address => Reward) public userRewards */\n    tag_3:\n      tag_25\n      0x04\n      dup1\n      calldatasize\n      sub\n      dup2\n      add\n      swap1\n      tag_26\n      swap2\n      swap1\n      tag_27\n      jump\t// in\n    tag_26:\n      tag_28\n      jump\t// in\n    tag_25:\n      mload(0x40)\n      tag_29\n      swap3\n      swap2\n      swap1\n      tag_30\n      jump\t// in\n    tag_29:\n      mload(0x40)\n      dup1\n      swap2\n      sub\n      swap1\n      return\n        /* \"contracts/SocialDiamond.sol\":1973:2111  function getUserRewards(address _user)... */\n    tag_4:\n      tag_31\n      0x04\n      dup1\n      calldatasize\n      sub\n      dup2\n      add\n      swap1\n      tag_32\n      swap2\n      swap1\n      tag_27\n      jump\t// in\n    tag_32:\n      tag_33\n      jump\t// in\n    tag_31:\n      mload(0x40)\n      tag_34\n      swap2\n      swap1\n      tag_35\n      jump\t// in\n    tag_34:\n      mload(0x40)\n      dup1\n      swap2\n      sub\n      swap1\n      return\n        /* \"contracts/SocialDiamond.sol\":518:575  mapping(string => mapping(address => bool)) public funded */\n    tag_5:\n      tag_36\n      0x04\n      dup1\n      calldatasize\n      sub\n      dup2\n      add\n      swap1\n      tag_37\n      swap2\n      swap1\n      tag_38\n      jump\t// in\n    tag_37:\n      tag_39\n      jump\t// in\n    tag_36:\n      mload(0x40)\n      tag_40\n      swap2\n      swap1\n      tag_41\n      jump\t// in\n    tag_40:\n      mload(0x40)\n      dup1\n      swap2\n      sub\n      swap1\n      return\n        /* \"contracts/SocialDiamond.sol\":1616:1791  function claim(address _recipient) public {... */\n    tag_6:\n      tag_42\n      0x04\n      dup1\n      calldatasize\n      sub\n      dup2\n      add\n      swap1\n      tag_43\n      swap2\n      swap1\n      tag_27\n      jump\t// in\n    tag_43:\n      tag_44\n      jump\t// in\n    tag_42:\n      stop\n        /* \"contracts/SocialDiamond.sol\":1032:1612  function fundTweet(... */\n    tag_7:\n      tag_45\n      0x04\n      dup1\n      calldatasize\n      sub\n      dup2\n      add\n      swap1\n      tag_46\n      swap2\n      swap1\n      tag_47\n      jump\t// in\n    tag_46:\n      tag_48\n      jump\t// in\n    tag_45:\n      stop\n        /* \"contracts/SocialDiamond.sol\":713:759  mapping(address => uint256) public currentTier */\n    tag_8:\n      tag_49\n      0x04\n      dup1\n      calldatasize\n      sub\n      dup2\n      add\n      swap1\n      tag_50\n      swap2\n      swap1\n      tag_27\n      jump\t// in\n    tag_50:\n      tag_51\n      jump\t// in\n    tag_49:\n      mload(0x40)\n      tag_52\n      swap2\n      swap1\n      tag_53\n      jump\t// in\n    tag_52:\n      mload(0x40)\n      dup1\n      swap2\n      sub\n      swap1\n      return\n        /* \"contracts/libraries/Ownable.sol\":488:623  function renounceOwnership() public virtual onlyOwner {... */\n    tag_9:\n      tag_54\n      tag_55\n      jump\t// in\n    tag_54:\n      stop\n        /* \"contracts/SocialDiamond.sol\":2784:2874  function setTiers(uint256[] memory _newTiers) public onlyOwner{... */\n    tag_10:\n      tag_56\n      0x04\n      dup1\n      calldatasize\n      sub\n      dup2\n      add\n      swap1\n      tag_57\n      swap2\n      swap1\n      tag_58\n      jump\t// in\n    tag_57:\n      tag_59\n      jump\t// in\n    tag_56:\n      stop\n        /* \"contracts/libraries/Ownable.sol\":305:376  function owner() public view returns (address) {... */\n    tag_11:\n      tag_60\n      tag_61\n      jump\t// in\n    tag_60:\n      mload(0x40)\n      tag_62\n      swap2\n      swap1\n      tag_63\n      jump\t// in\n    tag_62:\n      mload(0x40)\n      dup1\n      swap2\n      sub\n      swap1\n      return\n        /* \"contracts/SocialDiamond.sol\":1795:1875  function replaceAsset(address _asset) public onlyOwner {... */\n    tag_12:\n      tag_64\n      0x04\n      dup1\n      calldatasize\n      sub\n      dup2\n      add\n      swap1\n      tag_65\n      swap2\n      swap1\n      tag_27\n      jump\t// in\n    tag_65:\n      tag_66\n      jump\t// in\n    tag_64:\n      stop\n        /* \"contracts/SocialDiamond.sol\":2236:2400  function getTweetFundedForUser(address _user, uint256 _index)... */\n    tag_13:\n      tag_67\n      0x04\n      dup1\n      calldatasize\n      sub\n      dup2\n      add\n      swap1\n      tag_68\n      swap2\n      swap1\n      tag_69\n      jump\t// in\n    tag_68:\n      tag_70\n      jump\t// in\n    tag_67:\n      mload(0x40)\n      tag_71\n      swap2\n      swap1\n      tag_72\n      jump\t// in\n    tag_71:\n      mload(0x40)\n      dup1\n      swap2\n      sub\n      swap1\n      return\n        /* \"contracts/SocialDiamond.sol\":2115:2232  function getTweetFunding(string memory _tweet) public view returns (uint256) {... */\n    tag_14:\n      tag_73\n      0x04\n      dup1\n      calldatasize\n      sub\n      dup2\n      add\n      swap1\n      tag_74\n      swap2\n      swap1\n      tag_75\n      jump\t// in\n    tag_74:\n      tag_76\n      jump\t// in\n    tag_73:\n      mload(0x40)\n      tag_77\n      swap2\n      swap1\n      tag_53\n      jump\t// in\n    tag_77:\n      mload(0x40)\n      dup1\n      swap2\n      sub\n      swap1\n      return\n        /* \"contracts/SocialDiamond.sol\":462:514  mapping(address => uint256) public countTweetsFunded */\n    tag_15:\n      tag_78\n      0x04\n      dup1\n      calldatasize\n      sub\n      dup2\n      add\n      swap1\n      tag_79\n      swap2\n      swap1\n      tag_27\n      jump\t// in\n    tag_79:\n      tag_80\n      jump\t// in\n    tag_78:\n      mload(0x40)\n      tag_81\n      swap2\n      swap1\n      tag_53\n      jump\t// in\n    tag_81:\n      mload(0x40)\n      dup1\n      swap2\n      sub\n      swap1\n      return\n        /* \"contracts/SocialDiamond.sol\":811:859  mapping(string => uint256) public rewardPerTweet */\n    tag_16:\n      tag_82\n      0x04\n      dup1\n      calldatasize\n      sub\n      dup2\n      add\n      swap1\n      tag_83\n      swap2\n      swap1\n      tag_75\n      jump\t// in\n    tag_83:\n      tag_84\n      jump\t// in\n    tag_82:\n      mload(0x40)\n      tag_85\n      swap2\n      swap1\n      tag_53\n      jump\t// in\n    tag_85:\n      mload(0x40)\n      dup1\n      swap2\n      sub\n      swap1\n      return\n        /* \"contracts/SocialDiamond.sol\":403:458  mapping(address => string[]) public tweetsFundedForUser */\n    tag_17:\n      tag_86\n      0x04\n      dup1\n      calldatasize\n      sub\n      dup2\n      add\n      swap1\n      tag_87\n      swap2\n      swap1\n      tag_69\n      jump\t// in\n    tag_87:\n      tag_88\n      jump\t// in\n    tag_86:\n      mload(0x40)\n      tag_89\n      swap2\n      swap1\n      tag_72\n      jump\t// in\n    tag_89:\n      mload(0x40)\n      dup1\n      swap2\n      sub\n      swap1\n      return\n        /* \"contracts/libraries/Ownable.sol\":627:857  function transferOwnership(address newOwner_) public virtual onlyOwner {... */\n    tag_18:\n      tag_90\n      0x04\n      dup1\n      calldatasize\n      sub\n      dup2\n      add\n      swap1\n      tag_91\n      swap2\n      swap1\n      tag_27\n      jump\t// in\n    tag_91:\n      tag_92\n      jump\t// in\n    tag_90:\n      stop\n        /* \"contracts/SocialDiamond.sol\":864:901  uint256 public totalTransactionVolume */\n    tag_19:\n      tag_93\n      tag_94\n      jump\t// in\n    tag_93:\n      mload(0x40)\n      tag_95\n      swap2\n      swap1\n      tag_53\n      jump\t// in\n    tag_95:\n      mload(0x40)\n      dup1\n      swap2\n      sub\n      swap1\n      return\n        /* \"contracts/SocialDiamond.sol\":1879:1969  function replaceReward(address _newReward) public onlyOwner {... */\n    tag_20:\n      tag_96\n      0x04\n      dup1\n      calldatasize\n      sub\n      dup2\n      add\n      swap1\n      tag_97\n      swap2\n      swap1\n      tag_27\n      jump\t// in\n    tag_97:\n      tag_98\n      jump\t// in\n    tag_96:\n      stop\n        /* \"contracts/SocialDiamond.sol\":667:709  mapping(address => uint256) public donated */\n    tag_21:\n      tag_99\n      0x04\n      dup1\n      calldatasize\n      sub\n      dup2\n      add\n      swap1\n      tag_100\n      swap2\n      swap1\n      tag_27\n      jump\t// in\n    tag_100:\n      tag_101\n      jump\t// in\n    tag_99:\n      mload(0x40)\n      tag_102\n      swap2\n      swap1\n      tag_53\n      jump\t// in\n    tag_102:\n      mload(0x40)\n      dup1\n      swap2\n      sub\n      swap1\n      return\n        /* \"contracts/SocialDiamond.sol\":617:662  mapping(address => Reward) public userRewards */\n    tag_28:\n      mstore(0x20, 0x06)\n      dup1\n      0x00\n      mstore\n      keccak256(0x00, 0x40)\n      0x00\n      swap2\n      pop\n      swap1\n      pop\n      dup1\n      0x00\n      add\n      sload\n      swap1\n      dup1\n      0x01\n      add\n      sload\n      swap1\n      pop\n      dup3\n      jump\t// out\n        /* \"contracts/SocialDiamond.sol\":1973:2111  function getUserRewards(address _user)... */\n    tag_33:\n        /* \"contracts/SocialDiamond.sol\":2045:2067  Reward memory _rewards */\n      tag_103\n      tag_104\n      jump\t// in\n    tag_103:\n        /* \"contracts/SocialDiamond.sol\":2088:2099  userRewards */\n      0x06\n        /* \"contracts/SocialDiamond.sol\":2088:2106  userRewards[_user] */\n      0x00\n        /* \"contracts/SocialDiamond.sol\":2100:2105  _user */\n      dup4\n        /* \"contracts/SocialDiamond.sol\":2088:2106  userRewards[_user] */\n      0xffffffffffffffffffffffffffffffffffffffff\n      and\n      0xffffffffffffffffffffffffffffffffffffffff\n      and\n      dup2\n      mstore\n      0x20\n      add\n      swap1\n      dup2\n      mstore\n      0x20\n      add\n      0x00\n      keccak256\n        /* \"contracts/SocialDiamond.sol\":2077:2106  _rewards = userRewards[_user] */\n      mload(0x40)\n      dup1\n      0x40\n      add\n      0x40\n      mstore\n      swap1\n      dup2\n      0x00\n      dup3\n      add\n      sload\n      dup2\n      mstore\n      0x20\n      add\n      0x01\n      dup3\n      add\n      sload\n      dup2\n      mstore\n      pop\n      pop\n      swap1\n      pop\n        /* \"contracts/SocialDiamond.sol\":1973:2111  function getUserRewards(address _user)... */\n      swap2\n      swap1\n      pop\n      jump\t// out\n        /* \"contracts/SocialDiamond.sol\":518:575  mapping(string => mapping(address => bool)) public funded */\n    tag_39:\n      0x05\n      dup3\n      dup1\n      mload\n      0x20\n      dup2\n      add\n      dup3\n      add\n      dup1\n      mload\n      dup5\n      dup3\n      mstore\n      0x20\n      dup4\n      add\n      0x20\n      dup6\n      add\n      keccak256\n      dup2\n      dup4\n      mstore\n      dup1\n      swap6\n      pop\n      pop\n      pop\n      pop\n      pop\n      pop\n      0x20\n      mstore\n      dup1\n      0x00\n      mstore\n      keccak256(0x00, 0x40)\n      0x00\n      swap2\n      pop\n      swap2\n      pop\n      swap1\n      sload\n      swap1\n      0x0100\n      exp\n      swap1\n      div\n      0xff\n      and\n      dup2\n      jump\t// out\n        /* \"contracts/SocialDiamond.sol\":1616:1791  function claim(address _recipient) public {... */\n    tag_44:\n        /* \"contracts/SocialDiamond.sol\":1702:1703  0 */\n      0x00\n        /* \"contracts/SocialDiamond.sol\":1668:1679  userRewards */\n      0x06\n        /* \"contracts/SocialDiamond.sol\":1668:1691  userRewards[msg.sender] */\n      0x00\n        /* \"contracts/SocialDiamond.sol\":1680:1690  msg.sender */\n      caller\n        /* \"contracts/SocialDiamond.sol\":1668:1691  userRewards[msg.sender] */\n      0xffffffffffffffffffffffffffffffffffffffff\n      and\n      0xffffffffffffffffffffffffffffffffffffffff\n      and\n      dup2\n      mstore\n      0x20\n      add\n      swap1\n      dup2\n      mstore\n      0x20\n      add\n      0x00\n      keccak256\n        /* \"contracts/SocialDiamond.sol\":1668:1699  userRewards[msg.sender].pending */\n      0x01\n      add\n      sload\n        /* \"contracts/SocialDiamond.sol\":1668:1703  userRewards[msg.sender].pending > 0 */\n      gt\n        /* \"contracts/SocialDiamond.sol\":1664:1787  if (userRewards[msg.sender].pending > 0) {... */\n      iszero\n      tag_107\n      jumpi\n        /* \"contracts/SocialDiamond.sol\":1720:1725  asset */\n      0x02\n      0x00\n      swap1\n      sload\n      swap1\n      0x0100\n      exp\n      swap1\n      div\n      0xffffffffffffffffffffffffffffffffffffffff\n      and\n        /* \"contracts/SocialDiamond.sol\":1713:1735  IERC20(asset).transfer */\n      0xffffffffffffffffffffffffffffffffffffffff\n      and\n      0xa9059cbb\n        /* \"contracts/SocialDiamond.sol\":1736:1746  _recipient */\n      dup3\n        /* \"contracts/SocialDiamond.sol\":1748:1759  userRewards */\n      0x06\n        /* \"contracts/SocialDiamond.sol\":1748:1771  userRewards[msg.sender] */\n      0x00\n        /* \"contracts/SocialDiamond.sol\":1760:1770  msg.sender */\n      caller\n        /* \"contracts/SocialDiamond.sol\":1748:1771  userRewards[msg.sender] */\n      0xffffffffffffffffffffffffffffffffffffffff\n      and\n      0xffffffffffffffffffffffffffffffffffffffff\n      and\n      dup2\n      mstore\n      0x20\n      add\n      swap1\n      dup2\n      mstore\n      0x20\n      add\n      0x00\n      keccak256\n        /* \"contracts/SocialDiamond.sol\":1748:1779  userRewards[msg.sender].pending */\n      0x01\n      add\n      sload\n        /* \"contracts/SocialDiamond.sol\":1713:1780  IERC20(asset).transfer(_recipient, userRewards[msg.sender].pending) */\n      mload(0x40)\n      dup4\n      0xffffffff\n      and\n      0xe0\n      shl\n      dup2\n      mstore\n      0x04\n      add\n      tag_108\n      swap3\n      swap2\n      swap1\n      tag_109\n      jump\t// in\n    tag_108:\n      0x20\n      mload(0x40)\n      dup1\n      dup4\n      sub\n      dup2\n      0x00\n      dup8\n      gas\n      call\n      iszero\n      dup1\n      iszero\n      tag_111\n      jumpi\n      returndatasize\n      0x00\n      dup1\n      returndatacopy\n      revert(0x00, returndatasize)\n    tag_111:\n      pop\n      pop\n      pop\n      pop\n      mload(0x40)\n      returndatasize\n      not(0x1f)\n      0x1f\n      dup3\n      add\n      and\n      dup3\n      add\n      dup1\n      0x40\n      mstore\n      pop\n      dup2\n      add\n      swap1\n      tag_112\n      swap2\n      swap1\n      tag_113\n      jump\t// in\n    tag_112:\n      pop\n        /* \"contracts/SocialDiamond.sol\":1664:1787  if (userRewards[msg.sender].pending > 0) {... */\n    tag_107:\n        /* \"contracts/SocialDiamond.sol\":1616:1791  function claim(address _recipient) public {... */\n      pop\n      jump\t// out\n        /* \"contracts/SocialDiamond.sol\":1032:1612  function fundTweet(... */\n    tag_48:\n        /* \"contracts/SocialDiamond.sol\":1145:1150  asset */\n      0x02\n      0x00\n      swap1\n      sload\n      swap1\n      0x0100\n      exp\n      swap1\n      div\n      0xffffffffffffffffffffffffffffffffffffffff\n      and\n        /* \"contracts/SocialDiamond.sol\":1138:1164  IERC20(asset).transferFrom */\n      0xffffffffffffffffffffffffffffffffffffffff\n      and\n      0x23b872dd\n        /* \"contracts/SocialDiamond.sol\":1165:1175  msg.sender */\n      caller\n        /* \"contracts/SocialDiamond.sol\":1185:1189  this */\n      address\n        /* \"contracts/SocialDiamond.sol\":1192:1199  _amount */\n      dup7\n        /* \"contracts/SocialDiamond.sol\":1138:1200  IERC20(asset).transferFrom(msg.sender, address(this), _amount) */\n      mload(0x40)\n      dup5\n      0xffffffff\n      and\n      0xe0\n      shl\n      dup2\n      mstore\n      0x04\n      add\n      tag_115\n      swap4\n      swap3\n      swap2\n      swap1\n      tag_116\n      jump\t// in\n    tag_115:\n      0x20\n      mload(0x40)\n      dup1\n      dup4\n      sub\n      dup2\n      0x00\n      dup8\n      gas\n      call\n      iszero\n      dup1\n      iszero\n      tag_118\n      jumpi\n      returndatasize\n      0x00\n      dup1\n      returndatacopy\n      revert(0x00, returndatasize)\n    tag_118:\n      pop\n      pop\n      pop\n      pop\n      mload(0x40)\n      returndatasize\n      not(0x1f)\n      0x1f\n      dup3\n      add\n      and\n      dup3\n      add\n      dup1\n      0x40\n      mstore\n      pop\n      dup2\n      add\n      swap1\n      tag_119\n      swap2\n      swap1\n      tag_113\n      jump\t// in\n    tag_119:\n      pop\n        /* \"contracts/SocialDiamond.sol\":1231:1238  _amount */\n      dup3\n        /* \"contracts/SocialDiamond.sol\":1206:1220  rewardPerTweet */\n      0x0a\n        /* \"contracts/SocialDiamond.sol\":1221:1226  _link */\n      dup4\n        /* \"contracts/SocialDiamond.sol\":1206:1227  rewardPerTweet[_link] */\n      mload(0x40)\n      tag_120\n      swap2\n      swap1\n      tag_121\n      jump\t// in\n    tag_120:\n      swap1\n      dup2\n      mstore\n      0x20\n      add\n      mload(0x40)\n      dup1\n      swap2\n      sub\n      swap1\n      keccak256\n      0x00\n        /* \"contracts/SocialDiamond.sol\":1206:1238  rewardPerTweet[_link] += _amount */\n      dup3\n      dup3\n      sload\n      tag_122\n      swap2\n      swap1\n      tag_123\n      jump\t// in\n    tag_122:\n      swap3\n      pop\n      pop\n      dup2\n      swap1\n      sstore\n      pop\n        /* \"contracts/SocialDiamond.sol\":1270:1277  _amount */\n      dup3\n        /* \"contracts/SocialDiamond.sol\":1244:1266  totalTransactionVolume */\n      0x0b\n      0x00\n        /* \"contracts/SocialDiamond.sol\":1244:1277  totalTransactionVolume += _amount */\n      dup3\n      dup3\n      sload\n      tag_124\n      swap2\n      swap1\n      tag_123\n      jump\t// in\n    tag_124:\n      swap3\n      pop\n      pop\n      dup2\n      swap1\n      sstore\n      pop\n        /* \"contracts/SocialDiamond.sol\":1318:1325  _amount */\n      dup3\n        /* \"contracts/SocialDiamond.sol\":1283:1294  userRewards */\n      0x06\n        /* \"contracts/SocialDiamond.sol\":1283:1306  userRewards[_recipient] */\n      0x00\n        /* \"contracts/SocialDiamond.sol\":1295:1305  _recipient */\n      dup4\n        /* \"contracts/SocialDiamond.sol\":1283:1306  userRewards[_recipient] */\n      0xffffffffffffffffffffffffffffffffffffffff\n      and\n      0xffffffffffffffffffffffffffffffffffffffff\n      and\n      dup2\n      mstore\n      0x20\n      add\n      swap1\n      dup2\n      mstore\n      0x20\n      add\n      0x00\n      keccak256\n        /* \"contracts/SocialDiamond.sol\":1283:1314  userRewards[_recipient].pending */\n      0x01\n      add\n      0x00\n        /* \"contracts/SocialDiamond.sol\":1283:1325  userRewards[_recipient].pending += _amount */\n      dup3\n      dup3\n      sload\n      tag_125\n      swap2\n      swap1\n      tag_123\n      jump\t// in\n    tag_125:\n      swap3\n      pop\n      pop\n      dup2\n      swap1\n      sstore\n      pop\n        /* \"contracts/SocialDiamond.sol\":1335:1358  getEligibility(_amount) */\n      tag_126\n        /* \"contracts/SocialDiamond.sol\":1350:1357  _amount */\n      dup4\n        /* \"contracts/SocialDiamond.sol\":1335:1349  getEligibility */\n      tag_127\n        /* \"contracts/SocialDiamond.sol\":1335:1358  getEligibility(_amount) */\n      jump\t// in\n    tag_126:\n        /* \"contracts/SocialDiamond.sol\":1331:1410  if (getEligibility(_amount)) {... */\n      iszero\n      tag_128\n      jumpi\n        /* \"contracts/SocialDiamond.sol\":1379:1385  reward */\n      0x01\n      0x00\n      swap1\n      sload\n      swap1\n      0x0100\n      exp\n      swap1\n      div\n      0xffffffffffffffffffffffffffffffffffffffff\n      and\n        /* \"contracts/SocialDiamond.sol\":1368:1391  ISocialNFT(reward).mint */\n      0xffffffffffffffffffffffffffffffffffffffff\n      and\n      0x6a627842\n        /* \"contracts/SocialDiamond.sol\":1392:1402  msg.sender */\n      caller\n        /* \"contracts/SocialDiamond.sol\":1368:1403  ISocialNFT(reward).mint(msg.sender) */\n      mload(0x40)\n      dup3\n      0xffffffff\n      and\n      0xe0\n      shl\n      dup2\n      mstore\n      0x04\n      add\n      tag_129\n      swap2\n      swap1\n      tag_63\n      jump\t// in\n    tag_129:\n      0x00\n      mload(0x40)\n      dup1\n      dup4\n      sub\n      dup2\n      0x00\n      dup8\n      dup1\n      extcodesize\n      iszero\n      dup1\n      iszero\n      tag_130\n      jumpi\n      0x00\n      dup1\n      revert\n    tag_130:\n      pop\n      gas\n      call\n      iszero\n      dup1\n      iszero\n      tag_132\n      jumpi\n      returndatasize\n      0x00\n      dup1\n      returndatacopy\n      revert(0x00, returndatasize)\n    tag_132:\n      pop\n      pop\n      pop\n      pop\n        /* \"contracts/SocialDiamond.sol\":1331:1410  if (getEligibility(_amount)) {... */\n    tag_128:\n        /* \"contracts/SocialDiamond.sol\":1420:1426  funded */\n      0x05\n        /* \"contracts/SocialDiamond.sol\":1427:1432  _link */\n      dup3\n        /* \"contracts/SocialDiamond.sol\":1420:1433  funded[_link] */\n      mload(0x40)\n      tag_133\n      swap2\n      swap1\n      tag_121\n      jump\t// in\n    tag_133:\n      swap1\n      dup2\n      mstore\n      0x20\n      add\n      mload(0x40)\n      dup1\n      swap2\n      sub\n      swap1\n      keccak256\n        /* \"contracts/SocialDiamond.sol\":1420:1445  funded[_link][msg.sender] */\n      0x00\n        /* \"contracts/SocialDiamond.sol\":1434:1444  msg.sender */\n      caller\n        /* \"contracts/SocialDiamond.sol\":1420:1445  funded[_link][msg.sender] */\n      0xffffffffffffffffffffffffffffffffffffffff\n      and\n      0xffffffffffffffffffffffffffffffffffffffff\n      and\n      dup2\n      mstore\n      0x20\n      add\n      swap1\n      dup2\n      mstore\n      0x20\n      add\n      0x00\n      keccak256\n      0x00\n      swap1\n      sload\n      swap1\n      0x0100\n      exp\n      swap1\n      div\n      0xff\n      and\n        /* \"contracts/SocialDiamond.sol\":1415:1608  if (!funded[_link][msg.sender]) {... */\n      tag_134\n      jumpi\n        /* \"contracts/SocialDiamond.sol\":1498:1499  1 */\n      0x01\n        /* \"contracts/SocialDiamond.sol\":1465:1482  countTweetsFunded */\n      0x04\n        /* \"contracts/SocialDiamond.sol\":1465:1494  countTweetsFunded[msg.sender] */\n      0x00\n        /* \"contracts/SocialDiamond.sol\":1483:1493  msg.sender */\n      caller\n        /* \"contracts/SocialDiamond.sol\":1465:1494  countTweetsFunded[msg.sender] */\n      0xffffffffffffffffffffffffffffffffffffffff\n      and\n      0xffffffffffffffffffffffffffffffffffffffff\n      and\n      dup2\n      mstore\n      0x20\n      add\n      swap1\n      dup2\n      mstore\n      0x20\n      add\n      0x00\n      keccak256\n      0x00\n        /* \"contracts/SocialDiamond.sol\":1465:1499  countTweetsFunded[msg.sender] += 1 */\n      dup3\n      dup3\n      sload\n      tag_135\n      swap2\n      swap1\n      tag_123\n      jump\t// in\n    tag_135:\n      swap3\n      pop\n      pop\n      dup2\n      swap1\n      sstore\n      pop\n        /* \"contracts/SocialDiamond.sol\":1509:1528  tweetsFundedForUser */\n      0x03\n        /* \"contracts/SocialDiamond.sol\":1509:1540  tweetsFundedForUser[msg.sender] */\n      0x00\n        /* \"contracts/SocialDiamond.sol\":1529:1539  msg.sender */\n      caller\n        /* \"contracts/SocialDiamond.sol\":1509:1540  tweetsFundedForUser[msg.sender] */\n      0xffffffffffffffffffffffffffffffffffffffff\n      and\n      0xffffffffffffffffffffffffffffffffffffffff\n      and\n      dup2\n      mstore\n      0x20\n      add\n      swap1\n      dup2\n      mstore\n      0x20\n      add\n      0x00\n      keccak256\n        /* \"contracts/SocialDiamond.sol\":1546:1551  _link */\n      dup3\n        /* \"contracts/SocialDiamond.sol\":1509:1552  tweetsFundedForUser[msg.sender].push(_link) */\n      swap1\n      dup1\n      0x01\n      dup2\n      sload\n      add\n      dup1\n      dup3\n      sstore\n      dup1\n      swap2\n      pop\n      pop\n      0x01\n      swap1\n      sub\n      swap1\n      0x00\n      mstore\n      keccak256(0x00, 0x20)\n      add\n      0x00\n      swap1\n      swap2\n      swap1\n      swap2\n      swap1\n      swap2\n      pop\n      swap1\n      dup1\n      mload\n      swap1\n      0x20\n      add\n      swap1\n      tag_137\n      swap3\n      swap2\n      swap1\n      tag_138\n      jump\t// in\n    tag_137:\n      pop\n        /* \"contracts/SocialDiamond.sol\":1597:1601  true */\n      0x01\n        /* \"contracts/SocialDiamond.sol\":1569:1575  funded */\n      0x05\n        /* \"contracts/SocialDiamond.sol\":1576:1581  _link */\n      dup4\n        /* \"contracts/SocialDiamond.sol\":1569:1582  funded[_link] */\n      mload(0x40)\n      tag_139\n      swap2\n      swap1\n      tag_121\n      jump\t// in\n    tag_139:\n      swap1\n      dup2\n      mstore\n      0x20\n      add\n      mload(0x40)\n      dup1\n      swap2\n      sub\n      swap1\n      keccak256\n        /* \"contracts/SocialDiamond.sol\":1569:1594  funded[_link][msg.sender] */\n      0x00\n        /* \"contracts/SocialDiamond.sol\":1583:1593  msg.sender */\n      caller\n        /* \"contracts/SocialDiamond.sol\":1569:1594  funded[_link][msg.sender] */\n      0xffffffffffffffffffffffffffffffffffffffff\n      and\n      0xffffffffffffffffffffffffffffffffffffffff\n      and\n      dup2\n      mstore\n      0x20\n      add\n      swap1\n      dup2\n      mstore\n      0x20\n      add\n      0x00\n      keccak256\n      0x00\n        /* \"contracts/SocialDiamond.sol\":1569:1601  funded[_link][msg.sender] = true */\n      0x0100\n      exp\n      dup2\n      sload\n      dup2\n      0xff\n      mul\n      not\n      and\n      swap1\n      dup4\n      iszero\n      iszero\n      mul\n      or\n      swap1\n      sstore\n      pop\n        /* \"contracts/SocialDiamond.sol\":1415:1608  if (!funded[_link][msg.sender]) {... */\n    tag_134:\n        /* \"contracts/SocialDiamond.sol\":1032:1612  function fundTweet(... */\n      pop\n      pop\n      pop\n      jump\t// out\n        /* \"contracts/SocialDiamond.sol\":713:759  mapping(address => uint256) public currentTier */\n    tag_51:\n      mstore(0x20, 0x08)\n      dup1\n      0x00\n      mstore\n      keccak256(0x00, 0x40)\n      0x00\n      swap2\n      pop\n      swap1\n      pop\n      sload\n      dup2\n      jump\t// out\n        /* \"contracts/libraries/Ownable.sol\":488:623  function renounceOwnership() public virtual onlyOwner {... */\n    tag_55:\n        /* \"contracts/libraries/Ownable.sol\":425:435  msg.sender */\n      caller\n        /* \"contracts/libraries/Ownable.sol\":415:435  _owner == msg.sender */\n      0xffffffffffffffffffffffffffffffffffffffff\n      and\n        /* \"contracts/libraries/Ownable.sol\":415:421  _owner */\n      0x00\n      dup1\n      sload\n      swap1\n      0x0100\n      exp\n      swap1\n      div\n      0xffffffffffffffffffffffffffffffffffffffff\n      and\n        /* \"contracts/libraries/Ownable.sol\":415:435  _owner == msg.sender */\n      0xffffffffffffffffffffffffffffffffffffffff\n      and\n      eq\n        /* \"contracts/libraries/Ownable.sol\":407:472  require(_owner == msg.sender, \"Ownable: caller is not the owner\") */\n      tag_141\n      jumpi\n      mload(0x40)\n      0x08c379a000000000000000000000000000000000000000000000000000000000\n      dup2\n      mstore\n      0x04\n      add\n      tag_142\n      swap1\n      tag_143\n      jump\t// in\n    tag_142:\n      mload(0x40)\n      dup1\n      swap2\n      sub\n      swap1\n      revert\n    tag_141:\n        /* \"contracts/libraries/Ownable.sol\":590:591  0 */\n      0x00\n        /* \"contracts/libraries/Ownable.sol\":553:593  OwnershipTransferred(_owner, address(0)) */\n      0xffffffffffffffffffffffffffffffffffffffff\n      and\n        /* \"contracts/libraries/Ownable.sol\":574:580  _owner */\n      0x00\n      dup1\n      sload\n      swap1\n      0x0100\n      exp\n      swap1\n      div\n      0xffffffffffffffffffffffffffffffffffffffff\n      and\n        /* \"contracts/libraries/Ownable.sol\":553:593  OwnershipTransferred(_owner, address(0)) */\n      0xffffffffffffffffffffffffffffffffffffffff\n      and\n      0x8be0079c531659141344cd1fd0a4f28419497f9722a3daafe3b4186f6b6457e0\n      mload(0x40)\n      mload(0x40)\n      dup1\n      swap2\n      sub\n      swap1\n      log3\n        /* \"contracts/libraries/Ownable.sol\":616:617  0 */\n      0x00\n        /* \"contracts/libraries/Ownable.sol\":599:605  _owner */\n      dup1\n      0x00\n        /* \"contracts/libraries/Ownable.sol\":599:618  _owner = address(0) */\n      0x0100\n      exp\n      dup2\n      sload\n      dup2\n      0xffffffffffffffffffffffffffffffffffffffff\n      mul\n      not\n      and\n      swap1\n      dup4\n      0xffffffffffffffffffffffffffffffffffffffff\n      and\n      mul\n      or\n      swap1\n      sstore\n      pop\n        /* \"contracts/libraries/Ownable.sol\":488:623  function renounceOwnership() public virtual onlyOwner {... */\n      jump\t// out\n        /* \"contracts/SocialDiamond.sol\":2784:2874  function setTiers(uint256[] memory _newTiers) public onlyOwner{... */\n    tag_59:\n        /* \"contracts/libraries/Ownable.sol\":425:435  msg.sender */\n      caller\n        /* \"contracts/libraries/Ownable.sol\":415:435  _owner == msg.sender */\n      0xffffffffffffffffffffffffffffffffffffffff\n      and\n        /* \"contracts/libraries/Ownable.sol\":415:421  _owner */\n      0x00\n      dup1\n      sload\n      swap1\n      0x0100\n      exp\n      swap1\n      div\n      0xffffffffffffffffffffffffffffffffffffffff\n      and\n        /* \"contracts/libraries/Ownable.sol\":415:435  _owner == msg.sender */\n      0xffffffffffffffffffffffffffffffffffffffff\n      and\n      eq\n        /* \"contracts/libraries/Ownable.sol\":407:472  require(_owner == msg.sender, \"Ownable: caller is not the owner\") */\n      tag_146\n      jumpi\n      mload(0x40)\n      0x08c379a000000000000000000000000000000000000000000000000000000000\n      dup2\n      mstore\n      0x04\n      add\n      tag_147\n      swap1\n      tag_143\n      jump\t// in\n    tag_147:\n      mload(0x40)\n      dup1\n      swap2\n      sub\n      swap1\n      revert\n    tag_146:\n        /* \"contracts/SocialDiamond.sol\":2860:2869  _newTiers */\n      dup1\n        /* \"contracts/SocialDiamond.sol\":2852:2857  tiers */\n      0x09\n        /* \"contracts/SocialDiamond.sol\":2852:2869  tiers = _newTiers */\n      swap1\n      dup1\n      mload\n      swap1\n      0x20\n      add\n      swap1\n      tag_149\n      swap3\n      swap2\n      swap1\n      tag_150\n      jump\t// in\n    tag_149:\n      pop\n        /* \"contracts/SocialDiamond.sol\":2784:2874  function setTiers(uint256[] memory _newTiers) public onlyOwner{... */\n      pop\n      jump\t// out\n        /* \"contracts/libraries/Ownable.sol\":305:376  function owner() public view returns (address) {... */\n    tag_61:\n        /* \"contracts/libraries/Ownable.sol\":343:350  address */\n      0x00\n        /* \"contracts/libraries/Ownable.sol\":365:371  _owner */\n      dup1\n      0x00\n      swap1\n      sload\n      swap1\n      0x0100\n      exp\n      swap1\n      div\n      0xffffffffffffffffffffffffffffffffffffffff\n      and\n        /* \"contracts/libraries/Ownable.sol\":358:371  return _owner */\n      swap1\n      pop\n        /* \"contracts/libraries/Ownable.sol\":305:376  function owner() public view returns (address) {... */\n      swap1\n      jump\t// out\n        /* \"contracts/SocialDiamond.sol\":1795:1875  function replaceAsset(address _asset) public onlyOwner {... */\n    tag_66:\n        /* \"contracts/libraries/Ownable.sol\":425:435  msg.sender */\n      caller\n        /* \"contracts/libraries/Ownable.sol\":415:435  _owner == msg.sender */\n      0xffffffffffffffffffffffffffffffffffffffff\n      and\n        /* \"contracts/libraries/Ownable.sol\":415:421  _owner */\n      0x00\n      dup1\n      sload\n      swap1\n      0x0100\n      exp\n      swap1\n      div\n      0xffffffffffffffffffffffffffffffffffffffff\n      and\n        /* \"contracts/libraries/Ownable.sol\":415:435  _owner == msg.sender */\n      0xffffffffffffffffffffffffffffffffffffffff\n      and\n      eq\n        /* \"contracts/libraries/Ownable.sol\":407:472  require(_owner == msg.sender, \"Ownable: caller is not the owner\") */\n      tag_153\n      jumpi\n      mload(0x40)\n      0x08c379a000000000000000000000000000000000000000000000000000000000\n      dup2\n      mstore\n      0x04\n      add\n      tag_154\n      swap1\n      tag_143\n      jump\t// in\n    tag_154:\n      mload(0x40)\n      dup1\n      swap2\n      sub\n      swap1\n      revert\n    tag_153:\n        /* \"contracts/SocialDiamond.sol\":1864:1870  _asset */\n      dup1\n        /* \"contracts/SocialDiamond.sol\":1856:1861  asset */\n      0x02\n      0x00\n        /* \"contracts/SocialDiamond.sol\":1856:1870  asset = _asset */\n      0x0100\n      exp\n      dup2\n      sload\n      dup2\n      0xffffffffffffffffffffffffffffffffffffffff\n      mul\n      not\n      and\n      swap1\n      dup4\n      0xffffffffffffffffffffffffffffffffffffffff\n      and\n      mul\n      or\n      swap1\n      sstore\n      pop\n        /* \"contracts/SocialDiamond.sol\":1795:1875  function replaceAsset(address _asset) public onlyOwner {... */\n      pop\n      jump\t// out\n        /* \"contracts/SocialDiamond.sol\":2236:2400  function getTweetFundedForUser(address _user, uint256 _index)... */\n    tag_70:\n        /* \"contracts/SocialDiamond.sol\":2331:2344  string memory */\n      0x60\n        /* \"contracts/SocialDiamond.sol\":2361:2380  tweetsFundedForUser */\n      0x03\n        /* \"contracts/SocialDiamond.sol\":2361:2387  tweetsFundedForUser[_user] */\n      0x00\n        /* \"contracts/SocialDiamond.sol\":2381:2386  _user */\n      dup5\n        /* \"contracts/SocialDiamond.sol\":2361:2387  tweetsFundedForUser[_user] */\n      0xffffffffffffffffffffffffffffffffffffffff\n      and\n      0xffffffffffffffffffffffffffffffffffffffff\n      and\n      dup2\n      mstore\n      0x20\n      add\n      swap1\n      dup2\n      mstore\n      0x20\n      add\n      0x00\n      keccak256\n        /* \"contracts/SocialDiamond.sol\":2388:2394  _index */\n      dup3\n        /* \"contracts/SocialDiamond.sol\":2361:2395  tweetsFundedForUser[_user][_index] */\n      dup2\n      sload\n      dup2\n      lt\n      tag_157\n      jumpi\n      tag_158\n      tag_159\n      jump\t// in\n    tag_158:\n    tag_157:\n      swap1\n      0x00\n      mstore\n      keccak256(0x00, 0x20)\n      add\n        /* \"contracts/SocialDiamond.sol\":2354:2395  return tweetsFundedForUser[_user][_index] */\n      dup1\n      sload\n      tag_161\n      swap1\n      tag_162\n      jump\t// in\n    tag_161:\n      dup1\n      0x1f\n      add\n      0x20\n      dup1\n      swap2\n      div\n      mul\n      0x20\n      add\n      mload(0x40)\n      swap1\n      dup2\n      add\n      0x40\n      mstore\n      dup1\n      swap3\n      swap2\n      swap1\n      dup2\n      dup2\n      mstore\n      0x20\n      add\n      dup3\n      dup1\n      sload\n      tag_163\n      swap1\n      tag_162\n      jump\t// in\n    tag_163:\n      dup1\n      iszero\n      tag_164\n      jumpi\n      dup1\n      0x1f\n      lt\n      tag_165\n      jumpi\n      0x0100\n      dup1\n      dup4\n      sload\n      div\n      mul\n      dup4\n      mstore\n      swap2\n      0x20\n      add\n      swap2\n      jump(tag_164)\n    tag_165:\n      dup3\n      add\n      swap2\n      swap1\n      0x00\n      mstore\n      keccak256(0x00, 0x20)\n      swap1\n    tag_166:\n      dup2\n      sload\n      dup2\n      mstore\n      swap1\n      0x01\n      add\n      swap1\n      0x20\n      add\n      dup1\n      dup4\n      gt\n      tag_166\n      jumpi\n      dup3\n      swap1\n      sub\n      0x1f\n      and\n      dup3\n      add\n      swap2\n    tag_164:\n      pop\n      pop\n      pop\n      pop\n      pop\n      swap1\n      pop\n        /* \"contracts/SocialDiamond.sol\":2236:2400  function getTweetFundedForUser(address _user, uint256 _index)... */\n      swap3\n      swap2\n      pop\n      pop\n      jump\t// out\n        /* \"contracts/SocialDiamond.sol\":2115:2232  function getTweetFunding(string memory _tweet) public view returns (uint256) {... */\n    tag_76:\n        /* \"contracts/SocialDiamond.sol\":2183:2190  uint256 */\n      0x00\n        /* \"contracts/SocialDiamond.sol\":2205:2219  rewardPerTweet */\n      0x0a\n        /* \"contracts/SocialDiamond.sol\":2220:2226  _tweet */\n      dup3\n        /* \"contracts/SocialDiamond.sol\":2205:2227  rewardPerTweet[_tweet] */\n      mload(0x40)\n      tag_168\n      swap2\n      swap1\n      tag_121\n      jump\t// in\n    tag_168:\n      swap1\n      dup2\n      mstore\n      0x20\n      add\n      mload(0x40)\n      dup1\n      swap2\n      sub\n      swap1\n      keccak256\n      sload\n        /* \"contracts/SocialDiamond.sol\":2198:2227  return rewardPerTweet[_tweet] */\n      swap1\n      pop\n        /* \"contracts/SocialDiamond.sol\":2115:2232  function getTweetFunding(string memory _tweet) public view returns (uint256) {... */\n      swap2\n      swap1\n      pop\n      jump\t// out\n        /* \"contracts/SocialDiamond.sol\":462:514  mapping(address => uint256) public countTweetsFunded */\n    tag_80:\n      mstore(0x20, 0x04)\n      dup1\n      0x00\n      mstore\n      keccak256(0x00, 0x40)\n      0x00\n      swap2\n      pop\n      swap1\n      pop\n      sload\n      dup2\n      jump\t// out\n        /* \"contracts/SocialDiamond.sol\":811:859  mapping(string => uint256) public rewardPerTweet */\n    tag_84:\n      0x0a\n      dup2\n      dup1\n      mload\n      0x20\n      dup2\n      add\n      dup3\n      add\n      dup1\n      mload\n      dup5\n      dup3\n      mstore\n      0x20\n      dup4\n      add\n      0x20\n      dup6\n      add\n      keccak256\n      dup2\n      dup4\n      mstore\n      dup1\n      swap6\n      pop\n      pop\n      pop\n      pop\n      pop\n      pop\n      0x00\n      swap2\n      pop\n      swap1\n      pop\n      sload\n      dup2\n      jump\t// out\n        /* \"contracts/SocialDiamond.sol\":403:458  mapping(address => string[]) public tweetsFundedForUser */\n    tag_88:\n      mstore(0x20, 0x03)\n      dup2\n      0x00\n      mstore\n      keccak256(0x00, 0x40)\n      dup2\n      dup2\n      sload\n      dup2\n      lt\n      tag_169\n      jumpi\n      0x00\n      dup1\n      revert\n    tag_169:\n      swap1\n      0x00\n      mstore\n      keccak256(0x00, 0x20)\n      add\n      0x00\n      swap2\n      pop\n      swap2\n      pop\n      pop\n      dup1\n      sload\n      tag_171\n      swap1\n      tag_162\n      jump\t// in\n    tag_171:\n      dup1\n      0x1f\n      add\n      0x20\n      dup1\n      swap2\n      div\n      mul\n      0x20\n      add\n      mload(0x40)\n      swap1\n      dup2\n      add\n      0x40\n      mstore\n      dup1\n      swap3\n      swap2\n      swap1\n      dup2\n      dup2\n      mstore\n      0x20\n      add\n      dup3\n      dup1\n      sload\n      tag_172\n      swap1\n      tag_162\n      jump\t// in\n    tag_172:\n      dup1\n      iszero\n      tag_173\n      jumpi\n      dup1\n      0x1f\n      lt\n      tag_174\n      jumpi\n      0x0100\n      dup1\n      dup4\n      sload\n      div\n      mul\n      dup4\n      mstore\n      swap2\n      0x20\n      add\n      swap2\n      jump(tag_173)\n    tag_174:\n      dup3\n      add\n      swap2\n      swap1\n      0x00\n      mstore\n      keccak256(0x00, 0x20)\n      swap1\n    tag_175:\n      dup2\n      sload\n      dup2\n      mstore\n      swap1\n      0x01\n      add\n      swap1\n      0x20\n      add\n      dup1\n      dup4\n      gt\n      tag_175\n      jumpi\n      dup3\n      swap1\n      sub\n      0x1f\n      and\n      dup3\n      add\n      swap2\n    tag_173:\n      pop\n      pop\n      pop\n      pop\n      pop\n      dup2\n      jump\t// out\n        /* \"contracts/libraries/Ownable.sol\":627:857  function transferOwnership(address newOwner_) public virtual onlyOwner {... */\n    tag_92:\n        /* \"contracts/libraries/Ownable.sol\":425:435  msg.sender */\n      caller\n        /* \"contracts/libraries/Ownable.sol\":415:435  _owner == msg.sender */\n      0xffffffffffffffffffffffffffffffffffffffff\n      and\n        /* \"contracts/libraries/Ownable.sol\":415:421  _owner */\n      0x00\n      dup1\n      sload\n      swap1\n      0x0100\n      exp\n      swap1\n      div\n      0xffffffffffffffffffffffffffffffffffffffff\n      and\n        /* \"contracts/libraries/Ownable.sol\":415:435  _owner == msg.sender */\n      0xffffffffffffffffffffffffffffffffffffffff\n      and\n      eq\n        /* \"contracts/libraries/Ownable.sol\":407:472  require(_owner == msg.sender, \"Ownable: caller is not the owner\") */\n      tag_177\n      jumpi\n      mload(0x40)\n      0x08c379a000000000000000000000000000000000000000000000000000000000\n      dup2\n      mstore\n      0x04\n      add\n      tag_178\n      swap1\n      tag_143\n      jump\t// in\n    tag_178:\n      mload(0x40)\n      dup1\n      swap2\n      sub\n      swap1\n      revert\n    tag_177:\n        /* \"contracts/libraries/Ownable.sol\":733:734  0 */\n      0x00\n        /* \"contracts/libraries/Ownable.sol\":712:735  newOwner_ != address(0) */\n      0xffffffffffffffffffffffffffffffffffffffff\n      and\n        /* \"contracts/libraries/Ownable.sol\":712:721  newOwner_ */\n      dup2\n        /* \"contracts/libraries/Ownable.sol\":712:735  newOwner_ != address(0) */\n      0xffffffffffffffffffffffffffffffffffffffff\n      and\n      sub\n        /* \"contracts/libraries/Ownable.sol\":704:778  require(newOwner_ != address(0), \"Ownable: new owner is the zero address\") */\n      tag_180\n      jumpi\n      mload(0x40)\n      0x08c379a000000000000000000000000000000000000000000000000000000000\n      dup2\n      mstore\n      0x04\n      add\n      tag_181\n      swap1\n      tag_182\n      jump\t// in\n    tag_181:\n      mload(0x40)\n      dup1\n      swap2\n      sub\n      swap1\n      revert\n    tag_180:\n        /* \"contracts/libraries/Ownable.sol\":818:827  newOwner_ */\n      dup1\n        /* \"contracts/libraries/Ownable.sol\":789:828  OwnershipTransferred(_owner, newOwner_) */\n      0xffffffffffffffffffffffffffffffffffffffff\n      and\n        /* \"contracts/libraries/Ownable.sol\":810:816  _owner */\n      0x00\n      dup1\n      sload\n      swap1\n      0x0100\n      exp\n      swap1\n      div\n      0xffffffffffffffffffffffffffffffffffffffff\n      and\n        /* \"contracts/libraries/Ownable.sol\":789:828  OwnershipTransferred(_owner, newOwner_) */\n      0xffffffffffffffffffffffffffffffffffffffff\n      and\n      0x8be0079c531659141344cd1fd0a4f28419497f9722a3daafe3b4186f6b6457e0\n      mload(0x40)\n      mload(0x40)\n      dup1\n      swap2\n      sub\n      swap1\n      log3\n        /* \"contracts/libraries/Ownable.sol\":843:852  newOwner_ */\n      dup1\n        /* \"contracts/libraries/Ownable.sol\":834:840  _owner */\n      0x00\n      dup1\n        /* \"contracts/libraries/Ownable.sol\":834:852  _owner = newOwner_ */\n      0x0100\n      exp\n      dup2\n      sload\n      dup2\n      0xffffffffffffffffffffffffffffffffffffffff\n      mul\n      not\n      and\n      swap1\n      dup4\n      0xffffffffffffffffffffffffffffffffffffffff\n      and\n      mul\n      or\n      swap1\n      sstore\n      pop\n        /* \"contracts/libraries/Ownable.sol\":627:857  function transferOwnership(address newOwner_) public virtual onlyOwner {... */\n      pop\n      jump\t// out\n        /* \"contracts/SocialDiamond.sol\":864:901  uint256 public totalTransactionVolume */\n    tag_94:\n      sload(0x0b)\n      dup2\n      jump\t// out\n        /* \"contracts/SocialDiamond.sol\":1879:1969  function replaceReward(address _newReward) public onlyOwner {... */\n    tag_98:\n        /* \"contracts/libraries/Ownable.sol\":425:435  msg.sender */\n      caller\n        /* \"contracts/libraries/Ownable.sol\":415:435  _owner == msg.sender */\n      0xffffffffffffffffffffffffffffffffffffffff\n      and\n        /* \"contracts/libraries/Ownable.sol\":415:421  _owner */\n      0x00\n      dup1\n      sload\n      swap1\n      0x0100\n      exp\n      swap1\n      div\n      0xffffffffffffffffffffffffffffffffffffffff\n      and\n        /* \"contracts/libraries/Ownable.sol\":415:435  _owner == msg.sender */\n      0xffffffffffffffffffffffffffffffffffffffff\n      and\n      eq\n        /* \"contracts/libraries/Ownable.sol\":407:472  require(_owner == msg.sender, \"Ownable: caller is not the owner\") */\n      tag_184\n      jumpi\n      mload(0x40)\n      0x08c379a000000000000000000000000000000000000000000000000000000000\n      dup2\n      mstore\n      0x04\n      add\n      tag_185\n      swap1\n      tag_143\n      jump\t// in\n    tag_185:\n      mload(0x40)\n      dup1\n      swap2\n      sub\n      swap1\n      revert\n    tag_184:\n        /* \"contracts/SocialDiamond.sol\":1954:1964  _newReward */\n      dup1\n        /* \"contracts/SocialDiamond.sol\":1945:1951  reward */\n      0x01\n      0x00\n        /* \"contracts/SocialDiamond.sol\":1945:1964  reward = _newReward */\n      0x0100\n      exp\n      dup2\n      sload\n      dup2\n      0xffffffffffffffffffffffffffffffffffffffff\n      mul\n      not\n      and\n      swap1\n      dup4\n      0xffffffffffffffffffffffffffffffffffffffff\n      and\n      mul\n      or\n      swap1\n      sstore\n      pop\n        /* \"contracts/SocialDiamond.sol\":1879:1969  function replaceReward(address _newReward) public onlyOwner {... */\n      pop\n      jump\t// out\n        /* \"contracts/SocialDiamond.sol\":667:709  mapping(address => uint256) public donated */\n    tag_101:\n      mstore(0x20, 0x07)\n      dup1\n      0x00\n      mstore\n      keccak256(0x00, 0x40)\n      0x00\n      swap2\n      pop\n      swap1\n      pop\n      sload\n      dup2\n      jump\t// out\n        /* \"contracts/SocialDiamond.sol\":2404:2780  function getEligibility(uint256 _amount) internal returns (bool) {... */\n    tag_127:\n        /* \"contracts/SocialDiamond.sol\":2463:2467  bool */\n      0x00\n        /* \"contracts/SocialDiamond.sol\":2475:2491  uint256 _current */\n      dup1\n        /* \"contracts/SocialDiamond.sol\":2494:2501  donated */\n      0x07\n        /* \"contracts/SocialDiamond.sol\":2494:2513  donated[msg.sender] */\n      0x00\n        /* \"contracts/SocialDiamond.sol\":2502:2512  msg.sender */\n      caller\n        /* \"contracts/SocialDiamond.sol\":2494:2513  donated[msg.sender] */\n      0xffffffffffffffffffffffffffffffffffffffff\n      and\n      0xffffffffffffffffffffffffffffffffffffffff\n      and\n      dup2\n      mstore\n      0x20\n      add\n      swap1\n      dup2\n      mstore\n      0x20\n      add\n      0x00\n      keccak256\n      sload\n        /* \"contracts/SocialDiamond.sol\":2475:2513  uint256 _current = donated[msg.sender] */\n      swap1\n      pop\n        /* \"contracts/SocialDiamond.sol\":2519:2531  uint256 _new */\n      0x00\n        /* \"contracts/SocialDiamond.sol\":2545:2552  _amount */\n      dup4\n        /* \"contracts/SocialDiamond.sol\":2534:2542  _current */\n      dup3\n        /* \"contracts/SocialDiamond.sol\":2534:2552  _current + _amount */\n      tag_188\n      swap2\n      swap1\n      tag_123\n      jump\t// in\n    tag_188:\n        /* \"contracts/SocialDiamond.sol\":2519:2552  uint256 _new = _current + _amount */\n      swap1\n      pop\n        /* \"contracts/SocialDiamond.sol\":2580:2584  _new */\n      dup1\n        /* \"contracts/SocialDiamond.sol\":2558:2565  donated */\n      0x07\n        /* \"contracts/SocialDiamond.sol\":2558:2577  donated[msg.sender] */\n      0x00\n        /* \"contracts/SocialDiamond.sol\":2566:2576  msg.sender */\n      caller\n        /* \"contracts/SocialDiamond.sol\":2558:2577  donated[msg.sender] */\n      0xffffffffffffffffffffffffffffffffffffffff\n      and\n      0xffffffffffffffffffffffffffffffffffffffff\n      and\n      dup2\n      mstore\n      0x20\n      add\n      swap1\n      dup2\n      mstore\n      0x20\n      add\n      0x00\n      keccak256\n        /* \"contracts/SocialDiamond.sol\":2558:2584  donated[msg.sender] = _new */\n      dup2\n      swap1\n      sstore\n      pop\n        /* \"contracts/SocialDiamond.sol\":2605:2613  _current */\n      dup2\n        /* \"contracts/SocialDiamond.sol\":2594:2599  tiers */\n      0x09\n        /* \"contracts/SocialDiamond.sol\":2600:2601  0 */\n      0x00\n        /* \"contracts/SocialDiamond.sol\":2594:2602  tiers[0] */\n      dup2\n      sload\n      dup2\n      lt\n      tag_189\n      jumpi\n      tag_190\n      tag_159\n      jump\t// in\n    tag_190:\n    tag_189:\n      swap1\n      0x00\n      mstore\n      keccak256(0x00, 0x20)\n      add\n      sload\n        /* \"contracts/SocialDiamond.sol\":2594:2613  tiers[0] > _current */\n      gt\n        /* \"contracts/SocialDiamond.sol\":2594:2633  tiers[0] > _current && tiers[0] <= _new */\n      dup1\n      iszero\n      tag_192\n      jumpi\n      pop\n        /* \"contracts/SocialDiamond.sol\":2629:2633  _new */\n      dup1\n        /* \"contracts/SocialDiamond.sol\":2617:2622  tiers */\n      0x09\n        /* \"contracts/SocialDiamond.sol\":2623:2624  0 */\n      0x00\n        /* \"contracts/SocialDiamond.sol\":2617:2625  tiers[0] */\n      dup2\n      sload\n      dup2\n      lt\n      tag_193\n      jumpi\n      tag_194\n      tag_159\n      jump\t// in\n    tag_194:\n    tag_193:\n      swap1\n      0x00\n      mstore\n      keccak256(0x00, 0x20)\n      add\n      sload\n        /* \"contracts/SocialDiamond.sol\":2617:2633  tiers[0] <= _new */\n      gt\n      iszero\n        /* \"contracts/SocialDiamond.sol\":2594:2633  tiers[0] > _current && tiers[0] <= _new */\n    tag_192:\n        /* \"contracts/SocialDiamond.sol\":2590:2775  if (tiers[0] > _current && tiers[0] <= _new) {... */\n      iszero\n      tag_196\n      jumpi\n        /* \"contracts/SocialDiamond.sol\":2650:2654  true */\n      0x01\n        /* \"contracts/SocialDiamond.sol\":2643:2654  return true */\n      swap3\n      pop\n      pop\n      pop\n      jump(tag_187)\n        /* \"contracts/SocialDiamond.sol\":2590:2775  if (tiers[0] > _current && tiers[0] <= _new) {... */\n    tag_196:\n        /* \"contracts/SocialDiamond.sol\":2686:2687  1 */\n      0x01\n        /* \"contracts/SocialDiamond.sol\":2671:2676  tiers */\n      0x09\n        /* \"contracts/SocialDiamond.sol\":2671:2683  tiers.length */\n      dup1\n      sload\n      swap1\n      pop\n        /* \"contracts/SocialDiamond.sol\":2671:2687  tiers.length > 1 */\n      gt\n        /* \"contracts/SocialDiamond.sol\":2671:2710  tiers.length > 1 && tiers[1] > _current */\n      dup1\n      iszero\n      tag_198\n      jumpi\n      pop\n        /* \"contracts/SocialDiamond.sol\":2702:2710  _current */\n      dup2\n        /* \"contracts/SocialDiamond.sol\":2691:2696  tiers */\n      0x09\n        /* \"contracts/SocialDiamond.sol\":2697:2698  1 */\n      0x01\n        /* \"contracts/SocialDiamond.sol\":2691:2699  tiers[1] */\n      dup2\n      sload\n      dup2\n      lt\n      tag_199\n      jumpi\n      tag_200\n      tag_159\n      jump\t// in\n    tag_200:\n    tag_199:\n      swap1\n      0x00\n      mstore\n      keccak256(0x00, 0x20)\n      add\n      sload\n        /* \"contracts/SocialDiamond.sol\":2691:2710  tiers[1] > _current */\n      gt\n        /* \"contracts/SocialDiamond.sol\":2671:2710  tiers.length > 1 && tiers[1] > _current */\n    tag_198:\n        /* \"contracts/SocialDiamond.sol\":2671:2730  tiers.length > 1 && tiers[1] > _current && tiers[1] <= _new */\n      dup1\n      iszero\n      tag_202\n      jumpi\n      pop\n        /* \"contracts/SocialDiamond.sol\":2726:2730  _new */\n      dup1\n        /* \"contracts/SocialDiamond.sol\":2714:2719  tiers */\n      0x09\n        /* \"contracts/SocialDiamond.sol\":2720:2721  1 */\n      0x01\n        /* \"contracts/SocialDiamond.sol\":2714:2722  tiers[1] */\n      dup2\n      sload\n      dup2\n      lt\n      tag_203\n      jumpi\n      tag_204\n      tag_159\n      jump\t// in\n    tag_204:\n    tag_203:\n      swap1\n      0x00\n      mstore\n      keccak256(0x00, 0x20)\n      add\n      sload\n        /* \"contracts/SocialDiamond.sol\":2714:2730  tiers[1] <= _new */\n      gt\n      iszero\n        /* \"contracts/SocialDiamond.sol\":2671:2730  tiers.length > 1 && tiers[1] > _current && tiers[1] <= _new */\n    tag_202:\n        /* \"contracts/SocialDiamond.sol\":2667:2775  if (tiers.length > 1 && tiers[1] > _current && tiers[1] <= _new) {... */\n      iszero\n      tag_206\n      jumpi\n        /* \"contracts/SocialDiamond.sol\":2747:2751  true */\n      0x01\n        /* \"contracts/SocialDiamond.sol\":2740:2751  return true */\n      swap3\n      pop\n      pop\n      pop\n      jump(tag_187)\n        /* \"contracts/SocialDiamond.sol\":2667:2775  if (tiers.length > 1 && tiers[1] > _current && tiers[1] <= _new) {... */\n    tag_206:\n        /* \"contracts/SocialDiamond.sol\":2770:2775  false */\n      0x00\n        /* \"contracts/SocialDiamond.sol\":2763:2775  return false */\n      swap3\n      pop\n      pop\n      pop\n        /* \"contracts/SocialDiamond.sol\":2404:2780  function getEligibility(uint256 _amount) internal returns (bool) {... */\n    tag_187:\n      swap2\n      swap1\n      pop\n      jump\t// out\n    tag_104:\n      mload(0x40)\n      dup1\n      0x40\n      add\n      0x40\n      mstore\n      dup1\n      0x00\n      dup2\n      mstore\n      0x20\n      add\n      0x00\n      dup2\n      mstore\n      pop\n      swap1\n      jump\t// out\n    tag_138:\n      dup3\n      dup1\n      sload\n      tag_208\n      swap1\n      tag_162\n      jump\t// in\n    tag_208:\n      swap1\n      0x00\n      mstore\n      keccak256(0x00, 0x20)\n      swap1\n      0x1f\n      add\n      0x20\n      swap1\n      div\n      dup2\n      add\n      swap3\n      dup3\n      tag_210\n      jumpi\n      0x00\n      dup6\n      sstore\n      jump(tag_209)\n    tag_210:\n      dup3\n      0x1f\n      lt\n      tag_211\n      jumpi\n      dup1\n      mload\n      not(0xff)\n      and\n      dup4\n      dup1\n      add\n      or\n      dup6\n      sstore\n      jump(tag_209)\n    tag_211:\n      dup3\n      dup1\n      add\n      0x01\n      add\n      dup6\n      sstore\n      dup3\n      iszero\n      tag_209\n      jumpi\n      swap2\n      dup3\n      add\n    tag_212:\n      dup3\n      dup2\n      gt\n      iszero\n      tag_213\n      jumpi\n      dup3\n      mload\n      dup3\n      sstore\n      swap2\n      0x20\n      add\n      swap2\n      swap1\n      0x01\n      add\n      swap1\n      jump(tag_212)\n    tag_213:\n    tag_209:\n      pop\n      swap1\n      pop\n      tag_214\n      swap2\n      swap1\n      tag_215\n      jump\t// in\n    tag_214:\n      pop\n      swap1\n      jump\t// out\n    tag_150:\n      dup3\n      dup1\n      sload\n      dup3\n      dup3\n      sstore\n      swap1\n      0x00\n      mstore\n      keccak256(0x00, 0x20)\n      swap1\n      dup2\n      add\n      swap3\n      dup3\n      iszero\n      tag_216\n      jumpi\n      swap2\n      0x20\n      mul\n      dup3\n      add\n    tag_217:\n      dup3\n      dup2\n      gt\n      iszero\n      tag_218\n      jumpi\n      dup3\n      mload\n      dup3\n      sstore\n      swap2\n      0x20\n      add\n      swap2\n      swap1\n      0x01\n      add\n      swap1\n      jump(tag_217)\n    tag_218:\n    tag_216:\n      pop\n      swap1\n      pop\n      tag_219\n      swap2\n      swap1\n      tag_215\n      jump\t// in\n    tag_219:\n      pop\n      swap1\n      jump\t// out\n    tag_215:\n    tag_220:\n      dup1\n      dup3\n      gt\n      iszero\n      tag_221\n      jumpi\n      0x00\n      dup2\n      0x00\n      swap1\n      sstore\n      pop\n      0x01\n      add\n      jump(tag_220)\n    tag_221:\n      pop\n      swap1\n      jump\t// out\n        /* \"#utility.yul\":7:82   */\n    tag_222:\n        /* \"#utility.yul\":40:46   */\n      0x00\n        /* \"#utility.yul\":73:75   */\n      0x40\n        /* \"#utility.yul\":67:76   */\n      mload\n        /* \"#utility.yul\":57:76   */\n      swap1\n      pop\n        /* \"#utility.yul\":7:82   */\n      swap1\n      jump\t// out\n        /* \"#utility.yul\":88:205   */\n    tag_223:\n        /* \"#utility.yul\":197:198   */\n      0x00\n        /* \"#utility.yul\":194:195   */\n      dup1\n        /* \"#utility.yul\":187:199   */\n      revert\n        /* \"#utility.yul\":211:328   */\n    tag_224:\n        /* \"#utility.yul\":320:321   */\n      0x00\n        /* \"#utility.yul\":317:318   */\n      dup1\n        /* \"#utility.yul\":310:322   */\n      revert\n        /* \"#utility.yul\":334:460   */\n    tag_225:\n        /* \"#utility.yul\":371:378   */\n      0x00\n        /* \"#utility.yul\":411:453   */\n      0xffffffffffffffffffffffffffffffffffffffff\n        /* \"#utility.yul\":404:409   */\n      dup3\n        /* \"#utility.yul\":400:454   */\n      and\n        /* \"#utility.yul\":389:454   */\n      swap1\n      pop\n        /* \"#utility.yul\":334:460   */\n      swap2\n      swap1\n      pop\n      jump\t// out\n        /* \"#utility.yul\":466:562   */\n    tag_226:\n        /* \"#utility.yul\":503:510   */\n      0x00\n        /* \"#utility.yul\":532:556   */\n      tag_272\n        /* \"#utility.yul\":550:555   */\n      dup3\n        /* \"#utility.yul\":532:556   */\n      tag_225\n      jump\t// in\n    tag_272:\n        /* \"#utility.yul\":521:556   */\n      swap1\n      pop\n        /* \"#utility.yul\":466:562   */\n      swap2\n      swap1\n      pop\n      jump\t// out\n        /* \"#utility.yul\":568:690   */\n    tag_227:\n        /* \"#utility.yul\":641:665   */\n      tag_274\n        /* \"#utility.yul\":659:664   */\n      dup2\n        /* \"#utility.yul\":641:665   */\n      tag_226\n      jump\t// in\n    tag_274:\n        /* \"#utility.yul\":634:639   */\n      dup2\n        /* \"#utility.yul\":631:666   */\n      eq\n        /* \"#utility.yul\":621:684   */\n      tag_275\n      jumpi\n        /* \"#utility.yul\":680:681   */\n      0x00\n        /* \"#utility.yul\":677:678   */\n      dup1\n        /* \"#utility.yul\":670:682   */\n      revert\n        /* \"#utility.yul\":621:684   */\n    tag_275:\n        /* \"#utility.yul\":568:690   */\n      pop\n      jump\t// out\n        /* \"#utility.yul\":696:835   */\n    tag_228:\n        /* \"#utility.yul\":742:747   */\n      0x00\n        /* \"#utility.yul\":780:786   */\n      dup2\n        /* \"#utility.yul\":767:787   */\n      calldataload\n        /* \"#utility.yul\":758:787   */\n      swap1\n      pop\n        /* \"#utility.yul\":796:829   */\n      tag_277\n        /* \"#utility.yul\":823:828   */\n      dup2\n        /* \"#utility.yul\":796:829   */\n      tag_227\n      jump\t// in\n    tag_277:\n        /* \"#utility.yul\":696:835   */\n      swap3\n      swap2\n      pop\n      pop\n      jump\t// out\n        /* \"#utility.yul\":841:1170   */\n    tag_27:\n        /* \"#utility.yul\":900:906   */\n      0x00\n        /* \"#utility.yul\":949:951   */\n      0x20\n        /* \"#utility.yul\":937:946   */\n      dup3\n        /* \"#utility.yul\":928:935   */\n      dup5\n        /* \"#utility.yul\":924:947   */\n      sub\n        /* \"#utility.yul\":920:952   */\n      slt\n        /* \"#utility.yul\":917:1036   */\n      iszero\n      tag_279\n      jumpi\n        /* \"#utility.yul\":955:1034   */\n      tag_280\n      tag_223\n      jump\t// in\n    tag_280:\n        /* \"#utility.yul\":917:1036   */\n    tag_279:\n        /* \"#utility.yul\":1075:1076   */\n      0x00\n        /* \"#utility.yul\":1100:1153   */\n      tag_281\n        /* \"#utility.yul\":1145:1152   */\n      dup5\n        /* \"#utility.yul\":1136:1142   */\n      dup3\n        /* \"#utility.yul\":1125:1134   */\n      dup6\n        /* \"#utility.yul\":1121:1143   */\n      add\n        /* \"#utility.yul\":1100:1153   */\n      tag_228\n      jump\t// in\n    tag_281:\n        /* \"#utility.yul\":1090:1153   */\n      swap2\n      pop\n        /* \"#utility.yul\":1046:1163   */\n      pop\n        /* \"#utility.yul\":841:1170   */\n      swap3\n      swap2\n      pop\n      pop\n      jump\t// out\n        /* \"#utility.yul\":1176:1253   */\n    tag_229:\n        /* \"#utility.yul\":1213:1220   */\n      0x00\n        /* \"#utility.yul\":1242:1247   */\n      dup2\n        /* \"#utility.yul\":1231:1247   */\n      swap1\n      pop\n        /* \"#utility.yul\":1176:1253   */\n      swap2\n      swap1\n      pop\n      jump\t// out\n        /* \"#utility.yul\":1259:1377   */\n    tag_230:\n        /* \"#utility.yul\":1346:1370   */\n      tag_284\n        /* \"#utility.yul\":1364:1369   */\n      dup2\n        /* \"#utility.yul\":1346:1370   */\n      tag_229\n      jump\t// in\n    tag_284:\n        /* \"#utility.yul\":1341:1344   */\n      dup3\n        /* \"#utility.yul\":1334:1371   */\n      mstore\n        /* \"#utility.yul\":1259:1377   */\n      pop\n      pop\n      jump\t// out\n        /* \"#utility.yul\":1383:1715   */\n    tag_30:\n        /* \"#utility.yul\":1504:1508   */\n      0x00\n        /* \"#utility.yul\":1542:1544   */\n      0x40\n        /* \"#utility.yul\":1531:1540   */\n      dup3\n        /* \"#utility.yul\":1527:1545   */\n      add\n        /* \"#utility.yul\":1519:1545   */\n      swap1\n      pop\n        /* \"#utility.yul\":1555:1626   */\n      tag_286\n        /* \"#utility.yul\":1623:1624   */\n      0x00\n        /* \"#utility.yul\":1612:1621   */\n      dup4\n        /* \"#utility.yul\":1608:1625   */\n      add\n        /* \"#utility.yul\":1599:1605   */\n      dup6\n        /* \"#utility.yul\":1555:1626   */\n      tag_230\n      jump\t// in\n    tag_286:\n        /* \"#utility.yul\":1636:1708   */\n      tag_287\n        /* \"#utility.yul\":1704:1706   */\n      0x20\n        /* \"#utility.yul\":1693:1702   */\n      dup4\n        /* \"#utility.yul\":1689:1707   */\n      add\n        /* \"#utility.yul\":1680:1686   */\n      dup5\n        /* \"#utility.yul\":1636:1708   */\n      tag_230\n      jump\t// in\n    tag_287:\n        /* \"#utility.yul\":1383:1715   */\n      swap4\n      swap3\n      pop\n      pop\n      pop\n      jump\t// out\n        /* \"#utility.yul\":1721:1829   */\n    tag_231:\n        /* \"#utility.yul\":1798:1822   */\n      tag_289\n        /* \"#utility.yul\":1816:1821   */\n      dup2\n        /* \"#utility.yul\":1798:1822   */\n      tag_229\n      jump\t// in\n    tag_289:\n        /* \"#utility.yul\":1793:1796   */\n      dup3\n        /* \"#utility.yul\":1786:1823   */\n      mstore\n        /* \"#utility.yul\":1721:1829   */\n      pop\n      pop\n      jump\t// out\n        /* \"#utility.yul\":1901:2408   */\n    tag_232:\n        /* \"#utility.yul\":2042:2046   */\n      0x40\n        /* \"#utility.yul\":2037:2040   */\n      dup3\n        /* \"#utility.yul\":2033:2047   */\n      add\n        /* \"#utility.yul\":2132:2136   */\n      0x00\n        /* \"#utility.yul\":2125:2130   */\n      dup3\n        /* \"#utility.yul\":2121:2137   */\n      add\n        /* \"#utility.yul\":2115:2138   */\n      mload\n        /* \"#utility.yul\":2151:2214   */\n      tag_291\n        /* \"#utility.yul\":2208:2212   */\n      0x00\n        /* \"#utility.yul\":2203:2206   */\n      dup6\n        /* \"#utility.yul\":2199:2213   */\n      add\n        /* \"#utility.yul\":2185:2197   */\n      dup3\n        /* \"#utility.yul\":2151:2214   */\n      tag_231\n      jump\t// in\n    tag_291:\n        /* \"#utility.yul\":2057:2224   */\n      pop\n        /* \"#utility.yul\":2309:2313   */\n      0x20\n        /* \"#utility.yul\":2302:2307   */\n      dup3\n        /* \"#utility.yul\":2298:2314   */\n      add\n        /* \"#utility.yul\":2292:2315   */\n      mload\n        /* \"#utility.yul\":2328:2391   */\n      tag_292\n        /* \"#utility.yul\":2385:2389   */\n      0x20\n        /* \"#utility.yul\":2380:2383   */\n      dup6\n        /* \"#utility.yul\":2376:2390   */\n      add\n        /* \"#utility.yul\":2362:2374   */\n      dup3\n        /* \"#utility.yul\":2328:2391   */\n      tag_231\n      jump\t// in\n    tag_292:\n        /* \"#utility.yul\":2234:2401   */\n      pop\n        /* \"#utility.yul\":2011:2408   */\n      pop\n        /* \"#utility.yul\":1901:2408   */\n      pop\n      pop\n      jump\t// out\n        /* \"#utility.yul\":2414:2724   */\n    tag_35:\n        /* \"#utility.yul\":2551:2555   */\n      0x00\n        /* \"#utility.yul\":2589:2591   */\n      0x40\n        /* \"#utility.yul\":2578:2587   */\n      dup3\n        /* \"#utility.yul\":2574:2592   */\n      add\n        /* \"#utility.yul\":2566:2592   */\n      swap1\n      pop\n        /* \"#utility.yul\":2602:2717   */\n      tag_294\n        /* \"#utility.yul\":2714:2715   */\n      0x00\n        /* \"#utility.yul\":2703:2712   */\n      dup4\n        /* \"#utility.yul\":2699:2716   */\n      add\n        /* \"#utility.yul\":2690:2696   */\n      dup5\n        /* \"#utility.yul\":2602:2717   */\n      tag_232\n      jump\t// in\n    tag_294:\n        /* \"#utility.yul\":2414:2724   */\n      swap3\n      swap2\n      pop\n      pop\n      jump\t// out\n        /* \"#utility.yul\":2730:2847   */\n    tag_233:\n        /* \"#utility.yul\":2839:2840   */\n      0x00\n        /* \"#utility.yul\":2836:2837   */\n      dup1\n        /* \"#utility.yul\":2829:2841   */\n      revert\n        /* \"#utility.yul\":2853:2970   */\n    tag_234:\n        /* \"#utility.yul\":2962:2963   */\n      0x00\n        /* \"#utility.yul\":2959:2960   */\n      dup1\n        /* \"#utility.yul\":2952:2964   */\n      revert\n        /* \"#utility.yul\":2976:3078   */\n    tag_235:\n        /* \"#utility.yul\":3017:3023   */\n      0x00\n        /* \"#utility.yul\":3068:3070   */\n      0x1f\n        /* \"#utility.yul\":3064:3071   */\n      not\n        /* \"#utility.yul\":3059:3061   */\n      0x1f\n        /* \"#utility.yul\":3052:3057   */\n      dup4\n        /* \"#utility.yul\":3048:3062   */\n      add\n        /* \"#utility.yul\":3044:3072   */\n      and\n        /* \"#utility.yul\":3034:3072   */\n      swap1\n      pop\n        /* \"#utility.yul\":2976:3078   */\n      swap2\n      swap1\n      pop\n      jump\t// out\n        /* \"#utility.yul\":3084:3264   */\n    tag_236:\n        /* \"#utility.yul\":3132:3209   */\n      0x4e487b7100000000000000000000000000000000000000000000000000000000\n        /* \"#utility.yul\":3129:3130   */\n      0x00\n        /* \"#utility.yul\":3122:3210   */\n      mstore\n        /* \"#utility.yul\":3229:3233   */\n      0x41\n        /* \"#utility.yul\":3226:3227   */\n      0x04\n        /* \"#utility.yul\":3219:3234   */\n      mstore\n        /* \"#utility.yul\":3253:3257   */\n      0x24\n        /* \"#utility.yul\":3250:3251   */\n      0x00\n        /* \"#utility.yul\":3243:3258   */\n      revert\n        /* \"#utility.yul\":3270:3551   */\n    tag_237:\n        /* \"#utility.yul\":3353:3380   */\n      tag_300\n        /* \"#utility.yul\":3375:3379   */\n      dup3\n        /* \"#utility.yul\":3353:3380   */\n      tag_235\n      jump\t// in\n    tag_300:\n        /* \"#utility.yul\":3345:3351   */\n      dup2\n        /* \"#utility.yul\":3341:3381   */\n      add\n        /* \"#utility.yul\":3483:3489   */\n      dup2\n        /* \"#utility.yul\":3471:3481   */\n      dup2\n        /* \"#utility.yul\":3468:3490   */\n      lt\n        /* \"#utility.yul\":3447:3465   */\n      0xffffffffffffffff\n        /* \"#utility.yul\":3435:3445   */\n      dup3\n        /* \"#utility.yul\":3432:3466   */\n      gt\n        /* \"#utility.yul\":3429:3491   */\n      or\n        /* \"#utility.yul\":3426:3514   */\n      iszero\n      tag_301\n      jumpi\n        /* \"#utility.yul\":3494:3512   */\n      tag_302\n      tag_236\n      jump\t// in\n    tag_302:\n        /* \"#utility.yul\":3426:3514   */\n    tag_301:\n        /* \"#utility.yul\":3534:3544   */\n      dup1\n        /* \"#utility.yul\":3530:3532   */\n      0x40\n        /* \"#utility.yul\":3523:3545   */\n      mstore\n        /* \"#utility.yul\":3313:3551   */\n      pop\n        /* \"#utility.yul\":3270:3551   */\n      pop\n      pop\n      jump\t// out\n        /* \"#utility.yul\":3557:3686   */\n    tag_238:\n        /* \"#utility.yul\":3591:3597   */\n      0x00\n        /* \"#utility.yul\":3618:3638   */\n      tag_304\n      tag_222\n      jump\t// in\n    tag_304:\n        /* \"#utility.yul\":3608:3638   */\n      swap1\n      pop\n        /* \"#utility.yul\":3647:3680   */\n      tag_305\n        /* \"#utility.yul\":3675:3679   */\n      dup3\n        /* \"#utility.yul\":3667:3673   */\n      dup3\n        /* \"#utility.yul\":3647:3680   */\n      tag_237\n      jump\t// in\n    tag_305:\n        /* \"#utility.yul\":3557:3686   */\n      swap2\n      swap1\n      pop\n      jump\t// out\n        /* \"#utility.yul\":3692:4000   */\n    tag_239:\n        /* \"#utility.yul\":3754:3758   */\n      0x00\n        /* \"#utility.yul\":3844:3862   */\n      0xffffffffffffffff\n        /* \"#utility.yul\":3836:3842   */\n      dup3\n        /* \"#utility.yul\":3833:3863   */\n      gt\n        /* \"#utility.yul\":3830:3886   */\n      iszero\n      tag_307\n      jumpi\n        /* \"#utility.yul\":3866:3884   */\n      tag_308\n      tag_236\n      jump\t// in\n    tag_308:\n        /* \"#utility.yul\":3830:3886   */\n    tag_307:\n        /* \"#utility.yul\":3904:3933   */\n      tag_309\n        /* \"#utility.yul\":3926:3932   */\n      dup3\n        /* \"#utility.yul\":3904:3933   */\n      tag_235\n      jump\t// in\n    tag_309:\n        /* \"#utility.yul\":3896:3933   */\n      swap1\n      pop\n        /* \"#utility.yul\":3988:3992   */\n      0x20\n        /* \"#utility.yul\":3982:3986   */\n      dup2\n        /* \"#utility.yul\":3978:3993   */\n      add\n        /* \"#utility.yul\":3970:3993   */\n      swap1\n      pop\n        /* \"#utility.yul\":3692:4000   */\n      swap2\n      swap1\n      pop\n      jump\t// out\n        /* \"#utility.yul\":4006:4160   */\n    tag_240:\n        /* \"#utility.yul\":4090:4096   */\n      dup3\n        /* \"#utility.yul\":4085:4088   */\n      dup2\n        /* \"#utility.yul\":4080:4083   */\n      dup4\n        /* \"#utility.yul\":4067:4097   */\n      calldatacopy\n        /* \"#utility.yul\":4152:4153   */\n      0x00\n        /* \"#utility.yul\":4143:4149   */\n      dup4\n        /* \"#utility.yul\":4138:4141   */\n      dup4\n        /* \"#utility.yul\":4134:4150   */\n      add\n        /* \"#utility.yul\":4127:4154   */\n      mstore\n        /* \"#utility.yul\":4006:4160   */\n      pop\n      pop\n      pop\n      jump\t// out\n        /* \"#utility.yul\":4166:4578   */\n    tag_241:\n        /* \"#utility.yul\":4244:4249   */\n      0x00\n        /* \"#utility.yul\":4269:4335   */\n      tag_312\n        /* \"#utility.yul\":4285:4334   */\n      tag_313\n        /* \"#utility.yul\":4327:4333   */\n      dup5\n        /* \"#utility.yul\":4285:4334   */\n      tag_239\n      jump\t// in\n    tag_313:\n        /* \"#utility.yul\":4269:4335   */\n      tag_238\n      jump\t// in\n    tag_312:\n        /* \"#utility.yul\":4260:4335   */\n      swap1\n      pop\n        /* \"#utility.yul\":4358:4364   */\n      dup3\n        /* \"#utility.yul\":4351:4356   */\n      dup2\n        /* \"#utility.yul\":4344:4365   */\n      mstore\n        /* \"#utility.yul\":4396:4400   */\n      0x20\n        /* \"#utility.yul\":4389:4394   */\n      dup2\n        /* \"#utility.yul\":4385:4401   */\n      add\n        /* \"#utility.yul\":4434:4437   */\n      dup5\n        /* \"#utility.yul\":4425:4431   */\n      dup5\n        /* \"#utility.yul\":4420:4423   */\n      dup5\n        /* \"#utility.yul\":4416:4432   */\n      add\n        /* \"#utility.yul\":4413:4438   */\n      gt\n        /* \"#utility.yul\":4410:4522   */\n      iszero\n      tag_314\n      jumpi\n        /* \"#utility.yul\":4441:4520   */\n      tag_315\n      tag_234\n      jump\t// in\n    tag_315:\n        /* \"#utility.yul\":4410:4522   */\n    tag_314:\n        /* \"#utility.yul\":4531:4572   */\n      tag_316\n        /* \"#utility.yul\":4565:4571   */\n      dup5\n        /* \"#utility.yul\":4560:4563   */\n      dup3\n        /* \"#utility.yul\":4555:4558   */\n      dup6\n        /* \"#utility.yul\":4531:4572   */\n      tag_240\n      jump\t// in\n    tag_316:\n        /* \"#utility.yul\":4250:4578   */\n      pop\n        /* \"#utility.yul\":4166:4578   */\n      swap4\n      swap3\n      pop\n      pop\n      pop\n      jump\t// out\n        /* \"#utility.yul\":4598:4938   */\n    tag_242:\n        /* \"#utility.yul\":4654:4659   */\n      0x00\n        /* \"#utility.yul\":4703:4706   */\n      dup3\n        /* \"#utility.yul\":4696:4700   */\n      0x1f\n        /* \"#utility.yul\":4688:4694   */\n      dup4\n        /* \"#utility.yul\":4684:4701   */\n      add\n        /* \"#utility.yul\":4680:4707   */\n      slt\n        /* \"#utility.yul\":4670:4792   */\n      tag_318\n      jumpi\n        /* \"#utility.yul\":4711:4790   */\n      tag_319\n      tag_233\n      jump\t// in\n    tag_319:\n        /* \"#utility.yul\":4670:4792   */\n    tag_318:\n        /* \"#utility.yul\":4828:4834   */\n      dup2\n        /* \"#utility.yul\":4815:4835   */\n      calldataload\n        /* \"#utility.yul\":4853:4932   */\n      tag_320\n        /* \"#utility.yul\":4928:4931   */\n      dup5\n        /* \"#utility.yul\":4920:4926   */\n      dup3\n        /* \"#utility.yul\":4913:4917   */\n      0x20\n        /* \"#utility.yul\":4905:4911   */\n      dup7\n        /* \"#utility.yul\":4901:4918   */\n      add\n        /* \"#utility.yul\":4853:4932   */\n      tag_241\n      jump\t// in\n    tag_320:\n        /* \"#utility.yul\":4844:4932   */\n      swap2\n      pop\n        /* \"#utility.yul\":4660:4938   */\n      pop\n        /* \"#utility.yul\":4598:4938   */\n      swap3\n      swap2\n      pop\n      pop\n      jump\t// out\n        /* \"#utility.yul\":4944:5598   */\n    tag_38:\n        /* \"#utility.yul\":5022:5028   */\n      0x00\n        /* \"#utility.yul\":5030:5036   */\n      dup1\n        /* \"#utility.yul\":5079:5081   */\n      0x40\n        /* \"#utility.yul\":5067:5076   */\n      dup4\n        /* \"#utility.yul\":5058:5065   */\n      dup6\n        /* \"#utility.yul\":5054:5077   */\n      sub\n        /* \"#utility.yul\":5050:5082   */\n      slt\n        /* \"#utility.yul\":5047:5166   */\n      iszero\n      tag_322\n      jumpi\n        /* \"#utility.yul\":5085:5164   */\n      tag_323\n      tag_223\n      jump\t// in\n    tag_323:\n        /* \"#utility.yul\":5047:5166   */\n    tag_322:\n        /* \"#utility.yul\":5233:5234   */\n      0x00\n        /* \"#utility.yul\":5222:5231   */\n      dup4\n        /* \"#utility.yul\":5218:5235   */\n      add\n        /* \"#utility.yul\":5205:5236   */\n      calldataload\n        /* \"#utility.yul\":5263:5281   */\n      0xffffffffffffffff\n        /* \"#utility.yul\":5255:5261   */\n      dup2\n        /* \"#utility.yul\":5252:5282   */\n      gt\n        /* \"#utility.yul\":5249:5366   */\n      iszero\n      tag_324\n      jumpi\n        /* \"#utility.yul\":5285:5364   */\n      tag_325\n      tag_224\n      jump\t// in\n    tag_325:\n        /* \"#utility.yul\":5249:5366   */\n    tag_324:\n        /* \"#utility.yul\":5390:5453   */\n      tag_326\n        /* \"#utility.yul\":5445:5452   */\n      dup6\n        /* \"#utility.yul\":5436:5442   */\n      dup3\n        /* \"#utility.yul\":5425:5434   */\n      dup7\n        /* \"#utility.yul\":5421:5443   */\n      add\n        /* \"#utility.yul\":5390:5453   */\n      tag_242\n      jump\t// in\n    tag_326:\n        /* \"#utility.yul\":5380:5453   */\n      swap3\n      pop\n        /* \"#utility.yul\":5176:5463   */\n      pop\n        /* \"#utility.yul\":5502:5504   */\n      0x20\n        /* \"#utility.yul\":5528:5581   */\n      tag_327\n        /* \"#utility.yul\":5573:5580   */\n      dup6\n        /* \"#utility.yul\":5564:5570   */\n      dup3\n        /* \"#utility.yul\":5553:5562   */\n      dup7\n        /* \"#utility.yul\":5549:5571   */\n      add\n        /* \"#utility.yul\":5528:5581   */\n      tag_228\n      jump\t// in\n    tag_327:\n        /* \"#utility.yul\":5518:5581   */\n      swap2\n      pop\n        /* \"#utility.yul\":5473:5591   */\n      pop\n        /* \"#utility.yul\":4944:5598   */\n      swap3\n      pop\n      swap3\n      swap1\n      pop\n      jump\t// out\n        /* \"#utility.yul\":5604:5694   */\n    tag_243:\n        /* \"#utility.yul\":5638:5645   */\n      0x00\n        /* \"#utility.yul\":5681:5686   */\n      dup2\n        /* \"#utility.yul\":5674:5687   */\n      iszero\n        /* \"#utility.yul\":5667:5688   */\n      iszero\n        /* \"#utility.yul\":5656:5688   */\n      swap1\n      pop\n        /* \"#utility.yul\":5604:5694   */\n      swap2\n      swap1\n      pop\n      jump\t// out\n        /* \"#utility.yul\":5700:5809   */\n    tag_244:\n        /* \"#utility.yul\":5781:5802   */\n      tag_330\n        /* \"#utility.yul\":5796:5801   */\n      dup2\n        /* \"#utility.yul\":5781:5802   */\n      tag_243\n      jump\t// in\n    tag_330:\n        /* \"#utility.yul\":5776:5779   */\n      dup3\n        /* \"#utility.yul\":5769:5803   */\n      mstore\n        /* \"#utility.yul\":5700:5809   */\n      pop\n      pop\n      jump\t// out\n        /* \"#utility.yul\":5815:6025   */\n    tag_41:\n        /* \"#utility.yul\":5902:5906   */\n      0x00\n        /* \"#utility.yul\":5940:5942   */\n      0x20\n        /* \"#utility.yul\":5929:5938   */\n      dup3\n        /* \"#utility.yul\":5925:5943   */\n      add\n        /* \"#utility.yul\":5917:5943   */\n      swap1\n      pop\n        /* \"#utility.yul\":5953:6018   */\n      tag_332\n        /* \"#utility.yul\":6015:6016   */\n      0x00\n        /* \"#utility.yul\":6004:6013   */\n      dup4\n        /* \"#utility.yul\":6000:6017   */\n      add\n        /* \"#utility.yul\":5991:5997   */\n      dup5\n        /* \"#utility.yul\":5953:6018   */\n      tag_244\n      jump\t// in\n    tag_332:\n        /* \"#utility.yul\":5815:6025   */\n      swap3\n      swap2\n      pop\n      pop\n      jump\t// out\n        /* \"#utility.yul\":6031:6153   */\n    tag_245:\n        /* \"#utility.yul\":6104:6128   */\n      tag_334\n        /* \"#utility.yul\":6122:6127   */\n      dup2\n        /* \"#utility.yul\":6104:6128   */\n      tag_229\n      jump\t// in\n    tag_334:\n        /* \"#utility.yul\":6097:6102   */\n      dup2\n        /* \"#utility.yul\":6094:6129   */\n      eq\n        /* \"#utility.yul\":6084:6147   */\n      tag_335\n      jumpi\n        /* \"#utility.yul\":6143:6144   */\n      0x00\n        /* \"#utility.yul\":6140:6141   */\n      dup1\n        /* \"#utility.yul\":6133:6145   */\n      revert\n        /* \"#utility.yul\":6084:6147   */\n    tag_335:\n        /* \"#utility.yul\":6031:6153   */\n      pop\n      jump\t// out\n        /* \"#utility.yul\":6159:6298   */\n    tag_246:\n        /* \"#utility.yul\":6205:6210   */\n      0x00\n        /* \"#utility.yul\":6243:6249   */\n      dup2\n        /* \"#utility.yul\":6230:6250   */\n      calldataload\n        /* \"#utility.yul\":6221:6250   */\n      swap1\n      pop\n        /* \"#utility.yul\":6259:6292   */\n      tag_337\n        /* \"#utility.yul\":6286:6291   */\n      dup2\n        /* \"#utility.yul\":6259:6292   */\n      tag_245\n      jump\t// in\n    tag_337:\n        /* \"#utility.yul\":6159:6298   */\n      swap3\n      swap2\n      pop\n      pop\n      jump\t// out\n        /* \"#utility.yul\":6304:7103   */\n    tag_47:\n        /* \"#utility.yul\":6391:6397   */\n      0x00\n        /* \"#utility.yul\":6399:6405   */\n      dup1\n        /* \"#utility.yul\":6407:6413   */\n      0x00\n        /* \"#utility.yul\":6456:6458   */\n      0x60\n        /* \"#utility.yul\":6444:6453   */\n      dup5\n        /* \"#utility.yul\":6435:6442   */\n      dup7\n        /* \"#utility.yul\":6431:6454   */\n      sub\n        /* \"#utility.yul\":6427:6459   */\n      slt\n        /* \"#utility.yul\":6424:6543   */\n      iszero\n      tag_339\n      jumpi\n        /* \"#utility.yul\":6462:6541   */\n      tag_340\n      tag_223\n      jump\t// in\n    tag_340:\n        /* \"#utility.yul\":6424:6543   */\n    tag_339:\n        /* \"#utility.yul\":6582:6583   */\n      0x00\n        /* \"#utility.yul\":6607:6660   */\n      tag_341\n        /* \"#utility.yul\":6652:6659   */\n      dup7\n        /* \"#utility.yul\":6643:6649   */\n      dup3\n        /* \"#utility.yul\":6632:6641   */\n      dup8\n        /* \"#utility.yul\":6628:6650   */\n      add\n        /* \"#utility.yul\":6607:6660   */\n      tag_246\n      jump\t// in\n    tag_341:\n        /* \"#utility.yul\":6597:6660   */\n      swap4\n      pop\n        /* \"#utility.yul\":6553:6670   */\n      pop\n        /* \"#utility.yul\":6737:6739   */\n      0x20\n        /* \"#utility.yul\":6726:6735   */\n      dup5\n        /* \"#utility.yul\":6722:6740   */\n      add\n        /* \"#utility.yul\":6709:6741   */\n      calldataload\n        /* \"#utility.yul\":6768:6786   */\n      0xffffffffffffffff\n        /* \"#utility.yul\":6760:6766   */\n      dup2\n        /* \"#utility.yul\":6757:6787   */\n      gt\n        /* \"#utility.yul\":6754:6871   */\n      iszero\n      tag_342\n      jumpi\n        /* \"#utility.yul\":6790:6869   */\n      tag_343\n      tag_224\n      jump\t// in\n    tag_343:\n        /* \"#utility.yul\":6754:6871   */\n    tag_342:\n        /* \"#utility.yul\":6895:6958   */\n      tag_344\n        /* \"#utility.yul\":6950:6957   */\n      dup7\n        /* \"#utility.yul\":6941:6947   */\n      dup3\n        /* \"#utility.yul\":6930:6939   */\n      dup8\n        /* \"#utility.yul\":6926:6948   */\n      add\n        /* \"#utility.yul\":6895:6958   */\n      tag_242\n      jump\t// in\n    tag_344:\n        /* \"#utility.yul\":6885:6958   */\n      swap3\n      pop\n        /* \"#utility.yul\":6680:6968   */\n      pop\n        /* \"#utility.yul\":7007:7009   */\n      0x40\n        /* \"#utility.yul\":7033:7086   */\n      tag_345\n        /* \"#utility.yul\":7078:7085   */\n      dup7\n        /* \"#utility.yul\":7069:7075   */\n      dup3\n        /* \"#utility.yul\":7058:7067   */\n      dup8\n        /* \"#utility.yul\":7054:7076   */\n      add\n        /* \"#utility.yul\":7033:7086   */\n      tag_228\n      jump\t// in\n    tag_345:\n        /* \"#utility.yul\":7023:7086   */\n      swap2\n      pop\n        /* \"#utility.yul\":6978:7096   */\n      pop\n        /* \"#utility.yul\":6304:7103   */\n      swap3\n      pop\n      swap3\n      pop\n      swap3\n      jump\t// out\n        /* \"#utility.yul\":7109:7331   */\n    tag_53:\n        /* \"#utility.yul\":7202:7206   */\n      0x00\n        /* \"#utility.yul\":7240:7242   */\n      0x20\n        /* \"#utility.yul\":7229:7238   */\n      dup3\n        /* \"#utility.yul\":7225:7243   */\n      add\n        /* \"#utility.yul\":7217:7243   */\n      swap1\n      pop\n        /* \"#utility.yul\":7253:7324   */\n      tag_347\n        /* \"#utility.yul\":7321:7322   */\n      0x00\n        /* \"#utility.yul\":7310:7319   */\n      dup4\n        /* \"#utility.yul\":7306:7323   */\n      add\n        /* \"#utility.yul\":7297:7303   */\n      dup5\n        /* \"#utility.yul\":7253:7324   */\n      tag_230\n      jump\t// in\n    tag_347:\n        /* \"#utility.yul\":7109:7331   */\n      swap3\n      swap2\n      pop\n      pop\n      jump\t// out\n        /* \"#utility.yul\":7337:7648   */\n    tag_247:\n        /* \"#utility.yul\":7414:7418   */\n      0x00\n        /* \"#utility.yul\":7504:7522   */\n      0xffffffffffffffff\n        /* \"#utility.yul\":7496:7502   */\n      dup3\n        /* \"#utility.yul\":7493:7523   */\n      gt\n        /* \"#utility.yul\":7490:7546   */\n      iszero\n      tag_349\n      jumpi\n        /* \"#utility.yul\":7526:7544   */\n      tag_350\n      tag_236\n      jump\t// in\n    tag_350:\n        /* \"#utility.yul\":7490:7546   */\n    tag_349:\n        /* \"#utility.yul\":7576:7580   */\n      0x20\n        /* \"#utility.yul\":7568:7574   */\n      dup3\n        /* \"#utility.yul\":7564:7581   */\n      mul\n        /* \"#utility.yul\":7556:7581   */\n      swap1\n      pop\n        /* \"#utility.yul\":7636:7640   */\n      0x20\n        /* \"#utility.yul\":7630:7634   */\n      dup2\n        /* \"#utility.yul\":7626:7641   */\n      add\n        /* \"#utility.yul\":7618:7641   */\n      swap1\n      pop\n        /* \"#utility.yul\":7337:7648   */\n      swap2\n      swap1\n      pop\n      jump\t// out\n        /* \"#utility.yul\":7654:7771   */\n    tag_248:\n        /* \"#utility.yul\":7763:7764   */\n      0x00\n        /* \"#utility.yul\":7760:7761   */\n      dup1\n        /* \"#utility.yul\":7753:7765   */\n      revert\n        /* \"#utility.yul\":7794:8504   */\n    tag_249:\n        /* \"#utility.yul\":7890:7895   */\n      0x00\n        /* \"#utility.yul\":7915:7996   */\n      tag_353\n        /* \"#utility.yul\":7931:7995   */\n      tag_354\n        /* \"#utility.yul\":7988:7994   */\n      dup5\n        /* \"#utility.yul\":7931:7995   */\n      tag_247\n      jump\t// in\n    tag_354:\n        /* \"#utility.yul\":7915:7996   */\n      tag_238\n      jump\t// in\n    tag_353:\n        /* \"#utility.yul\":7906:7996   */\n      swap1\n      pop\n        /* \"#utility.yul\":8016:8021   */\n      dup1\n        /* \"#utility.yul\":8045:8051   */\n      dup4\n        /* \"#utility.yul\":8038:8043   */\n      dup3\n        /* \"#utility.yul\":8031:8052   */\n      mstore\n        /* \"#utility.yul\":8079:8083   */\n      0x20\n        /* \"#utility.yul\":8072:8077   */\n      dup3\n        /* \"#utility.yul\":8068:8084   */\n      add\n        /* \"#utility.yul\":8061:8084   */\n      swap1\n      pop\n        /* \"#utility.yul\":8132:8136   */\n      0x20\n        /* \"#utility.yul\":8124:8130   */\n      dup5\n        /* \"#utility.yul\":8120:8137   */\n      mul\n        /* \"#utility.yul\":8112:8118   */\n      dup4\n        /* \"#utility.yul\":8108:8138   */\n      add\n        /* \"#utility.yul\":8161:8164   */\n      dup6\n        /* \"#utility.yul\":8153:8159   */\n      dup2\n        /* \"#utility.yul\":8150:8165   */\n      gt\n        /* \"#utility.yul\":8147:8269   */\n      iszero\n      tag_355\n      jumpi\n        /* \"#utility.yul\":8180:8259   */\n      tag_356\n      tag_248\n      jump\t// in\n    tag_356:\n        /* \"#utility.yul\":8147:8269   */\n    tag_355:\n        /* \"#utility.yul\":8295:8301   */\n      dup4\n        /* \"#utility.yul\":8278:8498   */\n    tag_357:\n        /* \"#utility.yul\":8312:8318   */\n      dup2\n        /* \"#utility.yul\":8307:8310   */\n      dup2\n        /* \"#utility.yul\":8304:8319   */\n      lt\n        /* \"#utility.yul\":8278:8498   */\n      iszero\n      tag_359\n      jumpi\n        /* \"#utility.yul\":8387:8390   */\n      dup1\n        /* \"#utility.yul\":8416:8453   */\n      tag_360\n        /* \"#utility.yul\":8449:8452   */\n      dup9\n        /* \"#utility.yul\":8437:8447   */\n      dup3\n        /* \"#utility.yul\":8416:8453   */\n      tag_246\n      jump\t// in\n    tag_360:\n        /* \"#utility.yul\":8411:8414   */\n      dup5\n        /* \"#utility.yul\":8404:8454   */\n      mstore\n        /* \"#utility.yul\":8483:8487   */\n      0x20\n        /* \"#utility.yul\":8478:8481   */\n      dup5\n        /* \"#utility.yul\":8474:8488   */\n      add\n        /* \"#utility.yul\":8467:8488   */\n      swap4\n      pop\n        /* \"#utility.yul\":8354:8498   */\n      pop\n        /* \"#utility.yul\":8338:8342   */\n      0x20\n        /* \"#utility.yul\":8333:8336   */\n      dup2\n        /* \"#utility.yul\":8329:8343   */\n      add\n        /* \"#utility.yul\":8322:8343   */\n      swap1\n      pop\n        /* \"#utility.yul\":8278:8498   */\n      jump(tag_357)\n    tag_359:\n        /* \"#utility.yul\":8282:8303   */\n      pop\n        /* \"#utility.yul\":7896:8504   */\n      pop\n      pop\n        /* \"#utility.yul\":7794:8504   */\n      swap4\n      swap3\n      pop\n      pop\n      pop\n      jump\t// out\n        /* \"#utility.yul\":8527:8897   */\n    tag_250:\n        /* \"#utility.yul\":8598:8603   */\n      0x00\n        /* \"#utility.yul\":8647:8650   */\n      dup3\n        /* \"#utility.yul\":8640:8644   */\n      0x1f\n        /* \"#utility.yul\":8632:8638   */\n      dup4\n        /* \"#utility.yul\":8628:8645   */\n      add\n        /* \"#utility.yul\":8624:8651   */\n      slt\n        /* \"#utility.yul\":8614:8736   */\n      tag_362\n      jumpi\n        /* \"#utility.yul\":8655:8734   */\n      tag_363\n      tag_233\n      jump\t// in\n    tag_363:\n        /* \"#utility.yul\":8614:8736   */\n    tag_362:\n        /* \"#utility.yul\":8772:8778   */\n      dup2\n        /* \"#utility.yul\":8759:8779   */\n      calldataload\n        /* \"#utility.yul\":8797:8891   */\n      tag_364\n        /* \"#utility.yul\":8887:8890   */\n      dup5\n        /* \"#utility.yul\":8879:8885   */\n      dup3\n        /* \"#utility.yul\":8872:8876   */\n      0x20\n        /* \"#utility.yul\":8864:8870   */\n      dup7\n        /* \"#utility.yul\":8860:8877   */\n      add\n        /* \"#utility.yul\":8797:8891   */\n      tag_249\n      jump\t// in\n    tag_364:\n        /* \"#utility.yul\":8788:8891   */\n      swap2\n      pop\n        /* \"#utility.yul\":8604:8897   */\n      pop\n        /* \"#utility.yul\":8527:8897   */\n      swap3\n      swap2\n      pop\n      pop\n      jump\t// out\n        /* \"#utility.yul\":8903:9442   */\n    tag_58:\n        /* \"#utility.yul\":8987:8993   */\n      0x00\n        /* \"#utility.yul\":9036:9038   */\n      0x20\n        /* \"#utility.yul\":9024:9033   */\n      dup3\n        /* \"#utility.yul\":9015:9022   */\n      dup5\n        /* \"#utility.yul\":9011:9034   */\n      sub\n        /* \"#utility.yul\":9007:9039   */\n      slt\n        /* \"#utility.yul\":9004:9123   */\n      iszero\n      tag_366\n      jumpi\n        /* \"#utility.yul\":9042:9121   */\n      tag_367\n      tag_223\n      jump\t// in\n    tag_367:\n        /* \"#utility.yul\":9004:9123   */\n    tag_366:\n        /* \"#utility.yul\":9190:9191   */\n      0x00\n        /* \"#utility.yul\":9179:9188   */\n      dup3\n        /* \"#utility.yul\":9175:9192   */\n      add\n        /* \"#utility.yul\":9162:9193   */\n      calldataload\n        /* \"#utility.yul\":9220:9238   */\n      0xffffffffffffffff\n        /* \"#utility.yul\":9212:9218   */\n      dup2\n        /* \"#utility.yul\":9209:9239   */\n      gt\n        /* \"#utility.yul\":9206:9323   */\n      iszero\n      tag_368\n      jumpi\n        /* \"#utility.yul\":9242:9321   */\n      tag_369\n      tag_224\n      jump\t// in\n    tag_369:\n        /* \"#utility.yul\":9206:9323   */\n    tag_368:\n        /* \"#utility.yul\":9347:9425   */\n      tag_370\n        /* \"#utility.yul\":9417:9424   */\n      dup5\n        /* \"#utility.yul\":9408:9414   */\n      dup3\n        /* \"#utility.yul\":9397:9406   */\n      dup6\n        /* \"#utility.yul\":9393:9415   */\n      add\n        /* \"#utility.yul\":9347:9425   */\n      tag_250\n      jump\t// in\n    tag_370:\n        /* \"#utility.yul\":9337:9425   */\n      swap2\n      pop\n        /* \"#utility.yul\":9133:9435   */\n      pop\n        /* \"#utility.yul\":8903:9442   */\n      swap3\n      swap2\n      pop\n      pop\n      jump\t// out\n        /* \"#utility.yul\":9448:9566   */\n    tag_251:\n        /* \"#utility.yul\":9535:9559   */\n      tag_372\n        /* \"#utility.yul\":9553:9558   */\n      dup2\n        /* \"#utility.yul\":9535:9559   */\n      tag_226\n      jump\t// in\n    tag_372:\n        /* \"#utility.yul\":9530:9533   */\n      dup3\n        /* \"#utility.yul\":9523:9560   */\n      mstore\n        /* \"#utility.yul\":9448:9566   */\n      pop\n      pop\n      jump\t// out\n        /* \"#utility.yul\":9572:9794   */\n    tag_63:\n        /* \"#utility.yul\":9665:9669   */\n      0x00\n        /* \"#utility.yul\":9703:9705   */\n      0x20\n        /* \"#utility.yul\":9692:9701   */\n      dup3\n        /* \"#utility.yul\":9688:9706   */\n      add\n        /* \"#utility.yul\":9680:9706   */\n      swap1\n      pop\n        /* \"#utility.yul\":9716:9787   */\n      tag_374\n        /* \"#utility.yul\":9784:9785   */\n      0x00\n        /* \"#utility.yul\":9773:9782   */\n      dup4\n        /* \"#utility.yul\":9769:9786   */\n      add\n        /* \"#utility.yul\":9760:9766   */\n      dup5\n        /* \"#utility.yul\":9716:9787   */\n      tag_251\n      jump\t// in\n    tag_374:\n        /* \"#utility.yul\":9572:9794   */\n      swap3\n      swap2\n      pop\n      pop\n      jump\t// out\n        /* \"#utility.yul\":9800:10274   */\n    tag_69:\n        /* \"#utility.yul\":9868:9874   */\n      0x00\n        /* \"#utility.yul\":9876:9882   */\n      dup1\n        /* \"#utility.yul\":9925:9927   */\n      0x40\n        /* \"#utility.yul\":9913:9922   */\n      dup4\n        /* \"#utility.yul\":9904:9911   */\n      dup6\n        /* \"#utility.yul\":9900:9923   */\n      sub\n        /* \"#utility.yul\":9896:9928   */\n      slt\n        /* \"#utility.yul\":9893:10012   */\n      iszero\n      tag_376\n      jumpi\n        /* \"#utility.yul\":9931:10010   */\n      tag_377\n      tag_223\n      jump\t// in\n    tag_377:\n        /* \"#utility.yul\":9893:10012   */\n    tag_376:\n        /* \"#utility.yul\":10051:10052   */\n      0x00\n        /* \"#utility.yul\":10076:10129   */\n      tag_378\n        /* \"#utility.yul\":10121:10128   */\n      dup6\n        /* \"#utility.yul\":10112:10118   */\n      dup3\n        /* \"#utility.yul\":10101:10110   */\n      dup7\n        /* \"#utility.yul\":10097:10119   */\n      add\n        /* \"#utility.yul\":10076:10129   */\n      tag_228\n      jump\t// in\n    tag_378:\n        /* \"#utility.yul\":10066:10129   */\n      swap3\n      pop\n        /* \"#utility.yul\":10022:10139   */\n      pop\n        /* \"#utility.yul\":10178:10180   */\n      0x20\n        /* \"#utility.yul\":10204:10257   */\n      tag_379\n        /* \"#utility.yul\":10249:10256   */\n      dup6\n        /* \"#utility.yul\":10240:10246   */\n      dup3\n        /* \"#utility.yul\":10229:10238   */\n      dup7\n        /* \"#utility.yul\":10225:10247   */\n      add\n        /* \"#utility.yul\":10204:10257   */\n      tag_246\n      jump\t// in\n    tag_379:\n        /* \"#utility.yul\":10194:10257   */\n      swap2\n      pop\n        /* \"#utility.yul\":10149:10267   */\n      pop\n        /* \"#utility.yul\":9800:10274   */\n      swap3\n      pop\n      swap3\n      swap1\n      pop\n      jump\t// out\n        /* \"#utility.yul\":10280:10379   */\n    tag_252:\n        /* \"#utility.yul\":10332:10338   */\n      0x00\n        /* \"#utility.yul\":10366:10371   */\n      dup2\n        /* \"#utility.yul\":10360:10372   */\n      mload\n        /* \"#utility.yul\":10350:10372   */\n      swap1\n      pop\n        /* \"#utility.yul\":10280:10379   */\n      swap2\n      swap1\n      pop\n      jump\t// out\n        /* \"#utility.yul\":10385:10554   */\n    tag_253:\n        /* \"#utility.yul\":10469:10480   */\n      0x00\n        /* \"#utility.yul\":10503:10509   */\n      dup3\n        /* \"#utility.yul\":10498:10501   */\n      dup3\n        /* \"#utility.yul\":10491:10510   */\n      mstore\n        /* \"#utility.yul\":10543:10547   */\n      0x20\n        /* \"#utility.yul\":10538:10541   */\n      dup3\n        /* \"#utility.yul\":10534:10548   */\n      add\n        /* \"#utility.yul\":10519:10548   */\n      swap1\n      pop\n        /* \"#utility.yul\":10385:10554   */\n      swap3\n      swap2\n      pop\n      pop\n      jump\t// out\n        /* \"#utility.yul\":10560:10867   */\n    tag_254:\n        /* \"#utility.yul\":10628:10629   */\n      0x00\n        /* \"#utility.yul\":10638:10751   */\n    tag_383:\n        /* \"#utility.yul\":10652:10658   */\n      dup4\n        /* \"#utility.yul\":10649:10650   */\n      dup2\n        /* \"#utility.yul\":10646:10659   */\n      lt\n        /* \"#utility.yul\":10638:10751   */\n      iszero\n      tag_385\n      jumpi\n        /* \"#utility.yul\":10737:10738   */\n      dup1\n        /* \"#utility.yul\":10732:10735   */\n      dup3\n        /* \"#utility.yul\":10728:10739   */\n      add\n        /* \"#utility.yul\":10722:10740   */\n      mload\n        /* \"#utility.yul\":10718:10719   */\n      dup2\n        /* \"#utility.yul\":10713:10716   */\n      dup5\n        /* \"#utility.yul\":10709:10720   */\n      add\n        /* \"#utility.yul\":10702:10741   */\n      mstore\n        /* \"#utility.yul\":10674:10676   */\n      0x20\n        /* \"#utility.yul\":10671:10672   */\n      dup2\n        /* \"#utility.yul\":10667:10677   */\n      add\n        /* \"#utility.yul\":10662:10677   */\n      swap1\n      pop\n        /* \"#utility.yul\":10638:10751   */\n      jump(tag_383)\n    tag_385:\n        /* \"#utility.yul\":10769:10775   */\n      dup4\n        /* \"#utility.yul\":10766:10767   */\n      dup2\n        /* \"#utility.yul\":10763:10776   */\n      gt\n        /* \"#utility.yul\":10760:10861   */\n      iszero\n      tag_386\n      jumpi\n        /* \"#utility.yul\":10849:10850   */\n      0x00\n        /* \"#utility.yul\":10840:10846   */\n      dup5\n        /* \"#utility.yul\":10835:10838   */\n      dup5\n        /* \"#utility.yul\":10831:10847   */\n      add\n        /* \"#utility.yul\":10824:10851   */\n      mstore\n        /* \"#utility.yul\":10760:10861   */\n    tag_386:\n        /* \"#utility.yul\":10609:10867   */\n      pop\n        /* \"#utility.yul\":10560:10867   */\n      pop\n      pop\n      pop\n      jump\t// out\n        /* \"#utility.yul\":10873:11237   */\n    tag_255:\n        /* \"#utility.yul\":10961:10964   */\n      0x00\n        /* \"#utility.yul\":10989:11028   */\n      tag_388\n        /* \"#utility.yul\":11022:11027   */\n      dup3\n        /* \"#utility.yul\":10989:11028   */\n      tag_252\n      jump\t// in\n    tag_388:\n        /* \"#utility.yul\":11044:11115   */\n      tag_389\n        /* \"#utility.yul\":11108:11114   */\n      dup2\n        /* \"#utility.yul\":11103:11106   */\n      dup6\n        /* \"#utility.yul\":11044:11115   */\n      tag_253\n      jump\t// in\n    tag_389:\n        /* \"#utility.yul\":11037:11115   */\n      swap4\n      pop\n        /* \"#utility.yul\":11124:11176   */\n      tag_390\n        /* \"#utility.yul\":11169:11175   */\n      dup2\n        /* \"#utility.yul\":11164:11167   */\n      dup6\n        /* \"#utility.yul\":11157:11161   */\n      0x20\n        /* \"#utility.yul\":11150:11155   */\n      dup7\n        /* \"#utility.yul\":11146:11162   */\n      add\n        /* \"#utility.yul\":11124:11176   */\n      tag_254\n      jump\t// in\n    tag_390:\n        /* \"#utility.yul\":11201:11230   */\n      tag_391\n        /* \"#utility.yul\":11223:11229   */\n      dup2\n        /* \"#utility.yul\":11201:11230   */\n      tag_235\n      jump\t// in\n    tag_391:\n        /* \"#utility.yul\":11196:11199   */\n      dup5\n        /* \"#utility.yul\":11192:11231   */\n      add\n        /* \"#utility.yul\":11185:11231   */\n      swap2\n      pop\n        /* \"#utility.yul\":10965:11237   */\n      pop\n        /* \"#utility.yul\":10873:11237   */\n      swap3\n      swap2\n      pop\n      pop\n      jump\t// out\n        /* \"#utility.yul\":11243:11556   */\n    tag_72:\n        /* \"#utility.yul\":11356:11360   */\n      0x00\n        /* \"#utility.yul\":11394:11396   */\n      0x20\n        /* \"#utility.yul\":11383:11392   */\n      dup3\n        /* \"#utility.yul\":11379:11397   */\n      add\n        /* \"#utility.yul\":11371:11397   */\n      swap1\n      pop\n        /* \"#utility.yul\":11443:11452   */\n      dup2\n        /* \"#utility.yul\":11437:11441   */\n      dup2\n        /* \"#utility.yul\":11433:11453   */\n      sub\n        /* \"#utility.yul\":11429:11430   */\n      0x00\n        /* \"#utility.yul\":11418:11427   */\n      dup4\n        /* \"#utility.yul\":11414:11431   */\n      add\n        /* \"#utility.yul\":11407:11454   */\n      mstore\n        /* \"#utility.yul\":11471:11549   */\n      tag_393\n        /* \"#utility.yul\":11544:11548   */\n      dup2\n        /* \"#utility.yul\":11535:11541   */\n      dup5\n        /* \"#utility.yul\":11471:11549   */\n      tag_255\n      jump\t// in\n    tag_393:\n        /* \"#utility.yul\":11463:11549   */\n      swap1\n      pop\n        /* \"#utility.yul\":11243:11556   */\n      swap3\n      swap2\n      pop\n      pop\n      jump\t// out\n        /* \"#utility.yul\":11562:12071   */\n    tag_75:\n        /* \"#utility.yul\":11631:11637   */\n      0x00\n        /* \"#utility.yul\":11680:11682   */\n      0x20\n        /* \"#utility.yul\":11668:11677   */\n      dup3\n        /* \"#utility.yul\":11659:11666   */\n      dup5\n        /* \"#utility.yul\":11655:11678   */\n      sub\n        /* \"#utility.yul\":11651:11683   */\n      slt\n        /* \"#utility.yul\":11648:11767   */\n      iszero\n      tag_395\n      jumpi\n        /* \"#utility.yul\":11686:11765   */\n      tag_396\n      tag_223\n      jump\t// in\n    tag_396:\n        /* \"#utility.yul\":11648:11767   */\n    tag_395:\n        /* \"#utility.yul\":11834:11835   */\n      0x00\n        /* \"#utility.yul\":11823:11832   */\n      dup3\n        /* \"#utility.yul\":11819:11836   */\n      add\n        /* \"#utility.yul\":11806:11837   */\n      calldataload\n        /* \"#utility.yul\":11864:11882   */\n      0xffffffffffffffff\n        /* \"#utility.yul\":11856:11862   */\n      dup2\n        /* \"#utility.yul\":11853:11883   */\n      gt\n        /* \"#utility.yul\":11850:11967   */\n      iszero\n      tag_397\n      jumpi\n        /* \"#utility.yul\":11886:11965   */\n      tag_398\n      tag_224\n      jump\t// in\n    tag_398:\n        /* \"#utility.yul\":11850:11967   */\n    tag_397:\n        /* \"#utility.yul\":11991:12054   */\n      tag_399\n        /* \"#utility.yul\":12046:12053   */\n      dup5\n        /* \"#utility.yul\":12037:12043   */\n      dup3\n        /* \"#utility.yul\":12026:12035   */\n      dup6\n        /* \"#utility.yul\":12022:12044   */\n      add\n        /* \"#utility.yul\":11991:12054   */\n      tag_242\n      jump\t// in\n    tag_399:\n        /* \"#utility.yul\":11981:12054   */\n      swap2\n      pop\n        /* \"#utility.yul\":11777:12064   */\n      pop\n        /* \"#utility.yul\":11562:12071   */\n      swap3\n      swap2\n      pop\n      pop\n      jump\t// out\n        /* \"#utility.yul\":12077:12409   */\n    tag_109:\n        /* \"#utility.yul\":12198:12202   */\n      0x00\n        /* \"#utility.yul\":12236:12238   */\n      0x40\n        /* \"#utility.yul\":12225:12234   */\n      dup3\n        /* \"#utility.yul\":12221:12239   */\n      add\n        /* \"#utility.yul\":12213:12239   */\n      swap1\n      pop\n        /* \"#utility.yul\":12249:12320   */\n      tag_401\n        /* \"#utility.yul\":12317:12318   */\n      0x00\n        /* \"#utility.yul\":12306:12315   */\n      dup4\n        /* \"#utility.yul\":12302:12319   */\n      add\n        /* \"#utility.yul\":12293:12299   */\n      dup6\n        /* \"#utility.yul\":12249:12320   */\n      tag_251\n      jump\t// in\n    tag_401:\n        /* \"#utility.yul\":12330:12402   */\n      tag_402\n        /* \"#utility.yul\":12398:12400   */\n      0x20\n        /* \"#utility.yul\":12387:12396   */\n      dup4\n        /* \"#utility.yul\":12383:12401   */\n      add\n        /* \"#utility.yul\":12374:12380   */\n      dup5\n        /* \"#utility.yul\":12330:12402   */\n      tag_230\n      jump\t// in\n    tag_402:\n        /* \"#utility.yul\":12077:12409   */\n      swap4\n      swap3\n      pop\n      pop\n      pop\n      jump\t// out\n        /* \"#utility.yul\":12415:12531   */\n    tag_256:\n        /* \"#utility.yul\":12485:12506   */\n      tag_404\n        /* \"#utility.yul\":12500:12505   */\n      dup2\n        /* \"#utility.yul\":12485:12506   */\n      tag_243\n      jump\t// in\n    tag_404:\n        /* \"#utility.yul\":12478:12483   */\n      dup2\n        /* \"#utility.yul\":12475:12507   */\n      eq\n        /* \"#utility.yul\":12465:12525   */\n      tag_405\n      jumpi\n        /* \"#utility.yul\":12521:12522   */\n      0x00\n        /* \"#utility.yul\":12518:12519   */\n      dup1\n        /* \"#utility.yul\":12511:12523   */\n      revert\n        /* \"#utility.yul\":12465:12525   */\n    tag_405:\n        /* \"#utility.yul\":12415:12531   */\n      pop\n      jump\t// out\n        /* \"#utility.yul\":12537:12674   */\n    tag_257:\n        /* \"#utility.yul\":12591:12596   */\n      0x00\n        /* \"#utility.yul\":12622:12628   */\n      dup2\n        /* \"#utility.yul\":12616:12629   */\n      mload\n        /* \"#utility.yul\":12607:12629   */\n      swap1\n      pop\n        /* \"#utility.yul\":12638:12668   */\n      tag_407\n        /* \"#utility.yul\":12662:12667   */\n      dup2\n        /* \"#utility.yul\":12638:12668   */\n      tag_256\n      jump\t// in\n    tag_407:\n        /* \"#utility.yul\":12537:12674   */\n      swap3\n      swap2\n      pop\n      pop\n      jump\t// out\n        /* \"#utility.yul\":12680:13025   */\n    tag_113:\n        /* \"#utility.yul\":12747:12753   */\n      0x00\n        /* \"#utility.yul\":12796:12798   */\n      0x20\n        /* \"#utility.yul\":12784:12793   */\n      dup3\n        /* \"#utility.yul\":12775:12782   */\n      dup5\n        /* \"#utility.yul\":12771:12794   */\n      sub\n        /* \"#utility.yul\":12767:12799   */\n      slt\n        /* \"#utility.yul\":12764:12883   */\n      iszero\n      tag_409\n      jumpi\n        /* \"#utility.yul\":12802:12881   */\n      tag_410\n      tag_223\n      jump\t// in\n    tag_410:\n        /* \"#utility.yul\":12764:12883   */\n    tag_409:\n        /* \"#utility.yul\":12922:12923   */\n      0x00\n        /* \"#utility.yul\":12947:13008   */\n      tag_411\n        /* \"#utility.yul\":13000:13007   */\n      dup5\n        /* \"#utility.yul\":12991:12997   */\n      dup3\n        /* \"#utility.yul\":12980:12989   */\n      dup6\n        /* \"#utility.yul\":12976:12998   */\n      add\n        /* \"#utility.yul\":12947:13008   */\n      tag_257\n      jump\t// in\n    tag_411:\n        /* \"#utility.yul\":12937:13008   */\n      swap2\n      pop\n        /* \"#utility.yul\":12893:13018   */\n      pop\n        /* \"#utility.yul\":12680:13025   */\n      swap3\n      swap2\n      pop\n      pop\n      jump\t// out\n        /* \"#utility.yul\":13031:13473   */\n    tag_116:\n        /* \"#utility.yul\":13180:13184   */\n      0x00\n        /* \"#utility.yul\":13218:13220   */\n      0x60\n        /* \"#utility.yul\":13207:13216   */\n      dup3\n        /* \"#utility.yul\":13203:13221   */\n      add\n        /* \"#utility.yul\":13195:13221   */\n      swap1\n      pop\n        /* \"#utility.yul\":13231:13302   */\n      tag_413\n        /* \"#utility.yul\":13299:13300   */\n      0x00\n        /* \"#utility.yul\":13288:13297   */\n      dup4\n        /* \"#utility.yul\":13284:13301   */\n      add\n        /* \"#utility.yul\":13275:13281   */\n      dup7\n        /* \"#utility.yul\":13231:13302   */\n      tag_251\n      jump\t// in\n    tag_413:\n        /* \"#utility.yul\":13312:13384   */\n      tag_414\n        /* \"#utility.yul\":13380:13382   */\n      0x20\n        /* \"#utility.yul\":13369:13378   */\n      dup4\n        /* \"#utility.yul\":13365:13383   */\n      add\n        /* \"#utility.yul\":13356:13362   */\n      dup6\n        /* \"#utility.yul\":13312:13384   */\n      tag_251\n      jump\t// in\n    tag_414:\n        /* \"#utility.yul\":13394:13466   */\n      tag_415\n        /* \"#utility.yul\":13462:13464   */\n      0x40\n        /* \"#utility.yul\":13451:13460   */\n      dup4\n        /* \"#utility.yul\":13447:13465   */\n      add\n        /* \"#utility.yul\":13438:13444   */\n      dup5\n        /* \"#utility.yul\":13394:13466   */\n      tag_230\n      jump\t// in\n    tag_415:\n        /* \"#utility.yul\":13031:13473   */\n      swap5\n      swap4\n      pop\n      pop\n      pop\n      pop\n      jump\t// out\n        /* \"#utility.yul\":13479:13627   */\n    tag_258:\n        /* \"#utility.yul\":13581:13592   */\n      0x00\n        /* \"#utility.yul\":13618:13621   */\n      dup2\n        /* \"#utility.yul\":13603:13621   */\n      swap1\n      pop\n        /* \"#utility.yul\":13479:13627   */\n      swap3\n      swap2\n      pop\n      pop\n      jump\t// out\n        /* \"#utility.yul\":13633:14010   */\n    tag_259:\n        /* \"#utility.yul\":13739:13742   */\n      0x00\n        /* \"#utility.yul\":13767:13806   */\n      tag_418\n        /* \"#utility.yul\":13800:13805   */\n      dup3\n        /* \"#utility.yul\":13767:13806   */\n      tag_252\n      jump\t// in\n    tag_418:\n        /* \"#utility.yul\":13822:13911   */\n      tag_419\n        /* \"#utility.yul\":13904:13910   */\n      dup2\n        /* \"#utility.yul\":13899:13902   */\n      dup6\n        /* \"#utility.yul\":13822:13911   */\n      tag_258\n      jump\t// in\n    tag_419:\n        /* \"#utility.yul\":13815:13911   */\n      swap4\n      pop\n        /* \"#utility.yul\":13920:13972   */\n      tag_420\n        /* \"#utility.yul\":13965:13971   */\n      dup2\n        /* \"#utility.yul\":13960:13963   */\n      dup6\n        /* \"#utility.yul\":13953:13957   */\n      0x20\n        /* \"#utility.yul\":13946:13951   */\n      dup7\n        /* \"#utility.yul\":13942:13958   */\n      add\n        /* \"#utility.yul\":13920:13972   */\n      tag_254\n      jump\t// in\n    tag_420:\n        /* \"#utility.yul\":13997:14003   */\n      dup1\n        /* \"#utility.yul\":13992:13995   */\n      dup5\n        /* \"#utility.yul\":13988:14004   */\n      add\n        /* \"#utility.yul\":13981:14004   */\n      swap2\n      pop\n        /* \"#utility.yul\":13743:14010   */\n      pop\n        /* \"#utility.yul\":13633:14010   */\n      swap3\n      swap2\n      pop\n      pop\n      jump\t// out\n        /* \"#utility.yul\":14016:14291   */\n    tag_121:\n        /* \"#utility.yul\":14148:14151   */\n      0x00\n        /* \"#utility.yul\":14170:14265   */\n      tag_422\n        /* \"#utility.yul\":14261:14264   */\n      dup3\n        /* \"#utility.yul\":14252:14258   */\n      dup5\n        /* \"#utility.yul\":14170:14265   */\n      tag_259\n      jump\t// in\n    tag_422:\n        /* \"#utility.yul\":14163:14265   */\n      swap2\n      pop\n        /* \"#utility.yul\":14282:14285   */\n      dup2\n        /* \"#utility.yul\":14275:14285   */\n      swap1\n      pop\n        /* \"#utility.yul\":14016:14291   */\n      swap3\n      swap2\n      pop\n      pop\n      jump\t// out\n        /* \"#utility.yul\":14297:14477   */\n    tag_260:\n        /* \"#utility.yul\":14345:14422   */\n      0x4e487b7100000000000000000000000000000000000000000000000000000000\n        /* \"#utility.yul\":14342:14343   */\n      0x00\n        /* \"#utility.yul\":14335:14423   */\n      mstore\n        /* \"#utility.yul\":14442:14446   */\n      0x11\n        /* \"#utility.yul\":14439:14440   */\n      0x04\n        /* \"#utility.yul\":14432:14447   */\n      mstore\n        /* \"#utility.yul\":14466:14470   */\n      0x24\n        /* \"#utility.yul\":14463:14464   */\n      0x00\n        /* \"#utility.yul\":14456:14471   */\n      revert\n        /* \"#utility.yul\":14483:14788   */\n    tag_123:\n        /* \"#utility.yul\":14523:14526   */\n      0x00\n        /* \"#utility.yul\":14542:14562   */\n      tag_425\n        /* \"#utility.yul\":14560:14561   */\n      dup3\n        /* \"#utility.yul\":14542:14562   */\n      tag_229\n      jump\t// in\n    tag_425:\n        /* \"#utility.yul\":14537:14562   */\n      swap2\n      pop\n        /* \"#utility.yul\":14576:14596   */\n      tag_426\n        /* \"#utility.yul\":14594:14595   */\n      dup4\n        /* \"#utility.yul\":14576:14596   */\n      tag_229\n      jump\t// in\n    tag_426:\n        /* \"#utility.yul\":14571:14596   */\n      swap3\n      pop\n        /* \"#utility.yul\":14730:14731   */\n      dup3\n        /* \"#utility.yul\":14662:14728   */\n      0xffffffffffffffffffffffffffffffffffffffffffffffffffffffffffffffff\n        /* \"#utility.yul\":14658:14732   */\n      sub\n        /* \"#utility.yul\":14655:14656   */\n      dup3\n        /* \"#utility.yul\":14652:14733   */\n      gt\n        /* \"#utility.yul\":14649:14756   */\n      iszero\n      tag_427\n      jumpi\n        /* \"#utility.yul\":14736:14754   */\n      tag_428\n      tag_260\n      jump\t// in\n    tag_428:\n        /* \"#utility.yul\":14649:14756   */\n    tag_427:\n        /* \"#utility.yul\":14780:14781   */\n      dup3\n        /* \"#utility.yul\":14777:14778   */\n      dup3\n        /* \"#utility.yul\":14773:14782   */\n      add\n        /* \"#utility.yul\":14766:14782   */\n      swap1\n      pop\n        /* \"#utility.yul\":14483:14788   */\n      swap3\n      swap2\n      pop\n      pop\n      jump\t// out\n        /* \"#utility.yul\":14794:14976   */\n    tag_261:\n        /* \"#utility.yul\":14934:14968   */\n      0x4f776e61626c653a2063616c6c6572206973206e6f7420746865206f776e6572\n        /* \"#utility.yul\":14930:14931   */\n      0x00\n        /* \"#utility.yul\":14922:14928   */\n      dup3\n        /* \"#utility.yul\":14918:14932   */\n      add\n        /* \"#utility.yul\":14911:14969   */\n      mstore\n        /* \"#utility.yul\":14794:14976   */\n      pop\n      jump\t// out\n        /* \"#utility.yul\":14982:15348   */\n    tag_262:\n        /* \"#utility.yul\":15124:15127   */\n      0x00\n        /* \"#utility.yul\":15145:15212   */\n      tag_431\n        /* \"#utility.yul\":15209:15211   */\n      0x20\n        /* \"#utility.yul\":15204:15207   */\n      dup4\n        /* \"#utility.yul\":15145:15212   */\n      tag_253\n      jump\t// in\n    tag_431:\n        /* \"#utility.yul\":15138:15212   */\n      swap2\n      pop\n        /* \"#utility.yul\":15221:15314   */\n      tag_432\n        /* \"#utility.yul\":15310:15313   */\n      dup3\n        /* \"#utility.yul\":15221:15314   */\n      tag_261\n      jump\t// in\n    tag_432:\n        /* \"#utility.yul\":15339:15341   */\n      0x20\n        /* \"#utility.yul\":15334:15337   */\n      dup3\n        /* \"#utility.yul\":15330:15342   */\n      add\n        /* \"#utility.yul\":15323:15342   */\n      swap1\n      pop\n        /* \"#utility.yul\":14982:15348   */\n      swap2\n      swap1\n      pop\n      jump\t// out\n        /* \"#utility.yul\":15354:15773   */\n    tag_143:\n        /* \"#utility.yul\":15520:15524   */\n      0x00\n        /* \"#utility.yul\":15558:15560   */\n      0x20\n        /* \"#utility.yul\":15547:15556   */\n      dup3\n        /* \"#utility.yul\":15543:15561   */\n      add\n        /* \"#utility.yul\":15535:15561   */\n      swap1\n      pop\n        /* \"#utility.yul\":15607:15616   */\n      dup2\n        /* \"#utility.yul\":15601:15605   */\n      dup2\n        /* \"#utility.yul\":15597:15617   */\n      sub\n        /* \"#utility.yul\":15593:15594   */\n      0x00\n        /* \"#utility.yul\":15582:15591   */\n      dup4\n        /* \"#utility.yul\":15578:15595   */\n      add\n        /* \"#utility.yul\":15571:15618   */\n      mstore\n        /* \"#utility.yul\":15635:15766   */\n      tag_434\n        /* \"#utility.yul\":15761:15765   */\n      dup2\n        /* \"#utility.yul\":15635:15766   */\n      tag_262\n      jump\t// in\n    tag_434:\n        /* \"#utility.yul\":15627:15766   */\n      swap1\n      pop\n        /* \"#utility.yul\":15354:15773   */\n      swap2\n      swap1\n      pop\n      jump\t// out\n        /* \"#utility.yul\":15779:15959   */\n    tag_159:\n        /* \"#utility.yul\":15827:15904   */\n      0x4e487b7100000000000000000000000000000000000000000000000000000000\n        /* \"#utility.yul\":15824:15825   */\n      0x00\n        /* \"#utility.yul\":15817:15905   */\n      mstore\n        /* \"#utility.yul\":15924:15928   */\n      0x32\n        /* \"#utility.yul\":15921:15922   */\n      0x04\n        /* \"#utility.yul\":15914:15929   */\n      mstore\n        /* \"#utility.yul\":15948:15952   */\n      0x24\n        /* \"#utility.yul\":15945:15946   */\n      0x00\n        /* \"#utility.yul\":15938:15953   */\n      revert\n        /* \"#utility.yul\":15965:16145   */\n    tag_263:\n        /* \"#utility.yul\":16013:16090   */\n      0x4e487b7100000000000000000000000000000000000000000000000000000000\n        /* \"#utility.yul\":16010:16011   */\n      0x00\n        /* \"#utility.yul\":16003:16091   */\n      mstore\n        /* \"#utility.yul\":16110:16114   */\n      0x22\n        /* \"#utility.yul\":16107:16108   */\n      0x04\n        /* \"#utility.yul\":16100:16115   */\n      mstore\n        /* \"#utility.yul\":16134:16138   */\n      0x24\n        /* \"#utility.yul\":16131:16132   */\n      0x00\n        /* \"#utility.yul\":16124:16139   */\n      revert\n        /* \"#utility.yul\":16151:16471   */\n    tag_162:\n        /* \"#utility.yul\":16195:16201   */\n      0x00\n        /* \"#utility.yul\":16232:16233   */\n      0x02\n        /* \"#utility.yul\":16226:16230   */\n      dup3\n        /* \"#utility.yul\":16222:16234   */\n      div\n        /* \"#utility.yul\":16212:16234   */\n      swap1\n      pop\n        /* \"#utility.yul\":16279:16280   */\n      0x01\n        /* \"#utility.yul\":16273:16277   */\n      dup3\n        /* \"#utility.yul\":16269:16281   */\n      and\n        /* \"#utility.yul\":16300:16318   */\n      dup1\n        /* \"#utility.yul\":16290:16371   */\n      tag_438\n      jumpi\n        /* \"#utility.yul\":16356:16360   */\n      0x7f\n        /* \"#utility.yul\":16348:16354   */\n      dup3\n        /* \"#utility.yul\":16344:16361   */\n      and\n        /* \"#utility.yul\":16334:16361   */\n      swap2\n      pop\n        /* \"#utility.yul\":16290:16371   */\n    tag_438:\n        /* \"#utility.yul\":16418:16420   */\n      0x20\n        /* \"#utility.yul\":16410:16416   */\n      dup3\n        /* \"#utility.yul\":16407:16421   */\n      lt\n        /* \"#utility.yul\":16387:16405   */\n      dup2\n        /* \"#utility.yul\":16384:16422   */\n      sub\n        /* \"#utility.yul\":16381:16465   */\n      tag_439\n      jumpi\n        /* \"#utility.yul\":16437:16455   */\n      tag_440\n      tag_263\n      jump\t// in\n    tag_440:\n        /* \"#utility.yul\":16381:16465   */\n    tag_439:\n        /* \"#utility.yul\":16202:16471   */\n      pop\n        /* \"#utility.yul\":16151:16471   */\n      swap2\n      swap1\n      pop\n      jump\t// out\n        /* \"#utility.yul\":16477:16702   */\n    tag_264:\n        /* \"#utility.yul\":16617:16651   */\n      0x4f776e61626c653a206e6577206f776e657220697320746865207a65726f2061\n        /* \"#utility.yul\":16613:16614   */\n      0x00\n        /* \"#utility.yul\":16605:16611   */\n      dup3\n        /* \"#utility.yul\":16601:16615   */\n      add\n        /* \"#utility.yul\":16594:16652   */\n      mstore\n        /* \"#utility.yul\":16686:16694   */\n      0x6464726573730000000000000000000000000000000000000000000000000000\n        /* \"#utility.yul\":16681:16683   */\n      0x20\n        /* \"#utility.yul\":16673:16679   */\n      dup3\n        /* \"#utility.yul\":16669:16684   */\n      add\n        /* \"#utility.yul\":16662:16695   */\n      mstore\n        /* \"#utility.yul\":16477:16702   */\n      pop\n      jump\t// out\n        /* \"#utility.yul\":16708:17074   */\n    tag_265:\n        /* \"#utility.yul\":16850:16853   */\n      0x00\n        /* \"#utility.yul\":16871:16938   */\n      tag_443\n        /* \"#utility.yul\":16935:16937   */\n      0x26\n        /* \"#utility.yul\":16930:16933   */\n      dup4\n        /* \"#utility.yul\":16871:16938   */\n      tag_253\n      jump\t// in\n    tag_443:\n        /* \"#utility.yul\":16864:16938   */\n      swap2\n      pop\n        /* \"#utility.yul\":16947:17040   */\n      tag_444\n        /* \"#utility.yul\":17036:17039   */\n      dup3\n        /* \"#utility.yul\":16947:17040   */\n      tag_264\n      jump\t// in\n    tag_444:\n        /* \"#utility.yul\":17065:17067   */\n      0x40\n        /* \"#utility.yul\":17060:17063   */\n      dup3\n        /* \"#utility.yul\":17056:17068   */\n      add\n        /* \"#utility.yul\":17049:17068   */\n      swap1\n      pop\n        /* \"#utility.yul\":16708:17074   */\n      swap2\n      swap1\n      pop\n      jump\t// out\n        /* \"#utility.yul\":17080:17499   */\n    tag_182:\n        /* \"#utility.yul\":17246:17250   */\n      0x00\n        /* \"#utility.yul\":17284:17286   */\n      0x20\n        /* \"#utility.yul\":17273:17282   */\n      dup3\n        /* \"#utility.yul\":17269:17287   */\n      add\n        /* \"#utility.yul\":17261:17287   */\n      swap1\n      pop\n        /* \"#utility.yul\":17333:17342   */\n      dup2\n        /* \"#utility.yul\":17327:17331   */\n      dup2\n        /* \"#utility.yul\":17323:17343   */\n      sub\n        /* \"#utility.yul\":17319:17320   */\n      0x00\n        /* \"#utility.yul\":17308:17317   */\n      dup4\n        /* \"#utility.yul\":17304:17321   */\n      add\n        /* \"#utility.yul\":17297:17344   */\n      mstore\n        /* \"#utility.yul\":17361:17492   */\n      tag_446\n        /* \"#utility.yul\":17487:17491   */\n      dup2\n        /* \"#utility.yul\":17361:17492   */\n      tag_265\n      jump\t// in\n    tag_446:\n        /* \"#utility.yul\":17353:17492   */\n      swap1\n      pop\n        /* \"#utility.yul\":17080:17499   */\n      swap2\n      swap1\n      pop\n      jump\t// out\n\n    auxdata: 0xa2646970667358221220a3dbdb9d57767e0cb23ce8c3fe89848c8d1cfab58ebfe4adeb53c14c08f99c8a64736f6c634300080e0033\n}\n",
				"bytecode": {
					"linkReferences": {},
					"object": "60806040523480156200001157600080fd5b50604051620021c8380380620021c88339818101604052810190620000379190620003ee565b336000806101000a81548173ffffffffffffffffffffffffffffffffffffffff021916908373ffffffffffffffffffffffffffffffffffffffff16021790555060008054906101000a900473ffffffffffffffffffffffffffffffffffffffff1673ffffffffffffffffffffffffffffffffffffffff16600073ffffffffffffffffffffffffffffffffffffffff167f8be0079c531659141344cd1fd0a4f28419497f9722a3daafe3b4186f6b6457e060405160405180910390a381600260006101000a81548173ffffffffffffffffffffffffffffffffffffffff021916908373ffffffffffffffffffffffffffffffffffffffff16021790555080600990805190602001906200014b92919062000154565b50505062000454565b82805482825590600052602060002090810192821562000193579160200282015b828111156200019257825182559160200191906001019062000175565b5b509050620001a29190620001a6565b5090565b5b80821115620001c1576000816000905550600101620001a7565b5090565b6000604051905090565b600080fd5b600080fd5b600073ffffffffffffffffffffffffffffffffffffffff82169050919050565b60006200020682620001d9565b9050919050565b6200021881620001f9565b81146200022457600080fd5b50565b60008151905062000238816200020d565b92915050565b600080fd5b6000601f19601f8301169050919050565b7f4e487b7100000000000000000000000000000000000000000000000000000000600052604160045260246000fd5b6200028e8262000243565b810181811067ffffffffffffffff82111715620002b057620002af62000254565b5b80604052505050565b6000620002c5620001c5565b9050620002d3828262000283565b919050565b600067ffffffffffffffff821115620002f657620002f562000254565b5b602082029050602081019050919050565b600080fd5b6000819050919050565b62000321816200030c565b81146200032d57600080fd5b50565b600081519050620003418162000316565b92915050565b60006200035e6200035884620002d8565b620002b9565b9050808382526020820190506020840283018581111562000384576200038362000307565b5b835b81811015620003b157806200039c888262000330565b84526020840193505060208101905062000386565b5050509392505050565b600082601f830112620003d357620003d26200023e565b5b8151620003e584826020860162000347565b91505092915050565b60008060408385031215620004085762000407620001cf565b5b6000620004188582860162000227565b925050602083015167ffffffffffffffff8111156200043c576200043b620001d4565b5b6200044a85828601620003bb565b9150509250929050565b611d6480620004646000396000f3fe608060405234801561001057600080fd5b50600436106101215760003560e01c8063cac843aa116100ad578063f0863cce11610071578063f0863cce1461033f578063f2fde38b1461036f578063f839f3191461038b578063f8c842e5146103a9578063fb690dcc146103c557610121565b8063cac843aa14610263578063d0d996c41461027f578063d38ef5f1146102af578063de0c4c7c146102df578063de51d1fd1461030f57610121565b80632a108e21116100f45780632a108e21146101d35780635d6c83b5146101ef578063715018a61461021f57806382b670e4146102295780638da5cb5b1461024557610121565b80630660f1e814610126578063078b0fb7146101575780630b21d7a2146101875780631e83409a146101b7575b600080fd5b610140600480360381019061013b919061144c565b6103f5565b60405161014e929190611492565b60405180910390f35b610171600480360381019061016c919061144c565b610419565b60405161017e91906114f9565b60405180910390f35b6101a1600480360381019061019c919061165a565b610486565b6040516101ae91906116d1565b60405180910390f35b6101d160048036038101906101cc919061144c565b6104cb565b005b6101ed60048036038101906101e89190611718565b6105fd565b005b6102096004803603810190610204919061144c565b61099a565b6040516102169190611787565b60405180910390f35b6102276109b2565b005b610243600480360381019061023e919061186a565b610afe565b005b61024d610ba6565b60405161025a91906118c2565b60405180910390f35b61027d6004803603810190610278919061144c565b610bcf565b005b610299600480360381019061029491906118dd565b610ca1565b6040516102a691906119a5565b60405180910390f35b6102c960048036038101906102c491906119c7565b610d8f565b6040516102d69190611787565b60405180910390f35b6102f960048036038101906102f4919061144c565b610db7565b6040516103069190611787565b60405180910390f35b610329600480360381019061032491906119c7565b610dcf565b6040516103369190611787565b60405180910390f35b610359600480360381019061035491906118dd565b610dfd565b60405161036691906119a5565b60405180910390f35b6103896004803603810190610384919061144c565b610eb6565b005b610393611070565b6040516103a09190611787565b60405180910390f35b6103c360048036038101906103be919061144c565b611076565b005b6103df60048036038101906103da919061144c565b611148565b6040516103ec9190611787565b60405180910390f35b60066020528060005260406000206000915090508060000154908060010154905082565b6104216112d0565b600660008373ffffffffffffffffffffffffffffffffffffffff1673ffffffffffffffffffffffffffffffffffffffff168152602001908152602001600020604051806040016040529081600082015481526020016001820154815250509050919050565b6005828051602081018201805184825260208301602085012081835280955050505050506020528060005260406000206000915091509054906101000a900460ff1681565b6000600660003373ffffffffffffffffffffffffffffffffffffffff1673ffffffffffffffffffffffffffffffffffffffff1681526020019081526020016000206001015411156105fa57600260009054906101000a900473ffffffffffffffffffffffffffffffffffffffff1673ffffffffffffffffffffffffffffffffffffffff1663a9059cbb82600660003373ffffffffffffffffffffffffffffffffffffffff1673ffffffffffffffffffffffffffffffffffffffff168152602001908152602001600020600101546040518363ffffffff1660e01b81526004016105b5929190611a10565b6020604051808303816000875af11580156105d4573d6000803e3d6000fd5b505050506040513d601f19601f820116820180604052508101906105f89190611a65565b505b50565b600260009054906101000a900473ffffffffffffffffffffffffffffffffffffffff1673ffffffffffffffffffffffffffffffffffffffff166323b872dd3330866040518463ffffffff1660e01b815260040161065c93929190611a92565b6020604051808303816000875af115801561067b573d6000803e3d6000fd5b505050506040513d601f19601f8201168201806040525081019061069f9190611a65565b5082600a836040516106b19190611b05565b908152602001604051809103902060008282546106ce9190611b4b565b9250508190555082600b60008282546106e79190611b4b565b9250508190555082600660008373ffffffffffffffffffffffffffffffffffffffff1673ffffffffffffffffffffffffffffffffffffffff16815260200190815260200160002060010160008282546107409190611b4b565b9250508190555061075083611160565b156107e357600160009054906101000a900473ffffffffffffffffffffffffffffffffffffffff1673ffffffffffffffffffffffffffffffffffffffff16636a627842336040518263ffffffff1660e01b81526004016107b091906118c2565b600060405180830381600087803b1580156107ca57600080fd5b505af11580156107de573d6000803e3d6000fd5b505050505b6005826040516107f39190611b05565b908152602001604051809103902060003373ffffffffffffffffffffffffffffffffffffffff1673ffffffffffffffffffffffffffffffffffffffff16815260200190815260200160002060009054906101000a900460ff16610995576001600460003373ffffffffffffffffffffffffffffffffffffffff1673ffffffffffffffffffffffffffffffffffffffff16815260200190815260200160002060008282546108a09190611b4b565b92505081905550600360003373ffffffffffffffffffffffffffffffffffffffff1673ffffffffffffffffffffffffffffffffffffffff1681526020019081526020016000208290806001815401808255809150506001900390600052602060002001600090919091909150908051906020019061091f9291906112ea565b5060016005836040516109329190611b05565b908152602001604051809103902060003373ffffffffffffffffffffffffffffffffffffffff1673ffffffffffffffffffffffffffffffffffffffff16815260200190815260200160002060006101000a81548160ff0219169083151502179055505b505050565b60086020528060005260406000206000915090505481565b3373ffffffffffffffffffffffffffffffffffffffff1660008054906101000a900473ffffffffffffffffffffffffffffffffffffffff1673ffffffffffffffffffffffffffffffffffffffff1614610a40576040517f08c379a0000000000000000000000000000000000000000000000000000000008152600401610a3790611bed565b60405180910390fd5b600073ffffffffffffffffffffffffffffffffffffffff1660008054906101000a900473ffffffffffffffffffffffffffffffffffffffff1673ffffffffffffffffffffffffffffffffffffffff167f8be0079c531659141344cd1fd0a4f28419497f9722a3daafe3b4186f6b6457e060405160405180910390a360008060006101000a81548173ffffffffffffffffffffffffffffffffffffffff021916908373ffffffffffffffffffffffffffffffffffffffff160217905550565b3373ffffffffffffffffffffffffffffffffffffffff1660008054906101000a900473ffffffffffffffffffffffffffffffffffffffff1673ffffffffffffffffffffffffffffffffffffffff1614610b8c576040517f08c379a0000000000000000000000000000000000000000000000000000000008152600401610b8390611bed565b60405180910390fd5b8060099080519060200190610ba2929190611370565b5050565b60008060009054906101000a900473ffffffffffffffffffffffffffffffffffffffff16905090565b3373ffffffffffffffffffffffffffffffffffffffff1660008054906101000a900473ffffffffffffffffffffffffffffffffffffffff1673ffffffffffffffffffffffffffffffffffffffff1614610c5d576040517f08c379a0000000000000000000000000000000000000000000000000000000008152600401610c5490611bed565b60405180910390fd5b80600260006101000a81548173ffffffffffffffffffffffffffffffffffffffff021916908373ffffffffffffffffffffffffffffffffffffffff16021790555050565b6060600360008473ffffffffffffffffffffffffffffffffffffffff1673ffffffffffffffffffffffffffffffffffffffff1681526020019081526020016000208281548110610cf457610cf3611c0d565b5b906000526020600020018054610d0990611c6b565b80601f0160208091040260200160405190810160405280929190818152602001828054610d3590611c6b565b8015610d825780601f10610d5757610100808354040283529160200191610d82565b820191906000526020600020905b815481529060010190602001808311610d6557829003601f168201915b5050505050905092915050565b6000600a82604051610da19190611b05565b9081526020016040518091039020549050919050565b60046020528060005260406000206000915090505481565b600a818051602081018201805184825260208301602085012081835280955050505050506000915090505481565b60036020528160005260406000208181548110610e1957600080fd5b90600052602060002001600091509150508054610e3590611c6b565b80601f0160208091040260200160405190810160405280929190818152602001828054610e6190611c6b565b8015610eae5780601f10610e8357610100808354040283529160200191610eae565b820191906000526020600020905b815481529060010190602001808311610e9157829003601f168201915b505050505081565b3373ffffffffffffffffffffffffffffffffffffffff1660008054906101000a900473ffffffffffffffffffffffffffffffffffffffff1673ffffffffffffffffffffffffffffffffffffffff1614610f44576040517f08c379a0000000000000000000000000000000000000000000000000000000008152600401610f3b90611bed565b60405180910390fd5b600073ffffffffffffffffffffffffffffffffffffffff168173ffffffffffffffffffffffffffffffffffffffff1603610fb3576040517f08c379a0000000000000000000000000000000000000000000000000000000008152600401610faa90611d0e565b60405180910390fd5b8073ffffffffffffffffffffffffffffffffffffffff1660008054906101000a900473ffffffffffffffffffffffffffffffffffffffff1673ffffffffffffffffffffffffffffffffffffffff167f8be0079c531659141344cd1fd0a4f28419497f9722a3daafe3b4186f6b6457e060405160405180910390a3806000806101000a81548173ffffffffffffffffffffffffffffffffffffffff021916908373ffffffffffffffffffffffffffffffffffffffff16021790555050565b600b5481565b3373ffffffffffffffffffffffffffffffffffffffff1660008054906101000a900473ffffffffffffffffffffffffffffffffffffffff1673ffffffffffffffffffffffffffffffffffffffff1614611104576040517f08c379a00000000000000000000000000000000000000000000000000000000081526004016110fb90611bed565b60405180910390fd5b80600160006101000a81548173ffffffffffffffffffffffffffffffffffffffff021916908373ffffffffffffffffffffffffffffffffffffffff16021790555050565b60076020528060005260406000206000915090505481565b600080600760003373ffffffffffffffffffffffffffffffffffffffff1673ffffffffffffffffffffffffffffffffffffffff168152602001908152602001600020549050600083826111b39190611b4b565b905080600760003373ffffffffffffffffffffffffffffffffffffffff1673ffffffffffffffffffffffffffffffffffffffff1681526020019081526020016000208190555081600960008154811061120f5761120e611c0d565b5b9060005260206000200154118015611246575080600960008154811061123857611237611c0d565b5b906000526020600020015411155b15611256576001925050506112cb565b6001600980549050118015611289575081600960018154811061127c5761127b611c0d565b5b9060005260206000200154115b80156112b457508060096001815481106112a6576112a5611c0d565b5b906000526020600020015411155b156112c4576001925050506112cb565b6000925050505b919050565b604051806040016040528060008152602001600081525090565b8280546112f690611c6b565b90600052602060002090601f016020900481019282611318576000855561135f565b82601f1061133157805160ff191683800117855561135f565b8280016001018555821561135f579182015b8281111561135e578251825591602001919060010190611343565b5b50905061136c91906113bd565b5090565b8280548282559060005260206000209081019282156113ac579160200282015b828111156113ab578251825591602001919060010190611390565b5b5090506113b991906113bd565b5090565b5b808211156113d65760008160009055506001016113be565b5090565b6000604051905090565b600080fd5b600080fd5b600073ffffffffffffffffffffffffffffffffffffffff82169050919050565b6000611419826113ee565b9050919050565b6114298161140e565b811461143457600080fd5b50565b60008135905061144681611420565b92915050565b600060208284031215611462576114616113e4565b5b600061147084828501611437565b91505092915050565b6000819050919050565b61148c81611479565b82525050565b60006040820190506114a76000830185611483565b6114b46020830184611483565b9392505050565b6114c481611479565b82525050565b6040820160008201516114e060008501826114bb565b5060208201516114f360208501826114bb565b50505050565b600060408201905061150e60008301846114ca565b92915050565b600080fd5b600080fd5b6000601f19601f8301169050919050565b7f4e487b7100000000000000000000000000000000000000000000000000000000600052604160045260246000fd5b6115678261151e565b810181811067ffffffffffffffff821117156115865761158561152f565b5b80604052505050565b60006115996113da565b90506115a5828261155e565b919050565b600067ffffffffffffffff8211156115c5576115c461152f565b5b6115ce8261151e565b9050602081019050919050565b82818337600083830152505050565b60006115fd6115f8846115aa565b61158f565b90508281526020810184848401111561161957611618611519565b5b6116248482856115db565b509392505050565b600082601f83011261164157611640611514565b5b81356116518482602086016115ea565b91505092915050565b60008060408385031215611671576116706113e4565b5b600083013567ffffffffffffffff81111561168f5761168e6113e9565b5b61169b8582860161162c565b92505060206116ac85828601611437565b9150509250929050565b60008115159050919050565b6116cb816116b6565b82525050565b60006020820190506116e660008301846116c2565b92915050565b6116f581611479565b811461170057600080fd5b50565b600081359050611712816116ec565b92915050565b600080600060608486031215611731576117306113e4565b5b600061173f86828701611703565b935050602084013567ffffffffffffffff8111156117605761175f6113e9565b5b61176c8682870161162c565b925050604061177d86828701611437565b9150509250925092565b600060208201905061179c6000830184611483565b92915050565b600067ffffffffffffffff8211156117bd576117bc61152f565b5b602082029050602081019050919050565b600080fd5b60006117e66117e1846117a2565b61158f565b90508083825260208201905060208402830185811115611809576118086117ce565b5b835b81811015611832578061181e8882611703565b84526020840193505060208101905061180b565b5050509392505050565b600082601f83011261185157611850611514565b5b81356118618482602086016117d3565b91505092915050565b6000602082840312156118805761187f6113e4565b5b600082013567ffffffffffffffff81111561189e5761189d6113e9565b5b6118aa8482850161183c565b91505092915050565b6118bc8161140e565b82525050565b60006020820190506118d760008301846118b3565b92915050565b600080604083850312156118f4576118f36113e4565b5b600061190285828601611437565b925050602061191385828601611703565b9150509250929050565b600081519050919050565b600082825260208201905092915050565b60005b8381101561195757808201518184015260208101905061193c565b83811115611966576000848401525b50505050565b60006119778261191d565b6119818185611928565b9350611991818560208601611939565b61199a8161151e565b840191505092915050565b600060208201905081810360008301526119bf818461196c565b905092915050565b6000602082840312156119dd576119dc6113e4565b5b600082013567ffffffffffffffff8111156119fb576119fa6113e9565b5b611a078482850161162c565b91505092915050565b6000604082019050611a2560008301856118b3565b611a326020830184611483565b9392505050565b611a42816116b6565b8114611a4d57600080fd5b50565b600081519050611a5f81611a39565b92915050565b600060208284031215611a7b57611a7a6113e4565b5b6000611a8984828501611a50565b91505092915050565b6000606082019050611aa760008301866118b3565b611ab460208301856118b3565b611ac16040830184611483565b949350505050565b600081905092915050565b6000611adf8261191d565b611ae98185611ac9565b9350611af9818560208601611939565b80840191505092915050565b6000611b118284611ad4565b915081905092915050565b7f4e487b7100000000000000000000000000000000000000000000000000000000600052601160045260246000fd5b6000611b5682611479565b9150611b6183611479565b9250827fffffffffffffffffffffffffffffffffffffffffffffffffffffffffffffffff03821115611b9657611b95611b1c565b5b828201905092915050565b7f4f776e61626c653a2063616c6c6572206973206e6f7420746865206f776e6572600082015250565b6000611bd7602083611928565b9150611be282611ba1565b602082019050919050565b60006020820190508181036000830152611c0681611bca565b9050919050565b7f4e487b7100000000000000000000000000000000000000000000000000000000600052603260045260246000fd5b7f4e487b7100000000000000000000000000000000000000000000000000000000600052602260045260246000fd5b60006002820490506001821680611c8357607f821691505b602082108103611c9657611c95611c3c565b5b50919050565b7f4f776e61626c653a206e6577206f776e657220697320746865207a65726f206160008201527f6464726573730000000000000000000000000000000000000000000000000000602082015250565b6000611cf8602683611928565b9150611d0382611c9c565b604082019050919050565b60006020820190508181036000830152611d2781611ceb565b905091905056fea2646970667358221220a3dbdb9d57767e0cb23ce8c3fe89848c8d1cfab58ebfe4adeb53c14c08f99c8a64736f6c634300080e0033",
					"opcodes": "PUSH1 0x80 PUSH1 0x40 MSTORE CALLVALUE DUP1 ISZERO PUSH3 0x11 JUMPI PUSH1 0x0 DUP1 REVERT JUMPDEST POP PUSH1 0x40 MLOAD PUSH3 0x21C8 CODESIZE SUB DUP1 PUSH3 0x21C8 DUP4 CODECOPY DUP2 DUP2 ADD PUSH1 0x40 MSTORE DUP2 ADD SWAP1 PUSH3 0x37 SWAP2 SWAP1 PUSH3 0x3EE JUMP JUMPDEST CALLER PUSH1 0x0 DUP1 PUSH2 0x100 EXP DUP2 SLOAD DUP2 PUSH20 0xFFFFFFFFFFFFFFFFFFFFFFFFFFFFFFFFFFFFFFFF MUL NOT AND SWAP1 DUP4 PUSH20 0xFFFFFFFFFFFFFFFFFFFFFFFFFFFFFFFFFFFFFFFF AND MUL OR SWAP1 SSTORE POP PUSH1 0x0 DUP1 SLOAD SWAP1 PUSH2 0x100 EXP SWAP1 DIV PUSH20 0xFFFFFFFFFFFFFFFFFFFFFFFFFFFFFFFFFFFFFFFF AND PUSH20 0xFFFFFFFFFFFFFFFFFFFFFFFFFFFFFFFFFFFFFFFF AND PUSH1 0x0 PUSH20 0xFFFFFFFFFFFFFFFFFFFFFFFFFFFFFFFFFFFFFFFF AND PUSH32 0x8BE0079C531659141344CD1FD0A4F28419497F9722A3DAAFE3B4186F6B6457E0 PUSH1 0x40 MLOAD PUSH1 0x40 MLOAD DUP1 SWAP2 SUB SWAP1 LOG3 DUP2 PUSH1 0x2 PUSH1 0x0 PUSH2 0x100 EXP DUP2 SLOAD DUP2 PUSH20 0xFFFFFFFFFFFFFFFFFFFFFFFFFFFFFFFFFFFFFFFF MUL NOT AND SWAP1 DUP4 PUSH20 0xFFFFFFFFFFFFFFFFFFFFFFFFFFFFFFFFFFFFFFFF AND MUL OR SWAP1 SSTORE POP DUP1 PUSH1 0x9 SWAP1 DUP1 MLOAD SWAP1 PUSH1 0x20 ADD SWAP1 PUSH3 0x14B SWAP3 SWAP2 SWAP1 PUSH3 0x154 JUMP JUMPDEST POP POP POP PUSH3 0x454 JUMP JUMPDEST DUP3 DUP1 SLOAD DUP3 DUP3 SSTORE SWAP1 PUSH1 0x0 MSTORE PUSH1 0x20 PUSH1 0x0 KECCAK256 SWAP1 DUP2 ADD SWAP3 DUP3 ISZERO PUSH3 0x193 JUMPI SWAP2 PUSH1 0x20 MUL DUP3 ADD JUMPDEST DUP3 DUP2 GT ISZERO PUSH3 0x192 JUMPI DUP3 MLOAD DUP3 SSTORE SWAP2 PUSH1 0x20 ADD SWAP2 SWAP1 PUSH1 0x1 ADD SWAP1 PUSH3 0x175 JUMP JUMPDEST JUMPDEST POP SWAP1 POP PUSH3 0x1A2 SWAP2 SWAP1 PUSH3 0x1A6 JUMP JUMPDEST POP SWAP1 JUMP JUMPDEST JUMPDEST DUP1 DUP3 GT ISZERO PUSH3 0x1C1 JUMPI PUSH1 0x0 DUP2 PUSH1 0x0 SWAP1 SSTORE POP PUSH1 0x1 ADD PUSH3 0x1A7 JUMP JUMPDEST POP SWAP1 JUMP JUMPDEST PUSH1 0x0 PUSH1 0x40 MLOAD SWAP1 POP SWAP1 JUMP JUMPDEST PUSH1 0x0 DUP1 REVERT JUMPDEST PUSH1 0x0 DUP1 REVERT JUMPDEST PUSH1 0x0 PUSH20 0xFFFFFFFFFFFFFFFFFFFFFFFFFFFFFFFFFFFFFFFF DUP3 AND SWAP1 POP SWAP2 SWAP1 POP JUMP JUMPDEST PUSH1 0x0 PUSH3 0x206 DUP3 PUSH3 0x1D9 JUMP JUMPDEST SWAP1 POP SWAP2 SWAP1 POP JUMP JUMPDEST PUSH3 0x218 DUP2 PUSH3 0x1F9 JUMP JUMPDEST DUP2 EQ PUSH3 0x224 JUMPI PUSH1 0x0 DUP1 REVERT JUMPDEST POP JUMP JUMPDEST PUSH1 0x0 DUP2 MLOAD SWAP1 POP PUSH3 0x238 DUP2 PUSH3 0x20D JUMP JUMPDEST SWAP3 SWAP2 POP POP JUMP JUMPDEST PUSH1 0x0 DUP1 REVERT JUMPDEST PUSH1 0x0 PUSH1 0x1F NOT PUSH1 0x1F DUP4 ADD AND SWAP1 POP SWAP2 SWAP1 POP JUMP JUMPDEST PUSH32 0x4E487B7100000000000000000000000000000000000000000000000000000000 PUSH1 0x0 MSTORE PUSH1 0x41 PUSH1 0x4 MSTORE PUSH1 0x24 PUSH1 0x0 REVERT JUMPDEST PUSH3 0x28E DUP3 PUSH3 0x243 JUMP JUMPDEST DUP2 ADD DUP2 DUP2 LT PUSH8 0xFFFFFFFFFFFFFFFF DUP3 GT OR ISZERO PUSH3 0x2B0 JUMPI PUSH3 0x2AF PUSH3 0x254 JUMP JUMPDEST JUMPDEST DUP1 PUSH1 0x40 MSTORE POP POP POP JUMP JUMPDEST PUSH1 0x0 PUSH3 0x2C5 PUSH3 0x1C5 JUMP JUMPDEST SWAP1 POP PUSH3 0x2D3 DUP3 DUP3 PUSH3 0x283 JUMP JUMPDEST SWAP2 SWAP1 POP JUMP JUMPDEST PUSH1 0x0 PUSH8 0xFFFFFFFFFFFFFFFF DUP3 GT ISZERO PUSH3 0x2F6 JUMPI PUSH3 0x2F5 PUSH3 0x254 JUMP JUMPDEST JUMPDEST PUSH1 0x20 DUP3 MUL SWAP1 POP PUSH1 0x20 DUP2 ADD SWAP1 POP SWAP2 SWAP1 POP JUMP JUMPDEST PUSH1 0x0 DUP1 REVERT JUMPDEST PUSH1 0x0 DUP2 SWAP1 POP SWAP2 SWAP1 POP JUMP JUMPDEST PUSH3 0x321 DUP2 PUSH3 0x30C JUMP JUMPDEST DUP2 EQ PUSH3 0x32D JUMPI PUSH1 0x0 DUP1 REVERT JUMPDEST POP JUMP JUMPDEST PUSH1 0x0 DUP2 MLOAD SWAP1 POP PUSH3 0x341 DUP2 PUSH3 0x316 JUMP JUMPDEST SWAP3 SWAP2 POP POP JUMP JUMPDEST PUSH1 0x0 PUSH3 0x35E PUSH3 0x358 DUP5 PUSH3 0x2D8 JUMP JUMPDEST PUSH3 0x2B9 JUMP JUMPDEST SWAP1 POP DUP1 DUP4 DUP3 MSTORE PUSH1 0x20 DUP3 ADD SWAP1 POP PUSH1 0x20 DUP5 MUL DUP4 ADD DUP6 DUP2 GT ISZERO PUSH3 0x384 JUMPI PUSH3 0x383 PUSH3 0x307 JUMP JUMPDEST JUMPDEST DUP4 JUMPDEST DUP2 DUP2 LT ISZERO PUSH3 0x3B1 JUMPI DUP1 PUSH3 0x39C DUP9 DUP3 PUSH3 0x330 JUMP JUMPDEST DUP5 MSTORE PUSH1 0x20 DUP5 ADD SWAP4 POP POP PUSH1 0x20 DUP2 ADD SWAP1 POP PUSH3 0x386 JUMP JUMPDEST POP POP POP SWAP4 SWAP3 POP POP POP JUMP JUMPDEST PUSH1 0x0 DUP3 PUSH1 0x1F DUP4 ADD SLT PUSH3 0x3D3 JUMPI PUSH3 0x3D2 PUSH3 0x23E JUMP JUMPDEST JUMPDEST DUP2 MLOAD PUSH3 0x3E5 DUP5 DUP3 PUSH1 0x20 DUP7 ADD PUSH3 0x347 JUMP JUMPDEST SWAP2 POP POP SWAP3 SWAP2 POP POP JUMP JUMPDEST PUSH1 0x0 DUP1 PUSH1 0x40 DUP4 DUP6 SUB SLT ISZERO PUSH3 0x408 JUMPI PUSH3 0x407 PUSH3 0x1CF JUMP JUMPDEST JUMPDEST PUSH1 0x0 PUSH3 0x418 DUP6 DUP3 DUP7 ADD PUSH3 0x227 JUMP JUMPDEST SWAP3 POP POP PUSH1 0x20 DUP4 ADD MLOAD PUSH8 0xFFFFFFFFFFFFFFFF DUP2 GT ISZERO PUSH3 0x43C JUMPI PUSH3 0x43B PUSH3 0x1D4 JUMP JUMPDEST JUMPDEST PUSH3 0x44A DUP6 DUP3 DUP7 ADD PUSH3 0x3BB JUMP JUMPDEST SWAP2 POP POP SWAP3 POP SWAP3 SWAP1 POP JUMP JUMPDEST PUSH2 0x1D64 DUP1 PUSH3 0x464 PUSH1 0x0 CODECOPY PUSH1 0x0 RETURN INVALID PUSH1 0x80 PUSH1 0x40 MSTORE CALLVALUE DUP1 ISZERO PUSH2 0x10 JUMPI PUSH1 0x0 DUP1 REVERT JUMPDEST POP PUSH1 0x4 CALLDATASIZE LT PUSH2 0x121 JUMPI PUSH1 0x0 CALLDATALOAD PUSH1 0xE0 SHR DUP1 PUSH4 0xCAC843AA GT PUSH2 0xAD JUMPI DUP1 PUSH4 0xF0863CCE GT PUSH2 0x71 JUMPI DUP1 PUSH4 0xF0863CCE EQ PUSH2 0x33F JUMPI DUP1 PUSH4 0xF2FDE38B EQ PUSH2 0x36F JUMPI DUP1 PUSH4 0xF839F319 EQ PUSH2 0x38B JUMPI DUP1 PUSH4 0xF8C842E5 EQ PUSH2 0x3A9 JUMPI DUP1 PUSH4 0xFB690DCC EQ PUSH2 0x3C5 JUMPI PUSH2 0x121 JUMP JUMPDEST DUP1 PUSH4 0xCAC843AA EQ PUSH2 0x263 JUMPI DUP1 PUSH4 0xD0D996C4 EQ PUSH2 0x27F JUMPI DUP1 PUSH4 0xD38EF5F1 EQ PUSH2 0x2AF JUMPI DUP1 PUSH4 0xDE0C4C7C EQ PUSH2 0x2DF JUMPI DUP1 PUSH4 0xDE51D1FD EQ PUSH2 0x30F JUMPI PUSH2 0x121 JUMP JUMPDEST DUP1 PUSH4 0x2A108E21 GT PUSH2 0xF4 JUMPI DUP1 PUSH4 0x2A108E21 EQ PUSH2 0x1D3 JUMPI DUP1 PUSH4 0x5D6C83B5 EQ PUSH2 0x1EF JUMPI DUP1 PUSH4 0x715018A6 EQ PUSH2 0x21F JUMPI DUP1 PUSH4 0x82B670E4 EQ PUSH2 0x229 JUMPI DUP1 PUSH4 0x8DA5CB5B EQ PUSH2 0x245 JUMPI PUSH2 0x121 JUMP JUMPDEST DUP1 PUSH4 0x660F1E8 EQ PUSH2 0x126 JUMPI DUP1 PUSH4 0x78B0FB7 EQ PUSH2 0x157 JUMPI DUP1 PUSH4 0xB21D7A2 EQ PUSH2 0x187 JUMPI DUP1 PUSH4 0x1E83409A EQ PUSH2 0x1B7 JUMPI JUMPDEST PUSH1 0x0 DUP1 REVERT JUMPDEST PUSH2 0x140 PUSH1 0x4 DUP1 CALLDATASIZE SUB DUP2 ADD SWAP1 PUSH2 0x13B SWAP2 SWAP1 PUSH2 0x144C JUMP JUMPDEST PUSH2 0x3F5 JUMP JUMPDEST PUSH1 0x40 MLOAD PUSH2 0x14E SWAP3 SWAP2 SWAP1 PUSH2 0x1492 JUMP JUMPDEST PUSH1 0x40 MLOAD DUP1 SWAP2 SUB SWAP1 RETURN JUMPDEST PUSH2 0x171 PUSH1 0x4 DUP1 CALLDATASIZE SUB DUP2 ADD SWAP1 PUSH2 0x16C SWAP2 SWAP1 PUSH2 0x144C JUMP JUMPDEST PUSH2 0x419 JUMP JUMPDEST PUSH1 0x40 MLOAD PUSH2 0x17E SWAP2 SWAP1 PUSH2 0x14F9 JUMP JUMPDEST PUSH1 0x40 MLOAD DUP1 SWAP2 SUB SWAP1 RETURN JUMPDEST PUSH2 0x1A1 PUSH1 0x4 DUP1 CALLDATASIZE SUB DUP2 ADD SWAP1 PUSH2 0x19C SWAP2 SWAP1 PUSH2 0x165A JUMP JUMPDEST PUSH2 0x486 JUMP JUMPDEST PUSH1 0x40 MLOAD PUSH2 0x1AE SWAP2 SWAP1 PUSH2 0x16D1 JUMP JUMPDEST PUSH1 0x40 MLOAD DUP1 SWAP2 SUB SWAP1 RETURN JUMPDEST PUSH2 0x1D1 PUSH1 0x4 DUP1 CALLDATASIZE SUB DUP2 ADD SWAP1 PUSH2 0x1CC SWAP2 SWAP1 PUSH2 0x144C JUMP JUMPDEST PUSH2 0x4CB JUMP JUMPDEST STOP JUMPDEST PUSH2 0x1ED PUSH1 0x4 DUP1 CALLDATASIZE SUB DUP2 ADD SWAP1 PUSH2 0x1E8 SWAP2 SWAP1 PUSH2 0x1718 JUMP JUMPDEST PUSH2 0x5FD JUMP JUMPDEST STOP JUMPDEST PUSH2 0x209 PUSH1 0x4 DUP1 CALLDATASIZE SUB DUP2 ADD SWAP1 PUSH2 0x204 SWAP2 SWAP1 PUSH2 0x144C JUMP JUMPDEST PUSH2 0x99A JUMP JUMPDEST PUSH1 0x40 MLOAD PUSH2 0x216 SWAP2 SWAP1 PUSH2 0x1787 JUMP JUMPDEST PUSH1 0x40 MLOAD DUP1 SWAP2 SUB SWAP1 RETURN JUMPDEST PUSH2 0x227 PUSH2 0x9B2 JUMP JUMPDEST STOP JUMPDEST PUSH2 0x243 PUSH1 0x4 DUP1 CALLDATASIZE SUB DUP2 ADD SWAP1 PUSH2 0x23E SWAP2 SWAP1 PUSH2 0x186A JUMP JUMPDEST PUSH2 0xAFE JUMP JUMPDEST STOP JUMPDEST PUSH2 0x24D PUSH2 0xBA6 JUMP JUMPDEST PUSH1 0x40 MLOAD PUSH2 0x25A SWAP2 SWAP1 PUSH2 0x18C2 JUMP JUMPDEST PUSH1 0x40 MLOAD DUP1 SWAP2 SUB SWAP1 RETURN JUMPDEST PUSH2 0x27D PUSH1 0x4 DUP1 CALLDATASIZE SUB DUP2 ADD SWAP1 PUSH2 0x278 SWAP2 SWAP1 PUSH2 0x144C JUMP JUMPDEST PUSH2 0xBCF JUMP JUMPDEST STOP JUMPDEST PUSH2 0x299 PUSH1 0x4 DUP1 CALLDATASIZE SUB DUP2 ADD SWAP1 PUSH2 0x294 SWAP2 SWAP1 PUSH2 0x18DD JUMP JUMPDEST PUSH2 0xCA1 JUMP JUMPDEST PUSH1 0x40 MLOAD PUSH2 0x2A6 SWAP2 SWAP1 PUSH2 0x19A5 JUMP JUMPDEST PUSH1 0x40 MLOAD DUP1 SWAP2 SUB SWAP1 RETURN JUMPDEST PUSH2 0x2C9 PUSH1 0x4 DUP1 CALLDATASIZE SUB DUP2 ADD SWAP1 PUSH2 0x2C4 SWAP2 SWAP1 PUSH2 0x19C7 JUMP JUMPDEST PUSH2 0xD8F JUMP JUMPDEST PUSH1 0x40 MLOAD PUSH2 0x2D6 SWAP2 SWAP1 PUSH2 0x1787 JUMP JUMPDEST PUSH1 0x40 MLOAD DUP1 SWAP2 SUB SWAP1 RETURN JUMPDEST PUSH2 0x2F9 PUSH1 0x4 DUP1 CALLDATASIZE SUB DUP2 ADD SWAP1 PUSH2 0x2F4 SWAP2 SWAP1 PUSH2 0x144C JUMP JUMPDEST PUSH2 0xDB7 JUMP JUMPDEST PUSH1 0x40 MLOAD PUSH2 0x306 SWAP2 SWAP1 PUSH2 0x1787 JUMP JUMPDEST PUSH1 0x40 MLOAD DUP1 SWAP2 SUB SWAP1 RETURN JUMPDEST PUSH2 0x329 PUSH1 0x4 DUP1 CALLDATASIZE SUB DUP2 ADD SWAP1 PUSH2 0x324 SWAP2 SWAP1 PUSH2 0x19C7 JUMP JUMPDEST PUSH2 0xDCF JUMP JUMPDEST PUSH1 0x40 MLOAD PUSH2 0x336 SWAP2 SWAP1 PUSH2 0x1787 JUMP JUMPDEST PUSH1 0x40 MLOAD DUP1 SWAP2 SUB SWAP1 RETURN JUMPDEST PUSH2 0x359 PUSH1 0x4 DUP1 CALLDATASIZE SUB DUP2 ADD SWAP1 PUSH2 0x354 SWAP2 SWAP1 PUSH2 0x18DD JUMP JUMPDEST PUSH2 0xDFD JUMP JUMPDEST PUSH1 0x40 MLOAD PUSH2 0x366 SWAP2 SWAP1 PUSH2 0x19A5 JUMP JUMPDEST PUSH1 0x40 MLOAD DUP1 SWAP2 SUB SWAP1 RETURN JUMPDEST PUSH2 0x389 PUSH1 0x4 DUP1 CALLDATASIZE SUB DUP2 ADD SWAP1 PUSH2 0x384 SWAP2 SWAP1 PUSH2 0x144C JUMP JUMPDEST PUSH2 0xEB6 JUMP JUMPDEST STOP JUMPDEST PUSH2 0x393 PUSH2 0x1070 JUMP JUMPDEST PUSH1 0x40 MLOAD PUSH2 0x3A0 SWAP2 SWAP1 PUSH2 0x1787 JUMP JUMPDEST PUSH1 0x40 MLOAD DUP1 SWAP2 SUB SWAP1 RETURN JUMPDEST PUSH2 0x3C3 PUSH1 0x4 DUP1 CALLDATASIZE SUB DUP2 ADD SWAP1 PUSH2 0x3BE SWAP2 SWAP1 PUSH2 0x144C JUMP JUMPDEST PUSH2 0x1076 JUMP JUMPDEST STOP JUMPDEST PUSH2 0x3DF PUSH1 0x4 DUP1 CALLDATASIZE SUB DUP2 ADD SWAP1 PUSH2 0x3DA SWAP2 SWAP1 PUSH2 0x144C JUMP JUMPDEST PUSH2 0x1148 JUMP JUMPDEST PUSH1 0x40 MLOAD PUSH2 0x3EC SWAP2 SWAP1 PUSH2 0x1787 JUMP JUMPDEST PUSH1 0x40 MLOAD DUP1 SWAP2 SUB SWAP1 RETURN JUMPDEST PUSH1 0x6 PUSH1 0x20 MSTORE DUP1 PUSH1 0x0 MSTORE PUSH1 0x40 PUSH1 0x0 KECCAK256 PUSH1 0x0 SWAP2 POP SWAP1 POP DUP1 PUSH1 0x0 ADD SLOAD SWAP1 DUP1 PUSH1 0x1 ADD SLOAD SWAP1 POP DUP3 JUMP JUMPDEST PUSH2 0x421 PUSH2 0x12D0 JUMP JUMPDEST PUSH1 0x6 PUSH1 0x0 DUP4 PUSH20 0xFFFFFFFFFFFFFFFFFFFFFFFFFFFFFFFFFFFFFFFF AND PUSH20 0xFFFFFFFFFFFFFFFFFFFFFFFFFFFFFFFFFFFFFFFF AND DUP2 MSTORE PUSH1 0x20 ADD SWAP1 DUP2 MSTORE PUSH1 0x20 ADD PUSH1 0x0 KECCAK256 PUSH1 0x40 MLOAD DUP1 PUSH1 0x40 ADD PUSH1 0x40 MSTORE SWAP1 DUP2 PUSH1 0x0 DUP3 ADD SLOAD DUP2 MSTORE PUSH1 0x20 ADD PUSH1 0x1 DUP3 ADD SLOAD DUP2 MSTORE POP POP SWAP1 POP SWAP2 SWAP1 POP JUMP JUMPDEST PUSH1 0x5 DUP3 DUP1 MLOAD PUSH1 0x20 DUP2 ADD DUP3 ADD DUP1 MLOAD DUP5 DUP3 MSTORE PUSH1 0x20 DUP4 ADD PUSH1 0x20 DUP6 ADD KECCAK256 DUP2 DUP4 MSTORE DUP1 SWAP6 POP POP POP POP POP POP PUSH1 0x20 MSTORE DUP1 PUSH1 0x0 MSTORE PUSH1 0x40 PUSH1 0x0 KECCAK256 PUSH1 0x0 SWAP2 POP SWAP2 POP SWAP1 SLOAD SWAP1 PUSH2 0x100 EXP SWAP1 DIV PUSH1 0xFF AND DUP2 JUMP JUMPDEST PUSH1 0x0 PUSH1 0x6 PUSH1 0x0 CALLER PUSH20 0xFFFFFFFFFFFFFFFFFFFFFFFFFFFFFFFFFFFFFFFF AND PUSH20 0xFFFFFFFFFFFFFFFFFFFFFFFFFFFFFFFFFFFFFFFF AND DUP2 MSTORE PUSH1 0x20 ADD SWAP1 DUP2 MSTORE PUSH1 0x20 ADD PUSH1 0x0 KECCAK256 PUSH1 0x1 ADD SLOAD GT ISZERO PUSH2 0x5FA JUMPI PUSH1 0x2 PUSH1 0x0 SWAP1 SLOAD SWAP1 PUSH2 0x100 EXP SWAP1 DIV PUSH20 0xFFFFFFFFFFFFFFFFFFFFFFFFFFFFFFFFFFFFFFFF AND PUSH20 0xFFFFFFFFFFFFFFFFFFFFFFFFFFFFFFFFFFFFFFFF AND PUSH4 0xA9059CBB DUP3 PUSH1 0x6 PUSH1 0x0 CALLER PUSH20 0xFFFFFFFFFFFFFFFFFFFFFFFFFFFFFFFFFFFFFFFF AND PUSH20 0xFFFFFFFFFFFFFFFFFFFFFFFFFFFFFFFFFFFFFFFF AND DUP2 MSTORE PUSH1 0x20 ADD SWAP1 DUP2 MSTORE PUSH1 0x20 ADD PUSH1 0x0 KECCAK256 PUSH1 0x1 ADD SLOAD PUSH1 0x40 MLOAD DUP4 PUSH4 0xFFFFFFFF AND PUSH1 0xE0 SHL DUP2 MSTORE PUSH1 0x4 ADD PUSH2 0x5B5 SWAP3 SWAP2 SWAP1 PUSH2 0x1A10 JUMP JUMPDEST PUSH1 0x20 PUSH1 0x40 MLOAD DUP1 DUP4 SUB DUP2 PUSH1 0x0 DUP8 GAS CALL ISZERO DUP1 ISZERO PUSH2 0x5D4 JUMPI RETURNDATASIZE PUSH1 0x0 DUP1 RETURNDATACOPY RETURNDATASIZE PUSH1 0x0 REVERT JUMPDEST POP POP POP POP PUSH1 0x40 MLOAD RETURNDATASIZE PUSH1 0x1F NOT PUSH1 0x1F DUP3 ADD AND DUP3 ADD DUP1 PUSH1 0x40 MSTORE POP DUP2 ADD SWAP1 PUSH2 0x5F8 SWAP2 SWAP1 PUSH2 0x1A65 JUMP JUMPDEST POP JUMPDEST POP JUMP JUMPDEST PUSH1 0x2 PUSH1 0x0 SWAP1 SLOAD SWAP1 PUSH2 0x100 EXP SWAP1 DIV PUSH20 0xFFFFFFFFFFFFFFFFFFFFFFFFFFFFFFFFFFFFFFFF AND PUSH20 0xFFFFFFFFFFFFFFFFFFFFFFFFFFFFFFFFFFFFFFFF AND PUSH4 0x23B872DD CALLER ADDRESS DUP7 PUSH1 0x40 MLOAD DUP5 PUSH4 0xFFFFFFFF AND PUSH1 0xE0 SHL DUP2 MSTORE PUSH1 0x4 ADD PUSH2 0x65C SWAP4 SWAP3 SWAP2 SWAP1 PUSH2 0x1A92 JUMP JUMPDEST PUSH1 0x20 PUSH1 0x40 MLOAD DUP1 DUP4 SUB DUP2 PUSH1 0x0 DUP8 GAS CALL ISZERO DUP1 ISZERO PUSH2 0x67B JUMPI RETURNDATASIZE PUSH1 0x0 DUP1 RETURNDATACOPY RETURNDATASIZE PUSH1 0x0 REVERT JUMPDEST POP POP POP POP PUSH1 0x40 MLOAD RETURNDATASIZE PUSH1 0x1F NOT PUSH1 0x1F DUP3 ADD AND DUP3 ADD DUP1 PUSH1 0x40 MSTORE POP DUP2 ADD SWAP1 PUSH2 0x69F SWAP2 SWAP1 PUSH2 0x1A65 JUMP JUMPDEST POP DUP3 PUSH1 0xA DUP4 PUSH1 0x40 MLOAD PUSH2 0x6B1 SWAP2 SWAP1 PUSH2 0x1B05 JUMP JUMPDEST SWAP1 DUP2 MSTORE PUSH1 0x20 ADD PUSH1 0x40 MLOAD DUP1 SWAP2 SUB SWAP1 KECCAK256 PUSH1 0x0 DUP3 DUP3 SLOAD PUSH2 0x6CE SWAP2 SWAP1 PUSH2 0x1B4B JUMP JUMPDEST SWAP3 POP POP DUP2 SWAP1 SSTORE POP DUP3 PUSH1 0xB PUSH1 0x0 DUP3 DUP3 SLOAD PUSH2 0x6E7 SWAP2 SWAP1 PUSH2 0x1B4B JUMP JUMPDEST SWAP3 POP POP DUP2 SWAP1 SSTORE POP DUP3 PUSH1 0x6 PUSH1 0x0 DUP4 PUSH20 0xFFFFFFFFFFFFFFFFFFFFFFFFFFFFFFFFFFFFFFFF AND PUSH20 0xFFFFFFFFFFFFFFFFFFFFFFFFFFFFFFFFFFFFFFFF AND DUP2 MSTORE PUSH1 0x20 ADD SWAP1 DUP2 MSTORE PUSH1 0x20 ADD PUSH1 0x0 KECCAK256 PUSH1 0x1 ADD PUSH1 0x0 DUP3 DUP3 SLOAD PUSH2 0x740 SWAP2 SWAP1 PUSH2 0x1B4B JUMP JUMPDEST SWAP3 POP POP DUP2 SWAP1 SSTORE POP PUSH2 0x750 DUP4 PUSH2 0x1160 JUMP JUMPDEST ISZERO PUSH2 0x7E3 JUMPI PUSH1 0x1 PUSH1 0x0 SWAP1 SLOAD SWAP1 PUSH2 0x100 EXP SWAP1 DIV PUSH20 0xFFFFFFFFFFFFFFFFFFFFFFFFFFFFFFFFFFFFFFFF AND PUSH20 0xFFFFFFFFFFFFFFFFFFFFFFFFFFFFFFFFFFFFFFFF AND PUSH4 0x6A627842 CALLER PUSH1 0x40 MLOAD DUP3 PUSH4 0xFFFFFFFF AND PUSH1 0xE0 SHL DUP2 MSTORE PUSH1 0x4 ADD PUSH2 0x7B0 SWAP2 SWAP1 PUSH2 0x18C2 JUMP JUMPDEST PUSH1 0x0 PUSH1 0x40 MLOAD DUP1 DUP4 SUB DUP2 PUSH1 0x0 DUP8 DUP1 EXTCODESIZE ISZERO DUP1 ISZERO PUSH2 0x7CA JUMPI PUSH1 0x0 DUP1 REVERT JUMPDEST POP GAS CALL ISZERO DUP1 ISZERO PUSH2 0x7DE JUMPI RETURNDATASIZE PUSH1 0x0 DUP1 RETURNDATACOPY RETURNDATASIZE PUSH1 0x0 REVERT JUMPDEST POP POP POP POP JUMPDEST PUSH1 0x5 DUP3 PUSH1 0x40 MLOAD PUSH2 0x7F3 SWAP2 SWAP1 PUSH2 0x1B05 JUMP JUMPDEST SWAP1 DUP2 MSTORE PUSH1 0x20 ADD PUSH1 0x40 MLOAD DUP1 SWAP2 SUB SWAP1 KECCAK256 PUSH1 0x0 CALLER PUSH20 0xFFFFFFFFFFFFFFFFFFFFFFFFFFFFFFFFFFFFFFFF AND PUSH20 0xFFFFFFFFFFFFFFFFFFFFFFFFFFFFFFFFFFFFFFFF AND DUP2 MSTORE PUSH1 0x20 ADD SWAP1 DUP2 MSTORE PUSH1 0x20 ADD PUSH1 0x0 KECCAK256 PUSH1 0x0 SWAP1 SLOAD SWAP1 PUSH2 0x100 EXP SWAP1 DIV PUSH1 0xFF AND PUSH2 0x995 JUMPI PUSH1 0x1 PUSH1 0x4 PUSH1 0x0 CALLER PUSH20 0xFFFFFFFFFFFFFFFFFFFFFFFFFFFFFFFFFFFFFFFF AND PUSH20 0xFFFFFFFFFFFFFFFFFFFFFFFFFFFFFFFFFFFFFFFF AND DUP2 MSTORE PUSH1 0x20 ADD SWAP1 DUP2 MSTORE PUSH1 0x20 ADD PUSH1 0x0 KECCAK256 PUSH1 0x0 DUP3 DUP3 SLOAD PUSH2 0x8A0 SWAP2 SWAP1 PUSH2 0x1B4B JUMP JUMPDEST SWAP3 POP POP DUP2 SWAP1 SSTORE POP PUSH1 0x3 PUSH1 0x0 CALLER PUSH20 0xFFFFFFFFFFFFFFFFFFFFFFFFFFFFFFFFFFFFFFFF AND PUSH20 0xFFFFFFFFFFFFFFFFFFFFFFFFFFFFFFFFFFFFFFFF AND DUP2 MSTORE PUSH1 0x20 ADD SWAP1 DUP2 MSTORE PUSH1 0x20 ADD PUSH1 0x0 KECCAK256 DUP3 SWAP1 DUP1 PUSH1 0x1 DUP2 SLOAD ADD DUP1 DUP3 SSTORE DUP1 SWAP2 POP POP PUSH1 0x1 SWAP1 SUB SWAP1 PUSH1 0x0 MSTORE PUSH1 0x20 PUSH1 0x0 KECCAK256 ADD PUSH1 0x0 SWAP1 SWAP2 SWAP1 SWAP2 SWAP1 SWAP2 POP SWAP1 DUP1 MLOAD SWAP1 PUSH1 0x20 ADD SWAP1 PUSH2 0x91F SWAP3 SWAP2 SWAP1 PUSH2 0x12EA JUMP JUMPDEST POP PUSH1 0x1 PUSH1 0x5 DUP4 PUSH1 0x40 MLOAD PUSH2 0x932 SWAP2 SWAP1 PUSH2 0x1B05 JUMP JUMPDEST SWAP1 DUP2 MSTORE PUSH1 0x20 ADD PUSH1 0x40 MLOAD DUP1 SWAP2 SUB SWAP1 KECCAK256 PUSH1 0x0 CALLER PUSH20 0xFFFFFFFFFFFFFFFFFFFFFFFFFFFFFFFFFFFFFFFF AND PUSH20 0xFFFFFFFFFFFFFFFFFFFFFFFFFFFFFFFFFFFFFFFF AND DUP2 MSTORE PUSH1 0x20 ADD SWAP1 DUP2 MSTORE PUSH1 0x20 ADD PUSH1 0x0 KECCAK256 PUSH1 0x0 PUSH2 0x100 EXP DUP2 SLOAD DUP2 PUSH1 0xFF MUL NOT AND SWAP1 DUP4 ISZERO ISZERO MUL OR SWAP1 SSTORE POP JUMPDEST POP POP POP JUMP JUMPDEST PUSH1 0x8 PUSH1 0x20 MSTORE DUP1 PUSH1 0x0 MSTORE PUSH1 0x40 PUSH1 0x0 KECCAK256 PUSH1 0x0 SWAP2 POP SWAP1 POP SLOAD DUP2 JUMP JUMPDEST CALLER PUSH20 0xFFFFFFFFFFFFFFFFFFFFFFFFFFFFFFFFFFFFFFFF AND PUSH1 0x0 DUP1 SLOAD SWAP1 PUSH2 0x100 EXP SWAP1 DIV PUSH20 0xFFFFFFFFFFFFFFFFFFFFFFFFFFFFFFFFFFFFFFFF AND PUSH20 0xFFFFFFFFFFFFFFFFFFFFFFFFFFFFFFFFFFFFFFFF AND EQ PUSH2 0xA40 JUMPI PUSH1 0x40 MLOAD PUSH32 0x8C379A000000000000000000000000000000000000000000000000000000000 DUP2 MSTORE PUSH1 0x4 ADD PUSH2 0xA37 SWAP1 PUSH2 0x1BED JUMP JUMPDEST PUSH1 0x40 MLOAD DUP1 SWAP2 SUB SWAP1 REVERT JUMPDEST PUSH1 0x0 PUSH20 0xFFFFFFFFFFFFFFFFFFFFFFFFFFFFFFFFFFFFFFFF AND PUSH1 0x0 DUP1 SLOAD SWAP1 PUSH2 0x100 EXP SWAP1 DIV PUSH20 0xFFFFFFFFFFFFFFFFFFFFFFFFFFFFFFFFFFFFFFFF AND PUSH20 0xFFFFFFFFFFFFFFFFFFFFFFFFFFFFFFFFFFFFFFFF AND PUSH32 0x8BE0079C531659141344CD1FD0A4F28419497F9722A3DAAFE3B4186F6B6457E0 PUSH1 0x40 MLOAD PUSH1 0x40 MLOAD DUP1 SWAP2 SUB SWAP1 LOG3 PUSH1 0x0 DUP1 PUSH1 0x0 PUSH2 0x100 EXP DUP2 SLOAD DUP2 PUSH20 0xFFFFFFFFFFFFFFFFFFFFFFFFFFFFFFFFFFFFFFFF MUL NOT AND SWAP1 DUP4 PUSH20 0xFFFFFFFFFFFFFFFFFFFFFFFFFFFFFFFFFFFFFFFF AND MUL OR SWAP1 SSTORE POP JUMP JUMPDEST CALLER PUSH20 0xFFFFFFFFFFFFFFFFFFFFFFFFFFFFFFFFFFFFFFFF AND PUSH1 0x0 DUP1 SLOAD SWAP1 PUSH2 0x100 EXP SWAP1 DIV PUSH20 0xFFFFFFFFFFFFFFFFFFFFFFFFFFFFFFFFFFFFFFFF AND PUSH20 0xFFFFFFFFFFFFFFFFFFFFFFFFFFFFFFFFFFFFFFFF AND EQ PUSH2 0xB8C JUMPI PUSH1 0x40 MLOAD PUSH32 0x8C379A000000000000000000000000000000000000000000000000000000000 DUP2 MSTORE PUSH1 0x4 ADD PUSH2 0xB83 SWAP1 PUSH2 0x1BED JUMP JUMPDEST PUSH1 0x40 MLOAD DUP1 SWAP2 SUB SWAP1 REVERT JUMPDEST DUP1 PUSH1 0x9 SWAP1 DUP1 MLOAD SWAP1 PUSH1 0x20 ADD SWAP1 PUSH2 0xBA2 SWAP3 SWAP2 SWAP1 PUSH2 0x1370 JUMP JUMPDEST POP POP JUMP JUMPDEST PUSH1 0x0 DUP1 PUSH1 0x0 SWAP1 SLOAD SWAP1 PUSH2 0x100 EXP SWAP1 DIV PUSH20 0xFFFFFFFFFFFFFFFFFFFFFFFFFFFFFFFFFFFFFFFF AND SWAP1 POP SWAP1 JUMP JUMPDEST CALLER PUSH20 0xFFFFFFFFFFFFFFFFFFFFFFFFFFFFFFFFFFFFFFFF AND PUSH1 0x0 DUP1 SLOAD SWAP1 PUSH2 0x100 EXP SWAP1 DIV PUSH20 0xFFFFFFFFFFFFFFFFFFFFFFFFFFFFFFFFFFFFFFFF AND PUSH20 0xFFFFFFFFFFFFFFFFFFFFFFFFFFFFFFFFFFFFFFFF AND EQ PUSH2 0xC5D JUMPI PUSH1 0x40 MLOAD PUSH32 0x8C379A000000000000000000000000000000000000000000000000000000000 DUP2 MSTORE PUSH1 0x4 ADD PUSH2 0xC54 SWAP1 PUSH2 0x1BED JUMP JUMPDEST PUSH1 0x40 MLOAD DUP1 SWAP2 SUB SWAP1 REVERT JUMPDEST DUP1 PUSH1 0x2 PUSH1 0x0 PUSH2 0x100 EXP DUP2 SLOAD DUP2 PUSH20 0xFFFFFFFFFFFFFFFFFFFFFFFFFFFFFFFFFFFFFFFF MUL NOT AND SWAP1 DUP4 PUSH20 0xFFFFFFFFFFFFFFFFFFFFFFFFFFFFFFFFFFFFFFFF AND MUL OR SWAP1 SSTORE POP POP JUMP JUMPDEST PUSH1 0x60 PUSH1 0x3 PUSH1 0x0 DUP5 PUSH20 0xFFFFFFFFFFFFFFFFFFFFFFFFFFFFFFFFFFFFFFFF AND PUSH20 0xFFFFFFFFFFFFFFFFFFFFFFFFFFFFFFFFFFFFFFFF AND DUP2 MSTORE PUSH1 0x20 ADD SWAP1 DUP2 MSTORE PUSH1 0x20 ADD PUSH1 0x0 KECCAK256 DUP3 DUP2 SLOAD DUP2 LT PUSH2 0xCF4 JUMPI PUSH2 0xCF3 PUSH2 0x1C0D JUMP JUMPDEST JUMPDEST SWAP1 PUSH1 0x0 MSTORE PUSH1 0x20 PUSH1 0x0 KECCAK256 ADD DUP1 SLOAD PUSH2 0xD09 SWAP1 PUSH2 0x1C6B JUMP JUMPDEST DUP1 PUSH1 0x1F ADD PUSH1 0x20 DUP1 SWAP2 DIV MUL PUSH1 0x20 ADD PUSH1 0x40 MLOAD SWAP1 DUP2 ADD PUSH1 0x40 MSTORE DUP1 SWAP3 SWAP2 SWAP1 DUP2 DUP2 MSTORE PUSH1 0x20 ADD DUP3 DUP1 SLOAD PUSH2 0xD35 SWAP1 PUSH2 0x1C6B JUMP JUMPDEST DUP1 ISZERO PUSH2 0xD82 JUMPI DUP1 PUSH1 0x1F LT PUSH2 0xD57 JUMPI PUSH2 0x100 DUP1 DUP4 SLOAD DIV MUL DUP4 MSTORE SWAP2 PUSH1 0x20 ADD SWAP2 PUSH2 0xD82 JUMP JUMPDEST DUP3 ADD SWAP2 SWAP1 PUSH1 0x0 MSTORE PUSH1 0x20 PUSH1 0x0 KECCAK256 SWAP1 JUMPDEST DUP2 SLOAD DUP2 MSTORE SWAP1 PUSH1 0x1 ADD SWAP1 PUSH1 0x20 ADD DUP1 DUP4 GT PUSH2 0xD65 JUMPI DUP3 SWAP1 SUB PUSH1 0x1F AND DUP3 ADD SWAP2 JUMPDEST POP POP POP POP POP SWAP1 POP SWAP3 SWAP2 POP POP JUMP JUMPDEST PUSH1 0x0 PUSH1 0xA DUP3 PUSH1 0x40 MLOAD PUSH2 0xDA1 SWAP2 SWAP1 PUSH2 0x1B05 JUMP JUMPDEST SWAP1 DUP2 MSTORE PUSH1 0x20 ADD PUSH1 0x40 MLOAD DUP1 SWAP2 SUB SWAP1 KECCAK256 SLOAD SWAP1 POP SWAP2 SWAP1 POP JUMP JUMPDEST PUSH1 0x4 PUSH1 0x20 MSTORE DUP1 PUSH1 0x0 MSTORE PUSH1 0x40 PUSH1 0x0 KECCAK256 PUSH1 0x0 SWAP2 POP SWAP1 POP SLOAD DUP2 JUMP JUMPDEST PUSH1 0xA DUP2 DUP1 MLOAD PUSH1 0x20 DUP2 ADD DUP3 ADD DUP1 MLOAD DUP5 DUP3 MSTORE PUSH1 0x20 DUP4 ADD PUSH1 0x20 DUP6 ADD KECCAK256 DUP2 DUP4 MSTORE DUP1 SWAP6 POP POP POP POP POP POP PUSH1 0x0 SWAP2 POP SWAP1 POP SLOAD DUP2 JUMP JUMPDEST PUSH1 0x3 PUSH1 0x20 MSTORE DUP2 PUSH1 0x0 MSTORE PUSH1 0x40 PUSH1 0x0 KECCAK256 DUP2 DUP2 SLOAD DUP2 LT PUSH2 0xE19 JUMPI PUSH1 0x0 DUP1 REVERT JUMPDEST SWAP1 PUSH1 0x0 MSTORE PUSH1 0x20 PUSH1 0x0 KECCAK256 ADD PUSH1 0x0 SWAP2 POP SWAP2 POP POP DUP1 SLOAD PUSH2 0xE35 SWAP1 PUSH2 0x1C6B JUMP JUMPDEST DUP1 PUSH1 0x1F ADD PUSH1 0x20 DUP1 SWAP2 DIV MUL PUSH1 0x20 ADD PUSH1 0x40 MLOAD SWAP1 DUP2 ADD PUSH1 0x40 MSTORE DUP1 SWAP3 SWAP2 SWAP1 DUP2 DUP2 MSTORE PUSH1 0x20 ADD DUP3 DUP1 SLOAD PUSH2 0xE61 SWAP1 PUSH2 0x1C6B JUMP JUMPDEST DUP1 ISZERO PUSH2 0xEAE JUMPI DUP1 PUSH1 0x1F LT PUSH2 0xE83 JUMPI PUSH2 0x100 DUP1 DUP4 SLOAD DIV MUL DUP4 MSTORE SWAP2 PUSH1 0x20 ADD SWAP2 PUSH2 0xEAE JUMP JUMPDEST DUP3 ADD SWAP2 SWAP1 PUSH1 0x0 MSTORE PUSH1 0x20 PUSH1 0x0 KECCAK256 SWAP1 JUMPDEST DUP2 SLOAD DUP2 MSTORE SWAP1 PUSH1 0x1 ADD SWAP1 PUSH1 0x20 ADD DUP1 DUP4 GT PUSH2 0xE91 JUMPI DUP3 SWAP1 SUB PUSH1 0x1F AND DUP3 ADD SWAP2 JUMPDEST POP POP POP POP POP DUP2 JUMP JUMPDEST CALLER PUSH20 0xFFFFFFFFFFFFFFFFFFFFFFFFFFFFFFFFFFFFFFFF AND PUSH1 0x0 DUP1 SLOAD SWAP1 PUSH2 0x100 EXP SWAP1 DIV PUSH20 0xFFFFFFFFFFFFFFFFFFFFFFFFFFFFFFFFFFFFFFFF AND PUSH20 0xFFFFFFFFFFFFFFFFFFFFFFFFFFFFFFFFFFFFFFFF AND EQ PUSH2 0xF44 JUMPI PUSH1 0x40 MLOAD PUSH32 0x8C379A000000000000000000000000000000000000000000000000000000000 DUP2 MSTORE PUSH1 0x4 ADD PUSH2 0xF3B SWAP1 PUSH2 0x1BED JUMP JUMPDEST PUSH1 0x40 MLOAD DUP1 SWAP2 SUB SWAP1 REVERT JUMPDEST PUSH1 0x0 PUSH20 0xFFFFFFFFFFFFFFFFFFFFFFFFFFFFFFFFFFFFFFFF AND DUP2 PUSH20 0xFFFFFFFFFFFFFFFFFFFFFFFFFFFFFFFFFFFFFFFF AND SUB PUSH2 0xFB3 JUMPI PUSH1 0x40 MLOAD PUSH32 0x8C379A000000000000000000000000000000000000000000000000000000000 DUP2 MSTORE PUSH1 0x4 ADD PUSH2 0xFAA SWAP1 PUSH2 0x1D0E JUMP JUMPDEST PUSH1 0x40 MLOAD DUP1 SWAP2 SUB SWAP1 REVERT JUMPDEST DUP1 PUSH20 0xFFFFFFFFFFFFFFFFFFFFFFFFFFFFFFFFFFFFFFFF AND PUSH1 0x0 DUP1 SLOAD SWAP1 PUSH2 0x100 EXP SWAP1 DIV PUSH20 0xFFFFFFFFFFFFFFFFFFFFFFFFFFFFFFFFFFFFFFFF AND PUSH20 0xFFFFFFFFFFFFFFFFFFFFFFFFFFFFFFFFFFFFFFFF AND PUSH32 0x8BE0079C531659141344CD1FD0A4F28419497F9722A3DAAFE3B4186F6B6457E0 PUSH1 0x40 MLOAD PUSH1 0x40 MLOAD DUP1 SWAP2 SUB SWAP1 LOG3 DUP1 PUSH1 0x0 DUP1 PUSH2 0x100 EXP DUP2 SLOAD DUP2 PUSH20 0xFFFFFFFFFFFFFFFFFFFFFFFFFFFFFFFFFFFFFFFF MUL NOT AND SWAP1 DUP4 PUSH20 0xFFFFFFFFFFFFFFFFFFFFFFFFFFFFFFFFFFFFFFFF AND MUL OR SWAP1 SSTORE POP POP JUMP JUMPDEST PUSH1 0xB SLOAD DUP2 JUMP JUMPDEST CALLER PUSH20 0xFFFFFFFFFFFFFFFFFFFFFFFFFFFFFFFFFFFFFFFF AND PUSH1 0x0 DUP1 SLOAD SWAP1 PUSH2 0x100 EXP SWAP1 DIV PUSH20 0xFFFFFFFFFFFFFFFFFFFFFFFFFFFFFFFFFFFFFFFF AND PUSH20 0xFFFFFFFFFFFFFFFFFFFFFFFFFFFFFFFFFFFFFFFF AND EQ PUSH2 0x1104 JUMPI PUSH1 0x40 MLOAD PUSH32 0x8C379A000000000000000000000000000000000000000000000000000000000 DUP2 MSTORE PUSH1 0x4 ADD PUSH2 0x10FB SWAP1 PUSH2 0x1BED JUMP JUMPDEST PUSH1 0x40 MLOAD DUP1 SWAP2 SUB SWAP1 REVERT JUMPDEST DUP1 PUSH1 0x1 PUSH1 0x0 PUSH2 0x100 EXP DUP2 SLOAD DUP2 PUSH20 0xFFFFFFFFFFFFFFFFFFFFFFFFFFFFFFFFFFFFFFFF MUL NOT AND SWAP1 DUP4 PUSH20 0xFFFFFFFFFFFFFFFFFFFFFFFFFFFFFFFFFFFFFFFF AND MUL OR SWAP1 SSTORE POP POP JUMP JUMPDEST PUSH1 0x7 PUSH1 0x20 MSTORE DUP1 PUSH1 0x0 MSTORE PUSH1 0x40 PUSH1 0x0 KECCAK256 PUSH1 0x0 SWAP2 POP SWAP1 POP SLOAD DUP2 JUMP JUMPDEST PUSH1 0x0 DUP1 PUSH1 0x7 PUSH1 0x0 CALLER PUSH20 0xFFFFFFFFFFFFFFFFFFFFFFFFFFFFFFFFFFFFFFFF AND PUSH20 0xFFFFFFFFFFFFFFFFFFFFFFFFFFFFFFFFFFFFFFFF AND DUP2 MSTORE PUSH1 0x20 ADD SWAP1 DUP2 MSTORE PUSH1 0x20 ADD PUSH1 0x0 KECCAK256 SLOAD SWAP1 POP PUSH1 0x0 DUP4 DUP3 PUSH2 0x11B3 SWAP2 SWAP1 PUSH2 0x1B4B JUMP JUMPDEST SWAP1 POP DUP1 PUSH1 0x7 PUSH1 0x0 CALLER PUSH20 0xFFFFFFFFFFFFFFFFFFFFFFFFFFFFFFFFFFFFFFFF AND PUSH20 0xFFFFFFFFFFFFFFFFFFFFFFFFFFFFFFFFFFFFFFFF AND DUP2 MSTORE PUSH1 0x20 ADD SWAP1 DUP2 MSTORE PUSH1 0x20 ADD PUSH1 0x0 KECCAK256 DUP2 SWAP1 SSTORE POP DUP2 PUSH1 0x9 PUSH1 0x0 DUP2 SLOAD DUP2 LT PUSH2 0x120F JUMPI PUSH2 0x120E PUSH2 0x1C0D JUMP JUMPDEST JUMPDEST SWAP1 PUSH1 0x0 MSTORE PUSH1 0x20 PUSH1 0x0 KECCAK256 ADD SLOAD GT DUP1 ISZERO PUSH2 0x1246 JUMPI POP DUP1 PUSH1 0x9 PUSH1 0x0 DUP2 SLOAD DUP2 LT PUSH2 0x1238 JUMPI PUSH2 0x1237 PUSH2 0x1C0D JUMP JUMPDEST JUMPDEST SWAP1 PUSH1 0x0 MSTORE PUSH1 0x20 PUSH1 0x0 KECCAK256 ADD SLOAD GT ISZERO JUMPDEST ISZERO PUSH2 0x1256 JUMPI PUSH1 0x1 SWAP3 POP POP POP PUSH2 0x12CB JUMP JUMPDEST PUSH1 0x1 PUSH1 0x9 DUP1 SLOAD SWAP1 POP GT DUP1 ISZERO PUSH2 0x1289 JUMPI POP DUP2 PUSH1 0x9 PUSH1 0x1 DUP2 SLOAD DUP2 LT PUSH2 0x127C JUMPI PUSH2 0x127B PUSH2 0x1C0D JUMP JUMPDEST JUMPDEST SWAP1 PUSH1 0x0 MSTORE PUSH1 0x20 PUSH1 0x0 KECCAK256 ADD SLOAD GT JUMPDEST DUP1 ISZERO PUSH2 0x12B4 JUMPI POP DUP1 PUSH1 0x9 PUSH1 0x1 DUP2 SLOAD DUP2 LT PUSH2 0x12A6 JUMPI PUSH2 0x12A5 PUSH2 0x1C0D JUMP JUMPDEST JUMPDEST SWAP1 PUSH1 0x0 MSTORE PUSH1 0x20 PUSH1 0x0 KECCAK256 ADD SLOAD GT ISZERO JUMPDEST ISZERO PUSH2 0x12C4 JUMPI PUSH1 0x1 SWAP3 POP POP POP PUSH2 0x12CB JUMP JUMPDEST PUSH1 0x0 SWAP3 POP POP POP JUMPDEST SWAP2 SWAP1 POP JUMP JUMPDEST PUSH1 0x40 MLOAD DUP1 PUSH1 0x40 ADD PUSH1 0x40 MSTORE DUP1 PUSH1 0x0 DUP2 MSTORE PUSH1 0x20 ADD PUSH1 0x0 DUP2 MSTORE POP SWAP1 JUMP JUMPDEST DUP3 DUP1 SLOAD PUSH2 0x12F6 SWAP1 PUSH2 0x1C6B JUMP JUMPDEST SWAP1 PUSH1 0x0 MSTORE PUSH1 0x20 PUSH1 0x0 KECCAK256 SWAP1 PUSH1 0x1F ADD PUSH1 0x20 SWAP1 DIV DUP2 ADD SWAP3 DUP3 PUSH2 0x1318 JUMPI PUSH1 0x0 DUP6 SSTORE PUSH2 0x135F JUMP JUMPDEST DUP3 PUSH1 0x1F LT PUSH2 0x1331 JUMPI DUP1 MLOAD PUSH1 0xFF NOT AND DUP4 DUP1 ADD OR DUP6 SSTORE PUSH2 0x135F JUMP JUMPDEST DUP3 DUP1 ADD PUSH1 0x1 ADD DUP6 SSTORE DUP3 ISZERO PUSH2 0x135F JUMPI SWAP2 DUP3 ADD JUMPDEST DUP3 DUP2 GT ISZERO PUSH2 0x135E JUMPI DUP3 MLOAD DUP3 SSTORE SWAP2 PUSH1 0x20 ADD SWAP2 SWAP1 PUSH1 0x1 ADD SWAP1 PUSH2 0x1343 JUMP JUMPDEST JUMPDEST POP SWAP1 POP PUSH2 0x136C SWAP2 SWAP1 PUSH2 0x13BD JUMP JUMPDEST POP SWAP1 JUMP JUMPDEST DUP3 DUP1 SLOAD DUP3 DUP3 SSTORE SWAP1 PUSH1 0x0 MSTORE PUSH1 0x20 PUSH1 0x0 KECCAK256 SWAP1 DUP2 ADD SWAP3 DUP3 ISZERO PUSH2 0x13AC JUMPI SWAP2 PUSH1 0x20 MUL DUP3 ADD JUMPDEST DUP3 DUP2 GT ISZERO PUSH2 0x13AB JUMPI DUP3 MLOAD DUP3 SSTORE SWAP2 PUSH1 0x20 ADD SWAP2 SWAP1 PUSH1 0x1 ADD SWAP1 PUSH2 0x1390 JUMP JUMPDEST JUMPDEST POP SWAP1 POP PUSH2 0x13B9 SWAP2 SWAP1 PUSH2 0x13BD JUMP JUMPDEST POP SWAP1 JUMP JUMPDEST JUMPDEST DUP1 DUP3 GT ISZERO PUSH2 0x13D6 JUMPI PUSH1 0x0 DUP2 PUSH1 0x0 SWAP1 SSTORE POP PUSH1 0x1 ADD PUSH2 0x13BE JUMP JUMPDEST POP SWAP1 JUMP JUMPDEST PUSH1 0x0 PUSH1 0x40 MLOAD SWAP1 POP SWAP1 JUMP JUMPDEST PUSH1 0x0 DUP1 REVERT JUMPDEST PUSH1 0x0 DUP1 REVERT JUMPDEST PUSH1 0x0 PUSH20 0xFFFFFFFFFFFFFFFFFFFFFFFFFFFFFFFFFFFFFFFF DUP3 AND SWAP1 POP SWAP2 SWAP1 POP JUMP JUMPDEST PUSH1 0x0 PUSH2 0x1419 DUP3 PUSH2 0x13EE JUMP JUMPDEST SWAP1 POP SWAP2 SWAP1 POP JUMP JUMPDEST PUSH2 0x1429 DUP2 PUSH2 0x140E JUMP JUMPDEST DUP2 EQ PUSH2 0x1434 JUMPI PUSH1 0x0 DUP1 REVERT JUMPDEST POP JUMP JUMPDEST PUSH1 0x0 DUP2 CALLDATALOAD SWAP1 POP PUSH2 0x1446 DUP2 PUSH2 0x1420 JUMP JUMPDEST SWAP3 SWAP2 POP POP JUMP JUMPDEST PUSH1 0x0 PUSH1 0x20 DUP3 DUP5 SUB SLT ISZERO PUSH2 0x1462 JUMPI PUSH2 0x1461 PUSH2 0x13E4 JUMP JUMPDEST JUMPDEST PUSH1 0x0 PUSH2 0x1470 DUP5 DUP3 DUP6 ADD PUSH2 0x1437 JUMP JUMPDEST SWAP2 POP POP SWAP3 SWAP2 POP POP JUMP JUMPDEST PUSH1 0x0 DUP2 SWAP1 POP SWAP2 SWAP1 POP JUMP JUMPDEST PUSH2 0x148C DUP2 PUSH2 0x1479 JUMP JUMPDEST DUP3 MSTORE POP POP JUMP JUMPDEST PUSH1 0x0 PUSH1 0x40 DUP3 ADD SWAP1 POP PUSH2 0x14A7 PUSH1 0x0 DUP4 ADD DUP6 PUSH2 0x1483 JUMP JUMPDEST PUSH2 0x14B4 PUSH1 0x20 DUP4 ADD DUP5 PUSH2 0x1483 JUMP JUMPDEST SWAP4 SWAP3 POP POP POP JUMP JUMPDEST PUSH2 0x14C4 DUP2 PUSH2 0x1479 JUMP JUMPDEST DUP3 MSTORE POP POP JUMP JUMPDEST PUSH1 0x40 DUP3 ADD PUSH1 0x0 DUP3 ADD MLOAD PUSH2 0x14E0 PUSH1 0x0 DUP6 ADD DUP3 PUSH2 0x14BB JUMP JUMPDEST POP PUSH1 0x20 DUP3 ADD MLOAD PUSH2 0x14F3 PUSH1 0x20 DUP6 ADD DUP3 PUSH2 0x14BB JUMP JUMPDEST POP POP POP POP JUMP JUMPDEST PUSH1 0x0 PUSH1 0x40 DUP3 ADD SWAP1 POP PUSH2 0x150E PUSH1 0x0 DUP4 ADD DUP5 PUSH2 0x14CA JUMP JUMPDEST SWAP3 SWAP2 POP POP JUMP JUMPDEST PUSH1 0x0 DUP1 REVERT JUMPDEST PUSH1 0x0 DUP1 REVERT JUMPDEST PUSH1 0x0 PUSH1 0x1F NOT PUSH1 0x1F DUP4 ADD AND SWAP1 POP SWAP2 SWAP1 POP JUMP JUMPDEST PUSH32 0x4E487B7100000000000000000000000000000000000000000000000000000000 PUSH1 0x0 MSTORE PUSH1 0x41 PUSH1 0x4 MSTORE PUSH1 0x24 PUSH1 0x0 REVERT JUMPDEST PUSH2 0x1567 DUP3 PUSH2 0x151E JUMP JUMPDEST DUP2 ADD DUP2 DUP2 LT PUSH8 0xFFFFFFFFFFFFFFFF DUP3 GT OR ISZERO PUSH2 0x1586 JUMPI PUSH2 0x1585 PUSH2 0x152F JUMP JUMPDEST JUMPDEST DUP1 PUSH1 0x40 MSTORE POP POP POP JUMP JUMPDEST PUSH1 0x0 PUSH2 0x1599 PUSH2 0x13DA JUMP JUMPDEST SWAP1 POP PUSH2 0x15A5 DUP3 DUP3 PUSH2 0x155E JUMP JUMPDEST SWAP2 SWAP1 POP JUMP JUMPDEST PUSH1 0x0 PUSH8 0xFFFFFFFFFFFFFFFF DUP3 GT ISZERO PUSH2 0x15C5 JUMPI PUSH2 0x15C4 PUSH2 0x152F JUMP JUMPDEST JUMPDEST PUSH2 0x15CE DUP3 PUSH2 0x151E JUMP JUMPDEST SWAP1 POP PUSH1 0x20 DUP2 ADD SWAP1 POP SWAP2 SWAP1 POP JUMP JUMPDEST DUP3 DUP2 DUP4 CALLDATACOPY PUSH1 0x0 DUP4 DUP4 ADD MSTORE POP POP POP JUMP JUMPDEST PUSH1 0x0 PUSH2 0x15FD PUSH2 0x15F8 DUP5 PUSH2 0x15AA JUMP JUMPDEST PUSH2 0x158F JUMP JUMPDEST SWAP1 POP DUP3 DUP2 MSTORE PUSH1 0x20 DUP2 ADD DUP5 DUP5 DUP5 ADD GT ISZERO PUSH2 0x1619 JUMPI PUSH2 0x1618 PUSH2 0x1519 JUMP JUMPDEST JUMPDEST PUSH2 0x1624 DUP5 DUP3 DUP6 PUSH2 0x15DB JUMP JUMPDEST POP SWAP4 SWAP3 POP POP POP JUMP JUMPDEST PUSH1 0x0 DUP3 PUSH1 0x1F DUP4 ADD SLT PUSH2 0x1641 JUMPI PUSH2 0x1640 PUSH2 0x1514 JUMP JUMPDEST JUMPDEST DUP2 CALLDATALOAD PUSH2 0x1651 DUP5 DUP3 PUSH1 0x20 DUP7 ADD PUSH2 0x15EA JUMP JUMPDEST SWAP2 POP POP SWAP3 SWAP2 POP POP JUMP JUMPDEST PUSH1 0x0 DUP1 PUSH1 0x40 DUP4 DUP6 SUB SLT ISZERO PUSH2 0x1671 JUMPI PUSH2 0x1670 PUSH2 0x13E4 JUMP JUMPDEST JUMPDEST PUSH1 0x0 DUP4 ADD CALLDATALOAD PUSH8 0xFFFFFFFFFFFFFFFF DUP2 GT ISZERO PUSH2 0x168F JUMPI PUSH2 0x168E PUSH2 0x13E9 JUMP JUMPDEST JUMPDEST PUSH2 0x169B DUP6 DUP3 DUP7 ADD PUSH2 0x162C JUMP JUMPDEST SWAP3 POP POP PUSH1 0x20 PUSH2 0x16AC DUP6 DUP3 DUP7 ADD PUSH2 0x1437 JUMP JUMPDEST SWAP2 POP POP SWAP3 POP SWAP3 SWAP1 POP JUMP JUMPDEST PUSH1 0x0 DUP2 ISZERO ISZERO SWAP1 POP SWAP2 SWAP1 POP JUMP JUMPDEST PUSH2 0x16CB DUP2 PUSH2 0x16B6 JUMP JUMPDEST DUP3 MSTORE POP POP JUMP JUMPDEST PUSH1 0x0 PUSH1 0x20 DUP3 ADD SWAP1 POP PUSH2 0x16E6 PUSH1 0x0 DUP4 ADD DUP5 PUSH2 0x16C2 JUMP JUMPDEST SWAP3 SWAP2 POP POP JUMP JUMPDEST PUSH2 0x16F5 DUP2 PUSH2 0x1479 JUMP JUMPDEST DUP2 EQ PUSH2 0x1700 JUMPI PUSH1 0x0 DUP1 REVERT JUMPDEST POP JUMP JUMPDEST PUSH1 0x0 DUP2 CALLDATALOAD SWAP1 POP PUSH2 0x1712 DUP2 PUSH2 0x16EC JUMP JUMPDEST SWAP3 SWAP2 POP POP JUMP JUMPDEST PUSH1 0x0 DUP1 PUSH1 0x0 PUSH1 0x60 DUP5 DUP7 SUB SLT ISZERO PUSH2 0x1731 JUMPI PUSH2 0x1730 PUSH2 0x13E4 JUMP JUMPDEST JUMPDEST PUSH1 0x0 PUSH2 0x173F DUP7 DUP3 DUP8 ADD PUSH2 0x1703 JUMP JUMPDEST SWAP4 POP POP PUSH1 0x20 DUP5 ADD CALLDATALOAD PUSH8 0xFFFFFFFFFFFFFFFF DUP2 GT ISZERO PUSH2 0x1760 JUMPI PUSH2 0x175F PUSH2 0x13E9 JUMP JUMPDEST JUMPDEST PUSH2 0x176C DUP7 DUP3 DUP8 ADD PUSH2 0x162C JUMP JUMPDEST SWAP3 POP POP PUSH1 0x40 PUSH2 0x177D DUP7 DUP3 DUP8 ADD PUSH2 0x1437 JUMP JUMPDEST SWAP2 POP POP SWAP3 POP SWAP3 POP SWAP3 JUMP JUMPDEST PUSH1 0x0 PUSH1 0x20 DUP3 ADD SWAP1 POP PUSH2 0x179C PUSH1 0x0 DUP4 ADD DUP5 PUSH2 0x1483 JUMP JUMPDEST SWAP3 SWAP2 POP POP JUMP JUMPDEST PUSH1 0x0 PUSH8 0xFFFFFFFFFFFFFFFF DUP3 GT ISZERO PUSH2 0x17BD JUMPI PUSH2 0x17BC PUSH2 0x152F JUMP JUMPDEST JUMPDEST PUSH1 0x20 DUP3 MUL SWAP1 POP PUSH1 0x20 DUP2 ADD SWAP1 POP SWAP2 SWAP1 POP JUMP JUMPDEST PUSH1 0x0 DUP1 REVERT JUMPDEST PUSH1 0x0 PUSH2 0x17E6 PUSH2 0x17E1 DUP5 PUSH2 0x17A2 JUMP JUMPDEST PUSH2 0x158F JUMP JUMPDEST SWAP1 POP DUP1 DUP4 DUP3 MSTORE PUSH1 0x20 DUP3 ADD SWAP1 POP PUSH1 0x20 DUP5 MUL DUP4 ADD DUP6 DUP2 GT ISZERO PUSH2 0x1809 JUMPI PUSH2 0x1808 PUSH2 0x17CE JUMP JUMPDEST JUMPDEST DUP4 JUMPDEST DUP2 DUP2 LT ISZERO PUSH2 0x1832 JUMPI DUP1 PUSH2 0x181E DUP9 DUP3 PUSH2 0x1703 JUMP JUMPDEST DUP5 MSTORE PUSH1 0x20 DUP5 ADD SWAP4 POP POP PUSH1 0x20 DUP2 ADD SWAP1 POP PUSH2 0x180B JUMP JUMPDEST POP POP POP SWAP4 SWAP3 POP POP POP JUMP JUMPDEST PUSH1 0x0 DUP3 PUSH1 0x1F DUP4 ADD SLT PUSH2 0x1851 JUMPI PUSH2 0x1850 PUSH2 0x1514 JUMP JUMPDEST JUMPDEST DUP2 CALLDATALOAD PUSH2 0x1861 DUP5 DUP3 PUSH1 0x20 DUP7 ADD PUSH2 0x17D3 JUMP JUMPDEST SWAP2 POP POP SWAP3 SWAP2 POP POP JUMP JUMPDEST PUSH1 0x0 PUSH1 0x20 DUP3 DUP5 SUB SLT ISZERO PUSH2 0x1880 JUMPI PUSH2 0x187F PUSH2 0x13E4 JUMP JUMPDEST JUMPDEST PUSH1 0x0 DUP3 ADD CALLDATALOAD PUSH8 0xFFFFFFFFFFFFFFFF DUP2 GT ISZERO PUSH2 0x189E JUMPI PUSH2 0x189D PUSH2 0x13E9 JUMP JUMPDEST JUMPDEST PUSH2 0x18AA DUP5 DUP3 DUP6 ADD PUSH2 0x183C JUMP JUMPDEST SWAP2 POP POP SWAP3 SWAP2 POP POP JUMP JUMPDEST PUSH2 0x18BC DUP2 PUSH2 0x140E JUMP JUMPDEST DUP3 MSTORE POP POP JUMP JUMPDEST PUSH1 0x0 PUSH1 0x20 DUP3 ADD SWAP1 POP PUSH2 0x18D7 PUSH1 0x0 DUP4 ADD DUP5 PUSH2 0x18B3 JUMP JUMPDEST SWAP3 SWAP2 POP POP JUMP JUMPDEST PUSH1 0x0 DUP1 PUSH1 0x40 DUP4 DUP6 SUB SLT ISZERO PUSH2 0x18F4 JUMPI PUSH2 0x18F3 PUSH2 0x13E4 JUMP JUMPDEST JUMPDEST PUSH1 0x0 PUSH2 0x1902 DUP6 DUP3 DUP7 ADD PUSH2 0x1437 JUMP JUMPDEST SWAP3 POP POP PUSH1 0x20 PUSH2 0x1913 DUP6 DUP3 DUP7 ADD PUSH2 0x1703 JUMP JUMPDEST SWAP2 POP POP SWAP3 POP SWAP3 SWAP1 POP JUMP JUMPDEST PUSH1 0x0 DUP2 MLOAD SWAP1 POP SWAP2 SWAP1 POP JUMP JUMPDEST PUSH1 0x0 DUP3 DUP3 MSTORE PUSH1 0x20 DUP3 ADD SWAP1 POP SWAP3 SWAP2 POP POP JUMP JUMPDEST PUSH1 0x0 JUMPDEST DUP4 DUP2 LT ISZERO PUSH2 0x1957 JUMPI DUP1 DUP3 ADD MLOAD DUP2 DUP5 ADD MSTORE PUSH1 0x20 DUP2 ADD SWAP1 POP PUSH2 0x193C JUMP JUMPDEST DUP4 DUP2 GT ISZERO PUSH2 0x1966 JUMPI PUSH1 0x0 DUP5 DUP5 ADD MSTORE JUMPDEST POP POP POP POP JUMP JUMPDEST PUSH1 0x0 PUSH2 0x1977 DUP3 PUSH2 0x191D JUMP JUMPDEST PUSH2 0x1981 DUP2 DUP6 PUSH2 0x1928 JUMP JUMPDEST SWAP4 POP PUSH2 0x1991 DUP2 DUP6 PUSH1 0x20 DUP7 ADD PUSH2 0x1939 JUMP JUMPDEST PUSH2 0x199A DUP2 PUSH2 0x151E JUMP JUMPDEST DUP5 ADD SWAP2 POP POP SWAP3 SWAP2 POP POP JUMP JUMPDEST PUSH1 0x0 PUSH1 0x20 DUP3 ADD SWAP1 POP DUP2 DUP2 SUB PUSH1 0x0 DUP4 ADD MSTORE PUSH2 0x19BF DUP2 DUP5 PUSH2 0x196C JUMP JUMPDEST SWAP1 POP SWAP3 SWAP2 POP POP JUMP JUMPDEST PUSH1 0x0 PUSH1 0x20 DUP3 DUP5 SUB SLT ISZERO PUSH2 0x19DD JUMPI PUSH2 0x19DC PUSH2 0x13E4 JUMP JUMPDEST JUMPDEST PUSH1 0x0 DUP3 ADD CALLDATALOAD PUSH8 0xFFFFFFFFFFFFFFFF DUP2 GT ISZERO PUSH2 0x19FB JUMPI PUSH2 0x19FA PUSH2 0x13E9 JUMP JUMPDEST JUMPDEST PUSH2 0x1A07 DUP5 DUP3 DUP6 ADD PUSH2 0x162C JUMP JUMPDEST SWAP2 POP POP SWAP3 SWAP2 POP POP JUMP JUMPDEST PUSH1 0x0 PUSH1 0x40 DUP3 ADD SWAP1 POP PUSH2 0x1A25 PUSH1 0x0 DUP4 ADD DUP6 PUSH2 0x18B3 JUMP JUMPDEST PUSH2 0x1A32 PUSH1 0x20 DUP4 ADD DUP5 PUSH2 0x1483 JUMP JUMPDEST SWAP4 SWAP3 POP POP POP JUMP JUMPDEST PUSH2 0x1A42 DUP2 PUSH2 0x16B6 JUMP JUMPDEST DUP2 EQ PUSH2 0x1A4D JUMPI PUSH1 0x0 DUP1 REVERT JUMPDEST POP JUMP JUMPDEST PUSH1 0x0 DUP2 MLOAD SWAP1 POP PUSH2 0x1A5F DUP2 PUSH2 0x1A39 JUMP JUMPDEST SWAP3 SWAP2 POP POP JUMP JUMPDEST PUSH1 0x0 PUSH1 0x20 DUP3 DUP5 SUB SLT ISZERO PUSH2 0x1A7B JUMPI PUSH2 0x1A7A PUSH2 0x13E4 JUMP JUMPDEST JUMPDEST PUSH1 0x0 PUSH2 0x1A89 DUP5 DUP3 DUP6 ADD PUSH2 0x1A50 JUMP JUMPDEST SWAP2 POP POP SWAP3 SWAP2 POP POP JUMP JUMPDEST PUSH1 0x0 PUSH1 0x60 DUP3 ADD SWAP1 POP PUSH2 0x1AA7 PUSH1 0x0 DUP4 ADD DUP7 PUSH2 0x18B3 JUMP JUMPDEST PUSH2 0x1AB4 PUSH1 0x20 DUP4 ADD DUP6 PUSH2 0x18B3 JUMP JUMPDEST PUSH2 0x1AC1 PUSH1 0x40 DUP4 ADD DUP5 PUSH2 0x1483 JUMP JUMPDEST SWAP5 SWAP4 POP POP POP POP JUMP JUMPDEST PUSH1 0x0 DUP2 SWAP1 POP SWAP3 SWAP2 POP POP JUMP JUMPDEST PUSH1 0x0 PUSH2 0x1ADF DUP3 PUSH2 0x191D JUMP JUMPDEST PUSH2 0x1AE9 DUP2 DUP6 PUSH2 0x1AC9 JUMP JUMPDEST SWAP4 POP PUSH2 0x1AF9 DUP2 DUP6 PUSH1 0x20 DUP7 ADD PUSH2 0x1939 JUMP JUMPDEST DUP1 DUP5 ADD SWAP2 POP POP SWAP3 SWAP2 POP POP JUMP JUMPDEST PUSH1 0x0 PUSH2 0x1B11 DUP3 DUP5 PUSH2 0x1AD4 JUMP JUMPDEST SWAP2 POP DUP2 SWAP1 POP SWAP3 SWAP2 POP POP JUMP JUMPDEST PUSH32 0x4E487B7100000000000000000000000000000000000000000000000000000000 PUSH1 0x0 MSTORE PUSH1 0x11 PUSH1 0x4 MSTORE PUSH1 0x24 PUSH1 0x0 REVERT JUMPDEST PUSH1 0x0 PUSH2 0x1B56 DUP3 PUSH2 0x1479 JUMP JUMPDEST SWAP2 POP PUSH2 0x1B61 DUP4 PUSH2 0x1479 JUMP JUMPDEST SWAP3 POP DUP3 PUSH32 0xFFFFFFFFFFFFFFFFFFFFFFFFFFFFFFFFFFFFFFFFFFFFFFFFFFFFFFFFFFFFFFFF SUB DUP3 GT ISZERO PUSH2 0x1B96 JUMPI PUSH2 0x1B95 PUSH2 0x1B1C JUMP JUMPDEST JUMPDEST DUP3 DUP3 ADD SWAP1 POP SWAP3 SWAP2 POP POP JUMP JUMPDEST PUSH32 0x4F776E61626C653A2063616C6C6572206973206E6F7420746865206F776E6572 PUSH1 0x0 DUP3 ADD MSTORE POP JUMP JUMPDEST PUSH1 0x0 PUSH2 0x1BD7 PUSH1 0x20 DUP4 PUSH2 0x1928 JUMP JUMPDEST SWAP2 POP PUSH2 0x1BE2 DUP3 PUSH2 0x1BA1 JUMP JUMPDEST PUSH1 0x20 DUP3 ADD SWAP1 POP SWAP2 SWAP1 POP JUMP JUMPDEST PUSH1 0x0 PUSH1 0x20 DUP3 ADD SWAP1 POP DUP2 DUP2 SUB PUSH1 0x0 DUP4 ADD MSTORE PUSH2 0x1C06 DUP2 PUSH2 0x1BCA JUMP JUMPDEST SWAP1 POP SWAP2 SWAP1 POP JUMP JUMPDEST PUSH32 0x4E487B7100000000000000000000000000000000000000000000000000000000 PUSH1 0x0 MSTORE PUSH1 0x32 PUSH1 0x4 MSTORE PUSH1 0x24 PUSH1 0x0 REVERT JUMPDEST PUSH32 0x4E487B7100000000000000000000000000000000000000000000000000000000 PUSH1 0x0 MSTORE PUSH1 0x22 PUSH1 0x4 MSTORE PUSH1 0x24 PUSH1 0x0 REVERT JUMPDEST PUSH1 0x0 PUSH1 0x2 DUP3 DIV SWAP1 POP PUSH1 0x1 DUP3 AND DUP1 PUSH2 0x1C83 JUMPI PUSH1 0x7F DUP3 AND SWAP2 POP JUMPDEST PUSH1 0x20 DUP3 LT DUP2 SUB PUSH2 0x1C96 JUMPI PUSH2 0x1C95 PUSH2 0x1C3C JUMP JUMPDEST JUMPDEST POP SWAP2 SWAP1 POP JUMP JUMPDEST PUSH32 0x4F776E61626C653A206E6577206F776E657220697320746865207A65726F2061 PUSH1 0x0 DUP3 ADD MSTORE PUSH32 0x6464726573730000000000000000000000000000000000000000000000000000 PUSH1 0x20 DUP3 ADD MSTORE POP JUMP JUMPDEST PUSH1 0x0 PUSH2 0x1CF8 PUSH1 0x26 DUP4 PUSH2 0x1928 JUMP JUMPDEST SWAP2 POP PUSH2 0x1D03 DUP3 PUSH2 0x1C9C JUMP JUMPDEST PUSH1 0x40 DUP3 ADD SWAP1 POP SWAP2 SWAP1 POP JUMP JUMPDEST PUSH1 0x0 PUSH1 0x20 DUP3 ADD SWAP1 POP DUP2 DUP2 SUB PUSH1 0x0 DUP4 ADD MSTORE PUSH2 0x1D27 DUP2 PUSH2 0x1CEB JUMP JUMPDEST SWAP1 POP SWAP2 SWAP1 POP JUMP INVALID LOG2 PUSH5 0x6970667358 0x22 SLT KECCAK256 LOG3 0xDB 0xDB SWAP14 JUMPI PUSH23 0x7E0CB23CE8C3FE89848C8D1CFAB58EBFE4ADEB53C14C08 0xF9 SWAP13 DUP11 PUSH5 0x736F6C6343 STOP ADDMOD 0xE STOP CALLER "
				},
				"gasEstimates": {
					"creation": {
						"codeDepositCost": "1504800",
						"executionCost": "infinite",
						"totalCost": "infinite"
					},
					"external": {
						"claim(address)": "infinite",
						"countTweetsFunded(address)": "2903",
						"currentTier(address)": "2859",
						"donated(address)": "2924",
						"fundTweet(uint256,string,address)": "infinite",
						"funded(string,address)": "infinite",
						"getTweetFundedForUser(address,uint256)": "infinite",
						"getTweetFunding(string)": "infinite",
						"getUserRewards(address)": "infinite",
						"owner()": "2633",
						"renounceOwnership()": "30323",
						"replaceAsset(address)": "26912",
						"replaceReward(address)": "26977",
						"rewardPerTweet(string)": "infinite",
						"setTiers(uint256[])": "infinite",
						"totalTransactionVolume()": "2495",
						"transferOwnership(address)": "30646",
						"tweetsFundedForUser(address,uint256)": "infinite",
						"userRewards(address)": "infinite"
					},
					"internal": {
						"getEligibility(uint256)": "infinite"
					}
				},
				"methodIdentifiers": {
					"claim(address)": "1e83409a",
					"countTweetsFunded(address)": "de0c4c7c",
					"currentTier(address)": "5d6c83b5",
					"donated(address)": "fb690dcc",
					"fundTweet(uint256,string,address)": "2a108e21",
					"funded(string,address)": "0b21d7a2",
					"getTweetFundedForUser(address,uint256)": "d0d996c4",
					"getTweetFunding(string)": "d38ef5f1",
					"getUserRewards(address)": "078b0fb7",
					"owner()": "8da5cb5b",
					"renounceOwnership()": "715018a6",
					"replaceAsset(address)": "cac843aa",
					"replaceReward(address)": "f8c842e5",
					"rewardPerTweet(string)": "de51d1fd",
					"setTiers(uint256[])": "82b670e4",
					"totalTransactionVolume()": "f839f319",
					"transferOwnership(address)": "f2fde38b",
					"tweetsFundedForUser(address,uint256)": "f0863cce",
					"userRewards(address)": "0660f1e8"
				}
			},
			"storageLayout": {
				"storage": [
					{
						"astId": 1022,
						"contract": "contracts/SocialDiamond.sol:SocialDiamond",
						"label": "_owner",
						"offset": 0,
						"slot": "0",
						"type": "t_address"
					},
					{
						"astId": 18,
						"contract": "contracts/SocialDiamond.sol:SocialDiamond",
						"label": "reward",
						"offset": 0,
						"slot": "1",
						"type": "t_address"
					},
					{
						"astId": 20,
						"contract": "contracts/SocialDiamond.sol:SocialDiamond",
						"label": "asset",
						"offset": 0,
						"slot": "2",
						"type": "t_address"
					},
					{
						"astId": 25,
						"contract": "contracts/SocialDiamond.sol:SocialDiamond",
						"label": "tweetsFundedForUser",
						"offset": 0,
						"slot": "3",
						"type": "t_mapping(t_address,t_array(t_string_storage)dyn_storage)"
					},
					{
						"astId": 29,
						"contract": "contracts/SocialDiamond.sol:SocialDiamond",
						"label": "countTweetsFunded",
						"offset": 0,
						"slot": "4",
						"type": "t_mapping(t_address,t_uint256)"
					},
					{
						"astId": 35,
						"contract": "contracts/SocialDiamond.sol:SocialDiamond",
						"label": "funded",
						"offset": 0,
						"slot": "5",
						"type": "t_mapping(t_string_memory_ptr,t_mapping(t_address,t_bool))"
					},
					{
						"astId": 40,
						"contract": "contracts/SocialDiamond.sol:SocialDiamond",
						"label": "userRewards",
						"offset": 0,
						"slot": "6",
						"type": "t_mapping(t_address,t_struct(Reward)16_storage)"
					},
					{
						"astId": 44,
						"contract": "contracts/SocialDiamond.sol:SocialDiamond",
						"label": "donated",
						"offset": 0,
						"slot": "7",
						"type": "t_mapping(t_address,t_uint256)"
					},
					{
						"astId": 48,
						"contract": "contracts/SocialDiamond.sol:SocialDiamond",
						"label": "currentTier",
						"offset": 0,
						"slot": "8",
						"type": "t_mapping(t_address,t_uint256)"
					},
					{
						"astId": 51,
						"contract": "contracts/SocialDiamond.sol:SocialDiamond",
						"label": "tiers",
						"offset": 0,
						"slot": "9",
						"type": "t_array(t_uint256)dyn_storage"
					},
					{
						"astId": 55,
						"contract": "contracts/SocialDiamond.sol:SocialDiamond",
						"label": "rewardPerTweet",
						"offset": 0,
						"slot": "10",
						"type": "t_mapping(t_string_memory_ptr,t_uint256)"
					},
					{
						"astId": 57,
						"contract": "contracts/SocialDiamond.sol:SocialDiamond",
						"label": "totalTransactionVolume",
						"offset": 0,
						"slot": "11",
						"type": "t_uint256"
					}
				],
				"types": {
					"t_address": {
						"encoding": "inplace",
						"label": "address",
						"numberOfBytes": "20"
					},
					"t_array(t_string_storage)dyn_storage": {
						"base": "t_string_storage",
						"encoding": "dynamic_array",
						"label": "string[]",
						"numberOfBytes": "32"
					},
					"t_array(t_uint256)dyn_storage": {
						"base": "t_uint256",
						"encoding": "dynamic_array",
						"label": "uint256[]",
						"numberOfBytes": "32"
					},
					"t_bool": {
						"encoding": "inplace",
						"label": "bool",
						"numberOfBytes": "1"
					},
					"t_mapping(t_address,t_array(t_string_storage)dyn_storage)": {
						"encoding": "mapping",
						"key": "t_address",
						"label": "mapping(address => string[])",
						"numberOfBytes": "32",
						"value": "t_array(t_string_storage)dyn_storage"
					},
					"t_mapping(t_address,t_bool)": {
						"encoding": "mapping",
						"key": "t_address",
						"label": "mapping(address => bool)",
						"numberOfBytes": "32",
						"value": "t_bool"
					},
					"t_mapping(t_address,t_struct(Reward)16_storage)": {
						"encoding": "mapping",
						"key": "t_address",
						"label": "mapping(address => struct SocialDiamond.Reward)",
						"numberOfBytes": "32",
						"value": "t_struct(Reward)16_storage"
					},
					"t_mapping(t_address,t_uint256)": {
						"encoding": "mapping",
						"key": "t_address",
						"label": "mapping(address => uint256)",
						"numberOfBytes": "32",
						"value": "t_uint256"
					},
					"t_mapping(t_string_memory_ptr,t_mapping(t_address,t_bool))": {
						"encoding": "mapping",
						"key": "t_string_memory_ptr",
						"label": "mapping(string => mapping(address => bool))",
						"numberOfBytes": "32",
						"value": "t_mapping(t_address,t_bool)"
					},
					"t_mapping(t_string_memory_ptr,t_uint256)": {
						"encoding": "mapping",
						"key": "t_string_memory_ptr",
						"label": "mapping(string => uint256)",
						"numberOfBytes": "32",
						"value": "t_uint256"
					},
					"t_string_memory_ptr": {
						"encoding": "bytes",
						"label": "string",
						"numberOfBytes": "32"
					},
					"t_string_storage": {
						"encoding": "bytes",
						"label": "string",
						"numberOfBytes": "32"
					},
					"t_struct(Reward)16_storage": {
						"encoding": "inplace",
						"label": "struct SocialDiamond.Reward",
						"members": [
							{
								"astId": 13,
								"contract": "contracts/SocialDiamond.sol:SocialDiamond",
								"label": "claimed",
								"offset": 0,
								"slot": "0",
								"type": "t_uint256"
							},
							{
								"astId": 15,
								"contract": "contracts/SocialDiamond.sol:SocialDiamond",
								"label": "pending",
								"offset": 0,
								"slot": "1",
								"type": "t_uint256"
							}
						],
						"numberOfBytes": "64"
					},
					"t_uint256": {
						"encoding": "inplace",
						"label": "uint256",
						"numberOfBytes": "32"
					}
				}
			},
			"userdoc": {
				"kind": "user",
				"methods": {},
				"version": 1
			}
		}
	}
}